{
  "_format": "hh-sol-artifact-1",
  "contractName": "MiningUTH2",
  "sourceName": "contracts/MiningUTH2.sol",
  "abi": [
    {
      "inputs": [
        {
          "internalType": "address",
          "name": "uth2Token",
          "type": "address"
        },
        {
          "internalType": "address",
          "name": "h2oToken",
          "type": "address"
        },
        {
          "internalType": "address",
          "name": "owner1",
          "type": "address"
        },
        {
          "internalType": "address",
          "name": "owner2",
          "type": "address"
        }
      ],
      "stateMutability": "nonpayable",
      "type": "constructor"
    },
    {
      "anonymous": false,
      "inputs": [
        {
          "indexed": true,
          "internalType": "address",
          "name": "token",
          "type": "address"
        },
        {
          "indexed": true,
          "internalType": "address",
          "name": "to",
          "type": "address"
        },
        {
          "indexed": false,
          "internalType": "uint256",
          "name": "amount",
          "type": "uint256"
        }
      ],
      "name": "EmergencyWithdraw",
      "type": "event"
    },
    {
      "anonymous": false,
      "inputs": [
        {
          "indexed": true,
          "internalType": "uint256",
          "name": "index",
          "type": "uint256"
        },
        {
          "indexed": true,
          "internalType": "address",
          "name": "newOwner",
          "type": "address"
        }
      ],
      "name": "OwnerChanged",
      "type": "event"
    },
    {
      "anonymous": false,
      "inputs": [
        {
          "indexed": true,
          "internalType": "uint256",
          "name": "packageId",
          "type": "uint256"
        },
        {
          "indexed": false,
          "internalType": "uint256",
          "name": "price",
          "type": "uint256"
        },
        {
          "indexed": false,
          "internalType": "uint256",
          "name": "dailyYield",
          "type": "uint256"
        }
      ],
      "name": "PackageConfigured",
      "type": "event"
    },
    {
      "anonymous": false,
      "inputs": [
        {
          "indexed": true,
          "internalType": "address",
          "name": "user",
          "type": "address"
        },
        {
          "indexed": true,
          "internalType": "uint256",
          "name": "packageId",
          "type": "uint256"
        },
        {
          "indexed": false,
          "internalType": "uint256",
          "name": "units",
          "type": "uint256"
        },
        {
          "indexed": false,
          "internalType": "uint256",
          "name": "totalPaid",
          "type": "uint256"
        }
      ],
      "name": "PackagePurchased",
      "type": "event"
    },
    {
      "anonymous": false,
      "inputs": [
        {
          "indexed": true,
          "internalType": "address",
          "name": "by",
          "type": "address"
        }
      ],
      "name": "Paused",
      "type": "event"
    },
    {
      "anonymous": false,
      "inputs": [
        {
          "indexed": true,
          "internalType": "address",
          "name": "user",
          "type": "address"
        },
        {
          "indexed": false,
          "internalType": "uint256",
          "name": "amount",
          "type": "uint256"
        }
      ],
      "name": "RewardsClaimed",
      "type": "event"
    },
    {
      "anonymous": false,
      "inputs": [
        {
          "indexed": true,
          "internalType": "address",
          "name": "by",
          "type": "address"
        }
      ],
      "name": "Unpaused",
      "type": "event"
    },
    {
      "inputs": [],
      "name": "H2O_TOKEN",
      "outputs": [
        {
          "internalType": "address",
          "name": "",
          "type": "address"
        }
      ],
      "stateMutability": "view",
      "type": "function"
    },
    {
      "inputs": [],
      "name": "MAX_PACKAGES",
      "outputs": [
        {
          "internalType": "uint256",
          "name": "",
          "type": "uint256"
        }
      ],
      "stateMutability": "view",
      "type": "function"
    },
    {
      "inputs": [],
      "name": "PERMIT2",
      "outputs": [
        {
          "internalType": "address",
          "name": "",
          "type": "address"
        }
      ],
      "stateMutability": "view",
      "type": "function"
    },
    {
      "inputs": [],
      "name": "SECONDS_PER_DAY",
      "outputs": [
        {
          "internalType": "uint256",
          "name": "",
          "type": "uint256"
        }
      ],
      "stateMutability": "view",
      "type": "function"
    },
    {
      "inputs": [],
      "name": "UTH2_TOKEN",
      "outputs": [
        {
          "internalType": "address",
          "name": "",
          "type": "address"
        }
      ],
      "stateMutability": "view",
      "type": "function"
    },
    {
      "inputs": [
        {
          "internalType": "uint256",
          "name": "packageId",
          "type": "uint256"
        },
        {
          "internalType": "uint256",
          "name": "units",
          "type": "uint256"
        },
        {
          "components": [
            {
              "components": [
                {
                  "internalType": "address",
                  "name": "token",
                  "type": "address"
                },
                {
                  "internalType": "uint256",
                  "name": "amount",
                  "type": "uint256"
                }
              ],
              "internalType": "struct IPermit2.TokenPermissions",
              "name": "permitted",
              "type": "tuple"
            },
            {
              "internalType": "uint256",
              "name": "nonce",
              "type": "uint256"
            },
            {
              "internalType": "uint256",
              "name": "deadline",
              "type": "uint256"
            }
          ],
          "internalType": "struct IPermit2.PermitTransferFrom",
          "name": "permit",
          "type": "tuple"
        },
        {
          "internalType": "bytes",
          "name": "signature",
          "type": "bytes"
        }
      ],
      "name": "buyPackage",
      "outputs": [],
      "stateMutability": "nonpayable",
      "type": "function"
    },
    {
      "inputs": [],
      "name": "claimRewards",
      "outputs": [],
      "stateMutability": "nonpayable",
      "type": "function"
    },
    {
      "inputs": [
        {
          "internalType": "address",
          "name": "token",
          "type": "address"
        },
        {
          "internalType": "uint256",
          "name": "amount",
          "type": "uint256"
        },
        {
          "internalType": "address",
          "name": "to",
          "type": "address"
        }
      ],
      "name": "emergencyWithdraw",
      "outputs": [],
      "stateMutability": "nonpayable",
      "type": "function"
    },
    {
      "inputs": [],
      "name": "getAllPackages",
      "outputs": [
        {
          "components": [
            {
              "internalType": "uint256",
              "name": "priceUTH2",
              "type": "uint256"
            },
            {
              "internalType": "uint256",
              "name": "dailyH2OYield",
              "type": "uint256"
            },
            {
              "internalType": "bool",
              "name": "active",
              "type": "bool"
            }
          ],
          "internalType": "struct MiningUTH2.Package[7]",
          "name": "",
          "type": "tuple[7]"
        }
      ],
      "stateMutability": "view",
      "type": "function"
    },
    {
      "inputs": [
        {
          "internalType": "address",
          "name": "user",
          "type": "address"
        }
      ],
      "name": "getUserPackages",
      "outputs": [
        {
          "components": [
            {
              "internalType": "uint256",
              "name": "units",
              "type": "uint256"
            },
            {
              "internalType": "uint256",
              "name": "lastClaimTime",
              "type": "uint256"
            },
            {
              "internalType": "uint256",
              "name": "pendingRewards",
              "type": "uint256"
            }
          ],
          "internalType": "struct MiningUTH2.UserPackage[7]",
          "name": "",
          "type": "tuple[7]"
        }
      ],
      "stateMutability": "view",
      "type": "function"
    },
    {
      "inputs": [
        {
          "internalType": "uint256",
          "name": "",
          "type": "uint256"
        }
      ],
      "name": "owners",
      "outputs": [
        {
          "internalType": "address",
          "name": "",
          "type": "address"
        }
      ],
      "stateMutability": "view",
      "type": "function"
    },
    {
      "inputs": [
        {
          "internalType": "uint256",
          "name": "",
          "type": "uint256"
        }
      ],
      "name": "packages",
      "outputs": [
        {
          "internalType": "uint256",
          "name": "priceUTH2",
          "type": "uint256"
        },
        {
          "internalType": "uint256",
          "name": "dailyH2OYield",
          "type": "uint256"
        },
        {
          "internalType": "bool",
          "name": "active",
          "type": "bool"
        }
      ],
      "stateMutability": "view",
      "type": "function"
    },
    {
      "inputs": [],
      "name": "pause",
      "outputs": [],
      "stateMutability": "nonpayable",
      "type": "function"
    },
    {
      "inputs": [],
      "name": "paused",
      "outputs": [
        {
          "internalType": "bool",
          "name": "",
          "type": "bool"
        }
      ],
      "stateMutability": "view",
      "type": "function"
    },
    {
      "inputs": [
        {
          "internalType": "address",
          "name": "user",
          "type": "address"
        }
      ],
      "name": "pendingPerPackage",
      "outputs": [
        {
          "internalType": "uint256[7]",
          "name": "result",
          "type": "uint256[7]"
        }
      ],
      "stateMutability": "view",
      "type": "function"
    },
    {
      "inputs": [
        {
          "internalType": "address",
          "name": "user",
          "type": "address"
        }
      ],
      "name": "pendingRewards",
      "outputs": [
        {
          "internalType": "uint256",
          "name": "",
          "type": "uint256"
        }
      ],
      "stateMutability": "view",
      "type": "function"
    },
    {
      "inputs": [
        {
          "internalType": "uint256",
          "name": "index",
          "type": "uint256"
        },
        {
          "internalType": "address",
          "name": "addr",
          "type": "address"
        }
      ],
      "name": "setOwner",
      "outputs": [],
      "stateMutability": "nonpayable",
      "type": "function"
    },
    {
      "inputs": [
        {
          "internalType": "uint256",
          "name": "id",
          "type": "uint256"
        },
        {
          "internalType": "uint256",
          "name": "priceUTH2",
          "type": "uint256"
        },
        {
          "internalType": "uint256",
          "name": "dailyYield",
          "type": "uint256"
        },
        {
          "internalType": "bool",
          "name": "active",
          "type": "bool"
        }
      ],
      "name": "setPackage",
      "outputs": [],
      "stateMutability": "nonpayable",
      "type": "function"
    },
    {
      "inputs": [],
      "name": "unpause",
      "outputs": [],
      "stateMutability": "nonpayable",
      "type": "function"
    },
    {
      "inputs": [
        {
          "internalType": "address",
          "name": "user",
          "type": "address"
        }
      ],
      "name": "userDailyYield",
      "outputs": [
        {
          "internalType": "uint256",
          "name": "daily",
          "type": "uint256"
        }
      ],
      "stateMutability": "view",
      "type": "function"
    },
    {
      "inputs": [
        {
          "internalType": "address",
          "name": "",
          "type": "address"
        },
        {
          "internalType": "uint256",
          "name": "",
          "type": "uint256"
        }
      ],
      "name": "userPackages",
      "outputs": [
        {
          "internalType": "uint256",
          "name": "units",
          "type": "uint256"
        },
        {
          "internalType": "uint256",
          "name": "lastClaimTime",
          "type": "uint256"
        },
        {
          "internalType": "uint256",
          "name": "pendingRewards",
          "type": "uint256"
        }
      ],
      "stateMutability": "view",
      "type": "function"
    }
  ],
  "bytecode": "0x60c0346200031257601f620016fd38819003918201601f191683019291906001600160401b0384118385101762000317578160809284926040968752833981010312620003125762000051816200034d565b602090620000618284016200034d565b926200007d6060620000758784016200034d565b92016200034d565b6001600160a01b039490919083861615158062000306575b15620002d557858216938415620002a45760805260a052600080546001600160a01b03199081169094179055818516156200029b5750925b6001931690835416178255620000e26200032d565b8284678ac7230489e8000092838152838582015201528060025560035560ff199082826004541617600455620001176200032d565b68015af1d78b58c40000808252848668018493fba64ef00000938486820152015260055560065582826007541617600755620001526200032d565b6802b5e3af16b18800008082528486680340aad21b3b70000093848682015201526008556009558282600a541617600a556200018d6200032d565b68056bc75e2d63100000808252848668070c1cc73b00c800009384868201520152600b55600c558282600d541617600d55620001c86200032d565b680d8d726b7177a8000080825284866812f939c99edab800009384868201520152600e55600f5582826010541617601055620002036200032d565b681b1ae4d6e2ef50000080825284866828a857425466f800009384868201520152601155601255828260135416176013556200023e6200032d565b8385683635c9adc5dea00000928381526856bc75e2d6310000008095820152015260145560155560165416176016555161139a90816200036382396080518181816101ca0152610a02015260a0518181816107fb0152610df20152f35b905092620000cd565b875162461bcd60e51b815260048101879052600a6024820152692d32b9379037bbb732b960b11b6044820152606490fd5b865162461bcd60e51b815260048101869052600a6024820152692d32b937903a37b5b2b760b11b6044820152606490fd5b50858116151562000095565b600080fd5b634e487b7160e01b600052604160045260246000fd5b60405190606082016001600160401b038111838210176200031757604052565b51906001600160a01b0382168203620003125756fe608060408181526004908136101561001657600080fd5b60009260e0908435821c908163025e7c2714611109575080630a421f0f1461102a57806331d7a26214610fe2578063372500ab14610da75780633f4ba83a14610d44578063551512de14610c215780635c975abb14610bfd5780636afdd85014610bd357806374f0314f14610bb557806376c0773814610b325780637fd3924714610a315780637fed9ab9146109ed578063810e45381461096c5780638456cb59146108f85780638bb0097b146108935780639408e7b214610877578063c216212a1461082a578063c5253764146107e6578063c78da6e6146106e8578063deef5378146105fa5763eaf4a3fa1461010d57600080fd5b346105f6573660031901126105f25781359060248035919060803660431901126105ee5760c4359067ffffffffffffffff958683116105ea57366023840112156105ea5782810135918783116105e657368184860101116105e65761017760ff6018541615611223565b60078710156105b2578515610583576003870260ff83820154161561054e57866101a491600201546112cb565b93846064351061050c576001600160a01b03986044358a8116939190849003610508578a7f0000000000000000000000000000000000000000000000000000000000000000168094036104d857875192888401848110838211176104c657908d918a52308552602097888601958a87526e22d473030f116ddee9f6b43ac78ba391823b156104c2578f938a86928f519a8b978896879463187945bd60e11b86528261024d611154565b16908601526064358d860152608435604486015260a4356064860152511660848401525160a48301523360c483015261010060e483015280610104830152808a6101249401848401378181018301849052601f01601f191681010301925af180156104b857610492575b5050508360011c91898981541699875186818063a9059cbb60e01b9e8f825289888301916102f99260209093929193604081019460018060a01b031681520152565b038186895af1801561048857916103219188979695949361046b575b506001541694886112de565b88519b8c526001600160a01b03909416918b01918252602082019390935289928391829060400103925af1958615610461577f129a0377f5862974e93e873169fd1e8cf0681916d5b8b04338cb4224af00f024949596610434575b50338752601781526103908684892061116a565b506001810190815415158061042a575b610415575b50429055338752601781526103bc8684892061116a565b506103c8868254611258565b90553387526017815260016103df87858a2061116a565b500154156103f6575b82519485528401523392a380f35b338752601781526104098684892061116a565b506001429101556103e8565b600261042189336112eb565b910155386103a5565b50805415156103a0565b61045390823d841161045a575b61044b81836111e2565b81019061127b565b503861037c565b503d610441565b83513d89823e3d90fd5b61048190883d8a1161045a5761044b81836111e2565b5038610315565b89513d85823e3d90fd5b829b939b116104a757508552973880806102b7565b634e487b7160e01b83526041845282fd5b88513d8e823e3d90fd5b8480fd5b634e487b7160e01b8e5260418752838efd5b875162461bcd60e51b8152602081870152600b818401526a2bb937b733903a37b5b2b760a91b6044820152606490fd5b8b80fd5b855162461bcd60e51b8152602081850152601a818401527f496e73756666696369656e74207065726d697420616d6f756e740000000000006044820152606490fd5b855162461bcd60e51b81526020818501526010818401526f5061636b61676520696e61637469766560801b6044820152606490fd5b90600a606492602087519362461bcd60e51b8552840152820152695a65726f20756e69747360b01b6044820152fd5b90600f606492602087519362461bcd60e51b85528401528201526e496e76616c6964207061636b61676560881b6044820152fd5b8880fd5b8780fd5b8580fd5b8280fd5b8380fd5b848383346105f257602090816003193601126105f657610618611139565b90835161062481611194565b83865b8381106106d457505050506001600160a01b031683526017815281832082519061065082611194565b84825b6007821061069a575050835194919050845b60078310610673576102a086f35b83606060019287855180518352848101518584015201518882015201920192019190610665565b60038560019288999699516106ae816111c6565b86548152848701548382015260028701548a820152815201930191019091959295610653565b6106dc611204565b81840152018490610627565b838584346107e25760803660031901126107e2578235906024356044356064358015158091036105ee57855461073390336001600160a01b03918216149081156107d4575b50611293565b60078510156107a4577f48641f4a0f178e182df2f9884537f7d8e8e9e71b933a9df65dea78f211120ce89495968185805161076d816111c6565b868152856020820152015260038702848160020155836003820155019060ff8019835416911617905582519182526020820152a280f35b835162461bcd60e51b8152602081890152600a602482015269125b9d985b1a59081a5960b21b6044820152606490fd5b90506001541633148961072d565b5080fd5b8483346107e257816003193601126107e257517f00000000000000000000000000000000000000000000000000000000000000006001600160a01b03168152602090f35b5050346105f25760203660031901126105f2578135926007841015610874575060036060930260ff8160020154936003830154920154169082519384526020840152151590820152f35b80fd5b8483346107e257816003193601126107e2576020905160078152f35b8483346107e257806003193601126107e2576108ad611139565b6001600160a01b03168252601760205280822060243592600784101561087457506060926108da9161116a565b50805491600260018301549201549181519384526020840152820152f35b8434610874578060031936011261087457805461092990336001600160a01b039182161490811561095e5750611293565b600160ff196018541617601855337f62e78cea01bee320cd4e420270b5ea74000d11b0c9f74754ebdbfc544b05a2588280a280f35b90506001541633148361072d565b828534610874576020906020600319360112610874579061098b611139565b82916001600160a01b039091169082905b600784106109ae576020858751908152f35b909192936109e3600191858552601784526109dd6109ce888a882061116a565b50546003808a020154906112cb565b90611258565b940192919061099c565b8483346107e257816003193601126107e257517f00000000000000000000000000000000000000000000000000000000000000006001600160a01b03168152602090f35b505090346105f257816003193601126105f2576001600160a01b03602435818116938335939290918590036105ee5780610a77918754163314908115610b245750611293565b6002831015610af1578315610abf57505080546001600160a01b031916821781557f9c65bdcdf3baa5d433981546cddddb0c820aa405c7bd651375df9f19f02698768380a380f35b906020606492519162461bcd60e51b8352820152600c60248201526b5a65726f206164647265737360a01b6044820152fd5b906020606492519162461bcd60e51b8352820152600d60248201526c092dcecc2d8d2c840d2dcc8caf609b1b6044820152fd5b90506001541633143861072d565b508382346107e2576020806003193601126105f257610b52929192611139565b92805193610b5f85611194565b85368637835b60078110610b95575050519291835b60078210610b80578585f35b82806001928651815201940191019092610b74565b80610ba5600192849897986112eb565b8160051b87015201949394610b65565b8483346107e257816003193601126107e25760209051620151808152f35b8483346107e257816003193601126107e257602090516e22d473030f116ddee9f6b43ac78ba38152f35b8483346107e257816003193601126107e25760209060ff6018541690519015158152f35b505090346105f25760603660031901126105f257610c3d611139565b9160243590610c4a611154565b85546001600160a01b0390811633148015610d37575b610c6990611293565b808216958615610d0a57835163a9059cbb60e01b81526001600160a01b03909316958301958652602086810186905291169482908190604001038189885af18015610d0057917ff24ef89f38eadc1bde50701ad6e4d6d11a2dc24f7cf834a486991f38833285049391602093610ce3575b5051908152a380f35b610cf990843d861161045a5761044b81836111e2565b5038610cda565b82513d88823e3d90fd5b835162461bcd60e51b815260208188015260076024820152665a65726f20746f60c81b6044820152606490fd5b5060015481163314610c60565b84346108745780600319360112610874578054610d7590336001600160a01b039182161490811561095e5750611293565b60ff1960185416601855337f5db9ee0a495bf2e6ff9c91a7834c1ba4fdd244a5e8aa4e537bd38aeae4b073aa8280a280f35b505090346105f257826003193601126105f257610dc960ff6018541615611223565b8291835b60078110610f7d57508215610f4d5780516370a0823160e01b815230838201526020927f00000000000000000000000000000000000000000000000000000000000000006001600160a01b0316918481602481865afa908115610f43579086918891610f0e575b5010610ecb57825163a9059cbb60e01b8152339181019182526020820186905294939291839186919082908990829060400103925af1938415610ec1577ffc30cddea38e2bf4d6ea7d3f9ed3b6ad7f176419f4963bd81318067a4aee73fe9394610ea4575b50519283523392a280f35b610eba90833d851161045a5761044b81836111e2565b5038610e99565b81513d87823e3d90fd5b825162461bcd60e51b8152908101849052601860248201527f496e73756666696369656e742048324f207265736572766500000000000000006044820152606490fd5b809250868092503d8311610f3c575b610f2781836111e2565b81010312610f385785905138610e34565b8680fd5b503d610f1d565b84513d89823e3d90fd5b906020606492519162461bcd60e51b8352820152600a6024820152694e6f207265776172647360b01b6044820152fd5b3385526017602052610f918183872061116a565b50805415801590610fd5575b610fab575b50600101610dcd565b610fce908295610fbd600194336112eb565b918860028201558442910155611258565b9390610fa2565b5060028101541515610f9d565b82853461087457602036600319011261087457610ffd611139565b91815b60078110611012576020838351908152f35b916110236001916109dd85876112eb565b9201611000565b848383346105f257826003193601126105f257815161104881611194565b835b8281106110f4578351858561105e83611194565b60028281855b600783106110b25750505050805192839092905b60078210611086576102a085f35b600190606085519182518152856020938481015185840152015115158682015201940191019092611078565b60036001918698979851906110c6826111c6565b8654825283870154916020928382015260ff8689015416151589820152815201940192019192959495611064565b6020906110ff611204565b818401520161104a565b859085346105f25760203660031901126105f2573560028110156105f257546001600160a01b0316815260209150f35b600435906001600160a01b038216820361114f57565b600080fd5b604435906001600160a01b038216820361114f57565b90600781101561117e576003020190600090565b634e487b7160e01b600052603260045260246000fd5b60e0810190811067ffffffffffffffff8211176111b057604052565b634e487b7160e01b600052604160045260246000fd5b6060810190811067ffffffffffffffff8211176111b057604052565b90601f8019910116810190811067ffffffffffffffff8211176111b057604052565b60405190611211826111c6565b60006040838281528260208201520152565b1561122a57565b60405162461bcd60e51b815260206004820152600660248201526514185d5cd95960d21b6044820152606490fd5b9190820180921161126557565b634e487b7160e01b600052601160045260246000fd5b9081602091031261114f5751801515810361114f5790565b1561129a57565b60405162461bcd60e51b81526020600482015260096024820152682737ba1037bbb732b960b91b6044820152606490fd5b8181029291811591840414171561126557565b9190820391821161126557565b60018060a01b0316600052601760205261130981604060002061116a565b50805491821561135a576113216001830154426112de565b90600781101561117e5761134e600292611349611357966003806201518096020154906112cb565b6112cb565b04910154611258565b90565b506002915001549056fea264697066735822122090a2f8c4e2a421b19f8ae20a00fc2ad25e1d6a4e5f83392d3e1445e218bc480e64736f6c63430008180033",
  "linkReferences": {},
  "deployedLinkReferences": {}
}