{
  "_format": "hh-sol-artifact-1",
  "contractName": "H2OVIPSubscription",
  "sourceName": "contracts/H2OVIPSubscription.sol",
  "abi": [
    {
      "inputs": [
        {
          "internalType": "address",
          "name": "_uth2",
          "type": "address"
        },
        {
          "internalType": "address",
          "name": "_h2o",
          "type": "address"
        },
        {
          "internalType": "address",
          "name": "_staking",
          "type": "address"
        }
      ],
      "stateMutability": "nonpayable",
      "type": "constructor"
    },
    {
      "inputs": [],
      "name": "H2O",
      "outputs": [
        {
          "internalType": "address",
          "name": "",
          "type": "address"
        }
      ],
      "stateMutability": "view",
      "type": "function"
    },
    {
      "inputs": [],
      "name": "STAKING",
      "outputs": [
        {
          "internalType": "address",
          "name": "",
          "type": "address"
        }
      ],
      "stateMutability": "view",
      "type": "function"
    },
    {
      "inputs": [],
      "name": "UTH2",
      "outputs": [
        {
          "internalType": "address",
          "name": "",
          "type": "address"
        }
      ],
      "stateMutability": "view",
      "type": "function"
    },
    {
      "inputs": [
        {
          "internalType": "uint256",
          "name": "months_",
          "type": "uint256"
        },
        {
          "components": [
            {
              "components": [
                {
                  "internalType": "address",
                  "name": "token",
                  "type": "address"
                },
                {
                  "internalType": "uint256",
                  "name": "amount",
                  "type": "uint256"
                }
              ],
              "internalType": "struct IPermit2.TokenPermissions",
              "name": "permitted",
              "type": "tuple"
            },
            {
              "internalType": "uint256",
              "name": "nonce",
              "type": "uint256"
            },
            {
              "internalType": "uint256",
              "name": "deadline",
              "type": "uint256"
            }
          ],
          "internalType": "struct IPermit2.PermitTransferFrom",
          "name": "permit",
          "type": "tuple"
        },
        {
          "internalType": "bytes",
          "name": "sig",
          "type": "bytes"
        }
      ],
      "name": "buyVIPWithPermit2",
      "outputs": [],
      "stateMutability": "nonpayable",
      "type": "function"
    },
    {
      "inputs": [],
      "name": "claimOwnerVip",
      "outputs": [],
      "stateMutability": "nonpayable",
      "type": "function"
    },
    {
      "inputs": [
        {
          "internalType": "address",
          "name": "",
          "type": "address"
        }
      ],
      "name": "holderShares",
      "outputs": [
        {
          "internalType": "uint256",
          "name": "",
          "type": "uint256"
        }
      ],
      "stateMutability": "view",
      "type": "function"
    },
    {
      "inputs": [
        {
          "internalType": "address",
          "name": "user",
          "type": "address"
        }
      ],
      "name": "isVIP",
      "outputs": [
        {
          "internalType": "bool",
          "name": "",
          "type": "bool"
        }
      ],
      "stateMutability": "view",
      "type": "function"
    },
    {
      "inputs": [],
      "name": "owner",
      "outputs": [
        {
          "internalType": "address",
          "name": "",
          "type": "address"
        }
      ],
      "stateMutability": "view",
      "type": "function"
    },
    {
      "inputs": [
        {
          "internalType": "address",
          "name": "user",
          "type": "address"
        }
      ],
      "name": "pendingReward",
      "outputs": [
        {
          "internalType": "uint256",
          "name": "",
          "type": "uint256"
        }
      ],
      "stateMutability": "view",
      "type": "function"
    },
    {
      "inputs": [],
      "name": "pullFromStaking",
      "outputs": [],
      "stateMutability": "nonpayable",
      "type": "function"
    },
    {
      "inputs": [
        {
          "internalType": "address",
          "name": "token",
          "type": "address"
        },
        {
          "internalType": "uint256",
          "name": "amount",
          "type": "uint256"
        }
      ],
      "name": "rescueToken",
      "outputs": [],
      "stateMutability": "nonpayable",
      "type": "function"
    },
    {
      "inputs": [
        {
          "internalType": "address",
          "name": "",
          "type": "address"
        }
      ],
      "name": "rewardDebt",
      "outputs": [
        {
          "internalType": "uint256",
          "name": "",
          "type": "uint256"
        }
      ],
      "stateMutability": "view",
      "type": "function"
    },
    {
      "inputs": [],
      "name": "rewardPerShare",
      "outputs": [
        {
          "internalType": "uint256",
          "name": "",
          "type": "uint256"
        }
      ],
      "stateMutability": "view",
      "type": "function"
    },
    {
      "inputs": [
        {
          "internalType": "address",
          "name": "newOwner",
          "type": "address"
        }
      ],
      "name": "setOwner",
      "outputs": [],
      "stateMutability": "nonpayable",
      "type": "function"
    },
    {
      "inputs": [],
      "name": "totalHolderShares",
      "outputs": [
        {
          "internalType": "uint256",
          "name": "",
          "type": "uint256"
        }
      ],
      "stateMutability": "view",
      "type": "function"
    },
    {
      "inputs": [],
      "name": "vipDuration",
      "outputs": [
        {
          "internalType": "uint256",
          "name": "",
          "type": "uint256"
        }
      ],
      "stateMutability": "view",
      "type": "function"
    },
    {
      "inputs": [
        {
          "internalType": "address",
          "name": "",
          "type": "address"
        }
      ],
      "name": "vipExpire",
      "outputs": [
        {
          "internalType": "uint256",
          "name": "",
          "type": "uint256"
        }
      ],
      "stateMutability": "view",
      "type": "function"
    },
    {
      "inputs": [],
      "name": "vipPrice",
      "outputs": [
        {
          "internalType": "uint256",
          "name": "",
          "type": "uint256"
        }
      ],
      "stateMutability": "view",
      "type": "function"
    }
  ],
  "bytecode": "0x60e08060405234620001615760608162000f88803803809162000023828562000166565b83398101031262000161576200003981620001a0565b6200005560406200004d60208501620001a0565b9301620001a0565b608082905260a09290925260c0829052600080546001600160a01b0319163317815560405163095ea7b360e01b81526001600160a01b039384166004820152600019602482015290929091602091839160449183918791165af18015620001565762000110575b604051610dd29081620001b682396080518181816101430152610575015260a05181818160fc015281816102ad0152610bb7015260c0518181816103f40152818161066701528181610a470152610b730152f35b6020813d6020116200014d575b816200012c6020938362000166565b8101031262000149575180151503620001465780620000bc565b80fd5b5080fd5b3d91506200011d565b6040513d84823e3d90fd5b600080fd5b601f909101601f19168101906001600160401b038211908210176200018a57604052565b634e487b7160e01b600052604160045260246000fd5b51906001600160a01b0382168203620001615756fe6040608081526004908136101561001557600080fd5b600091823560e01c90816313af40351461092f57816333f3d628146108855781633711b23f1461086857816337ef4b15146104dd578163446a2ec8146104bb5781635873eb9b14610483578163765d6b741461044b5781638da5cb5b1461042357816397610f30146103df578163991bbde7146103a7578163a093370114610389578163cb8304691461021457508063db6ff135146101f5578063f40f0f52146101c9578063f4201c3c14610190578063f49c622914610172578063f6c08a2e1461012f5763feaa524d146100e957600080fd5b3461012b578160031936011261012b57517f00000000000000000000000000000000000000000000000000000000000000006001600160a01b03168152602090f35b5080fd5b503461012b578160031936011261012b57517f00000000000000000000000000000000000000000000000000000000000000006001600160a01b03168152602090f35b503461012b578160031936011261012b576020906003549051908152f35b503461012b57602036600319011261012b5760209181906001600160a01b036101b761097b565b16815260018452205490519042108152f35b503461012b57602036600319011261012b576020906101ee6101e961097b565b610b01565b9051908152f35b823461021157806003193601126102115761020e610b4d565b80f35b80fd5b83833461012b578160031936011261012b5761022e610b4d565b3382526020906002825280832054801561035357670de0b6b3a764000061026b865492338752600586526102658588205485610af4565b90610abe565b0490811561031d57338086526005855283862091909155825163a9059cbb60e01b815280870191825260208201929092529091908390839081906040010381877f00000000000000000000000000000000000000000000000000000000000000006001600160a01b03165af190811561031457506102e7578280f35b8161030692903d1061030d575b6102fe81836109f8565b810190610a1a565b5081808280f35b503d6102f4565b513d85823e3d90fd5b825162461bcd60e51b8152808701859052601060248201526f6e6f7468696e6720746f20636c61696d60801b6044820152606490fd5b815162461bcd60e51b8152808601849052601060248201526f3737ba1030902b24a8103437b63232b960811b6044820152606490fd5b50503461012b578160031936011261012b576020905162278d008152f35b50503461012b57602036600319011261012b5760209181906001600160a01b036103cf61097b565b1681526001845220549051908152f35b50503461012b578160031936011261012b57517f00000000000000000000000000000000000000000000000000000000000000006001600160a01b03168152602090f35b50503461012b578160031936011261012b57905490516001600160a01b039091168152602090f35b50503461012b57602036600319011261012b5760209181906001600160a01b0361047361097b565b1681526002845220549051908152f35b50503461012b57602036600319011261012b5760209181906001600160a01b036104ab61097b565b1681526005845220549051908152f35b9050346104d957826003193601126104d95760209250549051908152f35b8280fd5b919050346104d95760c03660031901126104d95781359160803660231901126108645760a4359267ffffffffffffffff9081851161077a573660238601121561077a5784830135918083116107a557602492368482890101116108605782151580610855575b156108225761055983610554610a32565b610abe565b6001600160a01b039290919085358481169081900361081e57847f00000000000000000000000000000000000000000000000000000000000000001681036107ee57604435938085106107bb57895192838b01908111848210176107a957908c949392918b5230835260209b8c84019182526e22d473030f116ddee9f6b43ac78ba393843b156107a5578a9587938a8f938f94519b8c9a8b998a9763187945bd60e11b895288015286015260643560448601526084356064860152511660848401525160a48301523360c483015261010060e483015280610104830152808c6101249401848401378181018301849052601f01601f191681010301925af1801561079b57610788575b5086907f000000000000000000000000000000000000000000000000000000000000000016803b1561012b5781809185885180948193637414aed960e11b8352888b8401525af1801561077e57610766575b505033865260018552838620544281111561075f575b62278d00918083029283040361074d57906106e491610ae7565b3386526001855283862055600284528285205415610700578480f35b610708610b4d565b33855260028452600183862055600354906001820180921161073c5750600355543384526005909252822055388080808480f35b634e487b7160e01b86526011835285fd5b634e487b7160e01b8752601184528287fd5b50426106ca565b61076f906109ce565b61077a5785386106b4565b8580fd5b86513d84823e3d90fd5b610794909791976109ce565b9538610662565b86513d8a823e3d90fd5b8680fd5b634e487b7160e01b8d5260418a52888dfd5b895162461bcd60e51b81526020818b0152600e818a01526d616d6f756e7420746f6f206c6f7760901b6044820152606490fd5b885162461bcd60e51b81526020818a0152600b818901526a3bb937b733903a37b5b2b760a91b6044820152606490fd5b8a80fd5b855162461bcd60e51b8152602081870152600e818601526d696e76616c6964206d6f6e74687360901b6044820152606490fd5b50600c831115610543565b8780fd5b8380fd5b50503461012b578160031936011261012b576020906101ee610a32565b919050346104d957806003193601126104d95760206108f5926108a661097b565b85546001600160a01b039081169087906108c1338414610996565b865163a9059cbb60e01b81526001600160a01b03909316948301948552602435602086015291968794859391849160400190565b0393165af1908115610926575061090a575080f35b6109229060203d60201161030d576102fe81836109f8565b5080f35b513d84823e3d90fd5b83346102115760203660031901126102115761094961097b565b8154906001600160a01b03906109623383851614610996565b16906bffffffffffffffffffffffff60a01b1617815580f35b600435906001600160a01b038216820361099157565b600080fd5b1561099d57565b60405162461bcd60e51b81526020600482015260096024820152683737ba1037bbb732b960b91b6044820152606490fd5b67ffffffffffffffff81116109e257604052565b634e487b7160e01b600052604160045260246000fd5b90601f8019910116810190811067ffffffffffffffff8211176109e257604052565b90816020910312610991575180151581036109915790565b604051633711b23f60e01b81526020816004817f00000000000000000000000000000000000000000000000000000000000000006001600160a01b03165afa908115610ab257600091610a83575090565b90506020813d602011610aaa575b81610a9e602093836109f8565b81010312610991575190565b3d9150610a91565b6040513d6000823e3d90fd5b81810292918115918404141715610ad157565b634e487b7160e01b600052601160045260246000fd5b91908201809211610ad157565b91908203918211610ad157565b6001600160a01b03166000908152600260205260409020548015610b4757610b43670de0b6b3a764000091610265600454600560205260406000205490610af4565b0490565b50600090565b6040805163e702da8360e01b815230600480830191909152916000916001600160a01b037f0000000000000000000000000000000000000000000000000000000000000000811691602091908281602481875afa908115610d92578691610d65575b5015610d5d577f000000000000000000000000000000000000000000000000000000000000000016908351926370a0823160e01b9081855230888601528285602481875afa948515610d53578795610d24575b50803b156107a5578680918988518094819363cb83046960e01b83525af1610d11575b50819060248651809581938252308b8301525afa938415610d0857508493610cd8575b505080821180610ccd575b610c5e575b50505050565b610c6791610af4565b90670de0b6b3a764000091828102928184041490151715610cba5750600354908115610ca55790610c9a91048254610ae7565b905538808080610c58565b601283634e487b7160e01b6000525260246000fd5b634e487b7160e01b815260118352602490fd5b506003541515610c53565b9080929350813d8311610d01575b610cf081836109f8565b810103126109915751903880610c48565b503d610ce6565b513d86823e3d90fd5b95610d1d8392976109ce565b9590610c25565b9094508281813d8311610d4c575b610d3c81836109f8565b810103126107a557519338610c02565b503d610d32565b86513d89823e3d90fd5b505050505050565b90508281813d8311610d8b575b610d7c81836109f8565b8101031261077a575138610baf565b503d610d72565b85513d88823e3d90fdfea26469706673582212207ae4c39c60554743132afd9a01dd0b65df4d6998656d89736e4fa9d44f99777664736f6c63430008180033",
  "linkReferences": {},
  "deployedLinkReferences": {}
}