{
  "_format": "hh-sol-artifact-1",
  "contractName": "H2OVIPSubscription",
  "sourceName": "contracts/H2OVIPSubscription.sol",
  "abi": [
    {
      "inputs": [
        {
          "internalType": "address",
          "name": "_uth2",
          "type": "address"
        },
        {
          "internalType": "address",
          "name": "_h2o",
          "type": "address"
        }
      ],
      "stateMutability": "nonpayable",
      "type": "constructor"
    },
    {
      "inputs": [],
      "name": "H2O",
      "outputs": [
        {
          "internalType": "address",
          "name": "",
          "type": "address"
        }
      ],
      "stateMutability": "view",
      "type": "function"
    },
    {
      "inputs": [],
      "name": "UTH2",
      "outputs": [
        {
          "internalType": "address",
          "name": "",
          "type": "address"
        }
      ],
      "stateMutability": "view",
      "type": "function"
    },
    {
      "inputs": [
        {
          "internalType": "address",
          "name": "addr",
          "type": "address"
        }
      ],
      "name": "addOwner",
      "outputs": [],
      "stateMutability": "nonpayable",
      "type": "function"
    },
    {
      "inputs": [
        {
          "internalType": "uint256",
          "name": "months_",
          "type": "uint256"
        },
        {
          "components": [
            {
              "components": [
                {
                  "internalType": "address",
                  "name": "token",
                  "type": "address"
                },
                {
                  "internalType": "uint256",
                  "name": "amount",
                  "type": "uint256"
                }
              ],
              "internalType": "struct IPermit2.TokenPermissions",
              "name": "permitted",
              "type": "tuple"
            },
            {
              "internalType": "uint256",
              "name": "nonce",
              "type": "uint256"
            },
            {
              "internalType": "uint256",
              "name": "deadline",
              "type": "uint256"
            }
          ],
          "internalType": "struct IPermit2.PermitTransferFrom",
          "name": "permit",
          "type": "tuple"
        },
        {
          "internalType": "bytes",
          "name": "sig",
          "type": "bytes"
        }
      ],
      "name": "buyVIPWithPermit2",
      "outputs": [],
      "stateMutability": "nonpayable",
      "type": "function"
    },
    {
      "inputs": [],
      "name": "claimOwnerVip",
      "outputs": [],
      "stateMutability": "nonpayable",
      "type": "function"
    },
    {
      "inputs": [
        {
          "internalType": "uint256",
          "name": "amount",
          "type": "uint256"
        }
      ],
      "name": "distributeH2ORewards",
      "outputs": [],
      "stateMutability": "nonpayable",
      "type": "function"
    },
    {
      "inputs": [
        {
          "internalType": "address",
          "name": "user",
          "type": "address"
        },
        {
          "internalType": "uint256",
          "name": "months_",
          "type": "uint256"
        }
      ],
      "name": "grantVIP",
      "outputs": [],
      "stateMutability": "nonpayable",
      "type": "function"
    },
    {
      "inputs": [
        {
          "internalType": "address",
          "name": "",
          "type": "address"
        }
      ],
      "name": "holderShares",
      "outputs": [
        {
          "internalType": "uint256",
          "name": "",
          "type": "uint256"
        }
      ],
      "stateMutability": "view",
      "type": "function"
    },
    {
      "inputs": [
        {
          "internalType": "address",
          "name": "user",
          "type": "address"
        }
      ],
      "name": "isVIP",
      "outputs": [
        {
          "internalType": "bool",
          "name": "",
          "type": "bool"
        }
      ],
      "stateMutability": "view",
      "type": "function"
    },
    {
      "inputs": [
        {
          "internalType": "uint256",
          "name": "",
          "type": "uint256"
        }
      ],
      "name": "owners",
      "outputs": [
        {
          "internalType": "address",
          "name": "",
          "type": "address"
        }
      ],
      "stateMutability": "view",
      "type": "function"
    },
    {
      "inputs": [
        {
          "internalType": "address",
          "name": "user",
          "type": "address"
        }
      ],
      "name": "pendingReward",
      "outputs": [
        {
          "internalType": "uint256",
          "name": "",
          "type": "uint256"
        }
      ],
      "stateMutability": "view",
      "type": "function"
    },
    {
      "inputs": [
        {
          "internalType": "address",
          "name": "",
          "type": "address"
        }
      ],
      "name": "rewardDebt",
      "outputs": [
        {
          "internalType": "uint256",
          "name": "",
          "type": "uint256"
        }
      ],
      "stateMutability": "view",
      "type": "function"
    },
    {
      "inputs": [],
      "name": "rewardPerShare",
      "outputs": [
        {
          "internalType": "uint256",
          "name": "",
          "type": "uint256"
        }
      ],
      "stateMutability": "view",
      "type": "function"
    },
    {
      "inputs": [
        {
          "internalType": "uint256",
          "name": "price_",
          "type": "uint256"
        }
      ],
      "name": "setVipPrice",
      "outputs": [],
      "stateMutability": "nonpayable",
      "type": "function"
    },
    {
      "inputs": [],
      "name": "totalHolderShares",
      "outputs": [
        {
          "internalType": "uint256",
          "name": "",
          "type": "uint256"
        }
      ],
      "stateMutability": "view",
      "type": "function"
    },
    {
      "inputs": [],
      "name": "vipDuration",
      "outputs": [
        {
          "internalType": "uint256",
          "name": "",
          "type": "uint256"
        }
      ],
      "stateMutability": "view",
      "type": "function"
    },
    {
      "inputs": [
        {
          "internalType": "address",
          "name": "",
          "type": "address"
        }
      ],
      "name": "vipExpire",
      "outputs": [
        {
          "internalType": "uint256",
          "name": "",
          "type": "uint256"
        }
      ],
      "stateMutability": "view",
      "type": "function"
    },
    {
      "inputs": [],
      "name": "vipPrice",
      "outputs": [
        {
          "internalType": "uint256",
          "name": "",
          "type": "uint256"
        }
      ],
      "stateMutability": "view",
      "type": "function"
    },
    {
      "inputs": [
        {
          "internalType": "uint256",
          "name": "amount",
          "type": "uint256"
        }
      ],
      "name": "withdrawH2O",
      "outputs": [],
      "stateMutability": "nonpayable",
      "type": "function"
    },
    {
      "inputs": [
        {
          "internalType": "uint256",
          "name": "amount",
          "type": "uint256"
        }
      ],
      "name": "withdrawUTH2",
      "outputs": [],
      "stateMutability": "nonpayable",
      "type": "function"
    }
  ],
  "bytecode": "0x60c03461010d57601f610fc638819003918201601f19168301916001600160401b0383118484101761011257808492604094855283398101031261010d57610052602061004b83610128565b9201610128565b90670de0b6b3a764000060015562278d0060025560805260a0526000805490680100000000000000008210156100f957600182018082558210156100e557808052602090200180546001600160a01b03191633179055604051610e89908161013d8239608051818181610159015281816103d80152610a06015260a0518181816101120152818161029c01526104ad0152f35b634e487b7160e01b81526032600452602490fd5b634e487b7160e01b81526041600452602490fd5b600080fd5b634e487b7160e01b600052604160045260246000fd5b51906001600160a01b038216820361010d5756fe6040608081526004908136101561001557600080fd5b600091823560e01c908163025e7c2714610c5a5781633711b23f14610c3b57816337ef4b1514610975578163446a2ec814610956578163497101e9146108345781635873eb9b146107fc5781637065cb481461073d578163765d6b7414610707578163991bbde7146106cf578163a0933701146106b0578163a195aabd14610644578163a598150414610520578163aa4dc5ca14610474578163beb02ee314610378578163cb8304691461020b57508063f40f0f52146101df578063f4201c3c146101a6578063f49c622914610188578063f6c08a2e146101455763feaa524d146100ff57600080fd5b34610141578160031936011261014157517f00000000000000000000000000000000000000000000000000000000000000006001600160a01b03168152602090f35b5080fd5b5034610141578160031936011261014157517f00000000000000000000000000000000000000000000000000000000000000006001600160a01b03168152602090f35b50346101415781600319360112610141576020906005549051908152f35b50346101415760203660031901126101415760209181906001600160a01b036101cd610ce4565b16815260038452205490519042108152f35b5034610141576020366003190112610141576020906102046101ff610ce4565b610e07565b9051908152f35b83833461014157816003193601126101415733825260209083825280832054801561034257670de0b6b3a764000061025a60065492338752600786526102548588205485610dfa565b90610d3c565b0490811561030c57338086526007855283862091909155825163a9059cbb60e01b815280870191825260208201929092529091908390839081906040010381877f00000000000000000000000000000000000000000000000000000000000000006001600160a01b03165af190811561030357506102d6578280f35b816102f592903d106102fc575b6102ed8183610d65565b810190610de2565b5081808280f35b503d6102e3565b513d85823e3d90fd5b825162461bcd60e51b8152808701859052601060248201526f6e6f7468696e6720746f20636c61696d60801b6044820152606490fd5b815162461bcd60e51b8152808601849052601060248201526f3737ba1030902b24a8103437b63232b960811b6044820152606490fd5b91905034610470576020366003190112610470578291838454905b818110610437575b50506020906103ac6103d394610daa565b825163a9059cbb60e01b815233828201908152913560208301529384918291604090910190565b0381867f00000000000000000000000000000000000000000000000000000000000000006001600160a01b03165af190811561042e5750610412575080f35b61042a9060203d6020116102fc576102ed8183610d65565b5080f35b513d84823e3d90fd5b61044081610c9a565b905460039190911b1c6001600160a01b0316331461046057600101610393565b50600193508190506103ac61039b565b8280fd5b91905034610470576020366003190112610470578291838454905b8181106104e7575b50506020906103ac6104a894610daa565b0381867f00000000000000000000000000000000000000000000000000000000000000006001600160a01b03165af190811561042e5750610412575080f35b6104f081610c9a565b905460039190911b1c6001600160a01b031633146105105760010161048f565b50600193508190506103ac610497565b82843461064157602036600319011261064157805491833582805b858110610607575b506105519192939450610daa565b6005549182156105d057811561059d5750670de0b6b3a76400008082029182040361058a57906105849104600654610d9d565b60065580f35b634e487b7160e01b835260118452602483fd5b5162461bcd60e51b8152602081860152600e60248201526d616d6f756e74206973207a65726f60901b6044820152606490fd5b5162461bcd60e51b815260208186015260126024820152711b9bc8159254081a1bdb19195c9cc81e595d60721b6044820152606490fd5b61061081610c9a565b905460039190911b1c6001600160a01b031633146106305760010161053b565b509293508392506001610551610543565b80fd5b8390346101415760203660031901126101415781549082805b838110610677575b848361067084610daa565b3560015580f35b61068081610c9a565b905460039190911b1c6001600160a01b031633146106a05760010161065d565b5050905061067060018291610665565b5050346101415781600319360112610141576020906002549051908152f35b5050346101415760203660031901126101415760209181906001600160a01b036106f7610ce4565b1681526003845220549051908152f35b9050346104705760203660031901126104705760209282916001600160a01b0361072f610ce4565b168252845220549051908152f35b83903461014157602036600319011261014157610758610ce4565b82548392835b8281106107c6575b5090919261077390610daa565b680100000000000000008210156107b3575080600161079492018455610c9a565b60018060a09493941b038084549260031b9316831b921b191617905580f35b634e487b7160e01b845260419052602483fd5b6107cf81610c9a565b905460039190911b1c6001600160a01b031633146107ef5760010161075e565b5060019350610773610766565b5050346101415760203660031901126101415760209181906001600160a01b03610824610ce4565b1681526007845220549051908152f35b90503461047057816003193601126104705761084e610ce4565b91602435918493858654905b81811061091b575b50506108736108b292939495610daa565b61087e851515610cff565b6001600160a01b031680865260036020528386205490949042811115610910576108ac90915b600254610d3c565b90610d9d565b838552600360205282852055806020528184208054156108d0578480f35b6001905560055490600182018092116108fd57506005556006549183526007602052822055388080808480f35b634e487b7160e01b855260119052602484fd5b506108ac42916108a4565b61092481610c9a565b905460039190911b1c6001600160a01b031633146109445760010161085a565b506001955061087390506108b2610862565b5050346101415781600319360112610141576020906006549051908152f35b9050346104705760c03660031901126104705780356080366023190112610c375767ffffffffffffffff9060a435828111610c335736602382011215610c33578084013592808411610c2f5760249336858285010111610ba75783151580610c24575b6109e190610cff565b6109ed84600154610d3c565b9085356001600160a01b0381811691829003610c2057807f0000000000000000000000000000000000000000000000000000000000000000168203610bf05760443595848710610bbd578a518b810181811088821117610bab578c52308152602081019586528c95946e22d473030f116ddee9f6b43ac78ba39493929190853b15610ba7578b9688948f938f94519c8d9a8b998a9763187945bd60e11b895288015286015260643560448601526084356064860152511660848401525160a48301523360c483015261010060e483015280610104830152808c6101249401848401378181018301849052601f01601f191681010301925af18015610b9d57610b77575b5050610b1990338652600360205284862054428111600014610910576108ac9091600254610d3c565b33855260036020528385205581602052828420805415610b37578480f35b600190556005549160018301809311610b66575050600555600654903383526007602052822055388080808480f35b634e487b7160e01b85526011905283fd5b8196929611610b8c57845293610b1938610af0565b50634e487b7160e01b815260418352fd5b86513d89823e3d90fd5b8780fd5b634e487b7160e01b8e5260418c528a8efd5b8a5162461bcd60e51b81526020818c0152600e818b01526d616d6f756e7420746f6f206c6f7760901b6044820152606490fd5b895162461bcd60e51b81526020818b0152600b818a01526a3bb937b733903a37b5b2b760a91b6044820152606490fd5b8a80fd5b50600c8411156109d8565b8680fd5b8580fd5b8380fd5b5050346101415781600319360112610141576020906001549051908152f35b90503461047057602036600319011261047057359180548310156106415750610c84602092610c9a565b905491519160018060a01b039160031b1c168152f35b906000918254811015610cd0578280527f290decd9548b62a8d60345a988386fc84ba6bc95484008f6362f93160ef3e563019190565b634e487b7160e01b83526032600452602483fd5b600435906001600160a01b0382168203610cfa57565b600080fd5b15610d0657565b60405162461bcd60e51b815260206004820152600e60248201526d696e76616c6964206d6f6e74687360901b6044820152606490fd5b81810292918115918404141715610d4f57565b634e487b7160e01b600052601160045260246000fd5b90601f8019910116810190811067ffffffffffffffff821117610d8757604052565b634e487b7160e01b600052604160045260246000fd5b91908201809211610d4f57565b15610db157565b60405162461bcd60e51b81526020600482015260096024820152683737ba1037bbb732b960b91b6044820152606490fd5b90816020910312610cfa57518015158103610cfa5790565b91908203918211610d4f57565b6001600160a01b03166000908152600460205260409020548015610e4d57610e49670de0b6b3a764000091610254600654600760205260406000205490610dfa565b0490565b5060009056fea2646970667358221220e1d6261b315116f3700646c077c7f7558b8223b1ad08eaff624141e53da9252664736f6c63430008180033",
  "linkReferences": {},
  "deployedLinkReferences": {}
}