{
  "_format": "hh-sol-artifact-1",
  "contractName": "H2OVIPStandalone",
  "sourceName": "contracts/H2OVIPStandalone.sol",
  "abi": [
    {
      "inputs": [
        {
          "internalType": "address",
          "name": "_uth2",
          "type": "address"
        },
        {
          "internalType": "address",
          "name": "_h2o",
          "type": "address"
        }
      ],
      "stateMutability": "nonpayable",
      "type": "constructor"
    },
    {
      "inputs": [],
      "name": "H2O",
      "outputs": [
        {
          "internalType": "address",
          "name": "",
          "type": "address"
        }
      ],
      "stateMutability": "view",
      "type": "function"
    },
    {
      "inputs": [],
      "name": "UTH2",
      "outputs": [
        {
          "internalType": "address",
          "name": "",
          "type": "address"
        }
      ],
      "stateMutability": "view",
      "type": "function"
    },
    {
      "inputs": [
        {
          "internalType": "uint256",
          "name": "months_",
          "type": "uint256"
        },
        {
          "components": [
            {
              "components": [
                {
                  "internalType": "address",
                  "name": "token",
                  "type": "address"
                },
                {
                  "internalType": "uint256",
                  "name": "amount",
                  "type": "uint256"
                }
              ],
              "internalType": "struct IPermit2.TokenPermissions",
              "name": "permitted",
              "type": "tuple"
            },
            {
              "internalType": "uint256",
              "name": "nonce",
              "type": "uint256"
            },
            {
              "internalType": "uint256",
              "name": "deadline",
              "type": "uint256"
            }
          ],
          "internalType": "struct IPermit2.PermitTransferFrom",
          "name": "permit",
          "type": "tuple"
        },
        {
          "internalType": "bytes",
          "name": "sig",
          "type": "bytes"
        }
      ],
      "name": "buyVIPWithPermit2",
      "outputs": [],
      "stateMutability": "nonpayable",
      "type": "function"
    },
    {
      "inputs": [],
      "name": "claimOwnerVip",
      "outputs": [],
      "stateMutability": "nonpayable",
      "type": "function"
    },
    {
      "inputs": [
        {
          "internalType": "uint256",
          "name": "amount",
          "type": "uint256"
        }
      ],
      "name": "depositRewards",
      "outputs": [],
      "stateMutability": "nonpayable",
      "type": "function"
    },
    {
      "inputs": [
        {
          "internalType": "address",
          "name": "",
          "type": "address"
        }
      ],
      "name": "holderShares",
      "outputs": [
        {
          "internalType": "uint256",
          "name": "",
          "type": "uint256"
        }
      ],
      "stateMutability": "view",
      "type": "function"
    },
    {
      "inputs": [
        {
          "internalType": "address",
          "name": "user",
          "type": "address"
        }
      ],
      "name": "isVIP",
      "outputs": [
        {
          "internalType": "bool",
          "name": "",
          "type": "bool"
        }
      ],
      "stateMutability": "view",
      "type": "function"
    },
    {
      "inputs": [],
      "name": "lastTimeRewardApplicable",
      "outputs": [
        {
          "internalType": "uint256",
          "name": "",
          "type": "uint256"
        }
      ],
      "stateMutability": "view",
      "type": "function"
    },
    {
      "inputs": [],
      "name": "lastUpdate",
      "outputs": [
        {
          "internalType": "uint256",
          "name": "",
          "type": "uint256"
        }
      ],
      "stateMutability": "view",
      "type": "function"
    },
    {
      "inputs": [],
      "name": "owner",
      "outputs": [
        {
          "internalType": "address",
          "name": "",
          "type": "address"
        }
      ],
      "stateMutability": "view",
      "type": "function"
    },
    {
      "inputs": [
        {
          "internalType": "address",
          "name": "user",
          "type": "address"
        }
      ],
      "name": "pendingReward",
      "outputs": [
        {
          "internalType": "uint256",
          "name": "",
          "type": "uint256"
        }
      ],
      "stateMutability": "view",
      "type": "function"
    },
    {
      "inputs": [],
      "name": "periodFinish",
      "outputs": [
        {
          "internalType": "uint256",
          "name": "",
          "type": "uint256"
        }
      ],
      "stateMutability": "view",
      "type": "function"
    },
    {
      "inputs": [
        {
          "internalType": "address",
          "name": "token",
          "type": "address"
        },
        {
          "internalType": "uint256",
          "name": "amount",
          "type": "uint256"
        }
      ],
      "name": "rescueToken",
      "outputs": [],
      "stateMutability": "nonpayable",
      "type": "function"
    },
    {
      "inputs": [
        {
          "internalType": "address",
          "name": "",
          "type": "address"
        }
      ],
      "name": "rewardDebt",
      "outputs": [
        {
          "internalType": "uint256",
          "name": "",
          "type": "uint256"
        }
      ],
      "stateMutability": "view",
      "type": "function"
    },
    {
      "inputs": [],
      "name": "rewardPerShare",
      "outputs": [
        {
          "internalType": "uint256",
          "name": "",
          "type": "uint256"
        }
      ],
      "stateMutability": "view",
      "type": "function"
    },
    {
      "inputs": [],
      "name": "rewardRate",
      "outputs": [
        {
          "internalType": "uint256",
          "name": "",
          "type": "uint256"
        }
      ],
      "stateMutability": "view",
      "type": "function"
    },
    {
      "inputs": [
        {
          "internalType": "address",
          "name": "newOwner",
          "type": "address"
        }
      ],
      "name": "setOwner",
      "outputs": [],
      "stateMutability": "nonpayable",
      "type": "function"
    },
    {
      "inputs": [
        {
          "internalType": "uint256",
          "name": "newPrice",
          "type": "uint256"
        }
      ],
      "name": "setVipPrice",
      "outputs": [],
      "stateMutability": "nonpayable",
      "type": "function"
    },
    {
      "inputs": [],
      "name": "totalHolderShares",
      "outputs": [
        {
          "internalType": "uint256",
          "name": "",
          "type": "uint256"
        }
      ],
      "stateMutability": "view",
      "type": "function"
    },
    {
      "inputs": [],
      "name": "vipDuration",
      "outputs": [
        {
          "internalType": "uint256",
          "name": "",
          "type": "uint256"
        }
      ],
      "stateMutability": "view",
      "type": "function"
    },
    {
      "inputs": [
        {
          "internalType": "address",
          "name": "",
          "type": "address"
        }
      ],
      "name": "vipExpire",
      "outputs": [
        {
          "internalType": "uint256",
          "name": "",
          "type": "uint256"
        }
      ],
      "stateMutability": "view",
      "type": "function"
    },
    {
      "inputs": [],
      "name": "vipPrice",
      "outputs": [
        {
          "internalType": "uint256",
          "name": "",
          "type": "uint256"
        }
      ],
      "stateMutability": "view",
      "type": "function"
    },
    {
      "inputs": [
        {
          "internalType": "uint256",
          "name": "amount",
          "type": "uint256"
        }
      ],
      "name": "withdrawUTH2",
      "outputs": [],
      "stateMutability": "nonpayable",
      "type": "function"
    }
  ],
  "bytecode": "0x60c0346100bd57601f610f5338819003918201601f19168301916001600160401b038311848410176100c25780849260409485528339810103126100bd57610052602061004b836100d8565b92016100d8565b670de0b6b3a764000060015560809190915260a052600080546001600160a01b03191633179055604051610e6690816100ed823960805181818161017a01528181610467015281816104e1015261087a015260a051818181610133015281816102f5015261068d0152f35b600080fd5b634e487b7160e01b600052604160045260246000fd5b51906001600160a01b03821682036100bd5756fe6040608081526004908136101561001557600080fd5b600091823560e01c90816313af403514610be357816333f3d62814610b395781633711b23f14610b1a57816337ef4b15146107eb578163446a2ec8146107cc5781635873eb9b14610794578163765d6b741461075c5781637b0a47ee1461073d57816380faa57d146107205781638bdf67f2146106395781638da5cb5b14610611578163991bbde7146105d9578163a0933701146105bb578163a195aabd14610554578163beb02ee3146103f0578163c0463711146103d1578163cb8304691461024e578163ebe2b12b1461022c57508063f40f0f5214610200578063f4201c3c146101c7578063f49c6229146101a9578063f6c08a2e146101665763feaa524d1461012057600080fd5b34610162578160031936011261016257517f00000000000000000000000000000000000000000000000000000000000000006001600160a01b03168152602090f35b5080fd5b5034610162578160031936011261016257517f00000000000000000000000000000000000000000000000000000000000000006001600160a01b03168152602090f35b50346101625781600319360112610162576020906008549051908152f35b50346101625760203660031901126101625760209181906001600160a01b036101ee610c64565b16815260028452205490519042108152f35b503461016257602036600319011261016257602090610225610220610c64565b610d5f565b9051908152f35b90503461024a578260031936011261024a5760209250549051908152f35b8280fd5b838334610162578160031936011261016257610268610dc5565b9081600655610275610d3d565b6005553383526020916007835281842054801561039b576102b3670de0b6b3a764000091338752600986526102ad8588205485610d52565b90610d07565b0490811561036557338086526009855283862091909155825163a9059cbb60e01b815280870191825260208201929092529091908390839081906040010381877f00000000000000000000000000000000000000000000000000000000000000006001600160a01b03165af190811561035c575061032f578280f35b8161034e92903d10610355575b6103468183610cb7565b810190610cef565b5081808280f35b503d61033c565b513d85823e3d90fd5b825162461bcd60e51b8152808701859052601060248201526f6e6f7468696e6720746f20636c61696d60801b6044820152606490fd5b825162461bcd60e51b8152808701859052601060248201526f3737ba1030902b24a8103437b63232b960811b6044820152606490fd5b5050346101625781600319360112610162576020906005549051908152f35b838334610162576020908160031936011261024a5782548435946001600160a01b0391821690610421338314610c7f565b86156104c6575b861561049957835163a9059cbb60e01b81526001600160a01b0390921690820190815260208101879052909291849184919082908890829060400103927f0000000000000000000000000000000000000000000000000000000000000000165af190811561035c575061032f578280f35b835162461bcd60e51b815290810185905260076024820152663737902aaa241960c91b6044820152606490fd5b83516370a0823160e01b8152308183015290965084816024817f000000000000000000000000000000000000000000000000000000000000000087165afa90811561054a578691610519575b5095610428565b90508481813d8311610543575b6105308183610cb7565b8101031261053f575187610512565b8580fd5b503d610526565b84513d88823e3d90fd5b90503461024a57602036600319011261024a5780359161057e60018060a01b038554163314610c7f565b821561058c57505060015580f35b906020606492519162461bcd60e51b8352820152600960248201526807072696365203e20360bc1b6044820152fd5b5050346101625781600319360112610162576020905162278d008152f35b5050346101625760203660031901126101625760209181906001600160a01b03610601610c64565b1681526002845220549051908152f35b505034610162578160031936011261016257905490516001600160a01b039091168152602090f35b9190503461024a57602036600319011261024a5782823591602060018060a01b03610668818554163314610c7f565b60648351809581936323b872dd60e01b8352338a8401523060248401528860448401527f0000000000000000000000000000000000000000000000000000000000000000165af190811561071757506106f8575b506106c5610dc5565b6006556301e13380809104600355426005554201908142116106e5575580f35b634e487b7160e01b835260119052602482fd5b6107109060203d602011610355576103468183610cb7565b50386106bc565b513d86823e3d90fd5b505034610162578160031936011261016257602090610225610d3d565b5050346101625781600319360112610162576020906003549051908152f35b5050346101625760203660031901126101625760209181906001600160a01b03610784610c64565b1681526007845220549051908152f35b5050346101625760203660031901126101625760209181906001600160a01b036107bc610c64565b1681526009845220549051908152f35b5050346101625781600319360112610162576020906006549051908152f35b9190503461024a5760c036600319011261024a578135916080366023190112610b165760a4359267ffffffffffffffff9081851161053f573660238601121561053f5784830135828111610b125760249236848389010111610a575782151580610b07575b15610ad45761086183600154610d07565b6001600160a01b0392853584811690819003610ad057847f0000000000000000000000000000000000000000000000000000000000000000168103610aa05760443594838610610a6d5789519a8a8c018c811087821117610a5b57908d95949392918c52308d5260209c8d81019586526e22d473030f116ddee9f6b43ac78ba394853b15610a57578b9688948f938f94519c8d9a8b998a9763187945bd60e11b895288015286015260643560448601526084356064860152511660848401525160a48301523360c483015261010060e483015280610104830152808c6101249401848401378181018301849052601f01601f191681010301925af18015610a4d57610a29575b5050338652600285528386205442811115610a22575b62278d009180830292830403610a10579061099791610d30565b33865260028552838620556007845282852054156109b3578480f35b6109bb610dc5565b6006556109c6610d3d565b6005553385526007845260018386205560085491600183018093116109ff57505060085560096006549233855252822055388080808480f35b634e487b7160e01b86526011905284fd5b634e487b7160e01b8752601184528287fd5b504261097d565b8197929711610a3c578452943880610967565b50634e487b7160e01b815260418352fd5b86513d8a823e3d90fd5b8780fd5b634e487b7160e01b8e5260418b52898efd5b895162461bcd60e51b81526020818b0152600e818a01526d616d6f756e7420746f6f206c6f7760901b6044820152606490fd5b885162461bcd60e51b81526020818a0152600b818901526a3bb937b733903a37b5b2b760a91b6044820152606490fd5b8a80fd5b855162461bcd60e51b8152602081870152600e818601526d696e76616c6964206d6f6e74687360901b6044820152606490fd5b50600c831115610850565b8680fd5b8380fd5b5050346101625781600319360112610162576020906001549051908152f35b9190503461024a578060031936011261024a576020610ba992610b5a610c64565b85546001600160a01b03908116908790610b75338414610c7f565b865163a9059cbb60e01b81526001600160a01b03909316948301948552602435602086015291968794859391849160400190565b0393165af1908115610bda5750610bbe575080f35b610bd69060203d602011610355576103468183610cb7565b5080f35b513d84823e3d90fd5b90503461024a57602036600319011261024a57610bfe610c64565b835491906001600160a01b0390610c183383861614610c7f565b16928315610c325750506001600160a01b03191617815580f35b906020606492519162461bcd60e51b8352820152600c60248201526b7a65726f206164647265737360a01b6044820152fd5b600435906001600160a01b0382168203610c7a57565b600080fd5b15610c8657565b60405162461bcd60e51b81526020600482015260096024820152683737ba1037bbb732b960b91b6044820152606490fd5b90601f8019910116810190811067ffffffffffffffff821117610cd957604052565b634e487b7160e01b600052604160045260246000fd5b90816020910312610c7a57518015158103610c7a5790565b81810292918115918404141715610d1a57565b634e487b7160e01b600052601160045260246000fd5b91908201809211610d1a57565b600454804210600014610d4f57504290565b90565b91908203918211610d1a57565b6001600160a01b0316600081815260076020526040812054918215610dbf57610d86610dc5565b908252600960205260408220549182821115610db85750916102ad610db492670de0b6b3a764000094610d52565b0490565b9250505090565b50905090565b6008548015610e2957610dd6610d3d565b60055480821115610e2057610df1610dfa9160065493610d52565b60035490610d07565b91670de0b6b3a764000092838102938185041490151715610d1a57610d4f920490610d30565b50505060065490565b506006549056fea26469706673582212200a8c64853e799356325771131fc84f335fd3c8dca6d258f29dba7ecb60d8a83264736f6c63430008180033",
  "linkReferences": {},
  "deployedLinkReferences": {}
}