{
  "_format": "hh-sol-artifact-1",
  "contractName": "AcuaSwapRouter",
  "sourceName": "contracts/AcuaSwapRouter.sol",
  "abi": [
    {
      "inputs": [
        {
          "internalType": "address[3]",
          "name": "_feeOwners",
          "type": "address[3]"
        }
      ],
      "stateMutability": "nonpayable",
      "type": "constructor"
    },
    {
      "anonymous": false,
      "inputs": [],
      "name": "ConfigUpdated",
      "type": "event"
    },
    {
      "anonymous": false,
      "inputs": [
        {
          "indexed": true,
          "internalType": "address",
          "name": "who",
          "type": "address"
        },
        {
          "indexed": true,
          "internalType": "address",
          "name": "token",
          "type": "address"
        },
        {
          "indexed": false,
          "internalType": "uint256",
          "name": "amount",
          "type": "uint256"
        }
      ],
      "name": "FeeClaimed",
      "type": "event"
    },
    {
      "anonymous": false,
      "inputs": [
        {
          "indexed": true,
          "internalType": "address",
          "name": "token",
          "type": "address"
        },
        {
          "indexed": false,
          "internalType": "uint256",
          "name": "tokenIn",
          "type": "uint256"
        },
        {
          "indexed": false,
          "internalType": "uint256",
          "name": "h2oOut",
          "type": "uint256"
        }
      ],
      "name": "H2OBought",
      "type": "event"
    },
    {
      "anonymous": false,
      "inputs": [
        {
          "indexed": true,
          "internalType": "address",
          "name": "user",
          "type": "address"
        },
        {
          "indexed": false,
          "internalType": "address",
          "name": "tokenIn",
          "type": "address"
        },
        {
          "indexed": false,
          "internalType": "address",
          "name": "tokenOut",
          "type": "address"
        },
        {
          "indexed": false,
          "internalType": "uint256",
          "name": "amountIn",
          "type": "uint256"
        },
        {
          "indexed": false,
          "internalType": "uint256",
          "name": "amountOut",
          "type": "uint256"
        }
      ],
      "name": "SwappedV2",
      "type": "event"
    },
    {
      "anonymous": false,
      "inputs": [
        {
          "indexed": true,
          "internalType": "address",
          "name": "user",
          "type": "address"
        },
        {
          "indexed": false,
          "internalType": "address",
          "name": "tokenIn",
          "type": "address"
        },
        {
          "indexed": false,
          "internalType": "address",
          "name": "tokenOut",
          "type": "address"
        },
        {
          "indexed": false,
          "internalType": "uint256",
          "name": "amountIn",
          "type": "uint256"
        },
        {
          "indexed": false,
          "internalType": "uint256",
          "name": "amountOut",
          "type": "uint256"
        }
      ],
      "name": "SwappedV3",
      "type": "event"
    },
    {
      "inputs": [],
      "name": "H2O",
      "outputs": [
        {
          "internalType": "address",
          "name": "",
          "type": "address"
        }
      ],
      "stateMutability": "view",
      "type": "function"
    },
    {
      "inputs": [],
      "name": "MAX_FEE_BPS",
      "outputs": [
        {
          "internalType": "uint256",
          "name": "",
          "type": "uint256"
        }
      ],
      "stateMutability": "view",
      "type": "function"
    },
    {
      "inputs": [],
      "name": "PERMIT2",
      "outputs": [
        {
          "internalType": "contract IPermit2",
          "name": "",
          "type": "address"
        }
      ],
      "stateMutability": "view",
      "type": "function"
    },
    {
      "inputs": [],
      "name": "ROUTER_V2",
      "outputs": [
        {
          "internalType": "contract ISwapRouterV2",
          "name": "",
          "type": "address"
        }
      ],
      "stateMutability": "view",
      "type": "function"
    },
    {
      "inputs": [],
      "name": "ROUTER_V3",
      "outputs": [
        {
          "internalType": "contract ISwapRouterV3",
          "name": "",
          "type": "address"
        }
      ],
      "stateMutability": "view",
      "type": "function"
    },
    {
      "inputs": [],
      "name": "USDC",
      "outputs": [
        {
          "internalType": "address",
          "name": "",
          "type": "address"
        }
      ],
      "stateMutability": "view",
      "type": "function"
    },
    {
      "inputs": [],
      "name": "WLD",
      "outputs": [
        {
          "internalType": "address",
          "name": "",
          "type": "address"
        }
      ],
      "stateMutability": "view",
      "type": "function"
    },
    {
      "inputs": [
        {
          "internalType": "address",
          "name": "token",
          "type": "address"
        }
      ],
      "name": "claimFees",
      "outputs": [],
      "stateMutability": "nonpayable",
      "type": "function"
    },
    {
      "inputs": [
        {
          "internalType": "address[]",
          "name": "tokens",
          "type": "address[]"
        }
      ],
      "name": "claimFeesBatch",
      "outputs": [],
      "stateMutability": "nonpayable",
      "type": "function"
    },
    {
      "inputs": [
        {
          "internalType": "address",
          "name": "token",
          "type": "address"
        },
        {
          "internalType": "uint256",
          "name": "amount",
          "type": "uint256"
        }
      ],
      "name": "emergencyWithdraw",
      "outputs": [],
      "stateMutability": "nonpayable",
      "type": "function"
    },
    {
      "inputs": [
        {
          "internalType": "uint256",
          "name": "",
          "type": "uint256"
        }
      ],
      "name": "feeOwners",
      "outputs": [
        {
          "internalType": "address",
          "name": "",
          "type": "address"
        }
      ],
      "stateMutability": "view",
      "type": "function"
    },
    {
      "inputs": [],
      "name": "h2oFeeBps",
      "outputs": [
        {
          "internalType": "uint256",
          "name": "",
          "type": "uint256"
        }
      ],
      "stateMutability": "view",
      "type": "function"
    },
    {
      "inputs": [
        {
          "internalType": "address",
          "name": "",
          "type": "address"
        }
      ],
      "name": "h2oFeePool",
      "outputs": [
        {
          "internalType": "uint256",
          "name": "",
          "type": "uint256"
        }
      ],
      "stateMutability": "view",
      "type": "function"
    },
    {
      "inputs": [],
      "name": "owner",
      "outputs": [
        {
          "internalType": "address",
          "name": "",
          "type": "address"
        }
      ],
      "stateMutability": "view",
      "type": "function"
    },
    {
      "inputs": [
        {
          "internalType": "address",
          "name": "",
          "type": "address"
        },
        {
          "internalType": "address",
          "name": "",
          "type": "address"
        }
      ],
      "name": "ownerFees",
      "outputs": [
        {
          "internalType": "uint256",
          "name": "",
          "type": "uint256"
        }
      ],
      "stateMutability": "view",
      "type": "function"
    },
    {
      "inputs": [
        {
          "internalType": "address[3]",
          "name": "_owners",
          "type": "address[3]"
        }
      ],
      "name": "setFeeOwners",
      "outputs": [],
      "stateMutability": "nonpayable",
      "type": "function"
    },
    {
      "inputs": [
        {
          "internalType": "uint256",
          "name": "_swapFeeBps",
          "type": "uint256"
        },
        {
          "internalType": "uint256",
          "name": "_h2oFeeBps",
          "type": "uint256"
        }
      ],
      "name": "setFees",
      "outputs": [],
      "stateMutability": "nonpayable",
      "type": "function"
    },
    {
      "inputs": [
        {
          "internalType": "address",
          "name": "newOwner",
          "type": "address"
        }
      ],
      "name": "setOwner",
      "outputs": [],
      "stateMutability": "nonpayable",
      "type": "function"
    },
    {
      "inputs": [
        {
          "internalType": "address",
          "name": "_vr",
          "type": "address"
        }
      ],
      "name": "setVolumeRewards",
      "outputs": [],
      "stateMutability": "nonpayable",
      "type": "function"
    },
    {
      "inputs": [],
      "name": "swapFeeBps",
      "outputs": [
        {
          "internalType": "uint256",
          "name": "",
          "type": "uint256"
        }
      ],
      "stateMutability": "view",
      "type": "function"
    },
    {
      "inputs": [
        {
          "internalType": "address",
          "name": "token",
          "type": "address"
        },
        {
          "internalType": "bytes",
          "name": "h2oPath",
          "type": "bytes"
        },
        {
          "internalType": "uint256",
          "name": "minH2OOut",
          "type": "uint256"
        }
      ],
      "name": "swapFeesToH2OV3",
      "outputs": [],
      "stateMutability": "nonpayable",
      "type": "function"
    },
    {
      "inputs": [
        {
          "internalType": "address",
          "name": "tokenIn",
          "type": "address"
        },
        {
          "internalType": "address",
          "name": "tokenOut",
          "type": "address"
        },
        {
          "internalType": "uint256",
          "name": "amountIn",
          "type": "uint256"
        },
        {
          "internalType": "uint256",
          "name": "amountOutMin",
          "type": "uint256"
        },
        {
          "internalType": "address[]",
          "name": "v2Path",
          "type": "address[]"
        },
        {
          "internalType": "uint256",
          "name": "usdcEquivalent",
          "type": "uint256"
        }
      ],
      "name": "swapV2",
      "outputs": [
        {
          "internalType": "uint256",
          "name": "amountOut",
          "type": "uint256"
        }
      ],
      "stateMutability": "nonpayable",
      "type": "function"
    },
    {
      "inputs": [
        {
          "internalType": "address",
          "name": "tokenIn",
          "type": "address"
        },
        {
          "internalType": "address",
          "name": "tokenOut",
          "type": "address"
        },
        {
          "internalType": "uint256",
          "name": "amountIn",
          "type": "uint256"
        },
        {
          "internalType": "uint256",
          "name": "amountOutMin",
          "type": "uint256"
        },
        {
          "internalType": "bytes",
          "name": "v3Path",
          "type": "bytes"
        },
        {
          "internalType": "uint256",
          "name": "usdcEquivalent",
          "type": "uint256"
        }
      ],
      "name": "swapV3",
      "outputs": [
        {
          "internalType": "uint256",
          "name": "amountOut",
          "type": "uint256"
        }
      ],
      "stateMutability": "nonpayable",
      "type": "function"
    },
    {
      "inputs": [],
      "name": "volumeRewards",
      "outputs": [
        {
          "internalType": "address",
          "name": "",
          "type": "address"
        }
      ],
      "stateMutability": "view",
      "type": "function"
    }
  ],
  "bytecode": "0x608034620000f9576001600160401b0390620018e13881900390601f8201601f191683019084821184831017620000fe57829160405283398101606082820312620000f95780601f83011215620000f957604051926060840190811184821017620000fe57604052829160608101918211620000f957915b818310620000d75760c8600455600a600555600080546001600160a01b0319163317815584905b60038110620000b7576040516117cc9081620001158239f35b81516001600160a01b03166001919091019081556020909101906200009e565b82516001600160a01b0381168103620000f95781526020928301920162000077565b600080fd5b634e487b7160e01b600052604160045260246000fdfe608080604052600436101561001357600080fd5b600090813560e01c9081630b41a6db14610f8f575080630b56ef0914610d055780630b78f9c014610c6557806313af403514610be957806315a0ea6a14610acb57806321be334514610a6c57806324b4fd7914610a1d5780632ffdaf89146109ff578063501015bf1461098257806350d5e40e146109645780636afdd8501461093a578063705bd4521461091157806371e042c2146108e257806382f3ae791461077f5780638543f9ca1461074857806389a30271146107195780638da5cb5b146106f25780639224c4ed146102e757806395ccea671461022e578063d55be8c614610211578063de061d66146101e2578063f1b2a7e7146101a9578063fc8a2b0a1461015a5763feaa524d1461012957600080fd5b3461015757806003193601126101575760206040517317392e5483983945deb92e0518a8f2c4eb6ba59d8152f35b80fd5b503461015757604036600319011261015757610174610fbd565b604061017e610fd3565b9260018060a01b03809316815260076020522091166000526020526020604060002054604051908152f35b5034610157576020366003190112610157576020906040906001600160a01b036101d1610fbd565b168152600883522054604051908152f35b50346101575780600319360112610157576020604051732cfc85d8e48f8eab294be644d9e25c30308630038152f35b503461015757806003193601126101575760206040516103e88152f35b503461015757604036600319011261015757610248610fbd565b81546001600160a01b039160209161029d91908416610268338214611200565b60405163a9059cbb60e01b81526001600160a01b03909116600482015260248035908201529384928391879183906044820190565b0393165af180156102dc576102b0575080f35b6102d19060203d6020116102d5575b6102c98183611106565b810190611128565b5080f35b503d6102bf565b6040513d84823e3d90fd5b50346101575760c036600319011261015757610301610fbd565b610309610fd3565b60843567ffffffffffffffff81116106ee57610329903690600401611017565b93906103386044351515611048565b61034d6001600160a01b036044351115611082565b600285106106be576e22d473030f116ddee9f6b43ac78ba3803b156106ba57604051631b63c28b60e11b81523360048201523060248201526001600160a01b03604480358216908301528616606482015290839082908183816084810103925af180156106af57908391610697575b50506103ca60443585611537565b60405163095ea7b360e01b8152731b02da8cb0d097eb8d57a175b88c7d8b47997506600482015260248101829052909590602081604481876001600160a01b038b165af1801561068c5761066d575b5061070842014211610659576040516338ed173960e01b81526004810196909652606435602487015260a0604487015260a486018190528290869060c482019083905b8082106106215750508192935033606483015261070842016084830152038183731b02da8cb0d097eb8d57a175b88c7d8b479975065af1938415610614578194610556575b50835160001981019190821161054257845182101561052e5750602080947fb6f8afd58b9858281e3bc6894836e7eac569bf3b4b334d771e19c2c1cfccb4569260051b01015180936104f560a43533611723565b604080516001600160a01b039283168152949091166020850152604435908401526060830152339180608081015b0390a2604051908152f35b634e487b7160e01b81526032600452602490fd5b634e487b7160e01b81526011600452602490fd5b9093503d8085833e6105688183611106565b81019060208183031261060c5780519067ffffffffffffffff821161061057019080601f8301121561060c5781519167ffffffffffffffff83116105f8578260051b90604051936105bc6020840186611106565b84526020808501928201019283116105f457602001905b8282106105e45750505092386104a1565b81518152602091820191016105d3565b8680fd5b634e487b7160e01b86526041600452602486fd5b8480fd5b8580fd5b50604051903d90823e3d90fd5b909350915083356001600160a01b038116919082900361065457602081600193829352019401920192849293889261045c565b600080fd5b634e487b7160e01b83526011600452602483fd5b6106859060203d6020116102d5576102c98183611106565b5038610419565b6040513d86823e3d90fd5b6106a0906110c0565b6106ab5781386103bc565b5080fd5b6040513d85823e3d90fd5b8280fd5b60405162461bcd60e51b8152602060048201526008602482015267084c2c840e0c2e8d60c31b6044820152606490fd5b8380fd5b5034610157578060031936011261015757546040516001600160a01b039091168152602090f35b503461015757806003193601126101575760206040517379a02482a880bce3f13e09da970dc34db4cd24d18152f35b50346101575760203660031901126101575760043560038110156106ab57600101546040516001600160a01b039091168152602090f35b5034610157576020806003193601126106ab5760043567ffffffffffffffff81116106ba576107b2903690600401611017565b9190835b8381106107c1578480f35b3385526007808452604086206001600160a01b03929190836107ec6107e7858a89611504565b6114f0565b1660005285526040600020549081156108d757338852855260408720836108176107e7858a89611504565b16600052855286604060002055826108336107e7848988611504565b60405163a9059cbb60e01b81523360048201526024810184905294918791869160449183918d91165af19384156108cc576001946108af575b5061087b6107e7848988611504565b16906040519081527f4a34429a0ef883c4301d5b40aa8ae85d4eb024946062f2c7ebd8320acedc831a863392a35b016107b6565b6108c590873d89116102d5576102c98183611106565b503861086c565b6040513d8a823e3d90fd5b5050600191506108a9565b503461015757806003193601126101575760206040517368b3465833fb72a70ecdf485e0e4c7bd8665fc458152f35b50346101575780600319360112610157576006546040516001600160a01b039091168152602090f35b503461015757806003193601126101575760206040516e22d473030f116ddee9f6b43ac78ba38152f35b50346101575780600319360112610157576020600554604051908152f35b50346101575760603660031901126101575736606411610157576109b060018060a01b038254163314611200565b6004815b600381106109e457827ffe891c6ab12cf73707f8deb6600c12ba382e4cc31eb2b0a2754cad13075ed2d18180a180f35b60019060206109f2846114f0565b93019281830155016109b4565b50346101575780600319360112610157576020600454604051908152f35b503461015757602036600319011261015757610a37610fbd565b81546001600160a01b039190610a509083163314611200565b166bffffffffffffffffffffffff60a01b600654161760065580f35b503461015757606036600319011261015757610a86610fbd565b6024359067ffffffffffffffff82116106ba57610aaa610ac8923690600401610fe9565b90610abf60018060a01b038654163314611200565b6044359261125b565b80f35b5034610157576020806003193601126106ab57610ae6610fbd565b3383526007825260408084206001600160a01b03909216600081815292845291205490918115610bb2573380855260078252604080862060008681529084528190208690555163a9059cbb60e01b815260048101919091526024810183905290808260448188885af1918215610ba7577f4a34429a0ef883c4301d5b40aa8ae85d4eb024946062f2c7ebd8320acedc831a92610b8a575b506040519283523392a380f35b610ba090823d84116102d5576102c98183611106565b5038610b7d565b6040513d87823e3d90fd5b6064906040519062461bcd60e51b82526004820152601060248201526f4e6f7468696e6720746f20636c61696d60801b6044820152fd5b503461015757602036600319011261015757610c03610fbd565b8154906001600160a01b0390610c1c3383851614611200565b16908115610c34576001600160a01b03191617815580f35b60405162461bcd60e51b81526020600482015260096024820152682d32b9379030b2323960b91b6044820152606490fd5b50346101575760403660031901126101575760043560243590610c9260018060a01b038454163314611200565b6103e8610c9f8383611238565b11610cd1576004556005557ffe891c6ab12cf73707f8deb6600c12ba382e4cc31eb2b0a2754cad13075ed2d18180a180f35b60405162461bcd60e51b815260206004820152600c60248201526b08ccaca40e8dede40d0d2ced60a31b6044820152606490fd5b50346101575760c036600319011261015757610d1f610fbd565b90610d28610fd3565b9160443560843567ffffffffffffffff81116106ee57610d4c903690600401610fe9565b610d5a839692961515611048565b6001600160a01b0390610d6f82851115611082565b6e22d473030f116ddee9f6b43ac78ba396873b156105f457604051631b63c28b60e11b81523360048201523060248201526001600160a01b0386851681166044830152871660648201529787908990608490829084905af18015610f8457610f70575b869750610ddf8587611537565b9060405163095ea7b360e01b81527368b3465833fb72a70ecdf485e0e4c7bd8665fc45948560048301528360248301528160448160209d8e948d165af18015610f655792610e4a8a96938c9693610e7a96610f48575b5060405193610e43856110ea565b3691611140565b825233858301526040820152606435606082015260405194858094819363b858183f60e01b835260048301611187565b03925af1948515610f3c5794610eeb575b50907f918e92f54688c51950885ac1066129bb8ecc6bff902c9746495c1074fcfbf87f91610ebb60a43533611723565b604080516001600160a01b0395861681529490911660208501528301526060820183905233918060808101610523565b919093508482813d8311610f35575b610f048183611106565b81010312610654579051927f918e92f54688c51950885ac1066129bb8ecc6bff902c9746495c1074fcfbf87f610e8b565b503d610efa565b604051903d90823e3d90fd5b610f5e90883d8a116102d5576102c98183611106565b5038610e35565b6040513d8b823e3d90fd5b959096610f7c906110c0565b948690610dd2565b6040513d89823e3d90fd5b9050346106ab57816003193601126106ab5780731b02da8cb0d097eb8d57a175b88c7d8b4799750660209252f35b600435906001600160a01b038216820361065457565b602435906001600160a01b038216820361065457565b9181601f840112156106545782359167ffffffffffffffff8311610654576020838186019501011161065457565b9181601f840112156106545782359167ffffffffffffffff8311610654576020808501948460051b01011161065457565b1561104f57565b60405162461bcd60e51b815260206004820152600b60248201526a16995c9bc8185b5bdd5b9d60aa1b6044820152606490fd5b1561108957565b60405162461bcd60e51b815260206004820152600f60248201526e416d6f756e74206f766572666c6f7760881b6044820152606490fd5b67ffffffffffffffff81116110d457604052565b634e487b7160e01b600052604160045260246000fd5b6080810190811067ffffffffffffffff8211176110d457604052565b90601f8019910116810190811067ffffffffffffffff8211176110d457604052565b90816020910312610654575180151581036106545790565b92919267ffffffffffffffff82116110d4576040519161116a601f8201601f191660200184611106565b829481845281830111610654578281602093846000960137010152565b9190916020808252835193608060208401528451918260a085015260005b8381106111ec57505060c0939450606090600085848601015260018060a01b03602082015116604085015260408101518285015201516080830152601f8019910116010190565b86810182015185820160c0015281016111a5565b1561120757565b60405162461bcd60e51b81526020600482015260096024820152682737ba1037bbb732b960b91b6044820152606490fd5b9190820180921161124557565b634e487b7160e01b600052601160045260246000fd5b939290919360018060a01b038091169260009584875260209060088252604094858920549384156114a35790899392918885526008845284888120557317392e5483983945deb92e0518a8f2c4eb6ba59d808a146114105750875163095ea7b360e01b81527368b3465833fb72a70ecdf485e0e4c7bd8665fc4560048201819052602482018890529697959694959086816044818b8f5af18015611406578796949261134896949261131d926113e9575b50895416918b5194610e43866110ea565b83528583015287898301526060820152875195868094819363b858183f60e01b835260048301611187565b03925af19182156113df57879261138b575b507f626502ef77967d5c4531abad2a6f2a43b30f257e30cc352362d0eb2c61932a48949596508351928352820152a2565b9080925081813d83116113d8575b6113a38183611106565b810103126105f457519495508594907f626502ef77967d5c4531abad2a6f2a43b30f257e30cc352362d0eb2c61932a4861135a565b503d611399565b84513d89823e3d90fd5b6113ff90893d8b116102d5576102c98183611106565b503861130c565b8a513d8a823e3d90fd5b9454885163a9059cbb60e01b815297166001600160a01b0316600488015250505060248401839052929083908290818a816044810103925af180156113df577f626502ef77967d5c4531abad2a6f2a43b30f257e30cc352362d0eb2c61932a4895969750611486575b50825191818352820152a2565b61149c90833d85116102d5576102c98183611106565b5038611479565b865162461bcd60e51b8152600481018590526013602482015272139bc81999595cc81858d8dd5b5d5b185d1959606a1b6044820152606490fd5b8181029291811591840414171561124557565b356001600160a01b03811681036106545790565b91908110156115145760051b0190565b634e487b7160e01b600052603260045260246000fd5b9190820391821161124557565b91906127106004918161154c600454836114dd565b049161155a600554836114dd565b0492826115a9575b50906115799161157e949584611581575b5061152a565b61152a565b90565b60018060a01b0316600052600860205260406000206115a1858254611238565b905538611573565b600090815b600381106116dd57505080158061169857611682576115d96115d382850492836114dd565b8461152a565b9060005b600381106116315750509061157e9495611579939260018060a01b038060015416600052600760205260406000209083166000526020526116246040600020918254611238565b90555b9594509091611562565b6001818101549091906001600160a01b0390811680611653575b5050016115dd565b6000526020906007825260409182600020918c1660005252600020611679848254611238565b9055388061164b565b634e487b7160e01b600052601260045260246000fd5b5050906115799161157e949560018060a01b0380600054166000526007602052604060002090821660005260205260406000206116d6848254611238565b9055611627565b6001818101546001600160a01b03166116fa575b506001016115ae565b9092600019811461170e57019160016116f1565b601183634e487b7160e01b6000525260246000fd5b6006546001600160a01b0316918215158061178d575b61174257505050565b823b1561065457604051630968013560e01b81526001600160a01b039290921660048301526024820152906000908290604490829084905af16117825750565b61178b906110c0565b565b5080151561173956fea2646970667358221220aba407c76eaea3dcbfa4c44f1e5dec38fe4ec34489e2dd5ccc21c63fa076594264736f6c63430008180033",
  "linkReferences": {},
  "deployedLinkReferences": {}
}