{
  "_format": "hh-sol-artifact-1",
  "contractName": "AcuaSwapRouter",
  "sourceName": "contracts/AcuaSwapRouter.sol",
  "abi": [
    {
      "inputs": [
        {
          "internalType": "address[3]",
          "name": "_feeOwners",
          "type": "address[3]"
        }
      ],
      "stateMutability": "nonpayable",
      "type": "constructor"
    },
    {
      "anonymous": false,
      "inputs": [],
      "name": "ConfigUpdated",
      "type": "event"
    },
    {
      "anonymous": false,
      "inputs": [
        {
          "indexed": true,
          "internalType": "address",
          "name": "who",
          "type": "address"
        },
        {
          "indexed": true,
          "internalType": "address",
          "name": "token",
          "type": "address"
        },
        {
          "indexed": false,
          "internalType": "uint256",
          "name": "amount",
          "type": "uint256"
        }
      ],
      "name": "FeeClaimed",
      "type": "event"
    },
    {
      "anonymous": false,
      "inputs": [
        {
          "indexed": true,
          "internalType": "address",
          "name": "token",
          "type": "address"
        },
        {
          "indexed": false,
          "internalType": "uint256",
          "name": "tokenIn",
          "type": "uint256"
        },
        {
          "indexed": false,
          "internalType": "uint256",
          "name": "h2oOut",
          "type": "uint256"
        }
      ],
      "name": "H2OBought",
      "type": "event"
    },
    {
      "anonymous": false,
      "inputs": [
        {
          "indexed": true,
          "internalType": "address",
          "name": "user",
          "type": "address"
        },
        {
          "indexed": false,
          "internalType": "address",
          "name": "tokenIn",
          "type": "address"
        },
        {
          "indexed": false,
          "internalType": "address",
          "name": "tokenOut",
          "type": "address"
        },
        {
          "indexed": false,
          "internalType": "uint256",
          "name": "amountIn",
          "type": "uint256"
        },
        {
          "indexed": false,
          "internalType": "uint256",
          "name": "amountOut",
          "type": "uint256"
        }
      ],
      "name": "SwappedV2",
      "type": "event"
    },
    {
      "anonymous": false,
      "inputs": [
        {
          "indexed": true,
          "internalType": "address",
          "name": "user",
          "type": "address"
        },
        {
          "indexed": false,
          "internalType": "address",
          "name": "tokenIn",
          "type": "address"
        },
        {
          "indexed": false,
          "internalType": "address",
          "name": "tokenOut",
          "type": "address"
        },
        {
          "indexed": false,
          "internalType": "uint256",
          "name": "amountIn",
          "type": "uint256"
        },
        {
          "indexed": false,
          "internalType": "uint256",
          "name": "amountOut",
          "type": "uint256"
        }
      ],
      "name": "SwappedV3",
      "type": "event"
    },
    {
      "inputs": [],
      "name": "H2O",
      "outputs": [
        {
          "internalType": "address",
          "name": "",
          "type": "address"
        }
      ],
      "stateMutability": "view",
      "type": "function"
    },
    {
      "inputs": [],
      "name": "MAX_FEE_BPS",
      "outputs": [
        {
          "internalType": "uint256",
          "name": "",
          "type": "uint256"
        }
      ],
      "stateMutability": "view",
      "type": "function"
    },
    {
      "inputs": [],
      "name": "PERMIT2",
      "outputs": [
        {
          "internalType": "contract IPermit2",
          "name": "",
          "type": "address"
        }
      ],
      "stateMutability": "view",
      "type": "function"
    },
    {
      "inputs": [],
      "name": "ROUTER_V2",
      "outputs": [
        {
          "internalType": "contract ISwapRouterV2",
          "name": "",
          "type": "address"
        }
      ],
      "stateMutability": "view",
      "type": "function"
    },
    {
      "inputs": [],
      "name": "USDC",
      "outputs": [
        {
          "internalType": "address",
          "name": "",
          "type": "address"
        }
      ],
      "stateMutability": "view",
      "type": "function"
    },
    {
      "inputs": [],
      "name": "V3_FACTORY",
      "outputs": [
        {
          "internalType": "address",
          "name": "",
          "type": "address"
        }
      ],
      "stateMutability": "view",
      "type": "function"
    },
    {
      "inputs": [],
      "name": "V3_POOL_INIT_CODE_HASH",
      "outputs": [
        {
          "internalType": "bytes32",
          "name": "",
          "type": "bytes32"
        }
      ],
      "stateMutability": "view",
      "type": "function"
    },
    {
      "inputs": [],
      "name": "WLD",
      "outputs": [
        {
          "internalType": "address",
          "name": "",
          "type": "address"
        }
      ],
      "stateMutability": "view",
      "type": "function"
    },
    {
      "inputs": [
        {
          "internalType": "address",
          "name": "token",
          "type": "address"
        },
        {
          "internalType": "uint24",
          "name": "feeHop",
          "type": "uint24"
        },
        {
          "internalType": "uint24",
          "name": "feeOut",
          "type": "uint24"
        }
      ],
      "name": "buybackH2O",
      "outputs": [],
      "stateMutability": "nonpayable",
      "type": "function"
    },
    {
      "inputs": [
        {
          "internalType": "address",
          "name": "token",
          "type": "address"
        }
      ],
      "name": "claimFees",
      "outputs": [],
      "stateMutability": "nonpayable",
      "type": "function"
    },
    {
      "inputs": [
        {
          "internalType": "address[]",
          "name": "tokens",
          "type": "address[]"
        }
      ],
      "name": "claimFeesBatch",
      "outputs": [],
      "stateMutability": "nonpayable",
      "type": "function"
    },
    {
      "inputs": [
        {
          "internalType": "address",
          "name": "token",
          "type": "address"
        },
        {
          "internalType": "uint256",
          "name": "amount",
          "type": "uint256"
        }
      ],
      "name": "emergencyWithdraw",
      "outputs": [],
      "stateMutability": "nonpayable",
      "type": "function"
    },
    {
      "inputs": [
        {
          "internalType": "uint256",
          "name": "",
          "type": "uint256"
        }
      ],
      "name": "feeOwners",
      "outputs": [
        {
          "internalType": "address",
          "name": "",
          "type": "address"
        }
      ],
      "stateMutability": "view",
      "type": "function"
    },
    {
      "inputs": [
        {
          "internalType": "address",
          "name": "tokenA",
          "type": "address"
        },
        {
          "internalType": "address",
          "name": "tokenB",
          "type": "address"
        },
        {
          "internalType": "uint24",
          "name": "fee",
          "type": "uint24"
        }
      ],
      "name": "getPoolAddress",
      "outputs": [
        {
          "internalType": "address",
          "name": "",
          "type": "address"
        }
      ],
      "stateMutability": "pure",
      "type": "function"
    },
    {
      "inputs": [],
      "name": "h2oFeeBps",
      "outputs": [
        {
          "internalType": "uint256",
          "name": "",
          "type": "uint256"
        }
      ],
      "stateMutability": "view",
      "type": "function"
    },
    {
      "inputs": [
        {
          "internalType": "address",
          "name": "",
          "type": "address"
        }
      ],
      "name": "h2oFeePool",
      "outputs": [
        {
          "internalType": "uint256",
          "name": "",
          "type": "uint256"
        }
      ],
      "stateMutability": "view",
      "type": "function"
    },
    {
      "inputs": [],
      "name": "owner",
      "outputs": [
        {
          "internalType": "address",
          "name": "",
          "type": "address"
        }
      ],
      "stateMutability": "view",
      "type": "function"
    },
    {
      "inputs": [
        {
          "internalType": "address",
          "name": "",
          "type": "address"
        },
        {
          "internalType": "address",
          "name": "",
          "type": "address"
        }
      ],
      "name": "ownerFees",
      "outputs": [
        {
          "internalType": "uint256",
          "name": "",
          "type": "uint256"
        }
      ],
      "stateMutability": "view",
      "type": "function"
    },
    {
      "inputs": [
        {
          "internalType": "address",
          "name": "tokenIn",
          "type": "address"
        },
        {
          "internalType": "address",
          "name": "tokenOut",
          "type": "address"
        },
        {
          "internalType": "uint24",
          "name": "fee",
          "type": "uint24"
        },
        {
          "internalType": "uint256",
          "name": "amountIn",
          "type": "uint256"
        }
      ],
      "name": "quoteSingle",
      "outputs": [
        {
          "internalType": "uint256",
          "name": "amountOut",
          "type": "uint256"
        },
        {
          "internalType": "address",
          "name": "poolAddr",
          "type": "address"
        }
      ],
      "stateMutability": "view",
      "type": "function"
    },
    {
      "inputs": [
        {
          "internalType": "address[3]",
          "name": "_owners",
          "type": "address[3]"
        }
      ],
      "name": "setFeeOwners",
      "outputs": [],
      "stateMutability": "nonpayable",
      "type": "function"
    },
    {
      "inputs": [
        {
          "internalType": "uint256",
          "name": "_swapFeeBps",
          "type": "uint256"
        },
        {
          "internalType": "uint256",
          "name": "_h2oFeeBps",
          "type": "uint256"
        }
      ],
      "name": "setFees",
      "outputs": [],
      "stateMutability": "nonpayable",
      "type": "function"
    },
    {
      "inputs": [
        {
          "internalType": "address",
          "name": "newOwner",
          "type": "address"
        }
      ],
      "name": "setOwner",
      "outputs": [],
      "stateMutability": "nonpayable",
      "type": "function"
    },
    {
      "inputs": [
        {
          "internalType": "address",
          "name": "_vr",
          "type": "address"
        }
      ],
      "name": "setVolumeRewards",
      "outputs": [],
      "stateMutability": "nonpayable",
      "type": "function"
    },
    {
      "inputs": [],
      "name": "swapFeeBps",
      "outputs": [
        {
          "internalType": "uint256",
          "name": "",
          "type": "uint256"
        }
      ],
      "stateMutability": "view",
      "type": "function"
    },
    {
      "inputs": [
        {
          "internalType": "address",
          "name": "tokenIn",
          "type": "address"
        },
        {
          "internalType": "address",
          "name": "tokenOut",
          "type": "address"
        },
        {
          "internalType": "uint256",
          "name": "amountIn",
          "type": "uint256"
        },
        {
          "internalType": "uint256",
          "name": "amountOutMin",
          "type": "uint256"
        },
        {
          "internalType": "address[]",
          "name": "v2Path",
          "type": "address[]"
        },
        {
          "internalType": "uint256",
          "name": "usdcEquivalent",
          "type": "uint256"
        }
      ],
      "name": "swapV2",
      "outputs": [
        {
          "internalType": "uint256",
          "name": "amountOut",
          "type": "uint256"
        }
      ],
      "stateMutability": "nonpayable",
      "type": "function"
    },
    {
      "inputs": [
        {
          "internalType": "address",
          "name": "tokenIn",
          "type": "address"
        },
        {
          "internalType": "address",
          "name": "hopToken",
          "type": "address"
        },
        {
          "internalType": "address",
          "name": "tokenOut",
          "type": "address"
        },
        {
          "internalType": "uint24",
          "name": "fee1",
          "type": "uint24"
        },
        {
          "internalType": "uint24",
          "name": "fee2",
          "type": "uint24"
        },
        {
          "internalType": "uint256",
          "name": "amountIn",
          "type": "uint256"
        },
        {
          "internalType": "uint256",
          "name": "amountOutMin",
          "type": "uint256"
        },
        {
          "internalType": "uint256",
          "name": "usdcEquivalent",
          "type": "uint256"
        }
      ],
      "name": "swapV3Multi",
      "outputs": [
        {
          "internalType": "uint256",
          "name": "amountOut",
          "type": "uint256"
        }
      ],
      "stateMutability": "nonpayable",
      "type": "function"
    },
    {
      "inputs": [
        {
          "internalType": "address",
          "name": "tokenIn",
          "type": "address"
        },
        {
          "internalType": "address",
          "name": "tokenOut",
          "type": "address"
        },
        {
          "internalType": "uint24",
          "name": "fee",
          "type": "uint24"
        },
        {
          "internalType": "uint256",
          "name": "amountIn",
          "type": "uint256"
        },
        {
          "internalType": "uint256",
          "name": "amountOutMin",
          "type": "uint256"
        },
        {
          "internalType": "uint256",
          "name": "usdcEquivalent",
          "type": "uint256"
        }
      ],
      "name": "swapV3Single",
      "outputs": [
        {
          "internalType": "uint256",
          "name": "amountOut",
          "type": "uint256"
        }
      ],
      "stateMutability": "nonpayable",
      "type": "function"
    },
    {
      "inputs": [
        {
          "internalType": "int256",
          "name": "amount0Delta",
          "type": "int256"
        },
        {
          "internalType": "int256",
          "name": "amount1Delta",
          "type": "int256"
        },
        {
          "internalType": "bytes",
          "name": "",
          "type": "bytes"
        }
      ],
      "name": "uniswapV3SwapCallback",
      "outputs": [],
      "stateMutability": "nonpayable",
      "type": "function"
    },
    {
      "inputs": [],
      "name": "volumeRewards",
      "outputs": [
        {
          "internalType": "address",
          "name": "",
          "type": "address"
        }
      ],
      "stateMutability": "view",
      "type": "function"
    }
  ],
  "bytecode": "0x608034620000f9576001600160401b0390620023173881900390601f8201601f191683019084821184831017620000fe57829160405283398101606082820312620000f95780601f83011215620000f957604051926060840190811184821017620000fe57604052829160608101918211620000f957915b818310620000d75760c8600455600a600555600080546001600160a01b0319163317815584905b60038110620000b7576040516122029081620001158239f35b81516001600160a01b03166001919091019081556020909101906200009e565b82516001600160a01b0381168103620000f95781526020928301920162000077565b600080fd5b634e487b7160e01b600052604160045260246000fdfe608080604052600436101561001357600080fd5b600090813560e01c90816308bd1a85146116d3575080630b41a6db146116a45780630b78f9c01461160457806313af40351461158857806315a0ea6a1461144457806324b4fd79146113d65780632ffdaf89146113b85780633e3148b01461102d578063501015bf14610fb057806350d5e40e14610f92578063696d628314610f4b5780636afdd85014610f21578063705bd45214610ef8578063795e2c4d14610d965780637e9602fc14610d6d57806382f3ae7914610bef578063833b10a4146109975780638543f9ca1461096057806389a30271146109315780638da5cb5b1461090a578063904c1853146108b75780639224c4ed1461049957806395ccea6714610417578063d55be8c6146103fa578063de061d66146103cb578063f1b2a7e714610392578063fa461e33146101e0578063fc8a2b0a146101915763feaa524d1461016057600080fd5b3461018e578060031936011261018e5760206040517317392e5483983945deb92e0518a8f2c4eb6ba59d8152f35b80fd5b503461018e57604036600319011261018e576101ab611701565b60406101b5611717565b9260018060a01b03809316815260076020522091166000526020526020604060002054604051908152f35b503461018e57606036600319011261018e5760243560043560443567ffffffffffffffff80821161038e573660238301121561038e57816004013590811161038e573691016024011161038a57600a546001600160a01b039081168015610354578493848413156102cc575050600a5460405163a9059cbb60e01b815233600482015260248101939093529192602092849260449284929091165af180156102c15761028b575b5080f35b6020813d6020116102b9575b816102a460209383611811565b810103126102b55761028790611833565b5080fd5b3d9150610297565b6040513d84823e3d90fd5b84919350809250136102df575b50505080f35b60405163a9059cbb60e01b815233600482015260248101919091529160209183916044918391905af180156102c15761031b575b8082916102d9565b6020813d60201161034c575b8161033460209383611811565b810103126102b55761034590611833565b5038610313565b3d9150610327565b60405162461bcd60e51b815260206004820152600e60248201526d04e6f2061637469766520737761760941b6044820152606490fd5b8280fd5b8480fd5b503461018e57602036600319011261018e576020906040906001600160a01b036103ba611701565b168152600883522054604051908152f35b503461018e578060031936011261018e576020604051732cfc85d8e48f8eab294be644d9e25c30308630038152f35b503461018e578060031936011261018e5760206040516103e88152f35b503461018e57604036600319011261018e57610431611701565b81546001600160a01b039160209161048691908416610451338214611770565b60405163a9059cbb60e01b81526001600160a01b03909116600482015260248035908201529384928391879183906044820190565b0393165af180156102c15761028b575080f35b503461018e5760c036600319011261018e576104b3611701565b6104bb611717565b60843567ffffffffffffffff811161083e576104db90369060040161173f565b93906044351515806108a4575b6104f190611840565b60028510610874576e22d473030f116ddee9f6b43ac78ba3803b1561038a57604051631b63c28b60e11b81523360048201523060248201526001600160a01b03604480358216908301528616606482015290839082908183816084810103925af1801561086957908391610855575b505061056e60443585611eb6565b60405163095ea7b360e01b8152737a250d5630b4cf539739df2c5dacb4c659f2488d600482015260248101829052909590602081604481876001600160a01b038b165af1801561084a5761080d575b50610708420142116107f9576040516338ed173960e01b81526004810196909652606435602487015260a0604487015260a486018190528290869060c482019083905b8082106107c15750508192935033606483015261070842016084830152038183737a250d5630b4cf539739df2c5dacb4c659f2488d5af19384156107b45781946106fa575b5083516000198101919082116106e65784518210156106d25750602080947fb6f8afd58b9858281e3bc6894836e7eac569bf3b4b334d771e19c2c1cfccb4569260051b010151809361069960a43533612139565b604080516001600160a01b039283168152949091166020850152604435908401526060830152339180608081015b0390a2604051908152f35b634e487b7160e01b81526032600452602490fd5b634e487b7160e01b81526011600452602490fd5b9093503d8085833e61070c8183611811565b81019060208183031261038e5780519067ffffffffffffffff82116107b057019080601f8301121561038e5781519167ffffffffffffffff831161079c578260051b90604051936107606020840186611811565b845260208085019282010192831161079857602001905b828210610788575050509238610645565b8151815260209182019101610777565b8680fd5b634e487b7160e01b86526041600452602486fd5b8580fd5b50604051903d90823e3d90fd5b909350915083356001600160a01b03811691908290036107f4576020816001938293520194019201928492938892610600565b600080fd5b634e487b7160e01b83526011600452602483fd5b6020813d602011610842575b8161082660209383611811565b8101031261083e5761083790611833565b50386105bd565b8380fd5b3d9150610819565b6040513d86823e3d90fd5b61085e906117cb565b6102b5578138610560565b6040513d85823e3d90fd5b60405162461bcd60e51b8152602060048201526008602482015267084c2c840e0c2e8d60c31b6044820152606490fd5b506001600160a01b0360443511156104e8565b503461018e57606036600319011261018e576108d1611701565b6024359062ffffff821682036107f457610907916108ed61172d565b9161090260018060a01b038654163314611770565b611995565b80f35b503461018e578060031936011261018e57546040516001600160a01b039091168152602090f35b503461018e578060031936011261018e5760206040517379a02482a880bce3f13e09da970dc34db4cd24d18152f35b503461018e57602036600319011261018e5760043560038110156102b557600101546040516001600160a01b039091168152602090f35b503461018e5760c036600319011261018e576109b1611701565b6109b9611717565b906109c261172d565b6064359081151580610bde575b6109d890611840565b6001600160a01b03856e22d473030f116ddee9f6b43ac78ba3803b156102b557604051631b63c28b60e11b81523360048201523060248201526001600160a01b0386851681166044830152871660648201529082908290608490829084905af180156102c157610bca575b5050610ab8906040610a558587611eb6565b916001600160601b0360a01b9433866009541617600955610a84828916918288600a541617600a558a8a61208d565b90828a16119384600014610bae578a6401000276a4935b8551809881968295630251596160e31b84528a336004860161188f565b0393165af1928315610ba35790877f918e92f54688c51950885ac1066129bb8ecc6bff902c9746495c1074fcfbf87f95949392602099938295610b6c575b50600a5416600a5550600014610b5c5750610b10906118c8565b935b610b206084358610156118d9565b610b2c60a43533612139565b604080516001600160a01b03958616815294909116602085015283015260608201839052339180608081016106c7565b610b6691506118c8565b93610b12565b909450610b9291935060403d604011610b9c575b610b8a8183611811565b810190611879565b9290929338610af6565b503d610b80565b6040513d89823e3d90fd5b8a73fffd8963efd1fc6a506488495d951d5263988d2593610a9b565b610bd3906117cb565b6107b0578538610a43565b506001600160a01b038211156109cf565b503461018e576020806003193601126102b55760043567ffffffffffffffff811161038a57610c2290369060040161173f565b9190835b838110610c31578480f35b3385526007808452604086206001600160a01b0392919083610c5c610c57858a8961196f565b61192c565b166000528552604060002054908115610d625733885285526040872083610c87610c57858a8961196f565b1660005285528660406000205582610ca3610c5784898861196f565b60405163a9059cbb60e01b81523360048201526024810184905294918791869160449183918d91165af18015610d5757610d1e575b60019350610cea610c5784898861196f565b16906040519081527f4a34429a0ef883c4301d5b40aa8ae85d4eb024946062f2c7ebd8320acedc831a863392a35b01610c26565b8584813d8311610d50575b610d338183611811565b81010312610d4c57610d46600194611833565b50610cd8565b8780fd5b503d610d29565b6040513d8a823e3d90fd5b505060019150610d18565b503461018e578060031936011261018e5760206040516000805160206121ad8339815191528152f35b503461018e57608036600319011261018e57610ddc610db3611701565b610dbb611717565b92610dc461172d565b6001600160a01b03936064359391859190878461208d565b1693604051633850c7bd60e01b815260e081600481895afa90811561084a579082918591610e63575b5081610e12911680611919565b961691161015610e3a5750604092610e2991611919565b60c01c905b82519182526020820152f35b8160c01b91808304600160c01b14901517156106e65750604092610e5d9161194f565b90610e2e565b91505060e0813d60e011610ef0575b81610e7f60e09383611811565b8101031261083e57805190828216820361038e5760208101518060020b0361038e57610ead60408201611940565b50610eba60608201611940565b50610ec760808201611940565b5060a081015160ff81160361038e57828092610ee860c0610e129401611833565b509150610e05565b3d9150610e72565b503461018e578060031936011261018e576006546040516001600160a01b039091168152602090f35b503461018e578060031936011261018e5760206040516e22d473030f116ddee9f6b43ac78ba38152f35b503461018e57606036600319011261018e576020610f80610f6a611701565b610f72611717565b610f7a61172d565b9161208d565b6040516001600160a01b039091168152f35b503461018e578060031936011261018e576020600554604051908152f35b503461018e57606036600319011261018e573660641161018e57610fde60018060a01b038254163314611770565b6004815b6003811061101257827ffe891c6ab12cf73707f8deb6600c12ba382e4cc31eb2b0a2754cad13075ed2d18180a180f35b60019060206110208461192c565b9301928183015501610fe2565b503461018e5761010036600319011261018e57611048611701565b611050611717565b6044356001600160a01b038116900361038a5760643562ffffff808216820361038e57608435166084350361083e5760a4351515806113a5575b61109390611840565b6e22d473030f116ddee9f6b43ac78ba3803b1561038e57604051631b63c28b60e11b81523360048201523060248201526001600160a01b0360a43581166044830152851660648201529085908290608490829084905af1801561136c57611392575b50611189604061110760a43586611eb6565b336001600160601b0360a01b600954161760095561114360018060a01b03871694856001600160601b0360a01b600a541617600a55868861208d565b6001600160a01b038616851015611377576401000276a4915b8351630251596160e31b815294859384928b92849290916001600160a01b038c168b10306004860161188f565b03926001600160a01b03165af191821561136c57611235926040928790889261134c575b50600a546001600160a01b031916926001600160a01b038716111561133c57506111d6906118c8565b905b6001600160a01b03851617600a556111f56084356044358661208d565b6001600160a01b036044358116951694909410938415611321576401000276a4915b878451809681958294630251596160e31b84528a336004860161188f565b03926001600160a01b03165af191821561084a57846020959281946112fa575b5050600a80546001600160a01b0319169055156112ea5750611276906118c8565b905b61128660c4358310156118d9565b61129260e43533612139565b604080516001600160a01b039283168152604435909216602083015260a435908201526060810182905233907f918e92f54688c51950885ac1066129bb8ecc6bff902c9746495c1074fcfbf87f9080608081016106c7565b6112f491506118c8565b90611278565b90935061131791925060403d604011610b9c57610b8a8183611811565b9190919238611255565b73fffd8963efd1fc6a506488495d951d5263988d2591611217565b61134691506118c8565b906111d8565b90506113659150833d8511610b9c57610b8a8183611811565b90386111ad565b6040513d87823e3d90fd5b73fffd8963efd1fc6a506488495d951d5263988d259161115c565b61139e909491946117cb565b92386110f5565b506001600160a01b0360a435111561108a565b503461018e578060031936011261018e576020600454604051908152f35b503461018e57602036600319011261018e576113f0611701565b81546001600160a01b0391906114099083163314611770565b166001600160601b0360a01b60065416176006557ffe891c6ab12cf73707f8deb6600c12ba382e4cc31eb2b0a2754cad13075ed2d18180a180f35b503461018e576020806003193601126102b55761145f611701565b3383526007825260408084206001600160a01b0390921680855291835283205490918115611551573380855260078252604080862085875283528086208690555163a9059cbb60e01b815260048101919091526024810183905290808260448188885af1801561136c576114fd575b7f4a34429a0ef883c4301d5b40aa8ae85d4eb024946062f2c7ebd8320acedc831a91506040519283523392a380f35b8082813d831161154a575b6115128183611811565b8101031261038e576115447f4a34429a0ef883c4301d5b40aa8ae85d4eb024946062f2c7ebd8320acedc831a92611833565b506114ce565b503d611508565b6064906040519062461bcd60e51b82526004820152601060248201526f4e6f7468696e6720746f20636c61696d60801b6044820152fd5b503461018e57602036600319011261018e576115a2611701565b8154906001600160a01b03906115bb3383851614611770565b169081156115d3576001600160a01b03191617815580f35b60405162461bcd60e51b81526020600482015260096024820152682d32b9379030b2323960b91b6044820152606490fd5b503461018e57604036600319011261018e576004356024359061163160018060a01b038454163314611770565b6103e861163e83836117a8565b11611670576004556005557ffe891c6ab12cf73707f8deb6600c12ba382e4cc31eb2b0a2754cad13075ed2d18180a180f35b60405162461bcd60e51b815260206004820152600c60248201526b08ccaca40e8dede40d0d2ced60a31b6044820152606490fd5b503461018e578060031936011261018e576020604051737a250d5630b4cf539739df2c5dacb4c659f2488d8152f35b9050346102b557816003193601126102b55780737a5028bda40e7b173c278c5342087826455ea25a60209252f35b600435906001600160a01b03821682036107f457565b602435906001600160a01b03821682036107f457565b6044359062ffffff821682036107f457565b9181601f840112156107f45782359167ffffffffffffffff83116107f4576020808501948460051b0101116107f457565b1561177757565b60405162461bcd60e51b81526020600482015260096024820152682737ba1037bbb732b960b91b6044820152606490fd5b919082018092116117b557565b634e487b7160e01b600052601160045260246000fd5b67ffffffffffffffff81116117df57604052565b634e487b7160e01b600052604160045260246000fd5b6080810190811067ffffffffffffffff8211176117df57604052565b90601f8019910116810190811067ffffffffffffffff8211176117df57604052565b519081151582036107f457565b1561184757565b60405162461bcd60e51b815260206004820152600a60248201526910985908185b5bdd5b9d60b21b6044820152606490fd5b91908260409103126107f4576020825192015190565b6001600160a01b039182168152911515602083015260408201929092529116606082015260a06080820181905260009082015260c00190565b600160ff1b81146117b55760000390565b156118e057565b60405162461bcd60e51b8152602060048201526011602482015270546f6f206d75636820736c69707061676560781b6044820152606490fd5b818102929181159184041417156117b557565b356001600160a01b03811681036107f45790565b519061ffff821682036107f457565b8115611959570490565b634e487b7160e01b600052601260045260246000fd5b919081101561197f5760051b0190565b634e487b7160e01b600052603260045260246000fd5b6001600160a01b038116600081815260086020526040902054909390918215611e7a57846000526008602052600060408120557317392e5483983945deb92e0518a8f2c4eb6ba59d8514611d8f57611b24600094604092876001600160601b0360a01b600a541617600a55732cfc85d8e48f8eab294be644d9e25c303086300388108714611d6f579062ffffff732cfc85d8e48f8eab294be644d9e25c3030863003915b85516001600160a01b03948516602082019081529490931683870152166060808301919091528152611a6a816117f5565b519020825190602082019060ff60f81b8252733d28145ed2073d8b9e13c629a1043c1322af512d60611b602184015260358301526000805160206121ad833981519152605583015260558252611abf826117f5565b905190206001600160a01b0316732cfc85d8e48f8eab294be644d9e25c303086300387108614611d55576401000276a45b8351968780948193630251596160e31b835289732cfc85d8e48f8eab294be644d9e25c30308630038d10306004860161188f565b03925af18015611cfc57600093600091611d18575b50600a546001600160a01b0319169360409291732cfc85d8e48f8eab294be644d9e25c30308630039182881015611d085750611b74906118c8565b945b17600a55815162ffffff60208201927317392e5483983945deb92e0518a8f2c4eb6ba59d8452732cfc85d8e48f8eab294be644d9e25c30308630038584015216606082015260608152611bc8816117f5565b519020815190602082019060ff60f81b8252733d28145ed2073d8b9e13c629a1043c1322af512d60611b602184015260358301526000805160206121ad833981519152605583015260558252611c1d826117f5565b90519020600080548351630251596160e31b81526001600160a01b03918216600482015260248101839052604481019690965273fffd8963efd1fc6a506488495d951d5263988d25606487015260a0608487015260a48601829052859260c49284929091165af1908115611cfc57611cd16040927f626502ef77967d5c4531abad2a6f2a43b30f257e30cc352362d0eb2c61932a4894600091611cde575b50600a80546001600160a01b03191690556118c8565b82519182526020820152a2565b611cf59150843d8611610b9c57610b8a8183611811565b5038611cbb565b6040513d6000823e3d90fd5b611d1291506118c8565b94611b76565b732cfc85d8e48f8eab294be644d9e25c303086300394506040929150611d4a90833d8511610b9c57610b8a8183611811565b949094919250611b39565b73fffd8963efd1fc6a506488495d951d5263988d25611af0565b732cfc85d8e48f8eab294be644d9e25c30308630039162ffffff90611a39565b505060005460405163a9059cbb60e01b81526001600160a01b039091166004820152602481018290529091506020818060448101038160007317392e5483983945deb92e0518a8f2c4eb6ba59d5af18015611cfc57611e1c575b5060407f626502ef77967d5c4531abad2a6f2a43b30f257e30cc352362d0eb2c61932a48918151908082526020820152a2565b6020813d602011611e72575b81611e3560209383611811565b810103126107f4577f626502ef77967d5c4531abad2a6f2a43b30f257e30cc352362d0eb2c61932a4891611e6a604092611833565b509150611de9565b3d9150611e28565b60405162461bcd60e51b81526020600482015260076024820152664e6f206665657360c81b6044820152606490fd5b919082039182116117b557565b919061271060049181611ecb60045483611919565b0491611ed960055483611919565b049282611f28575b5090611ef891611efd949584611f00575b50611ea9565b611ea9565b90565b60018060a01b031660005260086020526040600020611f208582546117a8565b905538611ef2565b600090815b60038110612047575050801561200357611f5a611f54611f4d838661194f565b9283611919565b84611ea9565b9060005b60038110611fb257505090611efd9495611ef8939260018060a01b03806001541660005260076020526040600020908316600052602052611fa560406000209182546117a8565b90555b9594509091611ee1565b6001818101549091906001600160a01b0390811680611fd4575b505001611f5e565b6000526020906007825260409182600020918c1660005252600020611ffa8482546117a8565b90553880611fcc565b5090611ef891611efd949560018060a01b0380600054166000526007602052604060002090821660005260205260406000206120408482546117a8565b9055611fa8565b6001818101546001600160a01b0316612064575b50600101611f2d565b90926000198114612078570191600161205b565b601183634e487b7160e01b6000525260246000fd5b6001600160a01b039290828416848216101561212e5762ffffff9092915b8460405193816020860196168652166040840152166060820152606081526120d2816117f5565b519020604051602081019160ff60f81b8352733d28145ed2073d8b9e13c629a1043c1322af512d60611b602183015260358201526000805160206121ad833981519152605582015260558152612127816117f5565b5190201690565b9062ffffff906120ab565b6006546001600160a01b031691821515806121a3575b61215857505050565b823b156107f457604051630968013560e01b81526001600160a01b039290921660048301526024820152906000908290604490829084905af16121985750565b6121a1906117cb565b565b5080151561214f56fee34f199b19b2b4f47f68442619d555527d244f78a3297ea89325f843f87b8b54a26469706673582212202082a3499830d8df0a3f9ac20a3ca7a8c3e906db42475d02e47895c00b70975d64736f6c63430008180033",
  "linkReferences": {},
  "deployedLinkReferences": {}
}