{
  "_format": "hh-sol-artifact-1",
  "contractName": "AcuaVolumeRewards",
  "sourceName": "contracts/AcuaVolumeRewards.sol",
  "abi": [
    {
      "inputs": [
        {
          "internalType": "address",
          "name": "_swapRouter",
          "type": "address"
        }
      ],
      "stateMutability": "nonpayable",
      "type": "constructor"
    },
    {
      "anonymous": false,
      "inputs": [
        {
          "indexed": true,
          "internalType": "address",
          "name": "by",
          "type": "address"
        },
        {
          "indexed": false,
          "internalType": "uint256",
          "name": "amount",
          "type": "uint256"
        }
      ],
      "name": "Funded",
      "type": "event"
    },
    {
      "anonymous": false,
      "inputs": [
        {
          "indexed": true,
          "internalType": "address",
          "name": "user",
          "type": "address"
        },
        {
          "indexed": true,
          "internalType": "uint256",
          "name": "monthId",
          "type": "uint256"
        },
        {
          "indexed": false,
          "internalType": "uint256",
          "name": "uth2Amount",
          "type": "uint256"
        }
      ],
      "name": "RewardClaimed",
      "type": "event"
    },
    {
      "anonymous": false,
      "inputs": [
        {
          "indexed": false,
          "internalType": "uint256",
          "name": "numTiers",
          "type": "uint256"
        }
      ],
      "name": "TiersUpdated",
      "type": "event"
    },
    {
      "anonymous": false,
      "inputs": [
        {
          "indexed": true,
          "internalType": "address",
          "name": "user",
          "type": "address"
        },
        {
          "indexed": true,
          "internalType": "uint256",
          "name": "monthId",
          "type": "uint256"
        },
        {
          "indexed": false,
          "internalType": "uint256",
          "name": "added",
          "type": "uint256"
        },
        {
          "indexed": false,
          "internalType": "uint256",
          "name": "total",
          "type": "uint256"
        }
      ],
      "name": "VolumeRecorded",
      "type": "event"
    },
    {
      "inputs": [],
      "name": "MAX_TIERS",
      "outputs": [
        {
          "internalType": "uint256",
          "name": "",
          "type": "uint256"
        }
      ],
      "stateMutability": "view",
      "type": "function"
    },
    {
      "inputs": [],
      "name": "PERIOD",
      "outputs": [
        {
          "internalType": "uint256",
          "name": "",
          "type": "uint256"
        }
      ],
      "stateMutability": "view",
      "type": "function"
    },
    {
      "inputs": [],
      "name": "UTH2",
      "outputs": [
        {
          "internalType": "address",
          "name": "",
          "type": "address"
        }
      ],
      "stateMutability": "view",
      "type": "function"
    },
    {
      "inputs": [
        {
          "internalType": "address",
          "name": "user",
          "type": "address"
        },
        {
          "internalType": "uint256",
          "name": "usdcAmount",
          "type": "uint256"
        }
      ],
      "name": "adminRecordVolume",
      "outputs": [],
      "stateMutability": "nonpayable",
      "type": "function"
    },
    {
      "inputs": [
        {
          "internalType": "uint256",
          "name": "monthId",
          "type": "uint256"
        }
      ],
      "name": "claimRewards",
      "outputs": [],
      "stateMutability": "nonpayable",
      "type": "function"
    },
    {
      "inputs": [
        {
          "internalType": "address",
          "name": "",
          "type": "address"
        },
        {
          "internalType": "uint256",
          "name": "",
          "type": "uint256"
        },
        {
          "internalType": "uint256",
          "name": "",
          "type": "uint256"
        }
      ],
      "name": "claimed",
      "outputs": [
        {
          "internalType": "bool",
          "name": "",
          "type": "bool"
        }
      ],
      "stateMutability": "view",
      "type": "function"
    },
    {
      "inputs": [],
      "name": "currentMonth",
      "outputs": [
        {
          "internalType": "uint256",
          "name": "",
          "type": "uint256"
        }
      ],
      "stateMutability": "view",
      "type": "function"
    },
    {
      "inputs": [
        {
          "internalType": "uint256",
          "name": "amount",
          "type": "uint256"
        }
      ],
      "name": "emergencyWithdraw",
      "outputs": [],
      "stateMutability": "nonpayable",
      "type": "function"
    },
    {
      "inputs": [
        {
          "internalType": "uint256",
          "name": "amount",
          "type": "uint256"
        }
      ],
      "name": "fundUTH2",
      "outputs": [],
      "stateMutability": "nonpayable",
      "type": "function"
    },
    {
      "inputs": [],
      "name": "getAllTiers",
      "outputs": [
        {
          "internalType": "uint256[]",
          "name": "thresholds",
          "type": "uint256[]"
        },
        {
          "internalType": "uint256[]",
          "name": "rewards",
          "type": "uint256[]"
        }
      ],
      "stateMutability": "view",
      "type": "function"
    },
    {
      "inputs": [],
      "name": "getPeriodInfo",
      "outputs": [
        {
          "internalType": "uint256",
          "name": "monthId",
          "type": "uint256"
        },
        {
          "internalType": "uint256",
          "name": "periodStart",
          "type": "uint256"
        },
        {
          "internalType": "uint256",
          "name": "periodEnd",
          "type": "uint256"
        },
        {
          "internalType": "uint256",
          "name": "secondsLeft",
          "type": "uint256"
        }
      ],
      "stateMutability": "view",
      "type": "function"
    },
    {
      "inputs": [],
      "name": "numTiers",
      "outputs": [
        {
          "internalType": "uint256",
          "name": "",
          "type": "uint256"
        }
      ],
      "stateMutability": "view",
      "type": "function"
    },
    {
      "inputs": [],
      "name": "owner",
      "outputs": [
        {
          "internalType": "address",
          "name": "",
          "type": "address"
        }
      ],
      "stateMutability": "view",
      "type": "function"
    },
    {
      "inputs": [
        {
          "internalType": "address",
          "name": "user",
          "type": "address"
        }
      ],
      "name": "pendingNow",
      "outputs": [
        {
          "internalType": "uint256",
          "name": "uth2Amount",
          "type": "uint256"
        },
        {
          "internalType": "uint256",
          "name": "userVolume",
          "type": "uint256"
        },
        {
          "internalType": "uint8[]",
          "name": "tierStatus",
          "type": "uint8[]"
        }
      ],
      "stateMutability": "view",
      "type": "function"
    },
    {
      "inputs": [
        {
          "internalType": "address",
          "name": "user",
          "type": "address"
        },
        {
          "internalType": "uint256",
          "name": "monthId",
          "type": "uint256"
        }
      ],
      "name": "pendingRewards",
      "outputs": [
        {
          "internalType": "uint256",
          "name": "uth2Amount",
          "type": "uint256"
        },
        {
          "internalType": "uint256",
          "name": "userVolume",
          "type": "uint256"
        },
        {
          "internalType": "uint8[]",
          "name": "tierStatus",
          "type": "uint8[]"
        }
      ],
      "stateMutability": "view",
      "type": "function"
    },
    {
      "inputs": [
        {
          "internalType": "address",
          "name": "user",
          "type": "address"
        },
        {
          "internalType": "uint256",
          "name": "usdcAmount",
          "type": "uint256"
        }
      ],
      "name": "recordSwap",
      "outputs": [],
      "stateMutability": "nonpayable",
      "type": "function"
    },
    {
      "inputs": [
        {
          "internalType": "address",
          "name": "newOwner",
          "type": "address"
        }
      ],
      "name": "setOwner",
      "outputs": [],
      "stateMutability": "nonpayable",
      "type": "function"
    },
    {
      "inputs": [
        {
          "internalType": "address",
          "name": "_router",
          "type": "address"
        }
      ],
      "name": "setSwapRouter",
      "outputs": [],
      "stateMutability": "nonpayable",
      "type": "function"
    },
    {
      "inputs": [
        {
          "internalType": "uint256",
          "name": "n",
          "type": "uint256"
        },
        {
          "internalType": "uint256[8]",
          "name": "thresholds",
          "type": "uint256[8]"
        },
        {
          "internalType": "uint256[8]",
          "name": "rewards",
          "type": "uint256[8]"
        }
      ],
      "name": "setTiers",
      "outputs": [],
      "stateMutability": "nonpayable",
      "type": "function"
    },
    {
      "inputs": [],
      "name": "swapRouter",
      "outputs": [
        {
          "internalType": "address",
          "name": "",
          "type": "address"
        }
      ],
      "stateMutability": "view",
      "type": "function"
    },
    {
      "inputs": [
        {
          "internalType": "uint256",
          "name": "",
          "type": "uint256"
        }
      ],
      "name": "tierRewards",
      "outputs": [
        {
          "internalType": "uint256",
          "name": "",
          "type": "uint256"
        }
      ],
      "stateMutability": "view",
      "type": "function"
    },
    {
      "inputs": [
        {
          "internalType": "uint256",
          "name": "",
          "type": "uint256"
        }
      ],
      "name": "tierThresholds",
      "outputs": [
        {
          "internalType": "uint256",
          "name": "",
          "type": "uint256"
        }
      ],
      "stateMutability": "view",
      "type": "function"
    },
    {
      "inputs": [],
      "name": "totalDistributed",
      "outputs": [
        {
          "internalType": "uint256",
          "name": "",
          "type": "uint256"
        }
      ],
      "stateMutability": "view",
      "type": "function"
    },
    {
      "inputs": [
        {
          "internalType": "address",
          "name": "",
          "type": "address"
        },
        {
          "internalType": "uint256",
          "name": "",
          "type": "uint256"
        }
      ],
      "name": "volume",
      "outputs": [
        {
          "internalType": "uint256",
          "name": "",
          "type": "uint256"
        }
      ],
      "stateMutability": "view",
      "type": "function"
    }
  ],
  "bytecode": "0x6080346100c957601f6111f138819003918201601f19168301916001600160401b038311848410176100ce578084926020946040528339810103126100c957516001600160a01b038116908190036100c957600460025560018060a01b0319338160005416176000556001541617600155620f4240600355629896806004556305f5e100600555633b9aca00600655655af3107a4000600b5566038d7ea4c68000600c55662386f26fc10000600d5567016345785d8a0000600e5560405161110c90816100e58239f35b600080fd5b634e487b7160e01b600052604160045260246000fdfe608060408181526004918236101561001657600080fd5b600092833560e01c91826307c3d4af14610e77575081630962ef7914610b995781630968013514610b1057816313af403514610a925781631daddb5e14610a5657816340445a4f14610a3757816341273657146109e85781635312ea8e14610937578163556c448d1461090b5781636099ecb2146107e75781636471af831461074b57816376e77df014610605578163862a4d47146105e55781638d227fc01461052b5781638da5cb5b146105035781639220162f14610406578163a100d69d146103da578163a70c1aba14610399578163aa62f83d1461021257508063b4d1d795146101f5578063c31c9c07146101cd578063efca2eed146101af578063f6c08a2e146101815763faf8ef981461012d57600080fd5b3461017d57606036600319011261017d5760209160ff9082906001600160a01b03610156610e92565b16815260148552818120602435825285528181206044358252855220541690519015158152f35b5080fd5b503461017d578160031936011261017d5760209051739ea8653640e22a5b69887985bb75d496dc97022a8152f35b503461017d578160031936011261017d576020906015549051908152f35b503461017d578160031936011261017d5760015490516001600160a01b039091168152602090f35b503461017d578160031936011261017d576020905162278d008152f35b9190503461039557610220366003190112610395578135916101243681116103915736610224116103915761025160018060a01b038654163314611018565b600191600185101580610386575b156103525760015b8581106102cf57505083600255845b600881106102ac57857f2f291eaf494dc7eca20457441a1df7d9119f0c0d764309daf9cb6b148810ee366020878751908152a180f35b806102b784926110c4565b3581600301558060051b83013581600b015501610276565b6102d8816110c4565b35600019820182811161033f576102ee906110c4565b3510156102fc578301610267565b845162461bcd60e51b8152602081840152601860248201527f5468726573686f6c6473206e6f7420617363656e64696e6700000000000000006044820152606490fd5b634e487b7160e01b895260118452602489fd5b606490602085519162461bcd60e51b8352820152600e60248201526d109859081d1a595c8818dbdd5b9d60921b6044820152fd5b50600885111561025f565b8480fd5b8280fd5b50503461017d578060031936011261017d5760209181906001600160a01b036103c0610e92565b168152601384528181206024358252845220549051908152f35b905034610395576020366003190112610395573560088110156103955760209250600301549051908152f35b91905034610395576020806003193601126104ff5782359182156104d0578051936323b872dd60e01b85523390850152306024850152826044850152818460648188739ea8653640e22a5b69887985bb75d496dc97022a5af19384156104c6577f5af8184bef8e4b45eb9f6ed7734d04da38ced226495548f46e0c8ff8d7d9a5249394610499575b50519283523392a280f35b6104b890833d85116104bf575b6104b08183610f4e565b810190610f86565b503861048e565b503d6104a6565b81513d87823e3d90fd5b5162461bcd60e51b81529283015250600b60248201526a16995c9bc8185b5bdd5b9d60aa1b6044820152606490fd5b8380fd5b50503461017d578160031936011261017d57905490516001600160a01b039091168152602090f35b8284346105e257806003193601126105e25762278d0080420492818402928484048314851517156105bc57600185018086116105cf578381029381850414901517156105bc57428311156105b2574283039083821161059f575060809550925b815194855260208501528301526060820152f35b634e487b7160e01b815260118752602490fd5b608095509261058b565b634e487b7160e01b815260118652602490fd5b634e487b7160e01b825260118752602482fd5b80fd5b50503461017d578160031936011261017d576020905162278d0042048152f35b8284346105e2576020918260031936011261017d578161065d9394610628610e92565b835163304cf65960e11b81526001600160a01b0390911691810191825262278d00420460208301529485918291604090910190565b0381305afa9182156107405780938195829461068a575b50505090610686915193849384610ead565b0390f35b929350935093503d8085853e6106a08185610f4e565b830190606084830312610391578351918185015194848101519067ffffffffffffffff821161073c57019581601f880112156105e2578651906106e282611050565b976106ef8751998a610f4e565b82895284808a019360051b82010193841161017d578401915b83831061072357505050505090610686919293918580610674565b825160ff81168103610395578152918401918401610708565b8780fd5b9051903d90823e3d90fd5b8284346105e257806003193601126105e2576002549261076a84611092565b9361077481611092565b92805b8281106107a25785518681528061068687610794838b018c610ef7565b908382036020850152610ef7565b60088110156107d45780600191600301546107bd828a611068565b5280600b01546107cd8288611068565b5201610777565b634e487b7160e01b825260328452602482fd5b8284346105e257816003193601126105e257610801610e92565b91602491602435819460018060a01b03169384835260209260138452848120838252845284812054976002946002549461083a86611050565b9861084789519a8b610f4e565b868a52601f1961085688611050565b0136848c0137845b878110610876578c8c6106868d8d5193849384610ead565b8a90828752601485528a872084885285528a872081885285528960ff8c892054166000146108b2576108aa82600194611068565b525b0161085e565b50905060088110156108f95780600301548d10156108d3575b6001906108ac565b9a6108f1600191826108e58f8f611068565b528d600b015490610f2b565b9b90506108cb565b634e487b7160e01b8652603285528686fd5b905034610395576020366003190112610395573560088110156103955760209250600b01549051908152f35b91905034610395576020366003190112610395578254610999926020916001600160a01b0316610968338214611018565b835163a9059cbb60e01b81526001600160a01b03909116828201908152913560208301529384918291604090910190565b038186739ea8653640e22a5b69887985bb75d496dc97022a5af19081156109df57506109c3575080f35b6109db9060203d6020116104bf576104b08183610f4e565b5080f35b513d84823e3d90fd5b83346105e25760203660031901126105e257610a02610e92565b81546001600160a01b039190610a1b9083163314611018565b166bffffffffffffffffffffffff60a01b600154161760015580f35b50503461017d578160031936011261017d576020906002549051908152f35b50503461017d573660031901126105e257610a8f610a72610e92565b610a8660018060a01b038454163314611018565b60243590610f9e565b80f35b90503461039557602036600319011261039557610aad610e92565b835491906001600160a01b0390610ac73383861614611018565b16928315610ae15750506001600160a01b03191617815580f35b906020606492519162461bcd60e51b835282015260096024820152682d32b9379030b2323960b91b6044820152fd5b905034610395578160031936011261039557610b2a610e92565b600154909290336001600160a01b0391821614908115610b8c575b5015610b585783610a8f60243585610f9e565b906020606492519162461bcd60e51b8352820152600e60248201526d139bdd08185d5d1a1bdc9a5e995960921b6044820152fd5b9050845416331438610b45565b83833461017d576020806003193601126103955783359133845260138252808420838552825280842054938415610e3d578092815b600254811015610c72576008811015610c5f57806003015487101580610c3a575b610bfc575b600101610bce565b93610c3260019133855260148452858520888652845285852087865284528585208360ff1982541617905586600b015490610f2b565b949050610bf4565b50338352601482528383208684528252838320818452825260ff848420541615610bef565b634e487b7160e01b835260328852602483fd5b50838591888215610dfd5785516370a0823160e01b81523082820152739ea8653640e22a5b69887985bb75d496dc97022a91908381602481865afa908115610df3579085918891610dbe575b5010610d6f5783610d099697928492610cd983601554610f2b565b601555845163a9059cbb60e01b81523391810191825260208201939093529197889283918b918391604090910190565b03925af1948515610d65577ff01da32686223933d8a18a391060918c7f11a3648639edd87ae013e2e2731743939495610d48575b50519283523392a380f35b610d5e90833d85116104bf576104b08183610f4e565b5086610d3d565b81513d88823e3d90fd5b865162461bcd60e51b81529081018390526024808201527f496e73756666696369656e742055544832202d207761697420666f7220726573604482015263746f636b60e01b6064820152608490fd5b809250858092503d8311610dec575b610dd78183610f4e565b81010312610de85784905189610cbe565b8680fd5b503d610dcd565b88513d89823e3d90fd5b8160649287519262461bcd60e51b845283015260248201527f416c6c20746965727320636c61696d6564206f72206e6f7420726561636865646044820152fd5b815162461bcd60e51b8152808701849052601460248201527309cde40ecded8eadaca40e8d0d2e640dadedce8d60631b6044820152606490fd5b84903461017d578160031936011261017d5780600860209252f35b600435906001600160a01b0382168203610ea857565b600080fd5b6080602091606081019381528294838201526060604082015285518094520193019160005b828110610ee0575050505090565b835160ff1685529381019392810192600101610ed2565b90815180825260208080930193019160005b828110610f17575050505090565b835185529381019392810192600101610f09565b91908201809211610f3857565b634e487b7160e01b600052601160045260246000fd5b90601f8019910116810190811067ffffffffffffffff821117610f7057604052565b634e487b7160e01b600052604160045260246000fd5b90816020910312610ea857518015158103610ea85790565b907fbe136f55822a8400613c511fe3a4ab8aeaa1df9c6d834afd7d8531039e327b0962278d0042049260018060a01b031691600090838252601360205260408281809420878252602052818120610ff6848254610f2b565b90558581526013602052818120878252602052205482519182526020820152a3565b1561101f57565b60405162461bcd60e51b81526020600482015260096024820152682737ba1037bbb732b960b91b6044820152606490fd5b67ffffffffffffffff8111610f705760051b60200190565b805182101561107c5760209160051b010190565b634e487b7160e01b600052603260045260246000fd5b9061109c82611050565b6110a96040519182610f4e565b82815280926110ba601f1991611050565b0190602036910137565b600881101561107c5760051b6024019056fea2646970667358221220f86f3b937e8987f8c365ca00fbb79b2aea459007b235003983f041cdd826084964736f6c63430008180033",
  "linkReferences": {},
  "deployedLinkReferences": {}
}