{
  "_format": "hh-sol-artifact-1",
  "contractName": "AcuaVolumeRewards",
  "sourceName": "contracts/AcuaVolumeRewards.sol",
  "abi": [
    {
      "inputs": [
        {
          "internalType": "address",
          "name": "_swapRouter",
          "type": "address"
        }
      ],
      "stateMutability": "nonpayable",
      "type": "constructor"
    },
    {
      "anonymous": false,
      "inputs": [
        {
          "indexed": true,
          "internalType": "address",
          "name": "by",
          "type": "address"
        },
        {
          "indexed": false,
          "internalType": "uint256",
          "name": "amount",
          "type": "uint256"
        }
      ],
      "name": "Funded",
      "type": "event"
    },
    {
      "anonymous": false,
      "inputs": [
        {
          "indexed": true,
          "internalType": "address",
          "name": "user",
          "type": "address"
        },
        {
          "indexed": true,
          "internalType": "uint256",
          "name": "monthId",
          "type": "uint256"
        },
        {
          "indexed": false,
          "internalType": "uint256",
          "name": "uth2Amount",
          "type": "uint256"
        }
      ],
      "name": "RewardClaimed",
      "type": "event"
    },
    {
      "anonymous": false,
      "inputs": [
        {
          "indexed": true,
          "internalType": "address",
          "name": "user",
          "type": "address"
        },
        {
          "indexed": true,
          "internalType": "uint256",
          "name": "monthId",
          "type": "uint256"
        },
        {
          "indexed": false,
          "internalType": "uint256",
          "name": "added",
          "type": "uint256"
        },
        {
          "indexed": false,
          "internalType": "uint256",
          "name": "total",
          "type": "uint256"
        }
      ],
      "name": "VolumeRecorded",
      "type": "event"
    },
    {
      "inputs": [],
      "name": "PERIOD",
      "outputs": [
        {
          "internalType": "uint256",
          "name": "",
          "type": "uint256"
        }
      ],
      "stateMutability": "view",
      "type": "function"
    },
    {
      "inputs": [],
      "name": "UTH2",
      "outputs": [
        {
          "internalType": "address",
          "name": "",
          "type": "address"
        }
      ],
      "stateMutability": "view",
      "type": "function"
    },
    {
      "inputs": [
        {
          "internalType": "address",
          "name": "user",
          "type": "address"
        },
        {
          "internalType": "uint256",
          "name": "usdcAmount",
          "type": "uint256"
        }
      ],
      "name": "adminRecordVolume",
      "outputs": [],
      "stateMutability": "nonpayable",
      "type": "function"
    },
    {
      "inputs": [
        {
          "internalType": "uint256",
          "name": "monthId",
          "type": "uint256"
        }
      ],
      "name": "claimRewards",
      "outputs": [],
      "stateMutability": "nonpayable",
      "type": "function"
    },
    {
      "inputs": [
        {
          "internalType": "address",
          "name": "",
          "type": "address"
        },
        {
          "internalType": "uint256",
          "name": "",
          "type": "uint256"
        },
        {
          "internalType": "uint256",
          "name": "",
          "type": "uint256"
        }
      ],
      "name": "claimed",
      "outputs": [
        {
          "internalType": "bool",
          "name": "",
          "type": "bool"
        }
      ],
      "stateMutability": "view",
      "type": "function"
    },
    {
      "inputs": [],
      "name": "currentMonth",
      "outputs": [
        {
          "internalType": "uint256",
          "name": "",
          "type": "uint256"
        }
      ],
      "stateMutability": "view",
      "type": "function"
    },
    {
      "inputs": [
        {
          "internalType": "uint256",
          "name": "amount",
          "type": "uint256"
        }
      ],
      "name": "emergencyWithdraw",
      "outputs": [],
      "stateMutability": "nonpayable",
      "type": "function"
    },
    {
      "inputs": [
        {
          "internalType": "uint256",
          "name": "amount",
          "type": "uint256"
        }
      ],
      "name": "fundUTH2",
      "outputs": [],
      "stateMutability": "nonpayable",
      "type": "function"
    },
    {
      "inputs": [],
      "name": "owner",
      "outputs": [
        {
          "internalType": "address",
          "name": "",
          "type": "address"
        }
      ],
      "stateMutability": "view",
      "type": "function"
    },
    {
      "inputs": [
        {
          "internalType": "address",
          "name": "user",
          "type": "address"
        }
      ],
      "name": "pendingNow",
      "outputs": [
        {
          "internalType": "uint256",
          "name": "uth2Amount",
          "type": "uint256"
        },
        {
          "internalType": "uint256",
          "name": "userVolume",
          "type": "uint256"
        },
        {
          "internalType": "uint8[4]",
          "name": "tierStatus",
          "type": "uint8[4]"
        }
      ],
      "stateMutability": "view",
      "type": "function"
    },
    {
      "inputs": [
        {
          "internalType": "address",
          "name": "user",
          "type": "address"
        },
        {
          "internalType": "uint256",
          "name": "monthId",
          "type": "uint256"
        }
      ],
      "name": "pendingRewards",
      "outputs": [
        {
          "internalType": "uint256",
          "name": "uth2Amount",
          "type": "uint256"
        },
        {
          "internalType": "uint256",
          "name": "userVolume",
          "type": "uint256"
        },
        {
          "internalType": "uint8[4]",
          "name": "tierStatus",
          "type": "uint8[4]"
        }
      ],
      "stateMutability": "view",
      "type": "function"
    },
    {
      "inputs": [
        {
          "internalType": "address",
          "name": "user",
          "type": "address"
        },
        {
          "internalType": "uint256",
          "name": "usdcAmount",
          "type": "uint256"
        }
      ],
      "name": "recordSwap",
      "outputs": [],
      "stateMutability": "nonpayable",
      "type": "function"
    },
    {
      "inputs": [
        {
          "internalType": "address",
          "name": "newOwner",
          "type": "address"
        }
      ],
      "name": "setOwner",
      "outputs": [],
      "stateMutability": "nonpayable",
      "type": "function"
    },
    {
      "inputs": [
        {
          "internalType": "address",
          "name": "_router",
          "type": "address"
        }
      ],
      "name": "setSwapRouter",
      "outputs": [],
      "stateMutability": "nonpayable",
      "type": "function"
    },
    {
      "inputs": [
        {
          "internalType": "uint256[4]",
          "name": "thresholds",
          "type": "uint256[4]"
        },
        {
          "internalType": "uint256[4]",
          "name": "rewards",
          "type": "uint256[4]"
        }
      ],
      "name": "setTiers",
      "outputs": [],
      "stateMutability": "nonpayable",
      "type": "function"
    },
    {
      "inputs": [],
      "name": "swapRouter",
      "outputs": [
        {
          "internalType": "address",
          "name": "",
          "type": "address"
        }
      ],
      "stateMutability": "view",
      "type": "function"
    },
    {
      "inputs": [
        {
          "internalType": "uint256",
          "name": "",
          "type": "uint256"
        }
      ],
      "name": "tierRewards",
      "outputs": [
        {
          "internalType": "uint256",
          "name": "",
          "type": "uint256"
        }
      ],
      "stateMutability": "view",
      "type": "function"
    },
    {
      "inputs": [
        {
          "internalType": "uint256",
          "name": "",
          "type": "uint256"
        }
      ],
      "name": "tierThresholds",
      "outputs": [
        {
          "internalType": "uint256",
          "name": "",
          "type": "uint256"
        }
      ],
      "stateMutability": "view",
      "type": "function"
    },
    {
      "inputs": [],
      "name": "totalDistributed",
      "outputs": [
        {
          "internalType": "uint256",
          "name": "",
          "type": "uint256"
        }
      ],
      "stateMutability": "view",
      "type": "function"
    },
    {
      "inputs": [
        {
          "internalType": "address",
          "name": "",
          "type": "address"
        },
        {
          "internalType": "uint256",
          "name": "",
          "type": "uint256"
        }
      ],
      "name": "volume",
      "outputs": [
        {
          "internalType": "uint256",
          "name": "",
          "type": "uint256"
        }
      ],
      "stateMutability": "view",
      "type": "function"
    }
  ],
  "bytecode": "0x60803461012a57610ed238819003916001600160401b0391601f8401601f19168201908382118383101761012f578491604052823960208181948101031261012a57516001600160a01b038116929083900361012a5761005d610145565b620f424081526298968060208201526305f5e1006040820152633b9aca00606082015260005b60048110610111575050610095610145565b655af3107a4000815266038d7ea4c680006020820152662386f26fc10000604082015267016345785d8a000060608201529060005b600481106100fc578460018060a01b0319338160005416176000556001541617600155604051610d6d90816101658239f35b825184166006820155918101916001016100ca565b815163ffffffff16600282015590820190600101610083565b600080fd5b634e487b7160e01b600052604160045260246000fd5b60405190608082016001600160401b0381118382101761012f5760405256fe608060408181526004918236101561001657600080fd5b600092833560e01c9182630962ef79146108aa57508163096801351461082157816313af4035146107a35781631daddb5e146107675781631f4a05f5146106e9578163412736571461069a5781635312ea8e146105e9578163556c448d146105bd5781636099ecb2146104dd57816376e77df01461039b578163862a4d471461037b5781638da5cb5b146103535781639220162f14610256578163a100d69d1461022657508063a70c1aba146101e6578063b4d1d795146101c9578063c31c9c07146101a1578063efca2eed14610183578063f6c08a2e146101555763faf8ef981461010157600080fd5b346101515760603660031901126101515760209160ff9082906001600160a01b0361012a610b72565b168152600b8552818120602435825285528181206044358252855220541690519015158152f35b5080fd5b503461015157816003193601126101515760209051739ea8653640e22a5b69887985bb75d496dc97022a8152f35b5034610151578160031936011261015157602090600c549051908152f35b503461015157816003193601126101515760015490516001600160a01b039091168152602090f35b50346101515781600319360112610151576020905162278d008152f35b503461015157806003193601126101515760209181906001600160a01b0361020c610b72565b168152600a84528181206024358252845220549051908152f35b905034610252576020366003190112610252578035908110156102525760209250600201549051908152f35b8280fd5b919050346102525760208060031936011261034f578235918215610320578051936323b872dd60e01b85523390850152306024850152826044850152818460648188739ea8653640e22a5b69887985bb75d496dc97022a5af1938415610316577f5af8184bef8e4b45eb9f6ed7734d04da38ced226495548f46e0c8ff8d7d9a52493946102e9575b50519283523392a280f35b61030890833d851161030f575b6103008183610c24565b810190610c46565b50386102de565b503d6102f6565b81513d87823e3d90fd5b5162461bcd60e51b81529283015250600b60248201526a16995c9bc8185b5bdd5b9d60aa1b6044820152606490fd5b8380fd5b505034610151578160031936011261015157905490516001600160a01b039091168152602090f35b5050346101515781600319360112610151576020905162278d0042048152f35b8284346104da5760209160206003193601126101515760c061040593946103c0610b72565b608084516103cd81610bf2565b369037835163304cf65960e11b81526001600160a01b0390911691810191825262278d00420460208301529485918291604090910190565b0381305afa9182156104cf57809381958294610432575b5050509061042e915193849384610b8d565b0390f35b9293509350935060c03d60c0116104c8575b61044e8185610c24565b83019060c0848303126104c45783519160208501519481605f820112156104c05784519661047b88610bf2565b879160c08101938411610151578601915b8383106104a75750505050509061042e91929391858061041c565b825160ff8116810361025257815291840191840161048c565b8680fd5b8480fd5b503d610444565b9051903d90823e3d90fd5b80fd5b8383346101515780600319360112610151576104f7610b72565b90602435938382519361050985610bf2565b60803686376001600160a01b0316808252600a6020908152848320888452815284832054979091835b8581106105485786518061042e8a8d8d84610b8d565b818552600b8452868520838652845286852081865284528685205460ff16156105825780600261057a6001938b610d10565b525b01610532565b80600201548a1015610597575b60019061057c565b976105b5600191826105a98c8c610d10565b528a6006015490610bcf565b98905061058f565b905034610252576020366003190112610252578035908110156102525760209250600601549051908152f35b9190503461025257602036600319011261025257825461064b926020916001600160a01b031661061a338214610cd8565b835163a9059cbb60e01b81526001600160a01b03909116828201908152913560208301529384918291604090910190565b038186739ea8653640e22a5b69887985bb75d496dc97022a5af19081156106915750610675575080f35b61068d9060203d60201161030f576103008183610c24565b5080f35b513d84823e3d90fd5b83346104da5760203660031901126104da576106b4610b72565b81546001600160a01b0391906106cd9083163314610cd8565b166bffffffffffffffffffffffff60a01b600154161760015580f35b8390346101515761010036600319011261015157366084116101515736610104116101515761072260018060a01b038354163314610cd8565b80825b8281106107525750506084825b82811061073d578380f35b60019060208335930192816006015501610732565b60019060208335930192816002015501610725565b505034610151573660031901126104da576107a0610783610b72565b61079760018060a01b038454163314610cd8565b60243590610c5e565b80f35b905034610252576020366003190112610252576107be610b72565b835491906001600160a01b03906107d83383861614610cd8565b169283156107f25750506001600160a01b03191617815580f35b906020606492519162461bcd60e51b835282015260096024820152682d32b9379030b2323960b91b6044820152fd5b90503461025257816003193601126102525761083b610b72565b600154909290336001600160a01b039182161490811561089d575b501561086957836107a060243585610c5e565b906020606492519162461bcd60e51b8352820152600e60248201526d139bdd08185d5d1a1bdc9a5e995960921b6044820152fd5b9050845416331438610856565b849250346102525760208060031936011261034f57823592338552600a8252858520848652825285852054928315610b3c57508492855b828110610abe5750508215610a6c5785516370a0823160e01b81523082820152739ea8653640e22a5b69887985bb75d496dc97022a91908381602481865afa908115610a62579085918891610a31575b50106109e2578361097c969792849261094c83600c54610bcf565b600c55845163a9059cbb60e01b81523391810191825260208201939093529197889283918b918391604090910190565b03925af19485156109d8577ff01da32686223933d8a18a391060918c7f11a3648639edd87ae013e2e27317439394956109bb575b50519283523392a380f35b6109d190833d851161030f576103008183610c24565b50866109b0565b81513d88823e3d90fd5b865162461bcd60e51b81529081018390526024808201527f496e73756666696369656e742055544832202d207761697420666f7220726573604482015263746f636b60e01b6064820152608490fd5b809250858092503d8311610a5b575b610a4a8183610c24565b810103126104c05784905189610931565b503d610a40565b88513d89823e3d90fd5b60849186519162461bcd60e51b8352820152602860248201527f416c6c20746965727320616c726561647920636c61696d6564206f72206e6f74604482015267081c995858da195960c21b6064820152fd5b806002015482101580610b17575b610ad9575b6001016108e1565b93610b0f600191338952600b8652898920888a528652898920878a5286528989208360ff19825416179055866006015490610bcf565b949050610ad1565b50338752600b84528787208688528452878720818852845260ff888820541615610acc565b8260649262461bcd60e51b8352820152601460248201527309cde40ecded8eadaca40e8d0d2e640dadedce8d60631b6044820152fd5b600435906001600160a01b0382168203610b8857565b600080fd5b604090949392919460c081019581526020926020820152016000905b60048210610bb75750505050565b828060019260ff875116815201940191019092610ba9565b91908201809211610bdc57565b634e487b7160e01b600052601160045260246000fd5b6080810190811067ffffffffffffffff821117610c0e57604052565b634e487b7160e01b600052604160045260246000fd5b90601f8019910116810190811067ffffffffffffffff821117610c0e57604052565b90816020910312610b8857518015158103610b885790565b907fbe136f55822a8400613c511fe3a4ab8aeaa1df9c6d834afd7d8531039e327b0962278d0042049260018060a01b031691600090838252600a60205260408281809420878252602052818120610cb6848254610bcf565b9055858152600a602052818120878252602052205482519182526020820152a3565b15610cdf57565b60405162461bcd60e51b81526020600482015260096024820152682737ba1037bbb732b960b91b6044820152606490fd5b906004811015610d215760051b0190565b634e487b7160e01b600052603260045260246000fdfea2646970667358221220bc998f60bcad6f68a2b9de017e6dfa91183375f5bd8e10548393445d0e0e60cd64736f6c63430008180033",
  "linkReferences": {},
  "deployedLinkReferences": {}
}