{
  "_format": "hh-sol-artifact-1",
  "contractName": "AcuaVolumeRewardsV2",
  "sourceName": "contracts/AcuaVolumeRewardsV2.sol",
  "abi": [
    {
      "inputs": [
        {
          "internalType": "address",
          "name": "initialRouter",
          "type": "address"
        }
      ],
      "stateMutability": "nonpayable",
      "type": "constructor"
    },
    {
      "anonymous": false,
      "inputs": [
        {
          "indexed": true,
          "internalType": "address",
          "name": "by",
          "type": "address"
        },
        {
          "indexed": false,
          "internalType": "uint256",
          "name": "amount",
          "type": "uint256"
        }
      ],
      "name": "Funded",
      "type": "event"
    },
    {
      "anonymous": false,
      "inputs": [
        {
          "indexed": true,
          "internalType": "address",
          "name": "previousOwner",
          "type": "address"
        },
        {
          "indexed": true,
          "internalType": "address",
          "name": "newOwner",
          "type": "address"
        }
      ],
      "name": "OwnerChanged",
      "type": "event"
    },
    {
      "anonymous": false,
      "inputs": [
        {
          "indexed": true,
          "internalType": "address",
          "name": "user",
          "type": "address"
        },
        {
          "indexed": true,
          "internalType": "uint256",
          "name": "monthId",
          "type": "uint256"
        },
        {
          "indexed": false,
          "internalType": "uint256",
          "name": "uth2Amount",
          "type": "uint256"
        }
      ],
      "name": "RewardClaimed",
      "type": "event"
    },
    {
      "anonymous": false,
      "inputs": [
        {
          "indexed": true,
          "internalType": "address",
          "name": "router",
          "type": "address"
        },
        {
          "indexed": false,
          "internalType": "bool",
          "name": "authorised",
          "type": "bool"
        }
      ],
      "name": "RouterUpdated",
      "type": "event"
    },
    {
      "anonymous": false,
      "inputs": [
        {
          "indexed": true,
          "internalType": "address",
          "name": "user",
          "type": "address"
        },
        {
          "indexed": true,
          "internalType": "address",
          "name": "router",
          "type": "address"
        },
        {
          "indexed": false,
          "internalType": "uint256",
          "name": "usdcAmount",
          "type": "uint256"
        },
        {
          "indexed": false,
          "internalType": "uint256",
          "name": "swapCountForUser",
          "type": "uint256"
        }
      ],
      "name": "SwapTracked",
      "type": "event"
    },
    {
      "anonymous": false,
      "inputs": [
        {
          "indexed": false,
          "internalType": "uint256",
          "name": "numTiers",
          "type": "uint256"
        }
      ],
      "name": "TiersUpdated",
      "type": "event"
    },
    {
      "anonymous": false,
      "inputs": [
        {
          "indexed": true,
          "internalType": "address",
          "name": "user",
          "type": "address"
        },
        {
          "indexed": true,
          "internalType": "uint256",
          "name": "monthId",
          "type": "uint256"
        },
        {
          "indexed": false,
          "internalType": "uint256",
          "name": "added",
          "type": "uint256"
        },
        {
          "indexed": false,
          "internalType": "uint256",
          "name": "total",
          "type": "uint256"
        }
      ],
      "name": "VolumeRecorded",
      "type": "event"
    },
    {
      "inputs": [],
      "name": "MAX_TIERS",
      "outputs": [
        {
          "internalType": "uint256",
          "name": "",
          "type": "uint256"
        }
      ],
      "stateMutability": "view",
      "type": "function"
    },
    {
      "inputs": [],
      "name": "PERIOD",
      "outputs": [
        {
          "internalType": "uint256",
          "name": "",
          "type": "uint256"
        }
      ],
      "stateMutability": "view",
      "type": "function"
    },
    {
      "inputs": [],
      "name": "UTH2",
      "outputs": [
        {
          "internalType": "address",
          "name": "",
          "type": "address"
        }
      ],
      "stateMutability": "view",
      "type": "function"
    },
    {
      "inputs": [
        {
          "internalType": "address",
          "name": "user",
          "type": "address"
        },
        {
          "internalType": "uint256",
          "name": "usdcAmount",
          "type": "uint256"
        }
      ],
      "name": "adminRecordVolume",
      "outputs": [],
      "stateMutability": "nonpayable",
      "type": "function"
    },
    {
      "inputs": [
        {
          "internalType": "uint256",
          "name": "monthId",
          "type": "uint256"
        }
      ],
      "name": "claimRewards",
      "outputs": [],
      "stateMutability": "nonpayable",
      "type": "function"
    },
    {
      "inputs": [
        {
          "internalType": "address",
          "name": "",
          "type": "address"
        },
        {
          "internalType": "uint256",
          "name": "",
          "type": "uint256"
        },
        {
          "internalType": "uint256",
          "name": "",
          "type": "uint256"
        }
      ],
      "name": "claimed",
      "outputs": [
        {
          "internalType": "bool",
          "name": "",
          "type": "bool"
        }
      ],
      "stateMutability": "view",
      "type": "function"
    },
    {
      "inputs": [],
      "name": "currentMonth",
      "outputs": [
        {
          "internalType": "uint256",
          "name": "",
          "type": "uint256"
        }
      ],
      "stateMutability": "view",
      "type": "function"
    },
    {
      "inputs": [
        {
          "internalType": "uint256",
          "name": "amount",
          "type": "uint256"
        }
      ],
      "name": "emergencyWithdraw",
      "outputs": [],
      "stateMutability": "nonpayable",
      "type": "function"
    },
    {
      "inputs": [
        {
          "internalType": "uint256",
          "name": "amount",
          "type": "uint256"
        }
      ],
      "name": "fundUTH2",
      "outputs": [],
      "stateMutability": "nonpayable",
      "type": "function"
    },
    {
      "inputs": [],
      "name": "getAllTiers",
      "outputs": [
        {
          "internalType": "uint256[]",
          "name": "thresholds",
          "type": "uint256[]"
        },
        {
          "internalType": "uint256[]",
          "name": "rewards",
          "type": "uint256[]"
        }
      ],
      "stateMutability": "view",
      "type": "function"
    },
    {
      "inputs": [],
      "name": "getPeriodInfo",
      "outputs": [
        {
          "internalType": "uint256",
          "name": "monthId",
          "type": "uint256"
        },
        {
          "internalType": "uint256",
          "name": "periodStart",
          "type": "uint256"
        },
        {
          "internalType": "uint256",
          "name": "periodEnd",
          "type": "uint256"
        },
        {
          "internalType": "uint256",
          "name": "secondsLeft",
          "type": "uint256"
        }
      ],
      "stateMutability": "view",
      "type": "function"
    },
    {
      "inputs": [],
      "name": "numTiers",
      "outputs": [
        {
          "internalType": "uint256",
          "name": "",
          "type": "uint256"
        }
      ],
      "stateMutability": "view",
      "type": "function"
    },
    {
      "inputs": [],
      "name": "owner",
      "outputs": [
        {
          "internalType": "address",
          "name": "",
          "type": "address"
        }
      ],
      "stateMutability": "view",
      "type": "function"
    },
    {
      "inputs": [
        {
          "internalType": "address",
          "name": "user",
          "type": "address"
        }
      ],
      "name": "pendingNow",
      "outputs": [
        {
          "internalType": "uint256",
          "name": "uth2Amount",
          "type": "uint256"
        },
        {
          "internalType": "uint256",
          "name": "userVolume",
          "type": "uint256"
        },
        {
          "internalType": "uint8[]",
          "name": "tierStatus",
          "type": "uint8[]"
        }
      ],
      "stateMutability": "view",
      "type": "function"
    },
    {
      "inputs": [
        {
          "internalType": "address",
          "name": "user",
          "type": "address"
        },
        {
          "internalType": "uint256",
          "name": "monthId",
          "type": "uint256"
        }
      ],
      "name": "pendingRewards",
      "outputs": [
        {
          "internalType": "uint256",
          "name": "uth2Amount",
          "type": "uint256"
        },
        {
          "internalType": "uint256",
          "name": "userVolume",
          "type": "uint256"
        },
        {
          "internalType": "uint8[]",
          "name": "tierStatus",
          "type": "uint8[]"
        }
      ],
      "stateMutability": "view",
      "type": "function"
    },
    {
      "inputs": [
        {
          "internalType": "address",
          "name": "user",
          "type": "address"
        },
        {
          "internalType": "uint256",
          "name": "usdcAmount",
          "type": "uint256"
        }
      ],
      "name": "recordSwap",
      "outputs": [],
      "stateMutability": "nonpayable",
      "type": "function"
    },
    {
      "inputs": [
        {
          "internalType": "address",
          "name": "",
          "type": "address"
        }
      ],
      "name": "routers",
      "outputs": [
        {
          "internalType": "bool",
          "name": "",
          "type": "bool"
        }
      ],
      "stateMutability": "view",
      "type": "function"
    },
    {
      "inputs": [
        {
          "internalType": "address",
          "name": "newOwner",
          "type": "address"
        }
      ],
      "name": "setOwner",
      "outputs": [],
      "stateMutability": "nonpayable",
      "type": "function"
    },
    {
      "inputs": [
        {
          "internalType": "address",
          "name": "router",
          "type": "address"
        },
        {
          "internalType": "bool",
          "name": "authorised",
          "type": "bool"
        }
      ],
      "name": "setRouter",
      "outputs": [],
      "stateMutability": "nonpayable",
      "type": "function"
    },
    {
      "inputs": [
        {
          "internalType": "uint256",
          "name": "n",
          "type": "uint256"
        },
        {
          "internalType": "uint256[8]",
          "name": "thresholds",
          "type": "uint256[8]"
        },
        {
          "internalType": "uint256[8]",
          "name": "rewards",
          "type": "uint256[8]"
        }
      ],
      "name": "setTiers",
      "outputs": [],
      "stateMutability": "nonpayable",
      "type": "function"
    },
    {
      "inputs": [
        {
          "internalType": "address",
          "name": "",
          "type": "address"
        }
      ],
      "name": "swapCount",
      "outputs": [
        {
          "internalType": "uint256",
          "name": "",
          "type": "uint256"
        }
      ],
      "stateMutability": "view",
      "type": "function"
    },
    {
      "inputs": [
        {
          "internalType": "uint256",
          "name": "",
          "type": "uint256"
        }
      ],
      "name": "tierRewards",
      "outputs": [
        {
          "internalType": "uint256",
          "name": "",
          "type": "uint256"
        }
      ],
      "stateMutability": "view",
      "type": "function"
    },
    {
      "inputs": [
        {
          "internalType": "uint256",
          "name": "",
          "type": "uint256"
        }
      ],
      "name": "tierThresholds",
      "outputs": [
        {
          "internalType": "uint256",
          "name": "",
          "type": "uint256"
        }
      ],
      "stateMutability": "view",
      "type": "function"
    },
    {
      "inputs": [],
      "name": "totalDistributed",
      "outputs": [
        {
          "internalType": "uint256",
          "name": "",
          "type": "uint256"
        }
      ],
      "stateMutability": "view",
      "type": "function"
    },
    {
      "inputs": [],
      "name": "totalSwapsRecorded",
      "outputs": [
        {
          "internalType": "uint256",
          "name": "",
          "type": "uint256"
        }
      ],
      "stateMutability": "view",
      "type": "function"
    },
    {
      "inputs": [
        {
          "internalType": "address",
          "name": "",
          "type": "address"
        },
        {
          "internalType": "uint256",
          "name": "",
          "type": "uint256"
        }
      ],
      "name": "volume",
      "outputs": [
        {
          "internalType": "uint256",
          "name": "",
          "type": "uint256"
        }
      ],
      "stateMutability": "view",
      "type": "function"
    }
  ],
  "bytecode": "0x60803461011157601f61132d38819003918201601f19168301916001600160401b038311848410176101165780849260209460405283398101031261011157516001600160a01b03811690819003610111576004600255600080546001600160a01b03191633179055806100c7575b620f4240600355629896806004556305f5e100600555633b9aca00600655655af3107a4000600b5566038d7ea4c68000600c55662386f26fc10000600d5567016345785d8a0000600e55604051611200908161012d8239f35b8060005260016020526040600020600160ff198254161790557fab5814e9f0dc78998a367cdeb77f1143370431cce307f90adb6db02f49fd768a602060405160018152a23861006e565b600080fd5b634e487b7160e01b600052604160045260246000fdfe608060408181526004918236101561001657600080fd5b600092833560e01c91826307c3d4af14610ed4575081630962ef7914610bf65781630968013514610a9057816313af4035146109ec5781631daddb5e1461094a5781633193dcdc1461091257816340445a4f146108f35781635312ea8e14610842578163556c448d146108165781636099ecb2146107ec5781636471af831461075057816376e77df01461071057816380dd9a1f146106d2578163862a4d47146106b25781638d227fc0146105f85781638da5cb5b146105d05781639220162f146104d3578163a100d69d146104a7578163a70c1aba14610466578163aa62f83d146102e7578163b4d1d795146102c9578163c3c646741461020157508063efca2eed146101e3578063f6c08a2e146101b5578063faf8ef98146101645763fcb70a321461014357600080fd5b346101605781600319360112610160576020906017549051908152f35b5080fd5b50346101605760603660031901126101605760209160ff9082906001600160a01b0361018e610eef565b16815260148552818120602435825285528181206044358252855220541690519015158152f35b503461016057816003193601126101605760209051739ea8653640e22a5b69887985bb75d496dc97022a8152f35b50346101605781600319360112610160576020906016549051908152f35b919050346102c557806003193601126102c55761021c610eef565b90602435918215158093036102c15784546001600160a01b039190610244908316331461100a565b1692831561029157507fab5814e9f0dc78998a367cdeb77f1143370431cce307f90adb6db02f49fd768a916020918486526001835280862060ff1981541660ff841617905551908152a280f35b6020606492519162461bcd60e51b8352820152600b60248201526a2d32b937903937baba32b960a91b6044820152fd5b8480fd5b8280fd5b5050346101605781600319360112610160576020905162278d008152f35b919050346102c5576102203660031901126102c5578135916101243681116102c15736610224116102c15761032660018060a01b03865416331461100a565b60019160018510158061045b575b156104275760015b8581106103a457505083600255845b6008811061038157857f2f291eaf494dc7eca20457441a1df7d9119f0c0d764309daf9cb6b148810ee366020878751908152a180f35b8061038c84926111b8565b3581600301558060051b83013581600b01550161034b565b6103ad816111b8565b356000198201828111610414576103c3906111b8565b3510156103d157830161033c565b845162461bcd60e51b8152602081840152601860248201527f5468726573686f6c6473206e6f7420617363656e64696e6700000000000000006044820152606490fd5b634e487b7160e01b895260118452602489fd5b606490602085519162461bcd60e51b8352820152600e60248201526d109859081d1a595c8818dbdd5b9d60921b6044820152fd5b506008851115610334565b50503461016057806003193601126101605760209181906001600160a01b0361048d610eef565b168152601384528181206024358252845220549051908152f35b9050346102c55760203660031901126102c5573560088110156102c55760209250600301549051908152f35b919050346102c5576020806003193601126105cc57823591821561059d578051936323b872dd60e01b85523390850152306024850152826044850152818460648188739ea8653640e22a5b69887985bb75d496dc97022a5af1938415610593577f5af8184bef8e4b45eb9f6ed7734d04da38ced226495548f46e0c8ff8d7d9a5249394610566575b50519283523392a280f35b61058590833d851161058c575b61057d8183610fab565b810190610fe3565b503861055b565b503d610573565b81513d87823e3d90fd5b5162461bcd60e51b81529283015250600b60248201526a16995c9bc8185b5bdd5b9d60aa1b6044820152606490fd5b8380fd5b505034610160578160031936011261016057905490516001600160a01b039091168152602090f35b8284346106af57806003193601126106af5762278d008042049281840292848404831485151715610689576001850180861161069c57838102938185041490151715610689574283111561067f574283039083821161066c575060809550925b815194855260208501528301526060820152f35b634e487b7160e01b815260118752602490fd5b6080955092610658565b634e487b7160e01b815260118652602490fd5b634e487b7160e01b825260118752602482fd5b80fd5b5050346101605781600319360112610160576020905162278d0042048152f35b5050346101605760203660031901126101605760209160ff9082906001600160a01b036106fd610eef565b1681526001855220541690519015158152f35b5050346101605760203660031901126101605761074c9061073e610732610eef565b62278d00420490611084565b909391925193849384610f0a565b0390f35b8284346106af57806003193601126106af576002549261076f84611186565b9361077981611186565b92805b8281106107a75785518681528061074c87610799838b018c610f54565b908382036020850152610f54565b60088110156107d95780600191600301546107c2828a61105a565b5280600b01546107d2828861105a565b520161077c565b634e487b7160e01b825260328452602482fd5b50503461016057806003193601126101605761074c9061073e61080d610eef565b60243590611084565b9050346102c55760203660031901126102c5573560088110156102c55760209250600b01549051908152f35b919050346102c55760203660031901126102c55782546108a4926020916001600160a01b031661087333821461100a565b835163a9059cbb60e01b81526001600160a01b03909116828201908152913560208301529384918291604090910190565b038186739ea8653640e22a5b69887985bb75d496dc97022a5af19081156108ea57506108ce575080f35b6108e69060203d60201161058c5761057d8183610fab565b5080f35b513d84823e3d90fd5b5050346101605781600319360112610160576020906002549051908152f35b5050346101605760203660031901126101605760209181906001600160a01b0361093a610eef565b1681526015845220549051908152f35b505034610160578060031936011261016057610964610eef565b907fbe136f55822a8400613c511fe3a4ab8aeaa1df9c6d834afd7d8531039e327b096024359160018060a01b0361099f81875416331461100a565b62278d00420494169283865260136020528186208587526020528186206109c7828254610f88565b905583865260136020528186208587526020528186205482519182526020820152a380f35b9050346102c55760203660031901126102c557610a07610eef565b8354916001600160a01b0380841692610a2133851461100a565b16938415610a6157505082907fb532073b38c83145e3e5135377a08bf9aab55bc0fd7c1179cd4fb995d2a5159c8580a36001600160a01b03191617815580f35b906020606492519162461bcd60e51b835282015260096024820152682d32b9379030b2323960b91b6044820152fd5b919050346102c557806003193601126102c557610aab610eef565b602435903385526020936001855260ff84872054168015610be3575b15610baf57506001600160a01b0316808552601584528285208054919391610aee90610ffb565b9055610afb601754610ffb565b601755828552601584528085205481519083825285820152837fe53357d432a19ca14e65a9539aa1973bdff89a75a8a16f67b4bb8aac8ebc7b7d833393a381610b42578480f35b7fbe136f55822a8400613c511fe3a4ab8aeaa1df9c6d834afd7d8531039e327b099162278d00420494848752601381528287208688528152828720610b88838254610f88565b905584875260138152828720868852815282872054908351928352820152a3388080808480f35b835162461bcd60e51b8152908101859052600e60248201526d139bdd08185d5d1a1bdc9a5e995960921b6044820152606490fd5b5085546001600160a01b03163314610ac7565b838334610160576020806003193601126102c55783359133845260138252808420838552825280842054938415610e9a578092815b600254811015610ccf576008811015610cbc57806003015487101580610c97575b610c59575b600101610c2b565b93610c8f60019133855260148452858520888652845285852087865284528585208360ff1982541617905586600b015490610f88565b949050610c51565b50338352601482528383208684528252838320818452825260ff848420541615610c4c565b634e487b7160e01b835260328852602483fd5b50838591888215610e5a5785516370a0823160e01b81523082820152739ea8653640e22a5b69887985bb75d496dc97022a91908381602481865afa908115610e50579085918891610e1b575b5010610dcc5783610d669697928492610d3683601654610f88565b601655845163a9059cbb60e01b81523391810191825260208201939093529197889283918b918391604090910190565b03925af1948515610dc2577ff01da32686223933d8a18a391060918c7f11a3648639edd87ae013e2e2731743939495610da5575b50519283523392a380f35b610dbb90833d851161058c5761057d8183610fab565b5086610d9a565b81513d88823e3d90fd5b865162461bcd60e51b81529081018390526024808201527f496e73756666696369656e742055544832202d207761697420666f7220726573604482015263746f636b60e01b6064820152608490fd5b809250858092503d8311610e49575b610e348183610fab565b81010312610e455784905189610d1b565b8680fd5b503d610e2a565b88513d89823e3d90fd5b8160649287519262461bcd60e51b845283015260248201527f416c6c20746965727320636c61696d6564206f72206e6f7420726561636865646044820152fd5b815162461bcd60e51b8152808701849052601460248201527309cde40ecded8eadaca40e8d0d2e640dadedce8d60631b6044820152606490fd5b84903461016057816003193601126101605780600860209252f35b600435906001600160a01b0382168203610f0557565b600080fd5b6080602091606081019381528294838201526060604082015285518094520193019160005b828110610f3d575050505090565b835160ff1685529381019392810192600101610f2f565b90815180825260208080930193019160005b828110610f74575050505090565b835185529381019392810192600101610f66565b91908201809211610f9557565b634e487b7160e01b600052601160045260246000fd5b90601f8019910116810190811067ffffffffffffffff821117610fcd57604052565b634e487b7160e01b600052604160045260246000fd5b90816020910312610f0557518015158103610f055790565b6000198114610f955760010190565b1561101157565b60405162461bcd60e51b81526020600482015260096024820152682737ba1037bbb732b960b91b6044820152606490fd5b67ffffffffffffffff8111610fcd5760051b60200190565b805182101561106e5760209160051b010190565b634e487b7160e01b600052603260045260246000fd5b9060009260009260018060a01b03169182845260206013815260409182862081875282528286205495600293600254936110bd85611042565b936110ca83519586610fab565b858552601f196110d987611042565b0136838701378498845b8781106110f557505050505050505050565b81865260148452848620838752845284862081875284528486205460ff161561112e5780896111266001938a61105a565b525b016110e3565b60088110156111725780600301548c101561114c575b600190611128565b9b61116a6001918e8361115f828c61105a565b52600b015490610f88565b9c9050611144565b634e487b7160e01b86526032600452602486fd5b9061119082611042565b61119d6040519182610fab565b82815280926111ae601f1991611042565b0190602036910137565b600881101561106e5760051b6024019056fea2646970667358221220cbada725310d22e5dd06db0bfe807a3168b097dd014a59375b6010b89d52092664736f6c63430008180033",
  "linkReferences": {},
  "deployedLinkReferences": {}
}