{
  "_format": "hh-sol-artifact-1",
  "contractName": "AcuaSwapRouterV2",
  "sourceName": "contracts/AcuaSwapRouterV2.sol",
  "abi": [
    {
      "inputs": [
        {
          "internalType": "address[3]",
          "name": "_feeOwners",
          "type": "address[3]"
        }
      ],
      "stateMutability": "nonpayable",
      "type": "constructor"
    },
    {
      "anonymous": false,
      "inputs": [],
      "name": "ConfigUpdated",
      "type": "event"
    },
    {
      "anonymous": false,
      "inputs": [
        {
          "indexed": true,
          "internalType": "address",
          "name": "who",
          "type": "address"
        },
        {
          "indexed": true,
          "internalType": "address",
          "name": "token",
          "type": "address"
        },
        {
          "indexed": false,
          "internalType": "uint256",
          "name": "amount",
          "type": "uint256"
        }
      ],
      "name": "FeeClaimed",
      "type": "event"
    },
    {
      "anonymous": false,
      "inputs": [
        {
          "indexed": true,
          "internalType": "address",
          "name": "token",
          "type": "address"
        },
        {
          "indexed": false,
          "internalType": "uint256",
          "name": "tokenIn",
          "type": "uint256"
        },
        {
          "indexed": false,
          "internalType": "uint256",
          "name": "h2oOut",
          "type": "uint256"
        }
      ],
      "name": "H2OBought",
      "type": "event"
    },
    {
      "anonymous": false,
      "inputs": [
        {
          "indexed": true,
          "internalType": "address",
          "name": "user",
          "type": "address"
        },
        {
          "indexed": false,
          "internalType": "address",
          "name": "tokenIn",
          "type": "address"
        },
        {
          "indexed": false,
          "internalType": "address",
          "name": "tokenOut",
          "type": "address"
        },
        {
          "indexed": false,
          "internalType": "uint256",
          "name": "amountIn",
          "type": "uint256"
        },
        {
          "indexed": false,
          "internalType": "uint256",
          "name": "amountOut",
          "type": "uint256"
        }
      ],
      "name": "SwappedV3",
      "type": "event"
    },
    {
      "inputs": [],
      "name": "H2O",
      "outputs": [
        {
          "internalType": "address",
          "name": "",
          "type": "address"
        }
      ],
      "stateMutability": "view",
      "type": "function"
    },
    {
      "inputs": [],
      "name": "MAX_FEE_BPS",
      "outputs": [
        {
          "internalType": "uint256",
          "name": "",
          "type": "uint256"
        }
      ],
      "stateMutability": "view",
      "type": "function"
    },
    {
      "inputs": [],
      "name": "PERMIT2_ADDR",
      "outputs": [
        {
          "internalType": "address",
          "name": "",
          "type": "address"
        }
      ],
      "stateMutability": "view",
      "type": "function"
    },
    {
      "inputs": [],
      "name": "USDC",
      "outputs": [
        {
          "internalType": "address",
          "name": "",
          "type": "address"
        }
      ],
      "stateMutability": "view",
      "type": "function"
    },
    {
      "inputs": [],
      "name": "V3_FACTORY",
      "outputs": [
        {
          "internalType": "address",
          "name": "",
          "type": "address"
        }
      ],
      "stateMutability": "view",
      "type": "function"
    },
    {
      "inputs": [],
      "name": "V3_POOL_INIT_CODE_HASH",
      "outputs": [
        {
          "internalType": "bytes32",
          "name": "",
          "type": "bytes32"
        }
      ],
      "stateMutability": "view",
      "type": "function"
    },
    {
      "inputs": [],
      "name": "WLD",
      "outputs": [
        {
          "internalType": "address",
          "name": "",
          "type": "address"
        }
      ],
      "stateMutability": "view",
      "type": "function"
    },
    {
      "inputs": [
        {
          "internalType": "address",
          "name": "token",
          "type": "address"
        },
        {
          "internalType": "uint24",
          "name": "feeHop",
          "type": "uint24"
        },
        {
          "internalType": "uint24",
          "name": "feeOut",
          "type": "uint24"
        }
      ],
      "name": "buybackH2O",
      "outputs": [],
      "stateMutability": "nonpayable",
      "type": "function"
    },
    {
      "inputs": [
        {
          "internalType": "address",
          "name": "token",
          "type": "address"
        }
      ],
      "name": "claimFees",
      "outputs": [],
      "stateMutability": "nonpayable",
      "type": "function"
    },
    {
      "inputs": [
        {
          "internalType": "address[]",
          "name": "tokens",
          "type": "address[]"
        }
      ],
      "name": "claimFeesBatch",
      "outputs": [],
      "stateMutability": "nonpayable",
      "type": "function"
    },
    {
      "inputs": [
        {
          "internalType": "address",
          "name": "token",
          "type": "address"
        },
        {
          "internalType": "uint256",
          "name": "amount",
          "type": "uint256"
        }
      ],
      "name": "emergencyWithdraw",
      "outputs": [],
      "stateMutability": "nonpayable",
      "type": "function"
    },
    {
      "inputs": [
        {
          "internalType": "uint256",
          "name": "",
          "type": "uint256"
        }
      ],
      "name": "feeOwners",
      "outputs": [
        {
          "internalType": "address",
          "name": "",
          "type": "address"
        }
      ],
      "stateMutability": "view",
      "type": "function"
    },
    {
      "inputs": [
        {
          "internalType": "address",
          "name": "tokenA",
          "type": "address"
        },
        {
          "internalType": "address",
          "name": "tokenB",
          "type": "address"
        },
        {
          "internalType": "uint24",
          "name": "fee",
          "type": "uint24"
        }
      ],
      "name": "getPoolAddress",
      "outputs": [
        {
          "internalType": "address",
          "name": "",
          "type": "address"
        }
      ],
      "stateMutability": "pure",
      "type": "function"
    },
    {
      "inputs": [],
      "name": "h2oFeeBps",
      "outputs": [
        {
          "internalType": "uint256",
          "name": "",
          "type": "uint256"
        }
      ],
      "stateMutability": "view",
      "type": "function"
    },
    {
      "inputs": [
        {
          "internalType": "address",
          "name": "",
          "type": "address"
        }
      ],
      "name": "h2oFeePool",
      "outputs": [
        {
          "internalType": "uint256",
          "name": "",
          "type": "uint256"
        }
      ],
      "stateMutability": "view",
      "type": "function"
    },
    {
      "inputs": [],
      "name": "owner",
      "outputs": [
        {
          "internalType": "address",
          "name": "",
          "type": "address"
        }
      ],
      "stateMutability": "view",
      "type": "function"
    },
    {
      "inputs": [
        {
          "internalType": "address",
          "name": "",
          "type": "address"
        },
        {
          "internalType": "address",
          "name": "",
          "type": "address"
        }
      ],
      "name": "ownerFees",
      "outputs": [
        {
          "internalType": "uint256",
          "name": "",
          "type": "uint256"
        }
      ],
      "stateMutability": "view",
      "type": "function"
    },
    {
      "inputs": [
        {
          "internalType": "address",
          "name": "tokenIn",
          "type": "address"
        },
        {
          "internalType": "address",
          "name": "tokenOut",
          "type": "address"
        },
        {
          "internalType": "uint24",
          "name": "fee",
          "type": "uint24"
        },
        {
          "internalType": "uint256",
          "name": "amountIn",
          "type": "uint256"
        }
      ],
      "name": "quoteSingle",
      "outputs": [
        {
          "internalType": "uint256",
          "name": "amountOut",
          "type": "uint256"
        },
        {
          "internalType": "address",
          "name": "poolAddr",
          "type": "address"
        }
      ],
      "stateMutability": "view",
      "type": "function"
    },
    {
      "inputs": [
        {
          "internalType": "address[3]",
          "name": "_owners",
          "type": "address[3]"
        }
      ],
      "name": "setFeeOwners",
      "outputs": [],
      "stateMutability": "nonpayable",
      "type": "function"
    },
    {
      "inputs": [
        {
          "internalType": "uint256",
          "name": "_swapFeeBps",
          "type": "uint256"
        },
        {
          "internalType": "uint256",
          "name": "_h2oFeeBps",
          "type": "uint256"
        }
      ],
      "name": "setFees",
      "outputs": [],
      "stateMutability": "nonpayable",
      "type": "function"
    },
    {
      "inputs": [
        {
          "internalType": "address",
          "name": "newOwner",
          "type": "address"
        }
      ],
      "name": "setOwner",
      "outputs": [],
      "stateMutability": "nonpayable",
      "type": "function"
    },
    {
      "inputs": [
        {
          "internalType": "address",
          "name": "_vr",
          "type": "address"
        }
      ],
      "name": "setVolumeRewards",
      "outputs": [],
      "stateMutability": "nonpayable",
      "type": "function"
    },
    {
      "inputs": [],
      "name": "swapFeeBps",
      "outputs": [
        {
          "internalType": "uint256",
          "name": "",
          "type": "uint256"
        }
      ],
      "stateMutability": "view",
      "type": "function"
    },
    {
      "inputs": [
        {
          "internalType": "address",
          "name": "hopToken",
          "type": "address"
        },
        {
          "internalType": "address",
          "name": "tokenOut",
          "type": "address"
        },
        {
          "internalType": "uint24",
          "name": "fee1",
          "type": "uint24"
        },
        {
          "internalType": "uint24",
          "name": "fee2",
          "type": "uint24"
        },
        {
          "internalType": "uint256",
          "name": "amountOutMin",
          "type": "uint256"
        },
        {
          "internalType": "uint256",
          "name": "usdcEquivalent",
          "type": "uint256"
        },
        {
          "components": [
            {
              "components": [
                {
                  "internalType": "address",
                  "name": "token",
                  "type": "address"
                },
                {
                  "internalType": "uint256",
                  "name": "amount",
                  "type": "uint256"
                }
              ],
              "internalType": "struct IPermit2.TokenPermissions",
              "name": "permitted",
              "type": "tuple"
            },
            {
              "internalType": "uint256",
              "name": "nonce",
              "type": "uint256"
            },
            {
              "internalType": "uint256",
              "name": "deadline",
              "type": "uint256"
            }
          ],
          "internalType": "struct IPermit2.PermitTransferFrom",
          "name": "permit",
          "type": "tuple"
        },
        {
          "internalType": "bytes",
          "name": "signature",
          "type": "bytes"
        }
      ],
      "name": "swapV3Multi",
      "outputs": [
        {
          "internalType": "uint256",
          "name": "amountOut",
          "type": "uint256"
        }
      ],
      "stateMutability": "nonpayable",
      "type": "function"
    },
    {
      "inputs": [
        {
          "internalType": "address",
          "name": "tokenOut",
          "type": "address"
        },
        {
          "internalType": "uint24",
          "name": "fee",
          "type": "uint24"
        },
        {
          "internalType": "uint256",
          "name": "amountOutMin",
          "type": "uint256"
        },
        {
          "internalType": "uint256",
          "name": "usdcEquivalent",
          "type": "uint256"
        },
        {
          "components": [
            {
              "components": [
                {
                  "internalType": "address",
                  "name": "token",
                  "type": "address"
                },
                {
                  "internalType": "uint256",
                  "name": "amount",
                  "type": "uint256"
                }
              ],
              "internalType": "struct IPermit2.TokenPermissions",
              "name": "permitted",
              "type": "tuple"
            },
            {
              "internalType": "uint256",
              "name": "nonce",
              "type": "uint256"
            },
            {
              "internalType": "uint256",
              "name": "deadline",
              "type": "uint256"
            }
          ],
          "internalType": "struct IPermit2.PermitTransferFrom",
          "name": "permit",
          "type": "tuple"
        },
        {
          "internalType": "bytes",
          "name": "signature",
          "type": "bytes"
        }
      ],
      "name": "swapV3Single",
      "outputs": [
        {
          "internalType": "uint256",
          "name": "amountOut",
          "type": "uint256"
        }
      ],
      "stateMutability": "nonpayable",
      "type": "function"
    },
    {
      "inputs": [
        {
          "internalType": "int256",
          "name": "amount0Delta",
          "type": "int256"
        },
        {
          "internalType": "int256",
          "name": "amount1Delta",
          "type": "int256"
        },
        {
          "internalType": "bytes",
          "name": "",
          "type": "bytes"
        }
      ],
      "name": "uniswapV3SwapCallback",
      "outputs": [],
      "stateMutability": "nonpayable",
      "type": "function"
    },
    {
      "inputs": [],
      "name": "volumeRewards",
      "outputs": [
        {
          "internalType": "address",
          "name": "",
          "type": "address"
        }
      ],
      "stateMutability": "view",
      "type": "function"
    }
  ],
  "bytecode": "0x608034620000f9576001600160401b039062001eb53881900390601f8201601f191683019084821184831017620000fe57829160405283398101606082820312620000f95780601f83011215620000f957604051926060840190811184821017620000fe57604052829160608101918211620000f957915b818310620000d75760c8600455600a600555600080546001600160a01b0319163317815584905b60038110620000b757604051611da09081620001158239f35b81516001600160a01b03166001919091019081556020909101906200009e565b82516001600160a01b0381168103620000f95781526020928301920162000077565b600080fd5b634e487b7160e01b600052604160045260246000fdfe608080604052600436101561001357600080fd5b60003560e01c90816308bd1a8514611268575080630b78f9c0146111c857806313af40351461114c57806315a0ea6a14610fff57806324b4fd7914610f915780632ffdaf8914610f73578063501015bf14610ef657806350d5e40e14610ed8578063696d628314610e92578063705bd45214610e6957806371255ea014610afa578063795e2c4d146109875780637e9602fc1461095e57806382f3ae79146107cc5780638543f9ca1461079657806389a30271146107675780638da5cb5b1461073e578063904c1853146106f757806395ccea6714610676578063ca19c851146103c9578063d55be8c6146103ac578063de061d661461037d578063f1b2a7e714610343578063fa461e33146101f7578063fc8a2b0a146101a6578063fdcf09551461017c5763feaa524d1461014857600080fd5b346101775760003660031901126101775760206040517317392e5483983945deb92e0518a8f2c4eb6ba59d8152f35b600080fd5b346101775760003660031901126101775760206040516e22d473030f116ddee9f6b43ac78ba38152f35b34610177576040366003190112610177576101bf611295565b6101c76112ab565b9060018060a01b038091166000526007602052604060002091166000526020526020604060002054604051908152f35b346101775760603660031901126101775760043560243560443567ffffffffffffffff81116101775761022e9036906004016112e5565b50506009546001600160a01b0391908216801561030d5760008413156102c957505060095460405163a9059cbb60e01b8152336004820152602481019390935260209183916044918391600091165af180156102bd5761028b575b005b6020813d6020116102b5575b816102a4602093836113ba565b8101031261017757610289906113dc565b3d9150610297565b6040513d6000823e3d90fd5b91509150600082136102d757005b60405163a9059cbb60e01b81523360048201526024810192909252602090829060449082906000905af180156102bd5761028b57005b60405162461bcd60e51b815260206004820152600e60248201526d04e6f2061637469766520737761760941b6044820152606490fd5b34610177576020366003190112610177576001600160a01b03610364611295565b1660005260086020526020604060002054604051908152f35b34610177576000366003190112610177576020604051732cfc85d8e48f8eab294be644d9e25c30308630038152f35b346101775760003660031901126101775760206040516103e88152f35b3461017757610120366003190112610177576103e3611295565b6103eb6112d3565b9060803660831901126101775761010491823567ffffffffffffffff81116101775761041b9036906004016112e5565b6001600160a01b0360843581811696909493908786036101775760a43593610444851515611410565b6040519061045182611358565b30825260208201908682526e22d473030f116ddee9f6b43ac78ba391823b156101775786958c838a9460009889956040519c8d9a8b998a9763187945bd60e11b89526004890152602488015260c435604488015260e4356064880152511660848601525160a48501523360c485015261010060e48501528301528061012493848401378181018301849052601f01601f191681010301925af19081156102bd5761055f92604092610667575b506105088487611b00565b976105296001600160601b0360a01b96828860095416176009558989611a47565b9082891611988960001461064a5760006401000276a4935b8b865197889687958693630251596160e31b85523360048601611460565b0393165af19081156102bd576020967f918e92f54688c51950885ac1066129bb8ecc6bff902c9746495c1074fcfbf87f94600092600094610613575b506009541660095560001461060357506105b490611499565b935b6105c46044358610156114aa565b6105d060643533611cd7565b604080516001600160a01b03958616815291909416602082015292830152606082018390523391608090a2604051908152f35b61060d9150611499565b936105b6565b90935061063991925060403d604011610643575b61063181836113ba565b81019061144a565b919091928961059b565b503d610627565b600073fffd8963efd1fc6a506488495d951d5263988d2593610541565b6106709061138a565b886104fd565b346101775760403660031901126101775761068f611295565b6000546001600160a01b03916020916106e6919084166106b0338214611313565b60405163a9059cbb60e01b81526001600160a01b0390911660048201526024803590820152938492839160009183906044820190565b0393165af180156102bd5761028b57005b3461017757606036600319011261017757610289610713611295565b61071b6112d3565b6107236112c1565b9161073960018060a01b03600054163314611313565b61153f565b34610177576000366003190112610177576000546040516001600160a01b039091168152602090f35b346101775760003660031901126101775760206040517379a02482a880bce3f13e09da970dc34db4cd24d18152f35b3461017757602036600319011261017757600435600381101561017757600101546040516001600160a01b039091168152602090f35b3461017757602080600319360112610177576004359067ffffffffffffffff908183116101775736602384011215610177578260040135918211610177576024830192602436918460051b0101116101775760005b82811061082a57005b336000908152600780845260409091206001600160a01b039291908361085961085485898b611519565b6113fc565b1660005284526040600020549081156109535733600052845260406000208361088661085485898b611519565b16600052845260006040812055826108a261085484888a611519565b60405163a9059cbb60e01b8152336004820152602481018490529491869186916044918391600091165af180156102bd5761091e575b600193506108ea61085484888a611519565b16906040519081527f4a34429a0ef883c4301d5b40aa8ae85d4eb024946062f2c7ebd8320acedc831a853392a35b01610821565b8484813d831161094c575b61093381836113ba565b81010312610177576109466001946113dc565b506108d8565b503d610929565b505060019150610918565b34610177576000366003190112610177576020604051600080516020611d4b8339815191528152f35b34610177576080366003190112610177576109a0611295565b6109cc6109ab6112ab565b916109b46112c1565b6001600160a01b039260643592918491908684611a47565b1692604051633850c7bd60e01b815260e081600481885afa80156102bd578291600091610a66575b5081610a019116806113e9565b951691161015610a2857604092610a17916113e9565b60c01c905b82519182526020820152f35b8060c01b90808204600160c01b1490151715610a5057604092610a4a916114f9565b90610a1c565b634e487b7160e01b600052601160045260246000fd5b91505060e0813d60e011610af2575b81610a8260e093836113ba565b8101031261017757805182811681036101775760208201518060020b0361017757610aaf604083016114ea565b50610abc606083016114ea565b50610ac9608083016114ea565b5060a082015160ff8116036101775782610a0191610aea60c08395016113dc565b5091506109f4565b3d9150610a75565b346101775761016036600319011261017757610b14611295565b610b1c6112ab565b610b246112c1565b9162ffffff60643516606435036101775760803660c3190112610177576101443567ffffffffffffffff811161017757610b629036906004016112e5565b60c435926001600160a01b03841692918385036101775760e43592610b88841515611410565b604051610b9481611358565b308152602081018581526e22d473030f116ddee9f6b43ac78ba390813b156101775760405163187945bd60e11b81526004810189905260248101889052610104803560448301526101248035606484015294516001600160a01b03166084830152915160a48201523360c482015261010060e4820152908101859052936000938593849286928491908190848401378181018301849052601f01601f191681010301925af180156102bd57610e5a575b50610c4f8285611b00565b92610cb260406001600160601b0360a01b95610c7660099a85898d5416178c55868a611a47565b6001600160a01b03861694909411938415610e3f576401000276a4915b60008451809681958294630251596160e31b84528a3060048601611460565b03926001600160a01b03165af19182156102bd57610d4892604092600090600092610e1f575b508a5488169215610e0f5750610ced90611499565b905b6001600160a01b038516178955610d096064358986611a47565b6001600160a01b03898116951694909410938415610df4576401000276a4915b60008451809681958294630251596160e31b84528a3360048601611460565b03926001600160a01b03165af19182156102bd576020977f918e92f54688c51950885ac1066129bb8ecc6bff902c9746495c1074fcfbf87f95600093600095610dcd575b50815416905515610dbd5750610da190611499565b935b610db16084358610156114aa565b6105d060a43533611cd7565b610dc79150611499565b93610da3565b909450610dea91935060403d6040116106435761063181836113ba565b929092938a610d8c565b73fffd8963efd1fc6a506488495d951d5263988d2591610d29565b610e199150611499565b90610cef565b9050610e389150833d85116106435761063181836113ba565b908b610cd8565b73fffd8963efd1fc6a506488495d951d5263988d2591610c93565b610e639061138a565b86610c44565b34610177576000366003190112610177576006546040516001600160a01b039091168152602090f35b34610177576060366003190112610177576020610ec6610eb0611295565b610eb86112ab565b610ec06112c1565b91611a47565b6040516001600160a01b039091168152f35b34610177576000366003190112610177576020600554604051908152f35b34610177576060366003190112610177573660641161017757610f2460018060a01b03600054163314611313565b600460005b60038110610f58577ffe891c6ab12cf73707f8deb6600c12ba382e4cc31eb2b0a2754cad13075ed2d1600080a1005b6001906020610f66846113fc565b9301928183015501610f29565b34610177576000366003190112610177576020600454604051908152f35b3461017757602036600319011261017757610faa611295565b6000546001600160a01b039190610fc49083163314611313565b166001600160601b0360a01b60065416176006557ffe891c6ab12cf73707f8deb6600c12ba382e4cc31eb2b0a2754cad13075ed2d1600080a1005b346101775760208060031936011261017757611019611295565b3360009081526007835260408082206001600160a01b0390931680835292845290205490918115611115573360008181526007835260408082208683528452808220919091555163a9059cbb60e01b8152600481019190915260248101839052908082806044810103816000885af180156102bd576110c1575b7f4a34429a0ef883c4301d5b40aa8ae85d4eb024946062f2c7ebd8320acedc831a91506040519283523392a3005b8082813d831161110e575b6110d681836113ba565b81010312610177576111087f4a34429a0ef883c4301d5b40aa8ae85d4eb024946062f2c7ebd8320acedc831a926113dc565b50611093565b503d6110cc565b6064906040519062461bcd60e51b82526004820152601060248201526f4e6f7468696e6720746f20636c61696d60801b6044820152fd5b3461017757602036600319011261017757611165611295565b600054906001600160a01b039061117f3383851614611313565b16908115611197576001600160a01b03191617600055005b60405162461bcd60e51b81526020600482015260096024820152682d32b9379030b2323960b91b6044820152606490fd5b3461017757604036600319011261017757600435602435906111f560018060a01b03600054163314611313565b6103e8611202838361134b565b11611234576004556005557ffe891c6ab12cf73707f8deb6600c12ba382e4cc31eb2b0a2754cad13075ed2d1600080a1005b60405162461bcd60e51b815260206004820152600c60248201526b08ccaca40e8dede40d0d2ced60a31b6044820152606490fd5b346101775760003660031901126101775780737a5028bda40e7b173c278c5342087826455ea25a60209252f35b600435906001600160a01b038216820361017757565b602435906001600160a01b038216820361017757565b6044359062ffffff8216820361017757565b6024359062ffffff8216820361017757565b9181601f840112156101775782359167ffffffffffffffff8311610177576020838186019501011161017757565b1561131a57565b60405162461bcd60e51b81526020600482015260096024820152682737ba1037bbb732b960b91b6044820152606490fd5b91908201809211610a5057565b6040810190811067ffffffffffffffff82111761137457604052565b634e487b7160e01b600052604160045260246000fd5b67ffffffffffffffff811161137457604052565b6080810190811067ffffffffffffffff82111761137457604052565b90601f8019910116810190811067ffffffffffffffff82111761137457604052565b5190811515820361017757565b81810292918115918404141715610a5057565b356001600160a01b03811681036101775790565b1561141757565b60405162461bcd60e51b815260206004820152600b60248201526a16995c9bc8185b5bdd5b9d60aa1b6044820152606490fd5b9190826040910312610177576020825192015190565b6001600160a01b039182168152911515602083015260408201929092529116606082015260a06080820181905260009082015260c00190565b600160ff1b8114610a505760000390565b156114b157565b60405162461bcd60e51b8152602060048201526011602482015270546f6f206d75636820736c69707061676560781b6044820152606490fd5b519061ffff8216820361017757565b8115611503570490565b634e487b7160e01b600052601260045260246000fd5b91908110156115295760051b0190565b634e487b7160e01b600052603260045260246000fd5b6001600160a01b038116600081815260086020526040902054909390918215611a1857846000526008602052600060408120557317392e5483983945deb92e0518a8f2c4eb6ba59d851461192d576116ce600094604092876001600160601b0360a01b6009541617600955732cfc85d8e48f8eab294be644d9e25c30308630038810871461190d579062ffffff732cfc85d8e48f8eab294be644d9e25c3030863003915b85516001600160a01b039485166020820190815294909316838701521660608083019190915281526116148161139e565b519020825190602082019060ff60f81b8252733d28145ed2073d8b9e13c629a1043c1322af512d60611b60218401526035830152600080516020611d4b8339815191526055830152605582526116698261139e565b905190206001600160a01b0316732cfc85d8e48f8eab294be644d9e25c3030863003871086146118f3576401000276a45b8351968780948193630251596160e31b835289732cfc85d8e48f8eab294be644d9e25c30308630038d103060048601611460565b03925af180156102bd576000936000916118b6575b506009546001600160a01b0319169360409291732cfc85d8e48f8eab294be644d9e25c303086300391828810156118a6575061171e90611499565b945b17600955815162ffffff60208201927317392e5483983945deb92e0518a8f2c4eb6ba59d8452732cfc85d8e48f8eab294be644d9e25c303086300385840152166060820152606081526117728161139e565b519020815190602082019060ff60f81b8252733d28145ed2073d8b9e13c629a1043c1322af512d60611b60218401526035830152600080516020611d4b8339815191526055830152605582526117c78261139e565b90519020600080548351630251596160e31b81526001600160a01b03918216600482015260248101839052604481019690965273fffd8963efd1fc6a506488495d951d5263988d25606487015260a0608487015260a48601829052859260c49284929091165af19081156102bd5761187b6040927f626502ef77967d5c4531abad2a6f2a43b30f257e30cc352362d0eb2c61932a4894600091611888575b50600980546001600160a01b0319169055611499565b82519182526020820152a2565b61189f9150843d86116106435761063181836113ba565b5038611865565b6118b09150611499565b94611720565b732cfc85d8e48f8eab294be644d9e25c3030863003945060409291506118e890833d85116106435761063181836113ba565b9490949192506116e3565b73fffd8963efd1fc6a506488495d951d5263988d2561169a565b732cfc85d8e48f8eab294be644d9e25c30308630039162ffffff906115e3565b505060005460405163a9059cbb60e01b81526001600160a01b039091166004820152602481018290529091506020818060448101038160007317392e5483983945deb92e0518a8f2c4eb6ba59d5af180156102bd576119ba575b5060407f626502ef77967d5c4531abad2a6f2a43b30f257e30cc352362d0eb2c61932a48918151908082526020820152a2565b6020813d602011611a10575b816119d3602093836113ba565b81010312610177577f626502ef77967d5c4531abad2a6f2a43b30f257e30cc352362d0eb2c61932a4891611a086040926113dc565b509150611987565b3d91506119c6565b60405162461bcd60e51b81526020600482015260076024820152664e6f206665657360c81b6044820152606490fd5b6001600160a01b0392908284168482161015611ae85762ffffff9092915b846040519381602086019616865216604084015216606082015260608152611a8c8161139e565b519020604051602081019160ff60f81b8352733d28145ed2073d8b9e13c629a1043c1322af512d60611b60218301526035820152600080516020611d4b833981519152605582015260558152611ae18161139e565b5190201690565b9062ffffff90611a65565b91908203918211610a5057565b919061271060049181611b15600454836113e9565b0491611b23600554836113e9565b049282611b72575b5090611b4291611b47949584611b4a575b50611af3565b611af3565b90565b60018060a01b031660005260086020526040600020611b6a85825461134b565b905538611b3c565b600090815b60038110611c915750508015611c4d57611ba4611b9e611b9783866114f9565b92836113e9565b84611af3565b9060005b60038110611bfc57505090611b479495611b42939260018060a01b03806001541660005260076020526040600020908316600052602052611bef604060002091825461134b565b90555b9594509091611b2b565b6001818101549091906001600160a01b0390811680611c1e575b505001611ba8565b6000526020906007825260409182600020918c1660005252600020611c4484825461134b565b90553880611c16565b5090611b4291611b47949560018060a01b038060005416600052600760205260406000209082166000526020526040600020611c8a84825461134b565b9055611bf2565b6001818101546001600160a01b0316611cae575b50600101611b77565b90926000198114611cc25701916001611ca5565b601183634e487b7160e01b6000525260246000fd5b6006546001600160a01b03169182151580611d41575b611cf657505050565b823b1561017757604051630968013560e01b81526001600160a01b039290921660048301526024820152906000908290604490829084905af1611d365750565b611d3f9061138a565b565b50801515611ced56fee34f199b19b2b4f47f68442619d555527d244f78a3297ea89325f843f87b8b54a2646970667358221220671c331a45388a5d26ef4cb6bd9d793b10b09d8b0d6791414a4bfa3b85654d0664736f6c63430008180033",
  "linkReferences": {},
  "deployedLinkReferences": {}
}