{
  "_format": "hh-sol-artifact-1",
  "contractName": "UniversalStakingV2",
  "sourceName": "contracts/UniversalStakingV2.sol",
  "abi": [
    {
      "inputs": [
        {
          "internalType": "address",
          "name": "token",
          "type": "address"
        },
        {
          "internalType": "address",
          "name": "owner1",
          "type": "address"
        },
        {
          "internalType": "address",
          "name": "owner2",
          "type": "address"
        }
      ],
      "stateMutability": "nonpayable",
      "type": "constructor"
    },
    {
      "anonymous": false,
      "inputs": [
        {
          "indexed": true,
          "internalType": "address",
          "name": "user",
          "type": "address"
        },
        {
          "indexed": false,
          "internalType": "uint256",
          "name": "amount",
          "type": "uint256"
        },
        {
          "indexed": false,
          "internalType": "uint256",
          "name": "fee",
          "type": "uint256"
        }
      ],
      "name": "Claimed",
      "type": "event"
    },
    {
      "anonymous": false,
      "inputs": [
        {
          "indexed": true,
          "internalType": "address",
          "name": "token",
          "type": "address"
        },
        {
          "indexed": true,
          "internalType": "address",
          "name": "to",
          "type": "address"
        },
        {
          "indexed": false,
          "internalType": "uint256",
          "name": "amount",
          "type": "uint256"
        }
      ],
      "name": "EmergencyWithdraw",
      "type": "event"
    },
    {
      "anonymous": false,
      "inputs": [
        {
          "indexed": false,
          "internalType": "uint256",
          "name": "stakeFeeBps",
          "type": "uint256"
        },
        {
          "indexed": false,
          "internalType": "uint256",
          "name": "unstakeFeeBps",
          "type": "uint256"
        },
        {
          "indexed": false,
          "internalType": "uint256",
          "name": "claimFeeBps",
          "type": "uint256"
        }
      ],
      "name": "FeeConfigured",
      "type": "event"
    },
    {
      "anonymous": false,
      "inputs": [
        {
          "indexed": true,
          "internalType": "address",
          "name": "owner",
          "type": "address"
        }
      ],
      "name": "OwnerAdded",
      "type": "event"
    },
    {
      "anonymous": false,
      "inputs": [
        {
          "indexed": true,
          "internalType": "address",
          "name": "owner",
          "type": "address"
        }
      ],
      "name": "OwnerRemoved",
      "type": "event"
    },
    {
      "anonymous": false,
      "inputs": [
        {
          "indexed": true,
          "internalType": "address",
          "name": "by",
          "type": "address"
        }
      ],
      "name": "Paused",
      "type": "event"
    },
    {
      "anonymous": false,
      "inputs": [
        {
          "indexed": true,
          "internalType": "address",
          "name": "depositor",
          "type": "address"
        },
        {
          "indexed": false,
          "internalType": "uint256",
          "name": "amount",
          "type": "uint256"
        },
        {
          "indexed": false,
          "internalType": "uint256",
          "name": "newRate",
          "type": "uint256"
        },
        {
          "indexed": false,
          "internalType": "uint256",
          "name": "periodEnd",
          "type": "uint256"
        }
      ],
      "name": "RewardsDeposited",
      "type": "event"
    },
    {
      "anonymous": false,
      "inputs": [
        {
          "indexed": true,
          "internalType": "address",
          "name": "user",
          "type": "address"
        },
        {
          "indexed": false,
          "internalType": "uint256",
          "name": "amount",
          "type": "uint256"
        },
        {
          "indexed": false,
          "internalType": "uint256",
          "name": "fee",
          "type": "uint256"
        }
      ],
      "name": "Staked",
      "type": "event"
    },
    {
      "anonymous": false,
      "inputs": [
        {
          "indexed": true,
          "internalType": "address",
          "name": "by",
          "type": "address"
        }
      ],
      "name": "Unpaused",
      "type": "event"
    },
    {
      "anonymous": false,
      "inputs": [
        {
          "indexed": true,
          "internalType": "address",
          "name": "user",
          "type": "address"
        },
        {
          "indexed": false,
          "internalType": "uint256",
          "name": "amount",
          "type": "uint256"
        },
        {
          "indexed": false,
          "internalType": "uint256",
          "name": "fee",
          "type": "uint256"
        }
      ],
      "name": "Unstaked",
      "type": "event"
    },
    {
      "inputs": [],
      "name": "BPS",
      "outputs": [
        {
          "internalType": "uint256",
          "name": "",
          "type": "uint256"
        }
      ],
      "stateMutability": "view",
      "type": "function"
    },
    {
      "inputs": [],
      "name": "FEE_TO_REWARD_BPS",
      "outputs": [
        {
          "internalType": "uint256",
          "name": "",
          "type": "uint256"
        }
      ],
      "stateMutability": "view",
      "type": "function"
    },
    {
      "inputs": [],
      "name": "MAX_FEE_BPS",
      "outputs": [
        {
          "internalType": "uint256",
          "name": "",
          "type": "uint256"
        }
      ],
      "stateMutability": "view",
      "type": "function"
    },
    {
      "inputs": [],
      "name": "MAX_OWNERS",
      "outputs": [
        {
          "internalType": "uint256",
          "name": "",
          "type": "uint256"
        }
      ],
      "stateMutability": "view",
      "type": "function"
    },
    {
      "inputs": [],
      "name": "PERMIT2",
      "outputs": [
        {
          "internalType": "address",
          "name": "",
          "type": "address"
        }
      ],
      "stateMutability": "view",
      "type": "function"
    },
    {
      "inputs": [],
      "name": "REWARD_DURATION",
      "outputs": [
        {
          "internalType": "uint256",
          "name": "",
          "type": "uint256"
        }
      ],
      "stateMutability": "view",
      "type": "function"
    },
    {
      "inputs": [],
      "name": "SCALE",
      "outputs": [
        {
          "internalType": "uint256",
          "name": "",
          "type": "uint256"
        }
      ],
      "stateMutability": "view",
      "type": "function"
    },
    {
      "inputs": [],
      "name": "TOKEN",
      "outputs": [
        {
          "internalType": "address",
          "name": "",
          "type": "address"
        }
      ],
      "stateMutability": "view",
      "type": "function"
    },
    {
      "inputs": [
        {
          "internalType": "address",
          "name": "addr",
          "type": "address"
        }
      ],
      "name": "addOwner",
      "outputs": [],
      "stateMutability": "nonpayable",
      "type": "function"
    },
    {
      "inputs": [],
      "name": "apyBps",
      "outputs": [
        {
          "internalType": "uint256",
          "name": "",
          "type": "uint256"
        }
      ],
      "stateMutability": "view",
      "type": "function"
    },
    {
      "inputs": [],
      "name": "claimFeeBps",
      "outputs": [
        {
          "internalType": "uint256",
          "name": "",
          "type": "uint256"
        }
      ],
      "stateMutability": "view",
      "type": "function"
    },
    {
      "inputs": [],
      "name": "claimRewards",
      "outputs": [],
      "stateMutability": "nonpayable",
      "type": "function"
    },
    {
      "inputs": [],
      "name": "contractTokenBalance",
      "outputs": [
        {
          "internalType": "uint256",
          "name": "",
          "type": "uint256"
        }
      ],
      "stateMutability": "view",
      "type": "function"
    },
    {
      "inputs": [
        {
          "internalType": "uint256",
          "name": "amount",
          "type": "uint256"
        }
      ],
      "name": "depositRewards",
      "outputs": [],
      "stateMutability": "nonpayable",
      "type": "function"
    },
    {
      "inputs": [
        {
          "internalType": "address",
          "name": "account",
          "type": "address"
        }
      ],
      "name": "earned",
      "outputs": [
        {
          "internalType": "uint256",
          "name": "",
          "type": "uint256"
        }
      ],
      "stateMutability": "view",
      "type": "function"
    },
    {
      "inputs": [
        {
          "internalType": "address",
          "name": "token",
          "type": "address"
        },
        {
          "internalType": "uint256",
          "name": "amount",
          "type": "uint256"
        },
        {
          "internalType": "address",
          "name": "to",
          "type": "address"
        }
      ],
      "name": "emergencyWithdraw",
      "outputs": [],
      "stateMutability": "nonpayable",
      "type": "function"
    },
    {
      "inputs": [],
      "name": "getOwners",
      "outputs": [
        {
          "internalType": "address[3]",
          "name": "",
          "type": "address[3]"
        }
      ],
      "stateMutability": "view",
      "type": "function"
    },
    {
      "inputs": [
        {
          "internalType": "address",
          "name": "user",
          "type": "address"
        }
      ],
      "name": "getStakeInfo",
      "outputs": [
        {
          "internalType": "uint256",
          "name": "stakedAmount",
          "type": "uint256"
        },
        {
          "internalType": "uint256",
          "name": "stakedAt",
          "type": "uint256"
        },
        {
          "internalType": "uint256",
          "name": "lastClaimAt",
          "type": "uint256"
        },
        {
          "internalType": "uint256",
          "name": "pendingRewards",
          "type": "uint256"
        },
        {
          "internalType": "bool",
          "name": "active",
          "type": "bool"
        }
      ],
      "stateMutability": "view",
      "type": "function"
    },
    {
      "inputs": [],
      "name": "lastTimeRewardApplicable",
      "outputs": [
        {
          "internalType": "uint256",
          "name": "",
          "type": "uint256"
        }
      ],
      "stateMutability": "view",
      "type": "function"
    },
    {
      "inputs": [],
      "name": "lastUpdateTime",
      "outputs": [
        {
          "internalType": "uint256",
          "name": "",
          "type": "uint256"
        }
      ],
      "stateMutability": "view",
      "type": "function"
    },
    {
      "inputs": [],
      "name": "ownerCount",
      "outputs": [
        {
          "internalType": "uint256",
          "name": "",
          "type": "uint256"
        }
      ],
      "stateMutability": "view",
      "type": "function"
    },
    {
      "inputs": [
        {
          "internalType": "uint256",
          "name": "",
          "type": "uint256"
        }
      ],
      "name": "owners",
      "outputs": [
        {
          "internalType": "address",
          "name": "",
          "type": "address"
        }
      ],
      "stateMutability": "view",
      "type": "function"
    },
    {
      "inputs": [],
      "name": "pause",
      "outputs": [],
      "stateMutability": "nonpayable",
      "type": "function"
    },
    {
      "inputs": [],
      "name": "paused",
      "outputs": [
        {
          "internalType": "bool",
          "name": "",
          "type": "bool"
        }
      ],
      "stateMutability": "view",
      "type": "function"
    },
    {
      "inputs": [],
      "name": "periodFinish",
      "outputs": [
        {
          "internalType": "uint256",
          "name": "",
          "type": "uint256"
        }
      ],
      "stateMutability": "view",
      "type": "function"
    },
    {
      "inputs": [
        {
          "internalType": "address",
          "name": "addr",
          "type": "address"
        }
      ],
      "name": "removeOwner",
      "outputs": [],
      "stateMutability": "nonpayable",
      "type": "function"
    },
    {
      "inputs": [],
      "name": "rewardPerToken",
      "outputs": [
        {
          "internalType": "uint256",
          "name": "",
          "type": "uint256"
        }
      ],
      "stateMutability": "view",
      "type": "function"
    },
    {
      "inputs": [],
      "name": "rewardPerTokenStored",
      "outputs": [
        {
          "internalType": "uint256",
          "name": "",
          "type": "uint256"
        }
      ],
      "stateMutability": "view",
      "type": "function"
    },
    {
      "inputs": [],
      "name": "rewardRate",
      "outputs": [
        {
          "internalType": "uint256",
          "name": "",
          "type": "uint256"
        }
      ],
      "stateMutability": "view",
      "type": "function"
    },
    {
      "inputs": [],
      "name": "rewardReserve",
      "outputs": [
        {
          "internalType": "uint256",
          "name": "",
          "type": "uint256"
        }
      ],
      "stateMutability": "view",
      "type": "function"
    },
    {
      "inputs": [
        {
          "internalType": "uint256",
          "name": "bps",
          "type": "uint256"
        }
      ],
      "name": "setClaimFee",
      "outputs": [],
      "stateMutability": "nonpayable",
      "type": "function"
    },
    {
      "inputs": [
        {
          "internalType": "uint256",
          "name": "bps",
          "type": "uint256"
        }
      ],
      "name": "setStakeFee",
      "outputs": [],
      "stateMutability": "nonpayable",
      "type": "function"
    },
    {
      "inputs": [
        {
          "internalType": "uint256",
          "name": "bps",
          "type": "uint256"
        }
      ],
      "name": "setUnstakeFee",
      "outputs": [],
      "stateMutability": "nonpayable",
      "type": "function"
    },
    {
      "inputs": [
        {
          "components": [
            {
              "components": [
                {
                  "internalType": "address",
                  "name": "token",
                  "type": "address"
                },
                {
                  "internalType": "uint256",
                  "name": "amount",
                  "type": "uint256"
                }
              ],
              "internalType": "struct IPermit2.TokenPermissions",
              "name": "permitted",
              "type": "tuple"
            },
            {
              "internalType": "uint256",
              "name": "nonce",
              "type": "uint256"
            },
            {
              "internalType": "uint256",
              "name": "deadline",
              "type": "uint256"
            }
          ],
          "internalType": "struct IPermit2.PermitTransferFrom",
          "name": "permit",
          "type": "tuple"
        },
        {
          "internalType": "bytes",
          "name": "signature",
          "type": "bytes"
        }
      ],
      "name": "stake",
      "outputs": [],
      "stateMutability": "nonpayable",
      "type": "function"
    },
    {
      "inputs": [],
      "name": "stakeFeeBps",
      "outputs": [
        {
          "internalType": "uint256",
          "name": "",
          "type": "uint256"
        }
      ],
      "stateMutability": "view",
      "type": "function"
    },
    {
      "inputs": [],
      "name": "totalStaked",
      "outputs": [
        {
          "internalType": "uint256",
          "name": "",
          "type": "uint256"
        }
      ],
      "stateMutability": "view",
      "type": "function"
    },
    {
      "inputs": [],
      "name": "unpause",
      "outputs": [],
      "stateMutability": "nonpayable",
      "type": "function"
    },
    {
      "inputs": [],
      "name": "unstake",
      "outputs": [],
      "stateMutability": "nonpayable",
      "type": "function"
    },
    {
      "inputs": [],
      "name": "unstakeFeeBps",
      "outputs": [
        {
          "internalType": "uint256",
          "name": "",
          "type": "uint256"
        }
      ],
      "stateMutability": "view",
      "type": "function"
    },
    {
      "inputs": [
        {
          "internalType": "address",
          "name": "",
          "type": "address"
        }
      ],
      "name": "users",
      "outputs": [
        {
          "internalType": "uint256",
          "name": "staked",
          "type": "uint256"
        },
        {
          "internalType": "uint256",
          "name": "rewardPerTokenPaid",
          "type": "uint256"
        },
        {
          "internalType": "uint256",
          "name": "pendingReward",
          "type": "uint256"
        },
        {
          "internalType": "uint256",
          "name": "stakedAt",
          "type": "uint256"
        },
        {
          "internalType": "uint256",
          "name": "lastClaimAt",
          "type": "uint256"
        }
      ],
      "stateMutability": "view",
      "type": "function"
    }
  ],
  "bytecode": "0x60a0346200018357601f62001b0d38819003918201601f19168301916001600160401b03831184841017620001885780849260609460405283398101031262000183576200004d816200019e565b906200006a604062000062602084016200019e565b92016200019e565b6101f460048190556005819055600655906001600160a01b039083821615620001515781169283156200011f57608052600080546001600160a01b031990811685179091556001600355911691821515908162000113575b50620000fe575b6040516119599081620001b482396080518181816104cb015281816105b9015281816107ce01528181610e4f01526118070152f35b600154161760015560026003553880620000c9565b905082141538620000c2565b60405162461bcd60e51b815260206004820152600a6024820152692d32b9379037bbb732b960b11b6044820152606490fd5b60405162461bcd60e51b815260206004820152600a6024820152692d32b937903a37b5b2b760b11b6044820152606490fd5b600080fd5b634e487b7160e01b600052604160045260246000fd5b51906001600160a01b0382168203620001835756fe6040608081526004908136101561001557600080fd5b600091823560e01c90816218a1161461114f5781628cc26214611129578163025e7c27146110f65781630b8bb146146110da5781630db02622146110bb578163173825d91461108d5781631d9ab29a14610da8578163249d39e914610d8b5781632def662014610c2b5781632e75ab5014610bb0578163372500ab14610abd5781633ad5b8aa14610a9f5781633f4ba83a14610a5057816351618ed314610a33578163551512de146109155781635ade228a146108f65781635c975abb146108d25781636afdd850146108a85781637065cb48146108775781637a526f4e146108585781637b0a47ee1461083957816380faa57d1461081c578163817b1cd2146107fd57816382bfefc8146107b95781638456cb59146107675781638bdf67f21461054f5781639e9aed621461049c578163a0e67e2b14610409578163a87430ba146103a6578163a93837bd146102bd578163c345315314610343578163c8f33c9114610324578163c8fc972914610305578163cab64bcd146102e6578163cd3daf9d146102c2578163d55be8c6146102bd578163df136d651461029e578163e2d7bee41461021c57508063ebe2b12b146101fe5763eced5526146101d957600080fd5b346101fa57816003193601126101fa5760209051670de0b6b3a76400008152f35b5080fd5b50346101fa57816003193601126101fa576020906009549051908152f35b9190503461029a57602036600319011261029a57817f12c476dbe611207aa496773afc1cfedb660981ebe024c62f643a0aaec9bb75699235809161026761026233611724565b6111fc565b6102756103e8831115611234565b5560055460065492519182526020820152604081019190915280606081015b0390a180f35b8280fd5b5050346101fa57816003193601126101fa57602090600a549051908152f35b6111df565b5050346101fa57816003193601126101fa576020906102df6116de565b9051908152f35b5050346101fa57816003193601126101fa57602090600d549051908152f35b5050346101fa57816003193601126101fa576020906005549051908152f35b5050346101fa57816003193601126101fa57602090600b549051908152f35b839150346101fa5760203660031901126101fa578260a0936103636111c9565b93600180871b0385168152600e60205220926103898454936003860154950154916112d2565b918051948486526020860152840152606083015215156080820152f35b9190503461029a57602036600319011261029a5760a09281906001600160a01b036103cf6111c9565b168152600e602052208054926001820154926002830154916003840154930154938151958652602086015284015260608301526080820152f35b8284346104995780600319360112610499579060608151610429816114e8565b3690378051908280835b6003821061047957505050610447826114e8565b519190825b6003831061045957606084f35b81516001600160a01b03168152600192909201916020918201910161044c565b82546001600160a01b031681526001928301929190910190602001610433565b80fd5b9190503461029a578260031936011261029a5780516370a0823160e01b815230928101929092526020826024817f00000000000000000000000000000000000000000000000000000000000000006001600160a01b03165afa91821561054557839261050d575b6020838351908152f35b9091506020813d60201161053d575b816105296020938361151a565b8101031261029a5760209250519038610503565b3d915061051c565b81513d85823e3d90fd5b8383346101fa5760203660031901126101fa5782359061057161026233611724565b6105796116de565b600a556105846116cc565b600b5561059282151561144a565b80516323b872dd60e01b8152338582015230602482015260448101839052602081606481877f00000000000000000000000000000000000000000000000000000000000000006001600160a01b03165af190811561075d57849161072e575b50156106f65761060382600d546112c5565b600d8190556009544281116106a9575050600d54670de0b6b3a764000090818102918183041490151715610696576301e1338090046008555b42600b556301e13380420190814211610696576009829055600d84905560085490519283526020830152604082015233907fb167f072295e46cb15516c982366f3856186579436fecbc2241827aa89a6685290606090a280f35b634e487b7160e01b845260118552602484fd5b6106d0916106bb6106d792429061126f565b670de0b6b3a764000093849160085490611292565b04906112c5565b818102918183041490151715610696576301e13380900460085561063c565b5162461bcd60e51b81526020818501526013602482015272151c985b9cd9995c919c9bdb4819985a5b1959606a1b6044820152606490fd5b610750915060203d602011610756575b610748818361151a565b81019061153c565b856105f1565b503d61073e565b82513d86823e3d90fd5b833461049957806003193601126104995761078461026233611724565b600160ff196007541617600755337f62e78cea01bee320cd4e420270b5ea74000d11b0c9f74754ebdbfc544b05a2588280a280f35b5050346101fa57816003193601126101fa57517f00000000000000000000000000000000000000000000000000000000000000006001600160a01b03168152602090f35b5050346101fa57816003193601126101fa57602090600c549051908152f35b5050346101fa57816003193601126101fa576020906102df6116cc565b5050346101fa57816003193601126101fa576020906008549051908152f35b5050346101fa57816003193601126101fa576020906006549051908152f35b8334610499576020366003190112610499576108a56108946111c9565b6108a061026233611724565b611592565b80f35b5050346101fa57816003193601126101fa57602090516e22d473030f116ddee9f6b43ac78ba38152f35b5050346101fa57816003193601126101fa5760209060ff6007541690519015158152f35b5050346101fa57816003193601126101fa57602090516301e133808152f35b90503461029a57606036600319011261029a576109306111c9565b6001600160a01b036044358181169460243593909290868303610a2e5761095961026233611724565b8615610a0157835163a9059cbb60e01b81526001600160a01b03909316958301958652602086810186905291169482908190604001038189885af19081156109f757916109d27ff24ef89f38eadc1bde50701ad6e4d6d11a2dc24f7cf834a486991f3883328504949260209489916109da575b50611554565b51908152a380f35b6109f19150853d871161075657610748818361151a565b386109cc565b82513d88823e3d90fd5b835162461bcd60e51b815260208188015260076024820152665a65726f20746f60c81b6044820152606490fd5b600080fd5b5050346101fa57816003193601126101fa576020906102df611484565b8334610499578060031936011261049957610a6d61026233611724565b60ff1960075416600755337f5db9ee0a495bf2e6ff9c91a7834c1ba4fdd244a5e8aa4e537bd38aeae4b073aa8280a280f35b90503461029a578260031936011261029a5760209250549051908152f35b9190503461029a578260031936011261029a57610adf60ff6007541615611415565b610ae76116de565b600a55610af26116cc565b600b5533610b89575b338352600e6020528083206002810154928315610b59575090610b49610b427f987d620f307ff6b94d58743cb7a7509f24071586a77759b77c2d4e29f75a2f9a93856117b1565b809461126f565b815193845260208401523392a280f35b606490602084519162461bcd60e51b8352820152600a6024820152694e6f207265776172647360b01b6044820152fd5b610b92336112d2565b338452600e6020528184209060028201556001600a54910155610afb565b9190503461029a57602036600319011261029a57816102947f12c476dbe611207aa496773afc1cfedb660981ebe024c62f643a0aaec9bb7569933591610bf861026233611724565b610c066103e8841115611234565b8260065554916005549351938493846040919493926060820195825260208201520152565b839150346101fa57816003193601126101fa57610c4d60ff6007541615611415565b610c556116de565b600a55610c606116cc565b600b5533610d64575b338252600e602052828220908154908115610d30575083610b49837f7fc4727e062e336010f2c282598ef5f14facb3de68cf8195c2f23e1454b2b74e936002600396015480610ce7575b5086610cc160055483611759565b9683828995550155610cd581600c5461126f565b600c55610ce282336117d4565b61126f565b610cfb610cf484836117b1565b809261126f565b855191825260208201527f987d620f307ff6b94d58743cb7a7509f24071586a77759b77c2d4e29f75a2f9a853392a287610cb3565b606490602086519162461bcd60e51b8352820152600e60248201526d139bdd1a1a5b99c81cdd185ad95960921b6044820152fd5b610d6d336112d2565b338352600e6020528383209060028201556001600a54910155610c69565b5050346101fa57816003193601126101fa57602090516127108152f35b9190503461029a57366003190160a081126110895760801361029a5767ffffffffffffffff916084358381116110855736602382011215611085578082013593808511611010576024903682878501011161108157610e0c60ff6007541615611415565b610e146116de565b600a55610e1f6116cc565b600b553361105a575b813595610e3687151561144a565b6001600160a01b039385358581169081900361105657857f000000000000000000000000000000000000000000000000000000000000000016036110265786519187830183811085821117611014578852308352602083018981528a93926e22d473030f116ddee9f6b43ac78ba39290833b15611010578986928d948d519b8c988997889563187945bd60e11b875283610ece6111c9565b16908701528d86015260443560448601526064356064860152511660848401525160a48301523360c483015261010060e483015280610104830152808a6101249401848401378181018301849052601f01601f191681010301925af1801561100657610fbe575b50505090610b4982610f697f1449c6dd7851abc30abf37f57715f492010519147cc2652fbc38202c18a6ee90945486611759565b948591338852600e602052848820610f828482546112c5565b9055338852600e6020528488209060038201805415610fb5575b5042910155610fad82600c546112c5565b600c5561126f565b42905538610f9c565b8296939611610ff55750825292610b497f1449c6dd7851abc30abf37f57715f492010519147cc2652fbc38202c18a6ee9038610f35565b634e487b7160e01b83526041865282fd5b85513d89823e3d90fd5b8580fd5b634e487b7160e01b8b5260418852858bfd5b865162461bcd60e51b8152602081880152600b818601526a2bb937b733903a37b5b2b760a91b6044820152606490fd5b8980fd5b611063336112d2565b338852600e6020528588209060028201556001600a54910155610e28565b8680fd5b8480fd5b8380fd5b8334610499576020366003190112610499576108a56110aa6111c9565b6110b661026233611724565b611323565b5050346101fa57816003193601126101fa576020906003549051908152f35b5050346101fa57816003193601126101fa576020905160038152f35b90503461029a57602036600319011261029a5735600381101561029a575490516001600160a01b03909116815260209150f35b5050346101fa5760203660031901126101fa576020906102df61114a6111c9565b6112d2565b90503461029a57602036600319011261029a577f12c476dbe611207aa496773afc1cfedb660981ebe024c62f643a0aaec9bb75699161029482359261119661026233611724565b6111a46103e8851115611234565b8360055554916006549051938493846040919493926060820195825260208201520152565b600435906001600160a01b0382168203610a2e57565b34610a2e576000366003190112610a2e5760206040516103e88152f35b1561120357565b60405162461bcd60e51b81526020600482015260096024820152682737ba1037bbb732b960b91b6044820152606490fd5b1561123b57565b60405162461bcd60e51b815260206004820152600c60248201526b08ccaca40e8dede40d0d2ced60a31b6044820152606490fd5b9190820391821161127c57565b634e487b7160e01b600052601160045260246000fd5b8181029291811591840414171561127c57565b81156112af570490565b634e487b7160e01b600052601260045260246000fd5b9190820180921161127c57565b60018060a01b0316600052600e60205261132060406000206002670de0b6b3a764000061131683546113106113056116de565b60018701549061126f565b90611292565b04910154906112c5565b90565b600191600391600160035411156113d85760005b83811061136f5760405162461bcd60e51b8152602060048201526009602482015268139bdd08199bdd5b9960ba1b6044820152606490fd5b80546001600160a01b0383811691908116821461138f5750508401611337565b6001600160a01b031916909155835492945092919050801561127c576000190190557f58619076adf5bb0943d100ef88d52d7c3fd691b19d3a9071b555b651fbf418da600080a2565b60405162461bcd60e51b81526020600482015260156024820152742732b2b21030ba103632b0b9ba10189037bbb732b960591b6044820152606490fd5b1561141c57565b60405162461bcd60e51b815260206004820152600660248201526514185d5cd95960d21b6044820152606490fd5b1561145157565b60405162461bcd60e51b815260206004820152600b60248201526a16995c9bc8185b5bdd5b9d60aa1b6044820152606490fd5b600c54801580156114de575b6114d857600854906301e133809182810292818404148115171561127c5764496cebb8000291808304612710149015171561127c57670de0b6b3a764000061132092046112a5565b50600090565b5060085415611490565b6060810190811067ffffffffffffffff82111761150457604052565b634e487b7160e01b600052604160045260246000fd5b90601f8019910116810190811067ffffffffffffffff82111761150457604052565b90816020910312610a2e57518015158103610a2e5790565b1561155b57565b60405162461bcd60e51b815260206004820152600f60248201526e151c985b9cd9995c8819985a5b1959608a1b6044820152606490fd5b6001600160a01b0390808216908115611698576115ae90611724565b61166357600380805410156116295760005b8181106115cd5750505050565b8054848116156115e057506001016115c0565b6001600160a01b03191683179055805491925090600019811461127c5760010190557f994a936646fe87ffe4f1e469d3d6aa417d6b855598397f323de5b449f765f0c3600080a2565b60405162461bcd60e51b815260206004820152601260248201527113585e081bdddb995c9cc81c995858da195960721b6044820152606490fd5b60405162461bcd60e51b815260206004820152600d60248201526c20b63932b0b23c9037bbb732b960991b6044820152606490fd5b60405162461bcd60e51b815260206004820152600c60248201526b5a65726f206164647265737360a01b6044820152606490fd5b60095480421060001461132057504290565b600c54801561171d5761132090611717600a54916117126117096117006116cc565b600b549061126f565b60085490611292565b6112a5565b906112c5565b50600a5490565b60005b60038110611736575050600090565b80546001600160a01b0383811691161461175257600101611727565b5050600190565b9080156117ad57906117719161271092839183611292565b04906103e880830290838204148315171561127c5761132093610ce291046117a561179c828661126f565b91600d546112c5565b600d5561186d565b5090565b6117c79160006002820155600442910155611909565b906117d282336117d4565b565b60405163a9059cbb60e01b81526001600160a01b03909116600482015260248101919091526020818060448101038160007f00000000000000000000000000000000000000000000000000000000000000006001600160a01b03165af18015611861576117d2916000916118485750611554565b6109f1915060203d60201161075657610748818361151a565b6040513d6000823e3d90fd5b90811580156118ff575b6118fb57600060039261188c600354826112a5565b9360005b8181106118bd5750506118a492935061126f565b806118ac5750565b6118b890600d546112c5565b600d55565b805486906001600160a01b0316806118da575b5050600101611890565b90600192956118ec826118f1946117d4565b6112c5565b93905085386118d0565b9050565b5060035415611877565b60065480156117ad5790611771916127109283918361129256fea26469706673582212202e2aea9833a64a9ff4804ec6435d06983cfd34b47091c42b7875cf5ba5a07c3e64736f6c63430008180033",
  "linkReferences": {},
  "deployedLinkReferences": {}
}