{
  "_format": "hh-sol-artifact-1",
  "contractName": "H2OFeeCollector",
  "sourceName": "contracts/H2OFeeCollector.sol",
  "abi": [
    {
      "inputs": [
        {
          "internalType": "address",
          "name": "_h2o",
          "type": "address"
        },
        {
          "internalType": "address",
          "name": "_owner",
          "type": "address"
        }
      ],
      "stateMutability": "nonpayable",
      "type": "constructor"
    },
    {
      "anonymous": false,
      "inputs": [
        {
          "indexed": false,
          "internalType": "uint256",
          "name": "oldFee",
          "type": "uint256"
        },
        {
          "indexed": false,
          "internalType": "uint256",
          "name": "newFee",
          "type": "uint256"
        }
      ],
      "name": "FeeChanged",
      "type": "event"
    },
    {
      "anonymous": false,
      "inputs": [
        {
          "indexed": true,
          "internalType": "address",
          "name": "user",
          "type": "address"
        },
        {
          "indexed": false,
          "internalType": "uint256",
          "name": "amount",
          "type": "uint256"
        }
      ],
      "name": "FeePaid",
      "type": "event"
    },
    {
      "anonymous": false,
      "inputs": [
        {
          "indexed": true,
          "internalType": "address",
          "name": "oldOwner",
          "type": "address"
        },
        {
          "indexed": true,
          "internalType": "address",
          "name": "newOwner",
          "type": "address"
        }
      ],
      "name": "OwnerChanged",
      "type": "event"
    },
    {
      "anonymous": false,
      "inputs": [
        {
          "indexed": true,
          "internalType": "address",
          "name": "to",
          "type": "address"
        },
        {
          "indexed": false,
          "internalType": "uint256",
          "name": "amount",
          "type": "uint256"
        }
      ],
      "name": "Withdrawn",
      "type": "event"
    },
    {
      "inputs": [],
      "name": "H2O",
      "outputs": [
        {
          "internalType": "address",
          "name": "",
          "type": "address"
        }
      ],
      "stateMutability": "view",
      "type": "function"
    },
    {
      "inputs": [],
      "name": "PERMIT2",
      "outputs": [
        {
          "internalType": "address",
          "name": "",
          "type": "address"
        }
      ],
      "stateMutability": "view",
      "type": "function"
    },
    {
      "inputs": [],
      "name": "balance",
      "outputs": [
        {
          "internalType": "uint256",
          "name": "",
          "type": "uint256"
        }
      ],
      "stateMutability": "view",
      "type": "function"
    },
    {
      "inputs": [],
      "name": "collected",
      "outputs": [
        {
          "internalType": "uint256",
          "name": "",
          "type": "uint256"
        }
      ],
      "stateMutability": "view",
      "type": "function"
    },
    {
      "inputs": [],
      "name": "fee",
      "outputs": [
        {
          "internalType": "uint256",
          "name": "",
          "type": "uint256"
        }
      ],
      "stateMutability": "view",
      "type": "function"
    },
    {
      "inputs": [],
      "name": "owner",
      "outputs": [
        {
          "internalType": "address",
          "name": "",
          "type": "address"
        }
      ],
      "stateMutability": "view",
      "type": "function"
    },
    {
      "inputs": [
        {
          "components": [
            {
              "components": [
                {
                  "internalType": "address",
                  "name": "token",
                  "type": "address"
                },
                {
                  "internalType": "uint256",
                  "name": "amount",
                  "type": "uint256"
                }
              ],
              "internalType": "struct IPermit2.TokenPermissions",
              "name": "permitted",
              "type": "tuple"
            },
            {
              "internalType": "uint256",
              "name": "nonce",
              "type": "uint256"
            },
            {
              "internalType": "uint256",
              "name": "deadline",
              "type": "uint256"
            }
          ],
          "internalType": "struct IPermit2.PermitTransferFrom",
          "name": "permit",
          "type": "tuple"
        },
        {
          "internalType": "bytes",
          "name": "signature",
          "type": "bytes"
        }
      ],
      "name": "payFee",
      "outputs": [],
      "stateMutability": "nonpayable",
      "type": "function"
    },
    {
      "inputs": [
        {
          "internalType": "uint256",
          "name": "_fee",
          "type": "uint256"
        }
      ],
      "name": "setFee",
      "outputs": [],
      "stateMutability": "nonpayable",
      "type": "function"
    },
    {
      "inputs": [
        {
          "internalType": "address",
          "name": "_owner",
          "type": "address"
        }
      ],
      "name": "setOwner",
      "outputs": [],
      "stateMutability": "nonpayable",
      "type": "function"
    },
    {
      "inputs": [
        {
          "internalType": "uint256",
          "name": "amount",
          "type": "uint256"
        },
        {
          "internalType": "address",
          "name": "to",
          "type": "address"
        }
      ],
      "name": "withdraw",
      "outputs": [],
      "stateMutability": "nonpayable",
      "type": "function"
    },
    {
      "inputs": [
        {
          "internalType": "address",
          "name": "to",
          "type": "address"
        }
      ],
      "name": "withdrawAll",
      "outputs": [],
      "stateMutability": "nonpayable",
      "type": "function"
    }
  ],
  "bytecode": "0x60a0346100fd57601f6109ff38819003918201601f19168301916001600160401b038311848410176101025780849260409485528339810103126100fd57610052602061004b83610118565b9201610118565b6001600160a01b03918083161515806100f2575b156100be576080521660018060a01b03196000541617600055670de0b6b3a76400006001556040516108d2908161012d823960805181818160ae01528181610126015281816102ae015281816104e5015261075d0152f35b60405162461bcd60e51b815260206004820152600c60248201526b7a65726f206164647265737360a01b6044820152606490fd5b508282161515610066565b600080fd5b634e487b7160e01b600052604160045260246000fd5b51906001600160a01b03821682036100fd5756fe6040608081526004908136101561001557600080fd5b600091823560e01c908162f714ce146106d35781630299e0cb1461047857816313af40351461040057816369fe0e2d146103a05781636afdd8501461037657816384bcefd4146103575781638da5cb5b1461032f578163b69ef8a814610280578163ddca3f4314610261578163fa09e630146100e1575063feaa524d1461009b57600080fd5b346100dd57816003193601126100dd57517f00000000000000000000000000000000000000000000000000000000000000006001600160a01b03168152602090f35b5080fd5b9190503461025d57602080600319360112610259576100fe6107c3565b9260018060a01b03926101158487541633146107d9565b83851693610124851515610811565b7f00000000000000000000000000000000000000000000000000000000000000001694868251936370a0823160e01b8552308186015285856024818b5afa94851561024f578295610215575b50835163a9059cbb60e01b81526001600160a01b03909316908301908152602081018590529196859288928391829060400103925af194851561020b577f7084f5476618d8e60b11ef0d7d3f06914655adb8793e28ff7f018d4c76d505d594956101de575b5051908152a280f35b6101fd90843d8611610204575b6101f5818361084c565b810190610884565b50386101d5565b503d6101eb565b81513d88823e3d90fd5b92945090508482813d8111610248575b61022f818361084c565b810103126102435790519290879085610170565b600080fd5b503d610225565b84513d84823e3d90fd5b8380fd5b8280fd5b5050346100dd57816003193601126100dd576020906001549051908152f35b8383346100dd57816003193601126100dd5780516370a0823160e01b815230938101939093526020836024817f00000000000000000000000000000000000000000000000000000000000000006001600160a01b03165afa91821561032457916102ef575b6020925051908152f35b90506020823d60201161031c575b8161030a6020938361084c565b810103126102435760209151906102e5565b3d91506102fd565b9051903d90823e3d90fd5b5050346100dd57816003193601126100dd57905490516001600160a01b039091168152602090f35b5050346100dd57816003193601126100dd576020906002549051908152f35b5050346100dd57816003193601126100dd57602090516e22d473030f116ddee9f6b43ac78ba38152f35b90503461025d57602036600319011261025d577f5fc463da23c1b063e66f9e352006a7fbe8db7223c455dc429e881a2dfe2f94f19035916103eb60018060a01b0385541633146107d9565b6001548151908152836020820152a160015580f35b83346104755760203660031901126104755761041a6107c3565b81546001600160a01b03808216926104333385146107d9565b168092610441821515610811565b7fb532073b38c83145e3e5135377a08bf9aab55bc0fd7c1179cd4fb995d2a5159c8580a36001600160a01b03191617815580f35b80fd5b9190503461025d57366003190160a081126102595760801361025d5760843567ffffffffffffffff8082116106cf57366023830112156106cf5781840135938185116106cb5760249136838786010111610645576001600160a01b03958235878116908190036106c757877f00000000000000000000000000000000000000000000000000000000000000001603610693576001549684359188831061065b5787519688880188811086821117610649578952308852602088018a81528b94936e22d473030f116ddee9f6b43ac78ba3939290843b1561064557899387938a928e519d8e998a98899663187945bd60e11b8852846105746107c3565b169088015286015260443560448601526064356064860152511660848401525160a48301523360c483015261010060e483015280610104830152808b6101249401848401378181018301849052601f01601f191681010301925af1801561063b57610613575b505050508160025401600255519081527f075a2720282fdf622141dae0b048ef90a21a7e57c134c76912d19d006b3b3f6f60203392a280f35b839694961161062a575050835291388080806105da565b634e487b7160e01b84526041905282fd5b85513d89823e3d90fd5b8680fd5b634e487b7160e01b8c5260418752878cfd5b875162461bcd60e51b8152602081870152601381880152727065726d697420616d6f756e74203c2066656560681b6044820152606490fd5b855162461bcd60e51b8152602081850152600f818601526e666565206d7573742062652048324f60881b6044820152606490fd5b8880fd5b8580fd5b8480fd5b9190503461025d578060031936011261025d576001600160a01b03602435818116938035939286919086840361025d576107599383879361071a84602097541633146107d9565b6107258a1515610811565b875163a9059cbb60e01b81526001600160a01b03909316908301908152602081019490945290948593849291839160400190565b03927f0000000000000000000000000000000000000000000000000000000000000000165af180156107b957917f7084f5476618d8e60b11ef0d7d3f06914655adb8793e28ff7f018d4c76d505d593916020936101de575051908152a280f35b82513d87823e3d90fd5b600435906001600160a01b038216820361024357565b156107e057565b60405162461bcd60e51b81526020600482015260096024820152683737ba1037bbb732b960b91b6044820152606490fd5b1561081857565b60405162461bcd60e51b815260206004820152600c60248201526b7a65726f206164647265737360a01b6044820152606490fd5b90601f8019910116810190811067ffffffffffffffff82111761086e57604052565b634e487b7160e01b600052604160045260246000fd5b9081602091031261024357518015158103610243579056fea26469706673582212209a426247bce1872cb34f84ce219e7f6f89dca04d64af8a0276e9f21e13595e6964736f6c63430008180033",
  "linkReferences": {},
  "deployedLinkReferences": {}
}