{
  "_format": "hh-sol-artifact-1",
  "contractName": "MiningWLD",
  "sourceName": "contracts/MiningWLD.sol",
  "abi": [
    {
      "inputs": [
        {
          "internalType": "address",
          "name": "wldToken",
          "type": "address"
        },
        {
          "internalType": "address",
          "name": "h2oToken",
          "type": "address"
        },
        {
          "internalType": "address",
          "name": "fireToken",
          "type": "address"
        },
        {
          "internalType": "address",
          "name": "btch2oToken",
          "type": "address"
        },
        {
          "internalType": "address",
          "name": "warsToken",
          "type": "address"
        },
        {
          "internalType": "address",
          "name": "wcopToken",
          "type": "address"
        },
        {
          "internalType": "address",
          "name": "uth2Token",
          "type": "address"
        },
        {
          "internalType": "address",
          "name": "owner1",
          "type": "address"
        },
        {
          "internalType": "address",
          "name": "owner2",
          "type": "address"
        }
      ],
      "stateMutability": "nonpayable",
      "type": "constructor"
    },
    {
      "anonymous": false,
      "inputs": [
        {
          "indexed": true,
          "internalType": "address",
          "name": "token",
          "type": "address"
        },
        {
          "indexed": true,
          "internalType": "address",
          "name": "to",
          "type": "address"
        },
        {
          "indexed": false,
          "internalType": "uint256",
          "name": "amount",
          "type": "uint256"
        }
      ],
      "name": "EmergencyWithdraw",
      "type": "event"
    },
    {
      "anonymous": false,
      "inputs": [
        {
          "indexed": true,
          "internalType": "uint256",
          "name": "index",
          "type": "uint256"
        },
        {
          "indexed": true,
          "internalType": "address",
          "name": "newOwner",
          "type": "address"
        }
      ],
      "name": "OwnerChanged",
      "type": "event"
    },
    {
      "anonymous": false,
      "inputs": [
        {
          "indexed": true,
          "internalType": "uint256",
          "name": "packageId",
          "type": "uint256"
        },
        {
          "indexed": false,
          "internalType": "uint256",
          "name": "price",
          "type": "uint256"
        },
        {
          "indexed": false,
          "internalType": "uint256",
          "name": "dailyYield",
          "type": "uint256"
        }
      ],
      "name": "PackageConfigured",
      "type": "event"
    },
    {
      "anonymous": false,
      "inputs": [
        {
          "indexed": true,
          "internalType": "address",
          "name": "user",
          "type": "address"
        },
        {
          "indexed": true,
          "internalType": "uint256",
          "name": "packageId",
          "type": "uint256"
        },
        {
          "indexed": false,
          "internalType": "uint256",
          "name": "units",
          "type": "uint256"
        },
        {
          "indexed": false,
          "internalType": "uint256",
          "name": "totalPaid",
          "type": "uint256"
        }
      ],
      "name": "PackagePurchased",
      "type": "event"
    },
    {
      "anonymous": false,
      "inputs": [
        {
          "indexed": true,
          "internalType": "address",
          "name": "by",
          "type": "address"
        }
      ],
      "name": "Paused",
      "type": "event"
    },
    {
      "anonymous": false,
      "inputs": [
        {
          "indexed": true,
          "internalType": "address",
          "name": "user",
          "type": "address"
        },
        {
          "indexed": true,
          "internalType": "uint256",
          "name": "packageId",
          "type": "uint256"
        },
        {
          "indexed": false,
          "internalType": "uint256",
          "name": "amount",
          "type": "uint256"
        },
        {
          "indexed": false,
          "internalType": "address",
          "name": "rewardToken",
          "type": "address"
        }
      ],
      "name": "RewardsClaimed",
      "type": "event"
    },
    {
      "anonymous": false,
      "inputs": [
        {
          "indexed": true,
          "internalType": "address",
          "name": "by",
          "type": "address"
        }
      ],
      "name": "Unpaused",
      "type": "event"
    },
    {
      "inputs": [],
      "name": "MAX_PACKAGES",
      "outputs": [
        {
          "internalType": "uint256",
          "name": "",
          "type": "uint256"
        }
      ],
      "stateMutability": "view",
      "type": "function"
    },
    {
      "inputs": [],
      "name": "PERMIT2",
      "outputs": [
        {
          "internalType": "address",
          "name": "",
          "type": "address"
        }
      ],
      "stateMutability": "view",
      "type": "function"
    },
    {
      "inputs": [],
      "name": "SECONDS_PER_DAY",
      "outputs": [
        {
          "internalType": "uint256",
          "name": "",
          "type": "uint256"
        }
      ],
      "stateMutability": "view",
      "type": "function"
    },
    {
      "inputs": [],
      "name": "WLD_TOKEN",
      "outputs": [
        {
          "internalType": "address",
          "name": "",
          "type": "address"
        }
      ],
      "stateMutability": "view",
      "type": "function"
    },
    {
      "inputs": [
        {
          "internalType": "uint256",
          "name": "packageId",
          "type": "uint256"
        },
        {
          "internalType": "uint256",
          "name": "units",
          "type": "uint256"
        },
        {
          "components": [
            {
              "components": [
                {
                  "internalType": "address",
                  "name": "token",
                  "type": "address"
                },
                {
                  "internalType": "uint256",
                  "name": "amount",
                  "type": "uint256"
                }
              ],
              "internalType": "struct IPermit2.TokenPermissions",
              "name": "permitted",
              "type": "tuple"
            },
            {
              "internalType": "uint256",
              "name": "nonce",
              "type": "uint256"
            },
            {
              "internalType": "uint256",
              "name": "deadline",
              "type": "uint256"
            }
          ],
          "internalType": "struct IPermit2.PermitTransferFrom",
          "name": "permit",
          "type": "tuple"
        },
        {
          "internalType": "bytes",
          "name": "signature",
          "type": "bytes"
        }
      ],
      "name": "buyPackage",
      "outputs": [],
      "stateMutability": "nonpayable",
      "type": "function"
    },
    {
      "inputs": [],
      "name": "claimAllRewards",
      "outputs": [],
      "stateMutability": "nonpayable",
      "type": "function"
    },
    {
      "inputs": [
        {
          "internalType": "uint256",
          "name": "packageId",
          "type": "uint256"
        }
      ],
      "name": "claimPackageRewards",
      "outputs": [],
      "stateMutability": "nonpayable",
      "type": "function"
    },
    {
      "inputs": [
        {
          "internalType": "address",
          "name": "token",
          "type": "address"
        },
        {
          "internalType": "uint256",
          "name": "amount",
          "type": "uint256"
        },
        {
          "internalType": "address",
          "name": "to",
          "type": "address"
        }
      ],
      "name": "emergencyWithdraw",
      "outputs": [],
      "stateMutability": "nonpayable",
      "type": "function"
    },
    {
      "inputs": [],
      "name": "getAllPackages",
      "outputs": [
        {
          "components": [
            {
              "internalType": "uint256",
              "name": "priceWLD",
              "type": "uint256"
            },
            {
              "internalType": "uint256",
              "name": "dailyRewardYield",
              "type": "uint256"
            },
            {
              "internalType": "bool",
              "name": "active",
              "type": "bool"
            }
          ],
          "internalType": "struct MiningWLD.Package[7]",
          "name": "",
          "type": "tuple[7]"
        }
      ],
      "stateMutability": "view",
      "type": "function"
    },
    {
      "inputs": [],
      "name": "getRewardTokens",
      "outputs": [
        {
          "internalType": "address[7]",
          "name": "",
          "type": "address[7]"
        }
      ],
      "stateMutability": "view",
      "type": "function"
    },
    {
      "inputs": [
        {
          "internalType": "address",
          "name": "user",
          "type": "address"
        }
      ],
      "name": "getUserPackages",
      "outputs": [
        {
          "components": [
            {
              "internalType": "uint256",
              "name": "units",
              "type": "uint256"
            },
            {
              "internalType": "uint256",
              "name": "lastClaimTime",
              "type": "uint256"
            },
            {
              "internalType": "uint256",
              "name": "pendingRewards",
              "type": "uint256"
            }
          ],
          "internalType": "struct MiningWLD.UserPackage[7]",
          "name": "",
          "type": "tuple[7]"
        }
      ],
      "stateMutability": "view",
      "type": "function"
    },
    {
      "inputs": [
        {
          "internalType": "uint256",
          "name": "",
          "type": "uint256"
        }
      ],
      "name": "owners",
      "outputs": [
        {
          "internalType": "address",
          "name": "",
          "type": "address"
        }
      ],
      "stateMutability": "view",
      "type": "function"
    },
    {
      "inputs": [
        {
          "internalType": "uint256",
          "name": "",
          "type": "uint256"
        }
      ],
      "name": "packages",
      "outputs": [
        {
          "internalType": "uint256",
          "name": "priceWLD",
          "type": "uint256"
        },
        {
          "internalType": "uint256",
          "name": "dailyRewardYield",
          "type": "uint256"
        },
        {
          "internalType": "bool",
          "name": "active",
          "type": "bool"
        }
      ],
      "stateMutability": "view",
      "type": "function"
    },
    {
      "inputs": [],
      "name": "pause",
      "outputs": [],
      "stateMutability": "nonpayable",
      "type": "function"
    },
    {
      "inputs": [],
      "name": "paused",
      "outputs": [
        {
          "internalType": "bool",
          "name": "",
          "type": "bool"
        }
      ],
      "stateMutability": "view",
      "type": "function"
    },
    {
      "inputs": [
        {
          "internalType": "address",
          "name": "user",
          "type": "address"
        }
      ],
      "name": "pendingPerPackage",
      "outputs": [
        {
          "internalType": "uint256[7]",
          "name": "result",
          "type": "uint256[7]"
        }
      ],
      "stateMutability": "view",
      "type": "function"
    },
    {
      "inputs": [
        {
          "internalType": "uint256",
          "name": "",
          "type": "uint256"
        }
      ],
      "name": "rewardTokens",
      "outputs": [
        {
          "internalType": "address",
          "name": "",
          "type": "address"
        }
      ],
      "stateMutability": "view",
      "type": "function"
    },
    {
      "inputs": [
        {
          "internalType": "uint256",
          "name": "index",
          "type": "uint256"
        },
        {
          "internalType": "address",
          "name": "addr",
          "type": "address"
        }
      ],
      "name": "setOwner",
      "outputs": [],
      "stateMutability": "nonpayable",
      "type": "function"
    },
    {
      "inputs": [
        {
          "internalType": "uint256",
          "name": "id",
          "type": "uint256"
        },
        {
          "internalType": "uint256",
          "name": "priceWLD",
          "type": "uint256"
        },
        {
          "internalType": "uint256",
          "name": "dailyYield",
          "type": "uint256"
        },
        {
          "internalType": "bool",
          "name": "active",
          "type": "bool"
        }
      ],
      "name": "setPackage",
      "outputs": [],
      "stateMutability": "nonpayable",
      "type": "function"
    },
    {
      "inputs": [],
      "name": "unpause",
      "outputs": [],
      "stateMutability": "nonpayable",
      "type": "function"
    },
    {
      "inputs": [
        {
          "internalType": "address",
          "name": "user",
          "type": "address"
        }
      ],
      "name": "userDailyYield",
      "outputs": [
        {
          "internalType": "uint256[7]",
          "name": "daily",
          "type": "uint256[7]"
        }
      ],
      "stateMutability": "view",
      "type": "function"
    },
    {
      "inputs": [
        {
          "internalType": "address",
          "name": "",
          "type": "address"
        },
        {
          "internalType": "uint256",
          "name": "",
          "type": "uint256"
        }
      ],
      "name": "userPackages",
      "outputs": [
        {
          "internalType": "uint256",
          "name": "units",
          "type": "uint256"
        },
        {
          "internalType": "uint256",
          "name": "lastClaimTime",
          "type": "uint256"
        },
        {
          "internalType": "uint256",
          "name": "pendingRewards",
          "type": "uint256"
        }
      ],
      "stateMutability": "view",
      "type": "function"
    }
  ],
  "bytecode": "0x60a034620003bc57601f620019d038819003918201601f191683019291906001600160401b03841183851017620003c157816101209284926040968752833981010312620003bc576200005281620003f7565b906200006160208201620003f7565b916200006f848301620003f7565b906200007e60608401620003f7565b906200008d60808501620003f7565b906200009c60a08601620003f7565b92620000ab60c08701620003f7565b94620000c9610100620000c160e08a01620003f7565b9801620003f7565b976001600160a01b038416156200038d576001600160a01b038816156200035c576080849052600080546001600160a01b03199081166001600160a01b0393841617909155600180548216938316939093179092556002805483169382169390931790925560038054821693831693909317909255600480548316938216939093179092556005805482169383169390931790925560068054831693821693909317909255600780549091168383161790558216156200035457505b600880546001600160a01b0319166001600160a01b03929092169190911790556001620001b1620003d7565b674563918244f400008082528284678ac7230489e800009384602082015201528060095581600a5560ff19918383600b541617600b55620001f1620003d7565b908082528486676f05b59d3b200000938460208201520152600c55600d558282600e541617600e5562000223620003d7565b838567d02ab486cedc0000928381528460208201520152600f556010558181601154161760115562000254620003d7565b6801158e460913d0000080825283856753444835ec580000938460208201520152601255601355818160145416176014556200028f620003d7565b6801a055690d9db80000808252838568056bc75e2d6310000093846020820152015260155560165581816017541617601755620002cb620003d7565b68015af1d78b58c4000080825283856804563918244f4000009384602082015201526018556019558181601a541617601a5562000307620003d7565b6802b5e3af16b1880000808252838567a688906bd8b00000938460208201520152601b55601c55601d541617601d55516115c390816200040d82396080518181816101df015261069c0152f35b905062000185565b895162461bcd60e51b815260206004820152600a6024820152692d32b9379037bbb732b960b11b6044820152606490fd5b895162461bcd60e51b815260206004820152600860248201526716995c9bc815d31160c21b6044820152606490fd5b600080fd5b634e487b7160e01b600052604160045260246000fd5b60405190606082016001600160401b03811183821017620003c157604052565b51906001600160a01b0382168203620003bc5756fe608060408181526004908136101561001657600080fd5b60009260e0908435821c908163025e7c27146112b1575080630a421f0f146111d45780630b83a727146110165780633f4ba83a14610fb2578063551512de14610e8e5780635c975abb14610e6a5780636afdd85014610e405780636de43ad814610beb57806374f0314f14610bcd57806376c0773814610b6d5780637bb7bed114610b395780637fd3924714610a33578063810e4538146109a45780638456cb591461092f5780638bb0097b146108ca5780639408e7b2146108ae578063c216212a14610861578063c4f59f9b146107ce578063c78da6e6146106cf578063cdb7354a14610687578063deef5378146105995763eaf4a3fa1461011857600080fd5b346105955736600319011261059157813590602480359190608036604319011261058d5760c4359067ffffffffffffffff95868311610589573660238401121561058957828101359187831161058557368184860101116105855761018260ff601f5416156113fc565b6007871061018f81611481565b86156105565715610545576003870260ff600b820154161561051057866101b991600901546114d0565b9384606435106104ce576001600160a01b03986044358a81169391908490036104ca578a7f00000000000000000000000000000000000000000000000000000000000000001680940361049a578751928884018481108382111761048857908d918a52308552602097888601958a87526e22d473030f116ddee9f6b43ac78ba391823b15610484578f938a86928f519a8b978896879463187945bd60e11b8652826102626112ff565b16908601526064358d860152608435604486015260a4356064860152511660848401525160a48301523360c483015261010060e483015280610104830152808a6101249401848401378181018301849052601f01601f191681010301925af1801561047a57610454575b5050508360011c9189896007541699875186818063a9059cbb60e01b9e8f8252898883019161030f9260209093929193604081019460018060a01b031681520152565b038186895af1801561044a57916103379188979695949361042d575b506008541694886114f9565b88519b8c526001600160a01b03909416918b01918252602082019390935289928391829060400103925af1958615610423577f129a0377f5862974e93e873169fd1e8cf0681916d5b8b04338cb4224af00f0249495966103f6575b50338752601e81526103a686848920611343565b506001810180541515806103ec575b6103d8575b4290556103c8868254611506565b905582519485528401523392a380f35b6103e28833611513565b60028301556103ba565b50815415156103b5565b61041590823d841161041c575b61040d81836113bb565b810190611431565b5038610392565b503d610403565b83513d89823e3d90fd5b61044390883d8a1161041c5761040d81836113bb565b503861032b565b89513d85823e3d90fd5b829b939b1161046957508552973880806102cc565b634e487b7160e01b83526041845282fd5b88513d8e823e3d90fd5b8480fd5b634e487b7160e01b8e5260418752838efd5b875162461bcd60e51b8152602081870152600b818401526a2bb937b733903a37b5b2b760a91b6044820152606490fd5b8b80fd5b855162461bcd60e51b8152602081850152601a818401527f496e73756666696369656e74207065726d697420616d6f756e740000000000006044820152606490fd5b855162461bcd60e51b81526020818501526010818401526f5061636b61676520696e61637469766560801b6044820152606490fd5b634e487b7160e01b89526032825288fd5b855162461bcd60e51b8152602081850152600a81840152695a65726f20756e69747360b01b6044820152606490fd5b8880fd5b8780fd5b8580fd5b8280fd5b8380fd5b848383346105915760209081600319360112610595576105b76112e4565b9083516105c38161136d565b83865b83811061067357505050506001600160a01b03168352601e81528183208251906105ef8261136d565b84825b60078210610639575050835194919050845b60078310610612576102a086f35b83606060019287855180518352848101518584015201518882015201920192019190610604565b600385600192889996995161064d8161139f565b86548152848701548382015260028701548a8201528152019301910190919592956105f2565b61067b6113dd565b818401520184906105c6565b8483346106cb57816003193601126106cb57517f00000000000000000000000000000000000000000000000000000000000000006001600160a01b03168152602090f35b5080fd5b838584346106cb5760803660031901126106cb578235906024356044356064359586151580970361058d5760075461071c90336001600160a01b03918216149081156107c0575b50611449565b60078510156107905750857f48641f4a0f178e182df2f9884537f7d8e8e9e71b933a9df65dea78f211120ce89495968480516107578161139f565b8581528460208201520152600b6003870284816009015583600a820155019060ff8019835416911617905582519182526020820152a280f35b606490602085519162461bcd60e51b8352820152600a602482015269125b9d985b1a59081a5960b21b6044820152fd5b905060085416331489610716565b5090833461085e578060031936011261085e57908281516107ee8161136d565b3690378051908280835b6007821061083e5750505061080c8261136d565b519190825b6007831061081e57505050f35b81516001600160a01b031681526001929092019160209182019101610811565b82546001600160a01b0316815260019283019291909101906020016107f8565b80fd5b50509034610591576020366003190112610591573591600783101561085e57506003606092029081600901549160ff600b600a830154920154169082519384526020840152151590820152f35b8483346106cb57816003193601126106cb576020905160078152f35b8483346106cb57806003193601126106cb576108e46112e4565b6001600160a01b03168252601e60205280822060243592600784101561085e575060609261091191611343565b50805491600260018301549201549181519384526020840152820152f35b843461085e578060031936011261085e5760075461096190336001600160a01b03918216149081156109965750611449565b600160ff19601f541617601f55337f62e78cea01bee320cd4e420270b5ea74000d11b0c9f74754ebdbfc544b05a2588280a280f35b905060085416331483610716565b50833461085e57602090602060031936011261085e576109c26112e4565b918451936109cf8561136d565b3685376001600160a01b0390921691815b600781106109f9578551806109f58782611315565b0390f35b600190848452601e8352610a22610a1282898720611343565b5054600a600384020154906114d0565b610a2c82886114bf565b52016109e0565b505090346105915781600319360112610591576001600160a01b036024358181169383359392909185900361058d5780610a7a91600754163314908115610b2b5750611449565b6002831015610af8578315610ac65750506007810180546001600160a01b031916831790557f9c65bdcdf3baa5d433981546cddddb0c820aa405c7bd651375df9f19f02698768380a380f35b906020606492519162461bcd60e51b8352820152600c60248201526b5a65726f206164647265737360a01b6044820152fd5b906020606492519162461bcd60e51b8352820152600d60248201526c092dcecc2d8d2c840d2dcc8caf609b1b6044820152fd5b905060085416331438610716565b5050903461059157602036600319011261059157356007811015610591575490516001600160a01b03909116815260209150f35b5091503461059157602036600319011261059157610b896112e4565b92815192610b968461136d565b3684375b60078110610baf578151806109f58582611315565b80610bbc60019286611513565b610bc682866114bf565b5201610b9a565b8483346106cb57816003193601126106cb5760209051620151808152f35b50509034610591576020908160031936011261059557803592610c1360ff601f5416156113fc565b6007841092610c2184611481565b338652601e8152610c3485838820611343565b5093845415801590610e33575b15610dff57610c508633611513565b948515610dcf5787600282015560014291015515610dbc57845482516370a0823160e01b815230858201526001600160a01b0390911693908281602481885afa908115610db2579086918991610d81575b5010610d4957825163a9059cbb60e01b815233918101918252602082018690529082908290819060400103818a885af180156104235791610d2593917f579ad409a683bafbf650743b9466037910944feb4a9aacccdbcfcdab27ab58619593610d2b575b5050519384526001600160a01b0316602084015233929081906040820190565b0390a380f35b81610d4192903d1061041c5761040d81836113bb565b503880610d05565b915162461bcd60e51b8152918201526014602482015273496e73756666696369656e74207265736572766560601b6044820152606490fd5b809250848092503d8311610dab575b610d9a81836113bb565b810103126105895785905138610ca1565b503d610d90565b84513d8a823e3d90fd5b634e487b7160e01b865260328352602486fd5b835162461bcd60e51b8152808601849052600a6024820152694e6f207265776172647360b01b6044820152606490fd5b50905162461bcd60e51b815291820152600f60248201526e27379036b4b734b733903837bbb2b960891b6044820152606490fd5b5060028501541515610c41565b8483346106cb57816003193601126106cb57602090516e22d473030f116ddee9f6b43ac78ba38152f35b8483346106cb57816003193601126106cb5760209060ff601f541690519015158152f35b5050903461059157606036600319011261059157610eaa6112e4565b9160243590610eb76112ff565b6007546001600160a01b0390811633148015610fa5575b610ed790611449565b808216958615610f7857835163a9059cbb60e01b81526001600160a01b03909316958301958652602086810186905291169482908190604001038189885af18015610f6e57917ff24ef89f38eadc1bde50701ad6e4d6d11a2dc24f7cf834a486991f38833285049391602093610f51575b5051908152a380f35b610f6790843d861161041c5761040d81836113bb565b5038610f48565b82513d88823e3d90fd5b835162461bcd60e51b815260208188015260076024820152665a65726f20746f60c81b6044820152606490fd5b5060085481163314610ece565b843461085e578060031936011261085e57600754610fe490336001600160a01b03918216149081156109965750611449565b60ff19601f5416601f55337f5db9ee0a495bf2e6ff9c91a7834c1ba4fdd244a5e8aa4e537bd38aeae4b073aa8280a280f35b5050903461059157826003193601126105915761103860ff601f5416156113fc565b825b60078110611046578380f35b338452602090601e825261105c81858720611343565b5091825415806111c8575b6111be576110758233611513565b9283156111b35786600282015560014291015560018060a01b038254169285516370a0823160e01b815230868201528281602481885afa80156111785782918991611182575b5010156110d0575b5050600191505b0161103a565b855163a9059cbb60e01b8152338682019081526020810183905283908290819060400103818b895af180156111785760019585947f579ad409a683bafbf650743b9466037910944feb4a9aacccdbcfcdab27ab5861936111509361115a575b505088519384526001600160a01b0316602084015233929081906040820190565b0390a338806110c3565b8161117092903d1061041c5761040d81836113bb565b50388061112f565b87513d8a823e3d90fd5b809250848092503d83116111ac575b61119b81836113bb565b8101031261058957819051386110bb565b503d611191565b5050600191506110ca565b50600191506110ca565b50600283015415611067565b8483833461059157826003193601126105915781516111f28161136d565b835b82811061129c57835185856112088361136d565b600982845b60078210611259575050815193929050835b6007821061122d576102a085f35b60019060608551918251815285602093848101518584015201511515868201520194019101909261121f565b600360019185979697519061126d8261139f565b8554825283860154916020928382015260ff60028801541615158882015281520193019101909194939461120d565b6020906112a76113dd565b81840152016111f4565b859085346105915760203660031901126105915735600281101561059157600701546001600160a01b0316815260209150f35b600435906001600160a01b03821682036112fa57565b600080fd5b604435906001600160a01b03821682036112fa57565b60e0810192916000915b6007831061132c57505050565b60019082518152602080910192019201919061131f565b906007811015611357576003020190600090565b634e487b7160e01b600052603260045260246000fd5b60e0810190811067ffffffffffffffff82111761138957604052565b634e487b7160e01b600052604160045260246000fd5b6060810190811067ffffffffffffffff82111761138957604052565b90601f8019910116810190811067ffffffffffffffff82111761138957604052565b604051906113ea8261139f565b60006040838281528260208201520152565b1561140357565b60405162461bcd60e51b815260206004820152600660248201526514185d5cd95960d21b6044820152606490fd5b908160209103126112fa575180151581036112fa5790565b1561145057565b60405162461bcd60e51b81526020600482015260096024820152682737ba1037bbb732b960b91b6044820152606490fd5b1561148857565b60405162461bcd60e51b815260206004820152600f60248201526e496e76616c6964207061636b61676560881b6044820152606490fd5b9060078110156113575760051b0190565b818102929181159184041417156114e357565b634e487b7160e01b600052601160045260246000fd5b919082039182116114e357565b919082018092116114e357565b60018060a01b0316600052601e602052611531816040600020611343565b508054918215611583576115496001830154426114f9565b9060078110156113575761157760029261157261158096600a60036201518096020154906114d0565b6114d0565b04910154611506565b90565b506002915001549056fea2646970667358221220cccfaeecc2dc1cf08c05c8c2224cea26ea902f310c6d3c9f9e493d397a0c9c6764736f6c63430008180033",
  "linkReferences": {},
  "deployedLinkReferences": {}
}