{
  "_format": "hh-sol-artifact-1",
  "contractName": "H2OUniversalStakingFinal",
  "sourceName": "contracts/acuav2.sol",
  "abi": [
    {
      "inputs": [
        {
          "internalType": "address",
          "name": "_h2o",
          "type": "address"
        },
        {
          "internalType": "address",
          "name": "_uth2",
          "type": "address"
        }
      ],
      "stateMutability": "nonpayable",
      "type": "constructor"
    },
    {
      "inputs": [],
      "name": "H2O",
      "outputs": [
        {
          "internalType": "address",
          "name": "",
          "type": "address"
        }
      ],
      "stateMutability": "view",
      "type": "function"
    },
    {
      "inputs": [],
      "name": "UTH2",
      "outputs": [
        {
          "internalType": "address",
          "name": "",
          "type": "address"
        }
      ],
      "stateMutability": "view",
      "type": "function"
    },
    {
      "inputs": [
        {
          "internalType": "uint256",
          "name": "months_",
          "type": "uint256"
        }
      ],
      "name": "buyVIP",
      "outputs": [],
      "stateMutability": "nonpayable",
      "type": "function"
    },
    {
      "inputs": [],
      "name": "claimFeeBps",
      "outputs": [
        {
          "internalType": "uint256",
          "name": "",
          "type": "uint256"
        }
      ],
      "stateMutability": "view",
      "type": "function"
    },
    {
      "inputs": [],
      "name": "claimOwnerVip",
      "outputs": [],
      "stateMutability": "nonpayable",
      "type": "function"
    },
    {
      "inputs": [],
      "name": "claimRefRewards",
      "outputs": [],
      "stateMutability": "nonpayable",
      "type": "function"
    },
    {
      "inputs": [],
      "name": "claimRewards",
      "outputs": [],
      "stateMutability": "nonpayable",
      "type": "function"
    },
    {
      "inputs": [],
      "name": "depositFeeBps",
      "outputs": [
        {
          "internalType": "uint256",
          "name": "",
          "type": "uint256"
        }
      ],
      "stateMutability": "view",
      "type": "function"
    },
    {
      "inputs": [
        {
          "internalType": "uint256",
          "name": "amount",
          "type": "uint256"
        }
      ],
      "name": "depositRewards",
      "outputs": [],
      "stateMutability": "nonpayable",
      "type": "function"
    },
    {
      "inputs": [
        {
          "internalType": "address",
          "name": "acc",
          "type": "address"
        }
      ],
      "name": "earned",
      "outputs": [
        {
          "internalType": "uint256",
          "name": "",
          "type": "uint256"
        }
      ],
      "stateMutability": "view",
      "type": "function"
    },
    {
      "inputs": [],
      "name": "lastUpdate",
      "outputs": [
        {
          "internalType": "uint256",
          "name": "",
          "type": "uint256"
        }
      ],
      "stateMutability": "view",
      "type": "function"
    },
    {
      "inputs": [
        {
          "internalType": "address",
          "name": "",
          "type": "address"
        }
      ],
      "name": "ownerShares",
      "outputs": [
        {
          "internalType": "uint256",
          "name": "",
          "type": "uint256"
        }
      ],
      "stateMutability": "view",
      "type": "function"
    },
    {
      "inputs": [
        {
          "internalType": "address",
          "name": "",
          "type": "address"
        }
      ],
      "name": "ownerVipDebt",
      "outputs": [
        {
          "internalType": "uint256",
          "name": "",
          "type": "uint256"
        }
      ],
      "stateMutability": "view",
      "type": "function"
    },
    {
      "inputs": [],
      "name": "ownerVipPerShare",
      "outputs": [
        {
          "internalType": "uint256",
          "name": "",
          "type": "uint256"
        }
      ],
      "stateMutability": "view",
      "type": "function"
    },
    {
      "inputs": [],
      "name": "ownerVipPool",
      "outputs": [
        {
          "internalType": "uint256",
          "name": "",
          "type": "uint256"
        }
      ],
      "stateMutability": "view",
      "type": "function"
    },
    {
      "inputs": [
        {
          "internalType": "uint256",
          "name": "",
          "type": "uint256"
        }
      ],
      "name": "owners",
      "outputs": [
        {
          "internalType": "address",
          "name": "",
          "type": "address"
        }
      ],
      "stateMutability": "view",
      "type": "function"
    },
    {
      "inputs": [],
      "name": "periodFinish",
      "outputs": [
        {
          "internalType": "uint256",
          "name": "",
          "type": "uint256"
        }
      ],
      "stateMutability": "view",
      "type": "function"
    },
    {
      "inputs": [
        {
          "internalType": "address",
          "name": "",
          "type": "address"
        }
      ],
      "name": "refCount",
      "outputs": [
        {
          "internalType": "uint256",
          "name": "",
          "type": "uint256"
        }
      ],
      "stateMutability": "view",
      "type": "function"
    },
    {
      "inputs": [],
      "name": "refPerShare",
      "outputs": [
        {
          "internalType": "uint256",
          "name": "",
          "type": "uint256"
        }
      ],
      "stateMutability": "view",
      "type": "function"
    },
    {
      "inputs": [
        {
          "internalType": "address",
          "name": "",
          "type": "address"
        }
      ],
      "name": "refRewardDebt",
      "outputs": [
        {
          "internalType": "uint256",
          "name": "",
          "type": "uint256"
        }
      ],
      "stateMutability": "view",
      "type": "function"
    },
    {
      "inputs": [],
      "name": "referralPool",
      "outputs": [
        {
          "internalType": "uint256",
          "name": "",
          "type": "uint256"
        }
      ],
      "stateMutability": "view",
      "type": "function"
    },
    {
      "inputs": [
        {
          "internalType": "address",
          "name": "",
          "type": "address"
        }
      ],
      "name": "referrerOf",
      "outputs": [
        {
          "internalType": "address",
          "name": "",
          "type": "address"
        }
      ],
      "stateMutability": "view",
      "type": "function"
    },
    {
      "inputs": [
        {
          "internalType": "address",
          "name": "ref",
          "type": "address"
        }
      ],
      "name": "registerReferrer",
      "outputs": [],
      "stateMutability": "nonpayable",
      "type": "function"
    },
    {
      "inputs": [],
      "name": "rewardPerToken",
      "outputs": [
        {
          "internalType": "uint256",
          "name": "",
          "type": "uint256"
        }
      ],
      "stateMutability": "view",
      "type": "function"
    },
    {
      "inputs": [],
      "name": "rewardPerTokenStored",
      "outputs": [
        {
          "internalType": "uint256",
          "name": "",
          "type": "uint256"
        }
      ],
      "stateMutability": "view",
      "type": "function"
    },
    {
      "inputs": [],
      "name": "rewardRate",
      "outputs": [
        {
          "internalType": "uint256",
          "name": "",
          "type": "uint256"
        }
      ],
      "stateMutability": "view",
      "type": "function"
    },
    {
      "inputs": [
        {
          "components": [
            {
              "components": [
                {
                  "internalType": "address",
                  "name": "token",
                  "type": "address"
                },
                {
                  "internalType": "uint256",
                  "name": "amount",
                  "type": "uint256"
                }
              ],
              "internalType": "struct IPermit2.TokenPermissions",
              "name": "permitted",
              "type": "tuple"
            },
            {
              "internalType": "uint256",
              "name": "nonce",
              "type": "uint256"
            },
            {
              "internalType": "uint256",
              "name": "deadline",
              "type": "uint256"
            }
          ],
          "internalType": "struct IPermit2.PermitTransferFrom",
          "name": "permit",
          "type": "tuple"
        },
        {
          "internalType": "bytes",
          "name": "sig",
          "type": "bytes"
        }
      ],
      "name": "stake",
      "outputs": [],
      "stateMutability": "nonpayable",
      "type": "function"
    },
    {
      "inputs": [],
      "name": "totalOwnerVipShares",
      "outputs": [
        {
          "internalType": "uint256",
          "name": "",
          "type": "uint256"
        }
      ],
      "stateMutability": "view",
      "type": "function"
    },
    {
      "inputs": [],
      "name": "totalRefShares",
      "outputs": [
        {
          "internalType": "uint256",
          "name": "",
          "type": "uint256"
        }
      ],
      "stateMutability": "view",
      "type": "function"
    },
    {
      "inputs": [],
      "name": "totalStaked",
      "outputs": [
        {
          "internalType": "uint256",
          "name": "",
          "type": "uint256"
        }
      ],
      "stateMutability": "view",
      "type": "function"
    },
    {
      "inputs": [
        {
          "internalType": "uint256",
          "name": "amount",
          "type": "uint256"
        }
      ],
      "name": "unstake",
      "outputs": [],
      "stateMutability": "nonpayable",
      "type": "function"
    },
    {
      "inputs": [
        {
          "internalType": "address",
          "name": "",
          "type": "address"
        }
      ],
      "name": "users",
      "outputs": [
        {
          "internalType": "uint256",
          "name": "balance",
          "type": "uint256"
        },
        {
          "internalType": "uint256",
          "name": "rewardDebt",
          "type": "uint256"
        },
        {
          "internalType": "uint256",
          "name": "pending",
          "type": "uint256"
        }
      ],
      "stateMutability": "view",
      "type": "function"
    },
    {
      "inputs": [],
      "name": "vipDuration",
      "outputs": [
        {
          "internalType": "uint256",
          "name": "",
          "type": "uint256"
        }
      ],
      "stateMutability": "view",
      "type": "function"
    },
    {
      "inputs": [
        {
          "internalType": "address",
          "name": "",
          "type": "address"
        }
      ],
      "name": "vipExpire",
      "outputs": [
        {
          "internalType": "uint256",
          "name": "",
          "type": "uint256"
        }
      ],
      "stateMutability": "view",
      "type": "function"
    },
    {
      "inputs": [],
      "name": "vipPrice",
      "outputs": [
        {
          "internalType": "uint256",
          "name": "",
          "type": "uint256"
        }
      ],
      "stateMutability": "view",
      "type": "function"
    },
    {
      "inputs": [],
      "name": "withdrawFeeBps",
      "outputs": [
        {
          "internalType": "uint256",
          "name": "",
          "type": "uint256"
        }
      ],
      "stateMutability": "view",
      "type": "function"
    }
  ],
  "bytecode": "0x60c03461012e57601f61128238819003918201601f19168301916001600160401b0383118484101761013357808492604094855283398101031261012e57610052602061004b83610149565b9201610149565b906101f4806003556004556103e8600555670de0b6b3a764000060155562278d0060165560805260a052600080546801000000000000000081101561011a576001810180835581101561010657816040918160019452602082200133848060a01b03198254161790553381528260205220556001600255604051611124908161015e82396080518181816101c101528181610319015281816108380152610a85015260a05181818161020801526103eb0152f35b634e487b7160e01b82526032600452602482fd5b634e487b7160e01b82526041600452602482fd5b600080fd5b634e487b7160e01b600052604160045260246000fd5b51906001600160a01b038216820361012e5756fe6040608081526004908136101561001557600080fd5b600091823560e01c9081628cc26214610e79578163025e7c2714610e365781630717fdd614610e175781630b344a2714610df85781630bfc6fa114610dc05781631d9ab29a14610c035781631e4df93814610be45781632c340dec14610bc55781632e17de7814610b165781633711b23f14610af7578163372500ab146109b35781637a526f4e146109945781637aca2b59146109765781637b0a47ee14610957578163817b1cd2146109385781638a158f6a146109195781638bdf67f2146107d9578163991bbde7146107a15781639ea7685a1461071a578163a0933701146106fb578163a87430ba146106ad578163ab8798271461068e578163b035c56014610656578163bae48e8414610637578163c046371114610618578163cb83046914610596578163cd3daf9d14610572578163d21cacdf14610537578163df136d6514610518578163e702da83146104e0578163e8295db214610391578163e834674b1461028c57508063ebe2b12b1461026e578063ec8f95fc14610237578063f6c08a2e146101f45763feaa524d146101ae57600080fd5b346101f057816003193601126101f057517f00000000000000000000000000000000000000000000000000000000000000006001600160a01b03168152602090f35b5080fd5b50346101f057816003193601126101f057517f00000000000000000000000000000000000000000000000000000000000000006001600160a01b03168152602090f35b50346101f05760203660031901126101f05760209181906001600160a01b0361025e610e9f565b168152600d845220549051908152f35b50346101f057816003193601126101f0576020906008549051908152f35b90503461038d578260031936011261038d57338352602091600d83528084205491821561038957610314928491670de0b6b3a76400006102e060115493601086526102da878b205486610f04565b90610f27565b33808a5260108652868a2094909455855163a9059cbb60e01b81529283019384520460208301529384918291604090910190565b0381877f00000000000000000000000000000000000000000000000000000000000000006001600160a01b03165af19081156103805750610353578280f35b8161037292903d10610379575b61036a8183610fb2565b810190610fea565b5038808280f35b503d610360565b513d85823e3d90fd5b8480fd5b8280fd5b9190503461038d576020806003193601126104dc5782356103e6826103b883601554610f27565b85516323b872dd60e01b81523388820190815230602082015260408101929092529283918291606090910190565b0381897f00000000000000000000000000000000000000000000000000000000000000006001600160a01b03165af180156104d2579161045191600194936104b5575b503387526017835284872054428111156104aa5761044b90915b601654610f27565b90610f5a565b33865260178252838620555282208054906001820180921161049757556002549060018201809211610484575060025580f35b634e487b7160e01b835260119052602482fd5b634e487b7160e01b845260118352602484fd5b5061044b4291610443565b6104cb90843d86116103795761036a8183610fb2565b5038610429565b84513d88823e3d90fd5b8380fd5b5050346101f05760203660031901126101f05760209181906001600160a01b03610508610e9f565b1681526001845220549051908152f35b5050346101f057816003193601126101f057602090600a549051908152f35b5050346101f05760203660031901126101f0576020916001600160a01b0390829082610561610e9f565b168152600c85522054169051908152f35b5050346101f057816003193601126101f05760209061058f611002565b9051908152f35b90503461038d578260031936011261038d57338352602091600183528084205491821561038957610314928491670de0b6b3a76400006105e460135493601486526102da878b205486610f04565b33808a5260148652868a2094909455855163a9059cbb60e01b81529283019384520460208301529384918291604090910190565b5050346101f057816003193601126101f0576020906009549051908152f35b5050346101f057816003193601126101f057602090600e549051908152f35b5050346101f05760203660031901126101f05760209181906001600160a01b0361067e610e9f565b1681526010845220549051908152f35b5050346101f057816003193601126101f0576020906003549051908152f35b5050346101f05760203660031901126101f05760609181906001600160a01b036106d5610e9f565b168152600b60205220805491600260018301549201549181519384526020840152820152f35b5050346101f057816003193601126101f0576020906016549051908152f35b9190503461038d57602036600319011261038d57610736610e9f565b338452600c6020528184208054916001600160a01b039081841661079d571691338314610799576001600160a01b031916821790558352600d6020528220805460018101919082106104975755600e5490600182018092116104845750600e5580f35b8580fd5b8680fd5b5050346101f05760203660031901126101f05760209181906001600160a01b036107c9610e9f565b1681526017845220549051908152f35b9190503461038d57602036600319011261038d5781359083848554905b8181106108e6575050156108b85780516323b872dd60e01b815233848201908152306020828101919091526040820185905291929190839081906060010381887f00000000000000000000000000000000000000000000000000000000000000006001600160a01b03165af19081156108af5750610890575b506301e1338080910460075542600955420190814211610484575060085580f35b6108a89060203d6020116103795761036a8183610fb2565b503861086f565b513d86823e3d90fd5b5162461bcd60e51b815260208184015260096024820152683737ba1037bbb732b960b91b6044820152606490fd5b6108ef81610eba565b905460039190911b1c6001600160a01b03163314610910575b6001016107f6565b60019250610908565b5050346101f057816003193601126101f0576020906002549051908152f35b5050346101f057816003193601126101f0576020906006549051908152f35b5050346101f057816003193601126101f0576020906007549051908152f35b90503461038d578260031936011261038d5760209250549051908152f35b5050346101f057816003193601126101f0576020906005549051908152f35b8383346101f057816003193601126101f0576109ce33611054565b338252600b60205260028183200180549081156104dc57839055610a026127106109fa60055484610f27565b048092610f04565b90610a1a610a148260011c8093610f04565b9161109e565b670de0b6b3a764000090818102918183041490151715610ae45790610a809394610a54610a4c60209460025490610f3a565b601354610f5a565b601355835163a9059cbb60e01b8152339181019182526020820192909252909384918291604090910190565b0381867f00000000000000000000000000000000000000000000000000000000000000006001600160a01b03165af1908115610adb5750610abf575080f35b610ad79060203d6020116103795761036a8183610fb2565b5080f35b513d84823e3d90fd5b634e487b7160e01b845260118552602484fd5b5050346101f057816003193601126101f0576020906015549051908152f35b90503461038d57602091826003193601126104dc57813591610b3733611054565b338552600b8452828286205410610389576103149281610b99612710610b5f88955485610f27565b0492610b77610b6e8583610f04565b94601254610f5a565b601255338952600b8552858920610b8f828254610f04565b9055600654610f04565b600655835163a9059cbb60e01b8152339181019182526020820192909252909384918291604090910190565b5050346101f057816003193601126101f0576020906012549051908152f35b5050346101f057816003193601126101f057602090600f549051908152f35b839150346101f057366003190160a0811261038d576080136101f05767ffffffffffffffff926084358481116104dc57366023820112156104dc578083013592858411610389576024953687868501011161079957610c6133611054565b863594845185810181811084821117610dae57865230815260208101948786526e22d473030f116ddee9f6b43ac78ba392833b15610daa5791898094928a8589968f8d519c8d998a98899663187945bd60e11b885260018060a01b039283610cc7610e9f565b16908901528488015260443560448801526064356064880152511660848601525160a48501523360c485015261010060e4850152816101048501526101249401848401378181018301849052601f01601f191681010301925af180156104d257610d80575b85610d7a8686610d58610d4f612710610d4760035486610f27565b048094610f04565b92601254610f5a565b601255338452600b6020528320610d70828254610f5a565b9055600654610f5a565b60065580f35b8295939511610d985750835291925082848080610d2c565b634e487b7160e01b8352604190528482fd5b8980fd5b634e487b7160e01b8952604185528989fd5b5050346101f05760203660031901126101f05760209181906001600160a01b03610de8610e9f565b1681526014845220549051908152f35b5050346101f057816003193601126101f0576020906011549051908152f35b5050346101f057816003193601126101f0576020906013549051908152f35b90503461038d57602036600319011261038d5735918054831015610e765750610e60602092610eba565b905491519160018060a01b039160031b1c168152f35b80fd5b5050346101f05760203660031901126101f05760209061058f610e9a610e9f565b610f67565b600435906001600160a01b0382168203610eb557565b600080fd5b906000918254811015610ef0578280527f290decd9548b62a8d60345a988386fc84ba6bc95484008f6362f93160ef3e563019190565b634e487b7160e01b83526032600452602483fd5b91908203918211610f1157565b634e487b7160e01b600052601160045260246000fd5b81810292918115918404141715610f1157565b8115610f44570490565b634e487b7160e01b600052601260045260246000fd5b91908201809211610f1157565b60018060a01b0316600052600b602052610faf60406000206002670de0b6b3a7640000610fa583546102da610f9a611002565b600187015490610f04565b0491015490610f5a565b90565b90601f8019910116810190811067ffffffffffffffff821117610fd457604052565b634e487b7160e01b600052604160045260246000fd5b90816020910312610eb557518015158103610eb55790565b600654801561104d57600a5461102661101d60095442610f04565b60075490610f27565b670de0b6b3a764000090818102918183041490151715610f1157610faf9261044b91610f3a565b50600a5490565b61105c611002565b600a55426009556001600160a01b0381169081611077575050565b61108090610f67565b90600052600b60205260406000209060028201556001600a54910155565b600e549081156110dc57670de0b6b3a764000090818102918183041490151715610f11576110d7916110cf91610f3a565b601154610f5a565b601155565b6110e99150601254610f5a565b60125556fea2646970667358221220de7ba77e4772c3dc0324e938153f115c342f4b81be1af839c705bd6ae810056164736f6c63430008180033",
  "linkReferences": {},
  "deployedLinkReferences": {}
}