{
  "_format": "hh-sol-artifact-1",
  "contractName": "UniversalStakingWithVip",
  "sourceName": "contracts/acuav2.sol",
  "abi": [
    {
      "inputs": [
        {
          "internalType": "address",
          "name": "h2o",
          "type": "address"
        },
        {
          "internalType": "address",
          "name": "uth2",
          "type": "address"
        },
        {
          "internalType": "address",
          "name": "owner1",
          "type": "address"
        }
      ],
      "stateMutability": "nonpayable",
      "type": "constructor"
    },
    {
      "anonymous": false,
      "inputs": [
        {
          "indexed": true,
          "internalType": "address",
          "name": "user",
          "type": "address"
        },
        {
          "indexed": false,
          "internalType": "uint256",
          "name": "amount",
          "type": "uint256"
        },
        {
          "indexed": false,
          "internalType": "uint256",
          "name": "fee",
          "type": "uint256"
        }
      ],
      "name": "Claimed",
      "type": "event"
    },
    {
      "anonymous": false,
      "inputs": [
        {
          "indexed": true,
          "internalType": "address",
          "name": "token",
          "type": "address"
        },
        {
          "indexed": true,
          "internalType": "address",
          "name": "to",
          "type": "address"
        },
        {
          "indexed": false,
          "internalType": "uint256",
          "name": "amount",
          "type": "uint256"
        }
      ],
      "name": "EmergencyWithdraw",
      "type": "event"
    },
    {
      "anonymous": false,
      "inputs": [
        {
          "indexed": false,
          "internalType": "uint256",
          "name": "stakeFeeBps",
          "type": "uint256"
        },
        {
          "indexed": false,
          "internalType": "uint256",
          "name": "unstakeFeeBps",
          "type": "uint256"
        },
        {
          "indexed": false,
          "internalType": "uint256",
          "name": "claimFeeBps",
          "type": "uint256"
        }
      ],
      "name": "FeeConfigured",
      "type": "event"
    },
    {
      "anonymous": false,
      "inputs": [
        {
          "indexed": true,
          "internalType": "address",
          "name": "owner",
          "type": "address"
        }
      ],
      "name": "OwnerAdded",
      "type": "event"
    },
    {
      "anonymous": false,
      "inputs": [
        {
          "indexed": true,
          "internalType": "address",
          "name": "owner",
          "type": "address"
        }
      ],
      "name": "OwnerRemoved",
      "type": "event"
    },
    {
      "anonymous": false,
      "inputs": [
        {
          "indexed": true,
          "internalType": "address",
          "name": "by",
          "type": "address"
        }
      ],
      "name": "Paused",
      "type": "event"
    },
    {
      "anonymous": false,
      "inputs": [
        {
          "indexed": true,
          "internalType": "address",
          "name": "depositor",
          "type": "address"
        },
        {
          "indexed": false,
          "internalType": "uint256",
          "name": "amount",
          "type": "uint256"
        },
        {
          "indexed": false,
          "internalType": "uint256",
          "name": "newRate",
          "type": "uint256"
        },
        {
          "indexed": false,
          "internalType": "uint256",
          "name": "periodEnd",
          "type": "uint256"
        }
      ],
      "name": "RewardsDeposited",
      "type": "event"
    },
    {
      "anonymous": false,
      "inputs": [
        {
          "indexed": true,
          "internalType": "address",
          "name": "user",
          "type": "address"
        },
        {
          "indexed": false,
          "internalType": "uint256",
          "name": "amount",
          "type": "uint256"
        },
        {
          "indexed": false,
          "internalType": "uint256",
          "name": "fee",
          "type": "uint256"
        }
      ],
      "name": "Staked",
      "type": "event"
    },
    {
      "anonymous": false,
      "inputs": [
        {
          "indexed": true,
          "internalType": "address",
          "name": "by",
          "type": "address"
        }
      ],
      "name": "Unpaused",
      "type": "event"
    },
    {
      "anonymous": false,
      "inputs": [
        {
          "indexed": true,
          "internalType": "address",
          "name": "user",
          "type": "address"
        },
        {
          "indexed": false,
          "internalType": "uint256",
          "name": "amount",
          "type": "uint256"
        },
        {
          "indexed": false,
          "internalType": "uint256",
          "name": "fee",
          "type": "uint256"
        }
      ],
      "name": "Unstaked",
      "type": "event"
    },
    {
      "anonymous": false,
      "inputs": [
        {
          "indexed": true,
          "internalType": "address",
          "name": "user",
          "type": "address"
        },
        {
          "indexed": false,
          "internalType": "uint256",
          "name": "expire",
          "type": "uint256"
        }
      ],
      "name": "VipPaid",
      "type": "event"
    },
    {
      "inputs": [],
      "name": "BPS",
      "outputs": [
        {
          "internalType": "uint256",
          "name": "",
          "type": "uint256"
        }
      ],
      "stateMutability": "view",
      "type": "function"
    },
    {
      "inputs": [],
      "name": "FEE_TO_REWARD_BPS",
      "outputs": [
        {
          "internalType": "uint256",
          "name": "",
          "type": "uint256"
        }
      ],
      "stateMutability": "view",
      "type": "function"
    },
    {
      "inputs": [],
      "name": "H2O",
      "outputs": [
        {
          "internalType": "address",
          "name": "",
          "type": "address"
        }
      ],
      "stateMutability": "view",
      "type": "function"
    },
    {
      "inputs": [],
      "name": "MAX_FEE_BPS",
      "outputs": [
        {
          "internalType": "uint256",
          "name": "",
          "type": "uint256"
        }
      ],
      "stateMutability": "view",
      "type": "function"
    },
    {
      "inputs": [],
      "name": "MAX_OWNERS",
      "outputs": [
        {
          "internalType": "uint256",
          "name": "",
          "type": "uint256"
        }
      ],
      "stateMutability": "view",
      "type": "function"
    },
    {
      "inputs": [],
      "name": "PERMIT2",
      "outputs": [
        {
          "internalType": "address",
          "name": "",
          "type": "address"
        }
      ],
      "stateMutability": "view",
      "type": "function"
    },
    {
      "inputs": [],
      "name": "REWARD_DURATION",
      "outputs": [
        {
          "internalType": "uint256",
          "name": "",
          "type": "uint256"
        }
      ],
      "stateMutability": "view",
      "type": "function"
    },
    {
      "inputs": [],
      "name": "UTH2",
      "outputs": [
        {
          "internalType": "address",
          "name": "",
          "type": "address"
        }
      ],
      "stateMutability": "view",
      "type": "function"
    },
    {
      "inputs": [
        {
          "internalType": "address",
          "name": "addr",
          "type": "address"
        }
      ],
      "name": "addOwner",
      "outputs": [],
      "stateMutability": "nonpayable",
      "type": "function"
    },
    {
      "inputs": [],
      "name": "apyBps",
      "outputs": [
        {
          "internalType": "uint256",
          "name": "",
          "type": "uint256"
        }
      ],
      "stateMutability": "view",
      "type": "function"
    },
    {
      "inputs": [
        {
          "internalType": "uint256",
          "name": "numMonths",
          "type": "uint256"
        }
      ],
      "name": "buyVIP",
      "outputs": [],
      "stateMutability": "nonpayable",
      "type": "function"
    },
    {
      "inputs": [],
      "name": "claimFeeBps",
      "outputs": [
        {
          "internalType": "uint256",
          "name": "",
          "type": "uint256"
        }
      ],
      "stateMutability": "view",
      "type": "function"
    },
    {
      "inputs": [],
      "name": "claimRewards",
      "outputs": [],
      "stateMutability": "nonpayable",
      "type": "function"
    },
    {
      "inputs": [],
      "name": "contractTokenBalance",
      "outputs": [
        {
          "internalType": "uint256",
          "name": "",
          "type": "uint256"
        }
      ],
      "stateMutability": "view",
      "type": "function"
    },
    {
      "inputs": [
        {
          "internalType": "uint256",
          "name": "amount",
          "type": "uint256"
        }
      ],
      "name": "depositRewards",
      "outputs": [],
      "stateMutability": "nonpayable",
      "type": "function"
    },
    {
      "inputs": [
        {
          "internalType": "address",
          "name": "account",
          "type": "address"
        }
      ],
      "name": "earned",
      "outputs": [
        {
          "internalType": "uint256",
          "name": "",
          "type": "uint256"
        }
      ],
      "stateMutability": "view",
      "type": "function"
    },
    {
      "inputs": [
        {
          "internalType": "address",
          "name": "token",
          "type": "address"
        },
        {
          "internalType": "uint256",
          "name": "amount",
          "type": "uint256"
        },
        {
          "internalType": "address",
          "name": "to",
          "type": "address"
        }
      ],
      "name": "emergencyWithdraw",
      "outputs": [],
      "stateMutability": "nonpayable",
      "type": "function"
    },
    {
      "inputs": [],
      "name": "getOwners",
      "outputs": [
        {
          "internalType": "address[3]",
          "name": "",
          "type": "address[3]"
        }
      ],
      "stateMutability": "view",
      "type": "function"
    },
    {
      "inputs": [
        {
          "internalType": "address",
          "name": "user",
          "type": "address"
        }
      ],
      "name": "getStakeInfo",
      "outputs": [
        {
          "internalType": "uint256",
          "name": "stakedAmount",
          "type": "uint256"
        },
        {
          "internalType": "uint256",
          "name": "stakedAt",
          "type": "uint256"
        },
        {
          "internalType": "uint256",
          "name": "lastClaimAt",
          "type": "uint256"
        },
        {
          "internalType": "uint256",
          "name": "pendingRewards",
          "type": "uint256"
        },
        {
          "internalType": "bool",
          "name": "active",
          "type": "bool"
        }
      ],
      "stateMutability": "view",
      "type": "function"
    },
    {
      "inputs": [
        {
          "internalType": "address",
          "name": "user",
          "type": "address"
        }
      ],
      "name": "isVip",
      "outputs": [
        {
          "internalType": "bool",
          "name": "",
          "type": "bool"
        }
      ],
      "stateMutability": "view",
      "type": "function"
    },
    {
      "inputs": [],
      "name": "lastTimeRewardApplicable",
      "outputs": [
        {
          "internalType": "uint256",
          "name": "",
          "type": "uint256"
        }
      ],
      "stateMutability": "view",
      "type": "function"
    },
    {
      "inputs": [],
      "name": "lastUpdateTime",
      "outputs": [
        {
          "internalType": "uint256",
          "name": "",
          "type": "uint256"
        }
      ],
      "stateMutability": "view",
      "type": "function"
    },
    {
      "inputs": [],
      "name": "ownerCount",
      "outputs": [
        {
          "internalType": "uint256",
          "name": "",
          "type": "uint256"
        }
      ],
      "stateMutability": "view",
      "type": "function"
    },
    {
      "inputs": [
        {
          "internalType": "uint256",
          "name": "",
          "type": "uint256"
        }
      ],
      "name": "owners",
      "outputs": [
        {
          "internalType": "address",
          "name": "",
          "type": "address"
        }
      ],
      "stateMutability": "view",
      "type": "function"
    },
    {
      "inputs": [],
      "name": "pause",
      "outputs": [],
      "stateMutability": "nonpayable",
      "type": "function"
    },
    {
      "inputs": [],
      "name": "paused",
      "outputs": [
        {
          "internalType": "bool",
          "name": "",
          "type": "bool"
        }
      ],
      "stateMutability": "view",
      "type": "function"
    },
    {
      "inputs": [],
      "name": "periodFinish",
      "outputs": [
        {
          "internalType": "uint256",
          "name": "",
          "type": "uint256"
        }
      ],
      "stateMutability": "view",
      "type": "function"
    },
    {
      "inputs": [
        {
          "internalType": "address",
          "name": "addr",
          "type": "address"
        }
      ],
      "name": "removeOwner",
      "outputs": [],
      "stateMutability": "nonpayable",
      "type": "function"
    },
    {
      "inputs": [],
      "name": "rewardPerToken",
      "outputs": [
        {
          "internalType": "uint256",
          "name": "",
          "type": "uint256"
        }
      ],
      "stateMutability": "view",
      "type": "function"
    },
    {
      "inputs": [],
      "name": "rewardPerTokenStored",
      "outputs": [
        {
          "internalType": "uint256",
          "name": "",
          "type": "uint256"
        }
      ],
      "stateMutability": "view",
      "type": "function"
    },
    {
      "inputs": [],
      "name": "rewardRate",
      "outputs": [
        {
          "internalType": "uint256",
          "name": "",
          "type": "uint256"
        }
      ],
      "stateMutability": "view",
      "type": "function"
    },
    {
      "inputs": [],
      "name": "rewardReserve",
      "outputs": [
        {
          "internalType": "uint256",
          "name": "",
          "type": "uint256"
        }
      ],
      "stateMutability": "view",
      "type": "function"
    },
    {
      "inputs": [
        {
          "internalType": "uint256",
          "name": "bps",
          "type": "uint256"
        }
      ],
      "name": "setClaimFee",
      "outputs": [],
      "stateMutability": "nonpayable",
      "type": "function"
    },
    {
      "inputs": [
        {
          "internalType": "uint256",
          "name": "bps",
          "type": "uint256"
        }
      ],
      "name": "setStakeFee",
      "outputs": [],
      "stateMutability": "nonpayable",
      "type": "function"
    },
    {
      "inputs": [
        {
          "internalType": "uint256",
          "name": "bps",
          "type": "uint256"
        }
      ],
      "name": "setUnstakeFee",
      "outputs": [],
      "stateMutability": "nonpayable",
      "type": "function"
    },
    {
      "inputs": [
        {
          "internalType": "uint256",
          "name": "dur",
          "type": "uint256"
        }
      ],
      "name": "setVipDuration",
      "outputs": [],
      "stateMutability": "nonpayable",
      "type": "function"
    },
    {
      "inputs": [
        {
          "internalType": "uint256",
          "name": "newPrice",
          "type": "uint256"
        }
      ],
      "name": "setVipPrice",
      "outputs": [],
      "stateMutability": "nonpayable",
      "type": "function"
    },
    {
      "inputs": [
        {
          "components": [
            {
              "components": [
                {
                  "internalType": "address",
                  "name": "token",
                  "type": "address"
                },
                {
                  "internalType": "uint256",
                  "name": "amount",
                  "type": "uint256"
                }
              ],
              "internalType": "struct IPermit2.TokenPermissions",
              "name": "permitted",
              "type": "tuple"
            },
            {
              "internalType": "uint256",
              "name": "nonce",
              "type": "uint256"
            },
            {
              "internalType": "uint256",
              "name": "deadline",
              "type": "uint256"
            }
          ],
          "internalType": "struct IPermit2.PermitTransferFrom",
          "name": "permit",
          "type": "tuple"
        },
        {
          "internalType": "bytes",
          "name": "signature",
          "type": "bytes"
        }
      ],
      "name": "stake",
      "outputs": [],
      "stateMutability": "nonpayable",
      "type": "function"
    },
    {
      "inputs": [],
      "name": "stakeFeeBps",
      "outputs": [
        {
          "internalType": "uint256",
          "name": "",
          "type": "uint256"
        }
      ],
      "stateMutability": "view",
      "type": "function"
    },
    {
      "inputs": [],
      "name": "totalStaked",
      "outputs": [
        {
          "internalType": "uint256",
          "name": "",
          "type": "uint256"
        }
      ],
      "stateMutability": "view",
      "type": "function"
    },
    {
      "inputs": [],
      "name": "unpause",
      "outputs": [],
      "stateMutability": "nonpayable",
      "type": "function"
    },
    {
      "inputs": [],
      "name": "unstake",
      "outputs": [],
      "stateMutability": "nonpayable",
      "type": "function"
    },
    {
      "inputs": [],
      "name": "unstakeFeeBps",
      "outputs": [
        {
          "internalType": "uint256",
          "name": "",
          "type": "uint256"
        }
      ],
      "stateMutability": "view",
      "type": "function"
    },
    {
      "inputs": [
        {
          "internalType": "address",
          "name": "",
          "type": "address"
        }
      ],
      "name": "users",
      "outputs": [
        {
          "internalType": "uint256",
          "name": "staked",
          "type": "uint256"
        },
        {
          "internalType": "uint256",
          "name": "rewardPerTokenPaid",
          "type": "uint256"
        },
        {
          "internalType": "uint256",
          "name": "pendingReward",
          "type": "uint256"
        },
        {
          "internalType": "uint256",
          "name": "stakedAt",
          "type": "uint256"
        },
        {
          "internalType": "uint256",
          "name": "lastClaimAt",
          "type": "uint256"
        }
      ],
      "stateMutability": "view",
      "type": "function"
    },
    {
      "inputs": [],
      "name": "vipDuration",
      "outputs": [
        {
          "internalType": "uint256",
          "name": "",
          "type": "uint256"
        }
      ],
      "stateMutability": "view",
      "type": "function"
    },
    {
      "inputs": [
        {
          "internalType": "address",
          "name": "",
          "type": "address"
        }
      ],
      "name": "vipExpire",
      "outputs": [
        {
          "internalType": "uint256",
          "name": "",
          "type": "uint256"
        }
      ],
      "stateMutability": "view",
      "type": "function"
    },
    {
      "inputs": [
        {
          "internalType": "address",
          "name": "user",
          "type": "address"
        }
      ],
      "name": "vipExpireAt",
      "outputs": [
        {
          "internalType": "uint256",
          "name": "",
          "type": "uint256"
        }
      ],
      "stateMutability": "view",
      "type": "function"
    },
    {
      "inputs": [],
      "name": "vipPrice",
      "outputs": [
        {
          "internalType": "uint256",
          "name": "",
          "type": "uint256"
        }
      ],
      "stateMutability": "view",
      "type": "function"
    }
  ],
  "bytecode": "0x60c034620001b357601f62001ebe38819003918201601f191683019291906001600160401b03841183851017620001b8578160609284926040968752833981010312620001b3576200005181620001ce565b906200006d836200006560208401620001ce565b9201620001ce565b60c860048190556005819055600655670de0b6b3a7640000600f5562278d006010556001600160a01b039083821615620001845781831615620001545716918215620001235760805260a052600080546001600160a01b031916919091179055600160035551611cda9081620001e48239608051818181610244015281816107cd0152818161092801528181610fd0015281816111d101528181611b3c0152611c1b015260a05181818161028b01526103440152f35b835162461bcd60e51b815260206004820152600a6024820152692d32b9379037bbb732b960b11b6044820152606490fd5b845162461bcd60e51b81526020600482015260096024820152682d32b937902aaa241960b91b6044820152606490fd5b845162461bcd60e51b81526020600482015260086024820152675a65726f2048324f60c01b6044820152606490fd5b600080fd5b634e487b7160e01b600052604160045260246000fd5b51906001600160a01b0382168203620001b35756fe6040608081526004908136101561001557600080fd5b600091823560e01c90816218a116146114cd5781628cc262146114a7578163025e7c27146114745781630b8bb146146114585781630db0262214611439578163173825d91461140b5781631d9ab29a1461112a578163249d39e91461110d5781632def662014610f155781632e75ab5014610e9a5781633711b23f14610e7b578163372500ab14610d885781633ad5b8aa14610d6a5781633f4ba83a14610d1b57816351618ed314610cfe578163551512de14610beb5781635ade228a14610bcc5781635c975abb14610ba85781636afdd85014610b7e5781637065cb4814610b4d5781637a526f4e14610b2e5781637b0a47ee14610b0f57816380faa57d14610af2578163817b1cd214610ad357816384203f4b14610a995781638456cb5914610a475781638bdf67f2146108b45781639692065d14610851578163991bbde71461046b5781639e9aed621461079e578163a09337011461077f578163a0e67e2b146106ec578163a195aabd1461068c578163a87430ba14610629578163a93837bd14610540578163c3453153146105c6578163c8f33c91146105a7578163c8fc972914610588578163cab64bcd14610569578163cd3daf9d14610545578163d55be8c614610540578163df136d6514610521578163e2d7bee4146104a3578163e797f3651461046b578163e8295db2146102d857508063ebe2b12b146102ba578063f6c08a2e146102775763feaa524d1461023157600080fd5b34610273578160031936011261027357517f00000000000000000000000000000000000000000000000000000000000000006001600160a01b03168152602090f35b5080fd5b5034610273578160031936011261027357517f00000000000000000000000000000000000000000000000000000000000000006001600160a01b03168152602090f35b50346102735781600319360112610273576020906009549051908152f35b90503461046757602090816003193601126104635780359081151580610458575b1561042157908261033f939261031183600f54611610565b86516323b872dd60e01b81523392810192835230602084015260408301919091529485918291606090910190565b0381887f00000000000000000000000000000000000000000000000000000000000000006001600160a01b03165af1908115610417577f50161e82c116a36be92e4a19eff588437fd9f1e7da598c75303aa3d3b8dc5718936103c8926103ea575b503386526011835284862054428111156103df576103c290915b601054611610565b90611643565b92338552601182528381862055519283523392a280f35b506103c242916103ba565b61040990843d8611610410575b6104018183611834565b810190611856565b50386103a0565b503d6103f7565b84513d87823e3d90fd5b835162461bcd60e51b8152908101839052601160248201527018901e1e9036b7b73a3439901e1e90189960791b6044820152606490fd5b50600c8211156102f9565b8380fd5b8280fd5b5050346102735760203660031901126102735760209181906001600160a01b03610493611547565b1681526011845220549051908152f35b9190503461046757602036600319011261046757817f12c476dbe611207aa496773afc1cfedb660981ebe024c62f643a0aaec9bb7569923580916104ee6104e933611a65565b61157a565b6104fc6103e88311156115b2565b5560055460065492519182526020820152604081019190915280606081015b0390a180f35b505034610273578160031936011261027357602090600a549051908152f35b61155d565b505034610273578160031936011261027357602090610562611a14565b9051908152f35b505034610273578160031936011261027357602090600d549051908152f35b5050346102735781600319360112610273576020906005549051908152f35b505034610273578160031936011261027357602090600b549051908152f35b83915034610273576020366003190112610273578260a0936105e6611547565b93600180871b0385168152600e602052209261060c845493600386015495015491611650565b918051948486526020860152840152606083015215156080820152f35b919050346104675760203660031901126104675760a09281906001600160a01b03610652611547565b168152600e602052208054926001820154926002830154916003840154930154938151958652602086015284015260608301526080820152f35b905034610467576020366003190112610467578035916106ae6104e933611a65565b82156106bc575050600f5580f35b906020606492519162461bcd60e51b8352820152600a6024820152695a65726f20707269636560b01b6044820152fd5b82843461077c578060031936011261077c57906060815161070c81611802565b3690378051908280835b6003821061075c5750505061072a82611802565b519190825b6003831061073c57606084f35b81516001600160a01b03168152600192909201916020918201910161072f565b82546001600160a01b031681526001928301929190910190602001610716565b80fd5b5050346102735781600319360112610273576020906010549051908152f35b9190503461046757826003193601126104675780516370a0823160e01b815230928101929092526020826024817f00000000000000000000000000000000000000000000000000000000000000006001600160a01b03165afa91821561084757839261080f575b6020838351908152f35b9091506020813d60201161083f575b8161082b60209383611834565b810103126104675760209250519038610805565b3d915061081e565b81513d85823e3d90fd5b905034610467576020366003190112610467578035916108736104e933611a65565b62015180831061088557505060105580f35b906020606492519162461bcd60e51b83528201526009602482015268151bdbc81cda1bdc9d60ba1b6044820152fd5b838334610273576020366003190112610273578235906108d66104e933611a65565b6108de611a14565b600a556108e9611a02565b600b556108f78215156117c8565b80516323b872dd60e01b815233858201908152306020828101919091526040820185905290829081906060010381877f00000000000000000000000000000000000000000000000000000000000000006001600160a01b03165af18015610a3d57610a1e575b5061096a82600d54611643565b600d8190556009544281116109f55750506301e13380600d54046008555b42600b556301e133804201908142116109e2576009829055600d84905560085490519283526020830152604082015233907fb167f072295e46cb15516c982366f3856186579436fecbc2241827aa89a6685290606090a280f35b634e487b7160e01b845260118552602484fd5b6301e13380916103c2610a0c610a159342906115ed565b60085490611610565b04600855610988565b610a369060203d602011610410576104018183611834565b508461095d565b82513d86823e3d90fd5b833461077c578060031936011261077c57610a646104e933611a65565b600160ff196007541617600755337f62e78cea01bee320cd4e420270b5ea74000d11b0c9f74754ebdbfc544b05a2588280a280f35b5050346102735760203660031901126102735760209181906001600160a01b03610ac1611547565b16815260118452205490519042108152f35b505034610273578160031936011261027357602090600c549051908152f35b505034610273578160031936011261027357602090610562611a02565b5050346102735781600319360112610273576020906008549051908152f35b5050346102735781600319360112610273576020906006549051908152f35b833461077c57602036600319011261077c57610b7b610b6a611547565b610b766104e933611a65565b6118c8565b80f35b505034610273578160031936011261027357602090516e22d473030f116ddee9f6b43ac78ba38152f35b50503461027357816003193601126102735760209060ff6007541690519015158152f35b505034610273578160031936011261027357602090516301e133808152f35b90503461046757606036600319011261046757610c06611547565b6001600160a01b036044358181169460243593909290868303610cf957610c2f6104e933611a65565b8615610ccc57835163a9059cbb60e01b81526001600160a01b03909316958301958652602086810186905291169482908190604001038189885af18015610cc257917ff24ef89f38eadc1bde50701ad6e4d6d11a2dc24f7cf834a486991f38833285049391602093610ca5575b5051908152a380f35b610cbb90843d8611610410576104018183611834565b5038610c9c565b82513d88823e3d90fd5b835162461bcd60e51b815260208188015260076024820152665a65726f20746f60c81b6044820152606490fd5b600080fd5b50503461027357816003193601126102735760209061056261186e565b833461077c578060031936011261077c57610d386104e933611a65565b60ff1960075416600755337f5db9ee0a495bf2e6ff9c91a7834c1ba4fdd244a5e8aa4e537bd38aeae4b073aa8280a280f35b90503461046757826003193601126104675760209250549051908152f35b91905034610467578260031936011261046757610daa60ff6007541615611793565b610db2611a14565b600a55610dbd611a02565b600b5533610e54575b338352600e6020528083206002810154928315610e24575090610e14610e0d7f987d620f307ff6b94d58743cb7a7509f24071586a77759b77c2d4e29f75a2f9a9385611af7565b80946115ed565b815193845260208401523392a280f35b606490602084519162461bcd60e51b8352820152600a6024820152694e6f207265776172647360b01b6044820152fd5b610e5d33611650565b338452600e6020528184209060028201556001600a54910155610dc6565b505034610273578160031936011261027357602090600f549051908152f35b91905034610467576020366003190112610467578161051b7f12c476dbe611207aa496773afc1cfedb660981ebe024c62f643a0aaec9bb7569933591610ee26104e933611a65565b610ef06103e88411156115b2565b8260065554916005549351938493846040919493926060820195825260208201520152565b91905034610467578260031936011261046757610f3760ff6007541615611793565b610f3f611a14565b600a55610f4a611a02565b600b55336110e6575b3383526020600e815281842080549384156110b2578282610fcb926002600397969501548061106a575b5088610f8b6005548a611a9a565b9783828a95550155610f9f88600c546115ed565b600c55855163a9059cbb60e01b8152339181019182526020820192909252909283918291604090910190565b0381897f00000000000000000000000000000000000000000000000000000000000000006001600160a01b03165af1801561106057938095611034927f7fc4727e062e336010f2c282598ef5f14facb3de68cf8195c2f23e1454b2b74e96611043575b506115ed565b9082519485528401523392a280f35b61105990853d8711610410576104018183611834565b503861102e565b83513d88823e3d90fd5b61107e6110778483611af7565b80926115ed565b8751918252848201527f987d620f307ff6b94d58743cb7a7509f24071586a77759b77c2d4e29f75a2f9a873392a238610f7d565b835162461bcd60e51b8152908101839052600e60248201526d139bdd1a1a5b99c81cdd185ad95960921b6044820152606490fd5b6110ef33611650565b338452600e6020528184209060028201556001600a54910155610f53565b505034610273578160031936011261027357602090516127108152f35b9190503461046757366003190160a08112610463576080136104675767ffffffffffffffff91608435838111611407573660238201121561140757808201359380851161139257602490368287850101116114035761118e60ff6007541615611793565b611196611a14565b600a556111a1611a02565b600b55336113dc575b8135956111b88715156117c8565b6001600160a01b03938535858116908190036113d857857f000000000000000000000000000000000000000000000000000000000000000016036113a85786519187830183811085821117611396578852308352602083018981528a93926e22d473030f116ddee9f6b43ac78ba39290833b15611392578986928d948d519b8c988997889563187945bd60e11b875283611250611547565b16908701528d86015260443560448601526064356064860152511660848401525160a48301523360c483015261010060e483015280610104830152808a6101249401848401378181018301849052601f01601f191681010301925af1801561138857611340575b50505090610e14826112eb7f1449c6dd7851abc30abf37f57715f492010519147cc2652fbc38202c18a6ee90945486611a9a565b948591338852600e602052848820611304848254611643565b9055338852600e6020528488209060038201805415611337575b504291015561132f82600c54611643565b600c556115ed565b4290553861131e565b82969396116113775750825292610e147f1449c6dd7851abc30abf37f57715f492010519147cc2652fbc38202c18a6ee90386112b7565b634e487b7160e01b83526041865282fd5b85513d89823e3d90fd5b8580fd5b634e487b7160e01b8b5260418852858bfd5b865162461bcd60e51b8152602081880152600b818601526a2bb937b733903a37b5b2b760a91b6044820152606490fd5b8980fd5b6113e533611650565b338852600e6020528588209060028201556001600a549101556111aa565b8680fd5b8480fd5b833461077c57602036600319011261077c57610b7b611428611547565b6114346104e933611a65565b6116a1565b5050346102735781600319360112610273576020906003549051908152f35b5050346102735781600319360112610273576020905160038152f35b90503461046757602036600319011261046757356003811015610467575490516001600160a01b03909116815260209150f35b505034610273576020366003190112610273576020906105626114c8611547565b611650565b905034610467576020366003190112610467577f12c476dbe611207aa496773afc1cfedb660981ebe024c62f643a0aaec9bb75699161051b8235926115146104e933611a65565b6115226103e88511156115b2565b8360055554916006549051938493846040919493926060820195825260208201520152565b600435906001600160a01b0382168203610cf957565b34610cf9576000366003190112610cf95760206040516103e88152f35b1561158157565b60405162461bcd60e51b81526020600482015260096024820152682737ba1037bbb732b960b91b6044820152606490fd5b156115b957565b60405162461bcd60e51b815260206004820152600c60248201526b08ccaca40e8dede40d0d2ced60a31b6044820152606490fd5b919082039182116115fa57565b634e487b7160e01b600052601160045260246000fd5b818102929181159184041417156115fa57565b811561162d570490565b634e487b7160e01b600052601260045260246000fd5b919082018092116115fa57565b60018060a01b0316600052600e60205261169e60406000206002670de0b6b3a7640000611694835461168e611683611a14565b6001870154906115ed565b90611610565b0491015490611643565b90565b600191600391600160035411156117565760005b8381106116ed5760405162461bcd60e51b8152602060048201526009602482015268139bdd08199bdd5b9960ba1b6044820152606490fd5b80546001600160a01b0383811691908116821461170d57505084016116b5565b6001600160a01b03191690915583549294509291905080156115fa576000190190557f58619076adf5bb0943d100ef88d52d7c3fd691b19d3a9071b555b651fbf418da600080a2565b60405162461bcd60e51b81526020600482015260156024820152742732b2b21030ba103632b0b9ba10189037bbb732b960591b6044820152606490fd5b1561179a57565b60405162461bcd60e51b815260206004820152600660248201526514185d5cd95960d21b6044820152606490fd5b156117cf57565b60405162461bcd60e51b815260206004820152600b60248201526a16995c9bc8185b5bdd5b9d60aa1b6044820152606490fd5b6060810190811067ffffffffffffffff82111761181e57604052565b634e487b7160e01b600052604160045260246000fd5b90601f8019910116810190811067ffffffffffffffff82111761181e57604052565b90816020910312610cf957518015158103610cf95790565b600c54801580156118be575b6118b857600854906301e13380918281029281840414811517156115fa5764496cebb800029180830461271014901517156115fa5761169e91611623565b50600090565b506008541561187a565b6001600160a01b03908082169081156119ce576118e490611a65565b611999576003808054101561195f5760005b8181106119035750505050565b80548481161561191657506001016118f6565b6001600160a01b0319168317905580549192509060001981146115fa5760010190557f994a936646fe87ffe4f1e469d3d6aa417d6b855598397f323de5b449f765f0c3600080a2565b60405162461bcd60e51b815260206004820152601260248201527113585e081bdddb995c9cc81c995858da195960721b6044820152606490fd5b60405162461bcd60e51b815260206004820152600d60248201526c20b63932b0b23c9037bbb732b960991b6044820152606490fd5b60405162461bcd60e51b815260206004820152600c60248201526b5a65726f206164647265737360a01b6044820152606490fd5b60095480421060001461169e57504290565b600c548015611a5e57600a54611a37610a0c611a2e611a02565b600b54906115ed565b670de0b6b3a7640000908181029181830414901517156115fa5761169e926103c291611623565b50600a5490565b60005b60038110611a77575050600090565b80546001600160a01b03838116911614611a9357600101611a68565b5050600190565b908015611af35790611ab29161271092839183611610565b04906103e88083029083820414831517156115fa5761169e93611aee9104611ae6611add82866115ed565b91600d54611643565b600d55611b92565b6115ed565b5090565b611b0d9160006002820155600442910155611c8a565b60405163a9059cbb60e01b81523360048201526024810182905290919060208160448160006001600160a01b037f0000000000000000000000000000000000000000000000000000000000000000165af18015611b8657611b6b5750565b611b839060203d602011610410576104018183611834565b50565b6040513d6000823e3d90fd5b80158015611c80575b611b8357611bae60039160035490611623565b9060009160005b828110611bc25750505050565b805482906001600160a01b0390811680611be2575b505050600101611bb5565b6040805163a9059cbb60e01b81526001600160a01b03929092166004830152602482019390935260209290918390839060449082908b907f0000000000000000000000000000000000000000000000000000000000000000165af1908115611c775750906001939291611c59575b84929350611bd7565b81611c6f92903d10610410576104018183611834565b503880611c50565b513d88823e3d90fd5b5060035415611b9b565b6006548015611af35790611ab2916127109283918361161056fea2646970667358221220d8b54ce6a142537df8c0719d6fd9cad3aeede19eb9dd598429ad79b04ba6db5d64736f6c63430008180033",
  "linkReferences": {},
  "deployedLinkReferences": {}
}