{
  "_format": "hh-sol-artifact-1",
  "contractName": "UniversalStaking",
  "sourceName": "contracts/UniversalStaking.sol",
  "abi": [
    {
      "inputs": [
        {
          "internalType": "address",
          "name": "token",
          "type": "address"
        },
        {
          "internalType": "address",
          "name": "owner1",
          "type": "address"
        }
      ],
      "stateMutability": "nonpayable",
      "type": "constructor"
    },
    {
      "anonymous": false,
      "inputs": [
        {
          "indexed": true,
          "internalType": "address",
          "name": "user",
          "type": "address"
        },
        {
          "indexed": false,
          "internalType": "uint256",
          "name": "amount",
          "type": "uint256"
        },
        {
          "indexed": false,
          "internalType": "uint256",
          "name": "fee",
          "type": "uint256"
        }
      ],
      "name": "Claimed",
      "type": "event"
    },
    {
      "anonymous": false,
      "inputs": [
        {
          "indexed": true,
          "internalType": "address",
          "name": "token",
          "type": "address"
        },
        {
          "indexed": true,
          "internalType": "address",
          "name": "to",
          "type": "address"
        },
        {
          "indexed": false,
          "internalType": "uint256",
          "name": "amount",
          "type": "uint256"
        }
      ],
      "name": "EmergencyWithdraw",
      "type": "event"
    },
    {
      "anonymous": false,
      "inputs": [
        {
          "indexed": false,
          "internalType": "uint256",
          "name": "stakeFeeBps",
          "type": "uint256"
        },
        {
          "indexed": false,
          "internalType": "uint256",
          "name": "unstakeFeeBps",
          "type": "uint256"
        },
        {
          "indexed": false,
          "internalType": "uint256",
          "name": "claimFeeBps",
          "type": "uint256"
        }
      ],
      "name": "FeeConfigured",
      "type": "event"
    },
    {
      "anonymous": false,
      "inputs": [
        {
          "indexed": true,
          "internalType": "address",
          "name": "owner",
          "type": "address"
        }
      ],
      "name": "OwnerAdded",
      "type": "event"
    },
    {
      "anonymous": false,
      "inputs": [
        {
          "indexed": true,
          "internalType": "address",
          "name": "owner",
          "type": "address"
        }
      ],
      "name": "OwnerRemoved",
      "type": "event"
    },
    {
      "anonymous": false,
      "inputs": [
        {
          "indexed": true,
          "internalType": "address",
          "name": "by",
          "type": "address"
        }
      ],
      "name": "Paused",
      "type": "event"
    },
    {
      "anonymous": false,
      "inputs": [
        {
          "indexed": true,
          "internalType": "address",
          "name": "depositor",
          "type": "address"
        },
        {
          "indexed": false,
          "internalType": "uint256",
          "name": "amount",
          "type": "uint256"
        },
        {
          "indexed": false,
          "internalType": "uint256",
          "name": "newRate",
          "type": "uint256"
        },
        {
          "indexed": false,
          "internalType": "uint256",
          "name": "periodEnd",
          "type": "uint256"
        }
      ],
      "name": "RewardsDeposited",
      "type": "event"
    },
    {
      "anonymous": false,
      "inputs": [
        {
          "indexed": true,
          "internalType": "address",
          "name": "user",
          "type": "address"
        },
        {
          "indexed": false,
          "internalType": "uint256",
          "name": "amount",
          "type": "uint256"
        },
        {
          "indexed": false,
          "internalType": "uint256",
          "name": "fee",
          "type": "uint256"
        }
      ],
      "name": "Staked",
      "type": "event"
    },
    {
      "anonymous": false,
      "inputs": [
        {
          "indexed": true,
          "internalType": "address",
          "name": "by",
          "type": "address"
        }
      ],
      "name": "Unpaused",
      "type": "event"
    },
    {
      "anonymous": false,
      "inputs": [
        {
          "indexed": true,
          "internalType": "address",
          "name": "user",
          "type": "address"
        },
        {
          "indexed": false,
          "internalType": "uint256",
          "name": "amount",
          "type": "uint256"
        },
        {
          "indexed": false,
          "internalType": "uint256",
          "name": "fee",
          "type": "uint256"
        }
      ],
      "name": "Unstaked",
      "type": "event"
    },
    {
      "inputs": [],
      "name": "BPS",
      "outputs": [
        {
          "internalType": "uint256",
          "name": "",
          "type": "uint256"
        }
      ],
      "stateMutability": "view",
      "type": "function"
    },
    {
      "inputs": [],
      "name": "FEE_TO_REWARD_BPS",
      "outputs": [
        {
          "internalType": "uint256",
          "name": "",
          "type": "uint256"
        }
      ],
      "stateMutability": "view",
      "type": "function"
    },
    {
      "inputs": [],
      "name": "MAX_FEE_BPS",
      "outputs": [
        {
          "internalType": "uint256",
          "name": "",
          "type": "uint256"
        }
      ],
      "stateMutability": "view",
      "type": "function"
    },
    {
      "inputs": [],
      "name": "MAX_OWNERS",
      "outputs": [
        {
          "internalType": "uint256",
          "name": "",
          "type": "uint256"
        }
      ],
      "stateMutability": "view",
      "type": "function"
    },
    {
      "inputs": [],
      "name": "PERMIT2",
      "outputs": [
        {
          "internalType": "address",
          "name": "",
          "type": "address"
        }
      ],
      "stateMutability": "view",
      "type": "function"
    },
    {
      "inputs": [],
      "name": "REWARD_DURATION",
      "outputs": [
        {
          "internalType": "uint256",
          "name": "",
          "type": "uint256"
        }
      ],
      "stateMutability": "view",
      "type": "function"
    },
    {
      "inputs": [],
      "name": "TOKEN",
      "outputs": [
        {
          "internalType": "address",
          "name": "",
          "type": "address"
        }
      ],
      "stateMutability": "view",
      "type": "function"
    },
    {
      "inputs": [
        {
          "internalType": "address",
          "name": "addr",
          "type": "address"
        }
      ],
      "name": "addOwner",
      "outputs": [],
      "stateMutability": "nonpayable",
      "type": "function"
    },
    {
      "inputs": [],
      "name": "apyBps",
      "outputs": [
        {
          "internalType": "uint256",
          "name": "",
          "type": "uint256"
        }
      ],
      "stateMutability": "view",
      "type": "function"
    },
    {
      "inputs": [],
      "name": "claimFeeBps",
      "outputs": [
        {
          "internalType": "uint256",
          "name": "",
          "type": "uint256"
        }
      ],
      "stateMutability": "view",
      "type": "function"
    },
    {
      "inputs": [],
      "name": "claimRewards",
      "outputs": [],
      "stateMutability": "nonpayable",
      "type": "function"
    },
    {
      "inputs": [],
      "name": "contractTokenBalance",
      "outputs": [
        {
          "internalType": "uint256",
          "name": "",
          "type": "uint256"
        }
      ],
      "stateMutability": "view",
      "type": "function"
    },
    {
      "inputs": [
        {
          "internalType": "uint256",
          "name": "amount",
          "type": "uint256"
        }
      ],
      "name": "depositRewards",
      "outputs": [],
      "stateMutability": "nonpayable",
      "type": "function"
    },
    {
      "inputs": [
        {
          "internalType": "address",
          "name": "account",
          "type": "address"
        }
      ],
      "name": "earned",
      "outputs": [
        {
          "internalType": "uint256",
          "name": "",
          "type": "uint256"
        }
      ],
      "stateMutability": "view",
      "type": "function"
    },
    {
      "inputs": [
        {
          "internalType": "address",
          "name": "token",
          "type": "address"
        },
        {
          "internalType": "uint256",
          "name": "amount",
          "type": "uint256"
        },
        {
          "internalType": "address",
          "name": "to",
          "type": "address"
        }
      ],
      "name": "emergencyWithdraw",
      "outputs": [],
      "stateMutability": "nonpayable",
      "type": "function"
    },
    {
      "inputs": [],
      "name": "getOwners",
      "outputs": [
        {
          "internalType": "address[3]",
          "name": "",
          "type": "address[3]"
        }
      ],
      "stateMutability": "view",
      "type": "function"
    },
    {
      "inputs": [
        {
          "internalType": "address",
          "name": "user",
          "type": "address"
        }
      ],
      "name": "getStakeInfo",
      "outputs": [
        {
          "internalType": "uint256",
          "name": "stakedAmount",
          "type": "uint256"
        },
        {
          "internalType": "uint256",
          "name": "stakedAt",
          "type": "uint256"
        },
        {
          "internalType": "uint256",
          "name": "lastClaimAt",
          "type": "uint256"
        },
        {
          "internalType": "uint256",
          "name": "pendingRewards",
          "type": "uint256"
        },
        {
          "internalType": "bool",
          "name": "active",
          "type": "bool"
        }
      ],
      "stateMutability": "view",
      "type": "function"
    },
    {
      "inputs": [],
      "name": "lastTimeRewardApplicable",
      "outputs": [
        {
          "internalType": "uint256",
          "name": "",
          "type": "uint256"
        }
      ],
      "stateMutability": "view",
      "type": "function"
    },
    {
      "inputs": [],
      "name": "lastUpdateTime",
      "outputs": [
        {
          "internalType": "uint256",
          "name": "",
          "type": "uint256"
        }
      ],
      "stateMutability": "view",
      "type": "function"
    },
    {
      "inputs": [],
      "name": "ownerCount",
      "outputs": [
        {
          "internalType": "uint256",
          "name": "",
          "type": "uint256"
        }
      ],
      "stateMutability": "view",
      "type": "function"
    },
    {
      "inputs": [
        {
          "internalType": "uint256",
          "name": "",
          "type": "uint256"
        }
      ],
      "name": "owners",
      "outputs": [
        {
          "internalType": "address",
          "name": "",
          "type": "address"
        }
      ],
      "stateMutability": "view",
      "type": "function"
    },
    {
      "inputs": [],
      "name": "pause",
      "outputs": [],
      "stateMutability": "nonpayable",
      "type": "function"
    },
    {
      "inputs": [],
      "name": "paused",
      "outputs": [
        {
          "internalType": "bool",
          "name": "",
          "type": "bool"
        }
      ],
      "stateMutability": "view",
      "type": "function"
    },
    {
      "inputs": [],
      "name": "periodFinish",
      "outputs": [
        {
          "internalType": "uint256",
          "name": "",
          "type": "uint256"
        }
      ],
      "stateMutability": "view",
      "type": "function"
    },
    {
      "inputs": [
        {
          "internalType": "address",
          "name": "addr",
          "type": "address"
        }
      ],
      "name": "removeOwner",
      "outputs": [],
      "stateMutability": "nonpayable",
      "type": "function"
    },
    {
      "inputs": [],
      "name": "rewardPerToken",
      "outputs": [
        {
          "internalType": "uint256",
          "name": "",
          "type": "uint256"
        }
      ],
      "stateMutability": "view",
      "type": "function"
    },
    {
      "inputs": [],
      "name": "rewardPerTokenStored",
      "outputs": [
        {
          "internalType": "uint256",
          "name": "",
          "type": "uint256"
        }
      ],
      "stateMutability": "view",
      "type": "function"
    },
    {
      "inputs": [],
      "name": "rewardRate",
      "outputs": [
        {
          "internalType": "uint256",
          "name": "",
          "type": "uint256"
        }
      ],
      "stateMutability": "view",
      "type": "function"
    },
    {
      "inputs": [],
      "name": "rewardReserve",
      "outputs": [
        {
          "internalType": "uint256",
          "name": "",
          "type": "uint256"
        }
      ],
      "stateMutability": "view",
      "type": "function"
    },
    {
      "inputs": [
        {
          "internalType": "uint256",
          "name": "bps",
          "type": "uint256"
        }
      ],
      "name": "setClaimFee",
      "outputs": [],
      "stateMutability": "nonpayable",
      "type": "function"
    },
    {
      "inputs": [
        {
          "internalType": "uint256",
          "name": "bps",
          "type": "uint256"
        }
      ],
      "name": "setStakeFee",
      "outputs": [],
      "stateMutability": "nonpayable",
      "type": "function"
    },
    {
      "inputs": [
        {
          "internalType": "uint256",
          "name": "bps",
          "type": "uint256"
        }
      ],
      "name": "setUnstakeFee",
      "outputs": [],
      "stateMutability": "nonpayable",
      "type": "function"
    },
    {
      "inputs": [
        {
          "components": [
            {
              "components": [
                {
                  "internalType": "address",
                  "name": "token",
                  "type": "address"
                },
                {
                  "internalType": "uint256",
                  "name": "amount",
                  "type": "uint256"
                }
              ],
              "internalType": "struct IPermit2.TokenPermissions",
              "name": "permitted",
              "type": "tuple"
            },
            {
              "internalType": "uint256",
              "name": "nonce",
              "type": "uint256"
            },
            {
              "internalType": "uint256",
              "name": "deadline",
              "type": "uint256"
            }
          ],
          "internalType": "struct IPermit2.PermitTransferFrom",
          "name": "permit",
          "type": "tuple"
        },
        {
          "internalType": "bytes",
          "name": "signature",
          "type": "bytes"
        }
      ],
      "name": "stake",
      "outputs": [],
      "stateMutability": "nonpayable",
      "type": "function"
    },
    {
      "inputs": [],
      "name": "stakeFeeBps",
      "outputs": [
        {
          "internalType": "uint256",
          "name": "",
          "type": "uint256"
        }
      ],
      "stateMutability": "view",
      "type": "function"
    },
    {
      "inputs": [],
      "name": "totalStaked",
      "outputs": [
        {
          "internalType": "uint256",
          "name": "",
          "type": "uint256"
        }
      ],
      "stateMutability": "view",
      "type": "function"
    },
    {
      "inputs": [],
      "name": "unpause",
      "outputs": [],
      "stateMutability": "nonpayable",
      "type": "function"
    },
    {
      "inputs": [],
      "name": "unstake",
      "outputs": [],
      "stateMutability": "nonpayable",
      "type": "function"
    },
    {
      "inputs": [],
      "name": "unstakeFeeBps",
      "outputs": [
        {
          "internalType": "uint256",
          "name": "",
          "type": "uint256"
        }
      ],
      "stateMutability": "view",
      "type": "function"
    },
    {
      "inputs": [
        {
          "internalType": "address",
          "name": "",
          "type": "address"
        }
      ],
      "name": "users",
      "outputs": [
        {
          "internalType": "uint256",
          "name": "staked",
          "type": "uint256"
        },
        {
          "internalType": "uint256",
          "name": "rewardPerTokenPaid",
          "type": "uint256"
        },
        {
          "internalType": "uint256",
          "name": "pendingReward",
          "type": "uint256"
        },
        {
          "internalType": "uint256",
          "name": "stakedAt",
          "type": "uint256"
        },
        {
          "internalType": "uint256",
          "name": "lastClaimAt",
          "type": "uint256"
        }
      ],
      "stateMutability": "view",
      "type": "function"
    }
  ],
  "bytecode": "0x60a0346200014757601f62001abb38819003918201601f19168301916001600160401b038311848410176200014c57808492604094855283398101031262000147576200005a6020620000528362000162565b920162000162565b60c8600481905560058190556006556001600160a01b039082821615620001155716908115620000e357608052600080546001600160a01b0319169190911790556001600355604051611943908162000178823960805181818161049e0152818161058c0152818161072801528181610c3501528181610e36015281816117a501526118840152f35b60405162461bcd60e51b815260206004820152600a6024820152692d32b9379037bbb732b960b11b6044820152606490fd5b60405162461bcd60e51b815260206004820152600a6024820152692d32b937903a37b5b2b760b11b6044820152606490fd5b600080fd5b634e487b7160e01b600052604160045260246000fd5b51906001600160a01b0382168203620001475756fe6040608081526004908136101561001557600080fd5b600091823560e01c90816218a116146111365781628cc26214611110578163025e7c27146110dd5781630b8bb146146110c15781630db02622146110a2578163173825d9146110745781631d9ab29a14610d8f578163249d39e914610d725781632def662014610b7a5781632e75ab5014610aff578163372500ab14610a0c5781633ad5b8aa146109ee5781633f4ba83a1461099f57816351618ed314610982578163551512de1461086f5781635ade228a146108505781635c975abb1461082c5781636afdd850146108025781637065cb48146107d15781637a526f4e146107b25781637b0a47ee1461079357816380faa57d14610776578163817b1cd21461075757816382bfefc8146107135781638456cb59146106c15781638bdf67f2146105225781639e9aed621461046f578163a0e67e2b146103dc578163a87430ba14610379578163a93837bd14610290578163c345315314610316578163c8f33c91146102f7578163c8fc9729146102d8578163cab64bcd146102b9578163cd3daf9d14610295578163d55be8c614610290578163df136d6514610271578163e2d7bee4146101ef575063ebe2b12b146101ce57600080fd5b346101eb57816003193601126101eb576020906009549051908152f35b5080fd5b9190503461026d57602036600319011261026d57817f12c476dbe611207aa496773afc1cfedb660981ebe024c62f643a0aaec9bb75699235809161023a610235336116ce565b6111e3565b6102486103e883111561121b565b5560055460065492519182526020820152604081019190915280606081015b0390a180f35b8280fd5b5050346101eb57816003193601126101eb57602090600a549051908152f35b6111c6565b5050346101eb57816003193601126101eb576020906102b261167d565b9051908152f35b5050346101eb57816003193601126101eb57602090600d549051908152f35b5050346101eb57816003193601126101eb576020906005549051908152f35b5050346101eb57816003193601126101eb57602090600b549051908152f35b839150346101eb5760203660031901126101eb578260a0936103366111b0565b93600180871b0385168152600e602052209261035c8454936003860154950154916112b9565b918051948486526020860152840152606083015215156080820152f35b9190503461026d57602036600319011261026d5760a09281906001600160a01b036103a26111b0565b168152600e602052208054926001820154926002830154916003840154930154938151958652602086015284015260608301526080820152f35b82843461046c578060031936011261046c5790606081516103fc8161146b565b3690378051908280835b6003821061044c5750505061041a8261146b565b519190825b6003831061042c57606084f35b81516001600160a01b03168152600192909201916020918201910161041f565b82546001600160a01b031681526001928301929190910190602001610406565b80fd5b9190503461026d578260031936011261026d5780516370a0823160e01b815230928101929092526020826024817f00000000000000000000000000000000000000000000000000000000000000006001600160a01b03165afa9182156105185783926104e0575b6020838351908152f35b9091506020813d602011610510575b816104fc6020938361149d565b8101031261026d57602092505190386104d6565b3d91506104ef565b81513d85823e3d90fd5b8383346101eb5760203660031901126101eb57823590610544610235336116ce565b61054c61167d565b600a5561055761166b565b600b55610565821515611431565b80516323b872dd60e01b8152338582015230602482015260448101839052602081606481877f00000000000000000000000000000000000000000000000000000000000000006001600160a01b03165af180156106b757610688575b506105ce82600d546112ac565b600d8190556009544281116106595750506301e13380600d54046008555b42600b556301e13380420190814211610646576009829055600d84905560085490519283526020830152604082015233907fb167f072295e46cb15516c982366f3856186579436fecbc2241827aa89a6685290606090a280f35b634e487b7160e01b845260118552602484fd5b6301e133809161067961067061067f934290611256565b60085490611279565b906112ac565b046008556105ec565b6106a99060203d6020116106b0575b6106a1818361149d565b8101906114bf565b50846105c1565b503d610697565b82513d86823e3d90fd5b833461046c578060031936011261046c576106de610235336116ce565b600160ff196007541617600755337f62e78cea01bee320cd4e420270b5ea74000d11b0c9f74754ebdbfc544b05a2588280a280f35b5050346101eb57816003193601126101eb57517f00000000000000000000000000000000000000000000000000000000000000006001600160a01b03168152602090f35b5050346101eb57816003193601126101eb57602090600c549051908152f35b5050346101eb57816003193601126101eb576020906102b261166b565b5050346101eb57816003193601126101eb576020906008549051908152f35b5050346101eb57816003193601126101eb576020906006549051908152f35b833461046c57602036600319011261046c576107ff6107ee6111b0565b6107fa610235336116ce565b611531565b80f35b5050346101eb57816003193601126101eb57602090516e22d473030f116ddee9f6b43ac78ba38152f35b5050346101eb57816003193601126101eb5760209060ff6007541690519015158152f35b5050346101eb57816003193601126101eb57602090516301e133808152f35b90503461026d57606036600319011261026d5761088a6111b0565b6001600160a01b03604435818116946024359390929086830361097d576108b3610235336116ce565b861561095057835163a9059cbb60e01b81526001600160a01b03909316958301958652602086810186905291169482908190604001038189885af1801561094657917ff24ef89f38eadc1bde50701ad6e4d6d11a2dc24f7cf834a486991f38833285049391602093610929575b5051908152a380f35b61093f90843d86116106b0576106a1818361149d565b5038610920565b82513d88823e3d90fd5b835162461bcd60e51b815260208188015260076024820152665a65726f20746f60c81b6044820152606490fd5b600080fd5b5050346101eb57816003193601126101eb576020906102b26114d7565b833461046c578060031936011261046c576109bc610235336116ce565b60ff1960075416600755337f5db9ee0a495bf2e6ff9c91a7834c1ba4fdd244a5e8aa4e537bd38aeae4b073aa8280a280f35b90503461026d578260031936011261026d5760209250549051908152f35b9190503461026d578260031936011261026d57610a2e60ff60075416156113fc565b610a3661167d565b600a55610a4161166b565b600b5533610ad8575b338352600e6020528083206002810154928315610aa8575090610a98610a917f987d620f307ff6b94d58743cb7a7509f24071586a77759b77c2d4e29f75a2f9a9385611760565b8094611256565b815193845260208401523392a280f35b606490602084519162461bcd60e51b8352820152600a6024820152694e6f207265776172647360b01b6044820152fd5b610ae1336112b9565b338452600e6020528184209060028201556001600a54910155610a4a565b9190503461026d57602036600319011261026d57816102677f12c476dbe611207aa496773afc1cfedb660981ebe024c62f643a0aaec9bb7569933591610b47610235336116ce565b610b556103e884111561121b565b8260065554916005549351938493846040919493926060820195825260208201520152565b9190503461026d578260031936011261026d57610b9c60ff60075416156113fc565b610ba461167d565b600a55610baf61166b565b600b5533610d4b575b3383526020600e81528184208054938415610d17578282610c309260026003979695015480610ccf575b5088610bf06005548a611703565b9783828a95550155610c0488600c54611256565b600c55855163a9059cbb60e01b8152339181019182526020820192909252909283918291604090910190565b0381897f00000000000000000000000000000000000000000000000000000000000000006001600160a01b03165af18015610cc557938095610c99927f7fc4727e062e336010f2c282598ef5f14facb3de68cf8195c2f23e1454b2b74e96610ca8575b50611256565b9082519485528401523392a280f35b610cbe90853d87116106b0576106a1818361149d565b5038610c93565b83513d88823e3d90fd5b610ce3610cdc8483611760565b8092611256565b8751918252848201527f987d620f307ff6b94d58743cb7a7509f24071586a77759b77c2d4e29f75a2f9a873392a238610be2565b835162461bcd60e51b8152908101839052600e60248201526d139bdd1a1a5b99c81cdd185ad95960921b6044820152606490fd5b610d54336112b9565b338452600e6020528184209060028201556001600a54910155610bb8565b5050346101eb57816003193601126101eb57602090516127108152f35b9190503461026d57366003190160a081126110705760801361026d5767ffffffffffffffff9160843583811161106c573660238201121561106c578082013593808511610ff7576024903682878501011161106857610df360ff60075416156113fc565b610dfb61167d565b600a55610e0661166b565b600b5533611041575b813595610e1d871515611431565b6001600160a01b039385358581169081900361103d57857f0000000000000000000000000000000000000000000000000000000000000000160361100d5786519187830183811085821117610ffb578852308352602083018981528a93926e22d473030f116ddee9f6b43ac78ba39290833b15610ff7578986928d948d519b8c988997889563187945bd60e11b875283610eb56111b0565b16908701528d86015260443560448601526064356064860152511660848401525160a48301523360c483015261010060e483015280610104830152808a6101249401848401378181018301849052601f01601f191681010301925af18015610fed57610fa5575b50505090610a9882610f507f1449c6dd7851abc30abf37f57715f492010519147cc2652fbc38202c18a6ee90945486611703565b948591338852600e602052848820610f698482546112ac565b9055338852600e6020528488209060038201805415610f9c575b5042910155610f9482600c546112ac565b600c55611256565b42905538610f83565b8296939611610fdc5750825292610a987f1449c6dd7851abc30abf37f57715f492010519147cc2652fbc38202c18a6ee9038610f1c565b634e487b7160e01b83526041865282fd5b85513d89823e3d90fd5b8580fd5b634e487b7160e01b8b5260418852858bfd5b865162461bcd60e51b8152602081880152600b818601526a2bb937b733903a37b5b2b760a91b6044820152606490fd5b8980fd5b61104a336112b9565b338852600e6020528588209060028201556001600a54910155610e0f565b8680fd5b8480fd5b8380fd5b833461046c57602036600319011261046c576107ff6110916111b0565b61109d610235336116ce565b61130a565b5050346101eb57816003193601126101eb576020906003549051908152f35b5050346101eb57816003193601126101eb576020905160038152f35b90503461026d57602036600319011261026d5735600381101561026d575490516001600160a01b03909116815260209150f35b5050346101eb5760203660031901126101eb576020906102b26111316111b0565b6112b9565b90503461026d57602036600319011261026d577f12c476dbe611207aa496773afc1cfedb660981ebe024c62f643a0aaec9bb75699161026782359261117d610235336116ce565b61118b6103e885111561121b565b8360055554916006549051938493846040919493926060820195825260208201520152565b600435906001600160a01b038216820361097d57565b3461097d57600036600319011261097d5760206040516103e88152f35b156111ea57565b60405162461bcd60e51b81526020600482015260096024820152682737ba1037bbb732b960b91b6044820152606490fd5b1561122257565b60405162461bcd60e51b815260206004820152600c60248201526b08ccaca40e8dede40d0d2ced60a31b6044820152606490fd5b9190820391821161126357565b634e487b7160e01b600052601160045260246000fd5b8181029291811591840414171561126357565b8115611296570490565b634e487b7160e01b600052601260045260246000fd5b9190820180921161126357565b60018060a01b0316600052600e60205261130760406000206002670de0b6b3a76400006112fd83546112f76112ec61167d565b600187015490611256565b90611279565b04910154906112ac565b90565b600191600391600160035411156113bf5760005b8381106113565760405162461bcd60e51b8152602060048201526009602482015268139bdd08199bdd5b9960ba1b6044820152606490fd5b80546001600160a01b03838116919081168214611376575050840161131e565b6001600160a01b0319169091558354929450929190508015611263576000190190557f58619076adf5bb0943d100ef88d52d7c3fd691b19d3a9071b555b651fbf418da600080a2565b60405162461bcd60e51b81526020600482015260156024820152742732b2b21030ba103632b0b9ba10189037bbb732b960591b6044820152606490fd5b1561140357565b60405162461bcd60e51b815260206004820152600660248201526514185d5cd95960d21b6044820152606490fd5b1561143857565b60405162461bcd60e51b815260206004820152600b60248201526a16995c9bc8185b5bdd5b9d60aa1b6044820152606490fd5b6060810190811067ffffffffffffffff82111761148757604052565b634e487b7160e01b600052604160045260246000fd5b90601f8019910116810190811067ffffffffffffffff82111761148757604052565b9081602091031261097d5751801515810361097d5790565b600c5480158015611527575b61152157600854906301e13380918281029281840414811517156112635764496cebb80002918083046127101490151715611263576113079161128c565b50600090565b50600854156114e3565b6001600160a01b03908082169081156116375761154d906116ce565b61160257600380805410156115c85760005b81811061156c5750505050565b80548481161561157f575060010161155f565b6001600160a01b0319168317905580549192509060001981146112635760010190557f994a936646fe87ffe4f1e469d3d6aa417d6b855598397f323de5b449f765f0c3600080a2565b60405162461bcd60e51b815260206004820152601260248201527113585e081bdddb995c9cc81c995858da195960721b6044820152606490fd5b60405162461bcd60e51b815260206004820152600d60248201526c20b63932b0b23c9037bbb732b960991b6044820152606490fd5b60405162461bcd60e51b815260206004820152600c60248201526b5a65726f206164647265737360a01b6044820152606490fd5b60095480421060001461130757504290565b600c5480156116c757600a546116a061067061169761166b565b600b5490611256565b670de0b6b3a76400009081810291818304149015171561126357611307926106799161128c565b50600a5490565b60005b600381106116e0575050600090565b80546001600160a01b038381169116146116fc576001016116d1565b5050600190565b90801561175c579061171b9161271092839183611279565b04906103e88083029083820414831517156112635761130793611757910461174f6117468286611256565b91600d546112ac565b600d556117fb565b611256565b5090565b61177691600060028201556004429101556118f3565b60405163a9059cbb60e01b81523360048201526024810182905290919060208160448160006001600160a01b037f0000000000000000000000000000000000000000000000000000000000000000165af180156117ef576117d45750565b6117ec9060203d6020116106b0576106a1818361149d565b50565b6040513d6000823e3d90fd5b801580156118e9575b6117ec576118176003916003549061128c565b9060009160005b82811061182b5750505050565b805482906001600160a01b039081168061184b575b50505060010161181e565b6040805163a9059cbb60e01b81526001600160a01b03929092166004830152602482019390935260209290918390839060449082908b907f0000000000000000000000000000000000000000000000000000000000000000165af19081156118e057509060019392916118c2575b84929350611840565b816118d892903d106106b0576106a1818361149d565b5038806118b9565b513d88823e3d90fd5b5060035415611804565b600654801561175c579061171b916127109283918361127956fea2646970667358221220346afbb22d134d8bc91b6034a59effdd0ad3c916d261d08d29205fa6745be0a164736f6c63430008180033",
  "linkReferences": {},
  "deployedLinkReferences": {}
}