{"contracts/H2OVIPSubscription.sol":{"H2OVIPSubscription":{"abi":[{"inputs":[{"internalType":"address","name":"_uth2","type":"address"},{"internalType":"address","name":"_h2o","type":"address"}],"stateMutability":"nonpayable","type":"constructor"},{"inputs":[],"name":"H2O","outputs":[{"internalType":"address","name":"","type":"address"}],"stateMutability":"view","type":"function"},{"inputs":[],"name":"UTH2","outputs":[{"internalType":"address","name":"","type":"address"}],"stateMutability":"view","type":"function"},{"inputs":[{"internalType":"address","name":"addr","type":"address"}],"name":"addOwner","outputs":[],"stateMutability":"nonpayable","type":"function"},{"inputs":[{"internalType":"uint256","name":"months_","type":"uint256"},{"components":[{"components":[{"internalType":"address","name":"token","type":"address"},{"internalType":"uint256","name":"amount","type":"uint256"}],"internalType":"struct IPermit2.TokenPermissions","name":"permitted","type":"tuple"},{"internalType":"uint256","name":"nonce","type":"uint256"},{"internalType":"uint256","name":"deadline","type":"uint256"}],"internalType":"struct IPermit2.PermitTransferFrom","name":"permit","type":"tuple"},{"internalType":"bytes","name":"sig","type":"bytes"}],"name":"buyVIPWithPermit2","outputs":[],"stateMutability":"nonpayable","type":"function"},{"inputs":[],"name":"claimOwnerVip","outputs":[],"stateMutability":"nonpayable","type":"function"},{"inputs":[{"internalType":"uint256","name":"amount","type":"uint256"}],"name":"distributeH2ORewards","outputs":[],"stateMutability":"nonpayable","type":"function"},{"inputs":[{"internalType":"address","name":"user","type":"address"},{"internalType":"uint256","name":"months_","type":"uint256"}],"name":"grantVIP","outputs":[],"stateMutability":"nonpayable","type":"function"},{"inputs":[{"internalType":"address","name":"","type":"address"}],"name":"holderShares","outputs":[{"internalType":"uint256","name":"","type":"uint256"}],"stateMutability":"view","type":"function"},{"inputs":[{"internalType":"address","name":"user","type":"address"}],"name":"isVIP","outputs":[{"internalType":"bool","name":"","type":"bool"}],"stateMutability":"view","type":"function"},{"inputs":[{"internalType":"uint256","name":"","type":"uint256"}],"name":"owners","outputs":[{"internalType":"address","name":"","type":"address"}],"stateMutability":"view","type":"function"},{"inputs":[{"internalType":"address","name":"user","type":"address"}],"name":"pendingReward","outputs":[{"internalType":"uint256","name":"","type":"uint256"}],"stateMutability":"view","type":"function"},{"inputs":[{"internalType":"address","name":"","type":"address"}],"name":"rewardDebt","outputs":[{"internalType":"uint256","name":"","type":"uint256"}],"stateMutability":"view","type":"function"},{"inputs":[],"name":"rewardPerShare","outputs":[{"internalType":"uint256","name":"","type":"uint256"}],"stateMutability":"view","type":"function"},{"inputs":[{"internalType":"uint256","name":"price_","type":"uint256"}],"name":"setVipPrice","outputs":[],"stateMutability":"nonpayable","type":"function"},{"inputs":[],"name":"totalHolderShares","outputs":[{"internalType":"uint256","name":"","type":"uint256"}],"stateMutability":"view","type":"function"},{"inputs":[],"name":"vipDuration","outputs":[{"internalType":"uint256","name":"","type":"uint256"}],"stateMutability":"view","type":"function"},{"inputs":[{"internalType":"address","name":"","type":"address"}],"name":"vipExpire","outputs":[{"internalType":"uint256","name":"","type":"uint256"}],"stateMutability":"view","type":"function"},{"inputs":[],"name":"vipPrice","outputs":[{"internalType":"uint256","name":"","type":"uint256"}],"stateMutability":"view","type":"function"},{"inputs":[{"internalType":"uint256","name":"amount","type":"uint256"}],"name":"withdrawH2O","outputs":[],"stateMutability":"nonpayable","type":"function"},{"inputs":[{"internalType":"uint256","name":"amount","type":"uint256"}],"name":"withdrawUTH2","outputs":[],"stateMutability":"nonpayable","type":"function"}],"evm":{"bytecode":{"linkReferences":{},"object":"60c03461010d57601f610fc638819003918201601f19168301916001600160401b0383118484101761011257808492604094855283398101031261010d57610052602061004b83610128565b9201610128565b90670de0b6b3a764000060015562278d0060025560805260a0526000805490680100000000000000008210156100f957600182018082558210156100e557808052602090200180546001600160a01b03191633179055604051610e89908161013d8239608051818181610159015281816103d80152610a06015260a0518181816101120152818161029c01526104ad0152f35b634e487b7160e01b81526032600452602490fd5b634e487b7160e01b81526041600452602490fd5b600080fd5b634e487b7160e01b600052604160045260246000fd5b51906001600160a01b038216820361010d5756fe6040608081526004908136101561001557600080fd5b600091823560e01c908163025e7c2714610c5a5781633711b23f14610c3b57816337ef4b1514610975578163446a2ec814610956578163497101e9146108345781635873eb9b146107fc5781637065cb481461073d578163765d6b7414610707578163991bbde7146106cf578163a0933701146106b0578163a195aabd14610644578163a598150414610520578163aa4dc5ca14610474578163beb02ee314610378578163cb8304691461020b57508063f40f0f52146101df578063f4201c3c146101a6578063f49c622914610188578063f6c08a2e146101455763feaa524d146100ff57600080fd5b34610141578160031936011261014157517f00000000000000000000000000000000000000000000000000000000000000006001600160a01b03168152602090f35b5080fd5b5034610141578160031936011261014157517f00000000000000000000000000000000000000000000000000000000000000006001600160a01b03168152602090f35b50346101415781600319360112610141576020906005549051908152f35b50346101415760203660031901126101415760209181906001600160a01b036101cd610ce4565b16815260038452205490519042108152f35b5034610141576020366003190112610141576020906102046101ff610ce4565b610e07565b9051908152f35b83833461014157816003193601126101415733825260209083825280832054801561034257670de0b6b3a764000061025a60065492338752600786526102548588205485610dfa565b90610d3c565b0490811561030c57338086526007855283862091909155825163a9059cbb60e01b815280870191825260208201929092529091908390839081906040010381877f00000000000000000000000000000000000000000000000000000000000000006001600160a01b03165af190811561030357506102d6578280f35b816102f592903d106102fc575b6102ed8183610d65565b810190610de2565b5081808280f35b503d6102e3565b513d85823e3d90fd5b825162461bcd60e51b8152808701859052601060248201526f6e6f7468696e6720746f20636c61696d60801b6044820152606490fd5b815162461bcd60e51b8152808601849052601060248201526f3737ba1030902b24a8103437b63232b960811b6044820152606490fd5b91905034610470576020366003190112610470578291838454905b818110610437575b50506020906103ac6103d394610daa565b825163a9059cbb60e01b815233828201908152913560208301529384918291604090910190565b0381867f00000000000000000000000000000000000000000000000000000000000000006001600160a01b03165af190811561042e5750610412575080f35b61042a9060203d6020116102fc576102ed8183610d65565b5080f35b513d84823e3d90fd5b61044081610c9a565b905460039190911b1c6001600160a01b0316331461046057600101610393565b50600193508190506103ac61039b565b8280fd5b91905034610470576020366003190112610470578291838454905b8181106104e7575b50506020906103ac6104a894610daa565b0381867f00000000000000000000000000000000000000000000000000000000000000006001600160a01b03165af190811561042e5750610412575080f35b6104f081610c9a565b905460039190911b1c6001600160a01b031633146105105760010161048f565b50600193508190506103ac610497565b82843461064157602036600319011261064157805491833582805b858110610607575b506105519192939450610daa565b6005549182156105d057811561059d5750670de0b6b3a76400008082029182040361058a57906105849104600654610d9d565b60065580f35b634e487b7160e01b835260118452602483fd5b5162461bcd60e51b8152602081860152600e60248201526d616d6f756e74206973207a65726f60901b6044820152606490fd5b5162461bcd60e51b815260208186015260126024820152711b9bc8159254081a1bdb19195c9cc81e595d60721b6044820152606490fd5b61061081610c9a565b905460039190911b1c6001600160a01b031633146106305760010161053b565b509293508392506001610551610543565b80fd5b8390346101415760203660031901126101415781549082805b838110610677575b848361067084610daa565b3560015580f35b61068081610c9a565b905460039190911b1c6001600160a01b031633146106a05760010161065d565b5050905061067060018291610665565b5050346101415781600319360112610141576020906002549051908152f35b5050346101415760203660031901126101415760209181906001600160a01b036106f7610ce4565b1681526003845220549051908152f35b9050346104705760203660031901126104705760209282916001600160a01b0361072f610ce4565b168252845220549051908152f35b83903461014157602036600319011261014157610758610ce4565b82548392835b8281106107c6575b5090919261077390610daa565b680100000000000000008210156107b3575080600161079492018455610c9a565b60018060a09493941b038084549260031b9316831b921b191617905580f35b634e487b7160e01b845260419052602483fd5b6107cf81610c9a565b905460039190911b1c6001600160a01b031633146107ef5760010161075e565b5060019350610773610766565b5050346101415760203660031901126101415760209181906001600160a01b03610824610ce4565b1681526007845220549051908152f35b90503461047057816003193601126104705761084e610ce4565b91602435918493858654905b81811061091b575b50506108736108b292939495610daa565b61087e851515610cff565b6001600160a01b031680865260036020528386205490949042811115610910576108ac90915b600254610d3c565b90610d9d565b838552600360205282852055806020528184208054156108d0578480f35b6001905560055490600182018092116108fd57506005556006549183526007602052822055388080808480f35b634e487b7160e01b855260119052602484fd5b506108ac42916108a4565b61092481610c9a565b905460039190911b1c6001600160a01b031633146109445760010161085a565b506001955061087390506108b2610862565b5050346101415781600319360112610141576020906006549051908152f35b9050346104705760c03660031901126104705780356080366023190112610c375767ffffffffffffffff9060a435828111610c335736602382011215610c33578084013592808411610c2f5760249336858285010111610ba75783151580610c24575b6109e190610cff565b6109ed84600154610d3c565b9085356001600160a01b0381811691829003610c2057807f0000000000000000000000000000000000000000000000000000000000000000168203610bf05760443595848710610bbd578a518b810181811088821117610bab578c52308152602081019586528c95946e22d473030f116ddee9f6b43ac78ba39493929190853b15610ba7578b9688948f938f94519c8d9a8b998a9763187945bd60e11b895288015286015260643560448601526084356064860152511660848401525160a48301523360c483015261010060e483015280610104830152808c6101249401848401378181018301849052601f01601f191681010301925af18015610b9d57610b77575b5050610b1990338652600360205284862054428111600014610910576108ac9091600254610d3c565b33855260036020528385205581602052828420805415610b37578480f35b600190556005549160018301809311610b66575050600555600654903383526007602052822055388080808480f35b634e487b7160e01b85526011905283fd5b8196929611610b8c57845293610b1938610af0565b50634e487b7160e01b815260418352fd5b86513d89823e3d90fd5b8780fd5b634e487b7160e01b8e5260418c528a8efd5b8a5162461bcd60e51b81526020818c0152600e818b01526d616d6f756e7420746f6f206c6f7760901b6044820152606490fd5b895162461bcd60e51b81526020818b0152600b818a01526a3bb937b733903a37b5b2b760a91b6044820152606490fd5b8a80fd5b50600c8411156109d8565b8680fd5b8580fd5b8380fd5b5050346101415781600319360112610141576020906001549051908152f35b90503461047057602036600319011261047057359180548310156106415750610c84602092610c9a565b905491519160018060a01b039160031b1c168152f35b906000918254811015610cd0578280527f290decd9548b62a8d60345a988386fc84ba6bc95484008f6362f93160ef3e563019190565b634e487b7160e01b83526032600452602483fd5b600435906001600160a01b0382168203610cfa57565b600080fd5b15610d0657565b60405162461bcd60e51b815260206004820152600e60248201526d696e76616c6964206d6f6e74687360901b6044820152606490fd5b81810292918115918404141715610d4f57565b634e487b7160e01b600052601160045260246000fd5b90601f8019910116810190811067ffffffffffffffff821117610d8757604052565b634e487b7160e01b600052604160045260246000fd5b91908201809211610d4f57565b15610db157565b60405162461bcd60e51b81526020600482015260096024820152683737ba1037bbb732b960b91b6044820152606490fd5b90816020910312610cfa57518015158103610cfa5790565b91908203918211610d4f57565b6001600160a01b03166000908152600460205260409020548015610e4d57610e49670de0b6b3a764000091610254600654600760205260406000205490610dfa565b0490565b5060009056fea2646970667358221220e1d6261b315116f3700646c077c7f7558b8223b1ad08eaff624141e53da9252664736f6c63430008180033","opcodes":"PUSH1 0xC0 CALLVALUE PUSH2 0x10D JUMPI PUSH1 0x1F PUSH2 0xFC6 CODESIZE DUP2 SWAP1 SUB SWAP2 DUP3 ADD PUSH1 0x1F NOT AND DUP4 ADD SWAP2 PUSH1 0x1 PUSH1 0x1 PUSH1 0x40 SHL SUB DUP4 GT DUP5 DUP5 LT OR PUSH2 0x112 JUMPI DUP1 DUP5 SWAP3 PUSH1 0x40 SWAP5 DUP6 MSTORE DUP4 CODECOPY DUP2 ADD SUB SLT PUSH2 0x10D JUMPI PUSH2 0x52 PUSH1 0x20 PUSH2 0x4B DUP4 PUSH2 0x128 JUMP JUMPDEST SWAP3 ADD PUSH2 0x128 JUMP JUMPDEST SWAP1 PUSH8 0xDE0B6B3A7640000 PUSH1 0x1 SSTORE PUSH3 0x278D00 PUSH1 0x2 SSTORE PUSH1 0x80 MSTORE PUSH1 0xA0 MSTORE PUSH1 0x0 DUP1 SLOAD SWAP1 PUSH9 0x10000000000000000 DUP3 LT ISZERO PUSH2 0xF9 JUMPI PUSH1 0x1 DUP3 ADD DUP1 DUP3 SSTORE DUP3 LT ISZERO PUSH2 0xE5 JUMPI DUP1 DUP1 MSTORE PUSH1 0x20 SWAP1 KECCAK256 ADD DUP1 SLOAD PUSH1 0x1 PUSH1 0x1 PUSH1 0xA0 SHL SUB NOT AND CALLER OR SWAP1 SSTORE PUSH1 0x40 MLOAD PUSH2 0xE89 SWAP1 DUP2 PUSH2 0x13D DUP3 CODECOPY PUSH1 0x80 MLOAD DUP2 DUP2 DUP2 PUSH2 0x159 ADD MSTORE DUP2 DUP2 PUSH2 0x3D8 ADD MSTORE PUSH2 0xA06 ADD MSTORE PUSH1 0xA0 MLOAD DUP2 DUP2 DUP2 PUSH2 0x112 ADD MSTORE DUP2 DUP2 PUSH2 0x29C ADD MSTORE PUSH2 0x4AD ADD MSTORE RETURN JUMPDEST PUSH4 0x4E487B71 PUSH1 0xE0 SHL DUP2 MSTORE PUSH1 0x32 PUSH1 0x4 MSTORE PUSH1 0x24 SWAP1 REVERT JUMPDEST PUSH4 0x4E487B71 PUSH1 0xE0 SHL DUP2 MSTORE PUSH1 0x41 PUSH1 0x4 MSTORE PUSH1 0x24 SWAP1 REVERT JUMPDEST PUSH1 0x0 DUP1 REVERT JUMPDEST PUSH4 0x4E487B71 PUSH1 0xE0 SHL PUSH1 0x0 MSTORE PUSH1 0x41 PUSH1 0x4 MSTORE PUSH1 0x24 PUSH1 0x0 REVERT JUMPDEST MLOAD SWAP1 PUSH1 0x1 PUSH1 0x1 PUSH1 0xA0 SHL SUB DUP3 AND DUP3 SUB PUSH2 0x10D JUMPI JUMP INVALID PUSH1 0x40 PUSH1 0x80 DUP2 MSTORE PUSH1 0x4 SWAP1 DUP2 CALLDATASIZE LT ISZERO PUSH2 0x15 JUMPI PUSH1 0x0 DUP1 REVERT JUMPDEST PUSH1 0x0 SWAP2 DUP3 CALLDATALOAD PUSH1 0xE0 SHR SWAP1 DUP2 PUSH4 0x25E7C27 EQ PUSH2 0xC5A JUMPI DUP2 PUSH4 0x3711B23F EQ PUSH2 0xC3B JUMPI DUP2 PUSH4 0x37EF4B15 EQ PUSH2 0x975 JUMPI DUP2 PUSH4 0x446A2EC8 EQ PUSH2 0x956 JUMPI DUP2 PUSH4 0x497101E9 EQ PUSH2 0x834 JUMPI DUP2 PUSH4 0x5873EB9B EQ PUSH2 0x7FC JUMPI DUP2 PUSH4 0x7065CB48 EQ PUSH2 0x73D JUMPI DUP2 PUSH4 0x765D6B74 EQ PUSH2 0x707 JUMPI DUP2 PUSH4 0x991BBDE7 EQ PUSH2 0x6CF JUMPI DUP2 PUSH4 0xA0933701 EQ PUSH2 0x6B0 JUMPI DUP2 PUSH4 0xA195AABD EQ PUSH2 0x644 JUMPI DUP2 PUSH4 0xA5981504 EQ PUSH2 0x520 JUMPI DUP2 PUSH4 0xAA4DC5CA EQ PUSH2 0x474 JUMPI DUP2 PUSH4 0xBEB02EE3 EQ PUSH2 0x378 JUMPI DUP2 PUSH4 0xCB830469 EQ PUSH2 0x20B JUMPI POP DUP1 PUSH4 0xF40F0F52 EQ PUSH2 0x1DF JUMPI DUP1 PUSH4 0xF4201C3C EQ PUSH2 0x1A6 JUMPI DUP1 PUSH4 0xF49C6229 EQ PUSH2 0x188 JUMPI DUP1 PUSH4 0xF6C08A2E EQ PUSH2 0x145 JUMPI PUSH4 0xFEAA524D EQ PUSH2 0xFF JUMPI PUSH1 0x0 DUP1 REVERT JUMPDEST CALLVALUE PUSH2 0x141 JUMPI DUP2 PUSH1 0x3 NOT CALLDATASIZE ADD SLT PUSH2 0x141 JUMPI MLOAD PUSH32 0x0 PUSH1 0x1 PUSH1 0x1 PUSH1 0xA0 SHL SUB AND DUP2 MSTORE PUSH1 0x20 SWAP1 RETURN JUMPDEST POP DUP1 REVERT JUMPDEST POP CALLVALUE PUSH2 0x141 JUMPI DUP2 PUSH1 0x3 NOT CALLDATASIZE ADD SLT PUSH2 0x141 JUMPI MLOAD PUSH32 0x0 PUSH1 0x1 PUSH1 0x1 PUSH1 0xA0 SHL SUB AND DUP2 MSTORE PUSH1 0x20 SWAP1 RETURN JUMPDEST POP CALLVALUE PUSH2 0x141 JUMPI DUP2 PUSH1 0x3 NOT CALLDATASIZE ADD SLT PUSH2 0x141 JUMPI PUSH1 0x20 SWAP1 PUSH1 0x5 SLOAD SWAP1 MLOAD SWAP1 DUP2 MSTORE RETURN JUMPDEST POP CALLVALUE PUSH2 0x141 JUMPI PUSH1 0x20 CALLDATASIZE PUSH1 0x3 NOT ADD SLT PUSH2 0x141 JUMPI PUSH1 0x20 SWAP2 DUP2 SWAP1 PUSH1 0x1 PUSH1 0x1 PUSH1 0xA0 SHL SUB PUSH2 0x1CD PUSH2 0xCE4 JUMP JUMPDEST AND DUP2 MSTORE PUSH1 0x3 DUP5 MSTORE KECCAK256 SLOAD SWAP1 MLOAD SWAP1 TIMESTAMP LT DUP2 MSTORE RETURN JUMPDEST POP CALLVALUE PUSH2 0x141 JUMPI PUSH1 0x20 CALLDATASIZE PUSH1 0x3 NOT ADD SLT PUSH2 0x141 JUMPI PUSH1 0x20 SWAP1 PUSH2 0x204 PUSH2 0x1FF PUSH2 0xCE4 JUMP JUMPDEST PUSH2 0xE07 JUMP JUMPDEST SWAP1 MLOAD SWAP1 DUP2 MSTORE RETURN JUMPDEST DUP4 DUP4 CALLVALUE PUSH2 0x141 JUMPI DUP2 PUSH1 0x3 NOT CALLDATASIZE ADD SLT PUSH2 0x141 JUMPI CALLER DUP3 MSTORE PUSH1 0x20 SWAP1 DUP4 DUP3 MSTORE DUP1 DUP4 KECCAK256 SLOAD DUP1 ISZERO PUSH2 0x342 JUMPI PUSH8 0xDE0B6B3A7640000 PUSH2 0x25A PUSH1 0x6 SLOAD SWAP3 CALLER DUP8 MSTORE PUSH1 0x7 DUP7 MSTORE PUSH2 0x254 DUP6 DUP9 KECCAK256 SLOAD DUP6 PUSH2 0xDFA JUMP JUMPDEST SWAP1 PUSH2 0xD3C JUMP JUMPDEST DIV SWAP1 DUP2 ISZERO PUSH2 0x30C JUMPI CALLER DUP1 DUP7 MSTORE PUSH1 0x7 DUP6 MSTORE DUP4 DUP7 KECCAK256 SWAP2 SWAP1 SWAP2 SSTORE DUP3 MLOAD PUSH4 0xA9059CBB PUSH1 0xE0 SHL DUP2 MSTORE DUP1 DUP8 ADD SWAP2 DUP3 MSTORE PUSH1 0x20 DUP3 ADD SWAP3 SWAP1 SWAP3 MSTORE SWAP1 SWAP2 SWAP1 DUP4 SWAP1 DUP4 SWAP1 DUP2 SWAP1 PUSH1 0x40 ADD SUB DUP2 DUP8 PUSH32 0x0 PUSH1 0x1 PUSH1 0x1 PUSH1 0xA0 SHL SUB AND GAS CALL SWAP1 DUP2 ISZERO PUSH2 0x303 JUMPI POP PUSH2 0x2D6 JUMPI DUP3 DUP1 RETURN JUMPDEST DUP2 PUSH2 0x2F5 SWAP3 SWAP1 RETURNDATASIZE LT PUSH2 0x2FC JUMPI JUMPDEST PUSH2 0x2ED DUP2 DUP4 PUSH2 0xD65 JUMP JUMPDEST DUP2 ADD SWAP1 PUSH2 0xDE2 JUMP JUMPDEST POP DUP2 DUP1 DUP3 DUP1 RETURN JUMPDEST POP RETURNDATASIZE PUSH2 0x2E3 JUMP JUMPDEST MLOAD RETURNDATASIZE DUP6 DUP3 RETURNDATACOPY RETURNDATASIZE SWAP1 REVERT JUMPDEST DUP3 MLOAD PUSH3 0x461BCD PUSH1 0xE5 SHL DUP2 MSTORE DUP1 DUP8 ADD DUP6 SWAP1 MSTORE PUSH1 0x10 PUSH1 0x24 DUP3 ADD MSTORE PUSH16 0x6E6F7468696E6720746F20636C61696D PUSH1 0x80 SHL PUSH1 0x44 DUP3 ADD MSTORE PUSH1 0x64 SWAP1 REVERT JUMPDEST DUP2 MLOAD PUSH3 0x461BCD PUSH1 0xE5 SHL DUP2 MSTORE DUP1 DUP7 ADD DUP5 SWAP1 MSTORE PUSH1 0x10 PUSH1 0x24 DUP3 ADD MSTORE PUSH16 0x3737BA1030902B24A8103437B63232B9 PUSH1 0x81 SHL PUSH1 0x44 DUP3 ADD MSTORE PUSH1 0x64 SWAP1 REVERT JUMPDEST SWAP2 SWAP1 POP CALLVALUE PUSH2 0x470 JUMPI PUSH1 0x20 CALLDATASIZE PUSH1 0x3 NOT ADD SLT PUSH2 0x470 JUMPI DUP3 SWAP2 DUP4 DUP5 SLOAD SWAP1 JUMPDEST DUP2 DUP2 LT PUSH2 0x437 JUMPI JUMPDEST POP POP PUSH1 0x20 SWAP1 PUSH2 0x3AC PUSH2 0x3D3 SWAP5 PUSH2 0xDAA JUMP JUMPDEST DUP3 MLOAD PUSH4 0xA9059CBB PUSH1 0xE0 SHL DUP2 MSTORE CALLER DUP3 DUP3 ADD SWAP1 DUP2 MSTORE SWAP2 CALLDATALOAD PUSH1 0x20 DUP4 ADD MSTORE SWAP4 DUP5 SWAP2 DUP3 SWAP2 PUSH1 0x40 SWAP1 SWAP2 ADD SWAP1 JUMP JUMPDEST SUB DUP2 DUP7 PUSH32 0x0 PUSH1 0x1 PUSH1 0x1 PUSH1 0xA0 SHL SUB AND GAS CALL SWAP1 DUP2 ISZERO PUSH2 0x42E JUMPI POP PUSH2 0x412 JUMPI POP DUP1 RETURN JUMPDEST PUSH2 0x42A SWAP1 PUSH1 0x20 RETURNDATASIZE PUSH1 0x20 GT PUSH2 0x2FC JUMPI PUSH2 0x2ED DUP2 DUP4 PUSH2 0xD65 JUMP JUMPDEST POP DUP1 RETURN JUMPDEST MLOAD RETURNDATASIZE DUP5 DUP3 RETURNDATACOPY RETURNDATASIZE SWAP1 REVERT JUMPDEST PUSH2 0x440 DUP2 PUSH2 0xC9A JUMP JUMPDEST SWAP1 SLOAD PUSH1 0x3 SWAP2 SWAP1 SWAP2 SHL SHR PUSH1 0x1 PUSH1 0x1 PUSH1 0xA0 SHL SUB AND CALLER EQ PUSH2 0x460 JUMPI PUSH1 0x1 ADD PUSH2 0x393 JUMP JUMPDEST POP PUSH1 0x1 SWAP4 POP DUP2 SWAP1 POP PUSH2 0x3AC PUSH2 0x39B JUMP JUMPDEST DUP3 DUP1 REVERT JUMPDEST SWAP2 SWAP1 POP CALLVALUE PUSH2 0x470 JUMPI PUSH1 0x20 CALLDATASIZE PUSH1 0x3 NOT ADD SLT PUSH2 0x470 JUMPI DUP3 SWAP2 DUP4 DUP5 SLOAD SWAP1 JUMPDEST DUP2 DUP2 LT PUSH2 0x4E7 JUMPI JUMPDEST POP POP PUSH1 0x20 SWAP1 PUSH2 0x3AC PUSH2 0x4A8 SWAP5 PUSH2 0xDAA JUMP JUMPDEST SUB DUP2 DUP7 PUSH32 0x0 PUSH1 0x1 PUSH1 0x1 PUSH1 0xA0 SHL SUB AND GAS CALL SWAP1 DUP2 ISZERO PUSH2 0x42E JUMPI POP PUSH2 0x412 JUMPI POP DUP1 RETURN JUMPDEST PUSH2 0x4F0 DUP2 PUSH2 0xC9A JUMP JUMPDEST SWAP1 SLOAD PUSH1 0x3 SWAP2 SWAP1 SWAP2 SHL SHR PUSH1 0x1 PUSH1 0x1 PUSH1 0xA0 SHL SUB AND CALLER EQ PUSH2 0x510 JUMPI PUSH1 0x1 ADD PUSH2 0x48F JUMP JUMPDEST POP PUSH1 0x1 SWAP4 POP DUP2 SWAP1 POP PUSH2 0x3AC PUSH2 0x497 JUMP JUMPDEST DUP3 DUP5 CALLVALUE PUSH2 0x641 JUMPI PUSH1 0x20 CALLDATASIZE PUSH1 0x3 NOT ADD SLT PUSH2 0x641 JUMPI DUP1 SLOAD SWAP2 DUP4 CALLDATALOAD DUP3 DUP1 JUMPDEST DUP6 DUP2 LT PUSH2 0x607 JUMPI JUMPDEST POP PUSH2 0x551 SWAP2 SWAP3 SWAP4 SWAP5 POP PUSH2 0xDAA JUMP JUMPDEST PUSH1 0x5 SLOAD SWAP2 DUP3 ISZERO PUSH2 0x5D0 JUMPI DUP2 ISZERO PUSH2 0x59D JUMPI POP PUSH8 0xDE0B6B3A7640000 DUP1 DUP3 MUL SWAP2 DUP3 DIV SUB PUSH2 0x58A JUMPI SWAP1 PUSH2 0x584 SWAP2 DIV PUSH1 0x6 SLOAD PUSH2 0xD9D JUMP JUMPDEST PUSH1 0x6 SSTORE DUP1 RETURN JUMPDEST PUSH4 0x4E487B71 PUSH1 0xE0 SHL DUP4 MSTORE PUSH1 0x11 DUP5 MSTORE PUSH1 0x24 DUP4 REVERT JUMPDEST MLOAD PUSH3 0x461BCD PUSH1 0xE5 SHL DUP2 MSTORE PUSH1 0x20 DUP2 DUP7 ADD MSTORE PUSH1 0xE PUSH1 0x24 DUP3 ADD MSTORE PUSH14 0x616D6F756E74206973207A65726F PUSH1 0x90 SHL PUSH1 0x44 DUP3 ADD MSTORE PUSH1 0x64 SWAP1 REVERT JUMPDEST MLOAD PUSH3 0x461BCD PUSH1 0xE5 SHL DUP2 MSTORE PUSH1 0x20 DUP2 DUP7 ADD MSTORE PUSH1 0x12 PUSH1 0x24 DUP3 ADD MSTORE PUSH18 0x1B9BC8159254081A1BDB19195C9CC81E595D PUSH1 0x72 SHL PUSH1 0x44 DUP3 ADD MSTORE PUSH1 0x64 SWAP1 REVERT JUMPDEST PUSH2 0x610 DUP2 PUSH2 0xC9A JUMP JUMPDEST SWAP1 SLOAD PUSH1 0x3 SWAP2 SWAP1 SWAP2 SHL SHR PUSH1 0x1 PUSH1 0x1 PUSH1 0xA0 SHL SUB AND CALLER EQ PUSH2 0x630 JUMPI PUSH1 0x1 ADD PUSH2 0x53B JUMP JUMPDEST POP SWAP3 SWAP4 POP DUP4 SWAP3 POP PUSH1 0x1 PUSH2 0x551 PUSH2 0x543 JUMP JUMPDEST DUP1 REVERT JUMPDEST DUP4 SWAP1 CALLVALUE PUSH2 0x141 JUMPI PUSH1 0x20 CALLDATASIZE PUSH1 0x3 NOT ADD SLT PUSH2 0x141 JUMPI DUP2 SLOAD SWAP1 DUP3 DUP1 JUMPDEST DUP4 DUP2 LT PUSH2 0x677 JUMPI JUMPDEST DUP5 DUP4 PUSH2 0x670 DUP5 PUSH2 0xDAA JUMP JUMPDEST CALLDATALOAD PUSH1 0x1 SSTORE DUP1 RETURN JUMPDEST PUSH2 0x680 DUP2 PUSH2 0xC9A JUMP JUMPDEST SWAP1 SLOAD PUSH1 0x3 SWAP2 SWAP1 SWAP2 SHL SHR PUSH1 0x1 PUSH1 0x1 PUSH1 0xA0 SHL SUB AND CALLER EQ PUSH2 0x6A0 JUMPI PUSH1 0x1 ADD PUSH2 0x65D JUMP JUMPDEST POP POP SWAP1 POP PUSH2 0x670 PUSH1 0x1 DUP3 SWAP2 PUSH2 0x665 JUMP JUMPDEST POP POP CALLVALUE PUSH2 0x141 JUMPI DUP2 PUSH1 0x3 NOT CALLDATASIZE ADD SLT PUSH2 0x141 JUMPI PUSH1 0x20 SWAP1 PUSH1 0x2 SLOAD SWAP1 MLOAD SWAP1 DUP2 MSTORE RETURN JUMPDEST POP POP CALLVALUE PUSH2 0x141 JUMPI PUSH1 0x20 CALLDATASIZE PUSH1 0x3 NOT ADD SLT PUSH2 0x141 JUMPI PUSH1 0x20 SWAP2 DUP2 SWAP1 PUSH1 0x1 PUSH1 0x1 PUSH1 0xA0 SHL SUB PUSH2 0x6F7 PUSH2 0xCE4 JUMP JUMPDEST AND DUP2 MSTORE PUSH1 0x3 DUP5 MSTORE KECCAK256 SLOAD SWAP1 MLOAD SWAP1 DUP2 MSTORE RETURN JUMPDEST SWAP1 POP CALLVALUE PUSH2 0x470 JUMPI PUSH1 0x20 CALLDATASIZE PUSH1 0x3 NOT ADD SLT PUSH2 0x470 JUMPI PUSH1 0x20 SWAP3 DUP3 SWAP2 PUSH1 0x1 PUSH1 0x1 PUSH1 0xA0 SHL SUB PUSH2 0x72F PUSH2 0xCE4 JUMP JUMPDEST AND DUP3 MSTORE DUP5 MSTORE KECCAK256 SLOAD SWAP1 MLOAD SWAP1 DUP2 MSTORE RETURN JUMPDEST DUP4 SWAP1 CALLVALUE PUSH2 0x141 JUMPI PUSH1 0x20 CALLDATASIZE PUSH1 0x3 NOT ADD SLT PUSH2 0x141 JUMPI PUSH2 0x758 PUSH2 0xCE4 JUMP JUMPDEST DUP3 SLOAD DUP4 SWAP3 DUP4 JUMPDEST DUP3 DUP2 LT PUSH2 0x7C6 JUMPI JUMPDEST POP SWAP1 SWAP2 SWAP3 PUSH2 0x773 SWAP1 PUSH2 0xDAA JUMP JUMPDEST PUSH9 0x10000000000000000 DUP3 LT ISZERO PUSH2 0x7B3 JUMPI POP DUP1 PUSH1 0x1 PUSH2 0x794 SWAP3 ADD DUP5 SSTORE PUSH2 0xC9A JUMP JUMPDEST PUSH1 0x1 DUP1 PUSH1 0xA0 SWAP5 SWAP4 SWAP5 SHL SUB DUP1 DUP5 SLOAD SWAP3 PUSH1 0x3 SHL SWAP4 AND DUP4 SHL SWAP3 SHL NOT AND OR SWAP1 SSTORE DUP1 RETURN JUMPDEST PUSH4 0x4E487B71 PUSH1 0xE0 SHL DUP5 MSTORE PUSH1 0x41 SWAP1 MSTORE PUSH1 0x24 DUP4 REVERT JUMPDEST PUSH2 0x7CF DUP2 PUSH2 0xC9A JUMP JUMPDEST SWAP1 SLOAD PUSH1 0x3 SWAP2 SWAP1 SWAP2 SHL SHR PUSH1 0x1 PUSH1 0x1 PUSH1 0xA0 SHL SUB AND CALLER EQ PUSH2 0x7EF JUMPI PUSH1 0x1 ADD PUSH2 0x75E JUMP JUMPDEST POP PUSH1 0x1 SWAP4 POP PUSH2 0x773 PUSH2 0x766 JUMP JUMPDEST POP POP CALLVALUE PUSH2 0x141 JUMPI PUSH1 0x20 CALLDATASIZE PUSH1 0x3 NOT ADD SLT PUSH2 0x141 JUMPI PUSH1 0x20 SWAP2 DUP2 SWAP1 PUSH1 0x1 PUSH1 0x1 PUSH1 0xA0 SHL SUB PUSH2 0x824 PUSH2 0xCE4 JUMP JUMPDEST AND DUP2 MSTORE PUSH1 0x7 DUP5 MSTORE KECCAK256 SLOAD SWAP1 MLOAD SWAP1 DUP2 MSTORE RETURN JUMPDEST SWAP1 POP CALLVALUE PUSH2 0x470 JUMPI DUP2 PUSH1 0x3 NOT CALLDATASIZE ADD SLT PUSH2 0x470 JUMPI PUSH2 0x84E PUSH2 0xCE4 JUMP JUMPDEST SWAP2 PUSH1 0x24 CALLDATALOAD SWAP2 DUP5 SWAP4 DUP6 DUP7 SLOAD SWAP1 JUMPDEST DUP2 DUP2 LT PUSH2 0x91B JUMPI JUMPDEST POP POP PUSH2 0x873 PUSH2 0x8B2 SWAP3 SWAP4 SWAP5 SWAP6 PUSH2 0xDAA JUMP JUMPDEST PUSH2 0x87E DUP6 ISZERO ISZERO PUSH2 0xCFF JUMP JUMPDEST PUSH1 0x1 PUSH1 0x1 PUSH1 0xA0 SHL SUB AND DUP1 DUP7 MSTORE PUSH1 0x3 PUSH1 0x20 MSTORE DUP4 DUP7 KECCAK256 SLOAD SWAP1 SWAP5 SWAP1 TIMESTAMP DUP2 GT ISZERO PUSH2 0x910 JUMPI PUSH2 0x8AC SWAP1 SWAP2 JUMPDEST PUSH1 0x2 SLOAD PUSH2 0xD3C JUMP JUMPDEST SWAP1 PUSH2 0xD9D JUMP JUMPDEST DUP4 DUP6 MSTORE PUSH1 0x3 PUSH1 0x20 MSTORE DUP3 DUP6 KECCAK256 SSTORE DUP1 PUSH1 0x20 MSTORE DUP2 DUP5 KECCAK256 DUP1 SLOAD ISZERO PUSH2 0x8D0 JUMPI DUP5 DUP1 RETURN JUMPDEST PUSH1 0x1 SWAP1 SSTORE PUSH1 0x5 SLOAD SWAP1 PUSH1 0x1 DUP3 ADD DUP1 SWAP3 GT PUSH2 0x8FD JUMPI POP PUSH1 0x5 SSTORE PUSH1 0x6 SLOAD SWAP2 DUP4 MSTORE PUSH1 0x7 PUSH1 0x20 MSTORE DUP3 KECCAK256 SSTORE CODESIZE DUP1 DUP1 DUP1 DUP5 DUP1 RETURN JUMPDEST PUSH4 0x4E487B71 PUSH1 0xE0 SHL DUP6 MSTORE PUSH1 0x11 SWAP1 MSTORE PUSH1 0x24 DUP5 REVERT JUMPDEST POP PUSH2 0x8AC TIMESTAMP SWAP2 PUSH2 0x8A4 JUMP JUMPDEST PUSH2 0x924 DUP2 PUSH2 0xC9A JUMP JUMPDEST SWAP1 SLOAD PUSH1 0x3 SWAP2 SWAP1 SWAP2 SHL SHR PUSH1 0x1 PUSH1 0x1 PUSH1 0xA0 SHL SUB AND CALLER EQ PUSH2 0x944 JUMPI PUSH1 0x1 ADD PUSH2 0x85A JUMP JUMPDEST POP PUSH1 0x1 SWAP6 POP PUSH2 0x873 SWAP1 POP PUSH2 0x8B2 PUSH2 0x862 JUMP JUMPDEST POP POP CALLVALUE PUSH2 0x141 JUMPI DUP2 PUSH1 0x3 NOT CALLDATASIZE ADD SLT PUSH2 0x141 JUMPI PUSH1 0x20 SWAP1 PUSH1 0x6 SLOAD SWAP1 MLOAD SWAP1 DUP2 MSTORE RETURN JUMPDEST SWAP1 POP CALLVALUE PUSH2 0x470 JUMPI PUSH1 0xC0 CALLDATASIZE PUSH1 0x3 NOT ADD SLT PUSH2 0x470 JUMPI DUP1 CALLDATALOAD PUSH1 0x80 CALLDATASIZE PUSH1 0x23 NOT ADD SLT PUSH2 0xC37 JUMPI PUSH8 0xFFFFFFFFFFFFFFFF SWAP1 PUSH1 0xA4 CALLDATALOAD DUP3 DUP2 GT PUSH2 0xC33 JUMPI CALLDATASIZE PUSH1 0x23 DUP3 ADD SLT ISZERO PUSH2 0xC33 JUMPI DUP1 DUP5 ADD CALLDATALOAD SWAP3 DUP1 DUP5 GT PUSH2 0xC2F JUMPI PUSH1 0x24 SWAP4 CALLDATASIZE DUP6 DUP3 DUP6 ADD ADD GT PUSH2 0xBA7 JUMPI DUP4 ISZERO ISZERO DUP1 PUSH2 0xC24 JUMPI JUMPDEST PUSH2 0x9E1 SWAP1 PUSH2 0xCFF JUMP JUMPDEST PUSH2 0x9ED DUP5 PUSH1 0x1 SLOAD PUSH2 0xD3C JUMP JUMPDEST SWAP1 DUP6 CALLDATALOAD PUSH1 0x1 PUSH1 0x1 PUSH1 0xA0 SHL SUB DUP2 DUP2 AND SWAP2 DUP3 SWAP1 SUB PUSH2 0xC20 JUMPI DUP1 PUSH32 0x0 AND DUP3 SUB PUSH2 0xBF0 JUMPI PUSH1 0x44 CALLDATALOAD SWAP6 DUP5 DUP8 LT PUSH2 0xBBD JUMPI DUP11 MLOAD DUP12 DUP2 ADD DUP2 DUP2 LT DUP9 DUP3 GT OR PUSH2 0xBAB JUMPI DUP13 MSTORE ADDRESS DUP2 MSTORE PUSH1 0x20 DUP2 ADD SWAP6 DUP7 MSTORE DUP13 SWAP6 SWAP5 PUSH15 0x22D473030F116DDEE9F6B43AC78BA3 SWAP5 SWAP4 SWAP3 SWAP2 SWAP1 DUP6 EXTCODESIZE ISZERO PUSH2 0xBA7 JUMPI DUP12 SWAP7 DUP9 SWAP5 DUP16 SWAP4 DUP16 SWAP5 MLOAD SWAP13 DUP14 SWAP11 DUP12 SWAP10 DUP11 SWAP8 PUSH4 0x187945BD PUSH1 0xE1 SHL DUP10 MSTORE DUP9 ADD MSTORE DUP7 ADD MSTORE PUSH1 0x64 CALLDATALOAD PUSH1 0x44 DUP7 ADD MSTORE PUSH1 0x84 CALLDATALOAD PUSH1 0x64 DUP7 ADD MSTORE MLOAD AND PUSH1 0x84 DUP5 ADD MSTORE MLOAD PUSH1 0xA4 DUP4 ADD MSTORE CALLER PUSH1 0xC4 DUP4 ADD MSTORE PUSH2 0x100 PUSH1 0xE4 DUP4 ADD MSTORE DUP1 PUSH2 0x104 DUP4 ADD MSTORE DUP1 DUP13 PUSH2 0x124 SWAP5 ADD DUP5 DUP5 ADD CALLDATACOPY DUP2 DUP2 ADD DUP4 ADD DUP5 SWAP1 MSTORE PUSH1 0x1F ADD PUSH1 0x1F NOT AND DUP2 ADD SUB ADD SWAP3 GAS CALL DUP1 ISZERO PUSH2 0xB9D JUMPI PUSH2 0xB77 JUMPI JUMPDEST POP POP PUSH2 0xB19 SWAP1 CALLER DUP7 MSTORE PUSH1 0x3 PUSH1 0x20 MSTORE DUP5 DUP7 KECCAK256 SLOAD TIMESTAMP DUP2 GT PUSH1 0x0 EQ PUSH2 0x910 JUMPI PUSH2 0x8AC SWAP1 SWAP2 PUSH1 0x2 SLOAD PUSH2 0xD3C JUMP JUMPDEST CALLER DUP6 MSTORE PUSH1 0x3 PUSH1 0x20 MSTORE DUP4 DUP6 KECCAK256 SSTORE DUP2 PUSH1 0x20 MSTORE DUP3 DUP5 KECCAK256 DUP1 SLOAD ISZERO PUSH2 0xB37 JUMPI DUP5 DUP1 RETURN JUMPDEST PUSH1 0x1 SWAP1 SSTORE PUSH1 0x5 SLOAD SWAP2 PUSH1 0x1 DUP4 ADD DUP1 SWAP4 GT PUSH2 0xB66 JUMPI POP POP PUSH1 0x5 SSTORE PUSH1 0x6 SLOAD SWAP1 CALLER DUP4 MSTORE PUSH1 0x7 PUSH1 0x20 MSTORE DUP3 KECCAK256 SSTORE CODESIZE DUP1 DUP1 DUP1 DUP5 DUP1 RETURN JUMPDEST PUSH4 0x4E487B71 PUSH1 0xE0 SHL DUP6 MSTORE PUSH1 0x11 SWAP1 MSTORE DUP4 REVERT JUMPDEST DUP2 SWAP7 SWAP3 SWAP7 GT PUSH2 0xB8C JUMPI DUP5 MSTORE SWAP4 PUSH2 0xB19 CODESIZE PUSH2 0xAF0 JUMP JUMPDEST POP PUSH4 0x4E487B71 PUSH1 0xE0 SHL DUP2 MSTORE PUSH1 0x41 DUP4 MSTORE REVERT JUMPDEST DUP7 MLOAD RETURNDATASIZE DUP10 DUP3 RETURNDATACOPY RETURNDATASIZE SWAP1 REVERT JUMPDEST DUP8 DUP1 REVERT JUMPDEST PUSH4 0x4E487B71 PUSH1 0xE0 SHL DUP15 MSTORE PUSH1 0x41 DUP13 MSTORE DUP11 DUP15 REVERT JUMPDEST DUP11 MLOAD PUSH3 0x461BCD PUSH1 0xE5 SHL DUP2 MSTORE PUSH1 0x20 DUP2 DUP13 ADD MSTORE PUSH1 0xE DUP2 DUP12 ADD MSTORE PUSH14 0x616D6F756E7420746F6F206C6F77 PUSH1 0x90 SHL PUSH1 0x44 DUP3 ADD MSTORE PUSH1 0x64 SWAP1 REVERT JUMPDEST DUP10 MLOAD PUSH3 0x461BCD PUSH1 0xE5 SHL DUP2 MSTORE PUSH1 0x20 DUP2 DUP12 ADD MSTORE PUSH1 0xB DUP2 DUP11 ADD MSTORE PUSH11 0x3BB937B733903A37B5B2B7 PUSH1 0xA9 SHL PUSH1 0x44 DUP3 ADD MSTORE PUSH1 0x64 SWAP1 REVERT JUMPDEST DUP11 DUP1 REVERT JUMPDEST POP PUSH1 0xC DUP5 GT ISZERO PUSH2 0x9D8 JUMP JUMPDEST DUP7 DUP1 REVERT JUMPDEST DUP6 DUP1 REVERT JUMPDEST DUP4 DUP1 REVERT JUMPDEST POP POP CALLVALUE PUSH2 0x141 JUMPI DUP2 PUSH1 0x3 NOT CALLDATASIZE ADD SLT PUSH2 0x141 JUMPI PUSH1 0x20 SWAP1 PUSH1 0x1 SLOAD SWAP1 MLOAD SWAP1 DUP2 MSTORE RETURN JUMPDEST SWAP1 POP CALLVALUE PUSH2 0x470 JUMPI PUSH1 0x20 CALLDATASIZE PUSH1 0x3 NOT ADD SLT PUSH2 0x470 JUMPI CALLDATALOAD SWAP2 DUP1 SLOAD DUP4 LT ISZERO PUSH2 0x641 JUMPI POP PUSH2 0xC84 PUSH1 0x20 SWAP3 PUSH2 0xC9A JUMP JUMPDEST SWAP1 SLOAD SWAP2 MLOAD SWAP2 PUSH1 0x1 DUP1 PUSH1 0xA0 SHL SUB SWAP2 PUSH1 0x3 SHL SHR AND DUP2 MSTORE RETURN JUMPDEST SWAP1 PUSH1 0x0 SWAP2 DUP3 SLOAD DUP2 LT ISZERO PUSH2 0xCD0 JUMPI DUP3 DUP1 MSTORE PUSH32 0x290DECD9548B62A8D60345A988386FC84BA6BC95484008F6362F93160EF3E563 ADD SWAP2 SWAP1 JUMP JUMPDEST PUSH4 0x4E487B71 PUSH1 0xE0 SHL DUP4 MSTORE PUSH1 0x32 PUSH1 0x4 MSTORE PUSH1 0x24 DUP4 REVERT JUMPDEST PUSH1 0x4 CALLDATALOAD SWAP1 PUSH1 0x1 PUSH1 0x1 PUSH1 0xA0 SHL SUB DUP3 AND DUP3 SUB PUSH2 0xCFA JUMPI JUMP JUMPDEST PUSH1 0x0 DUP1 REVERT JUMPDEST ISZERO PUSH2 0xD06 JUMPI JUMP JUMPDEST PUSH1 0x40 MLOAD PUSH3 0x461BCD PUSH1 0xE5 SHL DUP2 MSTORE PUSH1 0x20 PUSH1 0x4 DUP3 ADD MSTORE PUSH1 0xE PUSH1 0x24 DUP3 ADD MSTORE PUSH14 0x696E76616C6964206D6F6E746873 PUSH1 0x90 SHL PUSH1 0x44 DUP3 ADD MSTORE PUSH1 0x64 SWAP1 REVERT JUMPDEST DUP2 DUP2 MUL SWAP3 SWAP2 DUP2 ISZERO SWAP2 DUP5 DIV EQ OR ISZERO PUSH2 0xD4F JUMPI JUMP JUMPDEST PUSH4 0x4E487B71 PUSH1 0xE0 SHL PUSH1 0x0 MSTORE PUSH1 0x11 PUSH1 0x4 MSTORE PUSH1 0x24 PUSH1 0x0 REVERT JUMPDEST SWAP1 PUSH1 0x1F DUP1 NOT SWAP2 ADD AND DUP2 ADD SWAP1 DUP2 LT PUSH8 0xFFFFFFFFFFFFFFFF DUP3 GT OR PUSH2 0xD87 JUMPI PUSH1 0x40 MSTORE JUMP JUMPDEST PUSH4 0x4E487B71 PUSH1 0xE0 SHL PUSH1 0x0 MSTORE PUSH1 0x41 PUSH1 0x4 MSTORE PUSH1 0x24 PUSH1 0x0 REVERT JUMPDEST SWAP2 SWAP1 DUP3 ADD DUP1 SWAP3 GT PUSH2 0xD4F JUMPI JUMP JUMPDEST ISZERO PUSH2 0xDB1 JUMPI JUMP JUMPDEST PUSH1 0x40 MLOAD PUSH3 0x461BCD PUSH1 0xE5 SHL DUP2 MSTORE PUSH1 0x20 PUSH1 0x4 DUP3 ADD MSTORE PUSH1 0x9 PUSH1 0x24 DUP3 ADD MSTORE PUSH9 0x3737BA1037BBB732B9 PUSH1 0xB9 SHL PUSH1 0x44 DUP3 ADD MSTORE PUSH1 0x64 SWAP1 REVERT JUMPDEST SWAP1 DUP2 PUSH1 0x20 SWAP2 SUB SLT PUSH2 0xCFA JUMPI MLOAD DUP1 ISZERO ISZERO DUP2 SUB PUSH2 0xCFA JUMPI SWAP1 JUMP JUMPDEST SWAP2 SWAP1 DUP3 SUB SWAP2 DUP3 GT PUSH2 0xD4F JUMPI JUMP JUMPDEST PUSH1 0x1 PUSH1 0x1 PUSH1 0xA0 SHL SUB AND PUSH1 0x0 SWAP1 DUP2 MSTORE PUSH1 0x4 PUSH1 0x20 MSTORE PUSH1 0x40 SWAP1 KECCAK256 SLOAD DUP1 ISZERO PUSH2 0xE4D JUMPI PUSH2 0xE49 PUSH8 0xDE0B6B3A7640000 SWAP2 PUSH2 0x254 PUSH1 0x6 SLOAD PUSH1 0x7 PUSH1 0x20 MSTORE PUSH1 0x40 PUSH1 0x0 KECCAK256 SLOAD SWAP1 PUSH2 0xDFA JUMP JUMPDEST DIV SWAP1 JUMP JUMPDEST POP PUSH1 0x0 SWAP1 JUMP INVALID LOG2 PUSH5 0x6970667358 0x22 SLT KECCAK256 0xE1 0xD6 0x26 SHL BALANCE MLOAD AND RETURN PUSH17 0x646C077C7F7558B8223B1AD08EAFF6241 COINBASE 0xE5 RETURNDATASIZE 0xA9 0x25 0x26 PUSH5 0x736F6C6343 STOP ADDMOD XOR STOP CALLER "},"methodIdentifiers":{"H2O()":"feaa524d","UTH2()":"f6c08a2e","addOwner(address)":"7065cb48","buyVIPWithPermit2(uint256,((address,uint256),uint256,uint256),bytes)":"37ef4b15","claimOwnerVip()":"cb830469","distributeH2ORewards(uint256)":"a5981504","grantVIP(address,uint256)":"497101e9","holderShares(address)":"765d6b74","isVIP(address)":"f4201c3c","owners(uint256)":"025e7c27","pendingReward(address)":"f40f0f52","rewardDebt(address)":"5873eb9b","rewardPerShare()":"446a2ec8","setVipPrice(uint256)":"a195aabd","totalHolderShares()":"f49c6229","vipDuration()":"a0933701","vipExpire(address)":"991bbde7","vipPrice()":"3711b23f","withdrawH2O(uint256)":"aa4dc5ca","withdrawUTH2(uint256)":"beb02ee3"}}}}}