{"contracts/AcuaVolumeRewards.sol":{"AcuaVolumeRewards":{"abi":[{"inputs":[{"internalType":"address","name":"_swapRouter","type":"address"}],"stateMutability":"nonpayable","type":"constructor"},{"anonymous":false,"inputs":[{"indexed":true,"internalType":"address","name":"by","type":"address"},{"indexed":false,"internalType":"uint256","name":"amount","type":"uint256"}],"name":"Funded","type":"event"},{"anonymous":false,"inputs":[{"indexed":true,"internalType":"address","name":"user","type":"address"},{"indexed":true,"internalType":"uint256","name":"monthId","type":"uint256"},{"indexed":false,"internalType":"uint256","name":"uth2Amount","type":"uint256"}],"name":"RewardClaimed","type":"event"},{"anonymous":false,"inputs":[{"indexed":true,"internalType":"address","name":"user","type":"address"},{"indexed":true,"internalType":"uint256","name":"monthId","type":"uint256"},{"indexed":false,"internalType":"uint256","name":"added","type":"uint256"},{"indexed":false,"internalType":"uint256","name":"total","type":"uint256"}],"name":"VolumeRecorded","type":"event"},{"inputs":[],"name":"PERIOD","outputs":[{"internalType":"uint256","name":"","type":"uint256"}],"stateMutability":"view","type":"function"},{"inputs":[],"name":"UTH2","outputs":[{"internalType":"address","name":"","type":"address"}],"stateMutability":"view","type":"function"},{"inputs":[{"internalType":"address","name":"user","type":"address"},{"internalType":"uint256","name":"usdcAmount","type":"uint256"}],"name":"adminRecordVolume","outputs":[],"stateMutability":"nonpayable","type":"function"},{"inputs":[{"internalType":"uint256","name":"monthId","type":"uint256"}],"name":"claimRewards","outputs":[],"stateMutability":"nonpayable","type":"function"},{"inputs":[{"internalType":"address","name":"","type":"address"},{"internalType":"uint256","name":"","type":"uint256"},{"internalType":"uint256","name":"","type":"uint256"}],"name":"claimed","outputs":[{"internalType":"bool","name":"","type":"bool"}],"stateMutability":"view","type":"function"},{"inputs":[],"name":"currentMonth","outputs":[{"internalType":"uint256","name":"","type":"uint256"}],"stateMutability":"view","type":"function"},{"inputs":[{"internalType":"uint256","name":"amount","type":"uint256"}],"name":"emergencyWithdraw","outputs":[],"stateMutability":"nonpayable","type":"function"},{"inputs":[{"internalType":"uint256","name":"amount","type":"uint256"}],"name":"fundUTH2","outputs":[],"stateMutability":"nonpayable","type":"function"},{"inputs":[],"name":"owner","outputs":[{"internalType":"address","name":"","type":"address"}],"stateMutability":"view","type":"function"},{"inputs":[{"internalType":"address","name":"user","type":"address"}],"name":"pendingNow","outputs":[{"internalType":"uint256","name":"uth2Amount","type":"uint256"},{"internalType":"uint256","name":"userVolume","type":"uint256"},{"internalType":"uint8[4]","name":"tierStatus","type":"uint8[4]"}],"stateMutability":"view","type":"function"},{"inputs":[{"internalType":"address","name":"user","type":"address"},{"internalType":"uint256","name":"monthId","type":"uint256"}],"name":"pendingRewards","outputs":[{"internalType":"uint256","name":"uth2Amount","type":"uint256"},{"internalType":"uint256","name":"userVolume","type":"uint256"},{"internalType":"uint8[4]","name":"tierStatus","type":"uint8[4]"}],"stateMutability":"view","type":"function"},{"inputs":[{"internalType":"address","name":"user","type":"address"},{"internalType":"uint256","name":"usdcAmount","type":"uint256"}],"name":"recordSwap","outputs":[],"stateMutability":"nonpayable","type":"function"},{"inputs":[{"internalType":"address","name":"newOwner","type":"address"}],"name":"setOwner","outputs":[],"stateMutability":"nonpayable","type":"function"},{"inputs":[{"internalType":"address","name":"_router","type":"address"}],"name":"setSwapRouter","outputs":[],"stateMutability":"nonpayable","type":"function"},{"inputs":[{"internalType":"uint256[4]","name":"thresholds","type":"uint256[4]"},{"internalType":"uint256[4]","name":"rewards","type":"uint256[4]"}],"name":"setTiers","outputs":[],"stateMutability":"nonpayable","type":"function"},{"inputs":[],"name":"swapRouter","outputs":[{"internalType":"address","name":"","type":"address"}],"stateMutability":"view","type":"function"},{"inputs":[{"internalType":"uint256","name":"","type":"uint256"}],"name":"tierRewards","outputs":[{"internalType":"uint256","name":"","type":"uint256"}],"stateMutability":"view","type":"function"},{"inputs":[{"internalType":"uint256","name":"","type":"uint256"}],"name":"tierThresholds","outputs":[{"internalType":"uint256","name":"","type":"uint256"}],"stateMutability":"view","type":"function"},{"inputs":[],"name":"totalDistributed","outputs":[{"internalType":"uint256","name":"","type":"uint256"}],"stateMutability":"view","type":"function"},{"inputs":[{"internalType":"address","name":"","type":"address"},{"internalType":"uint256","name":"","type":"uint256"}],"name":"volume","outputs":[{"internalType":"uint256","name":"","type":"uint256"}],"stateMutability":"view","type":"function"}],"evm":{"bytecode":{"linkReferences":{},"object":"60803461012a57610ed238819003916001600160401b0391601f8401601f19168201908382118383101761012f578491604052823960208181948101031261012a57516001600160a01b038116929083900361012a5761005d610145565b620f424081526298968060208201526305f5e1006040820152633b9aca00606082015260005b60048110610111575050610095610145565b655af3107a4000815266038d7ea4c680006020820152662386f26fc10000604082015267016345785d8a000060608201529060005b600481106100fc578460018060a01b0319338160005416176000556001541617600155604051610d6d90816101658239f35b825184166006820155918101916001016100ca565b815163ffffffff16600282015590820190600101610083565b600080fd5b634e487b7160e01b600052604160045260246000fd5b60405190608082016001600160401b0381118382101761012f5760405256fe608060408181526004918236101561001657600080fd5b600092833560e01c9182630962ef79146108aa57508163096801351461082157816313af4035146107a35781631daddb5e146107675781631f4a05f5146106e9578163412736571461069a5781635312ea8e146105e9578163556c448d146105bd5781636099ecb2146104dd57816376e77df01461039b578163862a4d471461037b5781638da5cb5b146103535781639220162f14610256578163a100d69d1461022657508063a70c1aba146101e6578063b4d1d795146101c9578063c31c9c07146101a1578063efca2eed14610183578063f6c08a2e146101555763faf8ef981461010157600080fd5b346101515760603660031901126101515760209160ff9082906001600160a01b0361012a610b72565b168152600b8552818120602435825285528181206044358252855220541690519015158152f35b5080fd5b503461015157816003193601126101515760209051739ea8653640e22a5b69887985bb75d496dc97022a8152f35b5034610151578160031936011261015157602090600c549051908152f35b503461015157816003193601126101515760015490516001600160a01b039091168152602090f35b50346101515781600319360112610151576020905162278d008152f35b503461015157806003193601126101515760209181906001600160a01b0361020c610b72565b168152600a84528181206024358252845220549051908152f35b905034610252576020366003190112610252578035908110156102525760209250600201549051908152f35b8280fd5b919050346102525760208060031936011261034f578235918215610320578051936323b872dd60e01b85523390850152306024850152826044850152818460648188739ea8653640e22a5b69887985bb75d496dc97022a5af1938415610316577f5af8184bef8e4b45eb9f6ed7734d04da38ced226495548f46e0c8ff8d7d9a52493946102e9575b50519283523392a280f35b61030890833d851161030f575b6103008183610c24565b810190610c46565b50386102de565b503d6102f6565b81513d87823e3d90fd5b5162461bcd60e51b81529283015250600b60248201526a16995c9bc8185b5bdd5b9d60aa1b6044820152606490fd5b8380fd5b505034610151578160031936011261015157905490516001600160a01b039091168152602090f35b5050346101515781600319360112610151576020905162278d0042048152f35b8284346104da5760209160206003193601126101515760c061040593946103c0610b72565b608084516103cd81610bf2565b369037835163304cf65960e11b81526001600160a01b0390911691810191825262278d00420460208301529485918291604090910190565b0381305afa9182156104cf57809381958294610432575b5050509061042e915193849384610b8d565b0390f35b9293509350935060c03d60c0116104c8575b61044e8185610c24565b83019060c0848303126104c45783519160208501519481605f820112156104c05784519661047b88610bf2565b879160c08101938411610151578601915b8383106104a75750505050509061042e91929391858061041c565b825160ff8116810361025257815291840191840161048c565b8680fd5b8480fd5b503d610444565b9051903d90823e3d90fd5b80fd5b8383346101515780600319360112610151576104f7610b72565b90602435938382519361050985610bf2565b60803686376001600160a01b0316808252600a6020908152848320888452815284832054979091835b8581106105485786518061042e8a8d8d84610b8d565b818552600b8452868520838652845286852081865284528685205460ff16156105825780600261057a6001938b610d10565b525b01610532565b80600201548a1015610597575b60019061057c565b976105b5600191826105a98c8c610d10565b528a6006015490610bcf565b98905061058f565b905034610252576020366003190112610252578035908110156102525760209250600601549051908152f35b9190503461025257602036600319011261025257825461064b926020916001600160a01b031661061a338214610cd8565b835163a9059cbb60e01b81526001600160a01b03909116828201908152913560208301529384918291604090910190565b038186739ea8653640e22a5b69887985bb75d496dc97022a5af19081156106915750610675575080f35b61068d9060203d60201161030f576103008183610c24565b5080f35b513d84823e3d90fd5b83346104da5760203660031901126104da576106b4610b72565b81546001600160a01b0391906106cd9083163314610cd8565b166bffffffffffffffffffffffff60a01b600154161760015580f35b8390346101515761010036600319011261015157366084116101515736610104116101515761072260018060a01b038354163314610cd8565b80825b8281106107525750506084825b82811061073d578380f35b60019060208335930192816006015501610732565b60019060208335930192816002015501610725565b505034610151573660031901126104da576107a0610783610b72565b61079760018060a01b038454163314610cd8565b60243590610c5e565b80f35b905034610252576020366003190112610252576107be610b72565b835491906001600160a01b03906107d83383861614610cd8565b169283156107f25750506001600160a01b03191617815580f35b906020606492519162461bcd60e51b835282015260096024820152682d32b9379030b2323960b91b6044820152fd5b90503461025257816003193601126102525761083b610b72565b600154909290336001600160a01b039182161490811561089d575b501561086957836107a060243585610c5e565b906020606492519162461bcd60e51b8352820152600e60248201526d139bdd08185d5d1a1bdc9a5e995960921b6044820152fd5b9050845416331438610856565b849250346102525760208060031936011261034f57823592338552600a8252858520848652825285852054928315610b3c57508492855b828110610abe5750508215610a6c5785516370a0823160e01b81523082820152739ea8653640e22a5b69887985bb75d496dc97022a91908381602481865afa908115610a62579085918891610a31575b50106109e2578361097c969792849261094c83600c54610bcf565b600c55845163a9059cbb60e01b81523391810191825260208201939093529197889283918b918391604090910190565b03925af19485156109d8577ff01da32686223933d8a18a391060918c7f11a3648639edd87ae013e2e27317439394956109bb575b50519283523392a380f35b6109d190833d851161030f576103008183610c24565b50866109b0565b81513d88823e3d90fd5b865162461bcd60e51b81529081018390526024808201527f496e73756666696369656e742055544832202d207761697420666f7220726573604482015263746f636b60e01b6064820152608490fd5b809250858092503d8311610a5b575b610a4a8183610c24565b810103126104c05784905189610931565b503d610a40565b88513d89823e3d90fd5b60849186519162461bcd60e51b8352820152602860248201527f416c6c20746965727320616c726561647920636c61696d6564206f72206e6f74604482015267081c995858da195960c21b6064820152fd5b806002015482101580610b17575b610ad9575b6001016108e1565b93610b0f600191338952600b8652898920888a528652898920878a5286528989208360ff19825416179055866006015490610bcf565b949050610ad1565b50338752600b84528787208688528452878720818852845260ff888820541615610acc565b8260649262461bcd60e51b8352820152601460248201527309cde40ecded8eadaca40e8d0d2e640dadedce8d60631b6044820152fd5b600435906001600160a01b0382168203610b8857565b600080fd5b604090949392919460c081019581526020926020820152016000905b60048210610bb75750505050565b828060019260ff875116815201940191019092610ba9565b91908201809211610bdc57565b634e487b7160e01b600052601160045260246000fd5b6080810190811067ffffffffffffffff821117610c0e57604052565b634e487b7160e01b600052604160045260246000fd5b90601f8019910116810190811067ffffffffffffffff821117610c0e57604052565b90816020910312610b8857518015158103610b885790565b907fbe136f55822a8400613c511fe3a4ab8aeaa1df9c6d834afd7d8531039e327b0962278d0042049260018060a01b031691600090838252600a60205260408281809420878252602052818120610cb6848254610bcf565b9055858152600a602052818120878252602052205482519182526020820152a3565b15610cdf57565b60405162461bcd60e51b81526020600482015260096024820152682737ba1037bbb732b960b91b6044820152606490fd5b906004811015610d215760051b0190565b634e487b7160e01b600052603260045260246000fdfea2646970667358221220bc998f60bcad6f68a2b9de017e6dfa91183375f5bd8e10548393445d0e0e60cd64736f6c63430008180033","opcodes":"PUSH1 0x80 CALLVALUE PUSH2 0x12A JUMPI PUSH2 0xED2 CODESIZE DUP2 SWAP1 SUB SWAP2 PUSH1 0x1 PUSH1 0x1 PUSH1 0x40 SHL SUB SWAP2 PUSH1 0x1F DUP5 ADD PUSH1 0x1F NOT AND DUP3 ADD SWAP1 DUP4 DUP3 GT DUP4 DUP4 LT OR PUSH2 0x12F JUMPI DUP5 SWAP2 PUSH1 0x40 MSTORE DUP3 CODECOPY PUSH1 0x20 DUP2 DUP2 SWAP5 DUP2 ADD SUB SLT PUSH2 0x12A JUMPI MLOAD PUSH1 0x1 PUSH1 0x1 PUSH1 0xA0 SHL SUB DUP2 AND SWAP3 SWAP1 DUP4 SWAP1 SUB PUSH2 0x12A JUMPI PUSH2 0x5D PUSH2 0x145 JUMP JUMPDEST PUSH3 0xF4240 DUP2 MSTORE PUSH3 0x989680 PUSH1 0x20 DUP3 ADD MSTORE PUSH4 0x5F5E100 PUSH1 0x40 DUP3 ADD MSTORE PUSH4 0x3B9ACA00 PUSH1 0x60 DUP3 ADD MSTORE PUSH1 0x0 JUMPDEST PUSH1 0x4 DUP2 LT PUSH2 0x111 JUMPI POP POP PUSH2 0x95 PUSH2 0x145 JUMP JUMPDEST PUSH6 0x5AF3107A4000 DUP2 MSTORE PUSH7 0x38D7EA4C68000 PUSH1 0x20 DUP3 ADD MSTORE PUSH7 0x2386F26FC10000 PUSH1 0x40 DUP3 ADD MSTORE PUSH8 0x16345785D8A0000 PUSH1 0x60 DUP3 ADD MSTORE SWAP1 PUSH1 0x0 JUMPDEST PUSH1 0x4 DUP2 LT PUSH2 0xFC JUMPI DUP5 PUSH1 0x1 DUP1 PUSH1 0xA0 SHL SUB NOT CALLER DUP2 PUSH1 0x0 SLOAD AND OR PUSH1 0x0 SSTORE PUSH1 0x1 SLOAD AND OR PUSH1 0x1 SSTORE PUSH1 0x40 MLOAD PUSH2 0xD6D SWAP1 DUP2 PUSH2 0x165 DUP3 CODECOPY RETURN JUMPDEST DUP3 MLOAD DUP5 AND PUSH1 0x6 DUP3 ADD SSTORE SWAP2 DUP2 ADD SWAP2 PUSH1 0x1 ADD PUSH2 0xCA JUMP JUMPDEST DUP2 MLOAD PUSH4 0xFFFFFFFF AND PUSH1 0x2 DUP3 ADD SSTORE SWAP1 DUP3 ADD SWAP1 PUSH1 0x1 ADD PUSH2 0x83 JUMP JUMPDEST PUSH1 0x0 DUP1 REVERT JUMPDEST PUSH4 0x4E487B71 PUSH1 0xE0 SHL PUSH1 0x0 MSTORE PUSH1 0x41 PUSH1 0x4 MSTORE PUSH1 0x24 PUSH1 0x0 REVERT JUMPDEST PUSH1 0x40 MLOAD SWAP1 PUSH1 0x80 DUP3 ADD PUSH1 0x1 PUSH1 0x1 PUSH1 0x40 SHL SUB DUP2 GT DUP4 DUP3 LT OR PUSH2 0x12F JUMPI PUSH1 0x40 MSTORE JUMP INVALID PUSH1 0x80 PUSH1 0x40 DUP2 DUP2 MSTORE PUSH1 0x4 SWAP2 DUP3 CALLDATASIZE LT ISZERO PUSH2 0x16 JUMPI PUSH1 0x0 DUP1 REVERT JUMPDEST PUSH1 0x0 SWAP3 DUP4 CALLDATALOAD PUSH1 0xE0 SHR SWAP2 DUP3 PUSH4 0x962EF79 EQ PUSH2 0x8AA JUMPI POP DUP2 PUSH4 0x9680135 EQ PUSH2 0x821 JUMPI DUP2 PUSH4 0x13AF4035 EQ PUSH2 0x7A3 JUMPI DUP2 PUSH4 0x1DADDB5E EQ PUSH2 0x767 JUMPI DUP2 PUSH4 0x1F4A05F5 EQ PUSH2 0x6E9 JUMPI DUP2 PUSH4 0x41273657 EQ PUSH2 0x69A JUMPI DUP2 PUSH4 0x5312EA8E EQ PUSH2 0x5E9 JUMPI DUP2 PUSH4 0x556C448D EQ PUSH2 0x5BD JUMPI DUP2 PUSH4 0x6099ECB2 EQ PUSH2 0x4DD JUMPI DUP2 PUSH4 0x76E77DF0 EQ PUSH2 0x39B JUMPI DUP2 PUSH4 0x862A4D47 EQ PUSH2 0x37B JUMPI DUP2 PUSH4 0x8DA5CB5B EQ PUSH2 0x353 JUMPI DUP2 PUSH4 0x9220162F EQ PUSH2 0x256 JUMPI DUP2 PUSH4 0xA100D69D EQ PUSH2 0x226 JUMPI POP DUP1 PUSH4 0xA70C1ABA EQ PUSH2 0x1E6 JUMPI DUP1 PUSH4 0xB4D1D795 EQ PUSH2 0x1C9 JUMPI DUP1 PUSH4 0xC31C9C07 EQ PUSH2 0x1A1 JUMPI DUP1 PUSH4 0xEFCA2EED EQ PUSH2 0x183 JUMPI DUP1 PUSH4 0xF6C08A2E EQ PUSH2 0x155 JUMPI PUSH4 0xFAF8EF98 EQ PUSH2 0x101 JUMPI PUSH1 0x0 DUP1 REVERT JUMPDEST CALLVALUE PUSH2 0x151 JUMPI PUSH1 0x60 CALLDATASIZE PUSH1 0x3 NOT ADD SLT PUSH2 0x151 JUMPI PUSH1 0x20 SWAP2 PUSH1 0xFF SWAP1 DUP3 SWAP1 PUSH1 0x1 PUSH1 0x1 PUSH1 0xA0 SHL SUB PUSH2 0x12A PUSH2 0xB72 JUMP JUMPDEST AND DUP2 MSTORE PUSH1 0xB DUP6 MSTORE DUP2 DUP2 KECCAK256 PUSH1 0x24 CALLDATALOAD DUP3 MSTORE DUP6 MSTORE DUP2 DUP2 KECCAK256 PUSH1 0x44 CALLDATALOAD DUP3 MSTORE DUP6 MSTORE KECCAK256 SLOAD AND SWAP1 MLOAD SWAP1 ISZERO ISZERO DUP2 MSTORE RETURN JUMPDEST POP DUP1 REVERT JUMPDEST POP CALLVALUE PUSH2 0x151 JUMPI DUP2 PUSH1 0x3 NOT CALLDATASIZE ADD SLT PUSH2 0x151 JUMPI PUSH1 0x20 SWAP1 MLOAD PUSH20 0x9EA8653640E22A5B69887985BB75D496DC97022A DUP2 MSTORE RETURN JUMPDEST POP CALLVALUE PUSH2 0x151 JUMPI DUP2 PUSH1 0x3 NOT CALLDATASIZE ADD SLT PUSH2 0x151 JUMPI PUSH1 0x20 SWAP1 PUSH1 0xC SLOAD SWAP1 MLOAD SWAP1 DUP2 MSTORE RETURN JUMPDEST POP CALLVALUE PUSH2 0x151 JUMPI DUP2 PUSH1 0x3 NOT CALLDATASIZE ADD SLT PUSH2 0x151 JUMPI PUSH1 0x1 SLOAD SWAP1 MLOAD PUSH1 0x1 PUSH1 0x1 PUSH1 0xA0 SHL SUB SWAP1 SWAP2 AND DUP2 MSTORE PUSH1 0x20 SWAP1 RETURN JUMPDEST POP CALLVALUE PUSH2 0x151 JUMPI DUP2 PUSH1 0x3 NOT CALLDATASIZE ADD SLT PUSH2 0x151 JUMPI PUSH1 0x20 SWAP1 MLOAD PUSH3 0x278D00 DUP2 MSTORE RETURN JUMPDEST POP CALLVALUE PUSH2 0x151 JUMPI DUP1 PUSH1 0x3 NOT CALLDATASIZE ADD SLT PUSH2 0x151 JUMPI PUSH1 0x20 SWAP2 DUP2 SWAP1 PUSH1 0x1 PUSH1 0x1 PUSH1 0xA0 SHL SUB PUSH2 0x20C PUSH2 0xB72 JUMP JUMPDEST AND DUP2 MSTORE PUSH1 0xA DUP5 MSTORE DUP2 DUP2 KECCAK256 PUSH1 0x24 CALLDATALOAD DUP3 MSTORE DUP5 MSTORE KECCAK256 SLOAD SWAP1 MLOAD SWAP1 DUP2 MSTORE RETURN JUMPDEST SWAP1 POP CALLVALUE PUSH2 0x252 JUMPI PUSH1 0x20 CALLDATASIZE PUSH1 0x3 NOT ADD SLT PUSH2 0x252 JUMPI DUP1 CALLDATALOAD SWAP1 DUP2 LT ISZERO PUSH2 0x252 JUMPI PUSH1 0x20 SWAP3 POP PUSH1 0x2 ADD SLOAD SWAP1 MLOAD SWAP1 DUP2 MSTORE RETURN JUMPDEST DUP3 DUP1 REVERT JUMPDEST SWAP2 SWAP1 POP CALLVALUE PUSH2 0x252 JUMPI PUSH1 0x20 DUP1 PUSH1 0x3 NOT CALLDATASIZE ADD SLT PUSH2 0x34F JUMPI DUP3 CALLDATALOAD SWAP2 DUP3 ISZERO PUSH2 0x320 JUMPI DUP1 MLOAD SWAP4 PUSH4 0x23B872DD PUSH1 0xE0 SHL DUP6 MSTORE CALLER SWAP1 DUP6 ADD MSTORE ADDRESS PUSH1 0x24 DUP6 ADD MSTORE DUP3 PUSH1 0x44 DUP6 ADD MSTORE DUP2 DUP5 PUSH1 0x64 DUP2 DUP9 PUSH20 0x9EA8653640E22A5B69887985BB75D496DC97022A GAS CALL SWAP4 DUP5 ISZERO PUSH2 0x316 JUMPI PUSH32 0x5AF8184BEF8E4B45EB9F6ED7734D04DA38CED226495548F46E0C8FF8D7D9A524 SWAP4 SWAP5 PUSH2 0x2E9 JUMPI JUMPDEST POP MLOAD SWAP3 DUP4 MSTORE CALLER SWAP3 LOG2 DUP1 RETURN JUMPDEST PUSH2 0x308 SWAP1 DUP4 RETURNDATASIZE DUP6 GT PUSH2 0x30F JUMPI JUMPDEST PUSH2 0x300 DUP2 DUP4 PUSH2 0xC24 JUMP JUMPDEST DUP2 ADD SWAP1 PUSH2 0xC46 JUMP JUMPDEST POP CODESIZE PUSH2 0x2DE JUMP JUMPDEST POP RETURNDATASIZE PUSH2 0x2F6 JUMP JUMPDEST DUP2 MLOAD RETURNDATASIZE DUP8 DUP3 RETURNDATACOPY RETURNDATASIZE SWAP1 REVERT JUMPDEST MLOAD PUSH3 0x461BCD PUSH1 0xE5 SHL DUP2 MSTORE SWAP3 DUP4 ADD MSTORE POP PUSH1 0xB PUSH1 0x24 DUP3 ADD MSTORE PUSH11 0x16995C9BC8185B5BDD5B9D PUSH1 0xAA SHL PUSH1 0x44 DUP3 ADD MSTORE PUSH1 0x64 SWAP1 REVERT JUMPDEST DUP4 DUP1 REVERT JUMPDEST POP POP CALLVALUE PUSH2 0x151 JUMPI DUP2 PUSH1 0x3 NOT CALLDATASIZE ADD SLT PUSH2 0x151 JUMPI SWAP1 SLOAD SWAP1 MLOAD PUSH1 0x1 PUSH1 0x1 PUSH1 0xA0 SHL SUB SWAP1 SWAP2 AND DUP2 MSTORE PUSH1 0x20 SWAP1 RETURN JUMPDEST POP POP CALLVALUE PUSH2 0x151 JUMPI DUP2 PUSH1 0x3 NOT CALLDATASIZE ADD SLT PUSH2 0x151 JUMPI PUSH1 0x20 SWAP1 MLOAD PUSH3 0x278D00 TIMESTAMP DIV DUP2 MSTORE RETURN JUMPDEST DUP3 DUP5 CALLVALUE PUSH2 0x4DA JUMPI PUSH1 0x20 SWAP2 PUSH1 0x20 PUSH1 0x3 NOT CALLDATASIZE ADD SLT PUSH2 0x151 JUMPI PUSH1 0xC0 PUSH2 0x405 SWAP4 SWAP5 PUSH2 0x3C0 PUSH2 0xB72 JUMP JUMPDEST PUSH1 0x80 DUP5 MLOAD PUSH2 0x3CD DUP2 PUSH2 0xBF2 JUMP JUMPDEST CALLDATASIZE SWAP1 CALLDATACOPY DUP4 MLOAD PUSH4 0x304CF659 PUSH1 0xE1 SHL DUP2 MSTORE PUSH1 0x1 PUSH1 0x1 PUSH1 0xA0 SHL SUB SWAP1 SWAP2 AND SWAP2 DUP2 ADD SWAP2 DUP3 MSTORE PUSH3 0x278D00 TIMESTAMP DIV PUSH1 0x20 DUP4 ADD MSTORE SWAP5 DUP6 SWAP2 DUP3 SWAP2 PUSH1 0x40 SWAP1 SWAP2 ADD SWAP1 JUMP JUMPDEST SUB DUP2 ADDRESS GAS STATICCALL SWAP2 DUP3 ISZERO PUSH2 0x4CF JUMPI DUP1 SWAP4 DUP2 SWAP6 DUP3 SWAP5 PUSH2 0x432 JUMPI JUMPDEST POP POP POP SWAP1 PUSH2 0x42E SWAP2 MLOAD SWAP4 DUP5 SWAP4 DUP5 PUSH2 0xB8D JUMP JUMPDEST SUB SWAP1 RETURN JUMPDEST SWAP3 SWAP4 POP SWAP4 POP SWAP4 POP PUSH1 0xC0 RETURNDATASIZE PUSH1 0xC0 GT PUSH2 0x4C8 JUMPI JUMPDEST PUSH2 0x44E DUP2 DUP6 PUSH2 0xC24 JUMP JUMPDEST DUP4 ADD SWAP1 PUSH1 0xC0 DUP5 DUP4 SUB SLT PUSH2 0x4C4 JUMPI DUP4 MLOAD SWAP2 PUSH1 0x20 DUP6 ADD MLOAD SWAP5 DUP2 PUSH1 0x5F DUP3 ADD SLT ISZERO PUSH2 0x4C0 JUMPI DUP5 MLOAD SWAP7 PUSH2 0x47B DUP9 PUSH2 0xBF2 JUMP JUMPDEST DUP8 SWAP2 PUSH1 0xC0 DUP2 ADD SWAP4 DUP5 GT PUSH2 0x151 JUMPI DUP7 ADD SWAP2 JUMPDEST DUP4 DUP4 LT PUSH2 0x4A7 JUMPI POP POP POP POP POP SWAP1 PUSH2 0x42E SWAP2 SWAP3 SWAP4 SWAP2 DUP6 DUP1 PUSH2 0x41C JUMP JUMPDEST DUP3 MLOAD PUSH1 0xFF DUP2 AND DUP2 SUB PUSH2 0x252 JUMPI DUP2 MSTORE SWAP2 DUP5 ADD SWAP2 DUP5 ADD PUSH2 0x48C JUMP JUMPDEST DUP7 DUP1 REVERT JUMPDEST DUP5 DUP1 REVERT JUMPDEST POP RETURNDATASIZE PUSH2 0x444 JUMP JUMPDEST SWAP1 MLOAD SWAP1 RETURNDATASIZE SWAP1 DUP3 RETURNDATACOPY RETURNDATASIZE SWAP1 REVERT JUMPDEST DUP1 REVERT JUMPDEST DUP4 DUP4 CALLVALUE PUSH2 0x151 JUMPI DUP1 PUSH1 0x3 NOT CALLDATASIZE ADD SLT PUSH2 0x151 JUMPI PUSH2 0x4F7 PUSH2 0xB72 JUMP JUMPDEST SWAP1 PUSH1 0x24 CALLDATALOAD SWAP4 DUP4 DUP3 MLOAD SWAP4 PUSH2 0x509 DUP6 PUSH2 0xBF2 JUMP JUMPDEST PUSH1 0x80 CALLDATASIZE DUP7 CALLDATACOPY PUSH1 0x1 PUSH1 0x1 PUSH1 0xA0 SHL SUB AND DUP1 DUP3 MSTORE PUSH1 0xA PUSH1 0x20 SWAP1 DUP2 MSTORE DUP5 DUP4 KECCAK256 DUP9 DUP5 MSTORE DUP2 MSTORE DUP5 DUP4 KECCAK256 SLOAD SWAP8 SWAP1 SWAP2 DUP4 JUMPDEST DUP6 DUP2 LT PUSH2 0x548 JUMPI DUP7 MLOAD DUP1 PUSH2 0x42E DUP11 DUP14 DUP14 DUP5 PUSH2 0xB8D JUMP JUMPDEST DUP2 DUP6 MSTORE PUSH1 0xB DUP5 MSTORE DUP7 DUP6 KECCAK256 DUP4 DUP7 MSTORE DUP5 MSTORE DUP7 DUP6 KECCAK256 DUP2 DUP7 MSTORE DUP5 MSTORE DUP7 DUP6 KECCAK256 SLOAD PUSH1 0xFF AND ISZERO PUSH2 0x582 JUMPI DUP1 PUSH1 0x2 PUSH2 0x57A PUSH1 0x1 SWAP4 DUP12 PUSH2 0xD10 JUMP JUMPDEST MSTORE JUMPDEST ADD PUSH2 0x532 JUMP JUMPDEST DUP1 PUSH1 0x2 ADD SLOAD DUP11 LT ISZERO PUSH2 0x597 JUMPI JUMPDEST PUSH1 0x1 SWAP1 PUSH2 0x57C JUMP JUMPDEST SWAP8 PUSH2 0x5B5 PUSH1 0x1 SWAP2 DUP3 PUSH2 0x5A9 DUP13 DUP13 PUSH2 0xD10 JUMP JUMPDEST MSTORE DUP11 PUSH1 0x6 ADD SLOAD SWAP1 PUSH2 0xBCF JUMP JUMPDEST SWAP9 SWAP1 POP PUSH2 0x58F JUMP JUMPDEST SWAP1 POP CALLVALUE PUSH2 0x252 JUMPI PUSH1 0x20 CALLDATASIZE PUSH1 0x3 NOT ADD SLT PUSH2 0x252 JUMPI DUP1 CALLDATALOAD SWAP1 DUP2 LT ISZERO PUSH2 0x252 JUMPI PUSH1 0x20 SWAP3 POP PUSH1 0x6 ADD SLOAD SWAP1 MLOAD SWAP1 DUP2 MSTORE RETURN JUMPDEST SWAP2 SWAP1 POP CALLVALUE PUSH2 0x252 JUMPI PUSH1 0x20 CALLDATASIZE PUSH1 0x3 NOT ADD SLT PUSH2 0x252 JUMPI DUP3 SLOAD PUSH2 0x64B SWAP3 PUSH1 0x20 SWAP2 PUSH1 0x1 PUSH1 0x1 PUSH1 0xA0 SHL SUB AND PUSH2 0x61A CALLER DUP3 EQ PUSH2 0xCD8 JUMP JUMPDEST DUP4 MLOAD PUSH4 0xA9059CBB PUSH1 0xE0 SHL DUP2 MSTORE PUSH1 0x1 PUSH1 0x1 PUSH1 0xA0 SHL SUB SWAP1 SWAP2 AND DUP3 DUP3 ADD SWAP1 DUP2 MSTORE SWAP2 CALLDATALOAD PUSH1 0x20 DUP4 ADD MSTORE SWAP4 DUP5 SWAP2 DUP3 SWAP2 PUSH1 0x40 SWAP1 SWAP2 ADD SWAP1 JUMP JUMPDEST SUB DUP2 DUP7 PUSH20 0x9EA8653640E22A5B69887985BB75D496DC97022A GAS CALL SWAP1 DUP2 ISZERO PUSH2 0x691 JUMPI POP PUSH2 0x675 JUMPI POP DUP1 RETURN JUMPDEST PUSH2 0x68D SWAP1 PUSH1 0x20 RETURNDATASIZE PUSH1 0x20 GT PUSH2 0x30F JUMPI PUSH2 0x300 DUP2 DUP4 PUSH2 0xC24 JUMP JUMPDEST POP DUP1 RETURN JUMPDEST MLOAD RETURNDATASIZE DUP5 DUP3 RETURNDATACOPY RETURNDATASIZE SWAP1 REVERT JUMPDEST DUP4 CALLVALUE PUSH2 0x4DA JUMPI PUSH1 0x20 CALLDATASIZE PUSH1 0x3 NOT ADD SLT PUSH2 0x4DA JUMPI PUSH2 0x6B4 PUSH2 0xB72 JUMP JUMPDEST DUP2 SLOAD PUSH1 0x1 PUSH1 0x1 PUSH1 0xA0 SHL SUB SWAP2 SWAP1 PUSH2 0x6CD SWAP1 DUP4 AND CALLER EQ PUSH2 0xCD8 JUMP JUMPDEST AND PUSH12 0xFFFFFFFFFFFFFFFFFFFFFFFF PUSH1 0xA0 SHL PUSH1 0x1 SLOAD AND OR PUSH1 0x1 SSTORE DUP1 RETURN JUMPDEST DUP4 SWAP1 CALLVALUE PUSH2 0x151 JUMPI PUSH2 0x100 CALLDATASIZE PUSH1 0x3 NOT ADD SLT PUSH2 0x151 JUMPI CALLDATASIZE PUSH1 0x84 GT PUSH2 0x151 JUMPI CALLDATASIZE PUSH2 0x104 GT PUSH2 0x151 JUMPI PUSH2 0x722 PUSH1 0x1 DUP1 PUSH1 0xA0 SHL SUB DUP4 SLOAD AND CALLER EQ PUSH2 0xCD8 JUMP JUMPDEST DUP1 DUP3 JUMPDEST DUP3 DUP2 LT PUSH2 0x752 JUMPI POP POP PUSH1 0x84 DUP3 JUMPDEST DUP3 DUP2 LT PUSH2 0x73D JUMPI DUP4 DUP1 RETURN JUMPDEST PUSH1 0x1 SWAP1 PUSH1 0x20 DUP4 CALLDATALOAD SWAP4 ADD SWAP3 DUP2 PUSH1 0x6 ADD SSTORE ADD PUSH2 0x732 JUMP JUMPDEST PUSH1 0x1 SWAP1 PUSH1 0x20 DUP4 CALLDATALOAD SWAP4 ADD SWAP3 DUP2 PUSH1 0x2 ADD SSTORE ADD PUSH2 0x725 JUMP JUMPDEST POP POP CALLVALUE PUSH2 0x151 JUMPI CALLDATASIZE PUSH1 0x3 NOT ADD SLT PUSH2 0x4DA JUMPI PUSH2 0x7A0 PUSH2 0x783 PUSH2 0xB72 JUMP JUMPDEST PUSH2 0x797 PUSH1 0x1 DUP1 PUSH1 0xA0 SHL SUB DUP5 SLOAD AND CALLER EQ PUSH2 0xCD8 JUMP JUMPDEST PUSH1 0x24 CALLDATALOAD SWAP1 PUSH2 0xC5E JUMP JUMPDEST DUP1 RETURN JUMPDEST SWAP1 POP CALLVALUE PUSH2 0x252 JUMPI PUSH1 0x20 CALLDATASIZE PUSH1 0x3 NOT ADD SLT PUSH2 0x252 JUMPI PUSH2 0x7BE PUSH2 0xB72 JUMP JUMPDEST DUP4 SLOAD SWAP2 SWAP1 PUSH1 0x1 PUSH1 0x1 PUSH1 0xA0 SHL SUB SWAP1 PUSH2 0x7D8 CALLER DUP4 DUP7 AND EQ PUSH2 0xCD8 JUMP JUMPDEST AND SWAP3 DUP4 ISZERO PUSH2 0x7F2 JUMPI POP POP PUSH1 0x1 PUSH1 0x1 PUSH1 0xA0 SHL SUB NOT AND OR DUP2 SSTORE DUP1 RETURN JUMPDEST SWAP1 PUSH1 0x20 PUSH1 0x64 SWAP3 MLOAD SWAP2 PUSH3 0x461BCD PUSH1 0xE5 SHL DUP4 MSTORE DUP3 ADD MSTORE PUSH1 0x9 PUSH1 0x24 DUP3 ADD MSTORE PUSH9 0x2D32B9379030B23239 PUSH1 0xB9 SHL PUSH1 0x44 DUP3 ADD MSTORE REVERT JUMPDEST SWAP1 POP CALLVALUE PUSH2 0x252 JUMPI DUP2 PUSH1 0x3 NOT CALLDATASIZE ADD SLT PUSH2 0x252 JUMPI PUSH2 0x83B PUSH2 0xB72 JUMP JUMPDEST PUSH1 0x1 SLOAD SWAP1 SWAP3 SWAP1 CALLER PUSH1 0x1 PUSH1 0x1 PUSH1 0xA0 SHL SUB SWAP2 DUP3 AND EQ SWAP1 DUP2 ISZERO PUSH2 0x89D JUMPI JUMPDEST POP ISZERO PUSH2 0x869 JUMPI DUP4 PUSH2 0x7A0 PUSH1 0x24 CALLDATALOAD DUP6 PUSH2 0xC5E JUMP JUMPDEST SWAP1 PUSH1 0x20 PUSH1 0x64 SWAP3 MLOAD SWAP2 PUSH3 0x461BCD PUSH1 0xE5 SHL DUP4 MSTORE DUP3 ADD MSTORE PUSH1 0xE PUSH1 0x24 DUP3 ADD MSTORE PUSH14 0x139BDD08185D5D1A1BDC9A5E9959 PUSH1 0x92 SHL PUSH1 0x44 DUP3 ADD MSTORE REVERT JUMPDEST SWAP1 POP DUP5 SLOAD AND CALLER EQ CODESIZE PUSH2 0x856 JUMP JUMPDEST DUP5 SWAP3 POP CALLVALUE PUSH2 0x252 JUMPI PUSH1 0x20 DUP1 PUSH1 0x3 NOT CALLDATASIZE ADD SLT PUSH2 0x34F JUMPI DUP3 CALLDATALOAD SWAP3 CALLER DUP6 MSTORE PUSH1 0xA DUP3 MSTORE DUP6 DUP6 KECCAK256 DUP5 DUP7 MSTORE DUP3 MSTORE DUP6 DUP6 KECCAK256 SLOAD SWAP3 DUP4 ISZERO PUSH2 0xB3C JUMPI POP DUP5 SWAP3 DUP6 JUMPDEST DUP3 DUP2 LT PUSH2 0xABE JUMPI POP POP DUP3 ISZERO PUSH2 0xA6C JUMPI DUP6 MLOAD PUSH4 0x70A08231 PUSH1 0xE0 SHL DUP2 MSTORE ADDRESS DUP3 DUP3 ADD MSTORE PUSH20 0x9EA8653640E22A5B69887985BB75D496DC97022A SWAP2 SWAP1 DUP4 DUP2 PUSH1 0x24 DUP2 DUP7 GAS STATICCALL SWAP1 DUP2 ISZERO PUSH2 0xA62 JUMPI SWAP1 DUP6 SWAP2 DUP9 SWAP2 PUSH2 0xA31 JUMPI JUMPDEST POP LT PUSH2 0x9E2 JUMPI DUP4 PUSH2 0x97C SWAP7 SWAP8 SWAP3 DUP5 SWAP3 PUSH2 0x94C DUP4 PUSH1 0xC SLOAD PUSH2 0xBCF JUMP JUMPDEST PUSH1 0xC SSTORE DUP5 MLOAD PUSH4 0xA9059CBB PUSH1 0xE0 SHL DUP2 MSTORE CALLER SWAP2 DUP2 ADD SWAP2 DUP3 MSTORE PUSH1 0x20 DUP3 ADD SWAP4 SWAP1 SWAP4 MSTORE SWAP2 SWAP8 DUP9 SWAP3 DUP4 SWAP2 DUP12 SWAP2 DUP4 SWAP2 PUSH1 0x40 SWAP1 SWAP2 ADD SWAP1 JUMP JUMPDEST SUB SWAP3 GAS CALL SWAP5 DUP6 ISZERO PUSH2 0x9D8 JUMPI PUSH32 0xF01DA32686223933D8A18A391060918C7F11A3648639EDD87AE013E2E2731743 SWAP4 SWAP5 SWAP6 PUSH2 0x9BB JUMPI JUMPDEST POP MLOAD SWAP3 DUP4 MSTORE CALLER SWAP3 LOG3 DUP1 RETURN JUMPDEST PUSH2 0x9D1 SWAP1 DUP4 RETURNDATASIZE DUP6 GT PUSH2 0x30F JUMPI PUSH2 0x300 DUP2 DUP4 PUSH2 0xC24 JUMP JUMPDEST POP DUP7 PUSH2 0x9B0 JUMP JUMPDEST DUP2 MLOAD RETURNDATASIZE DUP9 DUP3 RETURNDATACOPY RETURNDATASIZE SWAP1 REVERT JUMPDEST DUP7 MLOAD PUSH3 0x461BCD PUSH1 0xE5 SHL DUP2 MSTORE SWAP1 DUP2 ADD DUP4 SWAP1 MSTORE PUSH1 0x24 DUP1 DUP3 ADD MSTORE PUSH32 0x496E73756666696369656E742055544832202D207761697420666F7220726573 PUSH1 0x44 DUP3 ADD MSTORE PUSH4 0x746F636B PUSH1 0xE0 SHL PUSH1 0x64 DUP3 ADD MSTORE PUSH1 0x84 SWAP1 REVERT JUMPDEST DUP1 SWAP3 POP DUP6 DUP1 SWAP3 POP RETURNDATASIZE DUP4 GT PUSH2 0xA5B JUMPI JUMPDEST PUSH2 0xA4A DUP2 DUP4 PUSH2 0xC24 JUMP JUMPDEST DUP2 ADD SUB SLT PUSH2 0x4C0 JUMPI DUP5 SWAP1 MLOAD DUP10 PUSH2 0x931 JUMP JUMPDEST POP RETURNDATASIZE PUSH2 0xA40 JUMP JUMPDEST DUP9 MLOAD RETURNDATASIZE DUP10 DUP3 RETURNDATACOPY RETURNDATASIZE SWAP1 REVERT JUMPDEST PUSH1 0x84 SWAP2 DUP7 MLOAD SWAP2 PUSH3 0x461BCD PUSH1 0xE5 SHL DUP4 MSTORE DUP3 ADD MSTORE PUSH1 0x28 PUSH1 0x24 DUP3 ADD MSTORE PUSH32 0x416C6C20746965727320616C726561647920636C61696D6564206F72206E6F74 PUSH1 0x44 DUP3 ADD MSTORE PUSH8 0x81C995858DA1959 PUSH1 0xC2 SHL PUSH1 0x64 DUP3 ADD MSTORE REVERT JUMPDEST DUP1 PUSH1 0x2 ADD SLOAD DUP3 LT ISZERO DUP1 PUSH2 0xB17 JUMPI JUMPDEST PUSH2 0xAD9 JUMPI JUMPDEST PUSH1 0x1 ADD PUSH2 0x8E1 JUMP JUMPDEST SWAP4 PUSH2 0xB0F PUSH1 0x1 SWAP2 CALLER DUP10 MSTORE PUSH1 0xB DUP7 MSTORE DUP10 DUP10 KECCAK256 DUP9 DUP11 MSTORE DUP7 MSTORE DUP10 DUP10 KECCAK256 DUP8 DUP11 MSTORE DUP7 MSTORE DUP10 DUP10 KECCAK256 DUP4 PUSH1 0xFF NOT DUP3 SLOAD AND OR SWAP1 SSTORE DUP7 PUSH1 0x6 ADD SLOAD SWAP1 PUSH2 0xBCF JUMP JUMPDEST SWAP5 SWAP1 POP PUSH2 0xAD1 JUMP JUMPDEST POP CALLER DUP8 MSTORE PUSH1 0xB DUP5 MSTORE DUP8 DUP8 KECCAK256 DUP7 DUP9 MSTORE DUP5 MSTORE DUP8 DUP8 KECCAK256 DUP2 DUP9 MSTORE DUP5 MSTORE PUSH1 0xFF DUP9 DUP9 KECCAK256 SLOAD AND ISZERO PUSH2 0xACC JUMP JUMPDEST DUP3 PUSH1 0x64 SWAP3 PUSH3 0x461BCD PUSH1 0xE5 SHL DUP4 MSTORE DUP3 ADD MSTORE PUSH1 0x14 PUSH1 0x24 DUP3 ADD MSTORE PUSH20 0x9CDE40ECDED8EADACA40E8D0D2E640DADEDCE8D PUSH1 0x63 SHL PUSH1 0x44 DUP3 ADD MSTORE REVERT JUMPDEST PUSH1 0x4 CALLDATALOAD SWAP1 PUSH1 0x1 PUSH1 0x1 PUSH1 0xA0 SHL SUB DUP3 AND DUP3 SUB PUSH2 0xB88 JUMPI JUMP JUMPDEST PUSH1 0x0 DUP1 REVERT JUMPDEST PUSH1 0x40 SWAP1 SWAP5 SWAP4 SWAP3 SWAP2 SWAP5 PUSH1 0xC0 DUP2 ADD SWAP6 DUP2 MSTORE PUSH1 0x20 SWAP3 PUSH1 0x20 DUP3 ADD MSTORE ADD PUSH1 0x0 SWAP1 JUMPDEST PUSH1 0x4 DUP3 LT PUSH2 0xBB7 JUMPI POP POP POP POP JUMP JUMPDEST DUP3 DUP1 PUSH1 0x1 SWAP3 PUSH1 0xFF DUP8 MLOAD AND DUP2 MSTORE ADD SWAP5 ADD SWAP2 ADD SWAP1 SWAP3 PUSH2 0xBA9 JUMP JUMPDEST SWAP2 SWAP1 DUP3 ADD DUP1 SWAP3 GT PUSH2 0xBDC JUMPI JUMP JUMPDEST PUSH4 0x4E487B71 PUSH1 0xE0 SHL PUSH1 0x0 MSTORE PUSH1 0x11 PUSH1 0x4 MSTORE PUSH1 0x24 PUSH1 0x0 REVERT JUMPDEST PUSH1 0x80 DUP2 ADD SWAP1 DUP2 LT PUSH8 0xFFFFFFFFFFFFFFFF DUP3 GT OR PUSH2 0xC0E JUMPI PUSH1 0x40 MSTORE JUMP JUMPDEST PUSH4 0x4E487B71 PUSH1 0xE0 SHL PUSH1 0x0 MSTORE PUSH1 0x41 PUSH1 0x4 MSTORE PUSH1 0x24 PUSH1 0x0 REVERT JUMPDEST SWAP1 PUSH1 0x1F DUP1 NOT SWAP2 ADD AND DUP2 ADD SWAP1 DUP2 LT PUSH8 0xFFFFFFFFFFFFFFFF DUP3 GT OR PUSH2 0xC0E JUMPI PUSH1 0x40 MSTORE JUMP JUMPDEST SWAP1 DUP2 PUSH1 0x20 SWAP2 SUB SLT PUSH2 0xB88 JUMPI MLOAD DUP1 ISZERO ISZERO DUP2 SUB PUSH2 0xB88 JUMPI SWAP1 JUMP JUMPDEST SWAP1 PUSH32 0xBE136F55822A8400613C511FE3A4AB8AEAA1DF9C6D834AFD7D8531039E327B09 PUSH3 0x278D00 TIMESTAMP DIV SWAP3 PUSH1 0x1 DUP1 PUSH1 0xA0 SHL SUB AND SWAP2 PUSH1 0x0 SWAP1 DUP4 DUP3 MSTORE PUSH1 0xA PUSH1 0x20 MSTORE PUSH1 0x40 DUP3 DUP2 DUP1 SWAP5 KECCAK256 DUP8 DUP3 MSTORE PUSH1 0x20 MSTORE DUP2 DUP2 KECCAK256 PUSH2 0xCB6 DUP5 DUP3 SLOAD PUSH2 0xBCF JUMP JUMPDEST SWAP1 SSTORE DUP6 DUP2 MSTORE PUSH1 0xA PUSH1 0x20 MSTORE DUP2 DUP2 KECCAK256 DUP8 DUP3 MSTORE PUSH1 0x20 MSTORE KECCAK256 SLOAD DUP3 MLOAD SWAP2 DUP3 MSTORE PUSH1 0x20 DUP3 ADD MSTORE LOG3 JUMP JUMPDEST ISZERO PUSH2 0xCDF JUMPI JUMP JUMPDEST PUSH1 0x40 MLOAD PUSH3 0x461BCD PUSH1 0xE5 SHL DUP2 MSTORE PUSH1 0x20 PUSH1 0x4 DUP3 ADD MSTORE PUSH1 0x9 PUSH1 0x24 DUP3 ADD MSTORE PUSH9 0x2737BA1037BBB732B9 PUSH1 0xB9 SHL PUSH1 0x44 DUP3 ADD MSTORE PUSH1 0x64 SWAP1 REVERT JUMPDEST SWAP1 PUSH1 0x4 DUP2 LT ISZERO PUSH2 0xD21 JUMPI PUSH1 0x5 SHL ADD SWAP1 JUMP JUMPDEST PUSH4 0x4E487B71 PUSH1 0xE0 SHL PUSH1 0x0 MSTORE PUSH1 0x32 PUSH1 0x4 MSTORE PUSH1 0x24 PUSH1 0x0 REVERT INVALID LOG2 PUSH5 0x6970667358 0x22 SLT KECCAK256 0xBC SWAP10 DUP16 PUSH1 0xBC 0xAD PUSH16 0x68A2B9DE017E6DFA91183375F5BD8E10 SLOAD DUP4 SWAP4 PREVRANDAO TSTORE 0xE 0xE PUSH1 0xCD PUSH5 0x736F6C6343 STOP ADDMOD XOR STOP CALLER "},"methodIdentifiers":{"PERIOD()":"b4d1d795","UTH2()":"f6c08a2e","adminRecordVolume(address,uint256)":"1daddb5e","claimRewards(uint256)":"0962ef79","claimed(address,uint256,uint256)":"faf8ef98","currentMonth()":"862a4d47","emergencyWithdraw(uint256)":"5312ea8e","fundUTH2(uint256)":"9220162f","owner()":"8da5cb5b","pendingNow(address)":"76e77df0","pendingRewards(address,uint256)":"6099ecb2","recordSwap(address,uint256)":"09680135","setOwner(address)":"13af4035","setSwapRouter(address)":"41273657","setTiers(uint256[4],uint256[4])":"1f4a05f5","swapRouter()":"c31c9c07","tierRewards(uint256)":"556c448d","tierThresholds(uint256)":"a100d69d","totalDistributed()":"efca2eed","volume(address,uint256)":"a70c1aba"}}}}}