{"contracts/H2OVIPStandalone.sol":{"H2OVIPStandalone":{"abi":[{"inputs":[{"internalType":"address","name":"_uth2","type":"address"},{"internalType":"address","name":"_h2o","type":"address"}],"stateMutability":"nonpayable","type":"constructor"},{"inputs":[],"name":"H2O","outputs":[{"internalType":"address","name":"","type":"address"}],"stateMutability":"view","type":"function"},{"inputs":[],"name":"UTH2","outputs":[{"internalType":"address","name":"","type":"address"}],"stateMutability":"view","type":"function"},{"inputs":[{"internalType":"uint256","name":"months_","type":"uint256"},{"components":[{"components":[{"internalType":"address","name":"token","type":"address"},{"internalType":"uint256","name":"amount","type":"uint256"}],"internalType":"struct IPermit2.TokenPermissions","name":"permitted","type":"tuple"},{"internalType":"uint256","name":"nonce","type":"uint256"},{"internalType":"uint256","name":"deadline","type":"uint256"}],"internalType":"struct IPermit2.PermitTransferFrom","name":"permit","type":"tuple"},{"internalType":"bytes","name":"sig","type":"bytes"}],"name":"buyVIPWithPermit2","outputs":[],"stateMutability":"nonpayable","type":"function"},{"inputs":[],"name":"claimOwnerVip","outputs":[],"stateMutability":"nonpayable","type":"function"},{"inputs":[{"internalType":"uint256","name":"amount","type":"uint256"}],"name":"depositRewards","outputs":[],"stateMutability":"nonpayable","type":"function"},{"inputs":[{"internalType":"address","name":"","type":"address"}],"name":"holderShares","outputs":[{"internalType":"uint256","name":"","type":"uint256"}],"stateMutability":"view","type":"function"},{"inputs":[{"internalType":"address","name":"user","type":"address"}],"name":"isVIP","outputs":[{"internalType":"bool","name":"","type":"bool"}],"stateMutability":"view","type":"function"},{"inputs":[],"name":"lastTimeRewardApplicable","outputs":[{"internalType":"uint256","name":"","type":"uint256"}],"stateMutability":"view","type":"function"},{"inputs":[],"name":"lastUpdate","outputs":[{"internalType":"uint256","name":"","type":"uint256"}],"stateMutability":"view","type":"function"},{"inputs":[],"name":"owner","outputs":[{"internalType":"address","name":"","type":"address"}],"stateMutability":"view","type":"function"},{"inputs":[{"internalType":"address","name":"user","type":"address"}],"name":"pendingReward","outputs":[{"internalType":"uint256","name":"","type":"uint256"}],"stateMutability":"view","type":"function"},{"inputs":[],"name":"periodFinish","outputs":[{"internalType":"uint256","name":"","type":"uint256"}],"stateMutability":"view","type":"function"},{"inputs":[{"internalType":"address","name":"token","type":"address"},{"internalType":"uint256","name":"amount","type":"uint256"}],"name":"rescueToken","outputs":[],"stateMutability":"nonpayable","type":"function"},{"inputs":[{"internalType":"address","name":"","type":"address"}],"name":"rewardDebt","outputs":[{"internalType":"uint256","name":"","type":"uint256"}],"stateMutability":"view","type":"function"},{"inputs":[],"name":"rewardPerShare","outputs":[{"internalType":"uint256","name":"","type":"uint256"}],"stateMutability":"view","type":"function"},{"inputs":[],"name":"rewardRate","outputs":[{"internalType":"uint256","name":"","type":"uint256"}],"stateMutability":"view","type":"function"},{"inputs":[{"internalType":"address","name":"newOwner","type":"address"}],"name":"setOwner","outputs":[],"stateMutability":"nonpayable","type":"function"},{"inputs":[{"internalType":"uint256","name":"newPrice","type":"uint256"}],"name":"setVipPrice","outputs":[],"stateMutability":"nonpayable","type":"function"},{"inputs":[],"name":"totalHolderShares","outputs":[{"internalType":"uint256","name":"","type":"uint256"}],"stateMutability":"view","type":"function"},{"inputs":[],"name":"vipDuration","outputs":[{"internalType":"uint256","name":"","type":"uint256"}],"stateMutability":"view","type":"function"},{"inputs":[{"internalType":"address","name":"","type":"address"}],"name":"vipExpire","outputs":[{"internalType":"uint256","name":"","type":"uint256"}],"stateMutability":"view","type":"function"},{"inputs":[],"name":"vipPrice","outputs":[{"internalType":"uint256","name":"","type":"uint256"}],"stateMutability":"view","type":"function"},{"inputs":[{"internalType":"uint256","name":"amount","type":"uint256"}],"name":"withdrawUTH2","outputs":[],"stateMutability":"nonpayable","type":"function"}],"evm":{"bytecode":{"linkReferences":{},"object":"60c0346100bd57601f610f5338819003918201601f19168301916001600160401b038311848410176100c25780849260409485528339810103126100bd57610052602061004b836100d8565b92016100d8565b670de0b6b3a764000060015560809190915260a052600080546001600160a01b03191633179055604051610e6690816100ed823960805181818161017a01528181610467015281816104e1015261087a015260a051818181610133015281816102f5015261068d0152f35b600080fd5b634e487b7160e01b600052604160045260246000fd5b51906001600160a01b03821682036100bd5756fe6040608081526004908136101561001557600080fd5b600091823560e01c90816313af403514610be357816333f3d62814610b395781633711b23f14610b1a57816337ef4b15146107eb578163446a2ec8146107cc5781635873eb9b14610794578163765d6b741461075c5781637b0a47ee1461073d57816380faa57d146107205781638bdf67f2146106395781638da5cb5b14610611578163991bbde7146105d9578163a0933701146105bb578163a195aabd14610554578163beb02ee3146103f0578163c0463711146103d1578163cb8304691461024e578163ebe2b12b1461022c57508063f40f0f5214610200578063f4201c3c146101c7578063f49c6229146101a9578063f6c08a2e146101665763feaa524d1461012057600080fd5b34610162578160031936011261016257517f00000000000000000000000000000000000000000000000000000000000000006001600160a01b03168152602090f35b5080fd5b5034610162578160031936011261016257517f00000000000000000000000000000000000000000000000000000000000000006001600160a01b03168152602090f35b50346101625781600319360112610162576020906008549051908152f35b50346101625760203660031901126101625760209181906001600160a01b036101ee610c64565b16815260028452205490519042108152f35b503461016257602036600319011261016257602090610225610220610c64565b610d5f565b9051908152f35b90503461024a578260031936011261024a5760209250549051908152f35b8280fd5b838334610162578160031936011261016257610268610dc5565b9081600655610275610d3d565b6005553383526020916007835281842054801561039b576102b3670de0b6b3a764000091338752600986526102ad8588205485610d52565b90610d07565b0490811561036557338086526009855283862091909155825163a9059cbb60e01b815280870191825260208201929092529091908390839081906040010381877f00000000000000000000000000000000000000000000000000000000000000006001600160a01b03165af190811561035c575061032f578280f35b8161034e92903d10610355575b6103468183610cb7565b810190610cef565b5081808280f35b503d61033c565b513d85823e3d90fd5b825162461bcd60e51b8152808701859052601060248201526f6e6f7468696e6720746f20636c61696d60801b6044820152606490fd5b825162461bcd60e51b8152808701859052601060248201526f3737ba1030902b24a8103437b63232b960811b6044820152606490fd5b5050346101625781600319360112610162576020906005549051908152f35b838334610162576020908160031936011261024a5782548435946001600160a01b0391821690610421338314610c7f565b86156104c6575b861561049957835163a9059cbb60e01b81526001600160a01b0390921690820190815260208101879052909291849184919082908890829060400103927f0000000000000000000000000000000000000000000000000000000000000000165af190811561035c575061032f578280f35b835162461bcd60e51b815290810185905260076024820152663737902aaa241960c91b6044820152606490fd5b83516370a0823160e01b8152308183015290965084816024817f000000000000000000000000000000000000000000000000000000000000000087165afa90811561054a578691610519575b5095610428565b90508481813d8311610543575b6105308183610cb7565b8101031261053f575187610512565b8580fd5b503d610526565b84513d88823e3d90fd5b90503461024a57602036600319011261024a5780359161057e60018060a01b038554163314610c7f565b821561058c57505060015580f35b906020606492519162461bcd60e51b8352820152600960248201526807072696365203e20360bc1b6044820152fd5b5050346101625781600319360112610162576020905162278d008152f35b5050346101625760203660031901126101625760209181906001600160a01b03610601610c64565b1681526002845220549051908152f35b505034610162578160031936011261016257905490516001600160a01b039091168152602090f35b9190503461024a57602036600319011261024a5782823591602060018060a01b03610668818554163314610c7f565b60648351809581936323b872dd60e01b8352338a8401523060248401528860448401527f0000000000000000000000000000000000000000000000000000000000000000165af190811561071757506106f8575b506106c5610dc5565b6006556301e13380809104600355426005554201908142116106e5575580f35b634e487b7160e01b835260119052602482fd5b6107109060203d602011610355576103468183610cb7565b50386106bc565b513d86823e3d90fd5b505034610162578160031936011261016257602090610225610d3d565b5050346101625781600319360112610162576020906003549051908152f35b5050346101625760203660031901126101625760209181906001600160a01b03610784610c64565b1681526007845220549051908152f35b5050346101625760203660031901126101625760209181906001600160a01b036107bc610c64565b1681526009845220549051908152f35b5050346101625781600319360112610162576020906006549051908152f35b9190503461024a5760c036600319011261024a578135916080366023190112610b165760a4359267ffffffffffffffff9081851161053f573660238601121561053f5784830135828111610b125760249236848389010111610a575782151580610b07575b15610ad45761086183600154610d07565b6001600160a01b0392853584811690819003610ad057847f0000000000000000000000000000000000000000000000000000000000000000168103610aa05760443594838610610a6d5789519a8a8c018c811087821117610a5b57908d95949392918c52308d5260209c8d81019586526e22d473030f116ddee9f6b43ac78ba394853b15610a57578b9688948f938f94519c8d9a8b998a9763187945bd60e11b895288015286015260643560448601526084356064860152511660848401525160a48301523360c483015261010060e483015280610104830152808c6101249401848401378181018301849052601f01601f191681010301925af18015610a4d57610a29575b5050338652600285528386205442811115610a22575b62278d009180830292830403610a10579061099791610d30565b33865260028552838620556007845282852054156109b3578480f35b6109bb610dc5565b6006556109c6610d3d565b6005553385526007845260018386205560085491600183018093116109ff57505060085560096006549233855252822055388080808480f35b634e487b7160e01b86526011905284fd5b634e487b7160e01b8752601184528287fd5b504261097d565b8197929711610a3c578452943880610967565b50634e487b7160e01b815260418352fd5b86513d8a823e3d90fd5b8780fd5b634e487b7160e01b8e5260418b52898efd5b895162461bcd60e51b81526020818b0152600e818a01526d616d6f756e7420746f6f206c6f7760901b6044820152606490fd5b885162461bcd60e51b81526020818a0152600b818901526a3bb937b733903a37b5b2b760a91b6044820152606490fd5b8a80fd5b855162461bcd60e51b8152602081870152600e818601526d696e76616c6964206d6f6e74687360901b6044820152606490fd5b50600c831115610850565b8680fd5b8380fd5b5050346101625781600319360112610162576020906001549051908152f35b9190503461024a578060031936011261024a576020610ba992610b5a610c64565b85546001600160a01b03908116908790610b75338414610c7f565b865163a9059cbb60e01b81526001600160a01b03909316948301948552602435602086015291968794859391849160400190565b0393165af1908115610bda5750610bbe575080f35b610bd69060203d602011610355576103468183610cb7565b5080f35b513d84823e3d90fd5b90503461024a57602036600319011261024a57610bfe610c64565b835491906001600160a01b0390610c183383861614610c7f565b16928315610c325750506001600160a01b03191617815580f35b906020606492519162461bcd60e51b8352820152600c60248201526b7a65726f206164647265737360a01b6044820152fd5b600435906001600160a01b0382168203610c7a57565b600080fd5b15610c8657565b60405162461bcd60e51b81526020600482015260096024820152683737ba1037bbb732b960b91b6044820152606490fd5b90601f8019910116810190811067ffffffffffffffff821117610cd957604052565b634e487b7160e01b600052604160045260246000fd5b90816020910312610c7a57518015158103610c7a5790565b81810292918115918404141715610d1a57565b634e487b7160e01b600052601160045260246000fd5b91908201809211610d1a57565b600454804210600014610d4f57504290565b90565b91908203918211610d1a57565b6001600160a01b0316600081815260076020526040812054918215610dbf57610d86610dc5565b908252600960205260408220549182821115610db85750916102ad610db492670de0b6b3a764000094610d52565b0490565b9250505090565b50905090565b6008548015610e2957610dd6610d3d565b60055480821115610e2057610df1610dfa9160065493610d52565b60035490610d07565b91670de0b6b3a764000092838102938185041490151715610d1a57610d4f920490610d30565b50505060065490565b506006549056fea26469706673582212200a8c64853e799356325771131fc84f335fd3c8dca6d258f29dba7ecb60d8a83264736f6c63430008180033","opcodes":"PUSH1 0xC0 CALLVALUE PUSH2 0xBD JUMPI PUSH1 0x1F PUSH2 0xF53 CODESIZE DUP2 SWAP1 SUB SWAP2 DUP3 ADD PUSH1 0x1F NOT AND DUP4 ADD SWAP2 PUSH1 0x1 PUSH1 0x1 PUSH1 0x40 SHL SUB DUP4 GT DUP5 DUP5 LT OR PUSH2 0xC2 JUMPI DUP1 DUP5 SWAP3 PUSH1 0x40 SWAP5 DUP6 MSTORE DUP4 CODECOPY DUP2 ADD SUB SLT PUSH2 0xBD JUMPI PUSH2 0x52 PUSH1 0x20 PUSH2 0x4B DUP4 PUSH2 0xD8 JUMP JUMPDEST SWAP3 ADD PUSH2 0xD8 JUMP JUMPDEST PUSH8 0xDE0B6B3A7640000 PUSH1 0x1 SSTORE PUSH1 0x80 SWAP2 SWAP1 SWAP2 MSTORE PUSH1 0xA0 MSTORE PUSH1 0x0 DUP1 SLOAD PUSH1 0x1 PUSH1 0x1 PUSH1 0xA0 SHL SUB NOT AND CALLER OR SWAP1 SSTORE PUSH1 0x40 MLOAD PUSH2 0xE66 SWAP1 DUP2 PUSH2 0xED DUP3 CODECOPY PUSH1 0x80 MLOAD DUP2 DUP2 DUP2 PUSH2 0x17A ADD MSTORE DUP2 DUP2 PUSH2 0x467 ADD MSTORE DUP2 DUP2 PUSH2 0x4E1 ADD MSTORE PUSH2 0x87A ADD MSTORE PUSH1 0xA0 MLOAD DUP2 DUP2 DUP2 PUSH2 0x133 ADD MSTORE DUP2 DUP2 PUSH2 0x2F5 ADD MSTORE PUSH2 0x68D ADD MSTORE RETURN JUMPDEST PUSH1 0x0 DUP1 REVERT JUMPDEST PUSH4 0x4E487B71 PUSH1 0xE0 SHL PUSH1 0x0 MSTORE PUSH1 0x41 PUSH1 0x4 MSTORE PUSH1 0x24 PUSH1 0x0 REVERT JUMPDEST MLOAD SWAP1 PUSH1 0x1 PUSH1 0x1 PUSH1 0xA0 SHL SUB DUP3 AND DUP3 SUB PUSH2 0xBD JUMPI JUMP INVALID PUSH1 0x40 PUSH1 0x80 DUP2 MSTORE PUSH1 0x4 SWAP1 DUP2 CALLDATASIZE LT ISZERO PUSH2 0x15 JUMPI PUSH1 0x0 DUP1 REVERT JUMPDEST PUSH1 0x0 SWAP2 DUP3 CALLDATALOAD PUSH1 0xE0 SHR SWAP1 DUP2 PUSH4 0x13AF4035 EQ PUSH2 0xBE3 JUMPI DUP2 PUSH4 0x33F3D628 EQ PUSH2 0xB39 JUMPI DUP2 PUSH4 0x3711B23F EQ PUSH2 0xB1A JUMPI DUP2 PUSH4 0x37EF4B15 EQ PUSH2 0x7EB JUMPI DUP2 PUSH4 0x446A2EC8 EQ PUSH2 0x7CC JUMPI DUP2 PUSH4 0x5873EB9B EQ PUSH2 0x794 JUMPI DUP2 PUSH4 0x765D6B74 EQ PUSH2 0x75C JUMPI DUP2 PUSH4 0x7B0A47EE EQ PUSH2 0x73D JUMPI DUP2 PUSH4 0x80FAA57D EQ PUSH2 0x720 JUMPI DUP2 PUSH4 0x8BDF67F2 EQ PUSH2 0x639 JUMPI DUP2 PUSH4 0x8DA5CB5B EQ PUSH2 0x611 JUMPI DUP2 PUSH4 0x991BBDE7 EQ PUSH2 0x5D9 JUMPI DUP2 PUSH4 0xA0933701 EQ PUSH2 0x5BB JUMPI DUP2 PUSH4 0xA195AABD EQ PUSH2 0x554 JUMPI DUP2 PUSH4 0xBEB02EE3 EQ PUSH2 0x3F0 JUMPI DUP2 PUSH4 0xC0463711 EQ PUSH2 0x3D1 JUMPI DUP2 PUSH4 0xCB830469 EQ PUSH2 0x24E JUMPI DUP2 PUSH4 0xEBE2B12B EQ PUSH2 0x22C JUMPI POP DUP1 PUSH4 0xF40F0F52 EQ PUSH2 0x200 JUMPI DUP1 PUSH4 0xF4201C3C EQ PUSH2 0x1C7 JUMPI DUP1 PUSH4 0xF49C6229 EQ PUSH2 0x1A9 JUMPI DUP1 PUSH4 0xF6C08A2E EQ PUSH2 0x166 JUMPI PUSH4 0xFEAA524D EQ PUSH2 0x120 JUMPI PUSH1 0x0 DUP1 REVERT JUMPDEST CALLVALUE PUSH2 0x162 JUMPI DUP2 PUSH1 0x3 NOT CALLDATASIZE ADD SLT PUSH2 0x162 JUMPI MLOAD PUSH32 0x0 PUSH1 0x1 PUSH1 0x1 PUSH1 0xA0 SHL SUB AND DUP2 MSTORE PUSH1 0x20 SWAP1 RETURN JUMPDEST POP DUP1 REVERT JUMPDEST POP CALLVALUE PUSH2 0x162 JUMPI DUP2 PUSH1 0x3 NOT CALLDATASIZE ADD SLT PUSH2 0x162 JUMPI MLOAD PUSH32 0x0 PUSH1 0x1 PUSH1 0x1 PUSH1 0xA0 SHL SUB AND DUP2 MSTORE PUSH1 0x20 SWAP1 RETURN JUMPDEST POP CALLVALUE PUSH2 0x162 JUMPI DUP2 PUSH1 0x3 NOT CALLDATASIZE ADD SLT PUSH2 0x162 JUMPI PUSH1 0x20 SWAP1 PUSH1 0x8 SLOAD SWAP1 MLOAD SWAP1 DUP2 MSTORE RETURN JUMPDEST POP CALLVALUE PUSH2 0x162 JUMPI PUSH1 0x20 CALLDATASIZE PUSH1 0x3 NOT ADD SLT PUSH2 0x162 JUMPI PUSH1 0x20 SWAP2 DUP2 SWAP1 PUSH1 0x1 PUSH1 0x1 PUSH1 0xA0 SHL SUB PUSH2 0x1EE PUSH2 0xC64 JUMP JUMPDEST AND DUP2 MSTORE PUSH1 0x2 DUP5 MSTORE KECCAK256 SLOAD SWAP1 MLOAD SWAP1 TIMESTAMP LT DUP2 MSTORE RETURN JUMPDEST POP CALLVALUE PUSH2 0x162 JUMPI PUSH1 0x20 CALLDATASIZE PUSH1 0x3 NOT ADD SLT PUSH2 0x162 JUMPI PUSH1 0x20 SWAP1 PUSH2 0x225 PUSH2 0x220 PUSH2 0xC64 JUMP JUMPDEST PUSH2 0xD5F JUMP JUMPDEST SWAP1 MLOAD SWAP1 DUP2 MSTORE RETURN JUMPDEST SWAP1 POP CALLVALUE PUSH2 0x24A JUMPI DUP3 PUSH1 0x3 NOT CALLDATASIZE ADD SLT PUSH2 0x24A JUMPI PUSH1 0x20 SWAP3 POP SLOAD SWAP1 MLOAD SWAP1 DUP2 MSTORE RETURN JUMPDEST DUP3 DUP1 REVERT JUMPDEST DUP4 DUP4 CALLVALUE PUSH2 0x162 JUMPI DUP2 PUSH1 0x3 NOT CALLDATASIZE ADD SLT PUSH2 0x162 JUMPI PUSH2 0x268 PUSH2 0xDC5 JUMP JUMPDEST SWAP1 DUP2 PUSH1 0x6 SSTORE PUSH2 0x275 PUSH2 0xD3D JUMP JUMPDEST PUSH1 0x5 SSTORE CALLER DUP4 MSTORE PUSH1 0x20 SWAP2 PUSH1 0x7 DUP4 MSTORE DUP2 DUP5 KECCAK256 SLOAD DUP1 ISZERO PUSH2 0x39B JUMPI PUSH2 0x2B3 PUSH8 0xDE0B6B3A7640000 SWAP2 CALLER DUP8 MSTORE PUSH1 0x9 DUP7 MSTORE PUSH2 0x2AD DUP6 DUP9 KECCAK256 SLOAD DUP6 PUSH2 0xD52 JUMP JUMPDEST SWAP1 PUSH2 0xD07 JUMP JUMPDEST DIV SWAP1 DUP2 ISZERO PUSH2 0x365 JUMPI CALLER DUP1 DUP7 MSTORE PUSH1 0x9 DUP6 MSTORE DUP4 DUP7 KECCAK256 SWAP2 SWAP1 SWAP2 SSTORE DUP3 MLOAD PUSH4 0xA9059CBB PUSH1 0xE0 SHL DUP2 MSTORE DUP1 DUP8 ADD SWAP2 DUP3 MSTORE PUSH1 0x20 DUP3 ADD SWAP3 SWAP1 SWAP3 MSTORE SWAP1 SWAP2 SWAP1 DUP4 SWAP1 DUP4 SWAP1 DUP2 SWAP1 PUSH1 0x40 ADD SUB DUP2 DUP8 PUSH32 0x0 PUSH1 0x1 PUSH1 0x1 PUSH1 0xA0 SHL SUB AND GAS CALL SWAP1 DUP2 ISZERO PUSH2 0x35C JUMPI POP PUSH2 0x32F JUMPI DUP3 DUP1 RETURN JUMPDEST DUP2 PUSH2 0x34E SWAP3 SWAP1 RETURNDATASIZE LT PUSH2 0x355 JUMPI JUMPDEST PUSH2 0x346 DUP2 DUP4 PUSH2 0xCB7 JUMP JUMPDEST DUP2 ADD SWAP1 PUSH2 0xCEF JUMP JUMPDEST POP DUP2 DUP1 DUP3 DUP1 RETURN JUMPDEST POP RETURNDATASIZE PUSH2 0x33C JUMP JUMPDEST MLOAD RETURNDATASIZE DUP6 DUP3 RETURNDATACOPY RETURNDATASIZE SWAP1 REVERT JUMPDEST DUP3 MLOAD PUSH3 0x461BCD PUSH1 0xE5 SHL DUP2 MSTORE DUP1 DUP8 ADD DUP6 SWAP1 MSTORE PUSH1 0x10 PUSH1 0x24 DUP3 ADD MSTORE PUSH16 0x6E6F7468696E6720746F20636C61696D PUSH1 0x80 SHL PUSH1 0x44 DUP3 ADD MSTORE PUSH1 0x64 SWAP1 REVERT JUMPDEST DUP3 MLOAD PUSH3 0x461BCD PUSH1 0xE5 SHL DUP2 MSTORE DUP1 DUP8 ADD DUP6 SWAP1 MSTORE PUSH1 0x10 PUSH1 0x24 DUP3 ADD MSTORE PUSH16 0x3737BA1030902B24A8103437B63232B9 PUSH1 0x81 SHL PUSH1 0x44 DUP3 ADD MSTORE PUSH1 0x64 SWAP1 REVERT JUMPDEST POP POP CALLVALUE PUSH2 0x162 JUMPI DUP2 PUSH1 0x3 NOT CALLDATASIZE ADD SLT PUSH2 0x162 JUMPI PUSH1 0x20 SWAP1 PUSH1 0x5 SLOAD SWAP1 MLOAD SWAP1 DUP2 MSTORE RETURN JUMPDEST DUP4 DUP4 CALLVALUE PUSH2 0x162 JUMPI PUSH1 0x20 SWAP1 DUP2 PUSH1 0x3 NOT CALLDATASIZE ADD SLT PUSH2 0x24A JUMPI DUP3 SLOAD DUP5 CALLDATALOAD SWAP5 PUSH1 0x1 PUSH1 0x1 PUSH1 0xA0 SHL SUB SWAP2 DUP3 AND SWAP1 PUSH2 0x421 CALLER DUP4 EQ PUSH2 0xC7F JUMP JUMPDEST DUP7 ISZERO PUSH2 0x4C6 JUMPI JUMPDEST DUP7 ISZERO PUSH2 0x499 JUMPI DUP4 MLOAD PUSH4 0xA9059CBB PUSH1 0xE0 SHL DUP2 MSTORE PUSH1 0x1 PUSH1 0x1 PUSH1 0xA0 SHL SUB SWAP1 SWAP3 AND SWAP1 DUP3 ADD SWAP1 DUP2 MSTORE PUSH1 0x20 DUP2 ADD DUP8 SWAP1 MSTORE SWAP1 SWAP3 SWAP2 DUP5 SWAP2 DUP5 SWAP2 SWAP1 DUP3 SWAP1 DUP9 SWAP1 DUP3 SWAP1 PUSH1 0x40 ADD SUB SWAP3 PUSH32 0x0 AND GAS CALL SWAP1 DUP2 ISZERO PUSH2 0x35C JUMPI POP PUSH2 0x32F JUMPI DUP3 DUP1 RETURN JUMPDEST DUP4 MLOAD PUSH3 0x461BCD PUSH1 0xE5 SHL DUP2 MSTORE SWAP1 DUP2 ADD DUP6 SWAP1 MSTORE PUSH1 0x7 PUSH1 0x24 DUP3 ADD MSTORE PUSH7 0x3737902AAA2419 PUSH1 0xC9 SHL PUSH1 0x44 DUP3 ADD MSTORE PUSH1 0x64 SWAP1 REVERT JUMPDEST DUP4 MLOAD PUSH4 0x70A08231 PUSH1 0xE0 SHL DUP2 MSTORE ADDRESS DUP2 DUP4 ADD MSTORE SWAP1 SWAP7 POP DUP5 DUP2 PUSH1 0x24 DUP2 PUSH32 0x0 DUP8 AND GAS STATICCALL SWAP1 DUP2 ISZERO PUSH2 0x54A JUMPI DUP7 SWAP2 PUSH2 0x519 JUMPI JUMPDEST POP SWAP6 PUSH2 0x428 JUMP JUMPDEST SWAP1 POP DUP5 DUP2 DUP2 RETURNDATASIZE DUP4 GT PUSH2 0x543 JUMPI JUMPDEST PUSH2 0x530 DUP2 DUP4 PUSH2 0xCB7 JUMP JUMPDEST DUP2 ADD SUB SLT PUSH2 0x53F JUMPI MLOAD DUP8 PUSH2 0x512 JUMP JUMPDEST DUP6 DUP1 REVERT JUMPDEST POP RETURNDATASIZE PUSH2 0x526 JUMP JUMPDEST DUP5 MLOAD RETURNDATASIZE DUP9 DUP3 RETURNDATACOPY RETURNDATASIZE SWAP1 REVERT JUMPDEST SWAP1 POP CALLVALUE PUSH2 0x24A JUMPI PUSH1 0x20 CALLDATASIZE PUSH1 0x3 NOT ADD SLT PUSH2 0x24A JUMPI DUP1 CALLDATALOAD SWAP2 PUSH2 0x57E PUSH1 0x1 DUP1 PUSH1 0xA0 SHL SUB DUP6 SLOAD AND CALLER EQ PUSH2 0xC7F JUMP JUMPDEST DUP3 ISZERO PUSH2 0x58C JUMPI POP POP PUSH1 0x1 SSTORE DUP1 RETURN JUMPDEST SWAP1 PUSH1 0x20 PUSH1 0x64 SWAP3 MLOAD SWAP2 PUSH3 0x461BCD PUSH1 0xE5 SHL DUP4 MSTORE DUP3 ADD MSTORE PUSH1 0x9 PUSH1 0x24 DUP3 ADD MSTORE PUSH9 0x7072696365203E203 PUSH1 0xBC SHL PUSH1 0x44 DUP3 ADD MSTORE REVERT JUMPDEST POP POP CALLVALUE PUSH2 0x162 JUMPI DUP2 PUSH1 0x3 NOT CALLDATASIZE ADD SLT PUSH2 0x162 JUMPI PUSH1 0x20 SWAP1 MLOAD PUSH3 0x278D00 DUP2 MSTORE RETURN JUMPDEST POP POP CALLVALUE PUSH2 0x162 JUMPI PUSH1 0x20 CALLDATASIZE PUSH1 0x3 NOT ADD SLT PUSH2 0x162 JUMPI PUSH1 0x20 SWAP2 DUP2 SWAP1 PUSH1 0x1 PUSH1 0x1 PUSH1 0xA0 SHL SUB PUSH2 0x601 PUSH2 0xC64 JUMP JUMPDEST AND DUP2 MSTORE PUSH1 0x2 DUP5 MSTORE KECCAK256 SLOAD SWAP1 MLOAD SWAP1 DUP2 MSTORE RETURN JUMPDEST POP POP CALLVALUE PUSH2 0x162 JUMPI DUP2 PUSH1 0x3 NOT CALLDATASIZE ADD SLT PUSH2 0x162 JUMPI SWAP1 SLOAD SWAP1 MLOAD PUSH1 0x1 PUSH1 0x1 PUSH1 0xA0 SHL SUB SWAP1 SWAP2 AND DUP2 MSTORE PUSH1 0x20 SWAP1 RETURN JUMPDEST SWAP2 SWAP1 POP CALLVALUE PUSH2 0x24A JUMPI PUSH1 0x20 CALLDATASIZE PUSH1 0x3 NOT ADD SLT PUSH2 0x24A JUMPI DUP3 DUP3 CALLDATALOAD SWAP2 PUSH1 0x20 PUSH1 0x1 DUP1 PUSH1 0xA0 SHL SUB PUSH2 0x668 DUP2 DUP6 SLOAD AND CALLER EQ PUSH2 0xC7F JUMP JUMPDEST PUSH1 0x64 DUP4 MLOAD DUP1 SWAP6 DUP2 SWAP4 PUSH4 0x23B872DD PUSH1 0xE0 SHL DUP4 MSTORE CALLER DUP11 DUP5 ADD MSTORE ADDRESS PUSH1 0x24 DUP5 ADD MSTORE DUP9 PUSH1 0x44 DUP5 ADD MSTORE PUSH32 0x0 AND GAS CALL SWAP1 DUP2 ISZERO PUSH2 0x717 JUMPI POP PUSH2 0x6F8 JUMPI JUMPDEST POP PUSH2 0x6C5 PUSH2 0xDC5 JUMP JUMPDEST PUSH1 0x6 SSTORE PUSH4 0x1E13380 DUP1 SWAP2 DIV PUSH1 0x3 SSTORE TIMESTAMP PUSH1 0x5 SSTORE TIMESTAMP ADD SWAP1 DUP2 TIMESTAMP GT PUSH2 0x6E5 JUMPI SSTORE DUP1 RETURN JUMPDEST PUSH4 0x4E487B71 PUSH1 0xE0 SHL DUP4 MSTORE PUSH1 0x11 SWAP1 MSTORE PUSH1 0x24 DUP3 REVERT JUMPDEST PUSH2 0x710 SWAP1 PUSH1 0x20 RETURNDATASIZE PUSH1 0x20 GT PUSH2 0x355 JUMPI PUSH2 0x346 DUP2 DUP4 PUSH2 0xCB7 JUMP JUMPDEST POP CODESIZE PUSH2 0x6BC JUMP JUMPDEST MLOAD RETURNDATASIZE DUP7 DUP3 RETURNDATACOPY RETURNDATASIZE SWAP1 REVERT JUMPDEST POP POP CALLVALUE PUSH2 0x162 JUMPI DUP2 PUSH1 0x3 NOT CALLDATASIZE ADD SLT PUSH2 0x162 JUMPI PUSH1 0x20 SWAP1 PUSH2 0x225 PUSH2 0xD3D JUMP JUMPDEST POP POP CALLVALUE PUSH2 0x162 JUMPI DUP2 PUSH1 0x3 NOT CALLDATASIZE ADD SLT PUSH2 0x162 JUMPI PUSH1 0x20 SWAP1 PUSH1 0x3 SLOAD SWAP1 MLOAD SWAP1 DUP2 MSTORE RETURN JUMPDEST POP POP CALLVALUE PUSH2 0x162 JUMPI PUSH1 0x20 CALLDATASIZE PUSH1 0x3 NOT ADD SLT PUSH2 0x162 JUMPI PUSH1 0x20 SWAP2 DUP2 SWAP1 PUSH1 0x1 PUSH1 0x1 PUSH1 0xA0 SHL SUB PUSH2 0x784 PUSH2 0xC64 JUMP JUMPDEST AND DUP2 MSTORE PUSH1 0x7 DUP5 MSTORE KECCAK256 SLOAD SWAP1 MLOAD SWAP1 DUP2 MSTORE RETURN JUMPDEST POP POP CALLVALUE PUSH2 0x162 JUMPI PUSH1 0x20 CALLDATASIZE PUSH1 0x3 NOT ADD SLT PUSH2 0x162 JUMPI PUSH1 0x20 SWAP2 DUP2 SWAP1 PUSH1 0x1 PUSH1 0x1 PUSH1 0xA0 SHL SUB PUSH2 0x7BC PUSH2 0xC64 JUMP JUMPDEST AND DUP2 MSTORE PUSH1 0x9 DUP5 MSTORE KECCAK256 SLOAD SWAP1 MLOAD SWAP1 DUP2 MSTORE RETURN JUMPDEST POP POP CALLVALUE PUSH2 0x162 JUMPI DUP2 PUSH1 0x3 NOT CALLDATASIZE ADD SLT PUSH2 0x162 JUMPI PUSH1 0x20 SWAP1 PUSH1 0x6 SLOAD SWAP1 MLOAD SWAP1 DUP2 MSTORE RETURN JUMPDEST SWAP2 SWAP1 POP CALLVALUE PUSH2 0x24A JUMPI PUSH1 0xC0 CALLDATASIZE PUSH1 0x3 NOT ADD SLT PUSH2 0x24A JUMPI DUP2 CALLDATALOAD SWAP2 PUSH1 0x80 CALLDATASIZE PUSH1 0x23 NOT ADD SLT PUSH2 0xB16 JUMPI PUSH1 0xA4 CALLDATALOAD SWAP3 PUSH8 0xFFFFFFFFFFFFFFFF SWAP1 DUP2 DUP6 GT PUSH2 0x53F JUMPI CALLDATASIZE PUSH1 0x23 DUP7 ADD SLT ISZERO PUSH2 0x53F JUMPI DUP5 DUP4 ADD CALLDATALOAD DUP3 DUP2 GT PUSH2 0xB12 JUMPI PUSH1 0x24 SWAP3 CALLDATASIZE DUP5 DUP4 DUP10 ADD ADD GT PUSH2 0xA57 JUMPI DUP3 ISZERO ISZERO DUP1 PUSH2 0xB07 JUMPI JUMPDEST ISZERO PUSH2 0xAD4 JUMPI PUSH2 0x861 DUP4 PUSH1 0x1 SLOAD PUSH2 0xD07 JUMP JUMPDEST PUSH1 0x1 PUSH1 0x1 PUSH1 0xA0 SHL SUB SWAP3 DUP6 CALLDATALOAD DUP5 DUP2 AND SWAP1 DUP2 SWAP1 SUB PUSH2 0xAD0 JUMPI DUP5 PUSH32 0x0 AND DUP2 SUB PUSH2 0xAA0 JUMPI PUSH1 0x44 CALLDATALOAD SWAP5 DUP4 DUP7 LT PUSH2 0xA6D JUMPI DUP10 MLOAD SWAP11 DUP11 DUP13 ADD DUP13 DUP2 LT DUP8 DUP3 GT OR PUSH2 0xA5B JUMPI SWAP1 DUP14 SWAP6 SWAP5 SWAP4 SWAP3 SWAP2 DUP13 MSTORE ADDRESS DUP14 MSTORE PUSH1 0x20 SWAP13 DUP14 DUP2 ADD SWAP6 DUP7 MSTORE PUSH15 0x22D473030F116DDEE9F6B43AC78BA3 SWAP5 DUP6 EXTCODESIZE ISZERO PUSH2 0xA57 JUMPI DUP12 SWAP7 DUP9 SWAP5 DUP16 SWAP4 DUP16 SWAP5 MLOAD SWAP13 DUP14 SWAP11 DUP12 SWAP10 DUP11 SWAP8 PUSH4 0x187945BD PUSH1 0xE1 SHL DUP10 MSTORE DUP9 ADD MSTORE DUP7 ADD MSTORE PUSH1 0x64 CALLDATALOAD PUSH1 0x44 DUP7 ADD MSTORE PUSH1 0x84 CALLDATALOAD PUSH1 0x64 DUP7 ADD MSTORE MLOAD AND PUSH1 0x84 DUP5 ADD MSTORE MLOAD PUSH1 0xA4 DUP4 ADD MSTORE CALLER PUSH1 0xC4 DUP4 ADD MSTORE PUSH2 0x100 PUSH1 0xE4 DUP4 ADD MSTORE DUP1 PUSH2 0x104 DUP4 ADD MSTORE DUP1 DUP13 PUSH2 0x124 SWAP5 ADD DUP5 DUP5 ADD CALLDATACOPY DUP2 DUP2 ADD DUP4 ADD DUP5 SWAP1 MSTORE PUSH1 0x1F ADD PUSH1 0x1F NOT AND DUP2 ADD SUB ADD SWAP3 GAS CALL DUP1 ISZERO PUSH2 0xA4D JUMPI PUSH2 0xA29 JUMPI JUMPDEST POP POP CALLER DUP7 MSTORE PUSH1 0x2 DUP6 MSTORE DUP4 DUP7 KECCAK256 SLOAD TIMESTAMP DUP2 GT ISZERO PUSH2 0xA22 JUMPI JUMPDEST PUSH3 0x278D00 SWAP2 DUP1 DUP4 MUL SWAP3 DUP4 DIV SUB PUSH2 0xA10 JUMPI SWAP1 PUSH2 0x997 SWAP2 PUSH2 0xD30 JUMP JUMPDEST CALLER DUP7 MSTORE PUSH1 0x2 DUP6 MSTORE DUP4 DUP7 KECCAK256 SSTORE PUSH1 0x7 DUP5 MSTORE DUP3 DUP6 KECCAK256 SLOAD ISZERO PUSH2 0x9B3 JUMPI DUP5 DUP1 RETURN JUMPDEST PUSH2 0x9BB PUSH2 0xDC5 JUMP JUMPDEST PUSH1 0x6 SSTORE PUSH2 0x9C6 PUSH2 0xD3D JUMP JUMPDEST PUSH1 0x5 SSTORE CALLER DUP6 MSTORE PUSH1 0x7 DUP5 MSTORE PUSH1 0x1 DUP4 DUP7 KECCAK256 SSTORE PUSH1 0x8 SLOAD SWAP2 PUSH1 0x1 DUP4 ADD DUP1 SWAP4 GT PUSH2 0x9FF JUMPI POP POP PUSH1 0x8 SSTORE PUSH1 0x9 PUSH1 0x6 SLOAD SWAP3 CALLER DUP6 MSTORE MSTORE DUP3 KECCAK256 SSTORE CODESIZE DUP1 DUP1 DUP1 DUP5 DUP1 RETURN JUMPDEST PUSH4 0x4E487B71 PUSH1 0xE0 SHL DUP7 MSTORE PUSH1 0x11 SWAP1 MSTORE DUP5 REVERT JUMPDEST PUSH4 0x4E487B71 PUSH1 0xE0 SHL DUP8 MSTORE PUSH1 0x11 DUP5 MSTORE DUP3 DUP8 REVERT JUMPDEST POP TIMESTAMP PUSH2 0x97D JUMP JUMPDEST DUP2 SWAP8 SWAP3 SWAP8 GT PUSH2 0xA3C JUMPI DUP5 MSTORE SWAP5 CODESIZE DUP1 PUSH2 0x967 JUMP JUMPDEST POP PUSH4 0x4E487B71 PUSH1 0xE0 SHL DUP2 MSTORE PUSH1 0x41 DUP4 MSTORE REVERT JUMPDEST DUP7 MLOAD RETURNDATASIZE DUP11 DUP3 RETURNDATACOPY RETURNDATASIZE SWAP1 REVERT JUMPDEST DUP8 DUP1 REVERT JUMPDEST PUSH4 0x4E487B71 PUSH1 0xE0 SHL DUP15 MSTORE PUSH1 0x41 DUP12 MSTORE DUP10 DUP15 REVERT JUMPDEST DUP10 MLOAD PUSH3 0x461BCD PUSH1 0xE5 SHL DUP2 MSTORE PUSH1 0x20 DUP2 DUP12 ADD MSTORE PUSH1 0xE DUP2 DUP11 ADD MSTORE PUSH14 0x616D6F756E7420746F6F206C6F77 PUSH1 0x90 SHL PUSH1 0x44 DUP3 ADD MSTORE PUSH1 0x64 SWAP1 REVERT JUMPDEST DUP9 MLOAD PUSH3 0x461BCD PUSH1 0xE5 SHL DUP2 MSTORE PUSH1 0x20 DUP2 DUP11 ADD MSTORE PUSH1 0xB DUP2 DUP10 ADD MSTORE PUSH11 0x3BB937B733903A37B5B2B7 PUSH1 0xA9 SHL PUSH1 0x44 DUP3 ADD MSTORE PUSH1 0x64 SWAP1 REVERT JUMPDEST DUP11 DUP1 REVERT JUMPDEST DUP6 MLOAD PUSH3 0x461BCD PUSH1 0xE5 SHL DUP2 MSTORE PUSH1 0x20 DUP2 DUP8 ADD MSTORE PUSH1 0xE DUP2 DUP7 ADD MSTORE PUSH14 0x696E76616C6964206D6F6E746873 PUSH1 0x90 SHL PUSH1 0x44 DUP3 ADD MSTORE PUSH1 0x64 SWAP1 REVERT JUMPDEST POP PUSH1 0xC DUP4 GT ISZERO PUSH2 0x850 JUMP JUMPDEST DUP7 DUP1 REVERT JUMPDEST DUP4 DUP1 REVERT JUMPDEST POP POP CALLVALUE PUSH2 0x162 JUMPI DUP2 PUSH1 0x3 NOT CALLDATASIZE ADD SLT PUSH2 0x162 JUMPI PUSH1 0x20 SWAP1 PUSH1 0x1 SLOAD SWAP1 MLOAD SWAP1 DUP2 MSTORE RETURN JUMPDEST SWAP2 SWAP1 POP CALLVALUE PUSH2 0x24A JUMPI DUP1 PUSH1 0x3 NOT CALLDATASIZE ADD SLT PUSH2 0x24A JUMPI PUSH1 0x20 PUSH2 0xBA9 SWAP3 PUSH2 0xB5A PUSH2 0xC64 JUMP JUMPDEST DUP6 SLOAD PUSH1 0x1 PUSH1 0x1 PUSH1 0xA0 SHL SUB SWAP1 DUP2 AND SWAP1 DUP8 SWAP1 PUSH2 0xB75 CALLER DUP5 EQ PUSH2 0xC7F JUMP JUMPDEST DUP7 MLOAD PUSH4 0xA9059CBB PUSH1 0xE0 SHL DUP2 MSTORE PUSH1 0x1 PUSH1 0x1 PUSH1 0xA0 SHL SUB SWAP1 SWAP4 AND SWAP5 DUP4 ADD SWAP5 DUP6 MSTORE PUSH1 0x24 CALLDATALOAD PUSH1 0x20 DUP7 ADD MSTORE SWAP2 SWAP7 DUP8 SWAP5 DUP6 SWAP4 SWAP2 DUP5 SWAP2 PUSH1 0x40 ADD SWAP1 JUMP JUMPDEST SUB SWAP4 AND GAS CALL SWAP1 DUP2 ISZERO PUSH2 0xBDA JUMPI POP PUSH2 0xBBE JUMPI POP DUP1 RETURN JUMPDEST PUSH2 0xBD6 SWAP1 PUSH1 0x20 RETURNDATASIZE PUSH1 0x20 GT PUSH2 0x355 JUMPI PUSH2 0x346 DUP2 DUP4 PUSH2 0xCB7 JUMP JUMPDEST POP DUP1 RETURN JUMPDEST MLOAD RETURNDATASIZE DUP5 DUP3 RETURNDATACOPY RETURNDATASIZE SWAP1 REVERT JUMPDEST SWAP1 POP CALLVALUE PUSH2 0x24A JUMPI PUSH1 0x20 CALLDATASIZE PUSH1 0x3 NOT ADD SLT PUSH2 0x24A JUMPI PUSH2 0xBFE PUSH2 0xC64 JUMP JUMPDEST DUP4 SLOAD SWAP2 SWAP1 PUSH1 0x1 PUSH1 0x1 PUSH1 0xA0 SHL SUB SWAP1 PUSH2 0xC18 CALLER DUP4 DUP7 AND EQ PUSH2 0xC7F JUMP JUMPDEST AND SWAP3 DUP4 ISZERO PUSH2 0xC32 JUMPI POP POP PUSH1 0x1 PUSH1 0x1 PUSH1 0xA0 SHL SUB NOT AND OR DUP2 SSTORE DUP1 RETURN JUMPDEST SWAP1 PUSH1 0x20 PUSH1 0x64 SWAP3 MLOAD SWAP2 PUSH3 0x461BCD PUSH1 0xE5 SHL DUP4 MSTORE DUP3 ADD MSTORE PUSH1 0xC PUSH1 0x24 DUP3 ADD MSTORE PUSH12 0x7A65726F2061646472657373 PUSH1 0xA0 SHL PUSH1 0x44 DUP3 ADD MSTORE REVERT JUMPDEST PUSH1 0x4 CALLDATALOAD SWAP1 PUSH1 0x1 PUSH1 0x1 PUSH1 0xA0 SHL SUB DUP3 AND DUP3 SUB PUSH2 0xC7A JUMPI JUMP JUMPDEST PUSH1 0x0 DUP1 REVERT JUMPDEST ISZERO PUSH2 0xC86 JUMPI JUMP JUMPDEST PUSH1 0x40 MLOAD PUSH3 0x461BCD PUSH1 0xE5 SHL DUP2 MSTORE PUSH1 0x20 PUSH1 0x4 DUP3 ADD MSTORE PUSH1 0x9 PUSH1 0x24 DUP3 ADD MSTORE PUSH9 0x3737BA1037BBB732B9 PUSH1 0xB9 SHL PUSH1 0x44 DUP3 ADD MSTORE PUSH1 0x64 SWAP1 REVERT JUMPDEST SWAP1 PUSH1 0x1F DUP1 NOT SWAP2 ADD AND DUP2 ADD SWAP1 DUP2 LT PUSH8 0xFFFFFFFFFFFFFFFF DUP3 GT OR PUSH2 0xCD9 JUMPI PUSH1 0x40 MSTORE JUMP JUMPDEST PUSH4 0x4E487B71 PUSH1 0xE0 SHL PUSH1 0x0 MSTORE PUSH1 0x41 PUSH1 0x4 MSTORE PUSH1 0x24 PUSH1 0x0 REVERT JUMPDEST SWAP1 DUP2 PUSH1 0x20 SWAP2 SUB SLT PUSH2 0xC7A JUMPI MLOAD DUP1 ISZERO ISZERO DUP2 SUB PUSH2 0xC7A JUMPI SWAP1 JUMP JUMPDEST DUP2 DUP2 MUL SWAP3 SWAP2 DUP2 ISZERO SWAP2 DUP5 DIV EQ OR ISZERO PUSH2 0xD1A JUMPI JUMP JUMPDEST PUSH4 0x4E487B71 PUSH1 0xE0 SHL PUSH1 0x0 MSTORE PUSH1 0x11 PUSH1 0x4 MSTORE PUSH1 0x24 PUSH1 0x0 REVERT JUMPDEST SWAP2 SWAP1 DUP3 ADD DUP1 SWAP3 GT PUSH2 0xD1A JUMPI JUMP JUMPDEST PUSH1 0x4 SLOAD DUP1 TIMESTAMP LT PUSH1 0x0 EQ PUSH2 0xD4F JUMPI POP TIMESTAMP SWAP1 JUMP JUMPDEST SWAP1 JUMP JUMPDEST SWAP2 SWAP1 DUP3 SUB SWAP2 DUP3 GT PUSH2 0xD1A JUMPI JUMP JUMPDEST PUSH1 0x1 PUSH1 0x1 PUSH1 0xA0 SHL SUB AND PUSH1 0x0 DUP2 DUP2 MSTORE PUSH1 0x7 PUSH1 0x20 MSTORE PUSH1 0x40 DUP2 KECCAK256 SLOAD SWAP2 DUP3 ISZERO PUSH2 0xDBF JUMPI PUSH2 0xD86 PUSH2 0xDC5 JUMP JUMPDEST SWAP1 DUP3 MSTORE PUSH1 0x9 PUSH1 0x20 MSTORE PUSH1 0x40 DUP3 KECCAK256 SLOAD SWAP2 DUP3 DUP3 GT ISZERO PUSH2 0xDB8 JUMPI POP SWAP2 PUSH2 0x2AD PUSH2 0xDB4 SWAP3 PUSH8 0xDE0B6B3A7640000 SWAP5 PUSH2 0xD52 JUMP JUMPDEST DIV SWAP1 JUMP JUMPDEST SWAP3 POP POP POP SWAP1 JUMP JUMPDEST POP SWAP1 POP SWAP1 JUMP JUMPDEST PUSH1 0x8 SLOAD DUP1 ISZERO PUSH2 0xE29 JUMPI PUSH2 0xDD6 PUSH2 0xD3D JUMP JUMPDEST PUSH1 0x5 SLOAD DUP1 DUP3 GT ISZERO PUSH2 0xE20 JUMPI PUSH2 0xDF1 PUSH2 0xDFA SWAP2 PUSH1 0x6 SLOAD SWAP4 PUSH2 0xD52 JUMP JUMPDEST PUSH1 0x3 SLOAD SWAP1 PUSH2 0xD07 JUMP JUMPDEST SWAP2 PUSH8 0xDE0B6B3A7640000 SWAP3 DUP4 DUP2 MUL SWAP4 DUP2 DUP6 DIV EQ SWAP1 ISZERO OR ISZERO PUSH2 0xD1A JUMPI PUSH2 0xD4F SWAP3 DIV SWAP1 PUSH2 0xD30 JUMP JUMPDEST POP POP POP PUSH1 0x6 SLOAD SWAP1 JUMP JUMPDEST POP PUSH1 0x6 SLOAD SWAP1 JUMP INVALID LOG2 PUSH5 0x6970667358 0x22 SLT KECCAK256 EXP DUP13 PUSH5 0x853E799356 ORIGIN JUMPI PUSH18 0x131FC84F335FD3C8DCA6D258F29DBA7ECB60 0xD8 0xA8 ORIGIN PUSH5 0x736F6C6343 STOP ADDMOD XOR STOP CALLER "},"methodIdentifiers":{"H2O()":"feaa524d","UTH2()":"f6c08a2e","buyVIPWithPermit2(uint256,((address,uint256),uint256,uint256),bytes)":"37ef4b15","claimOwnerVip()":"cb830469","depositRewards(uint256)":"8bdf67f2","holderShares(address)":"765d6b74","isVIP(address)":"f4201c3c","lastTimeRewardApplicable()":"80faa57d","lastUpdate()":"c0463711","owner()":"8da5cb5b","pendingReward(address)":"f40f0f52","periodFinish()":"ebe2b12b","rescueToken(address,uint256)":"33f3d628","rewardDebt(address)":"5873eb9b","rewardPerShare()":"446a2ec8","rewardRate()":"7b0a47ee","setOwner(address)":"13af4035","setVipPrice(uint256)":"a195aabd","totalHolderShares()":"f49c6229","vipDuration()":"a0933701","vipExpire(address)":"991bbde7","vipPrice()":"3711b23f","withdrawUTH2(uint256)":"beb02ee3"}}}}}