{"contracts/MiningUTH2.sol":{"MiningUTH2":{"abi":[{"inputs":[{"internalType":"address","name":"uth2Token","type":"address"},{"internalType":"address","name":"h2oToken","type":"address"},{"internalType":"address","name":"owner1","type":"address"},{"internalType":"address","name":"owner2","type":"address"}],"stateMutability":"nonpayable","type":"constructor"},{"anonymous":false,"inputs":[{"indexed":true,"internalType":"address","name":"token","type":"address"},{"indexed":true,"internalType":"address","name":"to","type":"address"},{"indexed":false,"internalType":"uint256","name":"amount","type":"uint256"}],"name":"EmergencyWithdraw","type":"event"},{"anonymous":false,"inputs":[{"indexed":true,"internalType":"uint256","name":"index","type":"uint256"},{"indexed":true,"internalType":"address","name":"newOwner","type":"address"}],"name":"OwnerChanged","type":"event"},{"anonymous":false,"inputs":[{"indexed":true,"internalType":"uint256","name":"packageId","type":"uint256"},{"indexed":false,"internalType":"uint256","name":"price","type":"uint256"},{"indexed":false,"internalType":"uint256","name":"dailyYield","type":"uint256"}],"name":"PackageConfigured","type":"event"},{"anonymous":false,"inputs":[{"indexed":true,"internalType":"address","name":"user","type":"address"},{"indexed":true,"internalType":"uint256","name":"packageId","type":"uint256"},{"indexed":false,"internalType":"uint256","name":"units","type":"uint256"},{"indexed":false,"internalType":"uint256","name":"totalPaid","type":"uint256"}],"name":"PackagePurchased","type":"event"},{"anonymous":false,"inputs":[{"indexed":true,"internalType":"address","name":"by","type":"address"}],"name":"Paused","type":"event"},{"anonymous":false,"inputs":[{"indexed":true,"internalType":"address","name":"user","type":"address"},{"indexed":false,"internalType":"uint256","name":"amount","type":"uint256"}],"name":"RewardsClaimed","type":"event"},{"anonymous":false,"inputs":[{"indexed":true,"internalType":"address","name":"by","type":"address"}],"name":"Unpaused","type":"event"},{"inputs":[],"name":"H2O_TOKEN","outputs":[{"internalType":"address","name":"","type":"address"}],"stateMutability":"view","type":"function"},{"inputs":[],"name":"MAX_PACKAGES","outputs":[{"internalType":"uint256","name":"","type":"uint256"}],"stateMutability":"view","type":"function"},{"inputs":[],"name":"PERMIT2","outputs":[{"internalType":"address","name":"","type":"address"}],"stateMutability":"view","type":"function"},{"inputs":[],"name":"SECONDS_PER_DAY","outputs":[{"internalType":"uint256","name":"","type":"uint256"}],"stateMutability":"view","type":"function"},{"inputs":[],"name":"UTH2_TOKEN","outputs":[{"internalType":"address","name":"","type":"address"}],"stateMutability":"view","type":"function"},{"inputs":[{"internalType":"uint256","name":"packageId","type":"uint256"},{"internalType":"uint256","name":"units","type":"uint256"},{"components":[{"components":[{"internalType":"address","name":"token","type":"address"},{"internalType":"uint256","name":"amount","type":"uint256"}],"internalType":"struct IPermit2.TokenPermissions","name":"permitted","type":"tuple"},{"internalType":"uint256","name":"nonce","type":"uint256"},{"internalType":"uint256","name":"deadline","type":"uint256"}],"internalType":"struct IPermit2.PermitTransferFrom","name":"permit","type":"tuple"},{"internalType":"bytes","name":"signature","type":"bytes"}],"name":"buyPackage","outputs":[],"stateMutability":"nonpayable","type":"function"},{"inputs":[],"name":"claimRewards","outputs":[],"stateMutability":"nonpayable","type":"function"},{"inputs":[{"internalType":"address","name":"token","type":"address"},{"internalType":"uint256","name":"amount","type":"uint256"},{"internalType":"address","name":"to","type":"address"}],"name":"emergencyWithdraw","outputs":[],"stateMutability":"nonpayable","type":"function"},{"inputs":[],"name":"getAllPackages","outputs":[{"components":[{"internalType":"uint256","name":"priceUTH2","type":"uint256"},{"internalType":"uint256","name":"dailyH2OYield","type":"uint256"},{"internalType":"bool","name":"active","type":"bool"}],"internalType":"struct MiningUTH2.Package[7]","name":"","type":"tuple[7]"}],"stateMutability":"view","type":"function"},{"inputs":[{"internalType":"address","name":"user","type":"address"}],"name":"getUserPackages","outputs":[{"components":[{"internalType":"uint256","name":"units","type":"uint256"},{"internalType":"uint256","name":"lastClaimTime","type":"uint256"},{"internalType":"uint256","name":"pendingRewards","type":"uint256"}],"internalType":"struct MiningUTH2.UserPackage[7]","name":"","type":"tuple[7]"}],"stateMutability":"view","type":"function"},{"inputs":[{"internalType":"uint256","name":"","type":"uint256"}],"name":"owners","outputs":[{"internalType":"address","name":"","type":"address"}],"stateMutability":"view","type":"function"},{"inputs":[{"internalType":"uint256","name":"","type":"uint256"}],"name":"packages","outputs":[{"internalType":"uint256","name":"priceUTH2","type":"uint256"},{"internalType":"uint256","name":"dailyH2OYield","type":"uint256"},{"internalType":"bool","name":"active","type":"bool"}],"stateMutability":"view","type":"function"},{"inputs":[],"name":"pause","outputs":[],"stateMutability":"nonpayable","type":"function"},{"inputs":[],"name":"paused","outputs":[{"internalType":"bool","name":"","type":"bool"}],"stateMutability":"view","type":"function"},{"inputs":[{"internalType":"address","name":"user","type":"address"}],"name":"pendingPerPackage","outputs":[{"internalType":"uint256[7]","name":"result","type":"uint256[7]"}],"stateMutability":"view","type":"function"},{"inputs":[{"internalType":"address","name":"user","type":"address"}],"name":"pendingRewards","outputs":[{"internalType":"uint256","name":"","type":"uint256"}],"stateMutability":"view","type":"function"},{"inputs":[{"internalType":"uint256","name":"index","type":"uint256"},{"internalType":"address","name":"addr","type":"address"}],"name":"setOwner","outputs":[],"stateMutability":"nonpayable","type":"function"},{"inputs":[{"internalType":"uint256","name":"id","type":"uint256"},{"internalType":"uint256","name":"priceUTH2","type":"uint256"},{"internalType":"uint256","name":"dailyYield","type":"uint256"},{"internalType":"bool","name":"active","type":"bool"}],"name":"setPackage","outputs":[],"stateMutability":"nonpayable","type":"function"},{"inputs":[],"name":"unpause","outputs":[],"stateMutability":"nonpayable","type":"function"},{"inputs":[{"internalType":"address","name":"user","type":"address"}],"name":"userDailyYield","outputs":[{"internalType":"uint256","name":"daily","type":"uint256"}],"stateMutability":"view","type":"function"},{"inputs":[{"internalType":"address","name":"","type":"address"},{"internalType":"uint256","name":"","type":"uint256"}],"name":"userPackages","outputs":[{"internalType":"uint256","name":"units","type":"uint256"},{"internalType":"uint256","name":"lastClaimTime","type":"uint256"},{"internalType":"uint256","name":"pendingRewards","type":"uint256"}],"stateMutability":"view","type":"function"}],"evm":{"bytecode":{"linkReferences":{},"object":"60c0346200031257601f620016fd38819003918201601f191683019291906001600160401b0384118385101762000317578160809284926040968752833981010312620003125762000051816200034d565b602090620000618284016200034d565b926200007d6060620000758784016200034d565b92016200034d565b6001600160a01b039490919083861615158062000306575b15620002d557858216938415620002a45760805260a052600080546001600160a01b03199081169094179055818516156200029b5750925b6001931690835416178255620000e26200032d565b8284678ac7230489e8000092838152838582015201528060025560035560ff199082826004541617600455620001176200032d565b68015af1d78b58c40000808252848668018493fba64ef00000938486820152015260055560065582826007541617600755620001526200032d565b6802b5e3af16b18800008082528486680340aad21b3b70000093848682015201526008556009558282600a541617600a556200018d6200032d565b68056bc75e2d63100000808252848668070c1cc73b00c800009384868201520152600b55600c558282600d541617600d55620001c86200032d565b680d8d726b7177a8000080825284866812f939c99edab800009384868201520152600e55600f5582826010541617601055620002036200032d565b681b1ae4d6e2ef50000080825284866828a857425466f800009384868201520152601155601255828260135416176013556200023e6200032d565b8385683635c9adc5dea00000928381526856bc75e2d6310000008095820152015260145560155560165416176016555161139a90816200036382396080518181816101ca0152610a02015260a0518181816107fb0152610df20152f35b905092620000cd565b875162461bcd60e51b815260048101879052600a6024820152692d32b9379037bbb732b960b11b6044820152606490fd5b865162461bcd60e51b815260048101869052600a6024820152692d32b937903a37b5b2b760b11b6044820152606490fd5b50858116151562000095565b600080fd5b634e487b7160e01b600052604160045260246000fd5b60405190606082016001600160401b038111838210176200031757604052565b51906001600160a01b0382168203620003125756fe608060408181526004908136101561001657600080fd5b60009260e0908435821c908163025e7c2714611109575080630a421f0f1461102a57806331d7a26214610fe2578063372500ab14610da75780633f4ba83a14610d44578063551512de14610c215780635c975abb14610bfd5780636afdd85014610bd357806374f0314f14610bb557806376c0773814610b325780637fd3924714610a315780637fed9ab9146109ed578063810e45381461096c5780638456cb59146108f85780638bb0097b146108935780639408e7b214610877578063c216212a1461082a578063c5253764146107e6578063c78da6e6146106e8578063deef5378146105fa5763eaf4a3fa1461010d57600080fd5b346105f6573660031901126105f25781359060248035919060803660431901126105ee5760c4359067ffffffffffffffff958683116105ea57366023840112156105ea5782810135918783116105e657368184860101116105e65761017760ff6018541615611223565b60078710156105b2578515610583576003870260ff83820154161561054e57866101a491600201546112cb565b93846064351061050c576001600160a01b03986044358a8116939190849003610508578a7f0000000000000000000000000000000000000000000000000000000000000000168094036104d857875192888401848110838211176104c657908d918a52308552602097888601958a87526e22d473030f116ddee9f6b43ac78ba391823b156104c2578f938a86928f519a8b978896879463187945bd60e11b86528261024d611154565b16908601526064358d860152608435604486015260a4356064860152511660848401525160a48301523360c483015261010060e483015280610104830152808a6101249401848401378181018301849052601f01601f191681010301925af180156104b857610492575b5050508360011c91898981541699875186818063a9059cbb60e01b9e8f825289888301916102f99260209093929193604081019460018060a01b031681520152565b038186895af1801561048857916103219188979695949361046b575b506001541694886112de565b88519b8c526001600160a01b03909416918b01918252602082019390935289928391829060400103925af1958615610461577f129a0377f5862974e93e873169fd1e8cf0681916d5b8b04338cb4224af00f024949596610434575b50338752601781526103908684892061116a565b506001810190815415158061042a575b610415575b50429055338752601781526103bc8684892061116a565b506103c8868254611258565b90553387526017815260016103df87858a2061116a565b500154156103f6575b82519485528401523392a380f35b338752601781526104098684892061116a565b506001429101556103e8565b600261042189336112eb565b910155386103a5565b50805415156103a0565b61045390823d841161045a575b61044b81836111e2565b81019061127b565b503861037c565b503d610441565b83513d89823e3d90fd5b61048190883d8a1161045a5761044b81836111e2565b5038610315565b89513d85823e3d90fd5b829b939b116104a757508552973880806102b7565b634e487b7160e01b83526041845282fd5b88513d8e823e3d90fd5b8480fd5b634e487b7160e01b8e5260418752838efd5b875162461bcd60e51b8152602081870152600b818401526a2bb937b733903a37b5b2b760a91b6044820152606490fd5b8b80fd5b855162461bcd60e51b8152602081850152601a818401527f496e73756666696369656e74207065726d697420616d6f756e740000000000006044820152606490fd5b855162461bcd60e51b81526020818501526010818401526f5061636b61676520696e61637469766560801b6044820152606490fd5b90600a606492602087519362461bcd60e51b8552840152820152695a65726f20756e69747360b01b6044820152fd5b90600f606492602087519362461bcd60e51b85528401528201526e496e76616c6964207061636b61676560881b6044820152fd5b8880fd5b8780fd5b8580fd5b8280fd5b8380fd5b848383346105f257602090816003193601126105f657610618611139565b90835161062481611194565b83865b8381106106d457505050506001600160a01b031683526017815281832082519061065082611194565b84825b6007821061069a575050835194919050845b60078310610673576102a086f35b83606060019287855180518352848101518584015201518882015201920192019190610665565b60038560019288999699516106ae816111c6565b86548152848701548382015260028701548a820152815201930191019091959295610653565b6106dc611204565b81840152018490610627565b838584346107e25760803660031901126107e2578235906024356044356064358015158091036105ee57855461073390336001600160a01b03918216149081156107d4575b50611293565b60078510156107a4577f48641f4a0f178e182df2f9884537f7d8e8e9e71b933a9df65dea78f211120ce89495968185805161076d816111c6565b868152856020820152015260038702848160020155836003820155019060ff8019835416911617905582519182526020820152a280f35b835162461bcd60e51b8152602081890152600a602482015269125b9d985b1a59081a5960b21b6044820152606490fd5b90506001541633148961072d565b5080fd5b8483346107e257816003193601126107e257517f00000000000000000000000000000000000000000000000000000000000000006001600160a01b03168152602090f35b5050346105f25760203660031901126105f2578135926007841015610874575060036060930260ff8160020154936003830154920154169082519384526020840152151590820152f35b80fd5b8483346107e257816003193601126107e2576020905160078152f35b8483346107e257806003193601126107e2576108ad611139565b6001600160a01b03168252601760205280822060243592600784101561087457506060926108da9161116a565b50805491600260018301549201549181519384526020840152820152f35b8434610874578060031936011261087457805461092990336001600160a01b039182161490811561095e5750611293565b600160ff196018541617601855337f62e78cea01bee320cd4e420270b5ea74000d11b0c9f74754ebdbfc544b05a2588280a280f35b90506001541633148361072d565b828534610874576020906020600319360112610874579061098b611139565b82916001600160a01b039091169082905b600784106109ae576020858751908152f35b909192936109e3600191858552601784526109dd6109ce888a882061116a565b50546003808a020154906112cb565b90611258565b940192919061099c565b8483346107e257816003193601126107e257517f00000000000000000000000000000000000000000000000000000000000000006001600160a01b03168152602090f35b505090346105f257816003193601126105f2576001600160a01b03602435818116938335939290918590036105ee5780610a77918754163314908115610b245750611293565b6002831015610af1578315610abf57505080546001600160a01b031916821781557f9c65bdcdf3baa5d433981546cddddb0c820aa405c7bd651375df9f19f02698768380a380f35b906020606492519162461bcd60e51b8352820152600c60248201526b5a65726f206164647265737360a01b6044820152fd5b906020606492519162461bcd60e51b8352820152600d60248201526c092dcecc2d8d2c840d2dcc8caf609b1b6044820152fd5b90506001541633143861072d565b508382346107e2576020806003193601126105f257610b52929192611139565b92805193610b5f85611194565b85368637835b60078110610b95575050519291835b60078210610b80578585f35b82806001928651815201940191019092610b74565b80610ba5600192849897986112eb565b8160051b87015201949394610b65565b8483346107e257816003193601126107e25760209051620151808152f35b8483346107e257816003193601126107e257602090516e22d473030f116ddee9f6b43ac78ba38152f35b8483346107e257816003193601126107e25760209060ff6018541690519015158152f35b505090346105f25760603660031901126105f257610c3d611139565b9160243590610c4a611154565b85546001600160a01b0390811633148015610d37575b610c6990611293565b808216958615610d0a57835163a9059cbb60e01b81526001600160a01b03909316958301958652602086810186905291169482908190604001038189885af18015610d0057917ff24ef89f38eadc1bde50701ad6e4d6d11a2dc24f7cf834a486991f38833285049391602093610ce3575b5051908152a380f35b610cf990843d861161045a5761044b81836111e2565b5038610cda565b82513d88823e3d90fd5b835162461bcd60e51b815260208188015260076024820152665a65726f20746f60c81b6044820152606490fd5b5060015481163314610c60565b84346108745780600319360112610874578054610d7590336001600160a01b039182161490811561095e5750611293565b60ff1960185416601855337f5db9ee0a495bf2e6ff9c91a7834c1ba4fdd244a5e8aa4e537bd38aeae4b073aa8280a280f35b505090346105f257826003193601126105f257610dc960ff6018541615611223565b8291835b60078110610f7d57508215610f4d5780516370a0823160e01b815230838201526020927f00000000000000000000000000000000000000000000000000000000000000006001600160a01b0316918481602481865afa908115610f43579086918891610f0e575b5010610ecb57825163a9059cbb60e01b8152339181019182526020820186905294939291839186919082908990829060400103925af1938415610ec1577ffc30cddea38e2bf4d6ea7d3f9ed3b6ad7f176419f4963bd81318067a4aee73fe9394610ea4575b50519283523392a280f35b610eba90833d851161045a5761044b81836111e2565b5038610e99565b81513d87823e3d90fd5b825162461bcd60e51b8152908101849052601860248201527f496e73756666696369656e742048324f207265736572766500000000000000006044820152606490fd5b809250868092503d8311610f3c575b610f2781836111e2565b81010312610f385785905138610e34565b8680fd5b503d610f1d565b84513d89823e3d90fd5b906020606492519162461bcd60e51b8352820152600a6024820152694e6f207265776172647360b01b6044820152fd5b3385526017602052610f918183872061116a565b50805415801590610fd5575b610fab575b50600101610dcd565b610fce908295610fbd600194336112eb565b918860028201558442910155611258565b9390610fa2565b5060028101541515610f9d565b82853461087457602036600319011261087457610ffd611139565b91815b60078110611012576020838351908152f35b916110236001916109dd85876112eb565b9201611000565b848383346105f257826003193601126105f257815161104881611194565b835b8281106110f4578351858561105e83611194565b60028281855b600783106110b25750505050805192839092905b60078210611086576102a085f35b600190606085519182518152856020938481015185840152015115158682015201940191019092611078565b60036001918698979851906110c6826111c6565b8654825283870154916020928382015260ff8689015416151589820152815201940192019192959495611064565b6020906110ff611204565b818401520161104a565b859085346105f25760203660031901126105f2573560028110156105f257546001600160a01b0316815260209150f35b600435906001600160a01b038216820361114f57565b600080fd5b604435906001600160a01b038216820361114f57565b90600781101561117e576003020190600090565b634e487b7160e01b600052603260045260246000fd5b60e0810190811067ffffffffffffffff8211176111b057604052565b634e487b7160e01b600052604160045260246000fd5b6060810190811067ffffffffffffffff8211176111b057604052565b90601f8019910116810190811067ffffffffffffffff8211176111b057604052565b60405190611211826111c6565b60006040838281528260208201520152565b1561122a57565b60405162461bcd60e51b815260206004820152600660248201526514185d5cd95960d21b6044820152606490fd5b9190820180921161126557565b634e487b7160e01b600052601160045260246000fd5b9081602091031261114f5751801515810361114f5790565b1561129a57565b60405162461bcd60e51b81526020600482015260096024820152682737ba1037bbb732b960b91b6044820152606490fd5b8181029291811591840414171561126557565b9190820391821161126557565b60018060a01b0316600052601760205261130981604060002061116a565b50805491821561135a576113216001830154426112de565b90600781101561117e5761134e600292611349611357966003806201518096020154906112cb565b6112cb565b04910154611258565b90565b506002915001549056fea264697066735822122090a2f8c4e2a421b19f8ae20a00fc2ad25e1d6a4e5f83392d3e1445e218bc480e64736f6c63430008180033","opcodes":"PUSH1 0xC0 CALLVALUE PUSH3 0x312 JUMPI PUSH1 0x1F PUSH3 0x16FD CODESIZE DUP2 SWAP1 SUB SWAP2 DUP3 ADD PUSH1 0x1F NOT AND DUP4 ADD SWAP3 SWAP2 SWAP1 PUSH1 0x1 PUSH1 0x1 PUSH1 0x40 SHL SUB DUP5 GT DUP4 DUP6 LT OR PUSH3 0x317 JUMPI DUP2 PUSH1 0x80 SWAP3 DUP5 SWAP3 PUSH1 0x40 SWAP7 DUP8 MSTORE DUP4 CODECOPY DUP2 ADD SUB SLT PUSH3 0x312 JUMPI PUSH3 0x51 DUP2 PUSH3 0x34D JUMP JUMPDEST PUSH1 0x20 SWAP1 PUSH3 0x61 DUP3 DUP5 ADD PUSH3 0x34D JUMP JUMPDEST SWAP3 PUSH3 0x7D PUSH1 0x60 PUSH3 0x75 DUP8 DUP5 ADD PUSH3 0x34D JUMP JUMPDEST SWAP3 ADD PUSH3 0x34D JUMP JUMPDEST PUSH1 0x1 PUSH1 0x1 PUSH1 0xA0 SHL SUB SWAP5 SWAP1 SWAP2 SWAP1 DUP4 DUP7 AND ISZERO ISZERO DUP1 PUSH3 0x306 JUMPI JUMPDEST ISZERO PUSH3 0x2D5 JUMPI DUP6 DUP3 AND SWAP4 DUP5 ISZERO PUSH3 0x2A4 JUMPI PUSH1 0x80 MSTORE PUSH1 0xA0 MSTORE PUSH1 0x0 DUP1 SLOAD PUSH1 0x1 PUSH1 0x1 PUSH1 0xA0 SHL SUB NOT SWAP1 DUP2 AND SWAP1 SWAP5 OR SWAP1 SSTORE DUP2 DUP6 AND ISZERO PUSH3 0x29B JUMPI POP SWAP3 JUMPDEST PUSH1 0x1 SWAP4 AND SWAP1 DUP4 SLOAD AND OR DUP3 SSTORE PUSH3 0xE2 PUSH3 0x32D JUMP JUMPDEST DUP3 DUP5 PUSH8 0x8AC7230489E80000 SWAP3 DUP4 DUP2 MSTORE DUP4 DUP6 DUP3 ADD MSTORE ADD MSTORE DUP1 PUSH1 0x2 SSTORE PUSH1 0x3 SSTORE PUSH1 0xFF NOT SWAP1 DUP3 DUP3 PUSH1 0x4 SLOAD AND OR PUSH1 0x4 SSTORE PUSH3 0x117 PUSH3 0x32D JUMP JUMPDEST PUSH9 0x15AF1D78B58C40000 DUP1 DUP3 MSTORE DUP5 DUP7 PUSH9 0x18493FBA64EF00000 SWAP4 DUP5 DUP7 DUP3 ADD MSTORE ADD MSTORE PUSH1 0x5 SSTORE PUSH1 0x6 SSTORE DUP3 DUP3 PUSH1 0x7 SLOAD AND OR PUSH1 0x7 SSTORE PUSH3 0x152 PUSH3 0x32D JUMP JUMPDEST PUSH9 0x2B5E3AF16B1880000 DUP1 DUP3 MSTORE DUP5 DUP7 PUSH9 0x340AAD21B3B700000 SWAP4 DUP5 DUP7 DUP3 ADD MSTORE ADD MSTORE PUSH1 0x8 SSTORE PUSH1 0x9 SSTORE DUP3 DUP3 PUSH1 0xA SLOAD AND OR PUSH1 0xA SSTORE PUSH3 0x18D PUSH3 0x32D JUMP JUMPDEST PUSH9 0x56BC75E2D63100000 DUP1 DUP3 MSTORE DUP5 DUP7 PUSH9 0x70C1CC73B00C80000 SWAP4 DUP5 DUP7 DUP3 ADD MSTORE ADD MSTORE PUSH1 0xB SSTORE PUSH1 0xC SSTORE DUP3 DUP3 PUSH1 0xD SLOAD AND OR PUSH1 0xD SSTORE PUSH3 0x1C8 PUSH3 0x32D JUMP JUMPDEST PUSH9 0xD8D726B7177A80000 DUP1 DUP3 MSTORE DUP5 DUP7 PUSH9 0x12F939C99EDAB80000 SWAP4 DUP5 DUP7 DUP3 ADD MSTORE ADD MSTORE PUSH1 0xE SSTORE PUSH1 0xF SSTORE DUP3 DUP3 PUSH1 0x10 SLOAD AND OR PUSH1 0x10 SSTORE PUSH3 0x203 PUSH3 0x32D JUMP JUMPDEST PUSH9 0x1B1AE4D6E2EF500000 DUP1 DUP3 MSTORE DUP5 DUP7 PUSH9 0x28A857425466F80000 SWAP4 DUP5 DUP7 DUP3 ADD MSTORE ADD MSTORE PUSH1 0x11 SSTORE PUSH1 0x12 SSTORE DUP3 DUP3 PUSH1 0x13 SLOAD AND OR PUSH1 0x13 SSTORE PUSH3 0x23E PUSH3 0x32D JUMP JUMPDEST DUP4 DUP6 PUSH9 0x3635C9ADC5DEA00000 SWAP3 DUP4 DUP2 MSTORE PUSH9 0x56BC75E2D631000000 DUP1 SWAP6 DUP3 ADD MSTORE ADD MSTORE PUSH1 0x14 SSTORE PUSH1 0x15 SSTORE PUSH1 0x16 SLOAD AND OR PUSH1 0x16 SSTORE MLOAD PUSH2 0x139A SWAP1 DUP2 PUSH3 0x363 DUP3 CODECOPY PUSH1 0x80 MLOAD DUP2 DUP2 DUP2 PUSH2 0x1CA ADD MSTORE PUSH2 0xA02 ADD MSTORE PUSH1 0xA0 MLOAD DUP2 DUP2 DUP2 PUSH2 0x7FB ADD MSTORE PUSH2 0xDF2 ADD MSTORE RETURN JUMPDEST SWAP1 POP SWAP3 PUSH3 0xCD JUMP JUMPDEST DUP8 MLOAD PUSH3 0x461BCD PUSH1 0xE5 SHL DUP2 MSTORE PUSH1 0x4 DUP2 ADD DUP8 SWAP1 MSTORE PUSH1 0xA PUSH1 0x24 DUP3 ADD MSTORE PUSH10 0x2D32B9379037BBB732B9 PUSH1 0xB1 SHL PUSH1 0x44 DUP3 ADD MSTORE PUSH1 0x64 SWAP1 REVERT JUMPDEST DUP7 MLOAD PUSH3 0x461BCD PUSH1 0xE5 SHL DUP2 MSTORE PUSH1 0x4 DUP2 ADD DUP7 SWAP1 MSTORE PUSH1 0xA PUSH1 0x24 DUP3 ADD MSTORE PUSH10 0x2D32B937903A37B5B2B7 PUSH1 0xB1 SHL PUSH1 0x44 DUP3 ADD MSTORE PUSH1 0x64 SWAP1 REVERT JUMPDEST POP DUP6 DUP2 AND ISZERO ISZERO PUSH3 0x95 JUMP JUMPDEST PUSH1 0x0 DUP1 REVERT JUMPDEST PUSH4 0x4E487B71 PUSH1 0xE0 SHL PUSH1 0x0 MSTORE PUSH1 0x41 PUSH1 0x4 MSTORE PUSH1 0x24 PUSH1 0x0 REVERT JUMPDEST PUSH1 0x40 MLOAD SWAP1 PUSH1 0x60 DUP3 ADD PUSH1 0x1 PUSH1 0x1 PUSH1 0x40 SHL SUB DUP2 GT DUP4 DUP3 LT OR PUSH3 0x317 JUMPI PUSH1 0x40 MSTORE JUMP JUMPDEST MLOAD SWAP1 PUSH1 0x1 PUSH1 0x1 PUSH1 0xA0 SHL SUB DUP3 AND DUP3 SUB PUSH3 0x312 JUMPI JUMP INVALID PUSH1 0x80 PUSH1 0x40 DUP2 DUP2 MSTORE PUSH1 0x4 SWAP1 DUP2 CALLDATASIZE LT ISZERO PUSH2 0x16 JUMPI PUSH1 0x0 DUP1 REVERT JUMPDEST PUSH1 0x0 SWAP3 PUSH1 0xE0 SWAP1 DUP5 CALLDATALOAD DUP3 SHR SWAP1 DUP2 PUSH4 0x25E7C27 EQ PUSH2 0x1109 JUMPI POP DUP1 PUSH4 0xA421F0F EQ PUSH2 0x102A JUMPI DUP1 PUSH4 0x31D7A262 EQ PUSH2 0xFE2 JUMPI DUP1 PUSH4 0x372500AB EQ PUSH2 0xDA7 JUMPI DUP1 PUSH4 0x3F4BA83A EQ PUSH2 0xD44 JUMPI DUP1 PUSH4 0x551512DE EQ PUSH2 0xC21 JUMPI DUP1 PUSH4 0x5C975ABB EQ PUSH2 0xBFD JUMPI DUP1 PUSH4 0x6AFDD850 EQ PUSH2 0xBD3 JUMPI DUP1 PUSH4 0x74F0314F EQ PUSH2 0xBB5 JUMPI DUP1 PUSH4 0x76C07738 EQ PUSH2 0xB32 JUMPI DUP1 PUSH4 0x7FD39247 EQ PUSH2 0xA31 JUMPI DUP1 PUSH4 0x7FED9AB9 EQ PUSH2 0x9ED JUMPI DUP1 PUSH4 0x810E4538 EQ PUSH2 0x96C JUMPI DUP1 PUSH4 0x8456CB59 EQ PUSH2 0x8F8 JUMPI DUP1 PUSH4 0x8BB0097B EQ PUSH2 0x893 JUMPI DUP1 PUSH4 0x9408E7B2 EQ PUSH2 0x877 JUMPI DUP1 PUSH4 0xC216212A EQ PUSH2 0x82A JUMPI DUP1 PUSH4 0xC5253764 EQ PUSH2 0x7E6 JUMPI DUP1 PUSH4 0xC78DA6E6 EQ PUSH2 0x6E8 JUMPI DUP1 PUSH4 0xDEEF5378 EQ PUSH2 0x5FA JUMPI PUSH4 0xEAF4A3FA EQ PUSH2 0x10D JUMPI PUSH1 0x0 DUP1 REVERT JUMPDEST CALLVALUE PUSH2 0x5F6 JUMPI CALLDATASIZE PUSH1 0x3 NOT ADD SLT PUSH2 0x5F2 JUMPI DUP2 CALLDATALOAD SWAP1 PUSH1 0x24 DUP1 CALLDATALOAD SWAP2 SWAP1 PUSH1 0x80 CALLDATASIZE PUSH1 0x43 NOT ADD SLT PUSH2 0x5EE JUMPI PUSH1 0xC4 CALLDATALOAD SWAP1 PUSH8 0xFFFFFFFFFFFFFFFF SWAP6 DUP7 DUP4 GT PUSH2 0x5EA JUMPI CALLDATASIZE PUSH1 0x23 DUP5 ADD SLT ISZERO PUSH2 0x5EA JUMPI DUP3 DUP2 ADD CALLDATALOAD SWAP2 DUP8 DUP4 GT PUSH2 0x5E6 JUMPI CALLDATASIZE DUP2 DUP5 DUP7 ADD ADD GT PUSH2 0x5E6 JUMPI PUSH2 0x177 PUSH1 0xFF PUSH1 0x18 SLOAD AND ISZERO PUSH2 0x1223 JUMP JUMPDEST PUSH1 0x7 DUP8 LT ISZERO PUSH2 0x5B2 JUMPI DUP6 ISZERO PUSH2 0x583 JUMPI PUSH1 0x3 DUP8 MUL PUSH1 0xFF DUP4 DUP3 ADD SLOAD AND ISZERO PUSH2 0x54E JUMPI DUP7 PUSH2 0x1A4 SWAP2 PUSH1 0x2 ADD SLOAD PUSH2 0x12CB JUMP JUMPDEST SWAP4 DUP5 PUSH1 0x64 CALLDATALOAD LT PUSH2 0x50C JUMPI PUSH1 0x1 PUSH1 0x1 PUSH1 0xA0 SHL SUB SWAP9 PUSH1 0x44 CALLDATALOAD DUP11 DUP2 AND SWAP4 SWAP2 SWAP1 DUP5 SWAP1 SUB PUSH2 0x508 JUMPI DUP11 PUSH32 0x0 AND DUP1 SWAP5 SUB PUSH2 0x4D8 JUMPI DUP8 MLOAD SWAP3 DUP9 DUP5 ADD DUP5 DUP2 LT DUP4 DUP3 GT OR PUSH2 0x4C6 JUMPI SWAP1 DUP14 SWAP2 DUP11 MSTORE ADDRESS DUP6 MSTORE PUSH1 0x20 SWAP8 DUP9 DUP7 ADD SWAP6 DUP11 DUP8 MSTORE PUSH15 0x22D473030F116DDEE9F6B43AC78BA3 SWAP2 DUP3 EXTCODESIZE ISZERO PUSH2 0x4C2 JUMPI DUP16 SWAP4 DUP11 DUP7 SWAP3 DUP16 MLOAD SWAP11 DUP12 SWAP8 DUP9 SWAP7 DUP8 SWAP5 PUSH4 0x187945BD PUSH1 0xE1 SHL DUP7 MSTORE DUP3 PUSH2 0x24D PUSH2 0x1154 JUMP JUMPDEST AND SWAP1 DUP7 ADD MSTORE PUSH1 0x64 CALLDATALOAD DUP14 DUP7 ADD MSTORE PUSH1 0x84 CALLDATALOAD PUSH1 0x44 DUP7 ADD MSTORE PUSH1 0xA4 CALLDATALOAD PUSH1 0x64 DUP7 ADD MSTORE MLOAD AND PUSH1 0x84 DUP5 ADD MSTORE MLOAD PUSH1 0xA4 DUP4 ADD MSTORE CALLER PUSH1 0xC4 DUP4 ADD MSTORE PUSH2 0x100 PUSH1 0xE4 DUP4 ADD MSTORE DUP1 PUSH2 0x104 DUP4 ADD MSTORE DUP1 DUP11 PUSH2 0x124 SWAP5 ADD DUP5 DUP5 ADD CALLDATACOPY DUP2 DUP2 ADD DUP4 ADD DUP5 SWAP1 MSTORE PUSH1 0x1F ADD PUSH1 0x1F NOT AND DUP2 ADD SUB ADD SWAP3 GAS CALL DUP1 ISZERO PUSH2 0x4B8 JUMPI PUSH2 0x492 JUMPI JUMPDEST POP POP POP DUP4 PUSH1 0x1 SHR SWAP2 DUP10 DUP10 DUP2 SLOAD AND SWAP10 DUP8 MLOAD DUP7 DUP2 DUP1 PUSH4 0xA9059CBB PUSH1 0xE0 SHL SWAP15 DUP16 DUP3 MSTORE DUP10 DUP9 DUP4 ADD SWAP2 PUSH2 0x2F9 SWAP3 PUSH1 0x20 SWAP1 SWAP4 SWAP3 SWAP2 SWAP4 PUSH1 0x40 DUP2 ADD SWAP5 PUSH1 0x1 DUP1 PUSH1 0xA0 SHL SUB AND DUP2 MSTORE ADD MSTORE JUMP JUMPDEST SUB DUP2 DUP7 DUP10 GAS CALL DUP1 ISZERO PUSH2 0x488 JUMPI SWAP2 PUSH2 0x321 SWAP2 DUP9 SWAP8 SWAP7 SWAP6 SWAP5 SWAP4 PUSH2 0x46B JUMPI JUMPDEST POP PUSH1 0x1 SLOAD AND SWAP5 DUP9 PUSH2 0x12DE JUMP JUMPDEST DUP9 MLOAD SWAP12 DUP13 MSTORE PUSH1 0x1 PUSH1 0x1 PUSH1 0xA0 SHL SUB SWAP1 SWAP5 AND SWAP2 DUP12 ADD SWAP2 DUP3 MSTORE PUSH1 0x20 DUP3 ADD SWAP4 SWAP1 SWAP4 MSTORE DUP10 SWAP3 DUP4 SWAP2 DUP3 SWAP1 PUSH1 0x40 ADD SUB SWAP3 GAS CALL SWAP6 DUP7 ISZERO PUSH2 0x461 JUMPI PUSH32 0x129A0377F5862974E93E873169FD1E8CF0681916D5B8B04338CB4224AF00F024 SWAP5 SWAP6 SWAP7 PUSH2 0x434 JUMPI JUMPDEST POP CALLER DUP8 MSTORE PUSH1 0x17 DUP2 MSTORE PUSH2 0x390 DUP7 DUP5 DUP10 KECCAK256 PUSH2 0x116A JUMP JUMPDEST POP PUSH1 0x1 DUP2 ADD SWAP1 DUP2 SLOAD ISZERO ISZERO DUP1 PUSH2 0x42A JUMPI JUMPDEST PUSH2 0x415 JUMPI JUMPDEST POP TIMESTAMP SWAP1 SSTORE CALLER DUP8 MSTORE PUSH1 0x17 DUP2 MSTORE PUSH2 0x3BC DUP7 DUP5 DUP10 KECCAK256 PUSH2 0x116A JUMP JUMPDEST POP PUSH2 0x3C8 DUP7 DUP3 SLOAD PUSH2 0x1258 JUMP JUMPDEST SWAP1 SSTORE CALLER DUP8 MSTORE PUSH1 0x17 DUP2 MSTORE PUSH1 0x1 PUSH2 0x3DF DUP8 DUP6 DUP11 KECCAK256 PUSH2 0x116A JUMP JUMPDEST POP ADD SLOAD ISZERO PUSH2 0x3F6 JUMPI JUMPDEST DUP3 MLOAD SWAP5 DUP6 MSTORE DUP5 ADD MSTORE CALLER SWAP3 LOG3 DUP1 RETURN JUMPDEST CALLER DUP8 MSTORE PUSH1 0x17 DUP2 MSTORE PUSH2 0x409 DUP7 DUP5 DUP10 KECCAK256 PUSH2 0x116A JUMP JUMPDEST POP PUSH1 0x1 TIMESTAMP SWAP2 ADD SSTORE PUSH2 0x3E8 JUMP JUMPDEST PUSH1 0x2 PUSH2 0x421 DUP10 CALLER PUSH2 0x12EB JUMP JUMPDEST SWAP2 ADD SSTORE CODESIZE PUSH2 0x3A5 JUMP JUMPDEST POP DUP1 SLOAD ISZERO ISZERO PUSH2 0x3A0 JUMP JUMPDEST PUSH2 0x453 SWAP1 DUP3 RETURNDATASIZE DUP5 GT PUSH2 0x45A JUMPI JUMPDEST PUSH2 0x44B DUP2 DUP4 PUSH2 0x11E2 JUMP JUMPDEST DUP2 ADD SWAP1 PUSH2 0x127B JUMP JUMPDEST POP CODESIZE PUSH2 0x37C JUMP JUMPDEST POP RETURNDATASIZE PUSH2 0x441 JUMP JUMPDEST DUP4 MLOAD RETURNDATASIZE DUP10 DUP3 RETURNDATACOPY RETURNDATASIZE SWAP1 REVERT JUMPDEST PUSH2 0x481 SWAP1 DUP9 RETURNDATASIZE DUP11 GT PUSH2 0x45A JUMPI PUSH2 0x44B DUP2 DUP4 PUSH2 0x11E2 JUMP JUMPDEST POP CODESIZE PUSH2 0x315 JUMP JUMPDEST DUP10 MLOAD RETURNDATASIZE DUP6 DUP3 RETURNDATACOPY RETURNDATASIZE SWAP1 REVERT JUMPDEST DUP3 SWAP12 SWAP4 SWAP12 GT PUSH2 0x4A7 JUMPI POP DUP6 MSTORE SWAP8 CODESIZE DUP1 DUP1 PUSH2 0x2B7 JUMP JUMPDEST PUSH4 0x4E487B71 PUSH1 0xE0 SHL DUP4 MSTORE PUSH1 0x41 DUP5 MSTORE DUP3 REVERT JUMPDEST DUP9 MLOAD RETURNDATASIZE DUP15 DUP3 RETURNDATACOPY RETURNDATASIZE SWAP1 REVERT JUMPDEST DUP5 DUP1 REVERT JUMPDEST PUSH4 0x4E487B71 PUSH1 0xE0 SHL DUP15 MSTORE PUSH1 0x41 DUP8 MSTORE DUP4 DUP15 REVERT JUMPDEST DUP8 MLOAD PUSH3 0x461BCD PUSH1 0xE5 SHL DUP2 MSTORE PUSH1 0x20 DUP2 DUP8 ADD MSTORE PUSH1 0xB DUP2 DUP5 ADD MSTORE PUSH11 0x2BB937B733903A37B5B2B7 PUSH1 0xA9 SHL PUSH1 0x44 DUP3 ADD MSTORE PUSH1 0x64 SWAP1 REVERT JUMPDEST DUP12 DUP1 REVERT JUMPDEST DUP6 MLOAD PUSH3 0x461BCD PUSH1 0xE5 SHL DUP2 MSTORE PUSH1 0x20 DUP2 DUP6 ADD MSTORE PUSH1 0x1A DUP2 DUP5 ADD MSTORE PUSH32 0x496E73756666696369656E74207065726D697420616D6F756E74000000000000 PUSH1 0x44 DUP3 ADD MSTORE PUSH1 0x64 SWAP1 REVERT JUMPDEST DUP6 MLOAD PUSH3 0x461BCD PUSH1 0xE5 SHL DUP2 MSTORE PUSH1 0x20 DUP2 DUP6 ADD MSTORE PUSH1 0x10 DUP2 DUP5 ADD MSTORE PUSH16 0x5061636B61676520696E616374697665 PUSH1 0x80 SHL PUSH1 0x44 DUP3 ADD MSTORE PUSH1 0x64 SWAP1 REVERT JUMPDEST SWAP1 PUSH1 0xA PUSH1 0x64 SWAP3 PUSH1 0x20 DUP8 MLOAD SWAP4 PUSH3 0x461BCD PUSH1 0xE5 SHL DUP6 MSTORE DUP5 ADD MSTORE DUP3 ADD MSTORE PUSH10 0x5A65726F20756E697473 PUSH1 0xB0 SHL PUSH1 0x44 DUP3 ADD MSTORE REVERT JUMPDEST SWAP1 PUSH1 0xF PUSH1 0x64 SWAP3 PUSH1 0x20 DUP8 MLOAD SWAP4 PUSH3 0x461BCD PUSH1 0xE5 SHL DUP6 MSTORE DUP5 ADD MSTORE DUP3 ADD MSTORE PUSH15 0x496E76616C6964207061636B616765 PUSH1 0x88 SHL PUSH1 0x44 DUP3 ADD MSTORE REVERT JUMPDEST DUP9 DUP1 REVERT JUMPDEST DUP8 DUP1 REVERT JUMPDEST DUP6 DUP1 REVERT JUMPDEST DUP3 DUP1 REVERT JUMPDEST DUP4 DUP1 REVERT JUMPDEST DUP5 DUP4 DUP4 CALLVALUE PUSH2 0x5F2 JUMPI PUSH1 0x20 SWAP1 DUP2 PUSH1 0x3 NOT CALLDATASIZE ADD SLT PUSH2 0x5F6 JUMPI PUSH2 0x618 PUSH2 0x1139 JUMP JUMPDEST SWAP1 DUP4 MLOAD PUSH2 0x624 DUP2 PUSH2 0x1194 JUMP JUMPDEST DUP4 DUP7 JUMPDEST DUP4 DUP2 LT PUSH2 0x6D4 JUMPI POP POP POP POP PUSH1 0x1 PUSH1 0x1 PUSH1 0xA0 SHL SUB AND DUP4 MSTORE PUSH1 0x17 DUP2 MSTORE DUP2 DUP4 KECCAK256 DUP3 MLOAD SWAP1 PUSH2 0x650 DUP3 PUSH2 0x1194 JUMP JUMPDEST DUP5 DUP3 JUMPDEST PUSH1 0x7 DUP3 LT PUSH2 0x69A JUMPI POP POP DUP4 MLOAD SWAP5 SWAP2 SWAP1 POP DUP5 JUMPDEST PUSH1 0x7 DUP4 LT PUSH2 0x673 JUMPI PUSH2 0x2A0 DUP7 RETURN JUMPDEST DUP4 PUSH1 0x60 PUSH1 0x1 SWAP3 DUP8 DUP6 MLOAD DUP1 MLOAD DUP4 MSTORE DUP5 DUP2 ADD MLOAD DUP6 DUP5 ADD MSTORE ADD MLOAD DUP9 DUP3 ADD MSTORE ADD SWAP3 ADD SWAP3 ADD SWAP2 SWAP1 PUSH2 0x665 JUMP JUMPDEST PUSH1 0x3 DUP6 PUSH1 0x1 SWAP3 DUP9 SWAP10 SWAP7 SWAP10 MLOAD PUSH2 0x6AE DUP2 PUSH2 0x11C6 JUMP JUMPDEST DUP7 SLOAD DUP2 MSTORE DUP5 DUP8 ADD SLOAD DUP4 DUP3 ADD MSTORE PUSH1 0x2 DUP8 ADD SLOAD DUP11 DUP3 ADD MSTORE DUP2 MSTORE ADD SWAP4 ADD SWAP2 ADD SWAP1 SWAP2 SWAP6 SWAP3 SWAP6 PUSH2 0x653 JUMP JUMPDEST PUSH2 0x6DC PUSH2 0x1204 JUMP JUMPDEST DUP2 DUP5 ADD MSTORE ADD DUP5 SWAP1 PUSH2 0x627 JUMP JUMPDEST DUP4 DUP6 DUP5 CALLVALUE PUSH2 0x7E2 JUMPI PUSH1 0x80 CALLDATASIZE PUSH1 0x3 NOT ADD SLT PUSH2 0x7E2 JUMPI DUP3 CALLDATALOAD SWAP1 PUSH1 0x24 CALLDATALOAD PUSH1 0x44 CALLDATALOAD PUSH1 0x64 CALLDATALOAD DUP1 ISZERO ISZERO DUP1 SWAP2 SUB PUSH2 0x5EE JUMPI DUP6 SLOAD PUSH2 0x733 SWAP1 CALLER PUSH1 0x1 PUSH1 0x1 PUSH1 0xA0 SHL SUB SWAP2 DUP3 AND EQ SWAP1 DUP2 ISZERO PUSH2 0x7D4 JUMPI JUMPDEST POP PUSH2 0x1293 JUMP JUMPDEST PUSH1 0x7 DUP6 LT ISZERO PUSH2 0x7A4 JUMPI PUSH32 0x48641F4A0F178E182DF2F9884537F7D8E8E9E71B933A9DF65DEA78F211120CE8 SWAP5 SWAP6 SWAP7 DUP2 DUP6 DUP1 MLOAD PUSH2 0x76D DUP2 PUSH2 0x11C6 JUMP JUMPDEST DUP7 DUP2 MSTORE DUP6 PUSH1 0x20 DUP3 ADD MSTORE ADD MSTORE PUSH1 0x3 DUP8 MUL DUP5 DUP2 PUSH1 0x2 ADD SSTORE DUP4 PUSH1 0x3 DUP3 ADD SSTORE ADD SWAP1 PUSH1 0xFF DUP1 NOT DUP4 SLOAD AND SWAP2 AND OR SWAP1 SSTORE DUP3 MLOAD SWAP2 DUP3 MSTORE PUSH1 0x20 DUP3 ADD MSTORE LOG2 DUP1 RETURN JUMPDEST DUP4 MLOAD PUSH3 0x461BCD PUSH1 0xE5 SHL DUP2 MSTORE PUSH1 0x20 DUP2 DUP10 ADD MSTORE PUSH1 0xA PUSH1 0x24 DUP3 ADD MSTORE PUSH10 0x125B9D985B1A59081A59 PUSH1 0xB2 SHL PUSH1 0x44 DUP3 ADD MSTORE PUSH1 0x64 SWAP1 REVERT JUMPDEST SWAP1 POP PUSH1 0x1 SLOAD AND CALLER EQ DUP10 PUSH2 0x72D JUMP JUMPDEST POP DUP1 REVERT JUMPDEST DUP5 DUP4 CALLVALUE PUSH2 0x7E2 JUMPI DUP2 PUSH1 0x3 NOT CALLDATASIZE ADD SLT PUSH2 0x7E2 JUMPI MLOAD PUSH32 0x0 PUSH1 0x1 PUSH1 0x1 PUSH1 0xA0 SHL SUB AND DUP2 MSTORE PUSH1 0x20 SWAP1 RETURN JUMPDEST POP POP CALLVALUE PUSH2 0x5F2 JUMPI PUSH1 0x20 CALLDATASIZE PUSH1 0x3 NOT ADD SLT PUSH2 0x5F2 JUMPI DUP2 CALLDATALOAD SWAP3 PUSH1 0x7 DUP5 LT ISZERO PUSH2 0x874 JUMPI POP PUSH1 0x3 PUSH1 0x60 SWAP4 MUL PUSH1 0xFF DUP2 PUSH1 0x2 ADD SLOAD SWAP4 PUSH1 0x3 DUP4 ADD SLOAD SWAP3 ADD SLOAD AND SWAP1 DUP3 MLOAD SWAP4 DUP5 MSTORE PUSH1 0x20 DUP5 ADD MSTORE ISZERO ISZERO SWAP1 DUP3 ADD MSTORE RETURN JUMPDEST DUP1 REVERT JUMPDEST DUP5 DUP4 CALLVALUE PUSH2 0x7E2 JUMPI DUP2 PUSH1 0x3 NOT CALLDATASIZE ADD SLT PUSH2 0x7E2 JUMPI PUSH1 0x20 SWAP1 MLOAD PUSH1 0x7 DUP2 MSTORE RETURN JUMPDEST DUP5 DUP4 CALLVALUE PUSH2 0x7E2 JUMPI DUP1 PUSH1 0x3 NOT CALLDATASIZE ADD SLT PUSH2 0x7E2 JUMPI PUSH2 0x8AD PUSH2 0x1139 JUMP JUMPDEST PUSH1 0x1 PUSH1 0x1 PUSH1 0xA0 SHL SUB AND DUP3 MSTORE PUSH1 0x17 PUSH1 0x20 MSTORE DUP1 DUP3 KECCAK256 PUSH1 0x24 CALLDATALOAD SWAP3 PUSH1 0x7 DUP5 LT ISZERO PUSH2 0x874 JUMPI POP PUSH1 0x60 SWAP3 PUSH2 0x8DA SWAP2 PUSH2 0x116A JUMP JUMPDEST POP DUP1 SLOAD SWAP2 PUSH1 0x2 PUSH1 0x1 DUP4 ADD SLOAD SWAP3 ADD SLOAD SWAP2 DUP2 MLOAD SWAP4 DUP5 MSTORE PUSH1 0x20 DUP5 ADD MSTORE DUP3 ADD MSTORE RETURN JUMPDEST DUP5 CALLVALUE PUSH2 0x874 JUMPI DUP1 PUSH1 0x3 NOT CALLDATASIZE ADD SLT PUSH2 0x874 JUMPI DUP1 SLOAD PUSH2 0x929 SWAP1 CALLER PUSH1 0x1 PUSH1 0x1 PUSH1 0xA0 SHL SUB SWAP2 DUP3 AND EQ SWAP1 DUP2 ISZERO PUSH2 0x95E JUMPI POP PUSH2 0x1293 JUMP JUMPDEST PUSH1 0x1 PUSH1 0xFF NOT PUSH1 0x18 SLOAD AND OR PUSH1 0x18 SSTORE CALLER PUSH32 0x62E78CEA01BEE320CD4E420270B5EA74000D11B0C9F74754EBDBFC544B05A258 DUP3 DUP1 LOG2 DUP1 RETURN JUMPDEST SWAP1 POP PUSH1 0x1 SLOAD AND CALLER EQ DUP4 PUSH2 0x72D JUMP JUMPDEST DUP3 DUP6 CALLVALUE PUSH2 0x874 JUMPI PUSH1 0x20 SWAP1 PUSH1 0x20 PUSH1 0x3 NOT CALLDATASIZE ADD SLT PUSH2 0x874 JUMPI SWAP1 PUSH2 0x98B PUSH2 0x1139 JUMP JUMPDEST DUP3 SWAP2 PUSH1 0x1 PUSH1 0x1 PUSH1 0xA0 SHL SUB SWAP1 SWAP2 AND SWAP1 DUP3 SWAP1 JUMPDEST PUSH1 0x7 DUP5 LT PUSH2 0x9AE JUMPI PUSH1 0x20 DUP6 DUP8 MLOAD SWAP1 DUP2 MSTORE RETURN JUMPDEST SWAP1 SWAP2 SWAP3 SWAP4 PUSH2 0x9E3 PUSH1 0x1 SWAP2 DUP6 DUP6 MSTORE PUSH1 0x17 DUP5 MSTORE PUSH2 0x9DD PUSH2 0x9CE DUP9 DUP11 DUP9 KECCAK256 PUSH2 0x116A JUMP JUMPDEST POP SLOAD PUSH1 0x3 DUP1 DUP11 MUL ADD SLOAD SWAP1 PUSH2 0x12CB JUMP JUMPDEST SWAP1 PUSH2 0x1258 JUMP JUMPDEST SWAP5 ADD SWAP3 SWAP2 SWAP1 PUSH2 0x99C JUMP JUMPDEST DUP5 DUP4 CALLVALUE PUSH2 0x7E2 JUMPI DUP2 PUSH1 0x3 NOT CALLDATASIZE ADD SLT PUSH2 0x7E2 JUMPI MLOAD PUSH32 0x0 PUSH1 0x1 PUSH1 0x1 PUSH1 0xA0 SHL SUB AND DUP2 MSTORE PUSH1 0x20 SWAP1 RETURN JUMPDEST POP POP SWAP1 CALLVALUE PUSH2 0x5F2 JUMPI DUP2 PUSH1 0x3 NOT CALLDATASIZE ADD SLT PUSH2 0x5F2 JUMPI PUSH1 0x1 PUSH1 0x1 PUSH1 0xA0 SHL SUB PUSH1 0x24 CALLDATALOAD DUP2 DUP2 AND SWAP4 DUP4 CALLDATALOAD SWAP4 SWAP3 SWAP1 SWAP2 DUP6 SWAP1 SUB PUSH2 0x5EE JUMPI DUP1 PUSH2 0xA77 SWAP2 DUP8 SLOAD AND CALLER EQ SWAP1 DUP2 ISZERO PUSH2 0xB24 JUMPI POP PUSH2 0x1293 JUMP JUMPDEST PUSH1 0x2 DUP4 LT ISZERO PUSH2 0xAF1 JUMPI DUP4 ISZERO PUSH2 0xABF JUMPI POP POP DUP1 SLOAD PUSH1 0x1 PUSH1 0x1 PUSH1 0xA0 SHL SUB NOT AND DUP3 OR DUP2 SSTORE PUSH32 0x9C65BDCDF3BAA5D433981546CDDDDB0C820AA405C7BD651375DF9F19F0269876 DUP4 DUP1 LOG3 DUP1 RETURN JUMPDEST SWAP1 PUSH1 0x20 PUSH1 0x64 SWAP3 MLOAD SWAP2 PUSH3 0x461BCD PUSH1 0xE5 SHL DUP4 MSTORE DUP3 ADD MSTORE PUSH1 0xC PUSH1 0x24 DUP3 ADD MSTORE PUSH12 0x5A65726F2061646472657373 PUSH1 0xA0 SHL PUSH1 0x44 DUP3 ADD MSTORE REVERT JUMPDEST SWAP1 PUSH1 0x20 PUSH1 0x64 SWAP3 MLOAD SWAP2 PUSH3 0x461BCD PUSH1 0xE5 SHL DUP4 MSTORE DUP3 ADD MSTORE PUSH1 0xD PUSH1 0x24 DUP3 ADD MSTORE PUSH13 0x92DCECC2D8D2C840D2DCC8CAF PUSH1 0x9B SHL PUSH1 0x44 DUP3 ADD MSTORE REVERT JUMPDEST SWAP1 POP PUSH1 0x1 SLOAD AND CALLER EQ CODESIZE PUSH2 0x72D JUMP JUMPDEST POP DUP4 DUP3 CALLVALUE PUSH2 0x7E2 JUMPI PUSH1 0x20 DUP1 PUSH1 0x3 NOT CALLDATASIZE ADD SLT PUSH2 0x5F2 JUMPI PUSH2 0xB52 SWAP3 SWAP2 SWAP3 PUSH2 0x1139 JUMP JUMPDEST SWAP3 DUP1 MLOAD SWAP4 PUSH2 0xB5F DUP6 PUSH2 0x1194 JUMP JUMPDEST DUP6 CALLDATASIZE DUP7 CALLDATACOPY DUP4 JUMPDEST PUSH1 0x7 DUP2 LT PUSH2 0xB95 JUMPI POP POP MLOAD SWAP3 SWAP2 DUP4 JUMPDEST PUSH1 0x7 DUP3 LT PUSH2 0xB80 JUMPI DUP6 DUP6 RETURN JUMPDEST DUP3 DUP1 PUSH1 0x1 SWAP3 DUP7 MLOAD DUP2 MSTORE ADD SWAP5 ADD SWAP2 ADD SWAP1 SWAP3 PUSH2 0xB74 JUMP JUMPDEST DUP1 PUSH2 0xBA5 PUSH1 0x1 SWAP3 DUP5 SWAP9 SWAP8 SWAP9 PUSH2 0x12EB JUMP JUMPDEST DUP2 PUSH1 0x5 SHL DUP8 ADD MSTORE ADD SWAP5 SWAP4 SWAP5 PUSH2 0xB65 JUMP JUMPDEST DUP5 DUP4 CALLVALUE PUSH2 0x7E2 JUMPI DUP2 PUSH1 0x3 NOT CALLDATASIZE ADD SLT PUSH2 0x7E2 JUMPI PUSH1 0x20 SWAP1 MLOAD PUSH3 0x15180 DUP2 MSTORE RETURN JUMPDEST DUP5 DUP4 CALLVALUE PUSH2 0x7E2 JUMPI DUP2 PUSH1 0x3 NOT CALLDATASIZE ADD SLT PUSH2 0x7E2 JUMPI PUSH1 0x20 SWAP1 MLOAD PUSH15 0x22D473030F116DDEE9F6B43AC78BA3 DUP2 MSTORE RETURN JUMPDEST DUP5 DUP4 CALLVALUE PUSH2 0x7E2 JUMPI DUP2 PUSH1 0x3 NOT CALLDATASIZE ADD SLT PUSH2 0x7E2 JUMPI PUSH1 0x20 SWAP1 PUSH1 0xFF PUSH1 0x18 SLOAD AND SWAP1 MLOAD SWAP1 ISZERO ISZERO DUP2 MSTORE RETURN JUMPDEST POP POP SWAP1 CALLVALUE PUSH2 0x5F2 JUMPI PUSH1 0x60 CALLDATASIZE PUSH1 0x3 NOT ADD SLT PUSH2 0x5F2 JUMPI PUSH2 0xC3D PUSH2 0x1139 JUMP JUMPDEST SWAP2 PUSH1 0x24 CALLDATALOAD SWAP1 PUSH2 0xC4A PUSH2 0x1154 JUMP JUMPDEST DUP6 SLOAD PUSH1 0x1 PUSH1 0x1 PUSH1 0xA0 SHL SUB SWAP1 DUP2 AND CALLER EQ DUP1 ISZERO PUSH2 0xD37 JUMPI JUMPDEST PUSH2 0xC69 SWAP1 PUSH2 0x1293 JUMP JUMPDEST DUP1 DUP3 AND SWAP6 DUP7 ISZERO PUSH2 0xD0A JUMPI DUP4 MLOAD PUSH4 0xA9059CBB PUSH1 0xE0 SHL DUP2 MSTORE PUSH1 0x1 PUSH1 0x1 PUSH1 0xA0 SHL SUB SWAP1 SWAP4 AND SWAP6 DUP4 ADD SWAP6 DUP7 MSTORE PUSH1 0x20 DUP7 DUP2 ADD DUP7 SWAP1 MSTORE SWAP2 AND SWAP5 DUP3 SWAP1 DUP2 SWAP1 PUSH1 0x40 ADD SUB DUP2 DUP10 DUP9 GAS CALL DUP1 ISZERO PUSH2 0xD00 JUMPI SWAP2 PUSH32 0xF24EF89F38EADC1BDE50701AD6E4D6D11A2DC24F7CF834A486991F3883328504 SWAP4 SWAP2 PUSH1 0x20 SWAP4 PUSH2 0xCE3 JUMPI JUMPDEST POP MLOAD SWAP1 DUP2 MSTORE LOG3 DUP1 RETURN JUMPDEST PUSH2 0xCF9 SWAP1 DUP5 RETURNDATASIZE DUP7 GT PUSH2 0x45A JUMPI PUSH2 0x44B DUP2 DUP4 PUSH2 0x11E2 JUMP JUMPDEST POP CODESIZE PUSH2 0xCDA JUMP JUMPDEST DUP3 MLOAD RETURNDATASIZE DUP9 DUP3 RETURNDATACOPY RETURNDATASIZE SWAP1 REVERT JUMPDEST DUP4 MLOAD PUSH3 0x461BCD PUSH1 0xE5 SHL DUP2 MSTORE PUSH1 0x20 DUP2 DUP9 ADD MSTORE PUSH1 0x7 PUSH1 0x24 DUP3 ADD MSTORE PUSH7 0x5A65726F20746F PUSH1 0xC8 SHL PUSH1 0x44 DUP3 ADD MSTORE PUSH1 0x64 SWAP1 REVERT JUMPDEST POP PUSH1 0x1 SLOAD DUP2 AND CALLER EQ PUSH2 0xC60 JUMP JUMPDEST DUP5 CALLVALUE PUSH2 0x874 JUMPI DUP1 PUSH1 0x3 NOT CALLDATASIZE ADD SLT PUSH2 0x874 JUMPI DUP1 SLOAD PUSH2 0xD75 SWAP1 CALLER PUSH1 0x1 PUSH1 0x1 PUSH1 0xA0 SHL SUB SWAP2 DUP3 AND EQ SWAP1 DUP2 ISZERO PUSH2 0x95E JUMPI POP PUSH2 0x1293 JUMP JUMPDEST PUSH1 0xFF NOT PUSH1 0x18 SLOAD AND PUSH1 0x18 SSTORE CALLER PUSH32 0x5DB9EE0A495BF2E6FF9C91A7834C1BA4FDD244A5E8AA4E537BD38AEAE4B073AA DUP3 DUP1 LOG2 DUP1 RETURN JUMPDEST POP POP SWAP1 CALLVALUE PUSH2 0x5F2 JUMPI DUP3 PUSH1 0x3 NOT CALLDATASIZE ADD SLT PUSH2 0x5F2 JUMPI PUSH2 0xDC9 PUSH1 0xFF PUSH1 0x18 SLOAD AND ISZERO PUSH2 0x1223 JUMP JUMPDEST DUP3 SWAP2 DUP4 JUMPDEST PUSH1 0x7 DUP2 LT PUSH2 0xF7D JUMPI POP DUP3 ISZERO PUSH2 0xF4D JUMPI DUP1 MLOAD PUSH4 0x70A08231 PUSH1 0xE0 SHL DUP2 MSTORE ADDRESS DUP4 DUP3 ADD MSTORE PUSH1 0x20 SWAP3 PUSH32 0x0 PUSH1 0x1 PUSH1 0x1 PUSH1 0xA0 SHL SUB AND SWAP2 DUP5 DUP2 PUSH1 0x24 DUP2 DUP7 GAS STATICCALL SWAP1 DUP2 ISZERO PUSH2 0xF43 JUMPI SWAP1 DUP7 SWAP2 DUP9 SWAP2 PUSH2 0xF0E JUMPI JUMPDEST POP LT PUSH2 0xECB JUMPI DUP3 MLOAD PUSH4 0xA9059CBB PUSH1 0xE0 SHL DUP2 MSTORE CALLER SWAP2 DUP2 ADD SWAP2 DUP3 MSTORE PUSH1 0x20 DUP3 ADD DUP7 SWAP1 MSTORE SWAP5 SWAP4 SWAP3 SWAP2 DUP4 SWAP2 DUP7 SWAP2 SWAP1 DUP3 SWAP1 DUP10 SWAP1 DUP3 SWAP1 PUSH1 0x40 ADD SUB SWAP3 GAS CALL SWAP4 DUP5 ISZERO PUSH2 0xEC1 JUMPI PUSH32 0xFC30CDDEA38E2BF4D6EA7D3F9ED3B6AD7F176419F4963BD81318067A4AEE73FE SWAP4 SWAP5 PUSH2 0xEA4 JUMPI JUMPDEST POP MLOAD SWAP3 DUP4 MSTORE CALLER SWAP3 LOG2 DUP1 RETURN JUMPDEST PUSH2 0xEBA SWAP1 DUP4 RETURNDATASIZE DUP6 GT PUSH2 0x45A JUMPI PUSH2 0x44B DUP2 DUP4 PUSH2 0x11E2 JUMP JUMPDEST POP CODESIZE PUSH2 0xE99 JUMP JUMPDEST DUP2 MLOAD RETURNDATASIZE DUP8 DUP3 RETURNDATACOPY RETURNDATASIZE SWAP1 REVERT JUMPDEST DUP3 MLOAD PUSH3 0x461BCD PUSH1 0xE5 SHL DUP2 MSTORE SWAP1 DUP2 ADD DUP5 SWAP1 MSTORE PUSH1 0x18 PUSH1 0x24 DUP3 ADD MSTORE PUSH32 0x496E73756666696369656E742048324F20726573657276650000000000000000 PUSH1 0x44 DUP3 ADD MSTORE PUSH1 0x64 SWAP1 REVERT JUMPDEST DUP1 SWAP3 POP DUP7 DUP1 SWAP3 POP RETURNDATASIZE DUP4 GT PUSH2 0xF3C JUMPI JUMPDEST PUSH2 0xF27 DUP2 DUP4 PUSH2 0x11E2 JUMP JUMPDEST DUP2 ADD SUB SLT PUSH2 0xF38 JUMPI DUP6 SWAP1 MLOAD CODESIZE PUSH2 0xE34 JUMP JUMPDEST DUP7 DUP1 REVERT JUMPDEST POP RETURNDATASIZE PUSH2 0xF1D JUMP JUMPDEST DUP5 MLOAD RETURNDATASIZE DUP10 DUP3 RETURNDATACOPY RETURNDATASIZE SWAP1 REVERT JUMPDEST SWAP1 PUSH1 0x20 PUSH1 0x64 SWAP3 MLOAD SWAP2 PUSH3 0x461BCD PUSH1 0xE5 SHL DUP4 MSTORE DUP3 ADD MSTORE PUSH1 0xA PUSH1 0x24 DUP3 ADD MSTORE PUSH10 0x4E6F2072657761726473 PUSH1 0xB0 SHL PUSH1 0x44 DUP3 ADD MSTORE REVERT JUMPDEST CALLER DUP6 MSTORE PUSH1 0x17 PUSH1 0x20 MSTORE PUSH2 0xF91 DUP2 DUP4 DUP8 KECCAK256 PUSH2 0x116A JUMP JUMPDEST POP DUP1 SLOAD ISZERO DUP1 ISZERO SWAP1 PUSH2 0xFD5 JUMPI JUMPDEST PUSH2 0xFAB JUMPI JUMPDEST POP PUSH1 0x1 ADD PUSH2 0xDCD JUMP JUMPDEST PUSH2 0xFCE SWAP1 DUP3 SWAP6 PUSH2 0xFBD PUSH1 0x1 SWAP5 CALLER PUSH2 0x12EB JUMP JUMPDEST SWAP2 DUP9 PUSH1 0x2 DUP3 ADD SSTORE DUP5 TIMESTAMP SWAP2 ADD SSTORE PUSH2 0x1258 JUMP JUMPDEST SWAP4 SWAP1 PUSH2 0xFA2 JUMP JUMPDEST POP PUSH1 0x2 DUP2 ADD SLOAD ISZERO ISZERO PUSH2 0xF9D JUMP JUMPDEST DUP3 DUP6 CALLVALUE PUSH2 0x874 JUMPI PUSH1 0x20 CALLDATASIZE PUSH1 0x3 NOT ADD SLT PUSH2 0x874 JUMPI PUSH2 0xFFD PUSH2 0x1139 JUMP JUMPDEST SWAP2 DUP2 JUMPDEST PUSH1 0x7 DUP2 LT PUSH2 0x1012 JUMPI PUSH1 0x20 DUP4 DUP4 MLOAD SWAP1 DUP2 MSTORE RETURN JUMPDEST SWAP2 PUSH2 0x1023 PUSH1 0x1 SWAP2 PUSH2 0x9DD DUP6 DUP8 PUSH2 0x12EB JUMP JUMPDEST SWAP3 ADD PUSH2 0x1000 JUMP JUMPDEST DUP5 DUP4 DUP4 CALLVALUE PUSH2 0x5F2 JUMPI DUP3 PUSH1 0x3 NOT CALLDATASIZE ADD SLT PUSH2 0x5F2 JUMPI DUP2 MLOAD PUSH2 0x1048 DUP2 PUSH2 0x1194 JUMP JUMPDEST DUP4 JUMPDEST DUP3 DUP2 LT PUSH2 0x10F4 JUMPI DUP4 MLOAD DUP6 DUP6 PUSH2 0x105E DUP4 PUSH2 0x1194 JUMP JUMPDEST PUSH1 0x2 DUP3 DUP2 DUP6 JUMPDEST PUSH1 0x7 DUP4 LT PUSH2 0x10B2 JUMPI POP POP POP POP DUP1 MLOAD SWAP3 DUP4 SWAP1 SWAP3 SWAP1 JUMPDEST PUSH1 0x7 DUP3 LT PUSH2 0x1086 JUMPI PUSH2 0x2A0 DUP6 RETURN JUMPDEST PUSH1 0x1 SWAP1 PUSH1 0x60 DUP6 MLOAD SWAP2 DUP3 MLOAD DUP2 MSTORE DUP6 PUSH1 0x20 SWAP4 DUP5 DUP2 ADD MLOAD DUP6 DUP5 ADD MSTORE ADD MLOAD ISZERO ISZERO DUP7 DUP3 ADD MSTORE ADD SWAP5 ADD SWAP2 ADD SWAP1 SWAP3 PUSH2 0x1078 JUMP JUMPDEST PUSH1 0x3 PUSH1 0x1 SWAP2 DUP7 SWAP9 SWAP8 SWAP9 MLOAD SWAP1 PUSH2 0x10C6 DUP3 PUSH2 0x11C6 JUMP JUMPDEST DUP7 SLOAD DUP3 MSTORE DUP4 DUP8 ADD SLOAD SWAP2 PUSH1 0x20 SWAP3 DUP4 DUP3 ADD MSTORE PUSH1 0xFF DUP7 DUP10 ADD SLOAD AND ISZERO ISZERO DUP10 DUP3 ADD MSTORE DUP2 MSTORE ADD SWAP5 ADD SWAP3 ADD SWAP2 SWAP3 SWAP6 SWAP5 SWAP6 PUSH2 0x1064 JUMP JUMPDEST PUSH1 0x20 SWAP1 PUSH2 0x10FF PUSH2 0x1204 JUMP JUMPDEST DUP2 DUP5 ADD MSTORE ADD PUSH2 0x104A JUMP JUMPDEST DUP6 SWAP1 DUP6 CALLVALUE PUSH2 0x5F2 JUMPI PUSH1 0x20 CALLDATASIZE PUSH1 0x3 NOT ADD SLT PUSH2 0x5F2 JUMPI CALLDATALOAD PUSH1 0x2 DUP2 LT ISZERO PUSH2 0x5F2 JUMPI SLOAD PUSH1 0x1 PUSH1 0x1 PUSH1 0xA0 SHL SUB AND DUP2 MSTORE PUSH1 0x20 SWAP2 POP RETURN JUMPDEST PUSH1 0x4 CALLDATALOAD SWAP1 PUSH1 0x1 PUSH1 0x1 PUSH1 0xA0 SHL SUB DUP3 AND DUP3 SUB PUSH2 0x114F JUMPI JUMP JUMPDEST PUSH1 0x0 DUP1 REVERT JUMPDEST PUSH1 0x44 CALLDATALOAD SWAP1 PUSH1 0x1 PUSH1 0x1 PUSH1 0xA0 SHL SUB DUP3 AND DUP3 SUB PUSH2 0x114F JUMPI JUMP JUMPDEST SWAP1 PUSH1 0x7 DUP2 LT ISZERO PUSH2 0x117E JUMPI PUSH1 0x3 MUL ADD SWAP1 PUSH1 0x0 SWAP1 JUMP JUMPDEST PUSH4 0x4E487B71 PUSH1 0xE0 SHL PUSH1 0x0 MSTORE PUSH1 0x32 PUSH1 0x4 MSTORE PUSH1 0x24 PUSH1 0x0 REVERT JUMPDEST PUSH1 0xE0 DUP2 ADD SWAP1 DUP2 LT PUSH8 0xFFFFFFFFFFFFFFFF DUP3 GT OR PUSH2 0x11B0 JUMPI PUSH1 0x40 MSTORE JUMP JUMPDEST PUSH4 0x4E487B71 PUSH1 0xE0 SHL PUSH1 0x0 MSTORE PUSH1 0x41 PUSH1 0x4 MSTORE PUSH1 0x24 PUSH1 0x0 REVERT JUMPDEST PUSH1 0x60 DUP2 ADD SWAP1 DUP2 LT PUSH8 0xFFFFFFFFFFFFFFFF DUP3 GT OR PUSH2 0x11B0 JUMPI PUSH1 0x40 MSTORE JUMP JUMPDEST SWAP1 PUSH1 0x1F DUP1 NOT SWAP2 ADD AND DUP2 ADD SWAP1 DUP2 LT PUSH8 0xFFFFFFFFFFFFFFFF DUP3 GT OR PUSH2 0x11B0 JUMPI PUSH1 0x40 MSTORE JUMP JUMPDEST PUSH1 0x40 MLOAD SWAP1 PUSH2 0x1211 DUP3 PUSH2 0x11C6 JUMP JUMPDEST PUSH1 0x0 PUSH1 0x40 DUP4 DUP3 DUP2 MSTORE DUP3 PUSH1 0x20 DUP3 ADD MSTORE ADD MSTORE JUMP JUMPDEST ISZERO PUSH2 0x122A JUMPI JUMP JUMPDEST PUSH1 0x40 MLOAD PUSH3 0x461BCD PUSH1 0xE5 SHL DUP2 MSTORE PUSH1 0x20 PUSH1 0x4 DUP3 ADD MSTORE PUSH1 0x6 PUSH1 0x24 DUP3 ADD MSTORE PUSH6 0x14185D5CD959 PUSH1 0xD2 SHL PUSH1 0x44 DUP3 ADD MSTORE PUSH1 0x64 SWAP1 REVERT JUMPDEST SWAP2 SWAP1 DUP3 ADD DUP1 SWAP3 GT PUSH2 0x1265 JUMPI JUMP JUMPDEST PUSH4 0x4E487B71 PUSH1 0xE0 SHL PUSH1 0x0 MSTORE PUSH1 0x11 PUSH1 0x4 MSTORE PUSH1 0x24 PUSH1 0x0 REVERT JUMPDEST SWAP1 DUP2 PUSH1 0x20 SWAP2 SUB SLT PUSH2 0x114F JUMPI MLOAD DUP1 ISZERO ISZERO DUP2 SUB PUSH2 0x114F JUMPI SWAP1 JUMP JUMPDEST ISZERO PUSH2 0x129A JUMPI JUMP JUMPDEST PUSH1 0x40 MLOAD PUSH3 0x461BCD PUSH1 0xE5 SHL DUP2 MSTORE PUSH1 0x20 PUSH1 0x4 DUP3 ADD MSTORE PUSH1 0x9 PUSH1 0x24 DUP3 ADD MSTORE PUSH9 0x2737BA1037BBB732B9 PUSH1 0xB9 SHL PUSH1 0x44 DUP3 ADD MSTORE PUSH1 0x64 SWAP1 REVERT JUMPDEST DUP2 DUP2 MUL SWAP3 SWAP2 DUP2 ISZERO SWAP2 DUP5 DIV EQ OR ISZERO PUSH2 0x1265 JUMPI JUMP JUMPDEST SWAP2 SWAP1 DUP3 SUB SWAP2 DUP3 GT PUSH2 0x1265 JUMPI JUMP JUMPDEST PUSH1 0x1 DUP1 PUSH1 0xA0 SHL SUB AND PUSH1 0x0 MSTORE PUSH1 0x17 PUSH1 0x20 MSTORE PUSH2 0x1309 DUP2 PUSH1 0x40 PUSH1 0x0 KECCAK256 PUSH2 0x116A JUMP JUMPDEST POP DUP1 SLOAD SWAP2 DUP3 ISZERO PUSH2 0x135A JUMPI PUSH2 0x1321 PUSH1 0x1 DUP4 ADD SLOAD TIMESTAMP PUSH2 0x12DE JUMP JUMPDEST SWAP1 PUSH1 0x7 DUP2 LT ISZERO PUSH2 0x117E JUMPI PUSH2 0x134E PUSH1 0x2 SWAP3 PUSH2 0x1349 PUSH2 0x1357 SWAP7 PUSH1 0x3 DUP1 PUSH3 0x15180 SWAP7 MUL ADD SLOAD SWAP1 PUSH2 0x12CB JUMP JUMPDEST PUSH2 0x12CB JUMP JUMPDEST DIV SWAP2 ADD SLOAD PUSH2 0x1258 JUMP JUMPDEST SWAP1 JUMP JUMPDEST POP PUSH1 0x2 SWAP2 POP ADD SLOAD SWAP1 JUMP INVALID LOG2 PUSH5 0x6970667358 0x22 SLT KECCAK256 SWAP1 LOG2 0xF8 0xC4 0xE2 LOG4 0x21 0xB1 SWAP16 DUP11 0xE2 EXP STOP 0xFC 0x2A 0xD2 MCOPY SAR PUSH11 0x4E5F83392D3E1445E218BC BASEFEE 0xE PUSH5 0x736F6C6343 STOP ADDMOD XOR STOP CALLER "},"methodIdentifiers":{"H2O_TOKEN()":"c5253764","MAX_PACKAGES()":"9408e7b2","PERMIT2()":"6afdd850","SECONDS_PER_DAY()":"74f0314f","UTH2_TOKEN()":"7fed9ab9","buyPackage(uint256,uint256,((address,uint256),uint256,uint256),bytes)":"eaf4a3fa","claimRewards()":"372500ab","emergencyWithdraw(address,uint256,address)":"551512de","getAllPackages()":"0a421f0f","getUserPackages(address)":"deef5378","owners(uint256)":"025e7c27","packages(uint256)":"c216212a","pause()":"8456cb59","paused()":"5c975abb","pendingPerPackage(address)":"76c07738","pendingRewards(address)":"31d7a262","setOwner(uint256,address)":"7fd39247","setPackage(uint256,uint256,uint256,bool)":"c78da6e6","unpause()":"3f4ba83a","userDailyYield(address)":"810e4538","userPackages(address,uint256)":"8bb0097b"}}}}}