{"contracts/AcuaH2OV3LP.sol":{"AcuaH2OV3LP":{"abi":[{"inputs":[{"internalType":"address","name":"_npm","type":"address"}],"stateMutability":"nonpayable","type":"constructor"},{"anonymous":false,"inputs":[{"indexed":true,"internalType":"address","name":"user","type":"address"},{"indexed":true,"internalType":"uint256","name":"poolId","type":"uint256"},{"indexed":false,"internalType":"uint256","name":"fee0","type":"uint256"},{"indexed":false,"internalType":"uint256","name":"fee1","type":"uint256"},{"indexed":false,"internalType":"uint256","name":"grossH2O","type":"uint256"},{"indexed":false,"internalType":"uint256","name":"netH2O","type":"uint256"}],"name":"Claimed","type":"event"},{"anonymous":false,"inputs":[{"indexed":true,"internalType":"address","name":"user","type":"address"},{"indexed":true,"internalType":"uint256","name":"poolId","type":"uint256"},{"indexed":false,"internalType":"uint128","name":"liquidity","type":"uint128"},{"indexed":false,"internalType":"uint256","name":"amount0","type":"uint256"},{"indexed":false,"internalType":"uint256","name":"amount1","type":"uint256"}],"name":"Deposited","type":"event"},{"anonymous":false,"inputs":[{"indexed":false,"internalType":"uint256","name":"dep","type":"uint256"},{"indexed":false,"internalType":"uint256","name":"wd","type":"uint256"},{"indexed":false,"internalType":"uint256","name":"claim","type":"uint256"}],"name":"FeesUpdated","type":"event"},{"anonymous":false,"inputs":[{"indexed":true,"internalType":"address","name":"token","type":"address"},{"indexed":true,"internalType":"address","name":"to","type":"address"},{"indexed":false,"internalType":"uint256","name":"amount","type":"uint256"}],"name":"OwnerWithdraw","type":"event"},{"anonymous":false,"inputs":[],"name":"Paused","type":"event"},{"anonymous":false,"inputs":[{"indexed":true,"internalType":"uint256","name":"poolId","type":"uint256"},{"indexed":false,"internalType":"address","name":"token0","type":"address"},{"indexed":false,"internalType":"address","name":"token1","type":"address"},{"indexed":false,"internalType":"uint24","name":"fee","type":"uint24"},{"indexed":false,"internalType":"int24","name":"tickLower","type":"int24"},{"indexed":false,"internalType":"int24","name":"tickUpper","type":"int24"},{"indexed":false,"internalType":"bool","name":"comingSoon","type":"bool"}],"name":"PoolAdded","type":"event"},{"anonymous":false,"inputs":[{"indexed":true,"internalType":"uint256","name":"poolId","type":"uint256"},{"indexed":false,"internalType":"bool","name":"active","type":"bool"},{"indexed":false,"internalType":"bool","name":"comingSoon","type":"bool"}],"name":"PoolStatusUpdated","type":"event"},{"anonymous":false,"inputs":[{"indexed":true,"internalType":"address","name":"token","type":"address"},{"indexed":false,"internalType":"address","name":"pool","type":"address"},{"indexed":false,"internalType":"bool","name":"isToUsdc","type":"bool"}],"name":"PriceRouteSet","type":"event"},{"anonymous":false,"inputs":[],"name":"Unpaused","type":"event"},{"anonymous":false,"inputs":[{"indexed":false,"internalType":"address","name":"pool","type":"address"}],"name":"UsdcWldPoolSet","type":"event"},{"anonymous":false,"inputs":[{"indexed":true,"internalType":"address","name":"user","type":"address"},{"indexed":true,"internalType":"uint256","name":"poolId","type":"uint256"},{"indexed":false,"internalType":"uint128","name":"liquidity","type":"uint128"},{"indexed":false,"internalType":"uint256","name":"amount0","type":"uint256"},{"indexed":false,"internalType":"uint256","name":"amount1","type":"uint256"}],"name":"Withdrawn","type":"event"},{"anonymous":false,"inputs":[{"indexed":false,"internalType":"address","name":"pool","type":"address"}],"name":"WldH2OPoolSet","type":"event"},{"inputs":[],"name":"BPS","outputs":[{"internalType":"uint256","name":"","type":"uint256"}],"stateMutability":"view","type":"function"},{"inputs":[],"name":"H2O","outputs":[{"internalType":"address","name":"","type":"address"}],"stateMutability":"view","type":"function"},{"inputs":[],"name":"MAX_FEE_BPS","outputs":[{"internalType":"uint256","name":"","type":"uint256"}],"stateMutability":"view","type":"function"},{"inputs":[],"name":"NPM","outputs":[{"internalType":"contract INPM","name":"","type":"address"}],"stateMutability":"view","type":"function"},{"inputs":[],"name":"PERMIT2","outputs":[{"internalType":"address","name":"","type":"address"}],"stateMutability":"view","type":"function"},{"inputs":[],"name":"SECONDS_PER_YEAR","outputs":[{"internalType":"uint256","name":"","type":"uint256"}],"stateMutability":"view","type":"function"},{"inputs":[],"name":"USDC","outputs":[{"internalType":"address","name":"","type":"address"}],"stateMutability":"view","type":"function"},{"inputs":[],"name":"WLD","outputs":[{"internalType":"address","name":"","type":"address"}],"stateMutability":"view","type":"function"},{"inputs":[{"internalType":"address","name":"tokenA","type":"address"},{"internalType":"address","name":"tokenB","type":"address"},{"internalType":"uint24","name":"fee","type":"uint24"},{"internalType":"int24","name":"tickLower","type":"int24"},{"internalType":"int24","name":"tickUpper","type":"int24"},{"internalType":"address","name":"poolAddr","type":"address"},{"internalType":"bool","name":"comingSoon","type":"bool"}],"name":"addPool","outputs":[{"internalType":"uint256","name":"poolId","type":"uint256"}],"stateMutability":"nonpayable","type":"function"},{"inputs":[{"internalType":"uint256","name":"poolId","type":"uint256"}],"name":"claim","outputs":[],"stateMutability":"nonpayable","type":"function"},{"inputs":[],"name":"claimFeeBps","outputs":[{"internalType":"uint256","name":"","type":"uint256"}],"stateMutability":"view","type":"function"},{"inputs":[{"internalType":"address","name":"token","type":"address"}],"name":"contractTokenBalance","outputs":[{"internalType":"uint256","name":"","type":"uint256"}],"stateMutability":"view","type":"function"},{"inputs":[{"internalType":"uint256","name":"poolId","type":"uint256"},{"components":[{"components":[{"internalType":"address","name":"token","type":"address"},{"internalType":"uint256","name":"amount","type":"uint256"}],"internalType":"struct IPermit2.TokenPermissions","name":"permitted","type":"tuple"},{"internalType":"uint256","name":"nonce","type":"uint256"},{"internalType":"uint256","name":"deadline","type":"uint256"}],"internalType":"struct IPermit2.PermitTransferFrom","name":"permit0","type":"tuple"},{"internalType":"bytes","name":"signature0","type":"bytes"},{"components":[{"components":[{"internalType":"address","name":"token","type":"address"},{"internalType":"uint256","name":"amount","type":"uint256"}],"internalType":"struct IPermit2.TokenPermissions","name":"permitted","type":"tuple"},{"internalType":"uint256","name":"nonce","type":"uint256"},{"internalType":"uint256","name":"deadline","type":"uint256"}],"internalType":"struct IPermit2.PermitTransferFrom","name":"permit1","type":"tuple"},{"internalType":"bytes","name":"signature1","type":"bytes"},{"internalType":"uint256","name":"amount0Min","type":"uint256"},{"internalType":"uint256","name":"amount1Min","type":"uint256"}],"name":"deposit","outputs":[],"stateMutability":"nonpayable","type":"function"},{"inputs":[],"name":"depositFeeBps","outputs":[{"internalType":"uint256","name":"","type":"uint256"}],"stateMutability":"view","type":"function"},{"inputs":[{"internalType":"uint256","name":"poolId","type":"uint256"}],"name":"estimateAprBps","outputs":[{"internalType":"uint256","name":"","type":"uint256"}],"stateMutability":"view","type":"function"},{"inputs":[],"name":"getAllPools","outputs":[{"components":[{"internalType":"address","name":"token0","type":"address"},{"internalType":"address","name":"token1","type":"address"},{"internalType":"uint24","name":"fee","type":"uint24"},{"internalType":"int24","name":"tickLower","type":"int24"},{"internalType":"int24","name":"tickUpper","type":"int24"},{"internalType":"address","name":"poolAddr","type":"address"},{"internalType":"uint256","name":"nftTokenId","type":"uint256"},{"internalType":"uint128","name":"totalLiquidity","type":"uint128"},{"internalType":"uint256","name":"accFee0PerLiqX128","type":"uint256"},{"internalType":"uint256","name":"accFee1PerLiqX128","type":"uint256"},{"internalType":"uint256","name":"totalFees0Collected","type":"uint256"},{"internalType":"uint256","name":"totalFees1Collected","type":"uint256"},{"internalType":"uint256","name":"firstDepositAt","type":"uint256"},{"internalType":"bool","name":"active","type":"bool"},{"internalType":"bool","name":"comingSoon","type":"bool"}],"internalType":"struct AcuaH2OV3LP.Pool[]","name":"","type":"tuple[]"}],"stateMutability":"view","type":"function"},{"inputs":[{"internalType":"address[]","name":"tokens","type":"address[]"}],"name":"getOwnerFees","outputs":[{"internalType":"uint256[]","name":"amounts","type":"uint256[]"}],"stateMutability":"view","type":"function"},{"inputs":[{"internalType":"uint256","name":"poolId","type":"uint256"}],"name":"getPool","outputs":[{"components":[{"internalType":"address","name":"token0","type":"address"},{"internalType":"address","name":"token1","type":"address"},{"internalType":"uint24","name":"fee","type":"uint24"},{"internalType":"int24","name":"tickLower","type":"int24"},{"internalType":"int24","name":"tickUpper","type":"int24"},{"internalType":"address","name":"poolAddr","type":"address"},{"internalType":"uint256","name":"nftTokenId","type":"uint256"},{"internalType":"uint128","name":"totalLiquidity","type":"uint128"},{"internalType":"uint256","name":"accFee0PerLiqX128","type":"uint256"},{"internalType":"uint256","name":"accFee1PerLiqX128","type":"uint256"},{"internalType":"uint256","name":"totalFees0Collected","type":"uint256"},{"internalType":"uint256","name":"totalFees1Collected","type":"uint256"},{"internalType":"uint256","name":"firstDepositAt","type":"uint256"},{"internalType":"bool","name":"active","type":"bool"},{"internalType":"bool","name":"comingSoon","type":"bool"}],"internalType":"struct AcuaH2OV3LP.Pool","name":"","type":"tuple"}],"stateMutability":"view","type":"function"},{"inputs":[{"internalType":"uint256","name":"poolId","type":"uint256"},{"internalType":"address","name":"user","type":"address"}],"name":"getUserPosition","outputs":[{"internalType":"uint128","name":"liquidity","type":"uint128"},{"internalType":"uint256","name":"pendingFee0","type":"uint256"},{"internalType":"uint256","name":"pendingFee1","type":"uint256"},{"internalType":"uint256","name":"grossH2O","type":"uint256"},{"internalType":"uint256","name":"netH2O","type":"uint256"}],"stateMutability":"view","type":"function"},{"inputs":[{"internalType":"uint256","name":"poolId","type":"uint256"}],"name":"harvest","outputs":[],"stateMutability":"nonpayable","type":"function"},{"inputs":[{"internalType":"address","name":"","type":"address"},{"internalType":"address","name":"","type":"address"},{"internalType":"uint256","name":"","type":"uint256"},{"internalType":"bytes","name":"","type":"bytes"}],"name":"onERC721Received","outputs":[{"internalType":"bytes4","name":"","type":"bytes4"}],"stateMutability":"pure","type":"function"},{"inputs":[],"name":"owner","outputs":[{"internalType":"address","name":"","type":"address"}],"stateMutability":"view","type":"function"},{"inputs":[{"internalType":"address","name":"","type":"address"}],"name":"ownerCollectedFees","outputs":[{"internalType":"uint256","name":"","type":"uint256"}],"stateMutability":"view","type":"function"},{"inputs":[],"name":"pause","outputs":[],"stateMutability":"nonpayable","type":"function"},{"inputs":[],"name":"paused","outputs":[{"internalType":"bool","name":"","type":"bool"}],"stateMutability":"view","type":"function"},{"inputs":[],"name":"poolsCount","outputs":[{"internalType":"uint256","name":"","type":"uint256"}],"stateMutability":"view","type":"function"},{"inputs":[{"internalType":"address","name":"","type":"address"}],"name":"priceRoutes","outputs":[{"internalType":"address","name":"pool","type":"address"},{"internalType":"bool","name":"isToUsdc","type":"bool"}],"stateMutability":"view","type":"function"},{"inputs":[{"internalType":"uint256","name":"dep","type":"uint256"},{"internalType":"uint256","name":"wd","type":"uint256"},{"internalType":"uint256","name":"claimBps_","type":"uint256"}],"name":"setFees","outputs":[],"stateMutability":"nonpayable","type":"function"},{"inputs":[{"internalType":"address","name":"newOwner","type":"address"}],"name":"setOwner","outputs":[],"stateMutability":"nonpayable","type":"function"},{"inputs":[{"internalType":"uint256","name":"poolId","type":"uint256"},{"internalType":"address","name":"poolAddr","type":"address"}],"name":"setPoolAddr","outputs":[],"stateMutability":"nonpayable","type":"function"},{"inputs":[{"internalType":"uint256","name":"poolId","type":"uint256"},{"internalType":"bool","name":"active","type":"bool"},{"internalType":"bool","name":"comingSoon","type":"bool"}],"name":"setPoolStatus","outputs":[],"stateMutability":"nonpayable","type":"function"},{"inputs":[{"internalType":"address","name":"token","type":"address"},{"internalType":"address","name":"pool","type":"address"},{"internalType":"bool","name":"isToUsdc","type":"bool"}],"name":"setPriceRoute","outputs":[],"stateMutability":"nonpayable","type":"function"},{"inputs":[{"internalType":"address[]","name":"tokens","type":"address[]"},{"internalType":"address[]","name":"pools","type":"address[]"},{"internalType":"bool[]","name":"isToUsdcArr","type":"bool[]"}],"name":"setPriceRoutesBatch","outputs":[],"stateMutability":"nonpayable","type":"function"},{"inputs":[{"internalType":"address","name":"pool","type":"address"}],"name":"setUsdcWldPool","outputs":[],"stateMutability":"nonpayable","type":"function"},{"inputs":[{"internalType":"address","name":"pool","type":"address"}],"name":"setWldH2OPool","outputs":[],"stateMutability":"nonpayable","type":"function"},{"inputs":[{"internalType":"address","name":"token","type":"address"},{"internalType":"uint256","name":"amount","type":"uint256"}],"name":"tokenValueInH2O","outputs":[{"internalType":"uint256","name":"","type":"uint256"}],"stateMutability":"view","type":"function"},{"inputs":[],"name":"unpause","outputs":[],"stateMutability":"nonpayable","type":"function"},{"inputs":[],"name":"usdcWldPool","outputs":[{"internalType":"address","name":"","type":"address"}],"stateMutability":"view","type":"function"},{"inputs":[{"internalType":"uint256","name":"poolId","type":"uint256"},{"internalType":"uint128","name":"liquidity","type":"uint128"},{"internalType":"uint256","name":"amount0Min","type":"uint256"},{"internalType":"uint256","name":"amount1Min","type":"uint256"}],"name":"withdraw","outputs":[],"stateMutability":"nonpayable","type":"function"},{"inputs":[{"internalType":"address","name":"token","type":"address"},{"internalType":"address","name":"to","type":"address"}],"name":"withdrawAll","outputs":[],"stateMutability":"nonpayable","type":"function"},{"inputs":[],"name":"withdrawFeeBps","outputs":[{"internalType":"uint256","name":"","type":"uint256"}],"stateMutability":"view","type":"function"},{"inputs":[{"internalType":"address","name":"token","type":"address"},{"internalType":"uint256","name":"amount","type":"uint256"},{"internalType":"address","name":"to","type":"address"}],"name":"withdrawToken","outputs":[],"stateMutability":"nonpayable","type":"function"},{"inputs":[],"name":"wldH2OPool","outputs":[{"internalType":"address","name":"","type":"address"}],"stateMutability":"view","type":"function"}],"evm":{"bytecode":{"linkReferences":{},"object":"60a0346200010a57601f62003d4f38819003918201601f19168301916001600160401b038311848410176200010f578084926020946040528339810103126200010a57516001600160a01b038116908190036200010a5760c860015560c86002556107d06003558015620000da57600080546001600160a01b03191633179055608052604051613c29908162000126823960805181818161059e01528181610626015281816114ec015281816115520152818161170101528181611761015281816117ca01528181611bd20152818161206501526138030152f35b60405162461bcd60e51b81526020600482015260086024820152677a65726f206e706d60c01b6044820152606490fd5b600080fd5b634e487b7160e01b600052604160045260246000fdfe608080604052600436101561001357600080fd5b600090813560e01c908163068bcd8d14612d6a5750806306a3cda514612d4b57806309cae2c814612bf057806313af403514612ba0578063150b7a0214612b495780631d87832f14612b2057806320cd6d9b14612a54578063249d39e914612a37578063285a0337146129fe578063379607f51461271f5780633ccdbb281461260b5780633f4ba83a146125b4578063436fa38c146121b45780635c975abb1461218f57806366e3e5e4146120fa5780636afdd850146120d05780637a526f4e146120b25780637aca2b591461209457806382ff84141461204f5780638456cb5914611ff2578063869da9db14611e9f57806389a3027114611e705780638a7a9ec4146111bc5780638c788de01461119e5780638da5cb5b14611177578063903bd41e1461110257806399e0538c14610f1c578063a1220cc114610e3b578063a360dd6a14610dcb578063ab87982714610dad578063b6870e8314610c99578063c2c21a0114610c34578063c6c2160314610c0b578063cec10c1114610b37578063cf5b004c14610440578063d55be8c614610423578063d88ff1f41461034b578063ddc632621461031e578063de061d66146102ef578063df5bfea5146102bf578063e6a69ab8146102a0578063f12077ac1461022b5763feaa524d146101fa57600080fd5b3461022857806003193601126102285760206040517317392e5483983945deb92e0518a8f2c4eb6ba59d8152f35b80fd5b5034610228576020366003190112610228577f4e41e0eb5ebcc4d736d4331d9732692d3ab79db9f1e32f7d538b2f391a15179a6020610268612ec5565b83546001600160a01b0391906102819083163314613241565b16806001600160601b0360a01b6007541617600755604051908152a180f35b503461022857806003193601126102285760206040516301e133808152f35b50346102285760403660031901126102285760206102e76102de612ec5565b60243590613473565b604051908152f35b50346102285780600319360112610228576020604051732cfc85d8e48f8eab294be644d9e25c30308630038152f35b5034610228576020366003190112610228576103486004356103436004548210613324565b613793565b80f35b5034610228578060031936011261022857600454610368816133ee565b906103766040519283612fc7565b8082526004835260209182810191847f8a35acfbc15ff81a39ae7d344fd709f28e8600b4aa8c65c6b64bfe7fe36bd19b845b8383106103fc575050505060405192602084019160208552518092526040840192945b8281106103d85784840385f35b909192826101e0826103ed6001948a51612e09565b019601910194929190946103cb565b600b87600192610410859b9a98999b613039565b81520192019201919096949395966103a8565b50346102285780600319360112610228576020604051610bb88152f35b5034610228576080366003190112610228576001600160801b0360243516602435036102285761047760ff825460a01c1615613359565b61048660045460043510613324565b610491600435612fe8565b50600381015415610b04576004358252600560205260408220336000526020526040600020906001600160801b03602435166001600160801b03835416101580610af0575b15610abc576104e6600435613793565b6104f233600435613958565b60038101549061025842014211610aa857604051918260a08101106001600160401b0360a085011117610a925760a083016040528252602082016001600160801b03602435168152604083016044358152606084019060643582526001600160801b0360808601936102584201855260405196630624e65f60e11b88525160048801525116602486015251604485015251606484015251608483015260408260a4818760018060a01b037f0000000000000000000000000000000000000000000000000000000000000000165af19182156108405784908593610a6e575b50610621604060038401548151906105e782612fac565b81523060208201526001600160801b03828201526001600160801b03606082015281518093819263fc6f786560e01b83526004830161341b565b0381897f00000000000000000000000000000000000000000000000000000000000000006001600160a01b03165af1908115610a635786908792610a31575b508280821115610a285761067391613105565b905b8480821115610a1f5761068791613105565b905b8015801580610a09575b6109b4575b50508015158061099e575b61092f575b506106e4906106de6002546127106106cc816106c48487613135565b049288613135565b049281610905575b836108d857613105565b93613105565b926002610758600484018054906001600160801b0361070760243582851661345a565b166001600160801b031980931617905583546001600160801b0361072f60243582841661345a565b1691829116178455610745600586015482613135565b60801c6001850155600685015490613135565b60801c9101558161084b575b826107c2575b507f220b40962e84ec0bb069823fe62098bd4ffdaa797453de6b5365460177884208604051806107bc600435953395602435846040919493926001600160801b03606083019616825260208201520152565b0390a380f35b6001015460405163a9059cbb60e01b815233600482015260248101849052906020908290604490829088906001600160a01b03165af18015610840571561076a576020813d602011610838575b8161081c60209383612fc7565b810103126108345761082d906132af565b503861076a565b8380fd5b3d915061080f565b6040513d86823e3d90fd5b805460405163a9059cbb60e01b815233600482015260248101849052906020908290604490829089906001600160a01b03165af180156108cd57610890575b50610764565b6020813d6020116108c5575b816108a960209383612fc7565b810103126108c1576108ba906132af565b503861088a565b8480fd5b3d915061089c565b6040513d87823e3d90fd5b60018601546001600160a01b0316895260096020526040892080546108fe908690613128565b9055613105565b85546001600160a01b031689526009602052604089208054610928908490613128565b90556106d4565b608081901b8115600160801b83830414171561098a57906109626106e493926001600160801b0360048701541690613148565b61097160068601918254613128565b905561098260088501918254613128565b9055906106a8565b634e487b7160e01b87526011600452602487fd5b506001600160801b0360048401541615156106a3565b818060801b04600160801b14171561098a576109e06001600160801b036004860154168260801b613148565b6109ef60058601918254613128565b9055610a0060078501918254613128565b90553880610698565b506001600160801b036004860154161515610693565b50508590610689565b50508590610675565b9050610a55915060403d604011610a5c575b610a4d8183612fc7565b810190613405565b9038610660565b503d610a43565b6040513d88823e3d90fd5b9050610a8a91925060403d604011610a5c57610a4d8183612fc7565b9190386105d0565b634e487b7160e01b600052604160045260246000fd5b634e487b7160e01b84526011600452602484fd5b60405162461bcd60e51b815260206004820152600c60248201526b1a5b9cdd59999a58da595b9d60a21b6044820152606490fd5b506001600160801b036024351615156104d6565b60405162461bcd60e51b815260206004820152600b60248201526a2737903837b9b4ba34b7b760a91b6044820152606490fd5b50346102285760603660031901126102285760043560243560443591610b6760018060a01b038554163314613241565b610bb8808211159081610c00575b81610bf5575b5015610bc6577fcf8a1e1d5f09cf3c97dbb653cd9a4d7aace9292fbc1bb8211febf2d400febbdd9260609282600155806002558160035560405192835260208301526040820152a180f35b60405162461bcd60e51b81526020600482015260076024820152660cccaca7cdac2f60cb1b6044820152606490fd5b905083111538610b7b565b808411159150610b75565b50346102285780600319360112610228576007546040516001600160a01b039091168152602090f35b5034610228576020366003190112610228576001600160a01b039060409082610c5b612ec5565b1681526006602052205490610c9560405192839260ff8260a01c16911683909291602090604083019460018060a01b031683521515910152565b0390f35b503461022857602080600319360112610da9576004356001600160401b038111610da557610ccb903690600401612f32565b92610cd5846133ee565b93610ce36040519586612fc7565b808552610cef816133ee565b8585019390601f1901368537825b828110610d455750505060405193838594850191818652518092526040850193925b828110610d2e57505050500390f35b835185528695509381019392810192600101610d1f565b92959394926001600160a01b03610d65610d608386866133d1565b61338e565b1687526009845260408720548551821015610d9157600582901b86018501529395929493600101610cfd565b634e487b7160e01b88526032600452602488fd5b8280fd5b5080fd5b50346102285780600319360112610228576020600154604051908152f35b5034610228576040366003190112610228576004356002610e25610ded612ee0565b84546001600160a01b039190610e069083163314613241565b610e136004548610613324565b1692610e208415156132f2565b612fe8565b500180546001600160a01b031916909117905580f35b503461022857606036600319011261022857610e55612ec5565b7fb1e022a6c9e0caae0845b9948ca9e00873fa3a4477fe51ef4f33d437c8155360610e7e612ee0565b610e86612f23565b90610efe60018060a01b0394610ea0868854163314613241565b60405190610ead82612f7e565b83871682528415156020808401918252918816808a5260069092526040892092518354915160ff60a01b1991909916166001600160a81b03199091161796151560a01b60ff60a01b16969096179055565b604080516001600160a01b039290921682529115156020820152a280f35b5034610228576060366003190112610228576001600160401b03600435818111610da557610f4e903690600401612f32565b6024929192358281116108c157610f69903690600401612f32565b926044359081116110fe57610f82903690600401612f32565b909360018060a01b0393610f9a858954163314613241565b818114806110f5575b156110ca5787805b828110610fb6575080f35b877fb1e022a6c9e0caae0845b9948ca9e00873fa3a4477fe51ef4f33d437c815536088886110bf6110996110258f8c611093610d608b8f8f60019f838f9281998f8f95610d609561108892604061102a8f896110259161101f8f61108d9f610d609185916133d1565b976133d1565b6133e1565b928282519561103887612f7e565b16855260066020808701951515865284611056610d608d8d8d6133d1565b168352522092518354925160ff60a01b90151560a01b166001600160a81b0319909316911660ff60a01b191617179055565b6133d1565b996133d1565b986133d1565b604080516001600160a01b03909716875290151560208701529190921693918291820190565b0390a2018890610fab565b60405162461bcd60e51b81526020600482015260036024820152623632b760e91b6044820152606490fd5b50828114610fa3565b8580fd5b5034610228576020366003190112610228577f9e159816e18ce3a800ca4a3bae66b033044292bcdc1adf244f5174b09ed7e8a1602061113f612ec5565b83546001600160a01b0391906111589083163314613241565b16806001600160601b0360a01b6008541617600855604051908152a180f35b5034610228578060031936011261022857546040516001600160a01b039091168152602090f35b50346102285780600319360112610228576020600454604051908152f35b5034610228576101a03660031901126102285760803660231901126102285760a4356001600160401b038111610da9576111fa903690600401612ef6565b9060803660c3190112610da557610144356001600160401b03811161083457611227903690600401612ef6565b9061123960ff865460a01c1615613359565b61124860045460043510613324565b611253600435612fe8565b5093600a85015460ff81169081611e61575b5015611e2c57602435936001600160a01b0385168503611e285785546001600160a01b0390811690861603611df15760c435946001600160a01b0386168603611ded5760018701546001600160a01b0390811690871603611db657604435151580611dab575b15611d78578791604051916112df83612f7e565b30835260443560208401526e22d473030f116ddee9f6b43ac78ba33b15610834578460209561012493604051978896879563187945bd60e11b875260018060a01b0316600487015260443560248701526064356044870152608435606487015260018060a01b038151166084870152015160a48501523360c485015261010060e485015281610104850152848401378181018301859052601f01601f19168101030181836e22d473030f116ddee9f6b43ac78ba35af18015610a6357611d61575b50604051859392916113b182612f7e565b30825260e43560208301526e22d473030f116ddee9f6b43ac78ba33b156108c15760209383869461012493604051978896879563187945bd60e11b875260018060a01b0316600487015260e43560248701526101043560448701528635606487015260018060a01b038151166084870152015160a48501523360c485015261010060e485015281610104850152848401376000828201840152601f01601f19168101030181836e22d473030f116ddee9f6b43ac78ba35af18015611d5657611d42575b50506001546114bb6114b261271061149c8161149286604435613135565b049460e435613135565b049280611d18575b83611ceb575b604435613105565b9160e435613105565b916114c7600435613793565b6114d333600435613958565b805460405163095ea7b360e01b81526001600160a01b037f000000000000000000000000000000000000000000000000000000000000000081166004830152602482018590529091602091839160449183918a91165af180156108cd57611cb2575b50600181015460405163095ea7b360e01b81526001600160a01b037f000000000000000000000000000000000000000000000000000000000000000081166004830152602482018690529091602091839160449183918a91165af180156108cd57611c79575b50600381015480611b30575060018060a01b0381541691600182015461025842014211611b1c5760405193846101608101106001600160401b0361016087011117610a92576101608501604052845260018060a01b038116602085015262ffffff8160a01c1660408501528060b81c60020b606085015260d01c60020b60808401528060a08401528360c08401526101643560e08401526101843561010084015230610120840152610258420161014084015261014060405193634418b22b60e11b855260018060a01b03815116600486015260018060a01b03602082015116602486015262ffffff6040820151166044860152606081015160020b6064860152608081015160020b608486015260a081015160a486015260c081015160c486015260e081015160e486015261010081015161010486015260018060a01b0361012082015116610124860152015161014484015284608084610164818460018060a01b037f0000000000000000000000000000000000000000000000000000000000000000165af1948515611b0f5781829083968498611aba575b50600386015542600986015594959282905b855460405163095ea7b360e01b81526001600160a01b037f000000000000000000000000000000000000000000000000000000000000000081166004830152602482018590529093602092859260449284929091165af1918215610840578492611a7e575b50600186015460405163095ea7b360e01b81526001600160a01b037f000000000000000000000000000000000000000000000000000000000000000081166004830152602482018590529093602092859260449284929091165af1918215610840578492611a42575b508088106119ca575b5050808310611908575b50506107bc908260026118d660047fd035bbb356dc2d49407ad7d5504bef047b7e535c2bfe666f714bc97c40cc0ae696019260068454916001600160801b0395866118768c8287166133b6565b166001600160801b03198095161790556004358c52600560205260408c20336000526020526040600020958654906118b08c8284166133b6565b16938491161786556118c6600582015484613135565b60801c6001870155015490613135565b60801c910155604051918291600435963396846040919493926001600160801b03606083019616825260208201520152565b6001840154602091611953916001600160a01b031690611929908690613105565b60405163a9059cbb60e01b8152336004820152602481019190915293849283919082906044820190565b03925af18015610a6357611969575b8590611829565b906020823d6020116119c2575b8161198360209383612fc7565b810103126110fe577fd035bbb356dc2d49407ad7d5504bef047b7e535c2bfe666f714bc97c40cc0ae6926119b96107bc936132af565b50925090611962565b3d9150611976565b85546020916119e8916001600160a01b031690611929908b90613105565b03925af18015611a37576119fe575b829061181f565b6020813d602011611a2f575b81611a1760209383612fc7565b81010312610da557611a28906132af565b50386119f7565b3d9150611a0a565b6040513d85823e3d90fd5b91506020823d602011611a76575b81611a5d60209383612fc7565b8101031261083457611a6f84926132af565b5038611816565b3d9150611a50565b91506020823d602011611ab2575b81611a9960209383612fc7565b8101031261083457611aab84926132af565b50386117ad565b3d9150611a8c565b975050509350506080843d608011611b07575b81611ada60809383612fc7565b810103126108c1578484519381611af3602088016133a2565b604088015160609098015197969091611736565b3d9150611acd565b50604051903d90823e3d90fd5b634e487b7160e01b86526011600452602486fd5b9161025842014211611c6557604051928360c08101106001600160401b0360c086011117610a925760c084016040908152908452602084018281528185018681526101643560608088019182526101843560808901908152426102580160a08a01908152955163219f5d1760e01b8152985160048a0152935160248901529151604488015251606487015290516084860152905160a485015285908460c481847f00000000000000000000000000000000000000000000000000000000000000006001600160a01b03165af1948515611b0f578182958397611c18575b508290959693611748565b9650509350506060843d606011611c5d575b81611c3760609383612fc7565b810103126108c15784611c49856133a2565b602086015160409096015195949082611c0d565b3d9150611c2a565b634e487b7160e01b85526011600452602485fd5b6020813d602011611caa575b81611c9260209383612fc7565b810103126108c157611ca3906132af565b503861159b565b3d9150611c85565b6020813d602011611ce3575b81611ccb60209383612fc7565b810103126108c157611cdc906132af565b5038611535565b3d9150611cbe565b60018501546001600160a01b031686526009602052604086208054611d11908690613128565b90556114aa565b84546001600160a01b031686526009602052604086208054611d3b908390613128565b90556114a4565b611d4b90612f99565b610da9578138611474565b6040513d84823e3d90fd5b611d6f909591939295612f99565b939091386113a0565b60405162461bcd60e51b815260206004820152600b60248201526a1e995c9bc8185b5bdd5b9d60aa1b6044820152606490fd5b5060e43515156112cb565b60405162461bcd60e51b815260206004820152600f60248201526e0e8ded6cadc6240dad2e6dac2e8c6d608b1b6044820152606490fd5b8780fd5b60405162461bcd60e51b815260206004820152600f60248201526e0e8ded6cadc6040dad2e6dac2e8c6d608b1b6044820152606490fd5b8680fd5b60405162461bcd60e51b815260206004820152600d60248201526c506f6f6c20696e61637469766560981b6044820152606490fd5b60ff915060081c161538611265565b503461022857806003193601126102285760206040517379a02482a880bce3f13e09da970dc34db4cd24d18152f35b50346102285760403660031901126102285760a09060043590611ec0612ee0565b611ec983612fe8565b50928252600560205260408220600180861b03809216835260205260408220926001600160801b0384541693841515600014611fd85790611f4f611f75611f9093611f18600585015489613135565b60801c96611f55611f2d60068701548b613135565b60801c986003840154906001850154808211600014611fcf57611f4f91613105565b90613128565b976002600484015493015490818111600014611fc757611f4f9250613105565b80945b6001611f878883875416613473565b94015416613473565b90611faa612710611fa360035485613135565b0483613105565b926040519485526020850152604084015260608301526080820152f35b505090613128565b50508290613128565b9250611f9090611f4f600460038601549501548094611f78565b50346102285780600319360112610228578054612019336001600160a01b03831614613241565b60ff60a01b1916600160a01b1781557f9e87fac88ff661f02d44f95383c817fece4bce600a3dab7a54406878b965e7528180a180f35b50346102285780600319360112610228576040517f00000000000000000000000000000000000000000000000000000000000000006001600160a01b03168152602090f35b50346102285780600319360112610228576020600254604051908152f35b50346102285780600319360112610228576020600354604051908152f35b503461022857806003193601126102285760206040516e22d473030f116ddee9f6b43ac78ba38152f35b50346102285760209081600319360112610228576024826001600160a01b03612121612ec5565b16604051928380926370a0823160e01b82523060048301525afa918215612183578092612153575b5050604051908152f35b9091508282813d831161217c575b61216b8183612fc7565b810103126102285750513880612149565b503d612161565b604051903d90823e3d90fd5b503461022857806003193601126102285760ff6020915460a01c166040519015158152f35b50346102285760e0366003190112610228576121ce612ec5565b906121d7612ee0565b9160443562ffffff81168103610da5576064358060020b810361083457608435918260020b83036108c15760a4356001600160a01b03811681036110fe5760c435948515158603611e285761223660018060a01b038854163314613241565b6001600160a01b038116801515806125a2575b8061258f575b1561255d578560020b8560020b121561252c576001600160a01b038316156124fc576001600160a01b03891611156124f65796905b600454966040519161229583612f62565b6001600160a01b038a81168452848116602085015262ffffff86166040850152600287810b606086015288900b60808501521660a083015260c0820181905260e082018190526101008201819052610120820181905261014082018190526101608201819052610180820181905286156101a08301819052156101c0830152680100000000000000008810156124e2576001880160045561233588612fe8565b9190916124ce57509362ffffff6020999489989461248e7f8eb788dbcec7b31b9e14661809c7fd19230e807c71d8243cda403b3f1c91b29e99956101c0600a60c09b60018060a01b038451166001600160601b0360a01b90818354161782556001820160018060a01b036020870151168154908b60a01b604089015160a01b16606089015160b81b9160808a015160d01b8e60d01b16938e60e81b161717908c60b81b1617179055600282019060018060a01b0360a087015116908254161790558c8401516003820155600481016001600160801b0360e0860151166001600160801b03198254161790556101008401516005820155610120840151600682015561014084015160078201556101608401516008820155610180840151600982015501916124766101a08201511515849060ff801983541691151516179055565b0151815461ff00191690151560081b61ff0016179055565b6040519660018060a01b0316875260018060a01b03168b87015216604085015260020b606084015260020b6080830152151560a0820152a2604051908152f35b634e487b7160e01b81526004819052602490fd5b634e487b7160e01b81526041600452602490fd5b90612284565b60405162461bcd60e51b8152602060048201526008602482015267189859081c1bdbdb60c21b6044820152606490fd5b60405162461bcd60e51b8152602060048201526009602482015268626164207469636b7360b81b6044820152606490fd5b60405162461bcd60e51b815260206004820152600a60248201526962616420746f6b656e7360b01b6044820152606490fd5b506001600160a01b03891681141561224f565b506001600160a01b0389161515612249565b503461022857806003193601126102285780546125db336001600160a01b03831614613241565b60ff60a01b191681557fa45f47fdea8a1efdd9029a5691c7f759c32b7c698632b563573e155625d169338180a180f35b503461022857606036600319011261022857612625612ec5565b6044356001600160a01b0381811692602435918484036110fe578281612693936126556020948a54163314613241565b612660881515613279565b60405163a9059cbb60e01b81526001600160a01b0390971660048801526024870192909252169391829081906044820190565b038188875af19081156108cd5785916126cd575b50600080516020613bd4833981519152916126c36020926132bc565b604051908152a380f35b90506020813d602011612717575b816126e860209383612fc7565b810103126108c157600080516020613bd4833981519152916126c361270e6020936132af565b925050916126a7565b3d91506126db565b503461022857602080600319360112610da9576004359061274760ff845460a01c1615613359565b6127546004548310613324565b61275d82612fe8565b509061276883613793565b6127723384613958565b828452600581526040842033855281526040842091600383019060048254940191825492851591821580936129f5575b156129c6576127d7939291898092555561299d575b82612971575b611f4f8360018060a01b036001611f878983875416613473565b906127ea612710611fa360035485613135565b926040516370a0823160e01b81523060048201527317392e5483983945deb92e0518a8f2c4eb6ba59d908281602481855afa80156129665786918a91612931575b50106128fa5784612874575b50604051948552840152604083015260608201527f68f63ec46cb9860416fca2d4e91e8556ee9bebfbebd14b92a5d113019063922060803392a380f35b60405163a9059cbb60e01b815233600482015260248101869052908290829060449082908c905af180156128ef5788906128b9575b6128b391506132bc565b38612837565b508181813d83116128e8575b6128cf8183612fc7565b81010312611ded576128e36128b3916132af565b6128a9565b503d6128c5565b6040513d8a823e3d90fd5b60405162461bcd60e51b815260048101839052600f60248201526e4c6f772048324f207265736572766560881b6044820152606490fd5b809250848092503d831161295f575b61294a8183612fc7565b8101031261295b578590513861282b565b8880fd5b503d612940565b6040513d8b823e3d90fd5b60018101546001600160a01b0316875260098452604087208054612996908590613128565b90556127bd565b80546001600160a01b03168752600984526040872080546129bf908790613128565b90556127b7565b60405162461bcd60e51b81526004810187905260076024820152664e6f7468696e6760c81b6044820152606490fd5b508415156127a2565b5034610228576020366003190112610228576020906040906001600160a01b03612a26612ec5565b168152600983522054604051908152f35b503461022857806003193601126102285760206040516127108152f35b50346102285760603660031901126102285760043560243580151590818103610834577fef15c5d5f05af61008624bca92c06d6d5901f381a6dda7247b2ca42208591dcf91604091612ae7612aa7612f23565b91612abc60018060a01b038954163314613241565b612ac96004548810613324565b600a612ad488612fe8565b50019060ff801983541691151516179055565b612b1081600a612af688612fe8565b50019061ff00825491151560081b169061ff001916179055565b825191825215156020820152a280f35b50346102285780600319360112610228576008546040516001600160a01b039091168152602090f35b503461022857608036600319011261022857612b63612ec5565b50612b6c612ee0565b506064356001600160401b038111610da957612b8c903690600401612ef6565b5050604051630a85bd0160e11b8152602090f35b503461022857602036600319011261022857612bba612ec5565b8154906001600160a01b0390612bd33383851614613241565b1690612be08215156132f2565b6001600160a01b03191617815580f35b503461022857604036600319011261022857612c0a612ec5565b612c12612ee0565b82546001600160a01b0390612c2a9082163314613241565b80821692612c39841515613279565b16906040516370a0823160e01b81523060048201526020908181602481875afa908115610a63578691612d1e575b5080612c71578580f35b60405163a9059cbb60e01b81526001600160a01b0393909316600484015260248301819052818360448189885af1928315610a63578693612cd6575b50612cc6600080516020613bd4833981519152936132bc565b604051908152a338808080808580f35b92508183813d8311612d17575b612ced8183612fc7565b810103126110fe57612cc6612d10600080516020613bd4833981519152946132af565b9350612cad565b503d612ce3565b90508181813d8311612d44575b612d358183612fc7565b810103126110fe575138612c67565b503d612d2b565b50346102285760203660031901126102285760206102e7600435613168565b905034610da9576020366003190112610da95780612d8a6101c092612f62565b8281528260208201528260408201528260608201528260808201528260a08201528260c08201528260e08201528261010082015282610120820152826101408201528261016082015282610180820152826101a082015201526101e0612dfa612df4600435612fe8565b50613039565b612e076040518092612e09565bf35b60018060a01b0380825116835280602083015116602084015262ffffff6040830151166040840152606082015160020b6060840152608082015160020b608084015260a08201511660a083015260c081015160c08301526001600160801b0360e08201511660e0830152610100808201519083015261012080820151908301526101408082015190830152610160808201519083015261018080820151908301526101a0808201511515908301526101c0809101511515910152565b600435906001600160a01b0382168203612edb57565b600080fd5b602435906001600160a01b0382168203612edb57565b9181601f84011215612edb578235916001600160401b038311612edb5760208381860195010111612edb57565b604435908115158203612edb57565b9181601f84011215612edb578235916001600160401b038311612edb576020808501948460051b010111612edb57565b6101e081019081106001600160401b03821117610a9257604052565b604081019081106001600160401b03821117610a9257604052565b6001600160401b038111610a9257604052565b608081019081106001600160401b03821117610a9257604052565b90601f801991011681019081106001600160401b03821117610a9257604052565b60045481101561302357600b906004600052027f8a35acfbc15ff81a39ae7d344fd709f28e8600b4aa8c65c6b64bfe7fe36bd19b0190600090565b634e487b7160e01b600052603260045260246000fd5b9060405161304681612f62565b6101c060ff600a839560018060a01b038082541686526001820154818116602088015262ffffff8160a01c1660408801528060b81c60020b606088015260d01c60020b608087015260028201541660a0860152600381015460c08601526001600160801b0360048201541660e086015260058101546101008601526006810154610120860152600781015461014086015260088101546101608601526009810154610180860152015481811615156101a085015260081c161515910152565b9190820391821161311257565b634e487b7160e01b600052601160045260246000fd5b9190820180921161311257565b8181029291811591840414171561311257565b8115613152570490565b634e487b7160e01b600052601260045260246000fd5b61317190612fe8565b5060098101548015801561322c575b6132255761318e9042613105565b908115613225576131c660018060a01b03611f4f6131b482855416600786015490613473565b91600185015416600885015490613473565b90811561321d576131d69061365f565b801561321d5761271082029161270f19818404016131125764496cebb80002918083046301e1338014901517156131125761321a9261321491613135565b90613148565b90565b505050600090565b5050600090565b506001600160801b0360048301541615613180565b1561324857565b60405162461bcd60e51b81526020600482015260096024820152682737ba1037bbb732b960b91b6044820152606490fd5b1561328057565b60405162461bcd60e51b81526020600482015260076024820152667a65726f20746f60c81b6044820152606490fd5b51908115158203612edb57565b156132c357565b60405162461bcd60e51b81526020600482015260076024820152661d1e0819985a5b60ca1b6044820152606490fd5b156132f957565b606460405162461bcd60e51b81526020600482015260046024820152637a65726f60e01b6044820152fd5b1561332b57565b60405162461bcd60e51b8152602060048201526006602482015265189859081a5960d21b6044820152606490fd5b1561336057565b60405162461bcd60e51b815260206004820152600660248201526514185d5cd95960d21b6044820152606490fd5b356001600160a01b0381168103612edb5790565b51906001600160801b0382168203612edb57565b9190916001600160801b038080941691160191821161311257565b91908110156130235760051b0190565b358015158103612edb5790565b6001600160401b038111610a925760051b60200190565b9190826040910312612edb576020825192015190565b919091606060808201938051835260018060a01b036020820151166020840152816040820151916001600160801b038093166040860152015116910152565b6001600160801b03918216908216039190821161311257565b8115613225576001600160a01b03908082167317392e5483983945deb92e0518a8f2c4eb6ba59d81146135d957732cfc85d8e48f8eab294be644d9e25c303086300381146135bd577379a02482a880bce3f13e09da970dc34db4cd24d181146135905760005260066020526040600020604051906134f082612f7e565b5460ff8482169182845260a01c1615158060208401528115613585571561355f575082600854169081158015613553575b6135495761321a9461353f9385613539935116613b60565b90613a3a565b9060075416613a3a565b5050505050600090565b50836007541615613521565b91939290506007541691821561357c5761321a9361353992613aca565b50505050600090565b505050505050600090565b50508060085416801580156135b1575b61321d5761321a9261353f91613a3a565b508160075416156135a0565b50506007541690816135d0575050600090565b61321a91613a3a565b50505090565b519061ffff82168203612edb57565b908160e0910312612edb5780516001600160a01b0381168103612edb579160208201518060020b8103612edb5791613628604082016135df565b91613635606083016135df565b91613642608082016135df565b9160a082015160ff81168103612edb5760c061321a9193016132af565b600381015415801561377e575b8015613769575b613763576002810154604051633850c7bd60e01b81526001600160a01b03929160e0908290600490829087165afa8015613757578391600091613722575b5016801561321d576004820154606081901b6fffffffffffffffffffffffffffffffff60601b16936001600160801b03909116908115600160601b838704141715613112576001611f876137158561370f611f4f9761321a9a613148565b95613135565b60601c9383875416613473565b613744915060e03d60e011613750575b61373c8183612fc7565b8101906135ee565b505050505050386136b1565b503d613732565b6040513d6000823e3d90fd5b50600090565b5060028101546001600160a01b031615613673565b506001600160801b036004820154161561366c565b61379c90612fe8565b5060038101549081158015613943575b61393f57604080516137f5936137c182612fac565b81523060208201526001600160801b03908183820152816060820152825194859163fc6f786560e01b83526004830161341b565b6000939182918791900381867f00000000000000000000000000000000000000000000000000000000000000006001600160a01b03165af19485156139355783918496613911575b5050801580156138c2575b5050831591821561385b575b5050505050565b608085901b92600160801b8685041417156138ae5750916138886008926138a29460048401541690613148565b61389760068301918254613128565b905501918254613128565b90553880808080613854565b634e487b7160e01b81526011600452602490fd5b608082901b90600160801b838304141715610aa8576138e8908360048701541690613148565b6138f760058601918254613128565b905561390860078501918254613128565b90553880613848565b61392c93965080919250903d10610a5c57610a4d8183612fc7565b9390388061383d565b81513d85823e3d90fd5b5050565b506001600160801b03600482015416156137ac565b61396181612fe8565b5060009182526005602090815260408084206001600160a01b039095168452939052918120805490916001600160801b0391821615613a2957506139be9082541660066139b2600586015483613135565b60801c94015490613135565b60801c91600182018054808311613a08575b50600283019283548086116139e6575b50505555565b60046139f56139ff9288613105565b9201918254613128565b905538806139e0565b613a129083613105565b613a2160038501918254613128565b9055386139d0565b809350829150600160029301550155565b9080158015613ab9575b61322557604051633850c7bd60e01b81526001600160a01b039260e0908290600490829087165afa9283156137575761321a93613a8b92600091613a94575b501680613135565b9060c01b613148565b613aad915060e03d60e0116137505761373c8183612fc7565b50505050505038613a83565b506001600160a01b03821615613a44565b82158015613b4f575b61321d57604051633850c7bd60e01b8152906001600160a01b039060e0908390600490829085165afa80156137575781613b2c91732cfc85d8e48f8eab294be644d9e25c303086300394600091613a9457501680613135565b92161015613b4357613b3d91613135565b60c01c90565b61321a9160c01b613148565b506001600160a01b03811615613ad3565b82158015613bc2575b61321d57604051633850c7bd60e01b8152906001600160a01b039060e0908390600490829085165afa80156137575781613b2c917379a02482a880bce3f13e09da970dc34db4cd24d194600091613a9457501680613135565b506001600160a01b03811615613b6956febacf8f6c1ed84a94c12e881a538d4839d950546a7be9a95ff970802cafb83afea2646970667358221220105c82b649200e25d89775836fe850d2be7f9e4435fd665307bba44924c3ee0864736f6c63430008180033","opcodes":"PUSH1 0xA0 CALLVALUE PUSH3 0x10A JUMPI PUSH1 0x1F PUSH3 0x3D4F CODESIZE DUP2 SWAP1 SUB SWAP2 DUP3 ADD PUSH1 0x1F NOT AND DUP4 ADD SWAP2 PUSH1 0x1 PUSH1 0x1 PUSH1 0x40 SHL SUB DUP4 GT DUP5 DUP5 LT OR PUSH3 0x10F JUMPI DUP1 DUP5 SWAP3 PUSH1 0x20 SWAP5 PUSH1 0x40 MSTORE DUP4 CODECOPY DUP2 ADD SUB SLT PUSH3 0x10A JUMPI MLOAD PUSH1 0x1 PUSH1 0x1 PUSH1 0xA0 SHL SUB DUP2 AND SWAP1 DUP2 SWAP1 SUB PUSH3 0x10A JUMPI PUSH1 0xC8 PUSH1 0x1 SSTORE PUSH1 0xC8 PUSH1 0x2 SSTORE PUSH2 0x7D0 PUSH1 0x3 SSTORE DUP1 ISZERO PUSH3 0xDA JUMPI PUSH1 0x0 DUP1 SLOAD PUSH1 0x1 PUSH1 0x1 PUSH1 0xA0 SHL SUB NOT AND CALLER OR SWAP1 SSTORE PUSH1 0x80 MSTORE PUSH1 0x40 MLOAD PUSH2 0x3C29 SWAP1 DUP2 PUSH3 0x126 DUP3 CODECOPY PUSH1 0x80 MLOAD DUP2 DUP2 DUP2 PUSH2 0x59E ADD MSTORE DUP2 DUP2 PUSH2 0x626 ADD MSTORE DUP2 DUP2 PUSH2 0x14EC ADD MSTORE DUP2 DUP2 PUSH2 0x1552 ADD MSTORE DUP2 DUP2 PUSH2 0x1701 ADD MSTORE DUP2 DUP2 PUSH2 0x1761 ADD MSTORE DUP2 DUP2 PUSH2 0x17CA ADD MSTORE DUP2 DUP2 PUSH2 0x1BD2 ADD MSTORE DUP2 DUP2 PUSH2 0x2065 ADD MSTORE PUSH2 0x3803 ADD MSTORE RETURN JUMPDEST PUSH1 0x40 MLOAD PUSH3 0x461BCD PUSH1 0xE5 SHL DUP2 MSTORE PUSH1 0x20 PUSH1 0x4 DUP3 ADD MSTORE PUSH1 0x8 PUSH1 0x24 DUP3 ADD MSTORE PUSH8 0x7A65726F206E706D PUSH1 0xC0 SHL PUSH1 0x44 DUP3 ADD MSTORE PUSH1 0x64 SWAP1 REVERT JUMPDEST PUSH1 0x0 DUP1 REVERT JUMPDEST PUSH4 0x4E487B71 PUSH1 0xE0 SHL PUSH1 0x0 MSTORE PUSH1 0x41 PUSH1 0x4 MSTORE PUSH1 0x24 PUSH1 0x0 REVERT INVALID PUSH1 0x80 DUP1 PUSH1 0x40 MSTORE PUSH1 0x4 CALLDATASIZE LT ISZERO PUSH2 0x13 JUMPI PUSH1 0x0 DUP1 REVERT JUMPDEST PUSH1 0x0 SWAP1 DUP2 CALLDATALOAD PUSH1 0xE0 SHR SWAP1 DUP2 PUSH4 0x68BCD8D EQ PUSH2 0x2D6A JUMPI POP DUP1 PUSH4 0x6A3CDA5 EQ PUSH2 0x2D4B JUMPI DUP1 PUSH4 0x9CAE2C8 EQ PUSH2 0x2BF0 JUMPI DUP1 PUSH4 0x13AF4035 EQ PUSH2 0x2BA0 JUMPI DUP1 PUSH4 0x150B7A02 EQ PUSH2 0x2B49 JUMPI DUP1 PUSH4 0x1D87832F EQ PUSH2 0x2B20 JUMPI DUP1 PUSH4 0x20CD6D9B EQ PUSH2 0x2A54 JUMPI DUP1 PUSH4 0x249D39E9 EQ PUSH2 0x2A37 JUMPI DUP1 PUSH4 0x285A0337 EQ PUSH2 0x29FE JUMPI DUP1 PUSH4 0x379607F5 EQ PUSH2 0x271F JUMPI DUP1 PUSH4 0x3CCDBB28 EQ PUSH2 0x260B JUMPI DUP1 PUSH4 0x3F4BA83A EQ PUSH2 0x25B4 JUMPI DUP1 PUSH4 0x436FA38C EQ PUSH2 0x21B4 JUMPI DUP1 PUSH4 0x5C975ABB EQ PUSH2 0x218F JUMPI DUP1 PUSH4 0x66E3E5E4 EQ PUSH2 0x20FA JUMPI DUP1 PUSH4 0x6AFDD850 EQ PUSH2 0x20D0 JUMPI DUP1 PUSH4 0x7A526F4E EQ PUSH2 0x20B2 JUMPI DUP1 PUSH4 0x7ACA2B59 EQ PUSH2 0x2094 JUMPI DUP1 PUSH4 0x82FF8414 EQ PUSH2 0x204F JUMPI DUP1 PUSH4 0x8456CB59 EQ PUSH2 0x1FF2 JUMPI DUP1 PUSH4 0x869DA9DB EQ PUSH2 0x1E9F JUMPI DUP1 PUSH4 0x89A30271 EQ PUSH2 0x1E70 JUMPI DUP1 PUSH4 0x8A7A9EC4 EQ PUSH2 0x11BC JUMPI DUP1 PUSH4 0x8C788DE0 EQ PUSH2 0x119E JUMPI DUP1 PUSH4 0x8DA5CB5B EQ PUSH2 0x1177 JUMPI DUP1 PUSH4 0x903BD41E EQ PUSH2 0x1102 JUMPI DUP1 PUSH4 0x99E0538C EQ PUSH2 0xF1C JUMPI DUP1 PUSH4 0xA1220CC1 EQ PUSH2 0xE3B JUMPI DUP1 PUSH4 0xA360DD6A EQ PUSH2 0xDCB JUMPI DUP1 PUSH4 0xAB879827 EQ PUSH2 0xDAD JUMPI DUP1 PUSH4 0xB6870E83 EQ PUSH2 0xC99 JUMPI DUP1 PUSH4 0xC2C21A01 EQ PUSH2 0xC34 JUMPI DUP1 PUSH4 0xC6C21603 EQ PUSH2 0xC0B JUMPI DUP1 PUSH4 0xCEC10C11 EQ PUSH2 0xB37 JUMPI DUP1 PUSH4 0xCF5B004C EQ PUSH2 0x440 JUMPI DUP1 PUSH4 0xD55BE8C6 EQ PUSH2 0x423 JUMPI DUP1 PUSH4 0xD88FF1F4 EQ PUSH2 0x34B JUMPI DUP1 PUSH4 0xDDC63262 EQ PUSH2 0x31E JUMPI DUP1 PUSH4 0xDE061D66 EQ PUSH2 0x2EF JUMPI DUP1 PUSH4 0xDF5BFEA5 EQ PUSH2 0x2BF JUMPI DUP1 PUSH4 0xE6A69AB8 EQ PUSH2 0x2A0 JUMPI DUP1 PUSH4 0xF12077AC EQ PUSH2 0x22B JUMPI PUSH4 0xFEAA524D EQ PUSH2 0x1FA JUMPI PUSH1 0x0 DUP1 REVERT JUMPDEST CALLVALUE PUSH2 0x228 JUMPI DUP1 PUSH1 0x3 NOT CALLDATASIZE ADD SLT PUSH2 0x228 JUMPI PUSH1 0x20 PUSH1 0x40 MLOAD PUSH20 0x17392E5483983945DEB92E0518A8F2C4EB6BA59D DUP2 MSTORE RETURN JUMPDEST DUP1 REVERT JUMPDEST POP CALLVALUE PUSH2 0x228 JUMPI PUSH1 0x20 CALLDATASIZE PUSH1 0x3 NOT ADD SLT PUSH2 0x228 JUMPI PUSH32 0x4E41E0EB5EBCC4D736D4331D9732692D3AB79DB9F1E32F7D538B2F391A15179A PUSH1 0x20 PUSH2 0x268 PUSH2 0x2EC5 JUMP JUMPDEST DUP4 SLOAD PUSH1 0x1 PUSH1 0x1 PUSH1 0xA0 SHL SUB SWAP2 SWAP1 PUSH2 0x281 SWAP1 DUP4 AND CALLER EQ PUSH2 0x3241 JUMP JUMPDEST AND DUP1 PUSH1 0x1 PUSH1 0x1 PUSH1 0x60 SHL SUB PUSH1 0xA0 SHL PUSH1 0x7 SLOAD AND OR PUSH1 0x7 SSTORE PUSH1 0x40 MLOAD SWAP1 DUP2 MSTORE LOG1 DUP1 RETURN JUMPDEST POP CALLVALUE PUSH2 0x228 JUMPI DUP1 PUSH1 0x3 NOT CALLDATASIZE ADD SLT PUSH2 0x228 JUMPI PUSH1 0x20 PUSH1 0x40 MLOAD PUSH4 0x1E13380 DUP2 MSTORE RETURN JUMPDEST POP CALLVALUE PUSH2 0x228 JUMPI PUSH1 0x40 CALLDATASIZE PUSH1 0x3 NOT ADD SLT PUSH2 0x228 JUMPI PUSH1 0x20 PUSH2 0x2E7 PUSH2 0x2DE PUSH2 0x2EC5 JUMP JUMPDEST PUSH1 0x24 CALLDATALOAD SWAP1 PUSH2 0x3473 JUMP JUMPDEST PUSH1 0x40 MLOAD SWAP1 DUP2 MSTORE RETURN JUMPDEST POP CALLVALUE PUSH2 0x228 JUMPI DUP1 PUSH1 0x3 NOT CALLDATASIZE ADD SLT PUSH2 0x228 JUMPI PUSH1 0x20 PUSH1 0x40 MLOAD PUSH20 0x2CFC85D8E48F8EAB294BE644D9E25C3030863003 DUP2 MSTORE RETURN JUMPDEST POP CALLVALUE PUSH2 0x228 JUMPI PUSH1 0x20 CALLDATASIZE PUSH1 0x3 NOT ADD SLT PUSH2 0x228 JUMPI PUSH2 0x348 PUSH1 0x4 CALLDATALOAD PUSH2 0x343 PUSH1 0x4 SLOAD DUP3 LT PUSH2 0x3324 JUMP JUMPDEST PUSH2 0x3793 JUMP JUMPDEST DUP1 RETURN JUMPDEST POP CALLVALUE PUSH2 0x228 JUMPI DUP1 PUSH1 0x3 NOT CALLDATASIZE ADD SLT PUSH2 0x228 JUMPI PUSH1 0x4 SLOAD PUSH2 0x368 DUP2 PUSH2 0x33EE JUMP JUMPDEST SWAP1 PUSH2 0x376 PUSH1 0x40 MLOAD SWAP3 DUP4 PUSH2 0x2FC7 JUMP JUMPDEST DUP1 DUP3 MSTORE PUSH1 0x4 DUP4 MSTORE PUSH1 0x20 SWAP2 DUP3 DUP2 ADD SWAP2 DUP5 PUSH32 0x8A35ACFBC15FF81A39AE7D344FD709F28E8600B4AA8C65C6B64BFE7FE36BD19B DUP5 JUMPDEST DUP4 DUP4 LT PUSH2 0x3FC JUMPI POP POP POP POP PUSH1 0x40 MLOAD SWAP3 PUSH1 0x20 DUP5 ADD SWAP2 PUSH1 0x20 DUP6 MSTORE MLOAD DUP1 SWAP3 MSTORE PUSH1 0x40 DUP5 ADD SWAP3 SWAP5 JUMPDEST DUP3 DUP2 LT PUSH2 0x3D8 JUMPI DUP5 DUP5 SUB DUP6 RETURN JUMPDEST SWAP1 SWAP2 SWAP3 DUP3 PUSH2 0x1E0 DUP3 PUSH2 0x3ED PUSH1 0x1 SWAP5 DUP11 MLOAD PUSH2 0x2E09 JUMP JUMPDEST ADD SWAP7 ADD SWAP2 ADD SWAP5 SWAP3 SWAP2 SWAP1 SWAP5 PUSH2 0x3CB JUMP JUMPDEST PUSH1 0xB DUP8 PUSH1 0x1 SWAP3 PUSH2 0x410 DUP6 SWAP12 SWAP11 SWAP9 SWAP10 SWAP12 PUSH2 0x3039 JUMP JUMPDEST DUP2 MSTORE ADD SWAP3 ADD SWAP3 ADD SWAP2 SWAP1 SWAP7 SWAP5 SWAP4 SWAP6 SWAP7 PUSH2 0x3A8 JUMP JUMPDEST POP CALLVALUE PUSH2 0x228 JUMPI DUP1 PUSH1 0x3 NOT CALLDATASIZE ADD SLT PUSH2 0x228 JUMPI PUSH1 0x20 PUSH1 0x40 MLOAD PUSH2 0xBB8 DUP2 MSTORE RETURN JUMPDEST POP CALLVALUE PUSH2 0x228 JUMPI PUSH1 0x80 CALLDATASIZE PUSH1 0x3 NOT ADD SLT PUSH2 0x228 JUMPI PUSH1 0x1 PUSH1 0x1 PUSH1 0x80 SHL SUB PUSH1 0x24 CALLDATALOAD AND PUSH1 0x24 CALLDATALOAD SUB PUSH2 0x228 JUMPI PUSH2 0x477 PUSH1 0xFF DUP3 SLOAD PUSH1 0xA0 SHR AND ISZERO PUSH2 0x3359 JUMP JUMPDEST PUSH2 0x486 PUSH1 0x4 SLOAD PUSH1 0x4 CALLDATALOAD LT PUSH2 0x3324 JUMP JUMPDEST PUSH2 0x491 PUSH1 0x4 CALLDATALOAD PUSH2 0x2FE8 JUMP JUMPDEST POP PUSH1 0x3 DUP2 ADD SLOAD ISZERO PUSH2 0xB04 JUMPI PUSH1 0x4 CALLDATALOAD DUP3 MSTORE PUSH1 0x5 PUSH1 0x20 MSTORE PUSH1 0x40 DUP3 KECCAK256 CALLER PUSH1 0x0 MSTORE PUSH1 0x20 MSTORE PUSH1 0x40 PUSH1 0x0 KECCAK256 SWAP1 PUSH1 0x1 PUSH1 0x1 PUSH1 0x80 SHL SUB PUSH1 0x24 CALLDATALOAD AND PUSH1 0x1 PUSH1 0x1 PUSH1 0x80 SHL SUB DUP4 SLOAD AND LT ISZERO DUP1 PUSH2 0xAF0 JUMPI JUMPDEST ISZERO PUSH2 0xABC JUMPI PUSH2 0x4E6 PUSH1 0x4 CALLDATALOAD PUSH2 0x3793 JUMP JUMPDEST PUSH2 0x4F2 CALLER PUSH1 0x4 CALLDATALOAD PUSH2 0x3958 JUMP JUMPDEST PUSH1 0x3 DUP2 ADD SLOAD SWAP1 PUSH2 0x258 TIMESTAMP ADD TIMESTAMP GT PUSH2 0xAA8 JUMPI PUSH1 0x40 MLOAD SWAP2 DUP3 PUSH1 0xA0 DUP2 ADD LT PUSH1 0x1 PUSH1 0x1 PUSH1 0x40 SHL SUB PUSH1 0xA0 DUP6 ADD GT OR PUSH2 0xA92 JUMPI PUSH1 0xA0 DUP4 ADD PUSH1 0x40 MSTORE DUP3 MSTORE PUSH1 0x20 DUP3 ADD PUSH1 0x1 PUSH1 0x1 PUSH1 0x80 SHL SUB PUSH1 0x24 CALLDATALOAD AND DUP2 MSTORE PUSH1 0x40 DUP4 ADD PUSH1 0x44 CALLDATALOAD DUP2 MSTORE PUSH1 0x60 DUP5 ADD SWAP1 PUSH1 0x64 CALLDATALOAD DUP3 MSTORE PUSH1 0x1 PUSH1 0x1 PUSH1 0x80 SHL SUB PUSH1 0x80 DUP7 ADD SWAP4 PUSH2 0x258 TIMESTAMP ADD DUP6 MSTORE PUSH1 0x40 MLOAD SWAP7 PUSH4 0x624E65F PUSH1 0xE1 SHL DUP9 MSTORE MLOAD PUSH1 0x4 DUP9 ADD MSTORE MLOAD AND PUSH1 0x24 DUP7 ADD MSTORE MLOAD PUSH1 0x44 DUP6 ADD MSTORE MLOAD PUSH1 0x64 DUP5 ADD MSTORE MLOAD PUSH1 0x84 DUP4 ADD MSTORE PUSH1 0x40 DUP3 PUSH1 0xA4 DUP2 DUP8 PUSH1 0x1 DUP1 PUSH1 0xA0 SHL SUB PUSH32 0x0 AND GAS CALL SWAP2 DUP3 ISZERO PUSH2 0x840 JUMPI DUP5 SWAP1 DUP6 SWAP4 PUSH2 0xA6E JUMPI JUMPDEST POP PUSH2 0x621 PUSH1 0x40 PUSH1 0x3 DUP5 ADD SLOAD DUP2 MLOAD SWAP1 PUSH2 0x5E7 DUP3 PUSH2 0x2FAC JUMP JUMPDEST DUP2 MSTORE ADDRESS PUSH1 0x20 DUP3 ADD MSTORE PUSH1 0x1 PUSH1 0x1 PUSH1 0x80 SHL SUB DUP3 DUP3 ADD MSTORE PUSH1 0x1 PUSH1 0x1 PUSH1 0x80 SHL SUB PUSH1 0x60 DUP3 ADD MSTORE DUP2 MLOAD DUP1 SWAP4 DUP2 SWAP3 PUSH4 0xFC6F7865 PUSH1 0xE0 SHL DUP4 MSTORE PUSH1 0x4 DUP4 ADD PUSH2 0x341B JUMP JUMPDEST SUB DUP2 DUP10 PUSH32 0x0 PUSH1 0x1 PUSH1 0x1 PUSH1 0xA0 SHL SUB AND GAS CALL SWAP1 DUP2 ISZERO PUSH2 0xA63 JUMPI DUP7 SWAP1 DUP8 SWAP3 PUSH2 0xA31 JUMPI JUMPDEST POP DUP3 DUP1 DUP3 GT ISZERO PUSH2 0xA28 JUMPI PUSH2 0x673 SWAP2 PUSH2 0x3105 JUMP JUMPDEST SWAP1 JUMPDEST DUP5 DUP1 DUP3 GT ISZERO PUSH2 0xA1F JUMPI PUSH2 0x687 SWAP2 PUSH2 0x3105 JUMP JUMPDEST SWAP1 JUMPDEST DUP1 ISZERO DUP1 ISZERO DUP1 PUSH2 0xA09 JUMPI JUMPDEST PUSH2 0x9B4 JUMPI JUMPDEST POP POP DUP1 ISZERO ISZERO DUP1 PUSH2 0x99E JUMPI JUMPDEST PUSH2 0x92F JUMPI JUMPDEST POP PUSH2 0x6E4 SWAP1 PUSH2 0x6DE PUSH1 0x2 SLOAD PUSH2 0x2710 PUSH2 0x6CC DUP2 PUSH2 0x6C4 DUP5 DUP8 PUSH2 0x3135 JUMP JUMPDEST DIV SWAP3 DUP9 PUSH2 0x3135 JUMP JUMPDEST DIV SWAP3 DUP2 PUSH2 0x905 JUMPI JUMPDEST DUP4 PUSH2 0x8D8 JUMPI PUSH2 0x3105 JUMP JUMPDEST SWAP4 PUSH2 0x3105 JUMP JUMPDEST SWAP3 PUSH1 0x2 PUSH2 0x758 PUSH1 0x4 DUP5 ADD DUP1 SLOAD SWAP1 PUSH1 0x1 PUSH1 0x1 PUSH1 0x80 SHL SUB PUSH2 0x707 PUSH1 0x24 CALLDATALOAD DUP3 DUP6 AND PUSH2 0x345A JUMP JUMPDEST AND PUSH1 0x1 PUSH1 0x1 PUSH1 0x80 SHL SUB NOT DUP1 SWAP4 AND OR SWAP1 SSTORE DUP4 SLOAD PUSH1 0x1 PUSH1 0x1 PUSH1 0x80 SHL SUB PUSH2 0x72F PUSH1 0x24 CALLDATALOAD DUP3 DUP5 AND PUSH2 0x345A JUMP JUMPDEST AND SWAP2 DUP3 SWAP2 AND OR DUP5 SSTORE PUSH2 0x745 PUSH1 0x5 DUP7 ADD SLOAD DUP3 PUSH2 0x3135 JUMP JUMPDEST PUSH1 0x80 SHR PUSH1 0x1 DUP6 ADD SSTORE PUSH1 0x6 DUP6 ADD SLOAD SWAP1 PUSH2 0x3135 JUMP JUMPDEST PUSH1 0x80 SHR SWAP2 ADD SSTORE DUP2 PUSH2 0x84B JUMPI JUMPDEST DUP3 PUSH2 0x7C2 JUMPI JUMPDEST POP PUSH32 0x220B40962E84EC0BB069823FE62098BD4FFDAA797453DE6B5365460177884208 PUSH1 0x40 MLOAD DUP1 PUSH2 0x7BC PUSH1 0x4 CALLDATALOAD SWAP6 CALLER SWAP6 PUSH1 0x24 CALLDATALOAD DUP5 PUSH1 0x40 SWAP2 SWAP5 SWAP4 SWAP3 PUSH1 0x1 PUSH1 0x1 PUSH1 0x80 SHL SUB PUSH1 0x60 DUP4 ADD SWAP7 AND DUP3 MSTORE PUSH1 0x20 DUP3 ADD MSTORE ADD MSTORE JUMP JUMPDEST SUB SWAP1 LOG3 DUP1 RETURN JUMPDEST PUSH1 0x1 ADD SLOAD PUSH1 0x40 MLOAD PUSH4 0xA9059CBB PUSH1 0xE0 SHL DUP2 MSTORE CALLER PUSH1 0x4 DUP3 ADD MSTORE PUSH1 0x24 DUP2 ADD DUP5 SWAP1 MSTORE SWAP1 PUSH1 0x20 SWAP1 DUP3 SWAP1 PUSH1 0x44 SWAP1 DUP3 SWAP1 DUP9 SWAP1 PUSH1 0x1 PUSH1 0x1 PUSH1 0xA0 SHL SUB AND GAS CALL DUP1 ISZERO PUSH2 0x840 JUMPI ISZERO PUSH2 0x76A JUMPI PUSH1 0x20 DUP2 RETURNDATASIZE PUSH1 0x20 GT PUSH2 0x838 JUMPI JUMPDEST DUP2 PUSH2 0x81C PUSH1 0x20 SWAP4 DUP4 PUSH2 0x2FC7 JUMP JUMPDEST DUP2 ADD SUB SLT PUSH2 0x834 JUMPI PUSH2 0x82D SWAP1 PUSH2 0x32AF JUMP JUMPDEST POP CODESIZE PUSH2 0x76A JUMP JUMPDEST DUP4 DUP1 REVERT JUMPDEST RETURNDATASIZE SWAP2 POP PUSH2 0x80F JUMP JUMPDEST PUSH1 0x40 MLOAD RETURNDATASIZE DUP7 DUP3 RETURNDATACOPY RETURNDATASIZE SWAP1 REVERT JUMPDEST DUP1 SLOAD PUSH1 0x40 MLOAD PUSH4 0xA9059CBB PUSH1 0xE0 SHL DUP2 MSTORE CALLER PUSH1 0x4 DUP3 ADD MSTORE PUSH1 0x24 DUP2 ADD DUP5 SWAP1 MSTORE SWAP1 PUSH1 0x20 SWAP1 DUP3 SWAP1 PUSH1 0x44 SWAP1 DUP3 SWAP1 DUP10 SWAP1 PUSH1 0x1 PUSH1 0x1 PUSH1 0xA0 SHL SUB AND GAS CALL DUP1 ISZERO PUSH2 0x8CD JUMPI PUSH2 0x890 JUMPI JUMPDEST POP PUSH2 0x764 JUMP JUMPDEST PUSH1 0x20 DUP2 RETURNDATASIZE PUSH1 0x20 GT PUSH2 0x8C5 JUMPI JUMPDEST DUP2 PUSH2 0x8A9 PUSH1 0x20 SWAP4 DUP4 PUSH2 0x2FC7 JUMP JUMPDEST DUP2 ADD SUB SLT PUSH2 0x8C1 JUMPI PUSH2 0x8BA SWAP1 PUSH2 0x32AF JUMP JUMPDEST POP CODESIZE PUSH2 0x88A JUMP JUMPDEST DUP5 DUP1 REVERT JUMPDEST RETURNDATASIZE SWAP2 POP PUSH2 0x89C JUMP JUMPDEST PUSH1 0x40 MLOAD RETURNDATASIZE DUP8 DUP3 RETURNDATACOPY RETURNDATASIZE SWAP1 REVERT JUMPDEST PUSH1 0x1 DUP7 ADD SLOAD PUSH1 0x1 PUSH1 0x1 PUSH1 0xA0 SHL SUB AND DUP10 MSTORE PUSH1 0x9 PUSH1 0x20 MSTORE PUSH1 0x40 DUP10 KECCAK256 DUP1 SLOAD PUSH2 0x8FE SWAP1 DUP7 SWAP1 PUSH2 0x3128 JUMP JUMPDEST SWAP1 SSTORE PUSH2 0x3105 JUMP JUMPDEST DUP6 SLOAD PUSH1 0x1 PUSH1 0x1 PUSH1 0xA0 SHL SUB AND DUP10 MSTORE PUSH1 0x9 PUSH1 0x20 MSTORE PUSH1 0x40 DUP10 KECCAK256 DUP1 SLOAD PUSH2 0x928 SWAP1 DUP5 SWAP1 PUSH2 0x3128 JUMP JUMPDEST SWAP1 SSTORE PUSH2 0x6D4 JUMP JUMPDEST PUSH1 0x80 DUP2 SWAP1 SHL DUP2 ISZERO PUSH1 0x1 PUSH1 0x80 SHL DUP4 DUP4 DIV EQ OR ISZERO PUSH2 0x98A JUMPI SWAP1 PUSH2 0x962 PUSH2 0x6E4 SWAP4 SWAP3 PUSH1 0x1 PUSH1 0x1 PUSH1 0x80 SHL SUB PUSH1 0x4 DUP8 ADD SLOAD AND SWAP1 PUSH2 0x3148 JUMP JUMPDEST PUSH2 0x971 PUSH1 0x6 DUP7 ADD SWAP2 DUP3 SLOAD PUSH2 0x3128 JUMP JUMPDEST SWAP1 SSTORE PUSH2 0x982 PUSH1 0x8 DUP6 ADD SWAP2 DUP3 SLOAD PUSH2 0x3128 JUMP JUMPDEST SWAP1 SSTORE SWAP1 PUSH2 0x6A8 JUMP JUMPDEST PUSH4 0x4E487B71 PUSH1 0xE0 SHL DUP8 MSTORE PUSH1 0x11 PUSH1 0x4 MSTORE PUSH1 0x24 DUP8 REVERT JUMPDEST POP PUSH1 0x1 PUSH1 0x1 PUSH1 0x80 SHL SUB PUSH1 0x4 DUP5 ADD SLOAD AND ISZERO ISZERO PUSH2 0x6A3 JUMP JUMPDEST DUP2 DUP1 PUSH1 0x80 SHL DIV PUSH1 0x1 PUSH1 0x80 SHL EQ OR ISZERO PUSH2 0x98A JUMPI PUSH2 0x9E0 PUSH1 0x1 PUSH1 0x1 PUSH1 0x80 SHL SUB PUSH1 0x4 DUP7 ADD SLOAD AND DUP3 PUSH1 0x80 SHL PUSH2 0x3148 JUMP JUMPDEST PUSH2 0x9EF PUSH1 0x5 DUP7 ADD SWAP2 DUP3 SLOAD PUSH2 0x3128 JUMP JUMPDEST SWAP1 SSTORE PUSH2 0xA00 PUSH1 0x7 DUP6 ADD SWAP2 DUP3 SLOAD PUSH2 0x3128 JUMP JUMPDEST SWAP1 SSTORE CODESIZE DUP1 PUSH2 0x698 JUMP JUMPDEST POP PUSH1 0x1 PUSH1 0x1 PUSH1 0x80 SHL SUB PUSH1 0x4 DUP7 ADD SLOAD AND ISZERO ISZERO PUSH2 0x693 JUMP JUMPDEST POP POP DUP6 SWAP1 PUSH2 0x689 JUMP JUMPDEST POP POP DUP6 SWAP1 PUSH2 0x675 JUMP JUMPDEST SWAP1 POP PUSH2 0xA55 SWAP2 POP PUSH1 0x40 RETURNDATASIZE PUSH1 0x40 GT PUSH2 0xA5C JUMPI JUMPDEST PUSH2 0xA4D DUP2 DUP4 PUSH2 0x2FC7 JUMP JUMPDEST DUP2 ADD SWAP1 PUSH2 0x3405 JUMP JUMPDEST SWAP1 CODESIZE PUSH2 0x660 JUMP JUMPDEST POP RETURNDATASIZE PUSH2 0xA43 JUMP JUMPDEST PUSH1 0x40 MLOAD RETURNDATASIZE DUP9 DUP3 RETURNDATACOPY RETURNDATASIZE SWAP1 REVERT JUMPDEST SWAP1 POP PUSH2 0xA8A SWAP2 SWAP3 POP PUSH1 0x40 RETURNDATASIZE PUSH1 0x40 GT PUSH2 0xA5C JUMPI PUSH2 0xA4D DUP2 DUP4 PUSH2 0x2FC7 JUMP JUMPDEST SWAP2 SWAP1 CODESIZE PUSH2 0x5D0 JUMP JUMPDEST PUSH4 0x4E487B71 PUSH1 0xE0 SHL PUSH1 0x0 MSTORE PUSH1 0x41 PUSH1 0x4 MSTORE PUSH1 0x24 PUSH1 0x0 REVERT JUMPDEST PUSH4 0x4E487B71 PUSH1 0xE0 SHL DUP5 MSTORE PUSH1 0x11 PUSH1 0x4 MSTORE PUSH1 0x24 DUP5 REVERT JUMPDEST PUSH1 0x40 MLOAD PUSH3 0x461BCD PUSH1 0xE5 SHL DUP2 MSTORE PUSH1 0x20 PUSH1 0x4 DUP3 ADD MSTORE PUSH1 0xC PUSH1 0x24 DUP3 ADD MSTORE PUSH12 0x1A5B9CDD59999A58DA595B9D PUSH1 0xA2 SHL PUSH1 0x44 DUP3 ADD MSTORE PUSH1 0x64 SWAP1 REVERT JUMPDEST POP PUSH1 0x1 PUSH1 0x1 PUSH1 0x80 SHL SUB PUSH1 0x24 CALLDATALOAD AND ISZERO ISZERO PUSH2 0x4D6 JUMP JUMPDEST PUSH1 0x40 MLOAD PUSH3 0x461BCD PUSH1 0xE5 SHL DUP2 MSTORE PUSH1 0x20 PUSH1 0x4 DUP3 ADD MSTORE PUSH1 0xB PUSH1 0x24 DUP3 ADD MSTORE PUSH11 0x2737903837B9B4BA34B7B7 PUSH1 0xA9 SHL PUSH1 0x44 DUP3 ADD MSTORE PUSH1 0x64 SWAP1 REVERT JUMPDEST POP CALLVALUE PUSH2 0x228 JUMPI PUSH1 0x60 CALLDATASIZE PUSH1 0x3 NOT ADD SLT PUSH2 0x228 JUMPI PUSH1 0x4 CALLDATALOAD PUSH1 0x24 CALLDATALOAD PUSH1 0x44 CALLDATALOAD SWAP2 PUSH2 0xB67 PUSH1 0x1 DUP1 PUSH1 0xA0 SHL SUB DUP6 SLOAD AND CALLER EQ PUSH2 0x3241 JUMP JUMPDEST PUSH2 0xBB8 DUP1 DUP3 GT ISZERO SWAP1 DUP2 PUSH2 0xC00 JUMPI JUMPDEST DUP2 PUSH2 0xBF5 JUMPI JUMPDEST POP ISZERO PUSH2 0xBC6 JUMPI PUSH32 0xCF8A1E1D5F09CF3C97DBB653CD9A4D7AACE9292FBC1BB8211FEBF2D400FEBBDD SWAP3 PUSH1 0x60 SWAP3 DUP3 PUSH1 0x1 SSTORE DUP1 PUSH1 0x2 SSTORE DUP2 PUSH1 0x3 SSTORE PUSH1 0x40 MLOAD SWAP3 DUP4 MSTORE PUSH1 0x20 DUP4 ADD MSTORE PUSH1 0x40 DUP3 ADD MSTORE LOG1 DUP1 RETURN JUMPDEST PUSH1 0x40 MLOAD PUSH3 0x461BCD PUSH1 0xE5 SHL DUP2 MSTORE PUSH1 0x20 PUSH1 0x4 DUP3 ADD MSTORE PUSH1 0x7 PUSH1 0x24 DUP3 ADD MSTORE PUSH7 0xCCCACA7CDAC2F PUSH1 0xCB SHL PUSH1 0x44 DUP3 ADD MSTORE PUSH1 0x64 SWAP1 REVERT JUMPDEST SWAP1 POP DUP4 GT ISZERO CODESIZE PUSH2 0xB7B JUMP JUMPDEST DUP1 DUP5 GT ISZERO SWAP2 POP PUSH2 0xB75 JUMP JUMPDEST POP CALLVALUE PUSH2 0x228 JUMPI DUP1 PUSH1 0x3 NOT CALLDATASIZE ADD SLT PUSH2 0x228 JUMPI PUSH1 0x7 SLOAD PUSH1 0x40 MLOAD PUSH1 0x1 PUSH1 0x1 PUSH1 0xA0 SHL SUB SWAP1 SWAP2 AND DUP2 MSTORE PUSH1 0x20 SWAP1 RETURN JUMPDEST POP CALLVALUE PUSH2 0x228 JUMPI PUSH1 0x20 CALLDATASIZE PUSH1 0x3 NOT ADD SLT PUSH2 0x228 JUMPI PUSH1 0x1 PUSH1 0x1 PUSH1 0xA0 SHL SUB SWAP1 PUSH1 0x40 SWAP1 DUP3 PUSH2 0xC5B PUSH2 0x2EC5 JUMP JUMPDEST AND DUP2 MSTORE PUSH1 0x6 PUSH1 0x20 MSTORE KECCAK256 SLOAD SWAP1 PUSH2 0xC95 PUSH1 0x40 MLOAD SWAP3 DUP4 SWAP3 PUSH1 0xFF DUP3 PUSH1 0xA0 SHR AND SWAP2 AND DUP4 SWAP1 SWAP3 SWAP2 PUSH1 0x20 SWAP1 PUSH1 0x40 DUP4 ADD SWAP5 PUSH1 0x1 DUP1 PUSH1 0xA0 SHL SUB AND DUP4 MSTORE ISZERO ISZERO SWAP2 ADD MSTORE JUMP JUMPDEST SUB SWAP1 RETURN JUMPDEST POP CALLVALUE PUSH2 0x228 JUMPI PUSH1 0x20 DUP1 PUSH1 0x3 NOT CALLDATASIZE ADD SLT PUSH2 0xDA9 JUMPI PUSH1 0x4 CALLDATALOAD PUSH1 0x1 PUSH1 0x1 PUSH1 0x40 SHL SUB DUP2 GT PUSH2 0xDA5 JUMPI PUSH2 0xCCB SWAP1 CALLDATASIZE SWAP1 PUSH1 0x4 ADD PUSH2 0x2F32 JUMP JUMPDEST SWAP3 PUSH2 0xCD5 DUP5 PUSH2 0x33EE JUMP JUMPDEST SWAP4 PUSH2 0xCE3 PUSH1 0x40 MLOAD SWAP6 DUP7 PUSH2 0x2FC7 JUMP JUMPDEST DUP1 DUP6 MSTORE PUSH2 0xCEF DUP2 PUSH2 0x33EE JUMP JUMPDEST DUP6 DUP6 ADD SWAP4 SWAP1 PUSH1 0x1F NOT ADD CALLDATASIZE DUP6 CALLDATACOPY DUP3 JUMPDEST DUP3 DUP2 LT PUSH2 0xD45 JUMPI POP POP POP PUSH1 0x40 MLOAD SWAP4 DUP4 DUP6 SWAP5 DUP6 ADD SWAP2 DUP2 DUP7 MSTORE MLOAD DUP1 SWAP3 MSTORE PUSH1 0x40 DUP6 ADD SWAP4 SWAP3 JUMPDEST DUP3 DUP2 LT PUSH2 0xD2E JUMPI POP POP POP POP SUB SWAP1 RETURN JUMPDEST DUP4 MLOAD DUP6 MSTORE DUP7 SWAP6 POP SWAP4 DUP2 ADD SWAP4 SWAP3 DUP2 ADD SWAP3 PUSH1 0x1 ADD PUSH2 0xD1F JUMP JUMPDEST SWAP3 SWAP6 SWAP4 SWAP5 SWAP3 PUSH1 0x1 PUSH1 0x1 PUSH1 0xA0 SHL SUB PUSH2 0xD65 PUSH2 0xD60 DUP4 DUP7 DUP7 PUSH2 0x33D1 JUMP JUMPDEST PUSH2 0x338E JUMP JUMPDEST AND DUP8 MSTORE PUSH1 0x9 DUP5 MSTORE PUSH1 0x40 DUP8 KECCAK256 SLOAD DUP6 MLOAD DUP3 LT ISZERO PUSH2 0xD91 JUMPI PUSH1 0x5 DUP3 SWAP1 SHL DUP7 ADD DUP6 ADD MSTORE SWAP4 SWAP6 SWAP3 SWAP5 SWAP4 PUSH1 0x1 ADD PUSH2 0xCFD JUMP JUMPDEST PUSH4 0x4E487B71 PUSH1 0xE0 SHL DUP9 MSTORE PUSH1 0x32 PUSH1 0x4 MSTORE PUSH1 0x24 DUP9 REVERT JUMPDEST DUP3 DUP1 REVERT JUMPDEST POP DUP1 REVERT JUMPDEST POP CALLVALUE PUSH2 0x228 JUMPI DUP1 PUSH1 0x3 NOT CALLDATASIZE ADD SLT PUSH2 0x228 JUMPI PUSH1 0x20 PUSH1 0x1 SLOAD PUSH1 0x40 MLOAD SWAP1 DUP2 MSTORE RETURN JUMPDEST POP CALLVALUE PUSH2 0x228 JUMPI PUSH1 0x40 CALLDATASIZE PUSH1 0x3 NOT ADD SLT PUSH2 0x228 JUMPI PUSH1 0x4 CALLDATALOAD PUSH1 0x2 PUSH2 0xE25 PUSH2 0xDED PUSH2 0x2EE0 JUMP JUMPDEST DUP5 SLOAD PUSH1 0x1 PUSH1 0x1 PUSH1 0xA0 SHL SUB SWAP2 SWAP1 PUSH2 0xE06 SWAP1 DUP4 AND CALLER EQ PUSH2 0x3241 JUMP JUMPDEST PUSH2 0xE13 PUSH1 0x4 SLOAD DUP7 LT PUSH2 0x3324 JUMP JUMPDEST AND SWAP3 PUSH2 0xE20 DUP5 ISZERO ISZERO PUSH2 0x32F2 JUMP JUMPDEST PUSH2 0x2FE8 JUMP JUMPDEST POP ADD DUP1 SLOAD PUSH1 0x1 PUSH1 0x1 PUSH1 0xA0 SHL SUB NOT AND SWAP1 SWAP2 OR SWAP1 SSTORE DUP1 RETURN JUMPDEST POP CALLVALUE PUSH2 0x228 JUMPI PUSH1 0x60 CALLDATASIZE PUSH1 0x3 NOT ADD SLT PUSH2 0x228 JUMPI PUSH2 0xE55 PUSH2 0x2EC5 JUMP JUMPDEST PUSH32 0xB1E022A6C9E0CAAE0845B9948CA9E00873FA3A4477FE51EF4F33D437C8155360 PUSH2 0xE7E PUSH2 0x2EE0 JUMP JUMPDEST PUSH2 0xE86 PUSH2 0x2F23 JUMP JUMPDEST SWAP1 PUSH2 0xEFE PUSH1 0x1 DUP1 PUSH1 0xA0 SHL SUB SWAP5 PUSH2 0xEA0 DUP7 DUP9 SLOAD AND CALLER EQ PUSH2 0x3241 JUMP JUMPDEST PUSH1 0x40 MLOAD SWAP1 PUSH2 0xEAD DUP3 PUSH2 0x2F7E JUMP JUMPDEST DUP4 DUP8 AND DUP3 MSTORE DUP5 ISZERO ISZERO PUSH1 0x20 DUP1 DUP5 ADD SWAP2 DUP3 MSTORE SWAP2 DUP9 AND DUP1 DUP11 MSTORE PUSH1 0x6 SWAP1 SWAP3 MSTORE PUSH1 0x40 DUP10 KECCAK256 SWAP3 MLOAD DUP4 SLOAD SWAP2 MLOAD PUSH1 0xFF PUSH1 0xA0 SHL NOT SWAP2 SWAP1 SWAP10 AND AND PUSH1 0x1 PUSH1 0x1 PUSH1 0xA8 SHL SUB NOT SWAP1 SWAP2 AND OR SWAP7 ISZERO ISZERO PUSH1 0xA0 SHL PUSH1 0xFF PUSH1 0xA0 SHL AND SWAP7 SWAP1 SWAP7 OR SWAP1 SSTORE JUMP JUMPDEST PUSH1 0x40 DUP1 MLOAD PUSH1 0x1 PUSH1 0x1 PUSH1 0xA0 SHL SUB SWAP3 SWAP1 SWAP3 AND DUP3 MSTORE SWAP2 ISZERO ISZERO PUSH1 0x20 DUP3 ADD MSTORE LOG2 DUP1 RETURN JUMPDEST POP CALLVALUE PUSH2 0x228 JUMPI PUSH1 0x60 CALLDATASIZE PUSH1 0x3 NOT ADD SLT PUSH2 0x228 JUMPI PUSH1 0x1 PUSH1 0x1 PUSH1 0x40 SHL SUB PUSH1 0x4 CALLDATALOAD DUP2 DUP2 GT PUSH2 0xDA5 JUMPI PUSH2 0xF4E SWAP1 CALLDATASIZE SWAP1 PUSH1 0x4 ADD PUSH2 0x2F32 JUMP JUMPDEST PUSH1 0x24 SWAP3 SWAP2 SWAP3 CALLDATALOAD DUP3 DUP2 GT PUSH2 0x8C1 JUMPI PUSH2 0xF69 SWAP1 CALLDATASIZE SWAP1 PUSH1 0x4 ADD PUSH2 0x2F32 JUMP JUMPDEST SWAP3 PUSH1 0x44 CALLDATALOAD SWAP1 DUP2 GT PUSH2 0x10FE JUMPI PUSH2 0xF82 SWAP1 CALLDATASIZE SWAP1 PUSH1 0x4 ADD PUSH2 0x2F32 JUMP JUMPDEST SWAP1 SWAP4 PUSH1 0x1 DUP1 PUSH1 0xA0 SHL SUB SWAP4 PUSH2 0xF9A DUP6 DUP10 SLOAD AND CALLER EQ PUSH2 0x3241 JUMP JUMPDEST DUP2 DUP2 EQ DUP1 PUSH2 0x10F5 JUMPI JUMPDEST ISZERO PUSH2 0x10CA JUMPI DUP8 DUP1 JUMPDEST DUP3 DUP2 LT PUSH2 0xFB6 JUMPI POP DUP1 RETURN JUMPDEST DUP8 PUSH32 0xB1E022A6C9E0CAAE0845B9948CA9E00873FA3A4477FE51EF4F33D437C8155360 DUP9 DUP9 PUSH2 0x10BF PUSH2 0x1099 PUSH2 0x1025 DUP16 DUP13 PUSH2 0x1093 PUSH2 0xD60 DUP12 DUP16 DUP16 PUSH1 0x1 SWAP16 DUP4 DUP16 SWAP3 DUP2 SWAP10 DUP16 DUP16 SWAP6 PUSH2 0xD60 SWAP6 PUSH2 0x1088 SWAP3 PUSH1 0x40 PUSH2 0x102A DUP16 DUP10 PUSH2 0x1025 SWAP2 PUSH2 0x101F DUP16 PUSH2 0x108D SWAP16 PUSH2 0xD60 SWAP2 DUP6 SWAP2 PUSH2 0x33D1 JUMP JUMPDEST SWAP8 PUSH2 0x33D1 JUMP JUMPDEST PUSH2 0x33E1 JUMP JUMPDEST SWAP3 DUP3 DUP3 MLOAD SWAP6 PUSH2 0x1038 DUP8 PUSH2 0x2F7E JUMP JUMPDEST AND DUP6 MSTORE PUSH1 0x6 PUSH1 0x20 DUP1 DUP8 ADD SWAP6 ISZERO ISZERO DUP7 MSTORE DUP5 PUSH2 0x1056 PUSH2 0xD60 DUP14 DUP14 DUP14 PUSH2 0x33D1 JUMP JUMPDEST AND DUP4 MSTORE MSTORE KECCAK256 SWAP3 MLOAD DUP4 SLOAD SWAP3 MLOAD PUSH1 0xFF PUSH1 0xA0 SHL SWAP1 ISZERO ISZERO PUSH1 0xA0 SHL AND PUSH1 0x1 PUSH1 0x1 PUSH1 0xA8 SHL SUB NOT SWAP1 SWAP4 AND SWAP2 AND PUSH1 0xFF PUSH1 0xA0 SHL NOT AND OR OR SWAP1 SSTORE JUMP JUMPDEST PUSH2 0x33D1 JUMP JUMPDEST SWAP10 PUSH2 0x33D1 JUMP JUMPDEST SWAP9 PUSH2 0x33D1 JUMP JUMPDEST PUSH1 0x40 DUP1 MLOAD PUSH1 0x1 PUSH1 0x1 PUSH1 0xA0 SHL SUB SWAP1 SWAP8 AND DUP8 MSTORE SWAP1 ISZERO ISZERO PUSH1 0x20 DUP8 ADD MSTORE SWAP2 SWAP1 SWAP3 AND SWAP4 SWAP2 DUP3 SWAP2 DUP3 ADD SWAP1 JUMP JUMPDEST SUB SWAP1 LOG2 ADD DUP9 SWAP1 PUSH2 0xFAB JUMP JUMPDEST PUSH1 0x40 MLOAD PUSH3 0x461BCD PUSH1 0xE5 SHL DUP2 MSTORE PUSH1 0x20 PUSH1 0x4 DUP3 ADD MSTORE PUSH1 0x3 PUSH1 0x24 DUP3 ADD MSTORE PUSH3 0x3632B7 PUSH1 0xE9 SHL PUSH1 0x44 DUP3 ADD MSTORE PUSH1 0x64 SWAP1 REVERT JUMPDEST POP DUP3 DUP2 EQ PUSH2 0xFA3 JUMP JUMPDEST DUP6 DUP1 REVERT JUMPDEST POP CALLVALUE PUSH2 0x228 JUMPI PUSH1 0x20 CALLDATASIZE PUSH1 0x3 NOT ADD SLT PUSH2 0x228 JUMPI PUSH32 0x9E159816E18CE3A800CA4A3BAE66B033044292BCDC1ADF244F5174B09ED7E8A1 PUSH1 0x20 PUSH2 0x113F PUSH2 0x2EC5 JUMP JUMPDEST DUP4 SLOAD PUSH1 0x1 PUSH1 0x1 PUSH1 0xA0 SHL SUB SWAP2 SWAP1 PUSH2 0x1158 SWAP1 DUP4 AND CALLER EQ PUSH2 0x3241 JUMP JUMPDEST AND DUP1 PUSH1 0x1 PUSH1 0x1 PUSH1 0x60 SHL SUB PUSH1 0xA0 SHL PUSH1 0x8 SLOAD AND OR PUSH1 0x8 SSTORE PUSH1 0x40 MLOAD SWAP1 DUP2 MSTORE LOG1 DUP1 RETURN JUMPDEST POP CALLVALUE PUSH2 0x228 JUMPI DUP1 PUSH1 0x3 NOT CALLDATASIZE ADD SLT PUSH2 0x228 JUMPI SLOAD PUSH1 0x40 MLOAD PUSH1 0x1 PUSH1 0x1 PUSH1 0xA0 SHL SUB SWAP1 SWAP2 AND DUP2 MSTORE PUSH1 0x20 SWAP1 RETURN JUMPDEST POP CALLVALUE PUSH2 0x228 JUMPI DUP1 PUSH1 0x3 NOT CALLDATASIZE ADD SLT PUSH2 0x228 JUMPI PUSH1 0x20 PUSH1 0x4 SLOAD PUSH1 0x40 MLOAD SWAP1 DUP2 MSTORE RETURN JUMPDEST POP CALLVALUE PUSH2 0x228 JUMPI PUSH2 0x1A0 CALLDATASIZE PUSH1 0x3 NOT ADD SLT PUSH2 0x228 JUMPI PUSH1 0x80 CALLDATASIZE PUSH1 0x23 NOT ADD SLT PUSH2 0x228 JUMPI PUSH1 0xA4 CALLDATALOAD PUSH1 0x1 PUSH1 0x1 PUSH1 0x40 SHL SUB DUP2 GT PUSH2 0xDA9 JUMPI PUSH2 0x11FA SWAP1 CALLDATASIZE SWAP1 PUSH1 0x4 ADD PUSH2 0x2EF6 JUMP JUMPDEST SWAP1 PUSH1 0x80 CALLDATASIZE PUSH1 0xC3 NOT ADD SLT PUSH2 0xDA5 JUMPI PUSH2 0x144 CALLDATALOAD PUSH1 0x1 PUSH1 0x1 PUSH1 0x40 SHL SUB DUP2 GT PUSH2 0x834 JUMPI PUSH2 0x1227 SWAP1 CALLDATASIZE SWAP1 PUSH1 0x4 ADD PUSH2 0x2EF6 JUMP JUMPDEST SWAP1 PUSH2 0x1239 PUSH1 0xFF DUP7 SLOAD PUSH1 0xA0 SHR AND ISZERO PUSH2 0x3359 JUMP JUMPDEST PUSH2 0x1248 PUSH1 0x4 SLOAD PUSH1 0x4 CALLDATALOAD LT PUSH2 0x3324 JUMP JUMPDEST PUSH2 0x1253 PUSH1 0x4 CALLDATALOAD PUSH2 0x2FE8 JUMP JUMPDEST POP SWAP4 PUSH1 0xA DUP6 ADD SLOAD PUSH1 0xFF DUP2 AND SWAP1 DUP2 PUSH2 0x1E61 JUMPI JUMPDEST POP ISZERO PUSH2 0x1E2C JUMPI PUSH1 0x24 CALLDATALOAD SWAP4 PUSH1 0x1 PUSH1 0x1 PUSH1 0xA0 SHL SUB DUP6 AND DUP6 SUB PUSH2 0x1E28 JUMPI DUP6 SLOAD PUSH1 0x1 PUSH1 0x1 PUSH1 0xA0 SHL SUB SWAP1 DUP2 AND SWAP1 DUP7 AND SUB PUSH2 0x1DF1 JUMPI PUSH1 0xC4 CALLDATALOAD SWAP5 PUSH1 0x1 PUSH1 0x1 PUSH1 0xA0 SHL SUB DUP7 AND DUP7 SUB PUSH2 0x1DED JUMPI PUSH1 0x1 DUP8 ADD SLOAD PUSH1 0x1 PUSH1 0x1 PUSH1 0xA0 SHL SUB SWAP1 DUP2 AND SWAP1 DUP8 AND SUB PUSH2 0x1DB6 JUMPI PUSH1 0x44 CALLDATALOAD ISZERO ISZERO DUP1 PUSH2 0x1DAB JUMPI JUMPDEST ISZERO PUSH2 0x1D78 JUMPI DUP8 SWAP2 PUSH1 0x40 MLOAD SWAP2 PUSH2 0x12DF DUP4 PUSH2 0x2F7E JUMP JUMPDEST ADDRESS DUP4 MSTORE PUSH1 0x44 CALLDATALOAD PUSH1 0x20 DUP5 ADD MSTORE PUSH15 0x22D473030F116DDEE9F6B43AC78BA3 EXTCODESIZE ISZERO PUSH2 0x834 JUMPI DUP5 PUSH1 0x20 SWAP6 PUSH2 0x124 SWAP4 PUSH1 0x40 MLOAD SWAP8 DUP9 SWAP7 DUP8 SWAP6 PUSH4 0x187945BD PUSH1 0xE1 SHL DUP8 MSTORE PUSH1 0x1 DUP1 PUSH1 0xA0 SHL SUB AND PUSH1 0x4 DUP8 ADD MSTORE PUSH1 0x44 CALLDATALOAD PUSH1 0x24 DUP8 ADD MSTORE PUSH1 0x64 CALLDATALOAD PUSH1 0x44 DUP8 ADD MSTORE PUSH1 0x84 CALLDATALOAD PUSH1 0x64 DUP8 ADD MSTORE PUSH1 0x1 DUP1 PUSH1 0xA0 SHL SUB DUP2 MLOAD AND PUSH1 0x84 DUP8 ADD MSTORE ADD MLOAD PUSH1 0xA4 DUP6 ADD MSTORE CALLER PUSH1 0xC4 DUP6 ADD MSTORE PUSH2 0x100 PUSH1 0xE4 DUP6 ADD MSTORE DUP2 PUSH2 0x104 DUP6 ADD MSTORE DUP5 DUP5 ADD CALLDATACOPY DUP2 DUP2 ADD DUP4 ADD DUP6 SWAP1 MSTORE PUSH1 0x1F ADD PUSH1 0x1F NOT AND DUP2 ADD SUB ADD DUP2 DUP4 PUSH15 0x22D473030F116DDEE9F6B43AC78BA3 GAS CALL DUP1 ISZERO PUSH2 0xA63 JUMPI PUSH2 0x1D61 JUMPI JUMPDEST POP PUSH1 0x40 MLOAD DUP6 SWAP4 SWAP3 SWAP2 PUSH2 0x13B1 DUP3 PUSH2 0x2F7E JUMP JUMPDEST ADDRESS DUP3 MSTORE PUSH1 0xE4 CALLDATALOAD PUSH1 0x20 DUP4 ADD MSTORE PUSH15 0x22D473030F116DDEE9F6B43AC78BA3 EXTCODESIZE ISZERO PUSH2 0x8C1 JUMPI PUSH1 0x20 SWAP4 DUP4 DUP7 SWAP5 PUSH2 0x124 SWAP4 PUSH1 0x40 MLOAD SWAP8 DUP9 SWAP7 DUP8 SWAP6 PUSH4 0x187945BD PUSH1 0xE1 SHL DUP8 MSTORE PUSH1 0x1 DUP1 PUSH1 0xA0 SHL SUB AND PUSH1 0x4 DUP8 ADD MSTORE PUSH1 0xE4 CALLDATALOAD PUSH1 0x24 DUP8 ADD MSTORE PUSH2 0x104 CALLDATALOAD PUSH1 0x44 DUP8 ADD MSTORE DUP7 CALLDATALOAD PUSH1 0x64 DUP8 ADD MSTORE PUSH1 0x1 DUP1 PUSH1 0xA0 SHL SUB DUP2 MLOAD AND PUSH1 0x84 DUP8 ADD MSTORE ADD MLOAD PUSH1 0xA4 DUP6 ADD MSTORE CALLER PUSH1 0xC4 DUP6 ADD MSTORE PUSH2 0x100 PUSH1 0xE4 DUP6 ADD MSTORE DUP2 PUSH2 0x104 DUP6 ADD MSTORE DUP5 DUP5 ADD CALLDATACOPY PUSH1 0x0 DUP3 DUP3 ADD DUP5 ADD MSTORE PUSH1 0x1F ADD PUSH1 0x1F NOT AND DUP2 ADD SUB ADD DUP2 DUP4 PUSH15 0x22D473030F116DDEE9F6B43AC78BA3 GAS CALL DUP1 ISZERO PUSH2 0x1D56 JUMPI PUSH2 0x1D42 JUMPI JUMPDEST POP POP PUSH1 0x1 SLOAD PUSH2 0x14BB PUSH2 0x14B2 PUSH2 0x2710 PUSH2 0x149C DUP2 PUSH2 0x1492 DUP7 PUSH1 0x44 CALLDATALOAD PUSH2 0x3135 JUMP JUMPDEST DIV SWAP5 PUSH1 0xE4 CALLDATALOAD PUSH2 0x3135 JUMP JUMPDEST DIV SWAP3 DUP1 PUSH2 0x1D18 JUMPI JUMPDEST DUP4 PUSH2 0x1CEB JUMPI JUMPDEST PUSH1 0x44 CALLDATALOAD PUSH2 0x3105 JUMP JUMPDEST SWAP2 PUSH1 0xE4 CALLDATALOAD PUSH2 0x3105 JUMP JUMPDEST SWAP2 PUSH2 0x14C7 PUSH1 0x4 CALLDATALOAD PUSH2 0x3793 JUMP JUMPDEST PUSH2 0x14D3 CALLER PUSH1 0x4 CALLDATALOAD PUSH2 0x3958 JUMP JUMPDEST DUP1 SLOAD PUSH1 0x40 MLOAD PUSH4 0x95EA7B3 PUSH1 0xE0 SHL DUP2 MSTORE PUSH1 0x1 PUSH1 0x1 PUSH1 0xA0 SHL SUB PUSH32 0x0 DUP2 AND PUSH1 0x4 DUP4 ADD MSTORE PUSH1 0x24 DUP3 ADD DUP6 SWAP1 MSTORE SWAP1 SWAP2 PUSH1 0x20 SWAP2 DUP4 SWAP2 PUSH1 0x44 SWAP2 DUP4 SWAP2 DUP11 SWAP2 AND GAS CALL DUP1 ISZERO PUSH2 0x8CD JUMPI PUSH2 0x1CB2 JUMPI JUMPDEST POP PUSH1 0x1 DUP2 ADD SLOAD PUSH1 0x40 MLOAD PUSH4 0x95EA7B3 PUSH1 0xE0 SHL DUP2 MSTORE PUSH1 0x1 PUSH1 0x1 PUSH1 0xA0 SHL SUB PUSH32 0x0 DUP2 AND PUSH1 0x4 DUP4 ADD MSTORE PUSH1 0x24 DUP3 ADD DUP7 SWAP1 MSTORE SWAP1 SWAP2 PUSH1 0x20 SWAP2 DUP4 SWAP2 PUSH1 0x44 SWAP2 DUP4 SWAP2 DUP11 SWAP2 AND GAS CALL DUP1 ISZERO PUSH2 0x8CD JUMPI PUSH2 0x1C79 JUMPI JUMPDEST POP PUSH1 0x3 DUP2 ADD SLOAD DUP1 PUSH2 0x1B30 JUMPI POP PUSH1 0x1 DUP1 PUSH1 0xA0 SHL SUB DUP2 SLOAD AND SWAP2 PUSH1 0x1 DUP3 ADD SLOAD PUSH2 0x258 TIMESTAMP ADD TIMESTAMP GT PUSH2 0x1B1C JUMPI PUSH1 0x40 MLOAD SWAP4 DUP5 PUSH2 0x160 DUP2 ADD LT PUSH1 0x1 PUSH1 0x1 PUSH1 0x40 SHL SUB PUSH2 0x160 DUP8 ADD GT OR PUSH2 0xA92 JUMPI PUSH2 0x160 DUP6 ADD PUSH1 0x40 MSTORE DUP5 MSTORE PUSH1 0x1 DUP1 PUSH1 0xA0 SHL SUB DUP2 AND PUSH1 0x20 DUP6 ADD MSTORE PUSH3 0xFFFFFF DUP2 PUSH1 0xA0 SHR AND PUSH1 0x40 DUP6 ADD MSTORE DUP1 PUSH1 0xB8 SHR PUSH1 0x2 SIGNEXTEND PUSH1 0x60 DUP6 ADD MSTORE PUSH1 0xD0 SHR PUSH1 0x2 SIGNEXTEND PUSH1 0x80 DUP5 ADD MSTORE DUP1 PUSH1 0xA0 DUP5 ADD MSTORE DUP4 PUSH1 0xC0 DUP5 ADD MSTORE PUSH2 0x164 CALLDATALOAD PUSH1 0xE0 DUP5 ADD MSTORE PUSH2 0x184 CALLDATALOAD PUSH2 0x100 DUP5 ADD MSTORE ADDRESS PUSH2 0x120 DUP5 ADD MSTORE PUSH2 0x258 TIMESTAMP ADD PUSH2 0x140 DUP5 ADD MSTORE PUSH2 0x140 PUSH1 0x40 MLOAD SWAP4 PUSH4 0x4418B22B PUSH1 0xE1 SHL DUP6 MSTORE PUSH1 0x1 DUP1 PUSH1 0xA0 SHL SUB DUP2 MLOAD AND PUSH1 0x4 DUP7 ADD MSTORE PUSH1 0x1 DUP1 PUSH1 0xA0 SHL SUB PUSH1 0x20 DUP3 ADD MLOAD AND PUSH1 0x24 DUP7 ADD MSTORE PUSH3 0xFFFFFF PUSH1 0x40 DUP3 ADD MLOAD AND PUSH1 0x44 DUP7 ADD MSTORE PUSH1 0x60 DUP2 ADD MLOAD PUSH1 0x2 SIGNEXTEND PUSH1 0x64 DUP7 ADD MSTORE PUSH1 0x80 DUP2 ADD MLOAD PUSH1 0x2 SIGNEXTEND PUSH1 0x84 DUP7 ADD MSTORE PUSH1 0xA0 DUP2 ADD MLOAD PUSH1 0xA4 DUP7 ADD MSTORE PUSH1 0xC0 DUP2 ADD MLOAD PUSH1 0xC4 DUP7 ADD MSTORE PUSH1 0xE0 DUP2 ADD MLOAD PUSH1 0xE4 DUP7 ADD MSTORE PUSH2 0x100 DUP2 ADD MLOAD PUSH2 0x104 DUP7 ADD MSTORE PUSH1 0x1 DUP1 PUSH1 0xA0 SHL SUB PUSH2 0x120 DUP3 ADD MLOAD AND PUSH2 0x124 DUP7 ADD MSTORE ADD MLOAD PUSH2 0x144 DUP5 ADD MSTORE DUP5 PUSH1 0x80 DUP5 PUSH2 0x164 DUP2 DUP5 PUSH1 0x1 DUP1 PUSH1 0xA0 SHL SUB PUSH32 0x0 AND GAS CALL SWAP5 DUP6 ISZERO PUSH2 0x1B0F JUMPI DUP2 DUP3 SWAP1 DUP4 SWAP7 DUP5 SWAP9 PUSH2 0x1ABA JUMPI JUMPDEST POP PUSH1 0x3 DUP7 ADD SSTORE TIMESTAMP PUSH1 0x9 DUP7 ADD SSTORE SWAP5 SWAP6 SWAP3 DUP3 SWAP1 JUMPDEST DUP6 SLOAD PUSH1 0x40 MLOAD PUSH4 0x95EA7B3 PUSH1 0xE0 SHL DUP2 MSTORE PUSH1 0x1 PUSH1 0x1 PUSH1 0xA0 SHL SUB PUSH32 0x0 DUP2 AND PUSH1 0x4 DUP4 ADD MSTORE PUSH1 0x24 DUP3 ADD DUP6 SWAP1 MSTORE SWAP1 SWAP4 PUSH1 0x20 SWAP3 DUP6 SWAP3 PUSH1 0x44 SWAP3 DUP5 SWAP3 SWAP1 SWAP2 AND GAS CALL SWAP2 DUP3 ISZERO PUSH2 0x840 JUMPI DUP5 SWAP3 PUSH2 0x1A7E JUMPI JUMPDEST POP PUSH1 0x1 DUP7 ADD SLOAD PUSH1 0x40 MLOAD PUSH4 0x95EA7B3 PUSH1 0xE0 SHL DUP2 MSTORE PUSH1 0x1 PUSH1 0x1 PUSH1 0xA0 SHL SUB PUSH32 0x0 DUP2 AND PUSH1 0x4 DUP4 ADD MSTORE PUSH1 0x24 DUP3 ADD DUP6 SWAP1 MSTORE SWAP1 SWAP4 PUSH1 0x20 SWAP3 DUP6 SWAP3 PUSH1 0x44 SWAP3 DUP5 SWAP3 SWAP1 SWAP2 AND GAS CALL SWAP2 DUP3 ISZERO PUSH2 0x840 JUMPI DUP5 SWAP3 PUSH2 0x1A42 JUMPI JUMPDEST POP DUP1 DUP9 LT PUSH2 0x19CA JUMPI JUMPDEST POP POP DUP1 DUP4 LT PUSH2 0x1908 JUMPI JUMPDEST POP POP PUSH2 0x7BC SWAP1 DUP3 PUSH1 0x2 PUSH2 0x18D6 PUSH1 0x4 PUSH32 0xD035BBB356DC2D49407AD7D5504BEF047B7E535C2BFE666F714BC97C40CC0AE6 SWAP7 ADD SWAP3 PUSH1 0x6 DUP5 SLOAD SWAP2 PUSH1 0x1 PUSH1 0x1 PUSH1 0x80 SHL SUB SWAP6 DUP7 PUSH2 0x1876 DUP13 DUP3 DUP8 AND PUSH2 0x33B6 JUMP JUMPDEST AND PUSH1 0x1 PUSH1 0x1 PUSH1 0x80 SHL SUB NOT DUP1 SWAP6 AND OR SWAP1 SSTORE PUSH1 0x4 CALLDATALOAD DUP13 MSTORE PUSH1 0x5 PUSH1 0x20 MSTORE PUSH1 0x40 DUP13 KECCAK256 CALLER PUSH1 0x0 MSTORE PUSH1 0x20 MSTORE PUSH1 0x40 PUSH1 0x0 KECCAK256 SWAP6 DUP7 SLOAD SWAP1 PUSH2 0x18B0 DUP13 DUP3 DUP5 AND PUSH2 0x33B6 JUMP JUMPDEST AND SWAP4 DUP5 SWAP2 AND OR DUP7 SSTORE PUSH2 0x18C6 PUSH1 0x5 DUP3 ADD SLOAD DUP5 PUSH2 0x3135 JUMP JUMPDEST PUSH1 0x80 SHR PUSH1 0x1 DUP8 ADD SSTORE ADD SLOAD SWAP1 PUSH2 0x3135 JUMP JUMPDEST PUSH1 0x80 SHR SWAP2 ADD SSTORE PUSH1 0x40 MLOAD SWAP2 DUP3 SWAP2 PUSH1 0x4 CALLDATALOAD SWAP7 CALLER SWAP7 DUP5 PUSH1 0x40 SWAP2 SWAP5 SWAP4 SWAP3 PUSH1 0x1 PUSH1 0x1 PUSH1 0x80 SHL SUB PUSH1 0x60 DUP4 ADD SWAP7 AND DUP3 MSTORE PUSH1 0x20 DUP3 ADD MSTORE ADD MSTORE JUMP JUMPDEST PUSH1 0x1 DUP5 ADD SLOAD PUSH1 0x20 SWAP2 PUSH2 0x1953 SWAP2 PUSH1 0x1 PUSH1 0x1 PUSH1 0xA0 SHL SUB AND SWAP1 PUSH2 0x1929 SWAP1 DUP7 SWAP1 PUSH2 0x3105 JUMP JUMPDEST PUSH1 0x40 MLOAD PUSH4 0xA9059CBB PUSH1 0xE0 SHL DUP2 MSTORE CALLER PUSH1 0x4 DUP3 ADD MSTORE PUSH1 0x24 DUP2 ADD SWAP2 SWAP1 SWAP2 MSTORE SWAP4 DUP5 SWAP3 DUP4 SWAP2 SWAP1 DUP3 SWAP1 PUSH1 0x44 DUP3 ADD SWAP1 JUMP JUMPDEST SUB SWAP3 GAS CALL DUP1 ISZERO PUSH2 0xA63 JUMPI PUSH2 0x1969 JUMPI JUMPDEST DUP6 SWAP1 PUSH2 0x1829 JUMP JUMPDEST SWAP1 PUSH1 0x20 DUP3 RETURNDATASIZE PUSH1 0x20 GT PUSH2 0x19C2 JUMPI JUMPDEST DUP2 PUSH2 0x1983 PUSH1 0x20 SWAP4 DUP4 PUSH2 0x2FC7 JUMP JUMPDEST DUP2 ADD SUB SLT PUSH2 0x10FE JUMPI PUSH32 0xD035BBB356DC2D49407AD7D5504BEF047B7E535C2BFE666F714BC97C40CC0AE6 SWAP3 PUSH2 0x19B9 PUSH2 0x7BC SWAP4 PUSH2 0x32AF JUMP JUMPDEST POP SWAP3 POP SWAP1 PUSH2 0x1962 JUMP JUMPDEST RETURNDATASIZE SWAP2 POP PUSH2 0x1976 JUMP JUMPDEST DUP6 SLOAD PUSH1 0x20 SWAP2 PUSH2 0x19E8 SWAP2 PUSH1 0x1 PUSH1 0x1 PUSH1 0xA0 SHL SUB AND SWAP1 PUSH2 0x1929 SWAP1 DUP12 SWAP1 PUSH2 0x3105 JUMP JUMPDEST SUB SWAP3 GAS CALL DUP1 ISZERO PUSH2 0x1A37 JUMPI PUSH2 0x19FE JUMPI JUMPDEST DUP3 SWAP1 PUSH2 0x181F JUMP JUMPDEST PUSH1 0x20 DUP2 RETURNDATASIZE PUSH1 0x20 GT PUSH2 0x1A2F JUMPI JUMPDEST DUP2 PUSH2 0x1A17 PUSH1 0x20 SWAP4 DUP4 PUSH2 0x2FC7 JUMP JUMPDEST DUP2 ADD SUB SLT PUSH2 0xDA5 JUMPI PUSH2 0x1A28 SWAP1 PUSH2 0x32AF JUMP JUMPDEST POP CODESIZE PUSH2 0x19F7 JUMP JUMPDEST RETURNDATASIZE SWAP2 POP PUSH2 0x1A0A JUMP JUMPDEST PUSH1 0x40 MLOAD RETURNDATASIZE DUP6 DUP3 RETURNDATACOPY RETURNDATASIZE SWAP1 REVERT JUMPDEST SWAP2 POP PUSH1 0x20 DUP3 RETURNDATASIZE PUSH1 0x20 GT PUSH2 0x1A76 JUMPI JUMPDEST DUP2 PUSH2 0x1A5D PUSH1 0x20 SWAP4 DUP4 PUSH2 0x2FC7 JUMP JUMPDEST DUP2 ADD SUB SLT PUSH2 0x834 JUMPI PUSH2 0x1A6F DUP5 SWAP3 PUSH2 0x32AF JUMP JUMPDEST POP CODESIZE PUSH2 0x1816 JUMP JUMPDEST RETURNDATASIZE SWAP2 POP PUSH2 0x1A50 JUMP JUMPDEST SWAP2 POP PUSH1 0x20 DUP3 RETURNDATASIZE PUSH1 0x20 GT PUSH2 0x1AB2 JUMPI JUMPDEST DUP2 PUSH2 0x1A99 PUSH1 0x20 SWAP4 DUP4 PUSH2 0x2FC7 JUMP JUMPDEST DUP2 ADD SUB SLT PUSH2 0x834 JUMPI PUSH2 0x1AAB DUP5 SWAP3 PUSH2 0x32AF JUMP JUMPDEST POP CODESIZE PUSH2 0x17AD JUMP JUMPDEST RETURNDATASIZE SWAP2 POP PUSH2 0x1A8C JUMP JUMPDEST SWAP8 POP POP POP SWAP4 POP POP PUSH1 0x80 DUP5 RETURNDATASIZE PUSH1 0x80 GT PUSH2 0x1B07 JUMPI JUMPDEST DUP2 PUSH2 0x1ADA PUSH1 0x80 SWAP4 DUP4 PUSH2 0x2FC7 JUMP JUMPDEST DUP2 ADD SUB SLT PUSH2 0x8C1 JUMPI DUP5 DUP5 MLOAD SWAP4 DUP2 PUSH2 0x1AF3 PUSH1 0x20 DUP9 ADD PUSH2 0x33A2 JUMP JUMPDEST PUSH1 0x40 DUP9 ADD MLOAD PUSH1 0x60 SWAP1 SWAP9 ADD MLOAD SWAP8 SWAP7 SWAP1 SWAP2 PUSH2 0x1736 JUMP JUMPDEST RETURNDATASIZE SWAP2 POP PUSH2 0x1ACD JUMP JUMPDEST POP PUSH1 0x40 MLOAD SWAP1 RETURNDATASIZE SWAP1 DUP3 RETURNDATACOPY RETURNDATASIZE SWAP1 REVERT JUMPDEST PUSH4 0x4E487B71 PUSH1 0xE0 SHL DUP7 MSTORE PUSH1 0x11 PUSH1 0x4 MSTORE PUSH1 0x24 DUP7 REVERT JUMPDEST SWAP2 PUSH2 0x258 TIMESTAMP ADD TIMESTAMP GT PUSH2 0x1C65 JUMPI PUSH1 0x40 MLOAD SWAP3 DUP4 PUSH1 0xC0 DUP2 ADD LT PUSH1 0x1 PUSH1 0x1 PUSH1 0x40 SHL SUB PUSH1 0xC0 DUP7 ADD GT OR PUSH2 0xA92 JUMPI PUSH1 0xC0 DUP5 ADD PUSH1 0x40 SWAP1 DUP2 MSTORE SWAP1 DUP5 MSTORE PUSH1 0x20 DUP5 ADD DUP3 DUP2 MSTORE DUP2 DUP6 ADD DUP7 DUP2 MSTORE PUSH2 0x164 CALLDATALOAD PUSH1 0x60 DUP1 DUP9 ADD SWAP2 DUP3 MSTORE PUSH2 0x184 CALLDATALOAD PUSH1 0x80 DUP10 ADD SWAP1 DUP2 MSTORE TIMESTAMP PUSH2 0x258 ADD PUSH1 0xA0 DUP11 ADD SWAP1 DUP2 MSTORE SWAP6 MLOAD PUSH4 0x219F5D17 PUSH1 0xE0 SHL DUP2 MSTORE SWAP9 MLOAD PUSH1 0x4 DUP11 ADD MSTORE SWAP4 MLOAD PUSH1 0x24 DUP10 ADD MSTORE SWAP2 MLOAD PUSH1 0x44 DUP9 ADD MSTORE MLOAD PUSH1 0x64 DUP8 ADD MSTORE SWAP1 MLOAD PUSH1 0x84 DUP7 ADD MSTORE SWAP1 MLOAD PUSH1 0xA4 DUP6 ADD MSTORE DUP6 SWAP1 DUP5 PUSH1 0xC4 DUP2 DUP5 PUSH32 0x0 PUSH1 0x1 PUSH1 0x1 PUSH1 0xA0 SHL SUB AND GAS CALL SWAP5 DUP6 ISZERO PUSH2 0x1B0F JUMPI DUP2 DUP3 SWAP6 DUP4 SWAP8 PUSH2 0x1C18 JUMPI JUMPDEST POP DUP3 SWAP1 SWAP6 SWAP7 SWAP4 PUSH2 0x1748 JUMP JUMPDEST SWAP7 POP POP SWAP4 POP POP PUSH1 0x60 DUP5 RETURNDATASIZE PUSH1 0x60 GT PUSH2 0x1C5D JUMPI JUMPDEST DUP2 PUSH2 0x1C37 PUSH1 0x60 SWAP4 DUP4 PUSH2 0x2FC7 JUMP JUMPDEST DUP2 ADD SUB SLT PUSH2 0x8C1 JUMPI DUP5 PUSH2 0x1C49 DUP6 PUSH2 0x33A2 JUMP JUMPDEST PUSH1 0x20 DUP7 ADD MLOAD PUSH1 0x40 SWAP1 SWAP7 ADD MLOAD SWAP6 SWAP5 SWAP1 DUP3 PUSH2 0x1C0D JUMP JUMPDEST RETURNDATASIZE SWAP2 POP PUSH2 0x1C2A JUMP JUMPDEST PUSH4 0x4E487B71 PUSH1 0xE0 SHL DUP6 MSTORE PUSH1 0x11 PUSH1 0x4 MSTORE PUSH1 0x24 DUP6 REVERT JUMPDEST PUSH1 0x20 DUP2 RETURNDATASIZE PUSH1 0x20 GT PUSH2 0x1CAA JUMPI JUMPDEST DUP2 PUSH2 0x1C92 PUSH1 0x20 SWAP4 DUP4 PUSH2 0x2FC7 JUMP JUMPDEST DUP2 ADD SUB SLT PUSH2 0x8C1 JUMPI PUSH2 0x1CA3 SWAP1 PUSH2 0x32AF JUMP JUMPDEST POP CODESIZE PUSH2 0x159B JUMP JUMPDEST RETURNDATASIZE SWAP2 POP PUSH2 0x1C85 JUMP JUMPDEST PUSH1 0x20 DUP2 RETURNDATASIZE PUSH1 0x20 GT PUSH2 0x1CE3 JUMPI JUMPDEST DUP2 PUSH2 0x1CCB PUSH1 0x20 SWAP4 DUP4 PUSH2 0x2FC7 JUMP JUMPDEST DUP2 ADD SUB SLT PUSH2 0x8C1 JUMPI PUSH2 0x1CDC SWAP1 PUSH2 0x32AF JUMP JUMPDEST POP CODESIZE PUSH2 0x1535 JUMP JUMPDEST RETURNDATASIZE SWAP2 POP PUSH2 0x1CBE JUMP JUMPDEST PUSH1 0x1 DUP6 ADD SLOAD PUSH1 0x1 PUSH1 0x1 PUSH1 0xA0 SHL SUB AND DUP7 MSTORE PUSH1 0x9 PUSH1 0x20 MSTORE PUSH1 0x40 DUP7 KECCAK256 DUP1 SLOAD PUSH2 0x1D11 SWAP1 DUP7 SWAP1 PUSH2 0x3128 JUMP JUMPDEST SWAP1 SSTORE PUSH2 0x14AA JUMP JUMPDEST DUP5 SLOAD PUSH1 0x1 PUSH1 0x1 PUSH1 0xA0 SHL SUB AND DUP7 MSTORE PUSH1 0x9 PUSH1 0x20 MSTORE PUSH1 0x40 DUP7 KECCAK256 DUP1 SLOAD PUSH2 0x1D3B SWAP1 DUP4 SWAP1 PUSH2 0x3128 JUMP JUMPDEST SWAP1 SSTORE PUSH2 0x14A4 JUMP JUMPDEST PUSH2 0x1D4B SWAP1 PUSH2 0x2F99 JUMP JUMPDEST PUSH2 0xDA9 JUMPI DUP2 CODESIZE PUSH2 0x1474 JUMP JUMPDEST PUSH1 0x40 MLOAD RETURNDATASIZE DUP5 DUP3 RETURNDATACOPY RETURNDATASIZE SWAP1 REVERT JUMPDEST PUSH2 0x1D6F SWAP1 SWAP6 SWAP2 SWAP4 SWAP3 SWAP6 PUSH2 0x2F99 JUMP JUMPDEST SWAP4 SWAP1 SWAP2 CODESIZE PUSH2 0x13A0 JUMP JUMPDEST PUSH1 0x40 MLOAD PUSH3 0x461BCD PUSH1 0xE5 SHL DUP2 MSTORE PUSH1 0x20 PUSH1 0x4 DUP3 ADD MSTORE PUSH1 0xB PUSH1 0x24 DUP3 ADD MSTORE PUSH11 0x1E995C9BC8185B5BDD5B9D PUSH1 0xAA SHL PUSH1 0x44 DUP3 ADD MSTORE PUSH1 0x64 SWAP1 REVERT JUMPDEST POP PUSH1 0xE4 CALLDATALOAD ISZERO ISZERO PUSH2 0x12CB JUMP JUMPDEST PUSH1 0x40 MLOAD PUSH3 0x461BCD PUSH1 0xE5 SHL DUP2 MSTORE PUSH1 0x20 PUSH1 0x4 DUP3 ADD MSTORE PUSH1 0xF PUSH1 0x24 DUP3 ADD MSTORE PUSH15 0xE8DED6CADC6240DAD2E6DAC2E8C6D PUSH1 0x8B SHL PUSH1 0x44 DUP3 ADD MSTORE PUSH1 0x64 SWAP1 REVERT JUMPDEST DUP8 DUP1 REVERT JUMPDEST PUSH1 0x40 MLOAD PUSH3 0x461BCD PUSH1 0xE5 SHL DUP2 MSTORE PUSH1 0x20 PUSH1 0x4 DUP3 ADD MSTORE PUSH1 0xF PUSH1 0x24 DUP3 ADD MSTORE PUSH15 0xE8DED6CADC6040DAD2E6DAC2E8C6D PUSH1 0x8B SHL PUSH1 0x44 DUP3 ADD MSTORE PUSH1 0x64 SWAP1 REVERT JUMPDEST DUP7 DUP1 REVERT JUMPDEST PUSH1 0x40 MLOAD PUSH3 0x461BCD PUSH1 0xE5 SHL DUP2 MSTORE PUSH1 0x20 PUSH1 0x4 DUP3 ADD MSTORE PUSH1 0xD PUSH1 0x24 DUP3 ADD MSTORE PUSH13 0x506F6F6C20696E616374697665 PUSH1 0x98 SHL PUSH1 0x44 DUP3 ADD MSTORE PUSH1 0x64 SWAP1 REVERT JUMPDEST PUSH1 0xFF SWAP2 POP PUSH1 0x8 SHR AND ISZERO CODESIZE PUSH2 0x1265 JUMP JUMPDEST POP CALLVALUE PUSH2 0x228 JUMPI DUP1 PUSH1 0x3 NOT CALLDATASIZE ADD SLT PUSH2 0x228 JUMPI PUSH1 0x20 PUSH1 0x40 MLOAD PUSH20 0x79A02482A880BCE3F13E09DA970DC34DB4CD24D1 DUP2 MSTORE RETURN JUMPDEST POP CALLVALUE PUSH2 0x228 JUMPI PUSH1 0x40 CALLDATASIZE PUSH1 0x3 NOT ADD SLT PUSH2 0x228 JUMPI PUSH1 0xA0 SWAP1 PUSH1 0x4 CALLDATALOAD SWAP1 PUSH2 0x1EC0 PUSH2 0x2EE0 JUMP JUMPDEST PUSH2 0x1EC9 DUP4 PUSH2 0x2FE8 JUMP JUMPDEST POP SWAP3 DUP3 MSTORE PUSH1 0x5 PUSH1 0x20 MSTORE PUSH1 0x40 DUP3 KECCAK256 PUSH1 0x1 DUP1 DUP7 SHL SUB DUP1 SWAP3 AND DUP4 MSTORE PUSH1 0x20 MSTORE PUSH1 0x40 DUP3 KECCAK256 SWAP3 PUSH1 0x1 PUSH1 0x1 PUSH1 0x80 SHL SUB DUP5 SLOAD AND SWAP4 DUP5 ISZERO ISZERO PUSH1 0x0 EQ PUSH2 0x1FD8 JUMPI SWAP1 PUSH2 0x1F4F PUSH2 0x1F75 PUSH2 0x1F90 SWAP4 PUSH2 0x1F18 PUSH1 0x5 DUP6 ADD SLOAD DUP10 PUSH2 0x3135 JUMP JUMPDEST PUSH1 0x80 SHR SWAP7 PUSH2 0x1F55 PUSH2 0x1F2D PUSH1 0x6 DUP8 ADD SLOAD DUP12 PUSH2 0x3135 JUMP JUMPDEST PUSH1 0x80 SHR SWAP9 PUSH1 0x3 DUP5 ADD SLOAD SWAP1 PUSH1 0x1 DUP6 ADD SLOAD DUP1 DUP3 GT PUSH1 0x0 EQ PUSH2 0x1FCF JUMPI PUSH2 0x1F4F SWAP2 PUSH2 0x3105 JUMP JUMPDEST SWAP1 PUSH2 0x3128 JUMP JUMPDEST SWAP8 PUSH1 0x2 PUSH1 0x4 DUP5 ADD SLOAD SWAP4 ADD SLOAD SWAP1 DUP2 DUP2 GT PUSH1 0x0 EQ PUSH2 0x1FC7 JUMPI PUSH2 0x1F4F SWAP3 POP PUSH2 0x3105 JUMP JUMPDEST DUP1 SWAP5 JUMPDEST PUSH1 0x1 PUSH2 0x1F87 DUP9 DUP4 DUP8 SLOAD AND PUSH2 0x3473 JUMP JUMPDEST SWAP5 ADD SLOAD AND PUSH2 0x3473 JUMP JUMPDEST SWAP1 PUSH2 0x1FAA PUSH2 0x2710 PUSH2 0x1FA3 PUSH1 0x3 SLOAD DUP6 PUSH2 0x3135 JUMP JUMPDEST DIV DUP4 PUSH2 0x3105 JUMP JUMPDEST SWAP3 PUSH1 0x40 MLOAD SWAP5 DUP6 MSTORE PUSH1 0x20 DUP6 ADD MSTORE PUSH1 0x40 DUP5 ADD MSTORE PUSH1 0x60 DUP4 ADD MSTORE PUSH1 0x80 DUP3 ADD MSTORE RETURN JUMPDEST POP POP SWAP1 PUSH2 0x3128 JUMP JUMPDEST POP POP DUP3 SWAP1 PUSH2 0x3128 JUMP JUMPDEST SWAP3 POP PUSH2 0x1F90 SWAP1 PUSH2 0x1F4F PUSH1 0x4 PUSH1 0x3 DUP7 ADD SLOAD SWAP6 ADD SLOAD DUP1 SWAP5 PUSH2 0x1F78 JUMP JUMPDEST POP CALLVALUE PUSH2 0x228 JUMPI DUP1 PUSH1 0x3 NOT CALLDATASIZE ADD SLT PUSH2 0x228 JUMPI DUP1 SLOAD PUSH2 0x2019 CALLER PUSH1 0x1 PUSH1 0x1 PUSH1 0xA0 SHL SUB DUP4 AND EQ PUSH2 0x3241 JUMP JUMPDEST PUSH1 0xFF PUSH1 0xA0 SHL NOT AND PUSH1 0x1 PUSH1 0xA0 SHL OR DUP2 SSTORE PUSH32 0x9E87FAC88FF661F02D44F95383C817FECE4BCE600A3DAB7A54406878B965E752 DUP2 DUP1 LOG1 DUP1 RETURN JUMPDEST POP CALLVALUE PUSH2 0x228 JUMPI DUP1 PUSH1 0x3 NOT CALLDATASIZE ADD SLT PUSH2 0x228 JUMPI PUSH1 0x40 MLOAD PUSH32 0x0 PUSH1 0x1 PUSH1 0x1 PUSH1 0xA0 SHL SUB AND DUP2 MSTORE PUSH1 0x20 SWAP1 RETURN JUMPDEST POP CALLVALUE PUSH2 0x228 JUMPI DUP1 PUSH1 0x3 NOT CALLDATASIZE ADD SLT PUSH2 0x228 JUMPI PUSH1 0x20 PUSH1 0x2 SLOAD PUSH1 0x40 MLOAD SWAP1 DUP2 MSTORE RETURN JUMPDEST POP CALLVALUE PUSH2 0x228 JUMPI DUP1 PUSH1 0x3 NOT CALLDATASIZE ADD SLT PUSH2 0x228 JUMPI PUSH1 0x20 PUSH1 0x3 SLOAD PUSH1 0x40 MLOAD SWAP1 DUP2 MSTORE RETURN JUMPDEST POP CALLVALUE PUSH2 0x228 JUMPI DUP1 PUSH1 0x3 NOT CALLDATASIZE ADD SLT PUSH2 0x228 JUMPI PUSH1 0x20 PUSH1 0x40 MLOAD PUSH15 0x22D473030F116DDEE9F6B43AC78BA3 DUP2 MSTORE RETURN JUMPDEST POP CALLVALUE PUSH2 0x228 JUMPI PUSH1 0x20 SWAP1 DUP2 PUSH1 0x3 NOT CALLDATASIZE ADD SLT PUSH2 0x228 JUMPI PUSH1 0x24 DUP3 PUSH1 0x1 PUSH1 0x1 PUSH1 0xA0 SHL SUB PUSH2 0x2121 PUSH2 0x2EC5 JUMP JUMPDEST AND PUSH1 0x40 MLOAD SWAP3 DUP4 DUP1 SWAP3 PUSH4 0x70A08231 PUSH1 0xE0 SHL DUP3 MSTORE ADDRESS PUSH1 0x4 DUP4 ADD MSTORE GAS STATICCALL SWAP2 DUP3 ISZERO PUSH2 0x2183 JUMPI DUP1 SWAP3 PUSH2 0x2153 JUMPI JUMPDEST POP POP PUSH1 0x40 MLOAD SWAP1 DUP2 MSTORE RETURN JUMPDEST SWAP1 SWAP2 POP DUP3 DUP3 DUP2 RETURNDATASIZE DUP4 GT PUSH2 0x217C JUMPI JUMPDEST PUSH2 0x216B DUP2 DUP4 PUSH2 0x2FC7 JUMP JUMPDEST DUP2 ADD SUB SLT PUSH2 0x228 JUMPI POP MLOAD CODESIZE DUP1 PUSH2 0x2149 JUMP JUMPDEST POP RETURNDATASIZE PUSH2 0x2161 JUMP JUMPDEST PUSH1 0x40 MLOAD SWAP1 RETURNDATASIZE SWAP1 DUP3 RETURNDATACOPY RETURNDATASIZE SWAP1 REVERT JUMPDEST POP CALLVALUE PUSH2 0x228 JUMPI DUP1 PUSH1 0x3 NOT CALLDATASIZE ADD SLT PUSH2 0x228 JUMPI PUSH1 0xFF PUSH1 0x20 SWAP2 SLOAD PUSH1 0xA0 SHR AND PUSH1 0x40 MLOAD SWAP1 ISZERO ISZERO DUP2 MSTORE RETURN JUMPDEST POP CALLVALUE PUSH2 0x228 JUMPI PUSH1 0xE0 CALLDATASIZE PUSH1 0x3 NOT ADD SLT PUSH2 0x228 JUMPI PUSH2 0x21CE PUSH2 0x2EC5 JUMP JUMPDEST SWAP1 PUSH2 0x21D7 PUSH2 0x2EE0 JUMP JUMPDEST SWAP2 PUSH1 0x44 CALLDATALOAD PUSH3 0xFFFFFF DUP2 AND DUP2 SUB PUSH2 0xDA5 JUMPI PUSH1 0x64 CALLDATALOAD DUP1 PUSH1 0x2 SIGNEXTEND DUP2 SUB PUSH2 0x834 JUMPI PUSH1 0x84 CALLDATALOAD SWAP2 DUP3 PUSH1 0x2 SIGNEXTEND DUP4 SUB PUSH2 0x8C1 JUMPI PUSH1 0xA4 CALLDATALOAD PUSH1 0x1 PUSH1 0x1 PUSH1 0xA0 SHL SUB DUP2 AND DUP2 SUB PUSH2 0x10FE JUMPI PUSH1 0xC4 CALLDATALOAD SWAP5 DUP6 ISZERO ISZERO DUP7 SUB PUSH2 0x1E28 JUMPI PUSH2 0x2236 PUSH1 0x1 DUP1 PUSH1 0xA0 SHL SUB DUP9 SLOAD AND CALLER EQ PUSH2 0x3241 JUMP JUMPDEST PUSH1 0x1 PUSH1 0x1 PUSH1 0xA0 SHL SUB DUP2 AND DUP1 ISZERO ISZERO DUP1 PUSH2 0x25A2 JUMPI JUMPDEST DUP1 PUSH2 0x258F JUMPI JUMPDEST ISZERO PUSH2 0x255D JUMPI DUP6 PUSH1 0x2 SIGNEXTEND DUP6 PUSH1 0x2 SIGNEXTEND SLT ISZERO PUSH2 0x252C JUMPI PUSH1 0x1 PUSH1 0x1 PUSH1 0xA0 SHL SUB DUP4 AND ISZERO PUSH2 0x24FC JUMPI PUSH1 0x1 PUSH1 0x1 PUSH1 0xA0 SHL SUB DUP10 AND GT ISZERO PUSH2 0x24F6 JUMPI SWAP7 SWAP1 JUMPDEST PUSH1 0x4 SLOAD SWAP7 PUSH1 0x40 MLOAD SWAP2 PUSH2 0x2295 DUP4 PUSH2 0x2F62 JUMP JUMPDEST PUSH1 0x1 PUSH1 0x1 PUSH1 0xA0 SHL SUB DUP11 DUP2 AND DUP5 MSTORE DUP5 DUP2 AND PUSH1 0x20 DUP6 ADD MSTORE PUSH3 0xFFFFFF DUP7 AND PUSH1 0x40 DUP6 ADD MSTORE PUSH1 0x2 DUP8 DUP2 SIGNEXTEND PUSH1 0x60 DUP7 ADD MSTORE DUP9 SWAP1 SIGNEXTEND PUSH1 0x80 DUP6 ADD MSTORE AND PUSH1 0xA0 DUP4 ADD MSTORE PUSH1 0xC0 DUP3 ADD DUP2 SWAP1 MSTORE PUSH1 0xE0 DUP3 ADD DUP2 SWAP1 MSTORE PUSH2 0x100 DUP3 ADD DUP2 SWAP1 MSTORE PUSH2 0x120 DUP3 ADD DUP2 SWAP1 MSTORE PUSH2 0x140 DUP3 ADD DUP2 SWAP1 MSTORE PUSH2 0x160 DUP3 ADD DUP2 SWAP1 MSTORE PUSH2 0x180 DUP3 ADD DUP2 SWAP1 MSTORE DUP7 ISZERO PUSH2 0x1A0 DUP4 ADD DUP2 SWAP1 MSTORE ISZERO PUSH2 0x1C0 DUP4 ADD MSTORE PUSH9 0x10000000000000000 DUP9 LT ISZERO PUSH2 0x24E2 JUMPI PUSH1 0x1 DUP9 ADD PUSH1 0x4 SSTORE PUSH2 0x2335 DUP9 PUSH2 0x2FE8 JUMP JUMPDEST SWAP2 SWAP1 SWAP2 PUSH2 0x24CE JUMPI POP SWAP4 PUSH3 0xFFFFFF PUSH1 0x20 SWAP10 SWAP5 DUP10 SWAP9 SWAP5 PUSH2 0x248E PUSH32 0x8EB788DBCEC7B31B9E14661809C7FD19230E807C71D8243CDA403B3F1C91B29E SWAP10 SWAP6 PUSH2 0x1C0 PUSH1 0xA PUSH1 0xC0 SWAP12 PUSH1 0x1 DUP1 PUSH1 0xA0 SHL SUB DUP5 MLOAD AND PUSH1 0x1 PUSH1 0x1 PUSH1 0x60 SHL SUB PUSH1 0xA0 SHL SWAP1 DUP2 DUP4 SLOAD AND OR DUP3 SSTORE PUSH1 0x1 DUP3 ADD PUSH1 0x1 DUP1 PUSH1 0xA0 SHL SUB PUSH1 0x20 DUP8 ADD MLOAD AND DUP2 SLOAD SWAP1 DUP12 PUSH1 0xA0 SHL PUSH1 0x40 DUP10 ADD MLOAD PUSH1 0xA0 SHL AND PUSH1 0x60 DUP10 ADD MLOAD PUSH1 0xB8 SHL SWAP2 PUSH1 0x80 DUP11 ADD MLOAD PUSH1 0xD0 SHL DUP15 PUSH1 0xD0 SHL AND SWAP4 DUP15 PUSH1 0xE8 SHL AND OR OR SWAP1 DUP13 PUSH1 0xB8 SHL AND OR OR SWAP1 SSTORE PUSH1 0x2 DUP3 ADD SWAP1 PUSH1 0x1 DUP1 PUSH1 0xA0 SHL SUB PUSH1 0xA0 DUP8 ADD MLOAD AND SWAP1 DUP3 SLOAD AND OR SWAP1 SSTORE DUP13 DUP5 ADD MLOAD PUSH1 0x3 DUP3 ADD SSTORE PUSH1 0x4 DUP2 ADD PUSH1 0x1 PUSH1 0x1 PUSH1 0x80 SHL SUB PUSH1 0xE0 DUP7 ADD MLOAD AND PUSH1 0x1 PUSH1 0x1 PUSH1 0x80 SHL SUB NOT DUP3 SLOAD AND OR SWAP1 SSTORE PUSH2 0x100 DUP5 ADD MLOAD PUSH1 0x5 DUP3 ADD SSTORE PUSH2 0x120 DUP5 ADD MLOAD PUSH1 0x6 DUP3 ADD SSTORE PUSH2 0x140 DUP5 ADD MLOAD PUSH1 0x7 DUP3 ADD SSTORE PUSH2 0x160 DUP5 ADD MLOAD PUSH1 0x8 DUP3 ADD SSTORE PUSH2 0x180 DUP5 ADD MLOAD PUSH1 0x9 DUP3 ADD SSTORE ADD SWAP2 PUSH2 0x2476 PUSH2 0x1A0 DUP3 ADD MLOAD ISZERO ISZERO DUP5 SWAP1 PUSH1 0xFF DUP1 NOT DUP4 SLOAD AND SWAP2 ISZERO ISZERO AND OR SWAP1 SSTORE JUMP JUMPDEST ADD MLOAD DUP2 SLOAD PUSH2 0xFF00 NOT AND SWAP1 ISZERO ISZERO PUSH1 0x8 SHL PUSH2 0xFF00 AND OR SWAP1 SSTORE JUMP JUMPDEST PUSH1 0x40 MLOAD SWAP7 PUSH1 0x1 DUP1 PUSH1 0xA0 SHL SUB AND DUP8 MSTORE PUSH1 0x1 DUP1 PUSH1 0xA0 SHL SUB AND DUP12 DUP8 ADD MSTORE AND PUSH1 0x40 DUP6 ADD MSTORE PUSH1 0x2 SIGNEXTEND PUSH1 0x60 DUP5 ADD MSTORE PUSH1 0x2 SIGNEXTEND PUSH1 0x80 DUP4 ADD MSTORE ISZERO ISZERO PUSH1 0xA0 DUP3 ADD MSTORE LOG2 PUSH1 0x40 MLOAD SWAP1 DUP2 MSTORE RETURN JUMPDEST PUSH4 0x4E487B71 PUSH1 0xE0 SHL DUP2 MSTORE PUSH1 0x4 DUP2 SWAP1 MSTORE PUSH1 0x24 SWAP1 REVERT JUMPDEST PUSH4 0x4E487B71 PUSH1 0xE0 SHL DUP2 MSTORE PUSH1 0x41 PUSH1 0x4 MSTORE PUSH1 0x24 SWAP1 REVERT JUMPDEST SWAP1 PUSH2 0x2284 JUMP JUMPDEST PUSH1 0x40 MLOAD PUSH3 0x461BCD PUSH1 0xE5 SHL DUP2 MSTORE PUSH1 0x20 PUSH1 0x4 DUP3 ADD MSTORE PUSH1 0x8 PUSH1 0x24 DUP3 ADD MSTORE PUSH8 0x189859081C1BDBDB PUSH1 0xC2 SHL PUSH1 0x44 DUP3 ADD MSTORE PUSH1 0x64 SWAP1 REVERT JUMPDEST PUSH1 0x40 MLOAD PUSH3 0x461BCD PUSH1 0xE5 SHL DUP2 MSTORE PUSH1 0x20 PUSH1 0x4 DUP3 ADD MSTORE PUSH1 0x9 PUSH1 0x24 DUP3 ADD MSTORE PUSH9 0x626164207469636B73 PUSH1 0xB8 SHL PUSH1 0x44 DUP3 ADD MSTORE PUSH1 0x64 SWAP1 REVERT JUMPDEST PUSH1 0x40 MLOAD PUSH3 0x461BCD PUSH1 0xE5 SHL DUP2 MSTORE PUSH1 0x20 PUSH1 0x4 DUP3 ADD MSTORE PUSH1 0xA PUSH1 0x24 DUP3 ADD MSTORE PUSH10 0x62616420746F6B656E73 PUSH1 0xB0 SHL PUSH1 0x44 DUP3 ADD MSTORE PUSH1 0x64 SWAP1 REVERT JUMPDEST POP PUSH1 0x1 PUSH1 0x1 PUSH1 0xA0 SHL SUB DUP10 AND DUP2 EQ ISZERO PUSH2 0x224F JUMP JUMPDEST POP PUSH1 0x1 PUSH1 0x1 PUSH1 0xA0 SHL SUB DUP10 AND ISZERO ISZERO PUSH2 0x2249 JUMP JUMPDEST POP CALLVALUE PUSH2 0x228 JUMPI DUP1 PUSH1 0x3 NOT CALLDATASIZE ADD SLT PUSH2 0x228 JUMPI DUP1 SLOAD PUSH2 0x25DB CALLER PUSH1 0x1 PUSH1 0x1 PUSH1 0xA0 SHL SUB DUP4 AND EQ PUSH2 0x3241 JUMP JUMPDEST PUSH1 0xFF PUSH1 0xA0 SHL NOT AND DUP2 SSTORE PUSH32 0xA45F47FDEA8A1EFDD9029A5691C7F759C32B7C698632B563573E155625D16933 DUP2 DUP1 LOG1 DUP1 RETURN JUMPDEST POP CALLVALUE PUSH2 0x228 JUMPI PUSH1 0x60 CALLDATASIZE PUSH1 0x3 NOT ADD SLT PUSH2 0x228 JUMPI PUSH2 0x2625 PUSH2 0x2EC5 JUMP JUMPDEST PUSH1 0x44 CALLDATALOAD PUSH1 0x1 PUSH1 0x1 PUSH1 0xA0 SHL SUB DUP2 DUP2 AND SWAP3 PUSH1 0x24 CALLDATALOAD SWAP2 DUP5 DUP5 SUB PUSH2 0x10FE JUMPI DUP3 DUP2 PUSH2 0x2693 SWAP4 PUSH2 0x2655 PUSH1 0x20 SWAP5 DUP11 SLOAD AND CALLER EQ PUSH2 0x3241 JUMP JUMPDEST PUSH2 0x2660 DUP9 ISZERO ISZERO PUSH2 0x3279 JUMP JUMPDEST PUSH1 0x40 MLOAD PUSH4 0xA9059CBB PUSH1 0xE0 SHL DUP2 MSTORE PUSH1 0x1 PUSH1 0x1 PUSH1 0xA0 SHL SUB SWAP1 SWAP8 AND PUSH1 0x4 DUP9 ADD MSTORE PUSH1 0x24 DUP8 ADD SWAP3 SWAP1 SWAP3 MSTORE AND SWAP4 SWAP2 DUP3 SWAP1 DUP2 SWAP1 PUSH1 0x44 DUP3 ADD SWAP1 JUMP JUMPDEST SUB DUP2 DUP9 DUP8 GAS CALL SWAP1 DUP2 ISZERO PUSH2 0x8CD JUMPI DUP6 SWAP2 PUSH2 0x26CD JUMPI JUMPDEST POP PUSH1 0x0 DUP1 MLOAD PUSH1 0x20 PUSH2 0x3BD4 DUP4 CODECOPY DUP2 MLOAD SWAP2 MSTORE SWAP2 PUSH2 0x26C3 PUSH1 0x20 SWAP3 PUSH2 0x32BC JUMP JUMPDEST PUSH1 0x40 MLOAD SWAP1 DUP2 MSTORE LOG3 DUP1 RETURN JUMPDEST SWAP1 POP PUSH1 0x20 DUP2 RETURNDATASIZE PUSH1 0x20 GT PUSH2 0x2717 JUMPI JUMPDEST DUP2 PUSH2 0x26E8 PUSH1 0x20 SWAP4 DUP4 PUSH2 0x2FC7 JUMP JUMPDEST DUP2 ADD SUB SLT PUSH2 0x8C1 JUMPI PUSH1 0x0 DUP1 MLOAD PUSH1 0x20 PUSH2 0x3BD4 DUP4 CODECOPY DUP2 MLOAD SWAP2 MSTORE SWAP2 PUSH2 0x26C3 PUSH2 0x270E PUSH1 0x20 SWAP4 PUSH2 0x32AF JUMP JUMPDEST SWAP3 POP POP SWAP2 PUSH2 0x26A7 JUMP JUMPDEST RETURNDATASIZE SWAP2 POP PUSH2 0x26DB JUMP JUMPDEST POP CALLVALUE PUSH2 0x228 JUMPI PUSH1 0x20 DUP1 PUSH1 0x3 NOT CALLDATASIZE ADD SLT PUSH2 0xDA9 JUMPI PUSH1 0x4 CALLDATALOAD SWAP1 PUSH2 0x2747 PUSH1 0xFF DUP5 SLOAD PUSH1 0xA0 SHR AND ISZERO PUSH2 0x3359 JUMP JUMPDEST PUSH2 0x2754 PUSH1 0x4 SLOAD DUP4 LT PUSH2 0x3324 JUMP JUMPDEST PUSH2 0x275D DUP3 PUSH2 0x2FE8 JUMP JUMPDEST POP SWAP1 PUSH2 0x2768 DUP4 PUSH2 0x3793 JUMP JUMPDEST PUSH2 0x2772 CALLER DUP5 PUSH2 0x3958 JUMP JUMPDEST DUP3 DUP5 MSTORE PUSH1 0x5 DUP2 MSTORE PUSH1 0x40 DUP5 KECCAK256 CALLER DUP6 MSTORE DUP2 MSTORE PUSH1 0x40 DUP5 KECCAK256 SWAP2 PUSH1 0x3 DUP4 ADD SWAP1 PUSH1 0x4 DUP3 SLOAD SWAP5 ADD SWAP2 DUP3 SLOAD SWAP3 DUP6 ISZERO SWAP2 DUP3 ISZERO DUP1 SWAP4 PUSH2 0x29F5 JUMPI JUMPDEST ISZERO PUSH2 0x29C6 JUMPI PUSH2 0x27D7 SWAP4 SWAP3 SWAP2 DUP10 DUP1 SWAP3 SSTORE SSTORE PUSH2 0x299D JUMPI JUMPDEST DUP3 PUSH2 0x2971 JUMPI JUMPDEST PUSH2 0x1F4F DUP4 PUSH1 0x1 DUP1 PUSH1 0xA0 SHL SUB PUSH1 0x1 PUSH2 0x1F87 DUP10 DUP4 DUP8 SLOAD AND PUSH2 0x3473 JUMP JUMPDEST SWAP1 PUSH2 0x27EA PUSH2 0x2710 PUSH2 0x1FA3 PUSH1 0x3 SLOAD DUP6 PUSH2 0x3135 JUMP JUMPDEST SWAP3 PUSH1 0x40 MLOAD PUSH4 0x70A08231 PUSH1 0xE0 SHL DUP2 MSTORE ADDRESS PUSH1 0x4 DUP3 ADD MSTORE PUSH20 0x17392E5483983945DEB92E0518A8F2C4EB6BA59D SWAP1 DUP3 DUP2 PUSH1 0x24 DUP2 DUP6 GAS STATICCALL DUP1 ISZERO PUSH2 0x2966 JUMPI DUP7 SWAP2 DUP11 SWAP2 PUSH2 0x2931 JUMPI JUMPDEST POP LT PUSH2 0x28FA JUMPI DUP5 PUSH2 0x2874 JUMPI JUMPDEST POP PUSH1 0x40 MLOAD SWAP5 DUP6 MSTORE DUP5 ADD MSTORE PUSH1 0x40 DUP4 ADD MSTORE PUSH1 0x60 DUP3 ADD MSTORE PUSH32 0x68F63EC46CB9860416FCA2D4E91E8556EE9BEBFBEBD14B92A5D1130190639220 PUSH1 0x80 CALLER SWAP3 LOG3 DUP1 RETURN JUMPDEST PUSH1 0x40 MLOAD PUSH4 0xA9059CBB PUSH1 0xE0 SHL DUP2 MSTORE CALLER PUSH1 0x4 DUP3 ADD MSTORE PUSH1 0x24 DUP2 ADD DUP7 SWAP1 MSTORE SWAP1 DUP3 SWAP1 DUP3 SWAP1 PUSH1 0x44 SWAP1 DUP3 SWAP1 DUP13 SWAP1 GAS CALL DUP1 ISZERO PUSH2 0x28EF JUMPI DUP9 SWAP1 PUSH2 0x28B9 JUMPI JUMPDEST PUSH2 0x28B3 SWAP2 POP PUSH2 0x32BC JUMP JUMPDEST CODESIZE PUSH2 0x2837 JUMP JUMPDEST POP DUP2 DUP2 DUP2 RETURNDATASIZE DUP4 GT PUSH2 0x28E8 JUMPI JUMPDEST PUSH2 0x28CF DUP2 DUP4 PUSH2 0x2FC7 JUMP JUMPDEST DUP2 ADD SUB SLT PUSH2 0x1DED JUMPI PUSH2 0x28E3 PUSH2 0x28B3 SWAP2 PUSH2 0x32AF JUMP JUMPDEST PUSH2 0x28A9 JUMP JUMPDEST POP RETURNDATASIZE PUSH2 0x28C5 JUMP JUMPDEST PUSH1 0x40 MLOAD RETURNDATASIZE DUP11 DUP3 RETURNDATACOPY RETURNDATASIZE SWAP1 REVERT JUMPDEST PUSH1 0x40 MLOAD PUSH3 0x461BCD PUSH1 0xE5 SHL DUP2 MSTORE PUSH1 0x4 DUP2 ADD DUP4 SWAP1 MSTORE PUSH1 0xF PUSH1 0x24 DUP3 ADD MSTORE PUSH15 0x4C6F772048324F2072657365727665 PUSH1 0x88 SHL PUSH1 0x44 DUP3 ADD MSTORE PUSH1 0x64 SWAP1 REVERT JUMPDEST DUP1 SWAP3 POP DUP5 DUP1 SWAP3 POP RETURNDATASIZE DUP4 GT PUSH2 0x295F JUMPI JUMPDEST PUSH2 0x294A DUP2 DUP4 PUSH2 0x2FC7 JUMP JUMPDEST DUP2 ADD SUB SLT PUSH2 0x295B JUMPI DUP6 SWAP1 MLOAD CODESIZE PUSH2 0x282B JUMP JUMPDEST DUP9 DUP1 REVERT JUMPDEST POP RETURNDATASIZE PUSH2 0x2940 JUMP JUMPDEST PUSH1 0x40 MLOAD RETURNDATASIZE DUP12 DUP3 RETURNDATACOPY RETURNDATASIZE SWAP1 REVERT JUMPDEST PUSH1 0x1 DUP2 ADD SLOAD PUSH1 0x1 PUSH1 0x1 PUSH1 0xA0 SHL SUB AND DUP8 MSTORE PUSH1 0x9 DUP5 MSTORE PUSH1 0x40 DUP8 KECCAK256 DUP1 SLOAD PUSH2 0x2996 SWAP1 DUP6 SWAP1 PUSH2 0x3128 JUMP JUMPDEST SWAP1 SSTORE PUSH2 0x27BD JUMP JUMPDEST DUP1 SLOAD PUSH1 0x1 PUSH1 0x1 PUSH1 0xA0 SHL SUB AND DUP8 MSTORE PUSH1 0x9 DUP5 MSTORE PUSH1 0x40 DUP8 KECCAK256 DUP1 SLOAD PUSH2 0x29BF SWAP1 DUP8 SWAP1 PUSH2 0x3128 JUMP JUMPDEST SWAP1 SSTORE PUSH2 0x27B7 JUMP JUMPDEST PUSH1 0x40 MLOAD PUSH3 0x461BCD PUSH1 0xE5 SHL DUP2 MSTORE PUSH1 0x4 DUP2 ADD DUP8 SWAP1 MSTORE PUSH1 0x7 PUSH1 0x24 DUP3 ADD MSTORE PUSH7 0x4E6F7468696E67 PUSH1 0xC8 SHL PUSH1 0x44 DUP3 ADD MSTORE PUSH1 0x64 SWAP1 REVERT JUMPDEST POP DUP5 ISZERO ISZERO PUSH2 0x27A2 JUMP JUMPDEST POP CALLVALUE PUSH2 0x228 JUMPI PUSH1 0x20 CALLDATASIZE PUSH1 0x3 NOT ADD SLT PUSH2 0x228 JUMPI PUSH1 0x20 SWAP1 PUSH1 0x40 SWAP1 PUSH1 0x1 PUSH1 0x1 PUSH1 0xA0 SHL SUB PUSH2 0x2A26 PUSH2 0x2EC5 JUMP JUMPDEST AND DUP2 MSTORE PUSH1 0x9 DUP4 MSTORE KECCAK256 SLOAD PUSH1 0x40 MLOAD SWAP1 DUP2 MSTORE RETURN JUMPDEST POP CALLVALUE PUSH2 0x228 JUMPI DUP1 PUSH1 0x3 NOT CALLDATASIZE ADD SLT PUSH2 0x228 JUMPI PUSH1 0x20 PUSH1 0x40 MLOAD PUSH2 0x2710 DUP2 MSTORE RETURN JUMPDEST POP CALLVALUE PUSH2 0x228 JUMPI PUSH1 0x60 CALLDATASIZE PUSH1 0x3 NOT ADD SLT PUSH2 0x228 JUMPI PUSH1 0x4 CALLDATALOAD PUSH1 0x24 CALLDATALOAD DUP1 ISZERO ISZERO SWAP1 DUP2 DUP2 SUB PUSH2 0x834 JUMPI PUSH32 0xEF15C5D5F05AF61008624BCA92C06D6D5901F381A6DDA7247B2CA42208591DCF SWAP2 PUSH1 0x40 SWAP2 PUSH2 0x2AE7 PUSH2 0x2AA7 PUSH2 0x2F23 JUMP JUMPDEST SWAP2 PUSH2 0x2ABC PUSH1 0x1 DUP1 PUSH1 0xA0 SHL SUB DUP10 SLOAD AND CALLER EQ PUSH2 0x3241 JUMP JUMPDEST PUSH2 0x2AC9 PUSH1 0x4 SLOAD DUP9 LT PUSH2 0x3324 JUMP JUMPDEST PUSH1 0xA PUSH2 0x2AD4 DUP9 PUSH2 0x2FE8 JUMP JUMPDEST POP ADD SWAP1 PUSH1 0xFF DUP1 NOT DUP4 SLOAD AND SWAP2 ISZERO ISZERO AND OR SWAP1 SSTORE JUMP JUMPDEST PUSH2 0x2B10 DUP2 PUSH1 0xA PUSH2 0x2AF6 DUP9 PUSH2 0x2FE8 JUMP JUMPDEST POP ADD SWAP1 PUSH2 0xFF00 DUP3 SLOAD SWAP2 ISZERO ISZERO PUSH1 0x8 SHL AND SWAP1 PUSH2 0xFF00 NOT AND OR SWAP1 SSTORE JUMP JUMPDEST DUP3 MLOAD SWAP2 DUP3 MSTORE ISZERO ISZERO PUSH1 0x20 DUP3 ADD MSTORE LOG2 DUP1 RETURN JUMPDEST POP CALLVALUE PUSH2 0x228 JUMPI DUP1 PUSH1 0x3 NOT CALLDATASIZE ADD SLT PUSH2 0x228 JUMPI PUSH1 0x8 SLOAD PUSH1 0x40 MLOAD PUSH1 0x1 PUSH1 0x1 PUSH1 0xA0 SHL SUB SWAP1 SWAP2 AND DUP2 MSTORE PUSH1 0x20 SWAP1 RETURN JUMPDEST POP CALLVALUE PUSH2 0x228 JUMPI PUSH1 0x80 CALLDATASIZE PUSH1 0x3 NOT ADD SLT PUSH2 0x228 JUMPI PUSH2 0x2B63 PUSH2 0x2EC5 JUMP JUMPDEST POP PUSH2 0x2B6C PUSH2 0x2EE0 JUMP JUMPDEST POP PUSH1 0x64 CALLDATALOAD PUSH1 0x1 PUSH1 0x1 PUSH1 0x40 SHL SUB DUP2 GT PUSH2 0xDA9 JUMPI PUSH2 0x2B8C SWAP1 CALLDATASIZE SWAP1 PUSH1 0x4 ADD PUSH2 0x2EF6 JUMP JUMPDEST POP POP PUSH1 0x40 MLOAD PUSH4 0xA85BD01 PUSH1 0xE1 SHL DUP2 MSTORE PUSH1 0x20 SWAP1 RETURN JUMPDEST POP CALLVALUE PUSH2 0x228 JUMPI PUSH1 0x20 CALLDATASIZE PUSH1 0x3 NOT ADD SLT PUSH2 0x228 JUMPI PUSH2 0x2BBA PUSH2 0x2EC5 JUMP JUMPDEST DUP2 SLOAD SWAP1 PUSH1 0x1 PUSH1 0x1 PUSH1 0xA0 SHL SUB SWAP1 PUSH2 0x2BD3 CALLER DUP4 DUP6 AND EQ PUSH2 0x3241 JUMP JUMPDEST AND SWAP1 PUSH2 0x2BE0 DUP3 ISZERO ISZERO PUSH2 0x32F2 JUMP JUMPDEST PUSH1 0x1 PUSH1 0x1 PUSH1 0xA0 SHL SUB NOT AND OR DUP2 SSTORE DUP1 RETURN JUMPDEST POP CALLVALUE PUSH2 0x228 JUMPI PUSH1 0x40 CALLDATASIZE PUSH1 0x3 NOT ADD SLT PUSH2 0x228 JUMPI PUSH2 0x2C0A PUSH2 0x2EC5 JUMP JUMPDEST PUSH2 0x2C12 PUSH2 0x2EE0 JUMP JUMPDEST DUP3 SLOAD PUSH1 0x1 PUSH1 0x1 PUSH1 0xA0 SHL SUB SWAP1 PUSH2 0x2C2A SWAP1 DUP3 AND CALLER EQ PUSH2 0x3241 JUMP JUMPDEST DUP1 DUP3 AND SWAP3 PUSH2 0x2C39 DUP5 ISZERO ISZERO PUSH2 0x3279 JUMP JUMPDEST AND SWAP1 PUSH1 0x40 MLOAD PUSH4 0x70A08231 PUSH1 0xE0 SHL DUP2 MSTORE ADDRESS PUSH1 0x4 DUP3 ADD MSTORE PUSH1 0x20 SWAP1 DUP2 DUP2 PUSH1 0x24 DUP2 DUP8 GAS STATICCALL SWAP1 DUP2 ISZERO PUSH2 0xA63 JUMPI DUP7 SWAP2 PUSH2 0x2D1E JUMPI JUMPDEST POP DUP1 PUSH2 0x2C71 JUMPI DUP6 DUP1 RETURN JUMPDEST PUSH1 0x40 MLOAD PUSH4 0xA9059CBB PUSH1 0xE0 SHL DUP2 MSTORE PUSH1 0x1 PUSH1 0x1 PUSH1 0xA0 SHL SUB SWAP4 SWAP1 SWAP4 AND PUSH1 0x4 DUP5 ADD MSTORE PUSH1 0x24 DUP4 ADD DUP2 SWAP1 MSTORE DUP2 DUP4 PUSH1 0x44 DUP2 DUP10 DUP9 GAS CALL SWAP3 DUP4 ISZERO PUSH2 0xA63 JUMPI DUP7 SWAP4 PUSH2 0x2CD6 JUMPI JUMPDEST POP PUSH2 0x2CC6 PUSH1 0x0 DUP1 MLOAD PUSH1 0x20 PUSH2 0x3BD4 DUP4 CODECOPY DUP2 MLOAD SWAP2 MSTORE SWAP4 PUSH2 0x32BC JUMP JUMPDEST PUSH1 0x40 MLOAD SWAP1 DUP2 MSTORE LOG3 CODESIZE DUP1 DUP1 DUP1 DUP1 DUP6 DUP1 RETURN JUMPDEST SWAP3 POP DUP2 DUP4 DUP2 RETURNDATASIZE DUP4 GT PUSH2 0x2D17 JUMPI JUMPDEST PUSH2 0x2CED DUP2 DUP4 PUSH2 0x2FC7 JUMP JUMPDEST DUP2 ADD SUB SLT PUSH2 0x10FE JUMPI PUSH2 0x2CC6 PUSH2 0x2D10 PUSH1 0x0 DUP1 MLOAD PUSH1 0x20 PUSH2 0x3BD4 DUP4 CODECOPY DUP2 MLOAD SWAP2 MSTORE SWAP5 PUSH2 0x32AF JUMP JUMPDEST SWAP4 POP PUSH2 0x2CAD JUMP JUMPDEST POP RETURNDATASIZE PUSH2 0x2CE3 JUMP JUMPDEST SWAP1 POP DUP2 DUP2 DUP2 RETURNDATASIZE DUP4 GT PUSH2 0x2D44 JUMPI JUMPDEST PUSH2 0x2D35 DUP2 DUP4 PUSH2 0x2FC7 JUMP JUMPDEST DUP2 ADD SUB SLT PUSH2 0x10FE JUMPI MLOAD CODESIZE PUSH2 0x2C67 JUMP JUMPDEST POP RETURNDATASIZE PUSH2 0x2D2B JUMP JUMPDEST POP CALLVALUE PUSH2 0x228 JUMPI PUSH1 0x20 CALLDATASIZE PUSH1 0x3 NOT ADD SLT PUSH2 0x228 JUMPI PUSH1 0x20 PUSH2 0x2E7 PUSH1 0x4 CALLDATALOAD PUSH2 0x3168 JUMP JUMPDEST SWAP1 POP CALLVALUE PUSH2 0xDA9 JUMPI PUSH1 0x20 CALLDATASIZE PUSH1 0x3 NOT ADD SLT PUSH2 0xDA9 JUMPI DUP1 PUSH2 0x2D8A PUSH2 0x1C0 SWAP3 PUSH2 0x2F62 JUMP JUMPDEST DUP3 DUP2 MSTORE DUP3 PUSH1 0x20 DUP3 ADD MSTORE DUP3 PUSH1 0x40 DUP3 ADD MSTORE DUP3 PUSH1 0x60 DUP3 ADD MSTORE DUP3 PUSH1 0x80 DUP3 ADD MSTORE DUP3 PUSH1 0xA0 DUP3 ADD MSTORE DUP3 PUSH1 0xC0 DUP3 ADD MSTORE DUP3 PUSH1 0xE0 DUP3 ADD MSTORE DUP3 PUSH2 0x100 DUP3 ADD MSTORE DUP3 PUSH2 0x120 DUP3 ADD MSTORE DUP3 PUSH2 0x140 DUP3 ADD MSTORE DUP3 PUSH2 0x160 DUP3 ADD MSTORE DUP3 PUSH2 0x180 DUP3 ADD MSTORE DUP3 PUSH2 0x1A0 DUP3 ADD MSTORE ADD MSTORE PUSH2 0x1E0 PUSH2 0x2DFA PUSH2 0x2DF4 PUSH1 0x4 CALLDATALOAD PUSH2 0x2FE8 JUMP JUMPDEST POP PUSH2 0x3039 JUMP JUMPDEST PUSH2 0x2E07 PUSH1 0x40 MLOAD DUP1 SWAP3 PUSH2 0x2E09 JUMP JUMPDEST RETURN JUMPDEST PUSH1 0x1 DUP1 PUSH1 0xA0 SHL SUB DUP1 DUP3 MLOAD AND DUP4 MSTORE DUP1 PUSH1 0x20 DUP4 ADD MLOAD AND PUSH1 0x20 DUP5 ADD MSTORE PUSH3 0xFFFFFF PUSH1 0x40 DUP4 ADD MLOAD AND PUSH1 0x40 DUP5 ADD MSTORE PUSH1 0x60 DUP3 ADD MLOAD PUSH1 0x2 SIGNEXTEND PUSH1 0x60 DUP5 ADD MSTORE PUSH1 0x80 DUP3 ADD MLOAD PUSH1 0x2 SIGNEXTEND PUSH1 0x80 DUP5 ADD MSTORE PUSH1 0xA0 DUP3 ADD MLOAD AND PUSH1 0xA0 DUP4 ADD MSTORE PUSH1 0xC0 DUP2 ADD MLOAD PUSH1 0xC0 DUP4 ADD MSTORE PUSH1 0x1 PUSH1 0x1 PUSH1 0x80 SHL SUB PUSH1 0xE0 DUP3 ADD MLOAD AND PUSH1 0xE0 DUP4 ADD MSTORE PUSH2 0x100 DUP1 DUP3 ADD MLOAD SWAP1 DUP4 ADD MSTORE PUSH2 0x120 DUP1 DUP3 ADD MLOAD SWAP1 DUP4 ADD MSTORE PUSH2 0x140 DUP1 DUP3 ADD MLOAD SWAP1 DUP4 ADD MSTORE PUSH2 0x160 DUP1 DUP3 ADD MLOAD SWAP1 DUP4 ADD MSTORE PUSH2 0x180 DUP1 DUP3 ADD MLOAD SWAP1 DUP4 ADD MSTORE PUSH2 0x1A0 DUP1 DUP3 ADD MLOAD ISZERO ISZERO SWAP1 DUP4 ADD MSTORE PUSH2 0x1C0 DUP1 SWAP2 ADD MLOAD ISZERO ISZERO SWAP2 ADD MSTORE JUMP JUMPDEST PUSH1 0x4 CALLDATALOAD SWAP1 PUSH1 0x1 PUSH1 0x1 PUSH1 0xA0 SHL SUB DUP3 AND DUP3 SUB PUSH2 0x2EDB JUMPI JUMP JUMPDEST PUSH1 0x0 DUP1 REVERT JUMPDEST PUSH1 0x24 CALLDATALOAD SWAP1 PUSH1 0x1 PUSH1 0x1 PUSH1 0xA0 SHL SUB DUP3 AND DUP3 SUB PUSH2 0x2EDB JUMPI JUMP JUMPDEST SWAP2 DUP2 PUSH1 0x1F DUP5 ADD SLT ISZERO PUSH2 0x2EDB JUMPI DUP3 CALLDATALOAD SWAP2 PUSH1 0x1 PUSH1 0x1 PUSH1 0x40 SHL SUB DUP4 GT PUSH2 0x2EDB JUMPI PUSH1 0x20 DUP4 DUP2 DUP7 ADD SWAP6 ADD ADD GT PUSH2 0x2EDB JUMPI JUMP JUMPDEST PUSH1 0x44 CALLDATALOAD SWAP1 DUP2 ISZERO ISZERO DUP3 SUB PUSH2 0x2EDB JUMPI JUMP JUMPDEST SWAP2 DUP2 PUSH1 0x1F DUP5 ADD SLT ISZERO PUSH2 0x2EDB JUMPI DUP3 CALLDATALOAD SWAP2 PUSH1 0x1 PUSH1 0x1 PUSH1 0x40 SHL SUB DUP4 GT PUSH2 0x2EDB JUMPI PUSH1 0x20 DUP1 DUP6 ADD SWAP5 DUP5 PUSH1 0x5 SHL ADD ADD GT PUSH2 0x2EDB JUMPI JUMP JUMPDEST PUSH2 0x1E0 DUP2 ADD SWAP1 DUP2 LT PUSH1 0x1 PUSH1 0x1 PUSH1 0x40 SHL SUB DUP3 GT OR PUSH2 0xA92 JUMPI PUSH1 0x40 MSTORE JUMP JUMPDEST PUSH1 0x40 DUP2 ADD SWAP1 DUP2 LT PUSH1 0x1 PUSH1 0x1 PUSH1 0x40 SHL SUB DUP3 GT OR PUSH2 0xA92 JUMPI PUSH1 0x40 MSTORE JUMP JUMPDEST PUSH1 0x1 PUSH1 0x1 PUSH1 0x40 SHL SUB DUP2 GT PUSH2 0xA92 JUMPI PUSH1 0x40 MSTORE JUMP JUMPDEST PUSH1 0x80 DUP2 ADD SWAP1 DUP2 LT PUSH1 0x1 PUSH1 0x1 PUSH1 0x40 SHL SUB DUP3 GT OR PUSH2 0xA92 JUMPI PUSH1 0x40 MSTORE JUMP JUMPDEST SWAP1 PUSH1 0x1F DUP1 NOT SWAP2 ADD AND DUP2 ADD SWAP1 DUP2 LT PUSH1 0x1 PUSH1 0x1 PUSH1 0x40 SHL SUB DUP3 GT OR PUSH2 0xA92 JUMPI PUSH1 0x40 MSTORE JUMP JUMPDEST PUSH1 0x4 SLOAD DUP2 LT ISZERO PUSH2 0x3023 JUMPI PUSH1 0xB SWAP1 PUSH1 0x4 PUSH1 0x0 MSTORE MUL PUSH32 0x8A35ACFBC15FF81A39AE7D344FD709F28E8600B4AA8C65C6B64BFE7FE36BD19B ADD SWAP1 PUSH1 0x0 SWAP1 JUMP JUMPDEST PUSH4 0x4E487B71 PUSH1 0xE0 SHL PUSH1 0x0 MSTORE PUSH1 0x32 PUSH1 0x4 MSTORE PUSH1 0x24 PUSH1 0x0 REVERT JUMPDEST SWAP1 PUSH1 0x40 MLOAD PUSH2 0x3046 DUP2 PUSH2 0x2F62 JUMP JUMPDEST PUSH2 0x1C0 PUSH1 0xFF PUSH1 0xA DUP4 SWAP6 PUSH1 0x1 DUP1 PUSH1 0xA0 SHL SUB DUP1 DUP3 SLOAD AND DUP7 MSTORE PUSH1 0x1 DUP3 ADD SLOAD DUP2 DUP2 AND PUSH1 0x20 DUP9 ADD MSTORE PUSH3 0xFFFFFF DUP2 PUSH1 0xA0 SHR AND PUSH1 0x40 DUP9 ADD MSTORE DUP1 PUSH1 0xB8 SHR PUSH1 0x2 SIGNEXTEND PUSH1 0x60 DUP9 ADD MSTORE PUSH1 0xD0 SHR PUSH1 0x2 SIGNEXTEND PUSH1 0x80 DUP8 ADD MSTORE PUSH1 0x2 DUP3 ADD SLOAD AND PUSH1 0xA0 DUP7 ADD MSTORE PUSH1 0x3 DUP2 ADD SLOAD PUSH1 0xC0 DUP7 ADD MSTORE PUSH1 0x1 PUSH1 0x1 PUSH1 0x80 SHL SUB PUSH1 0x4 DUP3 ADD SLOAD AND PUSH1 0xE0 DUP7 ADD MSTORE PUSH1 0x5 DUP2 ADD SLOAD PUSH2 0x100 DUP7 ADD MSTORE PUSH1 0x6 DUP2 ADD SLOAD PUSH2 0x120 DUP7 ADD MSTORE PUSH1 0x7 DUP2 ADD SLOAD PUSH2 0x140 DUP7 ADD MSTORE PUSH1 0x8 DUP2 ADD SLOAD PUSH2 0x160 DUP7 ADD MSTORE PUSH1 0x9 DUP2 ADD SLOAD PUSH2 0x180 DUP7 ADD MSTORE ADD SLOAD DUP2 DUP2 AND ISZERO ISZERO PUSH2 0x1A0 DUP6 ADD MSTORE PUSH1 0x8 SHR AND ISZERO ISZERO SWAP2 ADD MSTORE JUMP JUMPDEST SWAP2 SWAP1 DUP3 SUB SWAP2 DUP3 GT PUSH2 0x3112 JUMPI JUMP JUMPDEST PUSH4 0x4E487B71 PUSH1 0xE0 SHL PUSH1 0x0 MSTORE PUSH1 0x11 PUSH1 0x4 MSTORE PUSH1 0x24 PUSH1 0x0 REVERT JUMPDEST SWAP2 SWAP1 DUP3 ADD DUP1 SWAP3 GT PUSH2 0x3112 JUMPI JUMP JUMPDEST DUP2 DUP2 MUL SWAP3 SWAP2 DUP2 ISZERO SWAP2 DUP5 DIV EQ OR ISZERO PUSH2 0x3112 JUMPI JUMP JUMPDEST DUP2 ISZERO PUSH2 0x3152 JUMPI DIV SWAP1 JUMP JUMPDEST PUSH4 0x4E487B71 PUSH1 0xE0 SHL PUSH1 0x0 MSTORE PUSH1 0x12 PUSH1 0x4 MSTORE PUSH1 0x24 PUSH1 0x0 REVERT JUMPDEST PUSH2 0x3171 SWAP1 PUSH2 0x2FE8 JUMP JUMPDEST POP PUSH1 0x9 DUP2 ADD SLOAD DUP1 ISZERO DUP1 ISZERO PUSH2 0x322C JUMPI JUMPDEST PUSH2 0x3225 JUMPI PUSH2 0x318E SWAP1 TIMESTAMP PUSH2 0x3105 JUMP JUMPDEST SWAP1 DUP2 ISZERO PUSH2 0x3225 JUMPI PUSH2 0x31C6 PUSH1 0x1 DUP1 PUSH1 0xA0 SHL SUB PUSH2 0x1F4F PUSH2 0x31B4 DUP3 DUP6 SLOAD AND PUSH1 0x7 DUP7 ADD SLOAD SWAP1 PUSH2 0x3473 JUMP JUMPDEST SWAP2 PUSH1 0x1 DUP6 ADD SLOAD AND PUSH1 0x8 DUP6 ADD SLOAD SWAP1 PUSH2 0x3473 JUMP JUMPDEST SWAP1 DUP2 ISZERO PUSH2 0x321D JUMPI PUSH2 0x31D6 SWAP1 PUSH2 0x365F JUMP JUMPDEST DUP1 ISZERO PUSH2 0x321D JUMPI PUSH2 0x2710 DUP3 MUL SWAP2 PUSH2 0x270F NOT DUP2 DUP5 DIV ADD PUSH2 0x3112 JUMPI PUSH5 0x496CEBB800 MUL SWAP2 DUP1 DUP4 DIV PUSH4 0x1E13380 EQ SWAP1 ISZERO OR ISZERO PUSH2 0x3112 JUMPI PUSH2 0x321A SWAP3 PUSH2 0x3214 SWAP2 PUSH2 0x3135 JUMP JUMPDEST SWAP1 PUSH2 0x3148 JUMP JUMPDEST SWAP1 JUMP JUMPDEST POP POP POP PUSH1 0x0 SWAP1 JUMP JUMPDEST POP POP PUSH1 0x0 SWAP1 JUMP JUMPDEST POP PUSH1 0x1 PUSH1 0x1 PUSH1 0x80 SHL SUB PUSH1 0x4 DUP4 ADD SLOAD AND ISZERO PUSH2 0x3180 JUMP JUMPDEST ISZERO PUSH2 0x3248 JUMPI JUMP JUMPDEST PUSH1 0x40 MLOAD PUSH3 0x461BCD PUSH1 0xE5 SHL DUP2 MSTORE PUSH1 0x20 PUSH1 0x4 DUP3 ADD MSTORE PUSH1 0x9 PUSH1 0x24 DUP3 ADD MSTORE PUSH9 0x2737BA1037BBB732B9 PUSH1 0xB9 SHL PUSH1 0x44 DUP3 ADD MSTORE PUSH1 0x64 SWAP1 REVERT JUMPDEST ISZERO PUSH2 0x3280 JUMPI JUMP JUMPDEST PUSH1 0x40 MLOAD PUSH3 0x461BCD PUSH1 0xE5 SHL DUP2 MSTORE PUSH1 0x20 PUSH1 0x4 DUP3 ADD MSTORE PUSH1 0x7 PUSH1 0x24 DUP3 ADD MSTORE PUSH7 0x7A65726F20746F PUSH1 0xC8 SHL PUSH1 0x44 DUP3 ADD MSTORE PUSH1 0x64 SWAP1 REVERT JUMPDEST MLOAD SWAP1 DUP2 ISZERO ISZERO DUP3 SUB PUSH2 0x2EDB JUMPI JUMP JUMPDEST ISZERO PUSH2 0x32C3 JUMPI JUMP JUMPDEST PUSH1 0x40 MLOAD PUSH3 0x461BCD PUSH1 0xE5 SHL DUP2 MSTORE PUSH1 0x20 PUSH1 0x4 DUP3 ADD MSTORE PUSH1 0x7 PUSH1 0x24 DUP3 ADD MSTORE PUSH7 0x1D1E0819985A5B PUSH1 0xCA SHL PUSH1 0x44 DUP3 ADD MSTORE PUSH1 0x64 SWAP1 REVERT JUMPDEST ISZERO PUSH2 0x32F9 JUMPI JUMP JUMPDEST PUSH1 0x64 PUSH1 0x40 MLOAD PUSH3 0x461BCD PUSH1 0xE5 SHL DUP2 MSTORE PUSH1 0x20 PUSH1 0x4 DUP3 ADD MSTORE PUSH1 0x4 PUSH1 0x24 DUP3 ADD MSTORE PUSH4 0x7A65726F PUSH1 0xE0 SHL PUSH1 0x44 DUP3 ADD MSTORE REVERT JUMPDEST ISZERO PUSH2 0x332B JUMPI JUMP JUMPDEST PUSH1 0x40 MLOAD PUSH3 0x461BCD PUSH1 0xE5 SHL DUP2 MSTORE PUSH1 0x20 PUSH1 0x4 DUP3 ADD MSTORE PUSH1 0x6 PUSH1 0x24 DUP3 ADD MSTORE PUSH6 0x189859081A59 PUSH1 0xD2 SHL PUSH1 0x44 DUP3 ADD MSTORE PUSH1 0x64 SWAP1 REVERT JUMPDEST ISZERO PUSH2 0x3360 JUMPI JUMP JUMPDEST PUSH1 0x40 MLOAD PUSH3 0x461BCD PUSH1 0xE5 SHL DUP2 MSTORE PUSH1 0x20 PUSH1 0x4 DUP3 ADD MSTORE PUSH1 0x6 PUSH1 0x24 DUP3 ADD MSTORE PUSH6 0x14185D5CD959 PUSH1 0xD2 SHL PUSH1 0x44 DUP3 ADD MSTORE PUSH1 0x64 SWAP1 REVERT JUMPDEST CALLDATALOAD PUSH1 0x1 PUSH1 0x1 PUSH1 0xA0 SHL SUB DUP2 AND DUP2 SUB PUSH2 0x2EDB JUMPI SWAP1 JUMP JUMPDEST MLOAD SWAP1 PUSH1 0x1 PUSH1 0x1 PUSH1 0x80 SHL SUB DUP3 AND DUP3 SUB PUSH2 0x2EDB JUMPI JUMP JUMPDEST SWAP2 SWAP1 SWAP2 PUSH1 0x1 PUSH1 0x1 PUSH1 0x80 SHL SUB DUP1 DUP1 SWAP5 AND SWAP2 AND ADD SWAP2 DUP3 GT PUSH2 0x3112 JUMPI JUMP JUMPDEST SWAP2 SWAP1 DUP2 LT ISZERO PUSH2 0x3023 JUMPI PUSH1 0x5 SHL ADD SWAP1 JUMP JUMPDEST CALLDATALOAD DUP1 ISZERO ISZERO DUP2 SUB PUSH2 0x2EDB JUMPI SWAP1 JUMP JUMPDEST PUSH1 0x1 PUSH1 0x1 PUSH1 0x40 SHL SUB DUP2 GT PUSH2 0xA92 JUMPI PUSH1 0x5 SHL PUSH1 0x20 ADD SWAP1 JUMP JUMPDEST SWAP2 SWAP1 DUP3 PUSH1 0x40 SWAP2 SUB SLT PUSH2 0x2EDB JUMPI PUSH1 0x20 DUP3 MLOAD SWAP3 ADD MLOAD SWAP1 JUMP JUMPDEST SWAP2 SWAP1 SWAP2 PUSH1 0x60 PUSH1 0x80 DUP3 ADD SWAP4 DUP1 MLOAD DUP4 MSTORE PUSH1 0x1 DUP1 PUSH1 0xA0 SHL SUB PUSH1 0x20 DUP3 ADD MLOAD AND PUSH1 0x20 DUP5 ADD MSTORE DUP2 PUSH1 0x40 DUP3 ADD MLOAD SWAP2 PUSH1 0x1 PUSH1 0x1 PUSH1 0x80 SHL SUB DUP1 SWAP4 AND PUSH1 0x40 DUP7 ADD MSTORE ADD MLOAD AND SWAP2 ADD MSTORE JUMP JUMPDEST PUSH1 0x1 PUSH1 0x1 PUSH1 0x80 SHL SUB SWAP2 DUP3 AND SWAP1 DUP3 AND SUB SWAP2 SWAP1 DUP3 GT PUSH2 0x3112 JUMPI JUMP JUMPDEST DUP2 ISZERO PUSH2 0x3225 JUMPI PUSH1 0x1 PUSH1 0x1 PUSH1 0xA0 SHL SUB SWAP1 DUP1 DUP3 AND PUSH20 0x17392E5483983945DEB92E0518A8F2C4EB6BA59D DUP2 EQ PUSH2 0x35D9 JUMPI PUSH20 0x2CFC85D8E48F8EAB294BE644D9E25C3030863003 DUP2 EQ PUSH2 0x35BD JUMPI PUSH20 0x79A02482A880BCE3F13E09DA970DC34DB4CD24D1 DUP2 EQ PUSH2 0x3590 JUMPI PUSH1 0x0 MSTORE PUSH1 0x6 PUSH1 0x20 MSTORE PUSH1 0x40 PUSH1 0x0 KECCAK256 PUSH1 0x40 MLOAD SWAP1 PUSH2 0x34F0 DUP3 PUSH2 0x2F7E JUMP JUMPDEST SLOAD PUSH1 0xFF DUP5 DUP3 AND SWAP2 DUP3 DUP5 MSTORE PUSH1 0xA0 SHR AND ISZERO ISZERO DUP1 PUSH1 0x20 DUP5 ADD MSTORE DUP2 ISZERO PUSH2 0x3585 JUMPI ISZERO PUSH2 0x355F JUMPI POP DUP3 PUSH1 0x8 SLOAD AND SWAP1 DUP2 ISZERO DUP1 ISZERO PUSH2 0x3553 JUMPI JUMPDEST PUSH2 0x3549 JUMPI PUSH2 0x321A SWAP5 PUSH2 0x353F SWAP4 DUP6 PUSH2 0x3539 SWAP4 MLOAD AND PUSH2 0x3B60 JUMP JUMPDEST SWAP1 PUSH2 0x3A3A JUMP JUMPDEST SWAP1 PUSH1 0x7 SLOAD AND PUSH2 0x3A3A JUMP JUMPDEST POP POP POP POP POP PUSH1 0x0 SWAP1 JUMP JUMPDEST POP DUP4 PUSH1 0x7 SLOAD AND ISZERO PUSH2 0x3521 JUMP JUMPDEST SWAP2 SWAP4 SWAP3 SWAP1 POP PUSH1 0x7 SLOAD AND SWAP2 DUP3 ISZERO PUSH2 0x357C JUMPI PUSH2 0x321A SWAP4 PUSH2 0x3539 SWAP3 PUSH2 0x3ACA JUMP JUMPDEST POP POP POP POP PUSH1 0x0 SWAP1 JUMP JUMPDEST POP POP POP POP POP POP PUSH1 0x0 SWAP1 JUMP JUMPDEST POP POP DUP1 PUSH1 0x8 SLOAD AND DUP1 ISZERO DUP1 ISZERO PUSH2 0x35B1 JUMPI JUMPDEST PUSH2 0x321D JUMPI PUSH2 0x321A SWAP3 PUSH2 0x353F SWAP2 PUSH2 0x3A3A JUMP JUMPDEST POP DUP2 PUSH1 0x7 SLOAD AND ISZERO PUSH2 0x35A0 JUMP JUMPDEST POP POP PUSH1 0x7 SLOAD AND SWAP1 DUP2 PUSH2 0x35D0 JUMPI POP POP PUSH1 0x0 SWAP1 JUMP JUMPDEST PUSH2 0x321A SWAP2 PUSH2 0x3A3A JUMP JUMPDEST POP POP POP SWAP1 JUMP JUMPDEST MLOAD SWAP1 PUSH2 0xFFFF DUP3 AND DUP3 SUB PUSH2 0x2EDB JUMPI JUMP JUMPDEST SWAP1 DUP2 PUSH1 0xE0 SWAP2 SUB SLT PUSH2 0x2EDB JUMPI DUP1 MLOAD PUSH1 0x1 PUSH1 0x1 PUSH1 0xA0 SHL SUB DUP2 AND DUP2 SUB PUSH2 0x2EDB JUMPI SWAP2 PUSH1 0x20 DUP3 ADD MLOAD DUP1 PUSH1 0x2 SIGNEXTEND DUP2 SUB PUSH2 0x2EDB JUMPI SWAP2 PUSH2 0x3628 PUSH1 0x40 DUP3 ADD PUSH2 0x35DF JUMP JUMPDEST SWAP2 PUSH2 0x3635 PUSH1 0x60 DUP4 ADD PUSH2 0x35DF JUMP JUMPDEST SWAP2 PUSH2 0x3642 PUSH1 0x80 DUP3 ADD PUSH2 0x35DF JUMP JUMPDEST SWAP2 PUSH1 0xA0 DUP3 ADD MLOAD PUSH1 0xFF DUP2 AND DUP2 SUB PUSH2 0x2EDB JUMPI PUSH1 0xC0 PUSH2 0x321A SWAP2 SWAP4 ADD PUSH2 0x32AF JUMP JUMPDEST PUSH1 0x3 DUP2 ADD SLOAD ISZERO DUP1 ISZERO PUSH2 0x377E JUMPI JUMPDEST DUP1 ISZERO PUSH2 0x3769 JUMPI JUMPDEST PUSH2 0x3763 JUMPI PUSH1 0x2 DUP2 ADD SLOAD PUSH1 0x40 MLOAD PUSH4 0x3850C7BD PUSH1 0xE0 SHL DUP2 MSTORE PUSH1 0x1 PUSH1 0x1 PUSH1 0xA0 SHL SUB SWAP3 SWAP2 PUSH1 0xE0 SWAP1 DUP3 SWAP1 PUSH1 0x4 SWAP1 DUP3 SWAP1 DUP8 AND GAS STATICCALL DUP1 ISZERO PUSH2 0x3757 JUMPI DUP4 SWAP2 PUSH1 0x0 SWAP2 PUSH2 0x3722 JUMPI JUMPDEST POP AND DUP1 ISZERO PUSH2 0x321D JUMPI PUSH1 0x4 DUP3 ADD SLOAD PUSH1 0x60 DUP2 SWAP1 SHL PUSH16 0xFFFFFFFFFFFFFFFFFFFFFFFFFFFFFFFF PUSH1 0x60 SHL AND SWAP4 PUSH1 0x1 PUSH1 0x1 PUSH1 0x80 SHL SUB SWAP1 SWAP2 AND SWAP1 DUP2 ISZERO PUSH1 0x1 PUSH1 0x60 SHL DUP4 DUP8 DIV EQ OR ISZERO PUSH2 0x3112 JUMPI PUSH1 0x1 PUSH2 0x1F87 PUSH2 0x3715 DUP6 PUSH2 0x370F PUSH2 0x1F4F SWAP8 PUSH2 0x321A SWAP11 PUSH2 0x3148 JUMP JUMPDEST SWAP6 PUSH2 0x3135 JUMP JUMPDEST PUSH1 0x60 SHR SWAP4 DUP4 DUP8 SLOAD AND PUSH2 0x3473 JUMP JUMPDEST PUSH2 0x3744 SWAP2 POP PUSH1 0xE0 RETURNDATASIZE PUSH1 0xE0 GT PUSH2 0x3750 JUMPI JUMPDEST PUSH2 0x373C DUP2 DUP4 PUSH2 0x2FC7 JUMP JUMPDEST DUP2 ADD SWAP1 PUSH2 0x35EE JUMP JUMPDEST POP POP POP POP POP POP CODESIZE PUSH2 0x36B1 JUMP JUMPDEST POP RETURNDATASIZE PUSH2 0x3732 JUMP JUMPDEST PUSH1 0x40 MLOAD RETURNDATASIZE PUSH1 0x0 DUP3 RETURNDATACOPY RETURNDATASIZE SWAP1 REVERT JUMPDEST POP PUSH1 0x0 SWAP1 JUMP JUMPDEST POP PUSH1 0x2 DUP2 ADD SLOAD PUSH1 0x1 PUSH1 0x1 PUSH1 0xA0 SHL SUB AND ISZERO PUSH2 0x3673 JUMP JUMPDEST POP PUSH1 0x1 PUSH1 0x1 PUSH1 0x80 SHL SUB PUSH1 0x4 DUP3 ADD SLOAD AND ISZERO PUSH2 0x366C JUMP JUMPDEST PUSH2 0x379C SWAP1 PUSH2 0x2FE8 JUMP JUMPDEST POP PUSH1 0x3 DUP2 ADD SLOAD SWAP1 DUP2 ISZERO DUP1 ISZERO PUSH2 0x3943 JUMPI JUMPDEST PUSH2 0x393F JUMPI PUSH1 0x40 DUP1 MLOAD PUSH2 0x37F5 SWAP4 PUSH2 0x37C1 DUP3 PUSH2 0x2FAC JUMP JUMPDEST DUP2 MSTORE ADDRESS PUSH1 0x20 DUP3 ADD MSTORE PUSH1 0x1 PUSH1 0x1 PUSH1 0x80 SHL SUB SWAP1 DUP2 DUP4 DUP3 ADD MSTORE DUP2 PUSH1 0x60 DUP3 ADD MSTORE DUP3 MLOAD SWAP5 DUP6 SWAP2 PUSH4 0xFC6F7865 PUSH1 0xE0 SHL DUP4 MSTORE PUSH1 0x4 DUP4 ADD PUSH2 0x341B JUMP JUMPDEST PUSH1 0x0 SWAP4 SWAP2 DUP3 SWAP2 DUP8 SWAP2 SWAP1 SUB DUP2 DUP7 PUSH32 0x0 PUSH1 0x1 PUSH1 0x1 PUSH1 0xA0 SHL SUB AND GAS CALL SWAP5 DUP6 ISZERO PUSH2 0x3935 JUMPI DUP4 SWAP2 DUP5 SWAP7 PUSH2 0x3911 JUMPI JUMPDEST POP POP DUP1 ISZERO DUP1 ISZERO PUSH2 0x38C2 JUMPI JUMPDEST POP POP DUP4 ISZERO SWAP2 DUP3 ISZERO PUSH2 0x385B JUMPI JUMPDEST POP POP POP POP POP JUMP JUMPDEST PUSH1 0x80 DUP6 SWAP1 SHL SWAP3 PUSH1 0x1 PUSH1 0x80 SHL DUP7 DUP6 DIV EQ OR ISZERO PUSH2 0x38AE JUMPI POP SWAP2 PUSH2 0x3888 PUSH1 0x8 SWAP3 PUSH2 0x38A2 SWAP5 PUSH1 0x4 DUP5 ADD SLOAD AND SWAP1 PUSH2 0x3148 JUMP JUMPDEST PUSH2 0x3897 PUSH1 0x6 DUP4 ADD SWAP2 DUP3 SLOAD PUSH2 0x3128 JUMP JUMPDEST SWAP1 SSTORE ADD SWAP2 DUP3 SLOAD PUSH2 0x3128 JUMP JUMPDEST SWAP1 SSTORE CODESIZE DUP1 DUP1 DUP1 DUP1 PUSH2 0x3854 JUMP JUMPDEST PUSH4 0x4E487B71 PUSH1 0xE0 SHL DUP2 MSTORE PUSH1 0x11 PUSH1 0x4 MSTORE PUSH1 0x24 SWAP1 REVERT JUMPDEST PUSH1 0x80 DUP3 SWAP1 SHL SWAP1 PUSH1 0x1 PUSH1 0x80 SHL DUP4 DUP4 DIV EQ OR ISZERO PUSH2 0xAA8 JUMPI PUSH2 0x38E8 SWAP1 DUP4 PUSH1 0x4 DUP8 ADD SLOAD AND SWAP1 PUSH2 0x3148 JUMP JUMPDEST PUSH2 0x38F7 PUSH1 0x5 DUP7 ADD SWAP2 DUP3 SLOAD PUSH2 0x3128 JUMP JUMPDEST SWAP1 SSTORE PUSH2 0x3908 PUSH1 0x7 DUP6 ADD SWAP2 DUP3 SLOAD PUSH2 0x3128 JUMP JUMPDEST SWAP1 SSTORE CODESIZE DUP1 PUSH2 0x3848 JUMP JUMPDEST PUSH2 0x392C SWAP4 SWAP7 POP DUP1 SWAP2 SWAP3 POP SWAP1 RETURNDATASIZE LT PUSH2 0xA5C JUMPI PUSH2 0xA4D DUP2 DUP4 PUSH2 0x2FC7 JUMP JUMPDEST SWAP4 SWAP1 CODESIZE DUP1 PUSH2 0x383D JUMP JUMPDEST DUP2 MLOAD RETURNDATASIZE DUP6 DUP3 RETURNDATACOPY RETURNDATASIZE SWAP1 REVERT JUMPDEST POP POP JUMP JUMPDEST POP PUSH1 0x1 PUSH1 0x1 PUSH1 0x80 SHL SUB PUSH1 0x4 DUP3 ADD SLOAD AND ISZERO PUSH2 0x37AC JUMP JUMPDEST PUSH2 0x3961 DUP2 PUSH2 0x2FE8 JUMP JUMPDEST POP PUSH1 0x0 SWAP2 DUP3 MSTORE PUSH1 0x5 PUSH1 0x20 SWAP1 DUP2 MSTORE PUSH1 0x40 DUP1 DUP5 KECCAK256 PUSH1 0x1 PUSH1 0x1 PUSH1 0xA0 SHL SUB SWAP1 SWAP6 AND DUP5 MSTORE SWAP4 SWAP1 MSTORE SWAP2 DUP2 KECCAK256 DUP1 SLOAD SWAP1 SWAP2 PUSH1 0x1 PUSH1 0x1 PUSH1 0x80 SHL SUB SWAP2 DUP3 AND ISZERO PUSH2 0x3A29 JUMPI POP PUSH2 0x39BE SWAP1 DUP3 SLOAD AND PUSH1 0x6 PUSH2 0x39B2 PUSH1 0x5 DUP7 ADD SLOAD DUP4 PUSH2 0x3135 JUMP JUMPDEST PUSH1 0x80 SHR SWAP5 ADD SLOAD SWAP1 PUSH2 0x3135 JUMP JUMPDEST PUSH1 0x80 SHR SWAP2 PUSH1 0x1 DUP3 ADD DUP1 SLOAD DUP1 DUP4 GT PUSH2 0x3A08 JUMPI JUMPDEST POP PUSH1 0x2 DUP4 ADD SWAP3 DUP4 SLOAD DUP1 DUP7 GT PUSH2 0x39E6 JUMPI JUMPDEST POP POP SSTORE SSTORE JUMP JUMPDEST PUSH1 0x4 PUSH2 0x39F5 PUSH2 0x39FF SWAP3 DUP9 PUSH2 0x3105 JUMP JUMPDEST SWAP3 ADD SWAP2 DUP3 SLOAD PUSH2 0x3128 JUMP JUMPDEST SWAP1 SSTORE CODESIZE DUP1 PUSH2 0x39E0 JUMP JUMPDEST PUSH2 0x3A12 SWAP1 DUP4 PUSH2 0x3105 JUMP JUMPDEST PUSH2 0x3A21 PUSH1 0x3 DUP6 ADD SWAP2 DUP3 SLOAD PUSH2 0x3128 JUMP JUMPDEST SWAP1 SSTORE CODESIZE PUSH2 0x39D0 JUMP JUMPDEST DUP1 SWAP4 POP DUP3 SWAP2 POP PUSH1 0x1 PUSH1 0x2 SWAP4 ADD SSTORE ADD SSTORE JUMP JUMPDEST SWAP1 DUP1 ISZERO DUP1 ISZERO PUSH2 0x3AB9 JUMPI JUMPDEST PUSH2 0x3225 JUMPI PUSH1 0x40 MLOAD PUSH4 0x3850C7BD PUSH1 0xE0 SHL DUP2 MSTORE PUSH1 0x1 PUSH1 0x1 PUSH1 0xA0 SHL SUB SWAP3 PUSH1 0xE0 SWAP1 DUP3 SWAP1 PUSH1 0x4 SWAP1 DUP3 SWAP1 DUP8 AND GAS STATICCALL SWAP3 DUP4 ISZERO PUSH2 0x3757 JUMPI PUSH2 0x321A SWAP4 PUSH2 0x3A8B SWAP3 PUSH1 0x0 SWAP2 PUSH2 0x3A94 JUMPI JUMPDEST POP AND DUP1 PUSH2 0x3135 JUMP JUMPDEST SWAP1 PUSH1 0xC0 SHL PUSH2 0x3148 JUMP JUMPDEST PUSH2 0x3AAD SWAP2 POP PUSH1 0xE0 RETURNDATASIZE PUSH1 0xE0 GT PUSH2 0x3750 JUMPI PUSH2 0x373C DUP2 DUP4 PUSH2 0x2FC7 JUMP JUMPDEST POP POP POP POP POP POP CODESIZE PUSH2 0x3A83 JUMP JUMPDEST POP PUSH1 0x1 PUSH1 0x1 PUSH1 0xA0 SHL SUB DUP3 AND ISZERO PUSH2 0x3A44 JUMP JUMPDEST DUP3 ISZERO DUP1 ISZERO PUSH2 0x3B4F JUMPI JUMPDEST PUSH2 0x321D JUMPI PUSH1 0x40 MLOAD PUSH4 0x3850C7BD PUSH1 0xE0 SHL DUP2 MSTORE SWAP1 PUSH1 0x1 PUSH1 0x1 PUSH1 0xA0 SHL SUB SWAP1 PUSH1 0xE0 SWAP1 DUP4 SWAP1 PUSH1 0x4 SWAP1 DUP3 SWAP1 DUP6 AND GAS STATICCALL DUP1 ISZERO PUSH2 0x3757 JUMPI DUP2 PUSH2 0x3B2C SWAP2 PUSH20 0x2CFC85D8E48F8EAB294BE644D9E25C3030863003 SWAP5 PUSH1 0x0 SWAP2 PUSH2 0x3A94 JUMPI POP AND DUP1 PUSH2 0x3135 JUMP JUMPDEST SWAP3 AND LT ISZERO PUSH2 0x3B43 JUMPI PUSH2 0x3B3D SWAP2 PUSH2 0x3135 JUMP JUMPDEST PUSH1 0xC0 SHR SWAP1 JUMP JUMPDEST PUSH2 0x321A SWAP2 PUSH1 0xC0 SHL PUSH2 0x3148 JUMP JUMPDEST POP PUSH1 0x1 PUSH1 0x1 PUSH1 0xA0 SHL SUB DUP2 AND ISZERO PUSH2 0x3AD3 JUMP JUMPDEST DUP3 ISZERO DUP1 ISZERO PUSH2 0x3BC2 JUMPI JUMPDEST PUSH2 0x321D JUMPI PUSH1 0x40 MLOAD PUSH4 0x3850C7BD PUSH1 0xE0 SHL DUP2 MSTORE SWAP1 PUSH1 0x1 PUSH1 0x1 PUSH1 0xA0 SHL SUB SWAP1 PUSH1 0xE0 SWAP1 DUP4 SWAP1 PUSH1 0x4 SWAP1 DUP3 SWAP1 DUP6 AND GAS STATICCALL DUP1 ISZERO PUSH2 0x3757 JUMPI DUP2 PUSH2 0x3B2C SWAP2 PUSH20 0x79A02482A880BCE3F13E09DA970DC34DB4CD24D1 SWAP5 PUSH1 0x0 SWAP2 PUSH2 0x3A94 JUMPI POP AND DUP1 PUSH2 0x3135 JUMP JUMPDEST POP PUSH1 0x1 PUSH1 0x1 PUSH1 0xA0 SHL SUB DUP2 AND ISZERO PUSH2 0x3B69 JUMP INVALID 0xBA 0xCF DUP16 PUSH13 0x1ED84A94C12E881A538D4839D9 POP SLOAD PUSH11 0x7BE9A95FF970802CAFB83A INVALID LOG2 PUSH5 0x6970667358 0x22 SLT KECCAK256 LT TLOAD DUP3 0xB6 BLOBHASH KECCAK256 0xE 0x25 0xD8 SWAP8 PUSH22 0x836FE850D2BE7F9E4435FD665307BBA44924C3EE0864 PUSH20 0x6F6C634300081800330000000000000000000000 "},"methodIdentifiers":{"BPS()":"249d39e9","H2O()":"feaa524d","MAX_FEE_BPS()":"d55be8c6","NPM()":"82ff8414","PERMIT2()":"6afdd850","SECONDS_PER_YEAR()":"e6a69ab8","USDC()":"89a30271","WLD()":"de061d66","addPool(address,address,uint24,int24,int24,address,bool)":"436fa38c","claim(uint256)":"379607f5","claimFeeBps()":"7a526f4e","contractTokenBalance(address)":"66e3e5e4","deposit(uint256,((address,uint256),uint256,uint256),bytes,((address,uint256),uint256,uint256),bytes,uint256,uint256)":"8a7a9ec4","depositFeeBps()":"ab879827","estimateAprBps(uint256)":"06a3cda5","getAllPools()":"d88ff1f4","getOwnerFees(address[])":"b6870e83","getPool(uint256)":"068bcd8d","getUserPosition(uint256,address)":"869da9db","harvest(uint256)":"ddc63262","onERC721Received(address,address,uint256,bytes)":"150b7a02","owner()":"8da5cb5b","ownerCollectedFees(address)":"285a0337","pause()":"8456cb59","paused()":"5c975abb","poolsCount()":"8c788de0","priceRoutes(address)":"c2c21a01","setFees(uint256,uint256,uint256)":"cec10c11","setOwner(address)":"13af4035","setPoolAddr(uint256,address)":"a360dd6a","setPoolStatus(uint256,bool,bool)":"20cd6d9b","setPriceRoute(address,address,bool)":"a1220cc1","setPriceRoutesBatch(address[],address[],bool[])":"99e0538c","setUsdcWldPool(address)":"903bd41e","setWldH2OPool(address)":"f12077ac","tokenValueInH2O(address,uint256)":"df5bfea5","unpause()":"3f4ba83a","usdcWldPool()":"1d87832f","withdraw(uint256,uint128,uint256,uint256)":"cf5b004c","withdrawAll(address,address)":"09cae2c8","withdrawFeeBps()":"7aca2b59","withdrawToken(address,uint256,address)":"3ccdbb28","wldH2OPool()":"c6c21603"}}}}}