{"contracts/acuav2.sol":{"UniversalStakingWithVip":{"abi":[{"inputs":[{"internalType":"address","name":"h2o","type":"address"},{"internalType":"address","name":"uth2","type":"address"},{"internalType":"address","name":"owner1","type":"address"}],"stateMutability":"nonpayable","type":"constructor"},{"anonymous":false,"inputs":[{"indexed":true,"internalType":"address","name":"user","type":"address"},{"indexed":false,"internalType":"uint256","name":"amount","type":"uint256"},{"indexed":false,"internalType":"uint256","name":"fee","type":"uint256"}],"name":"Claimed","type":"event"},{"anonymous":false,"inputs":[{"indexed":true,"internalType":"address","name":"token","type":"address"},{"indexed":true,"internalType":"address","name":"to","type":"address"},{"indexed":false,"internalType":"uint256","name":"amount","type":"uint256"}],"name":"EmergencyWithdraw","type":"event"},{"anonymous":false,"inputs":[{"indexed":false,"internalType":"uint256","name":"stakeFeeBps","type":"uint256"},{"indexed":false,"internalType":"uint256","name":"unstakeFeeBps","type":"uint256"},{"indexed":false,"internalType":"uint256","name":"claimFeeBps","type":"uint256"}],"name":"FeeConfigured","type":"event"},{"anonymous":false,"inputs":[{"indexed":true,"internalType":"address","name":"owner","type":"address"}],"name":"OwnerAdded","type":"event"},{"anonymous":false,"inputs":[{"indexed":true,"internalType":"address","name":"owner","type":"address"}],"name":"OwnerRemoved","type":"event"},{"anonymous":false,"inputs":[{"indexed":true,"internalType":"address","name":"by","type":"address"}],"name":"Paused","type":"event"},{"anonymous":false,"inputs":[{"indexed":true,"internalType":"address","name":"depositor","type":"address"},{"indexed":false,"internalType":"uint256","name":"amount","type":"uint256"},{"indexed":false,"internalType":"uint256","name":"newRate","type":"uint256"},{"indexed":false,"internalType":"uint256","name":"periodEnd","type":"uint256"}],"name":"RewardsDeposited","type":"event"},{"anonymous":false,"inputs":[{"indexed":true,"internalType":"address","name":"user","type":"address"},{"indexed":false,"internalType":"uint256","name":"amount","type":"uint256"},{"indexed":false,"internalType":"uint256","name":"fee","type":"uint256"}],"name":"Staked","type":"event"},{"anonymous":false,"inputs":[{"indexed":true,"internalType":"address","name":"by","type":"address"}],"name":"Unpaused","type":"event"},{"anonymous":false,"inputs":[{"indexed":true,"internalType":"address","name":"user","type":"address"},{"indexed":false,"internalType":"uint256","name":"amount","type":"uint256"},{"indexed":false,"internalType":"uint256","name":"fee","type":"uint256"}],"name":"Unstaked","type":"event"},{"anonymous":false,"inputs":[{"indexed":true,"internalType":"address","name":"user","type":"address"},{"indexed":false,"internalType":"uint256","name":"expire","type":"uint256"}],"name":"VipPaid","type":"event"},{"inputs":[],"name":"BPS","outputs":[{"internalType":"uint256","name":"","type":"uint256"}],"stateMutability":"view","type":"function"},{"inputs":[],"name":"FEE_TO_REWARD_BPS","outputs":[{"internalType":"uint256","name":"","type":"uint256"}],"stateMutability":"view","type":"function"},{"inputs":[],"name":"H2O","outputs":[{"internalType":"address","name":"","type":"address"}],"stateMutability":"view","type":"function"},{"inputs":[],"name":"MAX_FEE_BPS","outputs":[{"internalType":"uint256","name":"","type":"uint256"}],"stateMutability":"view","type":"function"},{"inputs":[],"name":"MAX_OWNERS","outputs":[{"internalType":"uint256","name":"","type":"uint256"}],"stateMutability":"view","type":"function"},{"inputs":[],"name":"PERMIT2","outputs":[{"internalType":"address","name":"","type":"address"}],"stateMutability":"view","type":"function"},{"inputs":[],"name":"REWARD_DURATION","outputs":[{"internalType":"uint256","name":"","type":"uint256"}],"stateMutability":"view","type":"function"},{"inputs":[],"name":"UTH2","outputs":[{"internalType":"address","name":"","type":"address"}],"stateMutability":"view","type":"function"},{"inputs":[{"internalType":"address","name":"addr","type":"address"}],"name":"addOwner","outputs":[],"stateMutability":"nonpayable","type":"function"},{"inputs":[],"name":"apyBps","outputs":[{"internalType":"uint256","name":"","type":"uint256"}],"stateMutability":"view","type":"function"},{"inputs":[{"internalType":"uint256","name":"numMonths","type":"uint256"}],"name":"buyVIP","outputs":[],"stateMutability":"nonpayable","type":"function"},{"inputs":[],"name":"claimFeeBps","outputs":[{"internalType":"uint256","name":"","type":"uint256"}],"stateMutability":"view","type":"function"},{"inputs":[],"name":"claimRewards","outputs":[],"stateMutability":"nonpayable","type":"function"},{"inputs":[],"name":"contractTokenBalance","outputs":[{"internalType":"uint256","name":"","type":"uint256"}],"stateMutability":"view","type":"function"},{"inputs":[{"internalType":"uint256","name":"amount","type":"uint256"}],"name":"depositRewards","outputs":[],"stateMutability":"nonpayable","type":"function"},{"inputs":[{"internalType":"address","name":"account","type":"address"}],"name":"earned","outputs":[{"internalType":"uint256","name":"","type":"uint256"}],"stateMutability":"view","type":"function"},{"inputs":[{"internalType":"address","name":"token","type":"address"},{"internalType":"uint256","name":"amount","type":"uint256"},{"internalType":"address","name":"to","type":"address"}],"name":"emergencyWithdraw","outputs":[],"stateMutability":"nonpayable","type":"function"},{"inputs":[],"name":"getOwners","outputs":[{"internalType":"address[3]","name":"","type":"address[3]"}],"stateMutability":"view","type":"function"},{"inputs":[{"internalType":"address","name":"user","type":"address"}],"name":"getStakeInfo","outputs":[{"internalType":"uint256","name":"stakedAmount","type":"uint256"},{"internalType":"uint256","name":"stakedAt","type":"uint256"},{"internalType":"uint256","name":"lastClaimAt","type":"uint256"},{"internalType":"uint256","name":"pendingRewards","type":"uint256"},{"internalType":"bool","name":"active","type":"bool"}],"stateMutability":"view","type":"function"},{"inputs":[{"internalType":"address","name":"user","type":"address"}],"name":"isVip","outputs":[{"internalType":"bool","name":"","type":"bool"}],"stateMutability":"view","type":"function"},{"inputs":[],"name":"lastTimeRewardApplicable","outputs":[{"internalType":"uint256","name":"","type":"uint256"}],"stateMutability":"view","type":"function"},{"inputs":[],"name":"lastUpdateTime","outputs":[{"internalType":"uint256","name":"","type":"uint256"}],"stateMutability":"view","type":"function"},{"inputs":[],"name":"ownerCount","outputs":[{"internalType":"uint256","name":"","type":"uint256"}],"stateMutability":"view","type":"function"},{"inputs":[{"internalType":"uint256","name":"","type":"uint256"}],"name":"owners","outputs":[{"internalType":"address","name":"","type":"address"}],"stateMutability":"view","type":"function"},{"inputs":[],"name":"pause","outputs":[],"stateMutability":"nonpayable","type":"function"},{"inputs":[],"name":"paused","outputs":[{"internalType":"bool","name":"","type":"bool"}],"stateMutability":"view","type":"function"},{"inputs":[],"name":"periodFinish","outputs":[{"internalType":"uint256","name":"","type":"uint256"}],"stateMutability":"view","type":"function"},{"inputs":[{"internalType":"address","name":"addr","type":"address"}],"name":"removeOwner","outputs":[],"stateMutability":"nonpayable","type":"function"},{"inputs":[],"name":"rewardPerToken","outputs":[{"internalType":"uint256","name":"","type":"uint256"}],"stateMutability":"view","type":"function"},{"inputs":[],"name":"rewardPerTokenStored","outputs":[{"internalType":"uint256","name":"","type":"uint256"}],"stateMutability":"view","type":"function"},{"inputs":[],"name":"rewardRate","outputs":[{"internalType":"uint256","name":"","type":"uint256"}],"stateMutability":"view","type":"function"},{"inputs":[],"name":"rewardReserve","outputs":[{"internalType":"uint256","name":"","type":"uint256"}],"stateMutability":"view","type":"function"},{"inputs":[{"internalType":"uint256","name":"bps","type":"uint256"}],"name":"setClaimFee","outputs":[],"stateMutability":"nonpayable","type":"function"},{"inputs":[{"internalType":"uint256","name":"bps","type":"uint256"}],"name":"setStakeFee","outputs":[],"stateMutability":"nonpayable","type":"function"},{"inputs":[{"internalType":"uint256","name":"bps","type":"uint256"}],"name":"setUnstakeFee","outputs":[],"stateMutability":"nonpayable","type":"function"},{"inputs":[{"internalType":"uint256","name":"dur","type":"uint256"}],"name":"setVipDuration","outputs":[],"stateMutability":"nonpayable","type":"function"},{"inputs":[{"internalType":"uint256","name":"newPrice","type":"uint256"}],"name":"setVipPrice","outputs":[],"stateMutability":"nonpayable","type":"function"},{"inputs":[{"components":[{"components":[{"internalType":"address","name":"token","type":"address"},{"internalType":"uint256","name":"amount","type":"uint256"}],"internalType":"struct IPermit2.TokenPermissions","name":"permitted","type":"tuple"},{"internalType":"uint256","name":"nonce","type":"uint256"},{"internalType":"uint256","name":"deadline","type":"uint256"}],"internalType":"struct IPermit2.PermitTransferFrom","name":"permit","type":"tuple"},{"internalType":"bytes","name":"signature","type":"bytes"}],"name":"stake","outputs":[],"stateMutability":"nonpayable","type":"function"},{"inputs":[],"name":"stakeFeeBps","outputs":[{"internalType":"uint256","name":"","type":"uint256"}],"stateMutability":"view","type":"function"},{"inputs":[],"name":"totalStaked","outputs":[{"internalType":"uint256","name":"","type":"uint256"}],"stateMutability":"view","type":"function"},{"inputs":[],"name":"unpause","outputs":[],"stateMutability":"nonpayable","type":"function"},{"inputs":[],"name":"unstake","outputs":[],"stateMutability":"nonpayable","type":"function"},{"inputs":[],"name":"unstakeFeeBps","outputs":[{"internalType":"uint256","name":"","type":"uint256"}],"stateMutability":"view","type":"function"},{"inputs":[{"internalType":"address","name":"","type":"address"}],"name":"users","outputs":[{"internalType":"uint256","name":"staked","type":"uint256"},{"internalType":"uint256","name":"rewardPerTokenPaid","type":"uint256"},{"internalType":"uint256","name":"pendingReward","type":"uint256"},{"internalType":"uint256","name":"stakedAt","type":"uint256"},{"internalType":"uint256","name":"lastClaimAt","type":"uint256"}],"stateMutability":"view","type":"function"},{"inputs":[],"name":"vipDuration","outputs":[{"internalType":"uint256","name":"","type":"uint256"}],"stateMutability":"view","type":"function"},{"inputs":[{"internalType":"address","name":"","type":"address"}],"name":"vipExpire","outputs":[{"internalType":"uint256","name":"","type":"uint256"}],"stateMutability":"view","type":"function"},{"inputs":[{"internalType":"address","name":"user","type":"address"}],"name":"vipExpireAt","outputs":[{"internalType":"uint256","name":"","type":"uint256"}],"stateMutability":"view","type":"function"},{"inputs":[],"name":"vipPrice","outputs":[{"internalType":"uint256","name":"","type":"uint256"}],"stateMutability":"view","type":"function"}],"evm":{"bytecode":{"linkReferences":{},"object":"60c034620001b357601f62001ebe38819003918201601f191683019291906001600160401b03841183851017620001b8578160609284926040968752833981010312620001b3576200005181620001ce565b906200006d836200006560208401620001ce565b9201620001ce565b60c860048190556005819055600655670de0b6b3a7640000600f5562278d006010556001600160a01b039083821615620001845781831615620001545716918215620001235760805260a052600080546001600160a01b031916919091179055600160035551611cda9081620001e48239608051818181610244015281816107cd0152818161092801528181610fd0015281816111d101528181611b3c0152611c1b015260a05181818161028b01526103440152f35b835162461bcd60e51b815260206004820152600a6024820152692d32b9379037bbb732b960b11b6044820152606490fd5b845162461bcd60e51b81526020600482015260096024820152682d32b937902aaa241960b91b6044820152606490fd5b845162461bcd60e51b81526020600482015260086024820152675a65726f2048324f60c01b6044820152606490fd5b600080fd5b634e487b7160e01b600052604160045260246000fd5b51906001600160a01b0382168203620001b35756fe6040608081526004908136101561001557600080fd5b600091823560e01c90816218a116146114cd5781628cc262146114a7578163025e7c27146114745781630b8bb146146114585781630db0262214611439578163173825d91461140b5781631d9ab29a1461112a578163249d39e91461110d5781632def662014610f155781632e75ab5014610e9a5781633711b23f14610e7b578163372500ab14610d885781633ad5b8aa14610d6a5781633f4ba83a14610d1b57816351618ed314610cfe578163551512de14610beb5781635ade228a14610bcc5781635c975abb14610ba85781636afdd85014610b7e5781637065cb4814610b4d5781637a526f4e14610b2e5781637b0a47ee14610b0f57816380faa57d14610af2578163817b1cd214610ad357816384203f4b14610a995781638456cb5914610a475781638bdf67f2146108b45781639692065d14610851578163991bbde71461046b5781639e9aed621461079e578163a09337011461077f578163a0e67e2b146106ec578163a195aabd1461068c578163a87430ba14610629578163a93837bd14610540578163c3453153146105c6578163c8f33c91146105a7578163c8fc972914610588578163cab64bcd14610569578163cd3daf9d14610545578163d55be8c614610540578163df136d6514610521578163e2d7bee4146104a3578163e797f3651461046b578163e8295db2146102d857508063ebe2b12b146102ba578063f6c08a2e146102775763feaa524d1461023157600080fd5b34610273578160031936011261027357517f00000000000000000000000000000000000000000000000000000000000000006001600160a01b03168152602090f35b5080fd5b5034610273578160031936011261027357517f00000000000000000000000000000000000000000000000000000000000000006001600160a01b03168152602090f35b50346102735781600319360112610273576020906009549051908152f35b90503461046757602090816003193601126104635780359081151580610458575b1561042157908261033f939261031183600f54611610565b86516323b872dd60e01b81523392810192835230602084015260408301919091529485918291606090910190565b0381887f00000000000000000000000000000000000000000000000000000000000000006001600160a01b03165af1908115610417577f50161e82c116a36be92e4a19eff588437fd9f1e7da598c75303aa3d3b8dc5718936103c8926103ea575b503386526011835284862054428111156103df576103c290915b601054611610565b90611643565b92338552601182528381862055519283523392a280f35b506103c242916103ba565b61040990843d8611610410575b6104018183611834565b810190611856565b50386103a0565b503d6103f7565b84513d87823e3d90fd5b835162461bcd60e51b8152908101839052601160248201527018901e1e9036b7b73a3439901e1e90189960791b6044820152606490fd5b50600c8211156102f9565b8380fd5b8280fd5b5050346102735760203660031901126102735760209181906001600160a01b03610493611547565b1681526011845220549051908152f35b9190503461046757602036600319011261046757817f12c476dbe611207aa496773afc1cfedb660981ebe024c62f643a0aaec9bb7569923580916104ee6104e933611a65565b61157a565b6104fc6103e88311156115b2565b5560055460065492519182526020820152604081019190915280606081015b0390a180f35b505034610273578160031936011261027357602090600a549051908152f35b61155d565b505034610273578160031936011261027357602090610562611a14565b9051908152f35b505034610273578160031936011261027357602090600d549051908152f35b5050346102735781600319360112610273576020906005549051908152f35b505034610273578160031936011261027357602090600b549051908152f35b83915034610273576020366003190112610273578260a0936105e6611547565b93600180871b0385168152600e602052209261060c845493600386015495015491611650565b918051948486526020860152840152606083015215156080820152f35b919050346104675760203660031901126104675760a09281906001600160a01b03610652611547565b168152600e602052208054926001820154926002830154916003840154930154938151958652602086015284015260608301526080820152f35b905034610467576020366003190112610467578035916106ae6104e933611a65565b82156106bc575050600f5580f35b906020606492519162461bcd60e51b8352820152600a6024820152695a65726f20707269636560b01b6044820152fd5b82843461077c578060031936011261077c57906060815161070c81611802565b3690378051908280835b6003821061075c5750505061072a82611802565b519190825b6003831061073c57606084f35b81516001600160a01b03168152600192909201916020918201910161072f565b82546001600160a01b031681526001928301929190910190602001610716565b80fd5b5050346102735781600319360112610273576020906010549051908152f35b9190503461046757826003193601126104675780516370a0823160e01b815230928101929092526020826024817f00000000000000000000000000000000000000000000000000000000000000006001600160a01b03165afa91821561084757839261080f575b6020838351908152f35b9091506020813d60201161083f575b8161082b60209383611834565b810103126104675760209250519038610805565b3d915061081e565b81513d85823e3d90fd5b905034610467576020366003190112610467578035916108736104e933611a65565b62015180831061088557505060105580f35b906020606492519162461bcd60e51b83528201526009602482015268151bdbc81cda1bdc9d60ba1b6044820152fd5b838334610273576020366003190112610273578235906108d66104e933611a65565b6108de611a14565b600a556108e9611a02565b600b556108f78215156117c8565b80516323b872dd60e01b815233858201908152306020828101919091526040820185905290829081906060010381877f00000000000000000000000000000000000000000000000000000000000000006001600160a01b03165af18015610a3d57610a1e575b5061096a82600d54611643565b600d8190556009544281116109f55750506301e13380600d54046008555b42600b556301e133804201908142116109e2576009829055600d84905560085490519283526020830152604082015233907fb167f072295e46cb15516c982366f3856186579436fecbc2241827aa89a6685290606090a280f35b634e487b7160e01b845260118552602484fd5b6301e13380916103c2610a0c610a159342906115ed565b60085490611610565b04600855610988565b610a369060203d602011610410576104018183611834565b508461095d565b82513d86823e3d90fd5b833461077c578060031936011261077c57610a646104e933611a65565b600160ff196007541617600755337f62e78cea01bee320cd4e420270b5ea74000d11b0c9f74754ebdbfc544b05a2588280a280f35b5050346102735760203660031901126102735760209181906001600160a01b03610ac1611547565b16815260118452205490519042108152f35b505034610273578160031936011261027357602090600c549051908152f35b505034610273578160031936011261027357602090610562611a02565b5050346102735781600319360112610273576020906008549051908152f35b5050346102735781600319360112610273576020906006549051908152f35b833461077c57602036600319011261077c57610b7b610b6a611547565b610b766104e933611a65565b6118c8565b80f35b505034610273578160031936011261027357602090516e22d473030f116ddee9f6b43ac78ba38152f35b50503461027357816003193601126102735760209060ff6007541690519015158152f35b505034610273578160031936011261027357602090516301e133808152f35b90503461046757606036600319011261046757610c06611547565b6001600160a01b036044358181169460243593909290868303610cf957610c2f6104e933611a65565b8615610ccc57835163a9059cbb60e01b81526001600160a01b03909316958301958652602086810186905291169482908190604001038189885af18015610cc257917ff24ef89f38eadc1bde50701ad6e4d6d11a2dc24f7cf834a486991f38833285049391602093610ca5575b5051908152a380f35b610cbb90843d8611610410576104018183611834565b5038610c9c565b82513d88823e3d90fd5b835162461bcd60e51b815260208188015260076024820152665a65726f20746f60c81b6044820152606490fd5b600080fd5b50503461027357816003193601126102735760209061056261186e565b833461077c578060031936011261077c57610d386104e933611a65565b60ff1960075416600755337f5db9ee0a495bf2e6ff9c91a7834c1ba4fdd244a5e8aa4e537bd38aeae4b073aa8280a280f35b90503461046757826003193601126104675760209250549051908152f35b91905034610467578260031936011261046757610daa60ff6007541615611793565b610db2611a14565b600a55610dbd611a02565b600b5533610e54575b338352600e6020528083206002810154928315610e24575090610e14610e0d7f987d620f307ff6b94d58743cb7a7509f24071586a77759b77c2d4e29f75a2f9a9385611af7565b80946115ed565b815193845260208401523392a280f35b606490602084519162461bcd60e51b8352820152600a6024820152694e6f207265776172647360b01b6044820152fd5b610e5d33611650565b338452600e6020528184209060028201556001600a54910155610dc6565b505034610273578160031936011261027357602090600f549051908152f35b91905034610467576020366003190112610467578161051b7f12c476dbe611207aa496773afc1cfedb660981ebe024c62f643a0aaec9bb7569933591610ee26104e933611a65565b610ef06103e88411156115b2565b8260065554916005549351938493846040919493926060820195825260208201520152565b91905034610467578260031936011261046757610f3760ff6007541615611793565b610f3f611a14565b600a55610f4a611a02565b600b55336110e6575b3383526020600e815281842080549384156110b2578282610fcb926002600397969501548061106a575b5088610f8b6005548a611a9a565b9783828a95550155610f9f88600c546115ed565b600c55855163a9059cbb60e01b8152339181019182526020820192909252909283918291604090910190565b0381897f00000000000000000000000000000000000000000000000000000000000000006001600160a01b03165af1801561106057938095611034927f7fc4727e062e336010f2c282598ef5f14facb3de68cf8195c2f23e1454b2b74e96611043575b506115ed565b9082519485528401523392a280f35b61105990853d8711610410576104018183611834565b503861102e565b83513d88823e3d90fd5b61107e6110778483611af7565b80926115ed565b8751918252848201527f987d620f307ff6b94d58743cb7a7509f24071586a77759b77c2d4e29f75a2f9a873392a238610f7d565b835162461bcd60e51b8152908101839052600e60248201526d139bdd1a1a5b99c81cdd185ad95960921b6044820152606490fd5b6110ef33611650565b338452600e6020528184209060028201556001600a54910155610f53565b505034610273578160031936011261027357602090516127108152f35b9190503461046757366003190160a08112610463576080136104675767ffffffffffffffff91608435838111611407573660238201121561140757808201359380851161139257602490368287850101116114035761118e60ff6007541615611793565b611196611a14565b600a556111a1611a02565b600b55336113dc575b8135956111b88715156117c8565b6001600160a01b03938535858116908190036113d857857f000000000000000000000000000000000000000000000000000000000000000016036113a85786519187830183811085821117611396578852308352602083018981528a93926e22d473030f116ddee9f6b43ac78ba39290833b15611392578986928d948d519b8c988997889563187945bd60e11b875283611250611547565b16908701528d86015260443560448601526064356064860152511660848401525160a48301523360c483015261010060e483015280610104830152808a6101249401848401378181018301849052601f01601f191681010301925af1801561138857611340575b50505090610e14826112eb7f1449c6dd7851abc30abf37f57715f492010519147cc2652fbc38202c18a6ee90945486611a9a565b948591338852600e602052848820611304848254611643565b9055338852600e6020528488209060038201805415611337575b504291015561132f82600c54611643565b600c556115ed565b4290553861131e565b82969396116113775750825292610e147f1449c6dd7851abc30abf37f57715f492010519147cc2652fbc38202c18a6ee90386112b7565b634e487b7160e01b83526041865282fd5b85513d89823e3d90fd5b8580fd5b634e487b7160e01b8b5260418852858bfd5b865162461bcd60e51b8152602081880152600b818601526a2bb937b733903a37b5b2b760a91b6044820152606490fd5b8980fd5b6113e533611650565b338852600e6020528588209060028201556001600a549101556111aa565b8680fd5b8480fd5b833461077c57602036600319011261077c57610b7b611428611547565b6114346104e933611a65565b6116a1565b5050346102735781600319360112610273576020906003549051908152f35b5050346102735781600319360112610273576020905160038152f35b90503461046757602036600319011261046757356003811015610467575490516001600160a01b03909116815260209150f35b505034610273576020366003190112610273576020906105626114c8611547565b611650565b905034610467576020366003190112610467577f12c476dbe611207aa496773afc1cfedb660981ebe024c62f643a0aaec9bb75699161051b8235926115146104e933611a65565b6115226103e88511156115b2565b8360055554916006549051938493846040919493926060820195825260208201520152565b600435906001600160a01b0382168203610cf957565b34610cf9576000366003190112610cf95760206040516103e88152f35b1561158157565b60405162461bcd60e51b81526020600482015260096024820152682737ba1037bbb732b960b91b6044820152606490fd5b156115b957565b60405162461bcd60e51b815260206004820152600c60248201526b08ccaca40e8dede40d0d2ced60a31b6044820152606490fd5b919082039182116115fa57565b634e487b7160e01b600052601160045260246000fd5b818102929181159184041417156115fa57565b811561162d570490565b634e487b7160e01b600052601260045260246000fd5b919082018092116115fa57565b60018060a01b0316600052600e60205261169e60406000206002670de0b6b3a7640000611694835461168e611683611a14565b6001870154906115ed565b90611610565b0491015490611643565b90565b600191600391600160035411156117565760005b8381106116ed5760405162461bcd60e51b8152602060048201526009602482015268139bdd08199bdd5b9960ba1b6044820152606490fd5b80546001600160a01b0383811691908116821461170d57505084016116b5565b6001600160a01b03191690915583549294509291905080156115fa576000190190557f58619076adf5bb0943d100ef88d52d7c3fd691b19d3a9071b555b651fbf418da600080a2565b60405162461bcd60e51b81526020600482015260156024820152742732b2b21030ba103632b0b9ba10189037bbb732b960591b6044820152606490fd5b1561179a57565b60405162461bcd60e51b815260206004820152600660248201526514185d5cd95960d21b6044820152606490fd5b156117cf57565b60405162461bcd60e51b815260206004820152600b60248201526a16995c9bc8185b5bdd5b9d60aa1b6044820152606490fd5b6060810190811067ffffffffffffffff82111761181e57604052565b634e487b7160e01b600052604160045260246000fd5b90601f8019910116810190811067ffffffffffffffff82111761181e57604052565b90816020910312610cf957518015158103610cf95790565b600c54801580156118be575b6118b857600854906301e13380918281029281840414811517156115fa5764496cebb800029180830461271014901517156115fa5761169e91611623565b50600090565b506008541561187a565b6001600160a01b03908082169081156119ce576118e490611a65565b611999576003808054101561195f5760005b8181106119035750505050565b80548481161561191657506001016118f6565b6001600160a01b0319168317905580549192509060001981146115fa5760010190557f994a936646fe87ffe4f1e469d3d6aa417d6b855598397f323de5b449f765f0c3600080a2565b60405162461bcd60e51b815260206004820152601260248201527113585e081bdddb995c9cc81c995858da195960721b6044820152606490fd5b60405162461bcd60e51b815260206004820152600d60248201526c20b63932b0b23c9037bbb732b960991b6044820152606490fd5b60405162461bcd60e51b815260206004820152600c60248201526b5a65726f206164647265737360a01b6044820152606490fd5b60095480421060001461169e57504290565b600c548015611a5e57600a54611a37610a0c611a2e611a02565b600b54906115ed565b670de0b6b3a7640000908181029181830414901517156115fa5761169e926103c291611623565b50600a5490565b60005b60038110611a77575050600090565b80546001600160a01b03838116911614611a9357600101611a68565b5050600190565b908015611af35790611ab29161271092839183611610565b04906103e88083029083820414831517156115fa5761169e93611aee9104611ae6611add82866115ed565b91600d54611643565b600d55611b92565b6115ed565b5090565b611b0d9160006002820155600442910155611c8a565b60405163a9059cbb60e01b81523360048201526024810182905290919060208160448160006001600160a01b037f0000000000000000000000000000000000000000000000000000000000000000165af18015611b8657611b6b5750565b611b839060203d602011610410576104018183611834565b50565b6040513d6000823e3d90fd5b80158015611c80575b611b8357611bae60039160035490611623565b9060009160005b828110611bc25750505050565b805482906001600160a01b0390811680611be2575b505050600101611bb5565b6040805163a9059cbb60e01b81526001600160a01b03929092166004830152602482019390935260209290918390839060449082908b907f0000000000000000000000000000000000000000000000000000000000000000165af1908115611c775750906001939291611c59575b84929350611bd7565b81611c6f92903d10610410576104018183611834565b503880611c50565b513d88823e3d90fd5b5060035415611b9b565b6006548015611af35790611ab2916127109283918361161056fea2646970667358221220d8b54ce6a142537df8c0719d6fd9cad3aeede19eb9dd598429ad79b04ba6db5d64736f6c63430008180033","opcodes":"PUSH1 0xC0 CALLVALUE PUSH3 0x1B3 JUMPI PUSH1 0x1F PUSH3 0x1EBE CODESIZE DUP2 SWAP1 SUB SWAP2 DUP3 ADD PUSH1 0x1F NOT AND DUP4 ADD SWAP3 SWAP2 SWAP1 PUSH1 0x1 PUSH1 0x1 PUSH1 0x40 SHL SUB DUP5 GT DUP4 DUP6 LT OR PUSH3 0x1B8 JUMPI DUP2 PUSH1 0x60 SWAP3 DUP5 SWAP3 PUSH1 0x40 SWAP7 DUP8 MSTORE DUP4 CODECOPY DUP2 ADD SUB SLT PUSH3 0x1B3 JUMPI PUSH3 0x51 DUP2 PUSH3 0x1CE JUMP JUMPDEST SWAP1 PUSH3 0x6D DUP4 PUSH3 0x65 PUSH1 0x20 DUP5 ADD PUSH3 0x1CE JUMP JUMPDEST SWAP3 ADD PUSH3 0x1CE JUMP JUMPDEST PUSH1 0xC8 PUSH1 0x4 DUP2 SWAP1 SSTORE PUSH1 0x5 DUP2 SWAP1 SSTORE PUSH1 0x6 SSTORE PUSH8 0xDE0B6B3A7640000 PUSH1 0xF SSTORE PUSH3 0x278D00 PUSH1 0x10 SSTORE PUSH1 0x1 PUSH1 0x1 PUSH1 0xA0 SHL SUB SWAP1 DUP4 DUP3 AND ISZERO PUSH3 0x184 JUMPI DUP2 DUP4 AND ISZERO PUSH3 0x154 JUMPI AND SWAP2 DUP3 ISZERO PUSH3 0x123 JUMPI PUSH1 0x80 MSTORE PUSH1 0xA0 MSTORE PUSH1 0x0 DUP1 SLOAD PUSH1 0x1 PUSH1 0x1 PUSH1 0xA0 SHL SUB NOT AND SWAP2 SWAP1 SWAP2 OR SWAP1 SSTORE PUSH1 0x1 PUSH1 0x3 SSTORE MLOAD PUSH2 0x1CDA SWAP1 DUP2 PUSH3 0x1E4 DUP3 CODECOPY PUSH1 0x80 MLOAD DUP2 DUP2 DUP2 PUSH2 0x244 ADD MSTORE DUP2 DUP2 PUSH2 0x7CD ADD MSTORE DUP2 DUP2 PUSH2 0x928 ADD MSTORE DUP2 DUP2 PUSH2 0xFD0 ADD MSTORE DUP2 DUP2 PUSH2 0x11D1 ADD MSTORE DUP2 DUP2 PUSH2 0x1B3C ADD MSTORE PUSH2 0x1C1B ADD MSTORE PUSH1 0xA0 MLOAD DUP2 DUP2 DUP2 PUSH2 0x28B ADD MSTORE PUSH2 0x344 ADD MSTORE RETURN JUMPDEST DUP4 MLOAD PUSH3 0x461BCD PUSH1 0xE5 SHL DUP2 MSTORE PUSH1 0x20 PUSH1 0x4 DUP3 ADD MSTORE PUSH1 0xA PUSH1 0x24 DUP3 ADD MSTORE PUSH10 0x2D32B9379037BBB732B9 PUSH1 0xB1 SHL PUSH1 0x44 DUP3 ADD MSTORE PUSH1 0x64 SWAP1 REVERT JUMPDEST DUP5 MLOAD PUSH3 0x461BCD PUSH1 0xE5 SHL DUP2 MSTORE PUSH1 0x20 PUSH1 0x4 DUP3 ADD MSTORE PUSH1 0x9 PUSH1 0x24 DUP3 ADD MSTORE PUSH9 0x2D32B937902AAA2419 PUSH1 0xB9 SHL PUSH1 0x44 DUP3 ADD MSTORE PUSH1 0x64 SWAP1 REVERT JUMPDEST DUP5 MLOAD PUSH3 0x461BCD PUSH1 0xE5 SHL DUP2 MSTORE PUSH1 0x20 PUSH1 0x4 DUP3 ADD MSTORE PUSH1 0x8 PUSH1 0x24 DUP3 ADD MSTORE PUSH8 0x5A65726F2048324F PUSH1 0xC0 SHL PUSH1 0x44 DUP3 ADD MSTORE PUSH1 0x64 SWAP1 REVERT JUMPDEST PUSH1 0x0 DUP1 REVERT JUMPDEST PUSH4 0x4E487B71 PUSH1 0xE0 SHL PUSH1 0x0 MSTORE PUSH1 0x41 PUSH1 0x4 MSTORE PUSH1 0x24 PUSH1 0x0 REVERT JUMPDEST MLOAD SWAP1 PUSH1 0x1 PUSH1 0x1 PUSH1 0xA0 SHL SUB DUP3 AND DUP3 SUB PUSH3 0x1B3 JUMPI JUMP INVALID PUSH1 0x40 PUSH1 0x80 DUP2 MSTORE PUSH1 0x4 SWAP1 DUP2 CALLDATASIZE LT ISZERO PUSH2 0x15 JUMPI PUSH1 0x0 DUP1 REVERT JUMPDEST PUSH1 0x0 SWAP2 DUP3 CALLDATALOAD PUSH1 0xE0 SHR SWAP1 DUP2 PUSH3 0x18A116 EQ PUSH2 0x14CD JUMPI DUP2 PUSH3 0x8CC262 EQ PUSH2 0x14A7 JUMPI DUP2 PUSH4 0x25E7C27 EQ PUSH2 0x1474 JUMPI DUP2 PUSH4 0xB8BB146 EQ PUSH2 0x1458 JUMPI DUP2 PUSH4 0xDB02622 EQ PUSH2 0x1439 JUMPI DUP2 PUSH4 0x173825D9 EQ PUSH2 0x140B JUMPI DUP2 PUSH4 0x1D9AB29A EQ PUSH2 0x112A JUMPI DUP2 PUSH4 0x249D39E9 EQ PUSH2 0x110D JUMPI DUP2 PUSH4 0x2DEF6620 EQ PUSH2 0xF15 JUMPI DUP2 PUSH4 0x2E75AB50 EQ PUSH2 0xE9A JUMPI DUP2 PUSH4 0x3711B23F EQ PUSH2 0xE7B JUMPI DUP2 PUSH4 0x372500AB EQ PUSH2 0xD88 JUMPI DUP2 PUSH4 0x3AD5B8AA EQ PUSH2 0xD6A JUMPI DUP2 PUSH4 0x3F4BA83A EQ PUSH2 0xD1B JUMPI DUP2 PUSH4 0x51618ED3 EQ PUSH2 0xCFE JUMPI DUP2 PUSH4 0x551512DE EQ PUSH2 0xBEB JUMPI DUP2 PUSH4 0x5ADE228A EQ PUSH2 0xBCC JUMPI DUP2 PUSH4 0x5C975ABB EQ PUSH2 0xBA8 JUMPI DUP2 PUSH4 0x6AFDD850 EQ PUSH2 0xB7E JUMPI DUP2 PUSH4 0x7065CB48 EQ PUSH2 0xB4D JUMPI DUP2 PUSH4 0x7A526F4E EQ PUSH2 0xB2E JUMPI DUP2 PUSH4 0x7B0A47EE EQ PUSH2 0xB0F JUMPI DUP2 PUSH4 0x80FAA57D EQ PUSH2 0xAF2 JUMPI DUP2 PUSH4 0x817B1CD2 EQ PUSH2 0xAD3 JUMPI DUP2 PUSH4 0x84203F4B EQ PUSH2 0xA99 JUMPI DUP2 PUSH4 0x8456CB59 EQ PUSH2 0xA47 JUMPI DUP2 PUSH4 0x8BDF67F2 EQ PUSH2 0x8B4 JUMPI DUP2 PUSH4 0x9692065D EQ PUSH2 0x851 JUMPI DUP2 PUSH4 0x991BBDE7 EQ PUSH2 0x46B JUMPI DUP2 PUSH4 0x9E9AED62 EQ PUSH2 0x79E JUMPI DUP2 PUSH4 0xA0933701 EQ PUSH2 0x77F JUMPI DUP2 PUSH4 0xA0E67E2B EQ PUSH2 0x6EC JUMPI DUP2 PUSH4 0xA195AABD EQ PUSH2 0x68C JUMPI DUP2 PUSH4 0xA87430BA EQ PUSH2 0x629 JUMPI DUP2 PUSH4 0xA93837BD EQ PUSH2 0x540 JUMPI DUP2 PUSH4 0xC3453153 EQ PUSH2 0x5C6 JUMPI DUP2 PUSH4 0xC8F33C91 EQ PUSH2 0x5A7 JUMPI DUP2 PUSH4 0xC8FC9729 EQ PUSH2 0x588 JUMPI DUP2 PUSH4 0xCAB64BCD EQ PUSH2 0x569 JUMPI DUP2 PUSH4 0xCD3DAF9D EQ PUSH2 0x545 JUMPI DUP2 PUSH4 0xD55BE8C6 EQ PUSH2 0x540 JUMPI DUP2 PUSH4 0xDF136D65 EQ PUSH2 0x521 JUMPI DUP2 PUSH4 0xE2D7BEE4 EQ PUSH2 0x4A3 JUMPI DUP2 PUSH4 0xE797F365 EQ PUSH2 0x46B JUMPI DUP2 PUSH4 0xE8295DB2 EQ PUSH2 0x2D8 JUMPI POP DUP1 PUSH4 0xEBE2B12B EQ PUSH2 0x2BA JUMPI DUP1 PUSH4 0xF6C08A2E EQ PUSH2 0x277 JUMPI PUSH4 0xFEAA524D EQ PUSH2 0x231 JUMPI PUSH1 0x0 DUP1 REVERT JUMPDEST CALLVALUE PUSH2 0x273 JUMPI DUP2 PUSH1 0x3 NOT CALLDATASIZE ADD SLT PUSH2 0x273 JUMPI MLOAD PUSH32 0x0 PUSH1 0x1 PUSH1 0x1 PUSH1 0xA0 SHL SUB AND DUP2 MSTORE PUSH1 0x20 SWAP1 RETURN JUMPDEST POP DUP1 REVERT JUMPDEST POP CALLVALUE PUSH2 0x273 JUMPI DUP2 PUSH1 0x3 NOT CALLDATASIZE ADD SLT PUSH2 0x273 JUMPI MLOAD PUSH32 0x0 PUSH1 0x1 PUSH1 0x1 PUSH1 0xA0 SHL SUB AND DUP2 MSTORE PUSH1 0x20 SWAP1 RETURN JUMPDEST POP CALLVALUE PUSH2 0x273 JUMPI DUP2 PUSH1 0x3 NOT CALLDATASIZE ADD SLT PUSH2 0x273 JUMPI PUSH1 0x20 SWAP1 PUSH1 0x9 SLOAD SWAP1 MLOAD SWAP1 DUP2 MSTORE RETURN JUMPDEST SWAP1 POP CALLVALUE PUSH2 0x467 JUMPI PUSH1 0x20 SWAP1 DUP2 PUSH1 0x3 NOT CALLDATASIZE ADD SLT PUSH2 0x463 JUMPI DUP1 CALLDATALOAD SWAP1 DUP2 ISZERO ISZERO DUP1 PUSH2 0x458 JUMPI JUMPDEST ISZERO PUSH2 0x421 JUMPI SWAP1 DUP3 PUSH2 0x33F SWAP4 SWAP3 PUSH2 0x311 DUP4 PUSH1 0xF SLOAD PUSH2 0x1610 JUMP JUMPDEST DUP7 MLOAD PUSH4 0x23B872DD PUSH1 0xE0 SHL DUP2 MSTORE CALLER SWAP3 DUP2 ADD SWAP3 DUP4 MSTORE ADDRESS PUSH1 0x20 DUP5 ADD MSTORE PUSH1 0x40 DUP4 ADD SWAP2 SWAP1 SWAP2 MSTORE SWAP5 DUP6 SWAP2 DUP3 SWAP2 PUSH1 0x60 SWAP1 SWAP2 ADD SWAP1 JUMP JUMPDEST SUB DUP2 DUP9 PUSH32 0x0 PUSH1 0x1 PUSH1 0x1 PUSH1 0xA0 SHL SUB AND GAS CALL SWAP1 DUP2 ISZERO PUSH2 0x417 JUMPI PUSH32 0x50161E82C116A36BE92E4A19EFF588437FD9F1E7DA598C75303AA3D3B8DC5718 SWAP4 PUSH2 0x3C8 SWAP3 PUSH2 0x3EA JUMPI JUMPDEST POP CALLER DUP7 MSTORE PUSH1 0x11 DUP4 MSTORE DUP5 DUP7 KECCAK256 SLOAD TIMESTAMP DUP2 GT ISZERO PUSH2 0x3DF JUMPI PUSH2 0x3C2 SWAP1 SWAP2 JUMPDEST PUSH1 0x10 SLOAD PUSH2 0x1610 JUMP JUMPDEST SWAP1 PUSH2 0x1643 JUMP JUMPDEST SWAP3 CALLER DUP6 MSTORE PUSH1 0x11 DUP3 MSTORE DUP4 DUP2 DUP7 KECCAK256 SSTORE MLOAD SWAP3 DUP4 MSTORE CALLER SWAP3 LOG2 DUP1 RETURN JUMPDEST POP PUSH2 0x3C2 TIMESTAMP SWAP2 PUSH2 0x3BA JUMP JUMPDEST PUSH2 0x409 SWAP1 DUP5 RETURNDATASIZE DUP7 GT PUSH2 0x410 JUMPI JUMPDEST PUSH2 0x401 DUP2 DUP4 PUSH2 0x1834 JUMP JUMPDEST DUP2 ADD SWAP1 PUSH2 0x1856 JUMP JUMPDEST POP CODESIZE PUSH2 0x3A0 JUMP JUMPDEST POP RETURNDATASIZE PUSH2 0x3F7 JUMP JUMPDEST DUP5 MLOAD RETURNDATASIZE DUP8 DUP3 RETURNDATACOPY RETURNDATASIZE SWAP1 REVERT JUMPDEST DUP4 MLOAD PUSH3 0x461BCD PUSH1 0xE5 SHL DUP2 MSTORE SWAP1 DUP2 ADD DUP4 SWAP1 MSTORE PUSH1 0x11 PUSH1 0x24 DUP3 ADD MSTORE PUSH17 0x18901E1E9036B7B73A3439901E1E901899 PUSH1 0x79 SHL PUSH1 0x44 DUP3 ADD MSTORE PUSH1 0x64 SWAP1 REVERT JUMPDEST POP PUSH1 0xC DUP3 GT ISZERO PUSH2 0x2F9 JUMP JUMPDEST DUP4 DUP1 REVERT JUMPDEST DUP3 DUP1 REVERT JUMPDEST POP POP CALLVALUE PUSH2 0x273 JUMPI PUSH1 0x20 CALLDATASIZE PUSH1 0x3 NOT ADD SLT PUSH2 0x273 JUMPI PUSH1 0x20 SWAP2 DUP2 SWAP1 PUSH1 0x1 PUSH1 0x1 PUSH1 0xA0 SHL SUB PUSH2 0x493 PUSH2 0x1547 JUMP JUMPDEST AND DUP2 MSTORE PUSH1 0x11 DUP5 MSTORE KECCAK256 SLOAD SWAP1 MLOAD SWAP1 DUP2 MSTORE RETURN JUMPDEST SWAP2 SWAP1 POP CALLVALUE PUSH2 0x467 JUMPI PUSH1 0x20 CALLDATASIZE PUSH1 0x3 NOT ADD SLT PUSH2 0x467 JUMPI DUP2 PUSH32 0x12C476DBE611207AA496773AFC1CFEDB660981EBE024C62F643A0AAEC9BB7569 SWAP3 CALLDATALOAD DUP1 SWAP2 PUSH2 0x4EE PUSH2 0x4E9 CALLER PUSH2 0x1A65 JUMP JUMPDEST PUSH2 0x157A JUMP JUMPDEST PUSH2 0x4FC PUSH2 0x3E8 DUP4 GT ISZERO PUSH2 0x15B2 JUMP JUMPDEST SSTORE PUSH1 0x5 SLOAD PUSH1 0x6 SLOAD SWAP3 MLOAD SWAP2 DUP3 MSTORE PUSH1 0x20 DUP3 ADD MSTORE PUSH1 0x40 DUP2 ADD SWAP2 SWAP1 SWAP2 MSTORE DUP1 PUSH1 0x60 DUP2 ADD JUMPDEST SUB SWAP1 LOG1 DUP1 RETURN JUMPDEST POP POP CALLVALUE PUSH2 0x273 JUMPI DUP2 PUSH1 0x3 NOT CALLDATASIZE ADD SLT PUSH2 0x273 JUMPI PUSH1 0x20 SWAP1 PUSH1 0xA SLOAD SWAP1 MLOAD SWAP1 DUP2 MSTORE RETURN JUMPDEST PUSH2 0x155D JUMP JUMPDEST POP POP CALLVALUE PUSH2 0x273 JUMPI DUP2 PUSH1 0x3 NOT CALLDATASIZE ADD SLT PUSH2 0x273 JUMPI PUSH1 0x20 SWAP1 PUSH2 0x562 PUSH2 0x1A14 JUMP JUMPDEST SWAP1 MLOAD SWAP1 DUP2 MSTORE RETURN JUMPDEST POP POP CALLVALUE PUSH2 0x273 JUMPI DUP2 PUSH1 0x3 NOT CALLDATASIZE ADD SLT PUSH2 0x273 JUMPI PUSH1 0x20 SWAP1 PUSH1 0xD SLOAD SWAP1 MLOAD SWAP1 DUP2 MSTORE RETURN JUMPDEST POP POP CALLVALUE PUSH2 0x273 JUMPI DUP2 PUSH1 0x3 NOT CALLDATASIZE ADD SLT PUSH2 0x273 JUMPI PUSH1 0x20 SWAP1 PUSH1 0x5 SLOAD SWAP1 MLOAD SWAP1 DUP2 MSTORE RETURN JUMPDEST POP POP CALLVALUE PUSH2 0x273 JUMPI DUP2 PUSH1 0x3 NOT CALLDATASIZE ADD SLT PUSH2 0x273 JUMPI PUSH1 0x20 SWAP1 PUSH1 0xB SLOAD SWAP1 MLOAD SWAP1 DUP2 MSTORE RETURN JUMPDEST DUP4 SWAP2 POP CALLVALUE PUSH2 0x273 JUMPI PUSH1 0x20 CALLDATASIZE PUSH1 0x3 NOT ADD SLT PUSH2 0x273 JUMPI DUP3 PUSH1 0xA0 SWAP4 PUSH2 0x5E6 PUSH2 0x1547 JUMP JUMPDEST SWAP4 PUSH1 0x1 DUP1 DUP8 SHL SUB DUP6 AND DUP2 MSTORE PUSH1 0xE PUSH1 0x20 MSTORE KECCAK256 SWAP3 PUSH2 0x60C DUP5 SLOAD SWAP4 PUSH1 0x3 DUP7 ADD SLOAD SWAP6 ADD SLOAD SWAP2 PUSH2 0x1650 JUMP JUMPDEST SWAP2 DUP1 MLOAD SWAP5 DUP5 DUP7 MSTORE PUSH1 0x20 DUP7 ADD MSTORE DUP5 ADD MSTORE PUSH1 0x60 DUP4 ADD MSTORE ISZERO ISZERO PUSH1 0x80 DUP3 ADD MSTORE RETURN JUMPDEST SWAP2 SWAP1 POP CALLVALUE PUSH2 0x467 JUMPI PUSH1 0x20 CALLDATASIZE PUSH1 0x3 NOT ADD SLT PUSH2 0x467 JUMPI PUSH1 0xA0 SWAP3 DUP2 SWAP1 PUSH1 0x1 PUSH1 0x1 PUSH1 0xA0 SHL SUB PUSH2 0x652 PUSH2 0x1547 JUMP JUMPDEST AND DUP2 MSTORE PUSH1 0xE PUSH1 0x20 MSTORE KECCAK256 DUP1 SLOAD SWAP3 PUSH1 0x1 DUP3 ADD SLOAD SWAP3 PUSH1 0x2 DUP4 ADD SLOAD SWAP2 PUSH1 0x3 DUP5 ADD SLOAD SWAP4 ADD SLOAD SWAP4 DUP2 MLOAD SWAP6 DUP7 MSTORE PUSH1 0x20 DUP7 ADD MSTORE DUP5 ADD MSTORE PUSH1 0x60 DUP4 ADD MSTORE PUSH1 0x80 DUP3 ADD MSTORE RETURN JUMPDEST SWAP1 POP CALLVALUE PUSH2 0x467 JUMPI PUSH1 0x20 CALLDATASIZE PUSH1 0x3 NOT ADD SLT PUSH2 0x467 JUMPI DUP1 CALLDATALOAD SWAP2 PUSH2 0x6AE PUSH2 0x4E9 CALLER PUSH2 0x1A65 JUMP JUMPDEST DUP3 ISZERO PUSH2 0x6BC JUMPI POP POP PUSH1 0xF SSTORE DUP1 RETURN JUMPDEST SWAP1 PUSH1 0x20 PUSH1 0x64 SWAP3 MLOAD SWAP2 PUSH3 0x461BCD PUSH1 0xE5 SHL DUP4 MSTORE DUP3 ADD MSTORE PUSH1 0xA PUSH1 0x24 DUP3 ADD MSTORE PUSH10 0x5A65726F207072696365 PUSH1 0xB0 SHL PUSH1 0x44 DUP3 ADD MSTORE REVERT JUMPDEST DUP3 DUP5 CALLVALUE PUSH2 0x77C JUMPI DUP1 PUSH1 0x3 NOT CALLDATASIZE ADD SLT PUSH2 0x77C JUMPI SWAP1 PUSH1 0x60 DUP2 MLOAD PUSH2 0x70C DUP2 PUSH2 0x1802 JUMP JUMPDEST CALLDATASIZE SWAP1 CALLDATACOPY DUP1 MLOAD SWAP1 DUP3 DUP1 DUP4 JUMPDEST PUSH1 0x3 DUP3 LT PUSH2 0x75C JUMPI POP POP POP PUSH2 0x72A DUP3 PUSH2 0x1802 JUMP JUMPDEST MLOAD SWAP2 SWAP1 DUP3 JUMPDEST PUSH1 0x3 DUP4 LT PUSH2 0x73C JUMPI PUSH1 0x60 DUP5 RETURN JUMPDEST DUP2 MLOAD PUSH1 0x1 PUSH1 0x1 PUSH1 0xA0 SHL SUB AND DUP2 MSTORE PUSH1 0x1 SWAP3 SWAP1 SWAP3 ADD SWAP2 PUSH1 0x20 SWAP2 DUP3 ADD SWAP2 ADD PUSH2 0x72F JUMP JUMPDEST DUP3 SLOAD PUSH1 0x1 PUSH1 0x1 PUSH1 0xA0 SHL SUB AND DUP2 MSTORE PUSH1 0x1 SWAP3 DUP4 ADD SWAP3 SWAP2 SWAP1 SWAP2 ADD SWAP1 PUSH1 0x20 ADD PUSH2 0x716 JUMP JUMPDEST DUP1 REVERT JUMPDEST POP POP CALLVALUE PUSH2 0x273 JUMPI DUP2 PUSH1 0x3 NOT CALLDATASIZE ADD SLT PUSH2 0x273 JUMPI PUSH1 0x20 SWAP1 PUSH1 0x10 SLOAD SWAP1 MLOAD SWAP1 DUP2 MSTORE RETURN JUMPDEST SWAP2 SWAP1 POP CALLVALUE PUSH2 0x467 JUMPI DUP3 PUSH1 0x3 NOT CALLDATASIZE ADD SLT PUSH2 0x467 JUMPI DUP1 MLOAD PUSH4 0x70A08231 PUSH1 0xE0 SHL DUP2 MSTORE ADDRESS SWAP3 DUP2 ADD SWAP3 SWAP1 SWAP3 MSTORE PUSH1 0x20 DUP3 PUSH1 0x24 DUP2 PUSH32 0x0 PUSH1 0x1 PUSH1 0x1 PUSH1 0xA0 SHL SUB AND GAS STATICCALL SWAP2 DUP3 ISZERO PUSH2 0x847 JUMPI DUP4 SWAP3 PUSH2 0x80F JUMPI JUMPDEST PUSH1 0x20 DUP4 DUP4 MLOAD SWAP1 DUP2 MSTORE RETURN JUMPDEST SWAP1 SWAP2 POP PUSH1 0x20 DUP2 RETURNDATASIZE PUSH1 0x20 GT PUSH2 0x83F JUMPI JUMPDEST DUP2 PUSH2 0x82B PUSH1 0x20 SWAP4 DUP4 PUSH2 0x1834 JUMP JUMPDEST DUP2 ADD SUB SLT PUSH2 0x467 JUMPI PUSH1 0x20 SWAP3 POP MLOAD SWAP1 CODESIZE PUSH2 0x805 JUMP JUMPDEST RETURNDATASIZE SWAP2 POP PUSH2 0x81E JUMP JUMPDEST DUP2 MLOAD RETURNDATASIZE DUP6 DUP3 RETURNDATACOPY RETURNDATASIZE SWAP1 REVERT JUMPDEST SWAP1 POP CALLVALUE PUSH2 0x467 JUMPI PUSH1 0x20 CALLDATASIZE PUSH1 0x3 NOT ADD SLT PUSH2 0x467 JUMPI DUP1 CALLDATALOAD SWAP2 PUSH2 0x873 PUSH2 0x4E9 CALLER PUSH2 0x1A65 JUMP JUMPDEST PUSH3 0x15180 DUP4 LT PUSH2 0x885 JUMPI POP POP PUSH1 0x10 SSTORE DUP1 RETURN JUMPDEST SWAP1 PUSH1 0x20 PUSH1 0x64 SWAP3 MLOAD SWAP2 PUSH3 0x461BCD PUSH1 0xE5 SHL DUP4 MSTORE DUP3 ADD MSTORE PUSH1 0x9 PUSH1 0x24 DUP3 ADD MSTORE PUSH9 0x151BDBC81CDA1BDC9D PUSH1 0xBA SHL PUSH1 0x44 DUP3 ADD MSTORE REVERT JUMPDEST DUP4 DUP4 CALLVALUE PUSH2 0x273 JUMPI PUSH1 0x20 CALLDATASIZE PUSH1 0x3 NOT ADD SLT PUSH2 0x273 JUMPI DUP3 CALLDATALOAD SWAP1 PUSH2 0x8D6 PUSH2 0x4E9 CALLER PUSH2 0x1A65 JUMP JUMPDEST PUSH2 0x8DE PUSH2 0x1A14 JUMP JUMPDEST PUSH1 0xA SSTORE PUSH2 0x8E9 PUSH2 0x1A02 JUMP JUMPDEST PUSH1 0xB SSTORE PUSH2 0x8F7 DUP3 ISZERO ISZERO PUSH2 0x17C8 JUMP JUMPDEST DUP1 MLOAD PUSH4 0x23B872DD PUSH1 0xE0 SHL DUP2 MSTORE CALLER DUP6 DUP3 ADD SWAP1 DUP2 MSTORE ADDRESS PUSH1 0x20 DUP3 DUP2 ADD SWAP2 SWAP1 SWAP2 MSTORE PUSH1 0x40 DUP3 ADD DUP6 SWAP1 MSTORE SWAP1 DUP3 SWAP1 DUP2 SWAP1 PUSH1 0x60 ADD SUB DUP2 DUP8 PUSH32 0x0 PUSH1 0x1 PUSH1 0x1 PUSH1 0xA0 SHL SUB AND GAS CALL DUP1 ISZERO PUSH2 0xA3D JUMPI PUSH2 0xA1E JUMPI JUMPDEST POP PUSH2 0x96A DUP3 PUSH1 0xD SLOAD PUSH2 0x1643 JUMP JUMPDEST PUSH1 0xD DUP2 SWAP1 SSTORE PUSH1 0x9 SLOAD TIMESTAMP DUP2 GT PUSH2 0x9F5 JUMPI POP POP PUSH4 0x1E13380 PUSH1 0xD SLOAD DIV PUSH1 0x8 SSTORE JUMPDEST TIMESTAMP PUSH1 0xB SSTORE PUSH4 0x1E13380 TIMESTAMP ADD SWAP1 DUP2 TIMESTAMP GT PUSH2 0x9E2 JUMPI PUSH1 0x9 DUP3 SWAP1 SSTORE PUSH1 0xD DUP5 SWAP1 SSTORE PUSH1 0x8 SLOAD SWAP1 MLOAD SWAP3 DUP4 MSTORE PUSH1 0x20 DUP4 ADD MSTORE PUSH1 0x40 DUP3 ADD MSTORE CALLER SWAP1 PUSH32 0xB167F072295E46CB15516C982366F3856186579436FECBC2241827AA89A66852 SWAP1 PUSH1 0x60 SWAP1 LOG2 DUP1 RETURN JUMPDEST PUSH4 0x4E487B71 PUSH1 0xE0 SHL DUP5 MSTORE PUSH1 0x11 DUP6 MSTORE PUSH1 0x24 DUP5 REVERT JUMPDEST PUSH4 0x1E13380 SWAP2 PUSH2 0x3C2 PUSH2 0xA0C PUSH2 0xA15 SWAP4 TIMESTAMP SWAP1 PUSH2 0x15ED JUMP JUMPDEST PUSH1 0x8 SLOAD SWAP1 PUSH2 0x1610 JUMP JUMPDEST DIV PUSH1 0x8 SSTORE PUSH2 0x988 JUMP JUMPDEST PUSH2 0xA36 SWAP1 PUSH1 0x20 RETURNDATASIZE PUSH1 0x20 GT PUSH2 0x410 JUMPI PUSH2 0x401 DUP2 DUP4 PUSH2 0x1834 JUMP JUMPDEST POP DUP5 PUSH2 0x95D JUMP JUMPDEST DUP3 MLOAD RETURNDATASIZE DUP7 DUP3 RETURNDATACOPY RETURNDATASIZE SWAP1 REVERT JUMPDEST DUP4 CALLVALUE PUSH2 0x77C JUMPI DUP1 PUSH1 0x3 NOT CALLDATASIZE ADD SLT PUSH2 0x77C JUMPI PUSH2 0xA64 PUSH2 0x4E9 CALLER PUSH2 0x1A65 JUMP JUMPDEST PUSH1 0x1 PUSH1 0xFF NOT PUSH1 0x7 SLOAD AND OR PUSH1 0x7 SSTORE CALLER PUSH32 0x62E78CEA01BEE320CD4E420270B5EA74000D11B0C9F74754EBDBFC544B05A258 DUP3 DUP1 LOG2 DUP1 RETURN JUMPDEST POP POP CALLVALUE PUSH2 0x273 JUMPI PUSH1 0x20 CALLDATASIZE PUSH1 0x3 NOT ADD SLT PUSH2 0x273 JUMPI PUSH1 0x20 SWAP2 DUP2 SWAP1 PUSH1 0x1 PUSH1 0x1 PUSH1 0xA0 SHL SUB PUSH2 0xAC1 PUSH2 0x1547 JUMP JUMPDEST AND DUP2 MSTORE PUSH1 0x11 DUP5 MSTORE KECCAK256 SLOAD SWAP1 MLOAD SWAP1 TIMESTAMP LT DUP2 MSTORE RETURN JUMPDEST POP POP CALLVALUE PUSH2 0x273 JUMPI DUP2 PUSH1 0x3 NOT CALLDATASIZE ADD SLT PUSH2 0x273 JUMPI PUSH1 0x20 SWAP1 PUSH1 0xC SLOAD SWAP1 MLOAD SWAP1 DUP2 MSTORE RETURN JUMPDEST POP POP CALLVALUE PUSH2 0x273 JUMPI DUP2 PUSH1 0x3 NOT CALLDATASIZE ADD SLT PUSH2 0x273 JUMPI PUSH1 0x20 SWAP1 PUSH2 0x562 PUSH2 0x1A02 JUMP JUMPDEST POP POP CALLVALUE PUSH2 0x273 JUMPI DUP2 PUSH1 0x3 NOT CALLDATASIZE ADD SLT PUSH2 0x273 JUMPI PUSH1 0x20 SWAP1 PUSH1 0x8 SLOAD SWAP1 MLOAD SWAP1 DUP2 MSTORE RETURN JUMPDEST POP POP CALLVALUE PUSH2 0x273 JUMPI DUP2 PUSH1 0x3 NOT CALLDATASIZE ADD SLT PUSH2 0x273 JUMPI PUSH1 0x20 SWAP1 PUSH1 0x6 SLOAD SWAP1 MLOAD SWAP1 DUP2 MSTORE RETURN JUMPDEST DUP4 CALLVALUE PUSH2 0x77C JUMPI PUSH1 0x20 CALLDATASIZE PUSH1 0x3 NOT ADD SLT PUSH2 0x77C JUMPI PUSH2 0xB7B PUSH2 0xB6A PUSH2 0x1547 JUMP JUMPDEST PUSH2 0xB76 PUSH2 0x4E9 CALLER PUSH2 0x1A65 JUMP JUMPDEST PUSH2 0x18C8 JUMP JUMPDEST DUP1 RETURN JUMPDEST POP POP CALLVALUE PUSH2 0x273 JUMPI DUP2 PUSH1 0x3 NOT CALLDATASIZE ADD SLT PUSH2 0x273 JUMPI PUSH1 0x20 SWAP1 MLOAD PUSH15 0x22D473030F116DDEE9F6B43AC78BA3 DUP2 MSTORE RETURN JUMPDEST POP POP CALLVALUE PUSH2 0x273 JUMPI DUP2 PUSH1 0x3 NOT CALLDATASIZE ADD SLT PUSH2 0x273 JUMPI PUSH1 0x20 SWAP1 PUSH1 0xFF PUSH1 0x7 SLOAD AND SWAP1 MLOAD SWAP1 ISZERO ISZERO DUP2 MSTORE RETURN JUMPDEST POP POP CALLVALUE PUSH2 0x273 JUMPI DUP2 PUSH1 0x3 NOT CALLDATASIZE ADD SLT PUSH2 0x273 JUMPI PUSH1 0x20 SWAP1 MLOAD PUSH4 0x1E13380 DUP2 MSTORE RETURN JUMPDEST SWAP1 POP CALLVALUE PUSH2 0x467 JUMPI PUSH1 0x60 CALLDATASIZE PUSH1 0x3 NOT ADD SLT PUSH2 0x467 JUMPI PUSH2 0xC06 PUSH2 0x1547 JUMP JUMPDEST PUSH1 0x1 PUSH1 0x1 PUSH1 0xA0 SHL SUB PUSH1 0x44 CALLDATALOAD DUP2 DUP2 AND SWAP5 PUSH1 0x24 CALLDATALOAD SWAP4 SWAP1 SWAP3 SWAP1 DUP7 DUP4 SUB PUSH2 0xCF9 JUMPI PUSH2 0xC2F PUSH2 0x4E9 CALLER PUSH2 0x1A65 JUMP JUMPDEST DUP7 ISZERO PUSH2 0xCCC JUMPI DUP4 MLOAD PUSH4 0xA9059CBB PUSH1 0xE0 SHL DUP2 MSTORE PUSH1 0x1 PUSH1 0x1 PUSH1 0xA0 SHL SUB SWAP1 SWAP4 AND SWAP6 DUP4 ADD SWAP6 DUP7 MSTORE PUSH1 0x20 DUP7 DUP2 ADD DUP7 SWAP1 MSTORE SWAP2 AND SWAP5 DUP3 SWAP1 DUP2 SWAP1 PUSH1 0x40 ADD SUB DUP2 DUP10 DUP9 GAS CALL DUP1 ISZERO PUSH2 0xCC2 JUMPI SWAP2 PUSH32 0xF24EF89F38EADC1BDE50701AD6E4D6D11A2DC24F7CF834A486991F3883328504 SWAP4 SWAP2 PUSH1 0x20 SWAP4 PUSH2 0xCA5 JUMPI JUMPDEST POP MLOAD SWAP1 DUP2 MSTORE LOG3 DUP1 RETURN JUMPDEST PUSH2 0xCBB SWAP1 DUP5 RETURNDATASIZE DUP7 GT PUSH2 0x410 JUMPI PUSH2 0x401 DUP2 DUP4 PUSH2 0x1834 JUMP JUMPDEST POP CODESIZE PUSH2 0xC9C JUMP JUMPDEST DUP3 MLOAD RETURNDATASIZE DUP9 DUP3 RETURNDATACOPY RETURNDATASIZE SWAP1 REVERT JUMPDEST DUP4 MLOAD PUSH3 0x461BCD PUSH1 0xE5 SHL DUP2 MSTORE PUSH1 0x20 DUP2 DUP9 ADD MSTORE PUSH1 0x7 PUSH1 0x24 DUP3 ADD MSTORE PUSH7 0x5A65726F20746F PUSH1 0xC8 SHL PUSH1 0x44 DUP3 ADD MSTORE PUSH1 0x64 SWAP1 REVERT JUMPDEST PUSH1 0x0 DUP1 REVERT JUMPDEST POP POP CALLVALUE PUSH2 0x273 JUMPI DUP2 PUSH1 0x3 NOT CALLDATASIZE ADD SLT PUSH2 0x273 JUMPI PUSH1 0x20 SWAP1 PUSH2 0x562 PUSH2 0x186E JUMP JUMPDEST DUP4 CALLVALUE PUSH2 0x77C JUMPI DUP1 PUSH1 0x3 NOT CALLDATASIZE ADD SLT PUSH2 0x77C JUMPI PUSH2 0xD38 PUSH2 0x4E9 CALLER PUSH2 0x1A65 JUMP JUMPDEST PUSH1 0xFF NOT PUSH1 0x7 SLOAD AND PUSH1 0x7 SSTORE CALLER PUSH32 0x5DB9EE0A495BF2E6FF9C91A7834C1BA4FDD244A5E8AA4E537BD38AEAE4B073AA DUP3 DUP1 LOG2 DUP1 RETURN JUMPDEST SWAP1 POP CALLVALUE PUSH2 0x467 JUMPI DUP3 PUSH1 0x3 NOT CALLDATASIZE ADD SLT PUSH2 0x467 JUMPI PUSH1 0x20 SWAP3 POP SLOAD SWAP1 MLOAD SWAP1 DUP2 MSTORE RETURN JUMPDEST SWAP2 SWAP1 POP CALLVALUE PUSH2 0x467 JUMPI DUP3 PUSH1 0x3 NOT CALLDATASIZE ADD SLT PUSH2 0x467 JUMPI PUSH2 0xDAA PUSH1 0xFF PUSH1 0x7 SLOAD AND ISZERO PUSH2 0x1793 JUMP JUMPDEST PUSH2 0xDB2 PUSH2 0x1A14 JUMP JUMPDEST PUSH1 0xA SSTORE PUSH2 0xDBD PUSH2 0x1A02 JUMP JUMPDEST PUSH1 0xB SSTORE CALLER PUSH2 0xE54 JUMPI JUMPDEST CALLER DUP4 MSTORE PUSH1 0xE PUSH1 0x20 MSTORE DUP1 DUP4 KECCAK256 PUSH1 0x2 DUP2 ADD SLOAD SWAP3 DUP4 ISZERO PUSH2 0xE24 JUMPI POP SWAP1 PUSH2 0xE14 PUSH2 0xE0D PUSH32 0x987D620F307FF6B94D58743CB7A7509F24071586A77759B77C2D4E29F75A2F9A SWAP4 DUP6 PUSH2 0x1AF7 JUMP JUMPDEST DUP1 SWAP5 PUSH2 0x15ED JUMP JUMPDEST DUP2 MLOAD SWAP4 DUP5 MSTORE PUSH1 0x20 DUP5 ADD MSTORE CALLER SWAP3 LOG2 DUP1 RETURN JUMPDEST PUSH1 0x64 SWAP1 PUSH1 0x20 DUP5 MLOAD SWAP2 PUSH3 0x461BCD PUSH1 0xE5 SHL DUP4 MSTORE DUP3 ADD MSTORE PUSH1 0xA PUSH1 0x24 DUP3 ADD MSTORE PUSH10 0x4E6F2072657761726473 PUSH1 0xB0 SHL PUSH1 0x44 DUP3 ADD MSTORE REVERT JUMPDEST PUSH2 0xE5D CALLER PUSH2 0x1650 JUMP JUMPDEST CALLER DUP5 MSTORE PUSH1 0xE PUSH1 0x20 MSTORE DUP2 DUP5 KECCAK256 SWAP1 PUSH1 0x2 DUP3 ADD SSTORE PUSH1 0x1 PUSH1 0xA SLOAD SWAP2 ADD SSTORE PUSH2 0xDC6 JUMP JUMPDEST POP POP CALLVALUE PUSH2 0x273 JUMPI DUP2 PUSH1 0x3 NOT CALLDATASIZE ADD SLT PUSH2 0x273 JUMPI PUSH1 0x20 SWAP1 PUSH1 0xF SLOAD SWAP1 MLOAD SWAP1 DUP2 MSTORE RETURN JUMPDEST SWAP2 SWAP1 POP CALLVALUE PUSH2 0x467 JUMPI PUSH1 0x20 CALLDATASIZE PUSH1 0x3 NOT ADD SLT PUSH2 0x467 JUMPI DUP2 PUSH2 0x51B PUSH32 0x12C476DBE611207AA496773AFC1CFEDB660981EBE024C62F643A0AAEC9BB7569 SWAP4 CALLDATALOAD SWAP2 PUSH2 0xEE2 PUSH2 0x4E9 CALLER PUSH2 0x1A65 JUMP JUMPDEST PUSH2 0xEF0 PUSH2 0x3E8 DUP5 GT ISZERO PUSH2 0x15B2 JUMP JUMPDEST DUP3 PUSH1 0x6 SSTORE SLOAD SWAP2 PUSH1 0x5 SLOAD SWAP4 MLOAD SWAP4 DUP5 SWAP4 DUP5 PUSH1 0x40 SWAP2 SWAP5 SWAP4 SWAP3 PUSH1 0x60 DUP3 ADD SWAP6 DUP3 MSTORE PUSH1 0x20 DUP3 ADD MSTORE ADD MSTORE JUMP JUMPDEST SWAP2 SWAP1 POP CALLVALUE PUSH2 0x467 JUMPI DUP3 PUSH1 0x3 NOT CALLDATASIZE ADD SLT PUSH2 0x467 JUMPI PUSH2 0xF37 PUSH1 0xFF PUSH1 0x7 SLOAD AND ISZERO PUSH2 0x1793 JUMP JUMPDEST PUSH2 0xF3F PUSH2 0x1A14 JUMP JUMPDEST PUSH1 0xA SSTORE PUSH2 0xF4A PUSH2 0x1A02 JUMP JUMPDEST PUSH1 0xB SSTORE CALLER PUSH2 0x10E6 JUMPI JUMPDEST CALLER DUP4 MSTORE PUSH1 0x20 PUSH1 0xE DUP2 MSTORE DUP2 DUP5 KECCAK256 DUP1 SLOAD SWAP4 DUP5 ISZERO PUSH2 0x10B2 JUMPI DUP3 DUP3 PUSH2 0xFCB SWAP3 PUSH1 0x2 PUSH1 0x3 SWAP8 SWAP7 SWAP6 ADD SLOAD DUP1 PUSH2 0x106A JUMPI JUMPDEST POP DUP9 PUSH2 0xF8B PUSH1 0x5 SLOAD DUP11 PUSH2 0x1A9A JUMP JUMPDEST SWAP8 DUP4 DUP3 DUP11 SWAP6 SSTORE ADD SSTORE PUSH2 0xF9F DUP9 PUSH1 0xC SLOAD PUSH2 0x15ED JUMP JUMPDEST PUSH1 0xC SSTORE DUP6 MLOAD PUSH4 0xA9059CBB PUSH1 0xE0 SHL DUP2 MSTORE CALLER SWAP2 DUP2 ADD SWAP2 DUP3 MSTORE PUSH1 0x20 DUP3 ADD SWAP3 SWAP1 SWAP3 MSTORE SWAP1 SWAP3 DUP4 SWAP2 DUP3 SWAP2 PUSH1 0x40 SWAP1 SWAP2 ADD SWAP1 JUMP JUMPDEST SUB DUP2 DUP10 PUSH32 0x0 PUSH1 0x1 PUSH1 0x1 PUSH1 0xA0 SHL SUB AND GAS CALL DUP1 ISZERO PUSH2 0x1060 JUMPI SWAP4 DUP1 SWAP6 PUSH2 0x1034 SWAP3 PUSH32 0x7FC4727E062E336010F2C282598EF5F14FACB3DE68CF8195C2F23E1454B2B74E SWAP7 PUSH2 0x1043 JUMPI JUMPDEST POP PUSH2 0x15ED JUMP JUMPDEST SWAP1 DUP3 MLOAD SWAP5 DUP6 MSTORE DUP5 ADD MSTORE CALLER SWAP3 LOG2 DUP1 RETURN JUMPDEST PUSH2 0x1059 SWAP1 DUP6 RETURNDATASIZE DUP8 GT PUSH2 0x410 JUMPI PUSH2 0x401 DUP2 DUP4 PUSH2 0x1834 JUMP JUMPDEST POP CODESIZE PUSH2 0x102E JUMP JUMPDEST DUP4 MLOAD RETURNDATASIZE DUP9 DUP3 RETURNDATACOPY RETURNDATASIZE SWAP1 REVERT JUMPDEST PUSH2 0x107E PUSH2 0x1077 DUP5 DUP4 PUSH2 0x1AF7 JUMP JUMPDEST DUP1 SWAP3 PUSH2 0x15ED JUMP JUMPDEST DUP8 MLOAD SWAP2 DUP3 MSTORE DUP5 DUP3 ADD MSTORE PUSH32 0x987D620F307FF6B94D58743CB7A7509F24071586A77759B77C2D4E29F75A2F9A DUP8 CALLER SWAP3 LOG2 CODESIZE PUSH2 0xF7D JUMP JUMPDEST DUP4 MLOAD PUSH3 0x461BCD PUSH1 0xE5 SHL DUP2 MSTORE SWAP1 DUP2 ADD DUP4 SWAP1 MSTORE PUSH1 0xE PUSH1 0x24 DUP3 ADD MSTORE PUSH14 0x139BDD1A1A5B99C81CDD185AD959 PUSH1 0x92 SHL PUSH1 0x44 DUP3 ADD MSTORE PUSH1 0x64 SWAP1 REVERT JUMPDEST PUSH2 0x10EF CALLER PUSH2 0x1650 JUMP JUMPDEST CALLER DUP5 MSTORE PUSH1 0xE PUSH1 0x20 MSTORE DUP2 DUP5 KECCAK256 SWAP1 PUSH1 0x2 DUP3 ADD SSTORE PUSH1 0x1 PUSH1 0xA SLOAD SWAP2 ADD SSTORE PUSH2 0xF53 JUMP JUMPDEST POP POP CALLVALUE PUSH2 0x273 JUMPI DUP2 PUSH1 0x3 NOT CALLDATASIZE ADD SLT PUSH2 0x273 JUMPI PUSH1 0x20 SWAP1 MLOAD PUSH2 0x2710 DUP2 MSTORE RETURN JUMPDEST SWAP2 SWAP1 POP CALLVALUE PUSH2 0x467 JUMPI CALLDATASIZE PUSH1 0x3 NOT ADD PUSH1 0xA0 DUP2 SLT PUSH2 0x463 JUMPI PUSH1 0x80 SGT PUSH2 0x467 JUMPI PUSH8 0xFFFFFFFFFFFFFFFF SWAP2 PUSH1 0x84 CALLDATALOAD DUP4 DUP2 GT PUSH2 0x1407 JUMPI CALLDATASIZE PUSH1 0x23 DUP3 ADD SLT ISZERO PUSH2 0x1407 JUMPI DUP1 DUP3 ADD CALLDATALOAD SWAP4 DUP1 DUP6 GT PUSH2 0x1392 JUMPI PUSH1 0x24 SWAP1 CALLDATASIZE DUP3 DUP8 DUP6 ADD ADD GT PUSH2 0x1403 JUMPI PUSH2 0x118E PUSH1 0xFF PUSH1 0x7 SLOAD AND ISZERO PUSH2 0x1793 JUMP JUMPDEST PUSH2 0x1196 PUSH2 0x1A14 JUMP JUMPDEST PUSH1 0xA SSTORE PUSH2 0x11A1 PUSH2 0x1A02 JUMP JUMPDEST PUSH1 0xB SSTORE CALLER PUSH2 0x13DC JUMPI JUMPDEST DUP2 CALLDATALOAD SWAP6 PUSH2 0x11B8 DUP8 ISZERO ISZERO PUSH2 0x17C8 JUMP JUMPDEST PUSH1 0x1 PUSH1 0x1 PUSH1 0xA0 SHL SUB SWAP4 DUP6 CALLDATALOAD DUP6 DUP2 AND SWAP1 DUP2 SWAP1 SUB PUSH2 0x13D8 JUMPI DUP6 PUSH32 0x0 AND SUB PUSH2 0x13A8 JUMPI DUP7 MLOAD SWAP2 DUP8 DUP4 ADD DUP4 DUP2 LT DUP6 DUP3 GT OR PUSH2 0x1396 JUMPI DUP9 MSTORE ADDRESS DUP4 MSTORE PUSH1 0x20 DUP4 ADD DUP10 DUP2 MSTORE DUP11 SWAP4 SWAP3 PUSH15 0x22D473030F116DDEE9F6B43AC78BA3 SWAP3 SWAP1 DUP4 EXTCODESIZE ISZERO PUSH2 0x1392 JUMPI DUP10 DUP7 SWAP3 DUP14 SWAP5 DUP14 MLOAD SWAP12 DUP13 SWAP9 DUP10 SWAP8 DUP9 SWAP6 PUSH4 0x187945BD PUSH1 0xE1 SHL DUP8 MSTORE DUP4 PUSH2 0x1250 PUSH2 0x1547 JUMP JUMPDEST AND SWAP1 DUP8 ADD MSTORE DUP14 DUP7 ADD MSTORE PUSH1 0x44 CALLDATALOAD PUSH1 0x44 DUP7 ADD MSTORE PUSH1 0x64 CALLDATALOAD PUSH1 0x64 DUP7 ADD MSTORE MLOAD AND PUSH1 0x84 DUP5 ADD MSTORE MLOAD PUSH1 0xA4 DUP4 ADD MSTORE CALLER PUSH1 0xC4 DUP4 ADD MSTORE PUSH2 0x100 PUSH1 0xE4 DUP4 ADD MSTORE DUP1 PUSH2 0x104 DUP4 ADD MSTORE DUP1 DUP11 PUSH2 0x124 SWAP5 ADD DUP5 DUP5 ADD CALLDATACOPY DUP2 DUP2 ADD DUP4 ADD DUP5 SWAP1 MSTORE PUSH1 0x1F ADD PUSH1 0x1F NOT AND DUP2 ADD SUB ADD SWAP3 GAS CALL DUP1 ISZERO PUSH2 0x1388 JUMPI PUSH2 0x1340 JUMPI JUMPDEST POP POP POP SWAP1 PUSH2 0xE14 DUP3 PUSH2 0x12EB PUSH32 0x1449C6DD7851ABC30ABF37F57715F492010519147CC2652FBC38202C18A6EE90 SWAP5 SLOAD DUP7 PUSH2 0x1A9A JUMP JUMPDEST SWAP5 DUP6 SWAP2 CALLER DUP9 MSTORE PUSH1 0xE PUSH1 0x20 MSTORE DUP5 DUP9 KECCAK256 PUSH2 0x1304 DUP5 DUP3 SLOAD PUSH2 0x1643 JUMP JUMPDEST SWAP1 SSTORE CALLER DUP9 MSTORE PUSH1 0xE PUSH1 0x20 MSTORE DUP5 DUP9 KECCAK256 SWAP1 PUSH1 0x3 DUP3 ADD DUP1 SLOAD ISZERO PUSH2 0x1337 JUMPI JUMPDEST POP TIMESTAMP SWAP2 ADD SSTORE PUSH2 0x132F DUP3 PUSH1 0xC SLOAD PUSH2 0x1643 JUMP JUMPDEST PUSH1 0xC SSTORE PUSH2 0x15ED JUMP JUMPDEST TIMESTAMP SWAP1 SSTORE CODESIZE PUSH2 0x131E JUMP JUMPDEST DUP3 SWAP7 SWAP4 SWAP7 GT PUSH2 0x1377 JUMPI POP DUP3 MSTORE SWAP3 PUSH2 0xE14 PUSH32 0x1449C6DD7851ABC30ABF37F57715F492010519147CC2652FBC38202C18A6EE90 CODESIZE PUSH2 0x12B7 JUMP JUMPDEST PUSH4 0x4E487B71 PUSH1 0xE0 SHL DUP4 MSTORE PUSH1 0x41 DUP7 MSTORE DUP3 REVERT JUMPDEST DUP6 MLOAD RETURNDATASIZE DUP10 DUP3 RETURNDATACOPY RETURNDATASIZE SWAP1 REVERT JUMPDEST DUP6 DUP1 REVERT JUMPDEST PUSH4 0x4E487B71 PUSH1 0xE0 SHL DUP12 MSTORE PUSH1 0x41 DUP9 MSTORE DUP6 DUP12 REVERT JUMPDEST DUP7 MLOAD PUSH3 0x461BCD PUSH1 0xE5 SHL DUP2 MSTORE PUSH1 0x20 DUP2 DUP9 ADD MSTORE PUSH1 0xB DUP2 DUP7 ADD MSTORE PUSH11 0x2BB937B733903A37B5B2B7 PUSH1 0xA9 SHL PUSH1 0x44 DUP3 ADD MSTORE PUSH1 0x64 SWAP1 REVERT JUMPDEST DUP10 DUP1 REVERT JUMPDEST PUSH2 0x13E5 CALLER PUSH2 0x1650 JUMP JUMPDEST CALLER DUP9 MSTORE PUSH1 0xE PUSH1 0x20 MSTORE DUP6 DUP9 KECCAK256 SWAP1 PUSH1 0x2 DUP3 ADD SSTORE PUSH1 0x1 PUSH1 0xA SLOAD SWAP2 ADD SSTORE PUSH2 0x11AA JUMP JUMPDEST DUP7 DUP1 REVERT JUMPDEST DUP5 DUP1 REVERT JUMPDEST DUP4 CALLVALUE PUSH2 0x77C JUMPI PUSH1 0x20 CALLDATASIZE PUSH1 0x3 NOT ADD SLT PUSH2 0x77C JUMPI PUSH2 0xB7B PUSH2 0x1428 PUSH2 0x1547 JUMP JUMPDEST PUSH2 0x1434 PUSH2 0x4E9 CALLER PUSH2 0x1A65 JUMP JUMPDEST PUSH2 0x16A1 JUMP JUMPDEST POP POP CALLVALUE PUSH2 0x273 JUMPI DUP2 PUSH1 0x3 NOT CALLDATASIZE ADD SLT PUSH2 0x273 JUMPI PUSH1 0x20 SWAP1 PUSH1 0x3 SLOAD SWAP1 MLOAD SWAP1 DUP2 MSTORE RETURN JUMPDEST POP POP CALLVALUE PUSH2 0x273 JUMPI DUP2 PUSH1 0x3 NOT CALLDATASIZE ADD SLT PUSH2 0x273 JUMPI PUSH1 0x20 SWAP1 MLOAD PUSH1 0x3 DUP2 MSTORE RETURN JUMPDEST SWAP1 POP CALLVALUE PUSH2 0x467 JUMPI PUSH1 0x20 CALLDATASIZE PUSH1 0x3 NOT ADD SLT PUSH2 0x467 JUMPI CALLDATALOAD PUSH1 0x3 DUP2 LT ISZERO PUSH2 0x467 JUMPI SLOAD SWAP1 MLOAD PUSH1 0x1 PUSH1 0x1 PUSH1 0xA0 SHL SUB SWAP1 SWAP2 AND DUP2 MSTORE PUSH1 0x20 SWAP2 POP RETURN JUMPDEST POP POP CALLVALUE PUSH2 0x273 JUMPI PUSH1 0x20 CALLDATASIZE PUSH1 0x3 NOT ADD SLT PUSH2 0x273 JUMPI PUSH1 0x20 SWAP1 PUSH2 0x562 PUSH2 0x14C8 PUSH2 0x1547 JUMP JUMPDEST PUSH2 0x1650 JUMP JUMPDEST SWAP1 POP CALLVALUE PUSH2 0x467 JUMPI PUSH1 0x20 CALLDATASIZE PUSH1 0x3 NOT ADD SLT PUSH2 0x467 JUMPI PUSH32 0x12C476DBE611207AA496773AFC1CFEDB660981EBE024C62F643A0AAEC9BB7569 SWAP2 PUSH2 0x51B DUP3 CALLDATALOAD SWAP3 PUSH2 0x1514 PUSH2 0x4E9 CALLER PUSH2 0x1A65 JUMP JUMPDEST PUSH2 0x1522 PUSH2 0x3E8 DUP6 GT ISZERO PUSH2 0x15B2 JUMP JUMPDEST DUP4 PUSH1 0x5 SSTORE SLOAD SWAP2 PUSH1 0x6 SLOAD SWAP1 MLOAD SWAP4 DUP5 SWAP4 DUP5 PUSH1 0x40 SWAP2 SWAP5 SWAP4 SWAP3 PUSH1 0x60 DUP3 ADD SWAP6 DUP3 MSTORE PUSH1 0x20 DUP3 ADD MSTORE ADD MSTORE JUMP JUMPDEST PUSH1 0x4 CALLDATALOAD SWAP1 PUSH1 0x1 PUSH1 0x1 PUSH1 0xA0 SHL SUB DUP3 AND DUP3 SUB PUSH2 0xCF9 JUMPI JUMP JUMPDEST CALLVALUE PUSH2 0xCF9 JUMPI PUSH1 0x0 CALLDATASIZE PUSH1 0x3 NOT ADD SLT PUSH2 0xCF9 JUMPI PUSH1 0x20 PUSH1 0x40 MLOAD PUSH2 0x3E8 DUP2 MSTORE RETURN JUMPDEST ISZERO PUSH2 0x1581 JUMPI JUMP JUMPDEST PUSH1 0x40 MLOAD PUSH3 0x461BCD PUSH1 0xE5 SHL DUP2 MSTORE PUSH1 0x20 PUSH1 0x4 DUP3 ADD MSTORE PUSH1 0x9 PUSH1 0x24 DUP3 ADD MSTORE PUSH9 0x2737BA1037BBB732B9 PUSH1 0xB9 SHL PUSH1 0x44 DUP3 ADD MSTORE PUSH1 0x64 SWAP1 REVERT JUMPDEST ISZERO PUSH2 0x15B9 JUMPI JUMP JUMPDEST PUSH1 0x40 MLOAD PUSH3 0x461BCD PUSH1 0xE5 SHL DUP2 MSTORE PUSH1 0x20 PUSH1 0x4 DUP3 ADD MSTORE PUSH1 0xC PUSH1 0x24 DUP3 ADD MSTORE PUSH12 0x8CCACA40E8DEDE40D0D2CED PUSH1 0xA3 SHL PUSH1 0x44 DUP3 ADD MSTORE PUSH1 0x64 SWAP1 REVERT JUMPDEST SWAP2 SWAP1 DUP3 SUB SWAP2 DUP3 GT PUSH2 0x15FA JUMPI JUMP JUMPDEST PUSH4 0x4E487B71 PUSH1 0xE0 SHL PUSH1 0x0 MSTORE PUSH1 0x11 PUSH1 0x4 MSTORE PUSH1 0x24 PUSH1 0x0 REVERT JUMPDEST DUP2 DUP2 MUL SWAP3 SWAP2 DUP2 ISZERO SWAP2 DUP5 DIV EQ OR ISZERO PUSH2 0x15FA JUMPI JUMP JUMPDEST DUP2 ISZERO PUSH2 0x162D JUMPI DIV SWAP1 JUMP JUMPDEST PUSH4 0x4E487B71 PUSH1 0xE0 SHL PUSH1 0x0 MSTORE PUSH1 0x12 PUSH1 0x4 MSTORE PUSH1 0x24 PUSH1 0x0 REVERT JUMPDEST SWAP2 SWAP1 DUP3 ADD DUP1 SWAP3 GT PUSH2 0x15FA JUMPI JUMP JUMPDEST PUSH1 0x1 DUP1 PUSH1 0xA0 SHL SUB AND PUSH1 0x0 MSTORE PUSH1 0xE PUSH1 0x20 MSTORE PUSH2 0x169E PUSH1 0x40 PUSH1 0x0 KECCAK256 PUSH1 0x2 PUSH8 0xDE0B6B3A7640000 PUSH2 0x1694 DUP4 SLOAD PUSH2 0x168E PUSH2 0x1683 PUSH2 0x1A14 JUMP JUMPDEST PUSH1 0x1 DUP8 ADD SLOAD SWAP1 PUSH2 0x15ED JUMP JUMPDEST SWAP1 PUSH2 0x1610 JUMP JUMPDEST DIV SWAP2 ADD SLOAD SWAP1 PUSH2 0x1643 JUMP JUMPDEST SWAP1 JUMP JUMPDEST PUSH1 0x1 SWAP2 PUSH1 0x3 SWAP2 PUSH1 0x1 PUSH1 0x3 SLOAD GT ISZERO PUSH2 0x1756 JUMPI PUSH1 0x0 JUMPDEST DUP4 DUP2 LT PUSH2 0x16ED JUMPI PUSH1 0x40 MLOAD PUSH3 0x461BCD PUSH1 0xE5 SHL DUP2 MSTORE PUSH1 0x20 PUSH1 0x4 DUP3 ADD MSTORE PUSH1 0x9 PUSH1 0x24 DUP3 ADD MSTORE PUSH9 0x139BDD08199BDD5B99 PUSH1 0xBA SHL PUSH1 0x44 DUP3 ADD MSTORE PUSH1 0x64 SWAP1 REVERT JUMPDEST DUP1 SLOAD PUSH1 0x1 PUSH1 0x1 PUSH1 0xA0 SHL SUB DUP4 DUP2 AND SWAP2 SWAP1 DUP2 AND DUP3 EQ PUSH2 0x170D JUMPI POP POP DUP5 ADD PUSH2 0x16B5 JUMP JUMPDEST PUSH1 0x1 PUSH1 0x1 PUSH1 0xA0 SHL SUB NOT AND SWAP1 SWAP2 SSTORE DUP4 SLOAD SWAP3 SWAP5 POP SWAP3 SWAP2 SWAP1 POP DUP1 ISZERO PUSH2 0x15FA JUMPI PUSH1 0x0 NOT ADD SWAP1 SSTORE PUSH32 0x58619076ADF5BB0943D100EF88D52D7C3FD691B19D3A9071B555B651FBF418DA PUSH1 0x0 DUP1 LOG2 JUMP JUMPDEST PUSH1 0x40 MLOAD PUSH3 0x461BCD PUSH1 0xE5 SHL DUP2 MSTORE PUSH1 0x20 PUSH1 0x4 DUP3 ADD MSTORE PUSH1 0x15 PUSH1 0x24 DUP3 ADD MSTORE PUSH21 0x2732B2B21030BA103632B0B9BA10189037BBB732B9 PUSH1 0x59 SHL PUSH1 0x44 DUP3 ADD MSTORE PUSH1 0x64 SWAP1 REVERT JUMPDEST ISZERO PUSH2 0x179A JUMPI JUMP JUMPDEST PUSH1 0x40 MLOAD PUSH3 0x461BCD PUSH1 0xE5 SHL DUP2 MSTORE PUSH1 0x20 PUSH1 0x4 DUP3 ADD MSTORE PUSH1 0x6 PUSH1 0x24 DUP3 ADD MSTORE PUSH6 0x14185D5CD959 PUSH1 0xD2 SHL PUSH1 0x44 DUP3 ADD MSTORE PUSH1 0x64 SWAP1 REVERT JUMPDEST ISZERO PUSH2 0x17CF JUMPI JUMP JUMPDEST PUSH1 0x40 MLOAD PUSH3 0x461BCD PUSH1 0xE5 SHL DUP2 MSTORE PUSH1 0x20 PUSH1 0x4 DUP3 ADD MSTORE PUSH1 0xB PUSH1 0x24 DUP3 ADD MSTORE PUSH11 0x16995C9BC8185B5BDD5B9D PUSH1 0xAA SHL PUSH1 0x44 DUP3 ADD MSTORE PUSH1 0x64 SWAP1 REVERT JUMPDEST PUSH1 0x60 DUP2 ADD SWAP1 DUP2 LT PUSH8 0xFFFFFFFFFFFFFFFF DUP3 GT OR PUSH2 0x181E JUMPI PUSH1 0x40 MSTORE JUMP JUMPDEST PUSH4 0x4E487B71 PUSH1 0xE0 SHL PUSH1 0x0 MSTORE PUSH1 0x41 PUSH1 0x4 MSTORE PUSH1 0x24 PUSH1 0x0 REVERT JUMPDEST SWAP1 PUSH1 0x1F DUP1 NOT SWAP2 ADD AND DUP2 ADD SWAP1 DUP2 LT PUSH8 0xFFFFFFFFFFFFFFFF DUP3 GT OR PUSH2 0x181E JUMPI PUSH1 0x40 MSTORE JUMP JUMPDEST SWAP1 DUP2 PUSH1 0x20 SWAP2 SUB SLT PUSH2 0xCF9 JUMPI MLOAD DUP1 ISZERO ISZERO DUP2 SUB PUSH2 0xCF9 JUMPI SWAP1 JUMP JUMPDEST PUSH1 0xC SLOAD DUP1 ISZERO DUP1 ISZERO PUSH2 0x18BE JUMPI JUMPDEST PUSH2 0x18B8 JUMPI PUSH1 0x8 SLOAD SWAP1 PUSH4 0x1E13380 SWAP2 DUP3 DUP2 MUL SWAP3 DUP2 DUP5 DIV EQ DUP2 ISZERO OR ISZERO PUSH2 0x15FA JUMPI PUSH5 0x496CEBB800 MUL SWAP2 DUP1 DUP4 DIV PUSH2 0x2710 EQ SWAP1 ISZERO OR ISZERO PUSH2 0x15FA JUMPI PUSH2 0x169E SWAP2 PUSH2 0x1623 JUMP JUMPDEST POP PUSH1 0x0 SWAP1 JUMP JUMPDEST POP PUSH1 0x8 SLOAD ISZERO PUSH2 0x187A JUMP JUMPDEST PUSH1 0x1 PUSH1 0x1 PUSH1 0xA0 SHL SUB SWAP1 DUP1 DUP3 AND SWAP1 DUP2 ISZERO PUSH2 0x19CE JUMPI PUSH2 0x18E4 SWAP1 PUSH2 0x1A65 JUMP JUMPDEST PUSH2 0x1999 JUMPI PUSH1 0x3 DUP1 DUP1 SLOAD LT ISZERO PUSH2 0x195F JUMPI PUSH1 0x0 JUMPDEST DUP2 DUP2 LT PUSH2 0x1903 JUMPI POP POP POP POP JUMP JUMPDEST DUP1 SLOAD DUP5 DUP2 AND ISZERO PUSH2 0x1916 JUMPI POP PUSH1 0x1 ADD PUSH2 0x18F6 JUMP JUMPDEST PUSH1 0x1 PUSH1 0x1 PUSH1 0xA0 SHL SUB NOT AND DUP4 OR SWAP1 SSTORE DUP1 SLOAD SWAP2 SWAP3 POP SWAP1 PUSH1 0x0 NOT DUP2 EQ PUSH2 0x15FA JUMPI PUSH1 0x1 ADD SWAP1 SSTORE PUSH32 0x994A936646FE87FFE4F1E469D3D6AA417D6B855598397F323DE5B449F765F0C3 PUSH1 0x0 DUP1 LOG2 JUMP JUMPDEST PUSH1 0x40 MLOAD PUSH3 0x461BCD PUSH1 0xE5 SHL DUP2 MSTORE PUSH1 0x20 PUSH1 0x4 DUP3 ADD MSTORE PUSH1 0x12 PUSH1 0x24 DUP3 ADD MSTORE PUSH18 0x13585E081BDDDB995C9CC81C995858DA1959 PUSH1 0x72 SHL PUSH1 0x44 DUP3 ADD MSTORE PUSH1 0x64 SWAP1 REVERT JUMPDEST PUSH1 0x40 MLOAD PUSH3 0x461BCD PUSH1 0xE5 SHL DUP2 MSTORE PUSH1 0x20 PUSH1 0x4 DUP3 ADD MSTORE PUSH1 0xD PUSH1 0x24 DUP3 ADD MSTORE PUSH13 0x20B63932B0B23C9037BBB732B9 PUSH1 0x99 SHL PUSH1 0x44 DUP3 ADD MSTORE PUSH1 0x64 SWAP1 REVERT JUMPDEST PUSH1 0x40 MLOAD PUSH3 0x461BCD PUSH1 0xE5 SHL DUP2 MSTORE PUSH1 0x20 PUSH1 0x4 DUP3 ADD MSTORE PUSH1 0xC PUSH1 0x24 DUP3 ADD MSTORE PUSH12 0x5A65726F2061646472657373 PUSH1 0xA0 SHL PUSH1 0x44 DUP3 ADD MSTORE PUSH1 0x64 SWAP1 REVERT JUMPDEST PUSH1 0x9 SLOAD DUP1 TIMESTAMP LT PUSH1 0x0 EQ PUSH2 0x169E JUMPI POP TIMESTAMP SWAP1 JUMP JUMPDEST PUSH1 0xC SLOAD DUP1 ISZERO PUSH2 0x1A5E JUMPI PUSH1 0xA SLOAD PUSH2 0x1A37 PUSH2 0xA0C PUSH2 0x1A2E PUSH2 0x1A02 JUMP JUMPDEST PUSH1 0xB SLOAD SWAP1 PUSH2 0x15ED JUMP JUMPDEST PUSH8 0xDE0B6B3A7640000 SWAP1 DUP2 DUP2 MUL SWAP2 DUP2 DUP4 DIV EQ SWAP1 ISZERO OR ISZERO PUSH2 0x15FA JUMPI PUSH2 0x169E SWAP3 PUSH2 0x3C2 SWAP2 PUSH2 0x1623 JUMP JUMPDEST POP PUSH1 0xA SLOAD SWAP1 JUMP JUMPDEST PUSH1 0x0 JUMPDEST PUSH1 0x3 DUP2 LT PUSH2 0x1A77 JUMPI POP POP PUSH1 0x0 SWAP1 JUMP JUMPDEST DUP1 SLOAD PUSH1 0x1 PUSH1 0x1 PUSH1 0xA0 SHL SUB DUP4 DUP2 AND SWAP2 AND EQ PUSH2 0x1A93 JUMPI PUSH1 0x1 ADD PUSH2 0x1A68 JUMP JUMPDEST POP POP PUSH1 0x1 SWAP1 JUMP JUMPDEST SWAP1 DUP1 ISZERO PUSH2 0x1AF3 JUMPI SWAP1 PUSH2 0x1AB2 SWAP2 PUSH2 0x2710 SWAP3 DUP4 SWAP2 DUP4 PUSH2 0x1610 JUMP JUMPDEST DIV SWAP1 PUSH2 0x3E8 DUP1 DUP4 MUL SWAP1 DUP4 DUP3 DIV EQ DUP4 ISZERO OR ISZERO PUSH2 0x15FA JUMPI PUSH2 0x169E SWAP4 PUSH2 0x1AEE SWAP2 DIV PUSH2 0x1AE6 PUSH2 0x1ADD DUP3 DUP7 PUSH2 0x15ED JUMP JUMPDEST SWAP2 PUSH1 0xD SLOAD PUSH2 0x1643 JUMP JUMPDEST PUSH1 0xD SSTORE PUSH2 0x1B92 JUMP JUMPDEST PUSH2 0x15ED JUMP JUMPDEST POP SWAP1 JUMP JUMPDEST PUSH2 0x1B0D SWAP2 PUSH1 0x0 PUSH1 0x2 DUP3 ADD SSTORE PUSH1 0x4 TIMESTAMP SWAP2 ADD SSTORE PUSH2 0x1C8A JUMP JUMPDEST PUSH1 0x40 MLOAD PUSH4 0xA9059CBB PUSH1 0xE0 SHL DUP2 MSTORE CALLER PUSH1 0x4 DUP3 ADD MSTORE PUSH1 0x24 DUP2 ADD DUP3 SWAP1 MSTORE SWAP1 SWAP2 SWAP1 PUSH1 0x20 DUP2 PUSH1 0x44 DUP2 PUSH1 0x0 PUSH1 0x1 PUSH1 0x1 PUSH1 0xA0 SHL SUB PUSH32 0x0 AND GAS CALL DUP1 ISZERO PUSH2 0x1B86 JUMPI PUSH2 0x1B6B JUMPI POP JUMP JUMPDEST PUSH2 0x1B83 SWAP1 PUSH1 0x20 RETURNDATASIZE PUSH1 0x20 GT PUSH2 0x410 JUMPI PUSH2 0x401 DUP2 DUP4 PUSH2 0x1834 JUMP JUMPDEST POP JUMP JUMPDEST PUSH1 0x40 MLOAD RETURNDATASIZE PUSH1 0x0 DUP3 RETURNDATACOPY RETURNDATASIZE SWAP1 REVERT JUMPDEST DUP1 ISZERO DUP1 ISZERO PUSH2 0x1C80 JUMPI JUMPDEST PUSH2 0x1B83 JUMPI PUSH2 0x1BAE PUSH1 0x3 SWAP2 PUSH1 0x3 SLOAD SWAP1 PUSH2 0x1623 JUMP JUMPDEST SWAP1 PUSH1 0x0 SWAP2 PUSH1 0x0 JUMPDEST DUP3 DUP2 LT PUSH2 0x1BC2 JUMPI POP POP POP POP JUMP JUMPDEST DUP1 SLOAD DUP3 SWAP1 PUSH1 0x1 PUSH1 0x1 PUSH1 0xA0 SHL SUB SWAP1 DUP2 AND DUP1 PUSH2 0x1BE2 JUMPI JUMPDEST POP POP POP PUSH1 0x1 ADD PUSH2 0x1BB5 JUMP JUMPDEST PUSH1 0x40 DUP1 MLOAD PUSH4 0xA9059CBB PUSH1 0xE0 SHL DUP2 MSTORE PUSH1 0x1 PUSH1 0x1 PUSH1 0xA0 SHL SUB SWAP3 SWAP1 SWAP3 AND PUSH1 0x4 DUP4 ADD MSTORE PUSH1 0x24 DUP3 ADD SWAP4 SWAP1 SWAP4 MSTORE PUSH1 0x20 SWAP3 SWAP1 SWAP2 DUP4 SWAP1 DUP4 SWAP1 PUSH1 0x44 SWAP1 DUP3 SWAP1 DUP12 SWAP1 PUSH32 0x0 AND GAS CALL SWAP1 DUP2 ISZERO PUSH2 0x1C77 JUMPI POP SWAP1 PUSH1 0x1 SWAP4 SWAP3 SWAP2 PUSH2 0x1C59 JUMPI JUMPDEST DUP5 SWAP3 SWAP4 POP PUSH2 0x1BD7 JUMP JUMPDEST DUP2 PUSH2 0x1C6F SWAP3 SWAP1 RETURNDATASIZE LT PUSH2 0x410 JUMPI PUSH2 0x401 DUP2 DUP4 PUSH2 0x1834 JUMP JUMPDEST POP CODESIZE DUP1 PUSH2 0x1C50 JUMP JUMPDEST MLOAD RETURNDATASIZE DUP9 DUP3 RETURNDATACOPY RETURNDATASIZE SWAP1 REVERT JUMPDEST POP PUSH1 0x3 SLOAD ISZERO PUSH2 0x1B9B JUMP JUMPDEST PUSH1 0x6 SLOAD DUP1 ISZERO PUSH2 0x1AF3 JUMPI SWAP1 PUSH2 0x1AB2 SWAP2 PUSH2 0x2710 SWAP3 DUP4 SWAP2 DUP4 PUSH2 0x1610 JUMP INVALID LOG2 PUSH5 0x6970667358 0x22 SLT KECCAK256 0xD8 0xB5 0x4C 0xE6 LOG1 TIMESTAMP MSTORE8 PUSH30 0xF8C0719D6FD9CAD3AEEDE19EB9DD598429AD79B04BA6DB5D64736F6C6343 STOP ADDMOD XOR STOP CALLER "},"methodIdentifiers":{"BPS()":"249d39e9","FEE_TO_REWARD_BPS()":"a93837bd","H2O()":"feaa524d","MAX_FEE_BPS()":"d55be8c6","MAX_OWNERS()":"0b8bb146","PERMIT2()":"6afdd850","REWARD_DURATION()":"5ade228a","UTH2()":"f6c08a2e","addOwner(address)":"7065cb48","apyBps()":"51618ed3","buyVIP(uint256)":"e8295db2","claimFeeBps()":"7a526f4e","claimRewards()":"372500ab","contractTokenBalance()":"9e9aed62","depositRewards(uint256)":"8bdf67f2","earned(address)":"008cc262","emergencyWithdraw(address,uint256,address)":"551512de","getOwners()":"a0e67e2b","getStakeInfo(address)":"c3453153","isVip(address)":"84203f4b","lastTimeRewardApplicable()":"80faa57d","lastUpdateTime()":"c8f33c91","ownerCount()":"0db02622","owners(uint256)":"025e7c27","pause()":"8456cb59","paused()":"5c975abb","periodFinish()":"ebe2b12b","removeOwner(address)":"173825d9","rewardPerToken()":"cd3daf9d","rewardPerTokenStored()":"df136d65","rewardRate()":"7b0a47ee","rewardReserve()":"cab64bcd","setClaimFee(uint256)":"2e75ab50","setStakeFee(uint256)":"e2d7bee4","setUnstakeFee(uint256)":"0018a116","setVipDuration(uint256)":"9692065d","setVipPrice(uint256)":"a195aabd","stake(((address,uint256),uint256,uint256),bytes)":"1d9ab29a","stakeFeeBps()":"3ad5b8aa","totalStaked()":"817b1cd2","unpause()":"3f4ba83a","unstake()":"2def6620","unstakeFeeBps()":"c8fc9729","users(address)":"a87430ba","vipDuration()":"a0933701","vipExpire(address)":"991bbde7","vipExpireAt(address)":"e797f365","vipPrice()":"3711b23f"}}}}}