{"contracts/acuav2.sol":{"H2OUniversalStakingFinal":{"abi":[{"inputs":[{"internalType":"address","name":"_h2o","type":"address"},{"internalType":"address","name":"_uth2","type":"address"}],"stateMutability":"nonpayable","type":"constructor"},{"inputs":[],"name":"H2O","outputs":[{"internalType":"address","name":"","type":"address"}],"stateMutability":"view","type":"function"},{"inputs":[],"name":"UTH2","outputs":[{"internalType":"address","name":"","type":"address"}],"stateMutability":"view","type":"function"},{"inputs":[{"internalType":"uint256","name":"months_","type":"uint256"}],"name":"buyVIP","outputs":[],"stateMutability":"nonpayable","type":"function"},{"inputs":[],"name":"claimFeeBps","outputs":[{"internalType":"uint256","name":"","type":"uint256"}],"stateMutability":"view","type":"function"},{"inputs":[],"name":"claimOwnerVip","outputs":[],"stateMutability":"nonpayable","type":"function"},{"inputs":[],"name":"claimRefRewards","outputs":[],"stateMutability":"nonpayable","type":"function"},{"inputs":[],"name":"claimRewards","outputs":[],"stateMutability":"nonpayable","type":"function"},{"inputs":[],"name":"depositFeeBps","outputs":[{"internalType":"uint256","name":"","type":"uint256"}],"stateMutability":"view","type":"function"},{"inputs":[{"internalType":"uint256","name":"amount","type":"uint256"}],"name":"depositRewards","outputs":[],"stateMutability":"nonpayable","type":"function"},{"inputs":[{"internalType":"address","name":"acc","type":"address"}],"name":"earned","outputs":[{"internalType":"uint256","name":"","type":"uint256"}],"stateMutability":"view","type":"function"},{"inputs":[],"name":"lastUpdate","outputs":[{"internalType":"uint256","name":"","type":"uint256"}],"stateMutability":"view","type":"function"},{"inputs":[{"internalType":"address","name":"","type":"address"}],"name":"ownerShares","outputs":[{"internalType":"uint256","name":"","type":"uint256"}],"stateMutability":"view","type":"function"},{"inputs":[{"internalType":"address","name":"","type":"address"}],"name":"ownerVipDebt","outputs":[{"internalType":"uint256","name":"","type":"uint256"}],"stateMutability":"view","type":"function"},{"inputs":[],"name":"ownerVipPerShare","outputs":[{"internalType":"uint256","name":"","type":"uint256"}],"stateMutability":"view","type":"function"},{"inputs":[],"name":"ownerVipPool","outputs":[{"internalType":"uint256","name":"","type":"uint256"}],"stateMutability":"view","type":"function"},{"inputs":[{"internalType":"uint256","name":"","type":"uint256"}],"name":"owners","outputs":[{"internalType":"address","name":"","type":"address"}],"stateMutability":"view","type":"function"},{"inputs":[],"name":"periodFinish","outputs":[{"internalType":"uint256","name":"","type":"uint256"}],"stateMutability":"view","type":"function"},{"inputs":[{"internalType":"address","name":"","type":"address"}],"name":"refCount","outputs":[{"internalType":"uint256","name":"","type":"uint256"}],"stateMutability":"view","type":"function"},{"inputs":[],"name":"refPerShare","outputs":[{"internalType":"uint256","name":"","type":"uint256"}],"stateMutability":"view","type":"function"},{"inputs":[{"internalType":"address","name":"","type":"address"}],"name":"refRewardDebt","outputs":[{"internalType":"uint256","name":"","type":"uint256"}],"stateMutability":"view","type":"function"},{"inputs":[],"name":"referralPool","outputs":[{"internalType":"uint256","name":"","type":"uint256"}],"stateMutability":"view","type":"function"},{"inputs":[{"internalType":"address","name":"","type":"address"}],"name":"referrerOf","outputs":[{"internalType":"address","name":"","type":"address"}],"stateMutability":"view","type":"function"},{"inputs":[{"internalType":"address","name":"ref","type":"address"}],"name":"registerReferrer","outputs":[],"stateMutability":"nonpayable","type":"function"},{"inputs":[],"name":"rewardPerToken","outputs":[{"internalType":"uint256","name":"","type":"uint256"}],"stateMutability":"view","type":"function"},{"inputs":[],"name":"rewardPerTokenStored","outputs":[{"internalType":"uint256","name":"","type":"uint256"}],"stateMutability":"view","type":"function"},{"inputs":[],"name":"rewardRate","outputs":[{"internalType":"uint256","name":"","type":"uint256"}],"stateMutability":"view","type":"function"},{"inputs":[{"components":[{"components":[{"internalType":"address","name":"token","type":"address"},{"internalType":"uint256","name":"amount","type":"uint256"}],"internalType":"struct IPermit2.TokenPermissions","name":"permitted","type":"tuple"},{"internalType":"uint256","name":"nonce","type":"uint256"},{"internalType":"uint256","name":"deadline","type":"uint256"}],"internalType":"struct IPermit2.PermitTransferFrom","name":"permit","type":"tuple"},{"internalType":"bytes","name":"sig","type":"bytes"}],"name":"stake","outputs":[],"stateMutability":"nonpayable","type":"function"},{"inputs":[],"name":"totalOwnerVipShares","outputs":[{"internalType":"uint256","name":"","type":"uint256"}],"stateMutability":"view","type":"function"},{"inputs":[],"name":"totalRefShares","outputs":[{"internalType":"uint256","name":"","type":"uint256"}],"stateMutability":"view","type":"function"},{"inputs":[],"name":"totalStaked","outputs":[{"internalType":"uint256","name":"","type":"uint256"}],"stateMutability":"view","type":"function"},{"inputs":[{"internalType":"uint256","name":"amount","type":"uint256"}],"name":"unstake","outputs":[],"stateMutability":"nonpayable","type":"function"},{"inputs":[{"internalType":"address","name":"","type":"address"}],"name":"users","outputs":[{"internalType":"uint256","name":"balance","type":"uint256"},{"internalType":"uint256","name":"rewardDebt","type":"uint256"},{"internalType":"uint256","name":"pending","type":"uint256"}],"stateMutability":"view","type":"function"},{"inputs":[],"name":"vipDuration","outputs":[{"internalType":"uint256","name":"","type":"uint256"}],"stateMutability":"view","type":"function"},{"inputs":[{"internalType":"address","name":"","type":"address"}],"name":"vipExpire","outputs":[{"internalType":"uint256","name":"","type":"uint256"}],"stateMutability":"view","type":"function"},{"inputs":[],"name":"vipPrice","outputs":[{"internalType":"uint256","name":"","type":"uint256"}],"stateMutability":"view","type":"function"},{"inputs":[],"name":"withdrawFeeBps","outputs":[{"internalType":"uint256","name":"","type":"uint256"}],"stateMutability":"view","type":"function"}],"evm":{"bytecode":{"linkReferences":{},"object":"60c03461012e57601f61128238819003918201601f19168301916001600160401b0383118484101761013357808492604094855283398101031261012e57610052602061004b83610149565b9201610149565b906101f4806003556004556103e8600555670de0b6b3a764000060155562278d0060165560805260a052600080546801000000000000000081101561011a576001810180835581101561010657816040918160019452602082200133848060a01b03198254161790553381528260205220556001600255604051611124908161015e82396080518181816101c101528181610319015281816108380152610a85015260a05181818161020801526103eb0152f35b634e487b7160e01b82526032600452602482fd5b634e487b7160e01b82526041600452602482fd5b600080fd5b634e487b7160e01b600052604160045260246000fd5b51906001600160a01b038216820361012e5756fe6040608081526004908136101561001557600080fd5b600091823560e01c9081628cc26214610e79578163025e7c2714610e365781630717fdd614610e175781630b344a2714610df85781630bfc6fa114610dc05781631d9ab29a14610c035781631e4df93814610be45781632c340dec14610bc55781632e17de7814610b165781633711b23f14610af7578163372500ab146109b35781637a526f4e146109945781637aca2b59146109765781637b0a47ee14610957578163817b1cd2146109385781638a158f6a146109195781638bdf67f2146107d9578163991bbde7146107a15781639ea7685a1461071a578163a0933701146106fb578163a87430ba146106ad578163ab8798271461068e578163b035c56014610656578163bae48e8414610637578163c046371114610618578163cb83046914610596578163cd3daf9d14610572578163d21cacdf14610537578163df136d6514610518578163e702da83146104e0578163e8295db214610391578163e834674b1461028c57508063ebe2b12b1461026e578063ec8f95fc14610237578063f6c08a2e146101f45763feaa524d146101ae57600080fd5b346101f057816003193601126101f057517f00000000000000000000000000000000000000000000000000000000000000006001600160a01b03168152602090f35b5080fd5b50346101f057816003193601126101f057517f00000000000000000000000000000000000000000000000000000000000000006001600160a01b03168152602090f35b50346101f05760203660031901126101f05760209181906001600160a01b0361025e610e9f565b168152600d845220549051908152f35b50346101f057816003193601126101f0576020906008549051908152f35b90503461038d578260031936011261038d57338352602091600d83528084205491821561038957610314928491670de0b6b3a76400006102e060115493601086526102da878b205486610f04565b90610f27565b33808a5260108652868a2094909455855163a9059cbb60e01b81529283019384520460208301529384918291604090910190565b0381877f00000000000000000000000000000000000000000000000000000000000000006001600160a01b03165af19081156103805750610353578280f35b8161037292903d10610379575b61036a8183610fb2565b810190610fea565b5038808280f35b503d610360565b513d85823e3d90fd5b8480fd5b8280fd5b9190503461038d576020806003193601126104dc5782356103e6826103b883601554610f27565b85516323b872dd60e01b81523388820190815230602082015260408101929092529283918291606090910190565b0381897f00000000000000000000000000000000000000000000000000000000000000006001600160a01b03165af180156104d2579161045191600194936104b5575b503387526017835284872054428111156104aa5761044b90915b601654610f27565b90610f5a565b33865260178252838620555282208054906001820180921161049757556002549060018201809211610484575060025580f35b634e487b7160e01b835260119052602482fd5b634e487b7160e01b845260118352602484fd5b5061044b4291610443565b6104cb90843d86116103795761036a8183610fb2565b5038610429565b84513d88823e3d90fd5b8380fd5b5050346101f05760203660031901126101f05760209181906001600160a01b03610508610e9f565b1681526001845220549051908152f35b5050346101f057816003193601126101f057602090600a549051908152f35b5050346101f05760203660031901126101f0576020916001600160a01b0390829082610561610e9f565b168152600c85522054169051908152f35b5050346101f057816003193601126101f05760209061058f611002565b9051908152f35b90503461038d578260031936011261038d57338352602091600183528084205491821561038957610314928491670de0b6b3a76400006105e460135493601486526102da878b205486610f04565b33808a5260148652868a2094909455855163a9059cbb60e01b81529283019384520460208301529384918291604090910190565b5050346101f057816003193601126101f0576020906009549051908152f35b5050346101f057816003193601126101f057602090600e549051908152f35b5050346101f05760203660031901126101f05760209181906001600160a01b0361067e610e9f565b1681526010845220549051908152f35b5050346101f057816003193601126101f0576020906003549051908152f35b5050346101f05760203660031901126101f05760609181906001600160a01b036106d5610e9f565b168152600b60205220805491600260018301549201549181519384526020840152820152f35b5050346101f057816003193601126101f0576020906016549051908152f35b9190503461038d57602036600319011261038d57610736610e9f565b338452600c6020528184208054916001600160a01b039081841661079d571691338314610799576001600160a01b031916821790558352600d6020528220805460018101919082106104975755600e5490600182018092116104845750600e5580f35b8580fd5b8680fd5b5050346101f05760203660031901126101f05760209181906001600160a01b036107c9610e9f565b1681526017845220549051908152f35b9190503461038d57602036600319011261038d5781359083848554905b8181106108e6575050156108b85780516323b872dd60e01b815233848201908152306020828101919091526040820185905291929190839081906060010381887f00000000000000000000000000000000000000000000000000000000000000006001600160a01b03165af19081156108af5750610890575b506301e1338080910460075542600955420190814211610484575060085580f35b6108a89060203d6020116103795761036a8183610fb2565b503861086f565b513d86823e3d90fd5b5162461bcd60e51b815260208184015260096024820152683737ba1037bbb732b960b91b6044820152606490fd5b6108ef81610eba565b905460039190911b1c6001600160a01b03163314610910575b6001016107f6565b60019250610908565b5050346101f057816003193601126101f0576020906002549051908152f35b5050346101f057816003193601126101f0576020906006549051908152f35b5050346101f057816003193601126101f0576020906007549051908152f35b90503461038d578260031936011261038d5760209250549051908152f35b5050346101f057816003193601126101f0576020906005549051908152f35b8383346101f057816003193601126101f0576109ce33611054565b338252600b60205260028183200180549081156104dc57839055610a026127106109fa60055484610f27565b048092610f04565b90610a1a610a148260011c8093610f04565b9161109e565b670de0b6b3a764000090818102918183041490151715610ae45790610a809394610a54610a4c60209460025490610f3a565b601354610f5a565b601355835163a9059cbb60e01b8152339181019182526020820192909252909384918291604090910190565b0381867f00000000000000000000000000000000000000000000000000000000000000006001600160a01b03165af1908115610adb5750610abf575080f35b610ad79060203d6020116103795761036a8183610fb2565b5080f35b513d84823e3d90fd5b634e487b7160e01b845260118552602484fd5b5050346101f057816003193601126101f0576020906015549051908152f35b90503461038d57602091826003193601126104dc57813591610b3733611054565b338552600b8452828286205410610389576103149281610b99612710610b5f88955485610f27565b0492610b77610b6e8583610f04565b94601254610f5a565b601255338952600b8552858920610b8f828254610f04565b9055600654610f04565b600655835163a9059cbb60e01b8152339181019182526020820192909252909384918291604090910190565b5050346101f057816003193601126101f0576020906012549051908152f35b5050346101f057816003193601126101f057602090600f549051908152f35b839150346101f057366003190160a0811261038d576080136101f05767ffffffffffffffff926084358481116104dc57366023820112156104dc578083013592858411610389576024953687868501011161079957610c6133611054565b863594845185810181811084821117610dae57865230815260208101948786526e22d473030f116ddee9f6b43ac78ba392833b15610daa5791898094928a8589968f8d519c8d998a98899663187945bd60e11b885260018060a01b039283610cc7610e9f565b16908901528488015260443560448801526064356064880152511660848601525160a48501523360c485015261010060e4850152816101048501526101249401848401378181018301849052601f01601f191681010301925af180156104d257610d80575b85610d7a8686610d58610d4f612710610d4760035486610f27565b048094610f04565b92601254610f5a565b601255338452600b6020528320610d70828254610f5a565b9055600654610f5a565b60065580f35b8295939511610d985750835291925082848080610d2c565b634e487b7160e01b8352604190528482fd5b8980fd5b634e487b7160e01b8952604185528989fd5b5050346101f05760203660031901126101f05760209181906001600160a01b03610de8610e9f565b1681526014845220549051908152f35b5050346101f057816003193601126101f0576020906011549051908152f35b5050346101f057816003193601126101f0576020906013549051908152f35b90503461038d57602036600319011261038d5735918054831015610e765750610e60602092610eba565b905491519160018060a01b039160031b1c168152f35b80fd5b5050346101f05760203660031901126101f05760209061058f610e9a610e9f565b610f67565b600435906001600160a01b0382168203610eb557565b600080fd5b906000918254811015610ef0578280527f290decd9548b62a8d60345a988386fc84ba6bc95484008f6362f93160ef3e563019190565b634e487b7160e01b83526032600452602483fd5b91908203918211610f1157565b634e487b7160e01b600052601160045260246000fd5b81810292918115918404141715610f1157565b8115610f44570490565b634e487b7160e01b600052601260045260246000fd5b91908201809211610f1157565b60018060a01b0316600052600b602052610faf60406000206002670de0b6b3a7640000610fa583546102da610f9a611002565b600187015490610f04565b0491015490610f5a565b90565b90601f8019910116810190811067ffffffffffffffff821117610fd457604052565b634e487b7160e01b600052604160045260246000fd5b90816020910312610eb557518015158103610eb55790565b600654801561104d57600a5461102661101d60095442610f04565b60075490610f27565b670de0b6b3a764000090818102918183041490151715610f1157610faf9261044b91610f3a565b50600a5490565b61105c611002565b600a55426009556001600160a01b0381169081611077575050565b61108090610f67565b90600052600b60205260406000209060028201556001600a54910155565b600e549081156110dc57670de0b6b3a764000090818102918183041490151715610f11576110d7916110cf91610f3a565b601154610f5a565b601155565b6110e99150601254610f5a565b60125556fea2646970667358221220de7ba77e4772c3dc0324e938153f115c342f4b81be1af839c705bd6ae810056164736f6c63430008180033","opcodes":"PUSH1 0xC0 CALLVALUE PUSH2 0x12E JUMPI PUSH1 0x1F PUSH2 0x1282 CODESIZE DUP2 SWAP1 SUB SWAP2 DUP3 ADD PUSH1 0x1F NOT AND DUP4 ADD SWAP2 PUSH1 0x1 PUSH1 0x1 PUSH1 0x40 SHL SUB DUP4 GT DUP5 DUP5 LT OR PUSH2 0x133 JUMPI DUP1 DUP5 SWAP3 PUSH1 0x40 SWAP5 DUP6 MSTORE DUP4 CODECOPY DUP2 ADD SUB SLT PUSH2 0x12E JUMPI PUSH2 0x52 PUSH1 0x20 PUSH2 0x4B DUP4 PUSH2 0x149 JUMP JUMPDEST SWAP3 ADD PUSH2 0x149 JUMP JUMPDEST SWAP1 PUSH2 0x1F4 DUP1 PUSH1 0x3 SSTORE PUSH1 0x4 SSTORE PUSH2 0x3E8 PUSH1 0x5 SSTORE PUSH8 0xDE0B6B3A7640000 PUSH1 0x15 SSTORE PUSH3 0x278D00 PUSH1 0x16 SSTORE PUSH1 0x80 MSTORE PUSH1 0xA0 MSTORE PUSH1 0x0 DUP1 SLOAD PUSH9 0x10000000000000000 DUP2 LT ISZERO PUSH2 0x11A JUMPI PUSH1 0x1 DUP2 ADD DUP1 DUP4 SSTORE DUP2 LT ISZERO PUSH2 0x106 JUMPI DUP2 PUSH1 0x40 SWAP2 DUP2 PUSH1 0x1 SWAP5 MSTORE PUSH1 0x20 DUP3 KECCAK256 ADD CALLER DUP5 DUP1 PUSH1 0xA0 SHL SUB NOT DUP3 SLOAD AND OR SWAP1 SSTORE CALLER DUP2 MSTORE DUP3 PUSH1 0x20 MSTORE KECCAK256 SSTORE PUSH1 0x1 PUSH1 0x2 SSTORE PUSH1 0x40 MLOAD PUSH2 0x1124 SWAP1 DUP2 PUSH2 0x15E DUP3 CODECOPY PUSH1 0x80 MLOAD DUP2 DUP2 DUP2 PUSH2 0x1C1 ADD MSTORE DUP2 DUP2 PUSH2 0x319 ADD MSTORE DUP2 DUP2 PUSH2 0x838 ADD MSTORE PUSH2 0xA85 ADD MSTORE PUSH1 0xA0 MLOAD DUP2 DUP2 DUP2 PUSH2 0x208 ADD MSTORE PUSH2 0x3EB ADD MSTORE RETURN JUMPDEST PUSH4 0x4E487B71 PUSH1 0xE0 SHL DUP3 MSTORE PUSH1 0x32 PUSH1 0x4 MSTORE PUSH1 0x24 DUP3 REVERT JUMPDEST PUSH4 0x4E487B71 PUSH1 0xE0 SHL DUP3 MSTORE PUSH1 0x41 PUSH1 0x4 MSTORE PUSH1 0x24 DUP3 REVERT JUMPDEST PUSH1 0x0 DUP1 REVERT JUMPDEST PUSH4 0x4E487B71 PUSH1 0xE0 SHL PUSH1 0x0 MSTORE PUSH1 0x41 PUSH1 0x4 MSTORE PUSH1 0x24 PUSH1 0x0 REVERT JUMPDEST MLOAD SWAP1 PUSH1 0x1 PUSH1 0x1 PUSH1 0xA0 SHL SUB DUP3 AND DUP3 SUB PUSH2 0x12E JUMPI JUMP INVALID PUSH1 0x40 PUSH1 0x80 DUP2 MSTORE PUSH1 0x4 SWAP1 DUP2 CALLDATASIZE LT ISZERO PUSH2 0x15 JUMPI PUSH1 0x0 DUP1 REVERT JUMPDEST PUSH1 0x0 SWAP2 DUP3 CALLDATALOAD PUSH1 0xE0 SHR SWAP1 DUP2 PUSH3 0x8CC262 EQ PUSH2 0xE79 JUMPI DUP2 PUSH4 0x25E7C27 EQ PUSH2 0xE36 JUMPI DUP2 PUSH4 0x717FDD6 EQ PUSH2 0xE17 JUMPI DUP2 PUSH4 0xB344A27 EQ PUSH2 0xDF8 JUMPI DUP2 PUSH4 0xBFC6FA1 EQ PUSH2 0xDC0 JUMPI DUP2 PUSH4 0x1D9AB29A EQ PUSH2 0xC03 JUMPI DUP2 PUSH4 0x1E4DF938 EQ PUSH2 0xBE4 JUMPI DUP2 PUSH4 0x2C340DEC EQ PUSH2 0xBC5 JUMPI DUP2 PUSH4 0x2E17DE78 EQ PUSH2 0xB16 JUMPI DUP2 PUSH4 0x3711B23F EQ PUSH2 0xAF7 JUMPI DUP2 PUSH4 0x372500AB EQ PUSH2 0x9B3 JUMPI DUP2 PUSH4 0x7A526F4E EQ PUSH2 0x994 JUMPI DUP2 PUSH4 0x7ACA2B59 EQ PUSH2 0x976 JUMPI DUP2 PUSH4 0x7B0A47EE EQ PUSH2 0x957 JUMPI DUP2 PUSH4 0x817B1CD2 EQ PUSH2 0x938 JUMPI DUP2 PUSH4 0x8A158F6A EQ PUSH2 0x919 JUMPI DUP2 PUSH4 0x8BDF67F2 EQ PUSH2 0x7D9 JUMPI DUP2 PUSH4 0x991BBDE7 EQ PUSH2 0x7A1 JUMPI DUP2 PUSH4 0x9EA7685A EQ PUSH2 0x71A JUMPI DUP2 PUSH4 0xA0933701 EQ PUSH2 0x6FB JUMPI DUP2 PUSH4 0xA87430BA EQ PUSH2 0x6AD JUMPI DUP2 PUSH4 0xAB879827 EQ PUSH2 0x68E JUMPI DUP2 PUSH4 0xB035C560 EQ PUSH2 0x656 JUMPI DUP2 PUSH4 0xBAE48E84 EQ PUSH2 0x637 JUMPI DUP2 PUSH4 0xC0463711 EQ PUSH2 0x618 JUMPI DUP2 PUSH4 0xCB830469 EQ PUSH2 0x596 JUMPI DUP2 PUSH4 0xCD3DAF9D EQ PUSH2 0x572 JUMPI DUP2 PUSH4 0xD21CACDF EQ PUSH2 0x537 JUMPI DUP2 PUSH4 0xDF136D65 EQ PUSH2 0x518 JUMPI DUP2 PUSH4 0xE702DA83 EQ PUSH2 0x4E0 JUMPI DUP2 PUSH4 0xE8295DB2 EQ PUSH2 0x391 JUMPI DUP2 PUSH4 0xE834674B EQ PUSH2 0x28C JUMPI POP DUP1 PUSH4 0xEBE2B12B EQ PUSH2 0x26E JUMPI DUP1 PUSH4 0xEC8F95FC EQ PUSH2 0x237 JUMPI DUP1 PUSH4 0xF6C08A2E EQ PUSH2 0x1F4 JUMPI PUSH4 0xFEAA524D EQ PUSH2 0x1AE JUMPI PUSH1 0x0 DUP1 REVERT JUMPDEST CALLVALUE PUSH2 0x1F0 JUMPI DUP2 PUSH1 0x3 NOT CALLDATASIZE ADD SLT PUSH2 0x1F0 JUMPI MLOAD PUSH32 0x0 PUSH1 0x1 PUSH1 0x1 PUSH1 0xA0 SHL SUB AND DUP2 MSTORE PUSH1 0x20 SWAP1 RETURN JUMPDEST POP DUP1 REVERT JUMPDEST POP CALLVALUE PUSH2 0x1F0 JUMPI DUP2 PUSH1 0x3 NOT CALLDATASIZE ADD SLT PUSH2 0x1F0 JUMPI MLOAD PUSH32 0x0 PUSH1 0x1 PUSH1 0x1 PUSH1 0xA0 SHL SUB AND DUP2 MSTORE PUSH1 0x20 SWAP1 RETURN JUMPDEST POP CALLVALUE PUSH2 0x1F0 JUMPI PUSH1 0x20 CALLDATASIZE PUSH1 0x3 NOT ADD SLT PUSH2 0x1F0 JUMPI PUSH1 0x20 SWAP2 DUP2 SWAP1 PUSH1 0x1 PUSH1 0x1 PUSH1 0xA0 SHL SUB PUSH2 0x25E PUSH2 0xE9F JUMP JUMPDEST AND DUP2 MSTORE PUSH1 0xD DUP5 MSTORE KECCAK256 SLOAD SWAP1 MLOAD SWAP1 DUP2 MSTORE RETURN JUMPDEST POP CALLVALUE PUSH2 0x1F0 JUMPI DUP2 PUSH1 0x3 NOT CALLDATASIZE ADD SLT PUSH2 0x1F0 JUMPI PUSH1 0x20 SWAP1 PUSH1 0x8 SLOAD SWAP1 MLOAD SWAP1 DUP2 MSTORE RETURN JUMPDEST SWAP1 POP CALLVALUE PUSH2 0x38D JUMPI DUP3 PUSH1 0x3 NOT CALLDATASIZE ADD SLT PUSH2 0x38D JUMPI CALLER DUP4 MSTORE PUSH1 0x20 SWAP2 PUSH1 0xD DUP4 MSTORE DUP1 DUP5 KECCAK256 SLOAD SWAP2 DUP3 ISZERO PUSH2 0x389 JUMPI PUSH2 0x314 SWAP3 DUP5 SWAP2 PUSH8 0xDE0B6B3A7640000 PUSH2 0x2E0 PUSH1 0x11 SLOAD SWAP4 PUSH1 0x10 DUP7 MSTORE PUSH2 0x2DA DUP8 DUP12 KECCAK256 SLOAD DUP7 PUSH2 0xF04 JUMP JUMPDEST SWAP1 PUSH2 0xF27 JUMP JUMPDEST CALLER DUP1 DUP11 MSTORE PUSH1 0x10 DUP7 MSTORE DUP7 DUP11 KECCAK256 SWAP5 SWAP1 SWAP5 SSTORE DUP6 MLOAD PUSH4 0xA9059CBB PUSH1 0xE0 SHL DUP2 MSTORE SWAP3 DUP4 ADD SWAP4 DUP5 MSTORE DIV PUSH1 0x20 DUP4 ADD MSTORE SWAP4 DUP5 SWAP2 DUP3 SWAP2 PUSH1 0x40 SWAP1 SWAP2 ADD SWAP1 JUMP JUMPDEST SUB DUP2 DUP8 PUSH32 0x0 PUSH1 0x1 PUSH1 0x1 PUSH1 0xA0 SHL SUB AND GAS CALL SWAP1 DUP2 ISZERO PUSH2 0x380 JUMPI POP PUSH2 0x353 JUMPI DUP3 DUP1 RETURN JUMPDEST DUP2 PUSH2 0x372 SWAP3 SWAP1 RETURNDATASIZE LT PUSH2 0x379 JUMPI JUMPDEST PUSH2 0x36A DUP2 DUP4 PUSH2 0xFB2 JUMP JUMPDEST DUP2 ADD SWAP1 PUSH2 0xFEA JUMP JUMPDEST POP CODESIZE DUP1 DUP3 DUP1 RETURN JUMPDEST POP RETURNDATASIZE PUSH2 0x360 JUMP JUMPDEST MLOAD RETURNDATASIZE DUP6 DUP3 RETURNDATACOPY RETURNDATASIZE SWAP1 REVERT JUMPDEST DUP5 DUP1 REVERT JUMPDEST DUP3 DUP1 REVERT JUMPDEST SWAP2 SWAP1 POP CALLVALUE PUSH2 0x38D JUMPI PUSH1 0x20 DUP1 PUSH1 0x3 NOT CALLDATASIZE ADD SLT PUSH2 0x4DC JUMPI DUP3 CALLDATALOAD PUSH2 0x3E6 DUP3 PUSH2 0x3B8 DUP4 PUSH1 0x15 SLOAD PUSH2 0xF27 JUMP JUMPDEST DUP6 MLOAD PUSH4 0x23B872DD PUSH1 0xE0 SHL DUP2 MSTORE CALLER DUP9 DUP3 ADD SWAP1 DUP2 MSTORE ADDRESS PUSH1 0x20 DUP3 ADD MSTORE PUSH1 0x40 DUP2 ADD SWAP3 SWAP1 SWAP3 MSTORE SWAP3 DUP4 SWAP2 DUP3 SWAP2 PUSH1 0x60 SWAP1 SWAP2 ADD SWAP1 JUMP JUMPDEST SUB DUP2 DUP10 PUSH32 0x0 PUSH1 0x1 PUSH1 0x1 PUSH1 0xA0 SHL SUB AND GAS CALL DUP1 ISZERO PUSH2 0x4D2 JUMPI SWAP2 PUSH2 0x451 SWAP2 PUSH1 0x1 SWAP5 SWAP4 PUSH2 0x4B5 JUMPI JUMPDEST POP CALLER DUP8 MSTORE PUSH1 0x17 DUP4 MSTORE DUP5 DUP8 KECCAK256 SLOAD TIMESTAMP DUP2 GT ISZERO PUSH2 0x4AA JUMPI PUSH2 0x44B SWAP1 SWAP2 JUMPDEST PUSH1 0x16 SLOAD PUSH2 0xF27 JUMP JUMPDEST SWAP1 PUSH2 0xF5A JUMP JUMPDEST CALLER DUP7 MSTORE PUSH1 0x17 DUP3 MSTORE DUP4 DUP7 KECCAK256 SSTORE MSTORE DUP3 KECCAK256 DUP1 SLOAD SWAP1 PUSH1 0x1 DUP3 ADD DUP1 SWAP3 GT PUSH2 0x497 JUMPI SSTORE PUSH1 0x2 SLOAD SWAP1 PUSH1 0x1 DUP3 ADD DUP1 SWAP3 GT PUSH2 0x484 JUMPI POP PUSH1 0x2 SSTORE DUP1 RETURN JUMPDEST PUSH4 0x4E487B71 PUSH1 0xE0 SHL DUP4 MSTORE PUSH1 0x11 SWAP1 MSTORE PUSH1 0x24 DUP3 REVERT JUMPDEST PUSH4 0x4E487B71 PUSH1 0xE0 SHL DUP5 MSTORE PUSH1 0x11 DUP4 MSTORE PUSH1 0x24 DUP5 REVERT JUMPDEST POP PUSH2 0x44B TIMESTAMP SWAP2 PUSH2 0x443 JUMP JUMPDEST PUSH2 0x4CB SWAP1 DUP5 RETURNDATASIZE DUP7 GT PUSH2 0x379 JUMPI PUSH2 0x36A DUP2 DUP4 PUSH2 0xFB2 JUMP JUMPDEST POP CODESIZE PUSH2 0x429 JUMP JUMPDEST DUP5 MLOAD RETURNDATASIZE DUP9 DUP3 RETURNDATACOPY RETURNDATASIZE SWAP1 REVERT JUMPDEST DUP4 DUP1 REVERT JUMPDEST POP POP CALLVALUE PUSH2 0x1F0 JUMPI PUSH1 0x20 CALLDATASIZE PUSH1 0x3 NOT ADD SLT PUSH2 0x1F0 JUMPI PUSH1 0x20 SWAP2 DUP2 SWAP1 PUSH1 0x1 PUSH1 0x1 PUSH1 0xA0 SHL SUB PUSH2 0x508 PUSH2 0xE9F JUMP JUMPDEST AND DUP2 MSTORE PUSH1 0x1 DUP5 MSTORE KECCAK256 SLOAD SWAP1 MLOAD SWAP1 DUP2 MSTORE RETURN JUMPDEST POP POP CALLVALUE PUSH2 0x1F0 JUMPI DUP2 PUSH1 0x3 NOT CALLDATASIZE ADD SLT PUSH2 0x1F0 JUMPI PUSH1 0x20 SWAP1 PUSH1 0xA SLOAD SWAP1 MLOAD SWAP1 DUP2 MSTORE RETURN JUMPDEST POP POP CALLVALUE PUSH2 0x1F0 JUMPI PUSH1 0x20 CALLDATASIZE PUSH1 0x3 NOT ADD SLT PUSH2 0x1F0 JUMPI PUSH1 0x20 SWAP2 PUSH1 0x1 PUSH1 0x1 PUSH1 0xA0 SHL SUB SWAP1 DUP3 SWAP1 DUP3 PUSH2 0x561 PUSH2 0xE9F JUMP JUMPDEST AND DUP2 MSTORE PUSH1 0xC DUP6 MSTORE KECCAK256 SLOAD AND SWAP1 MLOAD SWAP1 DUP2 MSTORE RETURN JUMPDEST POP POP CALLVALUE PUSH2 0x1F0 JUMPI DUP2 PUSH1 0x3 NOT CALLDATASIZE ADD SLT PUSH2 0x1F0 JUMPI PUSH1 0x20 SWAP1 PUSH2 0x58F PUSH2 0x1002 JUMP JUMPDEST SWAP1 MLOAD SWAP1 DUP2 MSTORE RETURN JUMPDEST SWAP1 POP CALLVALUE PUSH2 0x38D JUMPI DUP3 PUSH1 0x3 NOT CALLDATASIZE ADD SLT PUSH2 0x38D JUMPI CALLER DUP4 MSTORE PUSH1 0x20 SWAP2 PUSH1 0x1 DUP4 MSTORE DUP1 DUP5 KECCAK256 SLOAD SWAP2 DUP3 ISZERO PUSH2 0x389 JUMPI PUSH2 0x314 SWAP3 DUP5 SWAP2 PUSH8 0xDE0B6B3A7640000 PUSH2 0x5E4 PUSH1 0x13 SLOAD SWAP4 PUSH1 0x14 DUP7 MSTORE PUSH2 0x2DA DUP8 DUP12 KECCAK256 SLOAD DUP7 PUSH2 0xF04 JUMP JUMPDEST CALLER DUP1 DUP11 MSTORE PUSH1 0x14 DUP7 MSTORE DUP7 DUP11 KECCAK256 SWAP5 SWAP1 SWAP5 SSTORE DUP6 MLOAD PUSH4 0xA9059CBB PUSH1 0xE0 SHL DUP2 MSTORE SWAP3 DUP4 ADD SWAP4 DUP5 MSTORE DIV PUSH1 0x20 DUP4 ADD MSTORE SWAP4 DUP5 SWAP2 DUP3 SWAP2 PUSH1 0x40 SWAP1 SWAP2 ADD SWAP1 JUMP JUMPDEST POP POP CALLVALUE PUSH2 0x1F0 JUMPI DUP2 PUSH1 0x3 NOT CALLDATASIZE ADD SLT PUSH2 0x1F0 JUMPI PUSH1 0x20 SWAP1 PUSH1 0x9 SLOAD SWAP1 MLOAD SWAP1 DUP2 MSTORE RETURN JUMPDEST POP POP CALLVALUE PUSH2 0x1F0 JUMPI DUP2 PUSH1 0x3 NOT CALLDATASIZE ADD SLT PUSH2 0x1F0 JUMPI PUSH1 0x20 SWAP1 PUSH1 0xE SLOAD SWAP1 MLOAD SWAP1 DUP2 MSTORE RETURN JUMPDEST POP POP CALLVALUE PUSH2 0x1F0 JUMPI PUSH1 0x20 CALLDATASIZE PUSH1 0x3 NOT ADD SLT PUSH2 0x1F0 JUMPI PUSH1 0x20 SWAP2 DUP2 SWAP1 PUSH1 0x1 PUSH1 0x1 PUSH1 0xA0 SHL SUB PUSH2 0x67E PUSH2 0xE9F JUMP JUMPDEST AND DUP2 MSTORE PUSH1 0x10 DUP5 MSTORE KECCAK256 SLOAD SWAP1 MLOAD SWAP1 DUP2 MSTORE RETURN JUMPDEST POP POP CALLVALUE PUSH2 0x1F0 JUMPI DUP2 PUSH1 0x3 NOT CALLDATASIZE ADD SLT PUSH2 0x1F0 JUMPI PUSH1 0x20 SWAP1 PUSH1 0x3 SLOAD SWAP1 MLOAD SWAP1 DUP2 MSTORE RETURN JUMPDEST POP POP CALLVALUE PUSH2 0x1F0 JUMPI PUSH1 0x20 CALLDATASIZE PUSH1 0x3 NOT ADD SLT PUSH2 0x1F0 JUMPI PUSH1 0x60 SWAP2 DUP2 SWAP1 PUSH1 0x1 PUSH1 0x1 PUSH1 0xA0 SHL SUB PUSH2 0x6D5 PUSH2 0xE9F JUMP JUMPDEST AND DUP2 MSTORE PUSH1 0xB PUSH1 0x20 MSTORE KECCAK256 DUP1 SLOAD SWAP2 PUSH1 0x2 PUSH1 0x1 DUP4 ADD SLOAD SWAP3 ADD SLOAD SWAP2 DUP2 MLOAD SWAP4 DUP5 MSTORE PUSH1 0x20 DUP5 ADD MSTORE DUP3 ADD MSTORE RETURN JUMPDEST POP POP CALLVALUE PUSH2 0x1F0 JUMPI DUP2 PUSH1 0x3 NOT CALLDATASIZE ADD SLT PUSH2 0x1F0 JUMPI PUSH1 0x20 SWAP1 PUSH1 0x16 SLOAD SWAP1 MLOAD SWAP1 DUP2 MSTORE RETURN JUMPDEST SWAP2 SWAP1 POP CALLVALUE PUSH2 0x38D JUMPI PUSH1 0x20 CALLDATASIZE PUSH1 0x3 NOT ADD SLT PUSH2 0x38D JUMPI PUSH2 0x736 PUSH2 0xE9F JUMP JUMPDEST CALLER DUP5 MSTORE PUSH1 0xC PUSH1 0x20 MSTORE DUP2 DUP5 KECCAK256 DUP1 SLOAD SWAP2 PUSH1 0x1 PUSH1 0x1 PUSH1 0xA0 SHL SUB SWAP1 DUP2 DUP5 AND PUSH2 0x79D JUMPI AND SWAP2 CALLER DUP4 EQ PUSH2 0x799 JUMPI PUSH1 0x1 PUSH1 0x1 PUSH1 0xA0 SHL SUB NOT AND DUP3 OR SWAP1 SSTORE DUP4 MSTORE PUSH1 0xD PUSH1 0x20 MSTORE DUP3 KECCAK256 DUP1 SLOAD PUSH1 0x1 DUP2 ADD SWAP2 SWAP1 DUP3 LT PUSH2 0x497 JUMPI SSTORE PUSH1 0xE SLOAD SWAP1 PUSH1 0x1 DUP3 ADD DUP1 SWAP3 GT PUSH2 0x484 JUMPI POP PUSH1 0xE SSTORE DUP1 RETURN JUMPDEST DUP6 DUP1 REVERT JUMPDEST DUP7 DUP1 REVERT JUMPDEST POP POP CALLVALUE PUSH2 0x1F0 JUMPI PUSH1 0x20 CALLDATASIZE PUSH1 0x3 NOT ADD SLT PUSH2 0x1F0 JUMPI PUSH1 0x20 SWAP2 DUP2 SWAP1 PUSH1 0x1 PUSH1 0x1 PUSH1 0xA0 SHL SUB PUSH2 0x7C9 PUSH2 0xE9F JUMP JUMPDEST AND DUP2 MSTORE PUSH1 0x17 DUP5 MSTORE KECCAK256 SLOAD SWAP1 MLOAD SWAP1 DUP2 MSTORE RETURN JUMPDEST SWAP2 SWAP1 POP CALLVALUE PUSH2 0x38D JUMPI PUSH1 0x20 CALLDATASIZE PUSH1 0x3 NOT ADD SLT PUSH2 0x38D JUMPI DUP2 CALLDATALOAD SWAP1 DUP4 DUP5 DUP6 SLOAD SWAP1 JUMPDEST DUP2 DUP2 LT PUSH2 0x8E6 JUMPI POP POP ISZERO PUSH2 0x8B8 JUMPI DUP1 MLOAD PUSH4 0x23B872DD PUSH1 0xE0 SHL DUP2 MSTORE CALLER DUP5 DUP3 ADD SWAP1 DUP2 MSTORE ADDRESS PUSH1 0x20 DUP3 DUP2 ADD SWAP2 SWAP1 SWAP2 MSTORE PUSH1 0x40 DUP3 ADD DUP6 SWAP1 MSTORE SWAP2 SWAP3 SWAP2 SWAP1 DUP4 SWAP1 DUP2 SWAP1 PUSH1 0x60 ADD SUB DUP2 DUP9 PUSH32 0x0 PUSH1 0x1 PUSH1 0x1 PUSH1 0xA0 SHL SUB AND GAS CALL SWAP1 DUP2 ISZERO PUSH2 0x8AF JUMPI POP PUSH2 0x890 JUMPI JUMPDEST POP PUSH4 0x1E13380 DUP1 SWAP2 DIV PUSH1 0x7 SSTORE TIMESTAMP PUSH1 0x9 SSTORE TIMESTAMP ADD SWAP1 DUP2 TIMESTAMP GT PUSH2 0x484 JUMPI POP PUSH1 0x8 SSTORE DUP1 RETURN JUMPDEST PUSH2 0x8A8 SWAP1 PUSH1 0x20 RETURNDATASIZE PUSH1 0x20 GT PUSH2 0x379 JUMPI PUSH2 0x36A DUP2 DUP4 PUSH2 0xFB2 JUMP JUMPDEST POP CODESIZE PUSH2 0x86F JUMP JUMPDEST MLOAD RETURNDATASIZE DUP7 DUP3 RETURNDATACOPY RETURNDATASIZE SWAP1 REVERT JUMPDEST MLOAD PUSH3 0x461BCD PUSH1 0xE5 SHL DUP2 MSTORE PUSH1 0x20 DUP2 DUP5 ADD MSTORE PUSH1 0x9 PUSH1 0x24 DUP3 ADD MSTORE PUSH9 0x3737BA1037BBB732B9 PUSH1 0xB9 SHL PUSH1 0x44 DUP3 ADD MSTORE PUSH1 0x64 SWAP1 REVERT JUMPDEST PUSH2 0x8EF DUP2 PUSH2 0xEBA JUMP JUMPDEST SWAP1 SLOAD PUSH1 0x3 SWAP2 SWAP1 SWAP2 SHL SHR PUSH1 0x1 PUSH1 0x1 PUSH1 0xA0 SHL SUB AND CALLER EQ PUSH2 0x910 JUMPI JUMPDEST PUSH1 0x1 ADD PUSH2 0x7F6 JUMP JUMPDEST PUSH1 0x1 SWAP3 POP PUSH2 0x908 JUMP JUMPDEST POP POP CALLVALUE PUSH2 0x1F0 JUMPI DUP2 PUSH1 0x3 NOT CALLDATASIZE ADD SLT PUSH2 0x1F0 JUMPI PUSH1 0x20 SWAP1 PUSH1 0x2 SLOAD SWAP1 MLOAD SWAP1 DUP2 MSTORE RETURN JUMPDEST POP POP CALLVALUE PUSH2 0x1F0 JUMPI DUP2 PUSH1 0x3 NOT CALLDATASIZE ADD SLT PUSH2 0x1F0 JUMPI PUSH1 0x20 SWAP1 PUSH1 0x6 SLOAD SWAP1 MLOAD SWAP1 DUP2 MSTORE RETURN JUMPDEST POP POP CALLVALUE PUSH2 0x1F0 JUMPI DUP2 PUSH1 0x3 NOT CALLDATASIZE ADD SLT PUSH2 0x1F0 JUMPI PUSH1 0x20 SWAP1 PUSH1 0x7 SLOAD SWAP1 MLOAD SWAP1 DUP2 MSTORE RETURN JUMPDEST SWAP1 POP CALLVALUE PUSH2 0x38D JUMPI DUP3 PUSH1 0x3 NOT CALLDATASIZE ADD SLT PUSH2 0x38D JUMPI PUSH1 0x20 SWAP3 POP SLOAD SWAP1 MLOAD SWAP1 DUP2 MSTORE RETURN JUMPDEST POP POP CALLVALUE PUSH2 0x1F0 JUMPI DUP2 PUSH1 0x3 NOT CALLDATASIZE ADD SLT PUSH2 0x1F0 JUMPI PUSH1 0x20 SWAP1 PUSH1 0x5 SLOAD SWAP1 MLOAD SWAP1 DUP2 MSTORE RETURN JUMPDEST DUP4 DUP4 CALLVALUE PUSH2 0x1F0 JUMPI DUP2 PUSH1 0x3 NOT CALLDATASIZE ADD SLT PUSH2 0x1F0 JUMPI PUSH2 0x9CE CALLER PUSH2 0x1054 JUMP JUMPDEST CALLER DUP3 MSTORE PUSH1 0xB PUSH1 0x20 MSTORE PUSH1 0x2 DUP2 DUP4 KECCAK256 ADD DUP1 SLOAD SWAP1 DUP2 ISZERO PUSH2 0x4DC JUMPI DUP4 SWAP1 SSTORE PUSH2 0xA02 PUSH2 0x2710 PUSH2 0x9FA PUSH1 0x5 SLOAD DUP5 PUSH2 0xF27 JUMP JUMPDEST DIV DUP1 SWAP3 PUSH2 0xF04 JUMP JUMPDEST SWAP1 PUSH2 0xA1A PUSH2 0xA14 DUP3 PUSH1 0x1 SHR DUP1 SWAP4 PUSH2 0xF04 JUMP JUMPDEST SWAP2 PUSH2 0x109E JUMP JUMPDEST PUSH8 0xDE0B6B3A7640000 SWAP1 DUP2 DUP2 MUL SWAP2 DUP2 DUP4 DIV EQ SWAP1 ISZERO OR ISZERO PUSH2 0xAE4 JUMPI SWAP1 PUSH2 0xA80 SWAP4 SWAP5 PUSH2 0xA54 PUSH2 0xA4C PUSH1 0x20 SWAP5 PUSH1 0x2 SLOAD SWAP1 PUSH2 0xF3A JUMP JUMPDEST PUSH1 0x13 SLOAD PUSH2 0xF5A JUMP JUMPDEST PUSH1 0x13 SSTORE DUP4 MLOAD PUSH4 0xA9059CBB PUSH1 0xE0 SHL DUP2 MSTORE CALLER SWAP2 DUP2 ADD SWAP2 DUP3 MSTORE PUSH1 0x20 DUP3 ADD SWAP3 SWAP1 SWAP3 MSTORE SWAP1 SWAP4 DUP5 SWAP2 DUP3 SWAP2 PUSH1 0x40 SWAP1 SWAP2 ADD SWAP1 JUMP JUMPDEST SUB DUP2 DUP7 PUSH32 0x0 PUSH1 0x1 PUSH1 0x1 PUSH1 0xA0 SHL SUB AND GAS CALL SWAP1 DUP2 ISZERO PUSH2 0xADB JUMPI POP PUSH2 0xABF JUMPI POP DUP1 RETURN JUMPDEST PUSH2 0xAD7 SWAP1 PUSH1 0x20 RETURNDATASIZE PUSH1 0x20 GT PUSH2 0x379 JUMPI PUSH2 0x36A DUP2 DUP4 PUSH2 0xFB2 JUMP JUMPDEST POP DUP1 RETURN JUMPDEST MLOAD RETURNDATASIZE DUP5 DUP3 RETURNDATACOPY RETURNDATASIZE SWAP1 REVERT JUMPDEST PUSH4 0x4E487B71 PUSH1 0xE0 SHL DUP5 MSTORE PUSH1 0x11 DUP6 MSTORE PUSH1 0x24 DUP5 REVERT JUMPDEST POP POP CALLVALUE PUSH2 0x1F0 JUMPI DUP2 PUSH1 0x3 NOT CALLDATASIZE ADD SLT PUSH2 0x1F0 JUMPI PUSH1 0x20 SWAP1 PUSH1 0x15 SLOAD SWAP1 MLOAD SWAP1 DUP2 MSTORE RETURN JUMPDEST SWAP1 POP CALLVALUE PUSH2 0x38D JUMPI PUSH1 0x20 SWAP2 DUP3 PUSH1 0x3 NOT CALLDATASIZE ADD SLT PUSH2 0x4DC JUMPI DUP2 CALLDATALOAD SWAP2 PUSH2 0xB37 CALLER PUSH2 0x1054 JUMP JUMPDEST CALLER DUP6 MSTORE PUSH1 0xB DUP5 MSTORE DUP3 DUP3 DUP7 KECCAK256 SLOAD LT PUSH2 0x389 JUMPI PUSH2 0x314 SWAP3 DUP2 PUSH2 0xB99 PUSH2 0x2710 PUSH2 0xB5F DUP9 SWAP6 SLOAD DUP6 PUSH2 0xF27 JUMP JUMPDEST DIV SWAP3 PUSH2 0xB77 PUSH2 0xB6E DUP6 DUP4 PUSH2 0xF04 JUMP JUMPDEST SWAP5 PUSH1 0x12 SLOAD PUSH2 0xF5A JUMP JUMPDEST PUSH1 0x12 SSTORE CALLER DUP10 MSTORE PUSH1 0xB DUP6 MSTORE DUP6 DUP10 KECCAK256 PUSH2 0xB8F DUP3 DUP3 SLOAD PUSH2 0xF04 JUMP JUMPDEST SWAP1 SSTORE PUSH1 0x6 SLOAD PUSH2 0xF04 JUMP JUMPDEST PUSH1 0x6 SSTORE DUP4 MLOAD PUSH4 0xA9059CBB PUSH1 0xE0 SHL DUP2 MSTORE CALLER SWAP2 DUP2 ADD SWAP2 DUP3 MSTORE PUSH1 0x20 DUP3 ADD SWAP3 SWAP1 SWAP3 MSTORE SWAP1 SWAP4 DUP5 SWAP2 DUP3 SWAP2 PUSH1 0x40 SWAP1 SWAP2 ADD SWAP1 JUMP JUMPDEST POP POP CALLVALUE PUSH2 0x1F0 JUMPI DUP2 PUSH1 0x3 NOT CALLDATASIZE ADD SLT PUSH2 0x1F0 JUMPI PUSH1 0x20 SWAP1 PUSH1 0x12 SLOAD SWAP1 MLOAD SWAP1 DUP2 MSTORE RETURN JUMPDEST POP POP CALLVALUE PUSH2 0x1F0 JUMPI DUP2 PUSH1 0x3 NOT CALLDATASIZE ADD SLT PUSH2 0x1F0 JUMPI PUSH1 0x20 SWAP1 PUSH1 0xF SLOAD SWAP1 MLOAD SWAP1 DUP2 MSTORE RETURN JUMPDEST DUP4 SWAP2 POP CALLVALUE PUSH2 0x1F0 JUMPI CALLDATASIZE PUSH1 0x3 NOT ADD PUSH1 0xA0 DUP2 SLT PUSH2 0x38D JUMPI PUSH1 0x80 SGT PUSH2 0x1F0 JUMPI PUSH8 0xFFFFFFFFFFFFFFFF SWAP3 PUSH1 0x84 CALLDATALOAD DUP5 DUP2 GT PUSH2 0x4DC JUMPI CALLDATASIZE PUSH1 0x23 DUP3 ADD SLT ISZERO PUSH2 0x4DC JUMPI DUP1 DUP4 ADD CALLDATALOAD SWAP3 DUP6 DUP5 GT PUSH2 0x389 JUMPI PUSH1 0x24 SWAP6 CALLDATASIZE DUP8 DUP7 DUP6 ADD ADD GT PUSH2 0x799 JUMPI PUSH2 0xC61 CALLER PUSH2 0x1054 JUMP JUMPDEST DUP7 CALLDATALOAD SWAP5 DUP5 MLOAD DUP6 DUP2 ADD DUP2 DUP2 LT DUP5 DUP3 GT OR PUSH2 0xDAE JUMPI DUP7 MSTORE ADDRESS DUP2 MSTORE PUSH1 0x20 DUP2 ADD SWAP5 DUP8 DUP7 MSTORE PUSH15 0x22D473030F116DDEE9F6B43AC78BA3 SWAP3 DUP4 EXTCODESIZE ISZERO PUSH2 0xDAA JUMPI SWAP2 DUP10 DUP1 SWAP5 SWAP3 DUP11 DUP6 DUP10 SWAP7 DUP16 DUP14 MLOAD SWAP13 DUP14 SWAP10 DUP11 SWAP9 DUP10 SWAP7 PUSH4 0x187945BD PUSH1 0xE1 SHL DUP9 MSTORE PUSH1 0x1 DUP1 PUSH1 0xA0 SHL SUB SWAP3 DUP4 PUSH2 0xCC7 PUSH2 0xE9F JUMP JUMPDEST AND SWAP1 DUP10 ADD MSTORE DUP5 DUP9 ADD MSTORE PUSH1 0x44 CALLDATALOAD PUSH1 0x44 DUP9 ADD MSTORE PUSH1 0x64 CALLDATALOAD PUSH1 0x64 DUP9 ADD MSTORE MLOAD AND PUSH1 0x84 DUP7 ADD MSTORE MLOAD PUSH1 0xA4 DUP6 ADD MSTORE CALLER PUSH1 0xC4 DUP6 ADD MSTORE PUSH2 0x100 PUSH1 0xE4 DUP6 ADD MSTORE DUP2 PUSH2 0x104 DUP6 ADD MSTORE PUSH2 0x124 SWAP5 ADD DUP5 DUP5 ADD CALLDATACOPY DUP2 DUP2 ADD DUP4 ADD DUP5 SWAP1 MSTORE PUSH1 0x1F ADD PUSH1 0x1F NOT AND DUP2 ADD SUB ADD SWAP3 GAS CALL DUP1 ISZERO PUSH2 0x4D2 JUMPI PUSH2 0xD80 JUMPI JUMPDEST DUP6 PUSH2 0xD7A DUP7 DUP7 PUSH2 0xD58 PUSH2 0xD4F PUSH2 0x2710 PUSH2 0xD47 PUSH1 0x3 SLOAD DUP7 PUSH2 0xF27 JUMP JUMPDEST DIV DUP1 SWAP5 PUSH2 0xF04 JUMP JUMPDEST SWAP3 PUSH1 0x12 SLOAD PUSH2 0xF5A JUMP JUMPDEST PUSH1 0x12 SSTORE CALLER DUP5 MSTORE PUSH1 0xB PUSH1 0x20 MSTORE DUP4 KECCAK256 PUSH2 0xD70 DUP3 DUP3 SLOAD PUSH2 0xF5A JUMP JUMPDEST SWAP1 SSTORE PUSH1 0x6 SLOAD PUSH2 0xF5A JUMP JUMPDEST PUSH1 0x6 SSTORE DUP1 RETURN JUMPDEST DUP3 SWAP6 SWAP4 SWAP6 GT PUSH2 0xD98 JUMPI POP DUP4 MSTORE SWAP2 SWAP3 POP DUP3 DUP5 DUP1 DUP1 PUSH2 0xD2C JUMP JUMPDEST PUSH4 0x4E487B71 PUSH1 0xE0 SHL DUP4 MSTORE PUSH1 0x41 SWAP1 MSTORE DUP5 DUP3 REVERT JUMPDEST DUP10 DUP1 REVERT JUMPDEST PUSH4 0x4E487B71 PUSH1 0xE0 SHL DUP10 MSTORE PUSH1 0x41 DUP6 MSTORE DUP10 DUP10 REVERT JUMPDEST POP POP CALLVALUE PUSH2 0x1F0 JUMPI PUSH1 0x20 CALLDATASIZE PUSH1 0x3 NOT ADD SLT PUSH2 0x1F0 JUMPI PUSH1 0x20 SWAP2 DUP2 SWAP1 PUSH1 0x1 PUSH1 0x1 PUSH1 0xA0 SHL SUB PUSH2 0xDE8 PUSH2 0xE9F JUMP JUMPDEST AND DUP2 MSTORE PUSH1 0x14 DUP5 MSTORE KECCAK256 SLOAD SWAP1 MLOAD SWAP1 DUP2 MSTORE RETURN JUMPDEST POP POP CALLVALUE PUSH2 0x1F0 JUMPI DUP2 PUSH1 0x3 NOT CALLDATASIZE ADD SLT PUSH2 0x1F0 JUMPI PUSH1 0x20 SWAP1 PUSH1 0x11 SLOAD SWAP1 MLOAD SWAP1 DUP2 MSTORE RETURN JUMPDEST POP POP CALLVALUE PUSH2 0x1F0 JUMPI DUP2 PUSH1 0x3 NOT CALLDATASIZE ADD SLT PUSH2 0x1F0 JUMPI PUSH1 0x20 SWAP1 PUSH1 0x13 SLOAD SWAP1 MLOAD SWAP1 DUP2 MSTORE RETURN JUMPDEST SWAP1 POP CALLVALUE PUSH2 0x38D JUMPI PUSH1 0x20 CALLDATASIZE PUSH1 0x3 NOT ADD SLT PUSH2 0x38D JUMPI CALLDATALOAD SWAP2 DUP1 SLOAD DUP4 LT ISZERO PUSH2 0xE76 JUMPI POP PUSH2 0xE60 PUSH1 0x20 SWAP3 PUSH2 0xEBA JUMP JUMPDEST SWAP1 SLOAD SWAP2 MLOAD SWAP2 PUSH1 0x1 DUP1 PUSH1 0xA0 SHL SUB SWAP2 PUSH1 0x3 SHL SHR AND DUP2 MSTORE RETURN JUMPDEST DUP1 REVERT JUMPDEST POP POP CALLVALUE PUSH2 0x1F0 JUMPI PUSH1 0x20 CALLDATASIZE PUSH1 0x3 NOT ADD SLT PUSH2 0x1F0 JUMPI PUSH1 0x20 SWAP1 PUSH2 0x58F PUSH2 0xE9A PUSH2 0xE9F JUMP JUMPDEST PUSH2 0xF67 JUMP JUMPDEST PUSH1 0x4 CALLDATALOAD SWAP1 PUSH1 0x1 PUSH1 0x1 PUSH1 0xA0 SHL SUB DUP3 AND DUP3 SUB PUSH2 0xEB5 JUMPI JUMP JUMPDEST PUSH1 0x0 DUP1 REVERT JUMPDEST SWAP1 PUSH1 0x0 SWAP2 DUP3 SLOAD DUP2 LT ISZERO PUSH2 0xEF0 JUMPI DUP3 DUP1 MSTORE PUSH32 0x290DECD9548B62A8D60345A988386FC84BA6BC95484008F6362F93160EF3E563 ADD SWAP2 SWAP1 JUMP JUMPDEST PUSH4 0x4E487B71 PUSH1 0xE0 SHL DUP4 MSTORE PUSH1 0x32 PUSH1 0x4 MSTORE PUSH1 0x24 DUP4 REVERT JUMPDEST SWAP2 SWAP1 DUP3 SUB SWAP2 DUP3 GT PUSH2 0xF11 JUMPI JUMP JUMPDEST PUSH4 0x4E487B71 PUSH1 0xE0 SHL PUSH1 0x0 MSTORE PUSH1 0x11 PUSH1 0x4 MSTORE PUSH1 0x24 PUSH1 0x0 REVERT JUMPDEST DUP2 DUP2 MUL SWAP3 SWAP2 DUP2 ISZERO SWAP2 DUP5 DIV EQ OR ISZERO PUSH2 0xF11 JUMPI JUMP JUMPDEST DUP2 ISZERO PUSH2 0xF44 JUMPI DIV SWAP1 JUMP JUMPDEST PUSH4 0x4E487B71 PUSH1 0xE0 SHL PUSH1 0x0 MSTORE PUSH1 0x12 PUSH1 0x4 MSTORE PUSH1 0x24 PUSH1 0x0 REVERT JUMPDEST SWAP2 SWAP1 DUP3 ADD DUP1 SWAP3 GT PUSH2 0xF11 JUMPI JUMP JUMPDEST PUSH1 0x1 DUP1 PUSH1 0xA0 SHL SUB AND PUSH1 0x0 MSTORE PUSH1 0xB PUSH1 0x20 MSTORE PUSH2 0xFAF PUSH1 0x40 PUSH1 0x0 KECCAK256 PUSH1 0x2 PUSH8 0xDE0B6B3A7640000 PUSH2 0xFA5 DUP4 SLOAD PUSH2 0x2DA PUSH2 0xF9A PUSH2 0x1002 JUMP JUMPDEST PUSH1 0x1 DUP8 ADD SLOAD SWAP1 PUSH2 0xF04 JUMP JUMPDEST DIV SWAP2 ADD SLOAD SWAP1 PUSH2 0xF5A JUMP JUMPDEST SWAP1 JUMP JUMPDEST SWAP1 PUSH1 0x1F DUP1 NOT SWAP2 ADD AND DUP2 ADD SWAP1 DUP2 LT PUSH8 0xFFFFFFFFFFFFFFFF DUP3 GT OR PUSH2 0xFD4 JUMPI PUSH1 0x40 MSTORE JUMP JUMPDEST PUSH4 0x4E487B71 PUSH1 0xE0 SHL PUSH1 0x0 MSTORE PUSH1 0x41 PUSH1 0x4 MSTORE PUSH1 0x24 PUSH1 0x0 REVERT JUMPDEST SWAP1 DUP2 PUSH1 0x20 SWAP2 SUB SLT PUSH2 0xEB5 JUMPI MLOAD DUP1 ISZERO ISZERO DUP2 SUB PUSH2 0xEB5 JUMPI SWAP1 JUMP JUMPDEST PUSH1 0x6 SLOAD DUP1 ISZERO PUSH2 0x104D JUMPI PUSH1 0xA SLOAD PUSH2 0x1026 PUSH2 0x101D PUSH1 0x9 SLOAD TIMESTAMP PUSH2 0xF04 JUMP JUMPDEST PUSH1 0x7 SLOAD SWAP1 PUSH2 0xF27 JUMP JUMPDEST PUSH8 0xDE0B6B3A7640000 SWAP1 DUP2 DUP2 MUL SWAP2 DUP2 DUP4 DIV EQ SWAP1 ISZERO OR ISZERO PUSH2 0xF11 JUMPI PUSH2 0xFAF SWAP3 PUSH2 0x44B SWAP2 PUSH2 0xF3A JUMP JUMPDEST POP PUSH1 0xA SLOAD SWAP1 JUMP JUMPDEST PUSH2 0x105C PUSH2 0x1002 JUMP JUMPDEST PUSH1 0xA SSTORE TIMESTAMP PUSH1 0x9 SSTORE PUSH1 0x1 PUSH1 0x1 PUSH1 0xA0 SHL SUB DUP2 AND SWAP1 DUP2 PUSH2 0x1077 JUMPI POP POP JUMP JUMPDEST PUSH2 0x1080 SWAP1 PUSH2 0xF67 JUMP JUMPDEST SWAP1 PUSH1 0x0 MSTORE PUSH1 0xB PUSH1 0x20 MSTORE PUSH1 0x40 PUSH1 0x0 KECCAK256 SWAP1 PUSH1 0x2 DUP3 ADD SSTORE PUSH1 0x1 PUSH1 0xA SLOAD SWAP2 ADD SSTORE JUMP JUMPDEST PUSH1 0xE SLOAD SWAP1 DUP2 ISZERO PUSH2 0x10DC JUMPI PUSH8 0xDE0B6B3A7640000 SWAP1 DUP2 DUP2 MUL SWAP2 DUP2 DUP4 DIV EQ SWAP1 ISZERO OR ISZERO PUSH2 0xF11 JUMPI PUSH2 0x10D7 SWAP2 PUSH2 0x10CF SWAP2 PUSH2 0xF3A JUMP JUMPDEST PUSH1 0x11 SLOAD PUSH2 0xF5A JUMP JUMPDEST PUSH1 0x11 SSTORE JUMP JUMPDEST PUSH2 0x10E9 SWAP2 POP PUSH1 0x12 SLOAD PUSH2 0xF5A JUMP JUMPDEST PUSH1 0x12 SSTORE JUMP INVALID LOG2 PUSH5 0x6970667358 0x22 SLT KECCAK256 0xDE PUSH28 0xA77E4772C3DC0324E938153F115C342F4B81BE1AF839C705BD6AE810 SDIV PUSH2 0x6473 PUSH16 0x6C634300081800330000000000000000 "},"methodIdentifiers":{"H2O()":"feaa524d","UTH2()":"f6c08a2e","buyVIP(uint256)":"e8295db2","claimFeeBps()":"7a526f4e","claimOwnerVip()":"cb830469","claimRefRewards()":"e834674b","claimRewards()":"372500ab","depositFeeBps()":"ab879827","depositRewards(uint256)":"8bdf67f2","earned(address)":"008cc262","lastUpdate()":"c0463711","ownerShares(address)":"e702da83","ownerVipDebt(address)":"0bfc6fa1","ownerVipPerShare()":"0717fdd6","ownerVipPool()":"2c340dec","owners(uint256)":"025e7c27","periodFinish()":"ebe2b12b","refCount(address)":"ec8f95fc","refPerShare()":"0b344a27","refRewardDebt(address)":"b035c560","referralPool()":"1e4df938","referrerOf(address)":"d21cacdf","registerReferrer(address)":"9ea7685a","rewardPerToken()":"cd3daf9d","rewardPerTokenStored()":"df136d65","rewardRate()":"7b0a47ee","stake(((address,uint256),uint256,uint256),bytes)":"1d9ab29a","totalOwnerVipShares()":"8a158f6a","totalRefShares()":"bae48e84","totalStaked()":"817b1cd2","unstake(uint256)":"2e17de78","users(address)":"a87430ba","vipDuration()":"a0933701","vipExpire(address)":"991bbde7","vipPrice()":"3711b23f","withdrawFeeBps()":"7aca2b59"}}}}}