{"contracts/UniversalStaking.sol":{"UniversalStaking":{"abi":[{"inputs":[{"internalType":"address","name":"token","type":"address"},{"internalType":"address","name":"owner1","type":"address"}],"stateMutability":"nonpayable","type":"constructor"},{"anonymous":false,"inputs":[{"indexed":true,"internalType":"address","name":"user","type":"address"},{"indexed":false,"internalType":"uint256","name":"amount","type":"uint256"},{"indexed":false,"internalType":"uint256","name":"fee","type":"uint256"}],"name":"Claimed","type":"event"},{"anonymous":false,"inputs":[{"indexed":true,"internalType":"address","name":"token","type":"address"},{"indexed":true,"internalType":"address","name":"to","type":"address"},{"indexed":false,"internalType":"uint256","name":"amount","type":"uint256"}],"name":"EmergencyWithdraw","type":"event"},{"anonymous":false,"inputs":[{"indexed":false,"internalType":"uint256","name":"stakeFeeBps","type":"uint256"},{"indexed":false,"internalType":"uint256","name":"unstakeFeeBps","type":"uint256"},{"indexed":false,"internalType":"uint256","name":"claimFeeBps","type":"uint256"}],"name":"FeeConfigured","type":"event"},{"anonymous":false,"inputs":[{"indexed":true,"internalType":"address","name":"owner","type":"address"}],"name":"OwnerAdded","type":"event"},{"anonymous":false,"inputs":[{"indexed":true,"internalType":"address","name":"owner","type":"address"}],"name":"OwnerRemoved","type":"event"},{"anonymous":false,"inputs":[{"indexed":true,"internalType":"address","name":"by","type":"address"}],"name":"Paused","type":"event"},{"anonymous":false,"inputs":[{"indexed":true,"internalType":"address","name":"depositor","type":"address"},{"indexed":false,"internalType":"uint256","name":"amount","type":"uint256"},{"indexed":false,"internalType":"uint256","name":"newRate","type":"uint256"},{"indexed":false,"internalType":"uint256","name":"periodEnd","type":"uint256"}],"name":"RewardsDeposited","type":"event"},{"anonymous":false,"inputs":[{"indexed":true,"internalType":"address","name":"user","type":"address"},{"indexed":false,"internalType":"uint256","name":"amount","type":"uint256"},{"indexed":false,"internalType":"uint256","name":"fee","type":"uint256"}],"name":"Staked","type":"event"},{"anonymous":false,"inputs":[{"indexed":true,"internalType":"address","name":"by","type":"address"}],"name":"Unpaused","type":"event"},{"anonymous":false,"inputs":[{"indexed":true,"internalType":"address","name":"user","type":"address"},{"indexed":false,"internalType":"uint256","name":"amount","type":"uint256"},{"indexed":false,"internalType":"uint256","name":"fee","type":"uint256"}],"name":"Unstaked","type":"event"},{"inputs":[],"name":"BPS","outputs":[{"internalType":"uint256","name":"","type":"uint256"}],"stateMutability":"view","type":"function"},{"inputs":[],"name":"FEE_TO_REWARD_BPS","outputs":[{"internalType":"uint256","name":"","type":"uint256"}],"stateMutability":"view","type":"function"},{"inputs":[],"name":"MAX_FEE_BPS","outputs":[{"internalType":"uint256","name":"","type":"uint256"}],"stateMutability":"view","type":"function"},{"inputs":[],"name":"MAX_OWNERS","outputs":[{"internalType":"uint256","name":"","type":"uint256"}],"stateMutability":"view","type":"function"},{"inputs":[],"name":"PERMIT2","outputs":[{"internalType":"address","name":"","type":"address"}],"stateMutability":"view","type":"function"},{"inputs":[],"name":"REWARD_DURATION","outputs":[{"internalType":"uint256","name":"","type":"uint256"}],"stateMutability":"view","type":"function"},{"inputs":[],"name":"TOKEN","outputs":[{"internalType":"address","name":"","type":"address"}],"stateMutability":"view","type":"function"},{"inputs":[{"internalType":"address","name":"addr","type":"address"}],"name":"addOwner","outputs":[],"stateMutability":"nonpayable","type":"function"},{"inputs":[],"name":"apyBps","outputs":[{"internalType":"uint256","name":"","type":"uint256"}],"stateMutability":"view","type":"function"},{"inputs":[],"name":"claimFeeBps","outputs":[{"internalType":"uint256","name":"","type":"uint256"}],"stateMutability":"view","type":"function"},{"inputs":[],"name":"claimRewards","outputs":[],"stateMutability":"nonpayable","type":"function"},{"inputs":[],"name":"contractTokenBalance","outputs":[{"internalType":"uint256","name":"","type":"uint256"}],"stateMutability":"view","type":"function"},{"inputs":[{"internalType":"uint256","name":"amount","type":"uint256"}],"name":"depositRewards","outputs":[],"stateMutability":"nonpayable","type":"function"},{"inputs":[{"internalType":"address","name":"account","type":"address"}],"name":"earned","outputs":[{"internalType":"uint256","name":"","type":"uint256"}],"stateMutability":"view","type":"function"},{"inputs":[{"internalType":"address","name":"token","type":"address"},{"internalType":"uint256","name":"amount","type":"uint256"},{"internalType":"address","name":"to","type":"address"}],"name":"emergencyWithdraw","outputs":[],"stateMutability":"nonpayable","type":"function"},{"inputs":[],"name":"getOwners","outputs":[{"internalType":"address[3]","name":"","type":"address[3]"}],"stateMutability":"view","type":"function"},{"inputs":[{"internalType":"address","name":"user","type":"address"}],"name":"getStakeInfo","outputs":[{"internalType":"uint256","name":"stakedAmount","type":"uint256"},{"internalType":"uint256","name":"stakedAt","type":"uint256"},{"internalType":"uint256","name":"lastClaimAt","type":"uint256"},{"internalType":"uint256","name":"pendingRewards","type":"uint256"},{"internalType":"bool","name":"active","type":"bool"}],"stateMutability":"view","type":"function"},{"inputs":[],"name":"lastTimeRewardApplicable","outputs":[{"internalType":"uint256","name":"","type":"uint256"}],"stateMutability":"view","type":"function"},{"inputs":[],"name":"lastUpdateTime","outputs":[{"internalType":"uint256","name":"","type":"uint256"}],"stateMutability":"view","type":"function"},{"inputs":[],"name":"ownerCount","outputs":[{"internalType":"uint256","name":"","type":"uint256"}],"stateMutability":"view","type":"function"},{"inputs":[{"internalType":"uint256","name":"","type":"uint256"}],"name":"owners","outputs":[{"internalType":"address","name":"","type":"address"}],"stateMutability":"view","type":"function"},{"inputs":[],"name":"pause","outputs":[],"stateMutability":"nonpayable","type":"function"},{"inputs":[],"name":"paused","outputs":[{"internalType":"bool","name":"","type":"bool"}],"stateMutability":"view","type":"function"},{"inputs":[],"name":"periodFinish","outputs":[{"internalType":"uint256","name":"","type":"uint256"}],"stateMutability":"view","type":"function"},{"inputs":[{"internalType":"address","name":"addr","type":"address"}],"name":"removeOwner","outputs":[],"stateMutability":"nonpayable","type":"function"},{"inputs":[],"name":"rewardPerToken","outputs":[{"internalType":"uint256","name":"","type":"uint256"}],"stateMutability":"view","type":"function"},{"inputs":[],"name":"rewardPerTokenStored","outputs":[{"internalType":"uint256","name":"","type":"uint256"}],"stateMutability":"view","type":"function"},{"inputs":[],"name":"rewardRate","outputs":[{"internalType":"uint256","name":"","type":"uint256"}],"stateMutability":"view","type":"function"},{"inputs":[],"name":"rewardReserve","outputs":[{"internalType":"uint256","name":"","type":"uint256"}],"stateMutability":"view","type":"function"},{"inputs":[{"internalType":"uint256","name":"bps","type":"uint256"}],"name":"setClaimFee","outputs":[],"stateMutability":"nonpayable","type":"function"},{"inputs":[{"internalType":"uint256","name":"bps","type":"uint256"}],"name":"setStakeFee","outputs":[],"stateMutability":"nonpayable","type":"function"},{"inputs":[{"internalType":"uint256","name":"bps","type":"uint256"}],"name":"setUnstakeFee","outputs":[],"stateMutability":"nonpayable","type":"function"},{"inputs":[{"components":[{"components":[{"internalType":"address","name":"token","type":"address"},{"internalType":"uint256","name":"amount","type":"uint256"}],"internalType":"struct IPermit2.TokenPermissions","name":"permitted","type":"tuple"},{"internalType":"uint256","name":"nonce","type":"uint256"},{"internalType":"uint256","name":"deadline","type":"uint256"}],"internalType":"struct IPermit2.PermitTransferFrom","name":"permit","type":"tuple"},{"internalType":"bytes","name":"signature","type":"bytes"}],"name":"stake","outputs":[],"stateMutability":"nonpayable","type":"function"},{"inputs":[],"name":"stakeFeeBps","outputs":[{"internalType":"uint256","name":"","type":"uint256"}],"stateMutability":"view","type":"function"},{"inputs":[],"name":"totalStaked","outputs":[{"internalType":"uint256","name":"","type":"uint256"}],"stateMutability":"view","type":"function"},{"inputs":[],"name":"unpause","outputs":[],"stateMutability":"nonpayable","type":"function"},{"inputs":[],"name":"unstake","outputs":[],"stateMutability":"nonpayable","type":"function"},{"inputs":[],"name":"unstakeFeeBps","outputs":[{"internalType":"uint256","name":"","type":"uint256"}],"stateMutability":"view","type":"function"},{"inputs":[{"internalType":"address","name":"","type":"address"}],"name":"users","outputs":[{"internalType":"uint256","name":"staked","type":"uint256"},{"internalType":"uint256","name":"rewardPerTokenPaid","type":"uint256"},{"internalType":"uint256","name":"pendingReward","type":"uint256"},{"internalType":"uint256","name":"stakedAt","type":"uint256"},{"internalType":"uint256","name":"lastClaimAt","type":"uint256"}],"stateMutability":"view","type":"function"}],"evm":{"bytecode":{"linkReferences":{},"object":"60a0346200014757601f62001abb38819003918201601f19168301916001600160401b038311848410176200014c57808492604094855283398101031262000147576200005a6020620000528362000162565b920162000162565b60c8600481905560058190556006556001600160a01b039082821615620001155716908115620000e357608052600080546001600160a01b0319169190911790556001600355604051611943908162000178823960805181818161049e0152818161058c0152818161072801528181610c3501528181610e36015281816117a501526118840152f35b60405162461bcd60e51b815260206004820152600a6024820152692d32b9379037bbb732b960b11b6044820152606490fd5b60405162461bcd60e51b815260206004820152600a6024820152692d32b937903a37b5b2b760b11b6044820152606490fd5b600080fd5b634e487b7160e01b600052604160045260246000fd5b51906001600160a01b0382168203620001475756fe6040608081526004908136101561001557600080fd5b600091823560e01c90816218a116146111365781628cc26214611110578163025e7c27146110dd5781630b8bb146146110c15781630db02622146110a2578163173825d9146110745781631d9ab29a14610d8f578163249d39e914610d725781632def662014610b7a5781632e75ab5014610aff578163372500ab14610a0c5781633ad5b8aa146109ee5781633f4ba83a1461099f57816351618ed314610982578163551512de1461086f5781635ade228a146108505781635c975abb1461082c5781636afdd850146108025781637065cb48146107d15781637a526f4e146107b25781637b0a47ee1461079357816380faa57d14610776578163817b1cd21461075757816382bfefc8146107135781638456cb59146106c15781638bdf67f2146105225781639e9aed621461046f578163a0e67e2b146103dc578163a87430ba14610379578163a93837bd14610290578163c345315314610316578163c8f33c91146102f7578163c8fc9729146102d8578163cab64bcd146102b9578163cd3daf9d14610295578163d55be8c614610290578163df136d6514610271578163e2d7bee4146101ef575063ebe2b12b146101ce57600080fd5b346101eb57816003193601126101eb576020906009549051908152f35b5080fd5b9190503461026d57602036600319011261026d57817f12c476dbe611207aa496773afc1cfedb660981ebe024c62f643a0aaec9bb75699235809161023a610235336116ce565b6111e3565b6102486103e883111561121b565b5560055460065492519182526020820152604081019190915280606081015b0390a180f35b8280fd5b5050346101eb57816003193601126101eb57602090600a549051908152f35b6111c6565b5050346101eb57816003193601126101eb576020906102b261167d565b9051908152f35b5050346101eb57816003193601126101eb57602090600d549051908152f35b5050346101eb57816003193601126101eb576020906005549051908152f35b5050346101eb57816003193601126101eb57602090600b549051908152f35b839150346101eb5760203660031901126101eb578260a0936103366111b0565b93600180871b0385168152600e602052209261035c8454936003860154950154916112b9565b918051948486526020860152840152606083015215156080820152f35b9190503461026d57602036600319011261026d5760a09281906001600160a01b036103a26111b0565b168152600e602052208054926001820154926002830154916003840154930154938151958652602086015284015260608301526080820152f35b82843461046c578060031936011261046c5790606081516103fc8161146b565b3690378051908280835b6003821061044c5750505061041a8261146b565b519190825b6003831061042c57606084f35b81516001600160a01b03168152600192909201916020918201910161041f565b82546001600160a01b031681526001928301929190910190602001610406565b80fd5b9190503461026d578260031936011261026d5780516370a0823160e01b815230928101929092526020826024817f00000000000000000000000000000000000000000000000000000000000000006001600160a01b03165afa9182156105185783926104e0575b6020838351908152f35b9091506020813d602011610510575b816104fc6020938361149d565b8101031261026d57602092505190386104d6565b3d91506104ef565b81513d85823e3d90fd5b8383346101eb5760203660031901126101eb57823590610544610235336116ce565b61054c61167d565b600a5561055761166b565b600b55610565821515611431565b80516323b872dd60e01b8152338582015230602482015260448101839052602081606481877f00000000000000000000000000000000000000000000000000000000000000006001600160a01b03165af180156106b757610688575b506105ce82600d546112ac565b600d8190556009544281116106595750506301e13380600d54046008555b42600b556301e13380420190814211610646576009829055600d84905560085490519283526020830152604082015233907fb167f072295e46cb15516c982366f3856186579436fecbc2241827aa89a6685290606090a280f35b634e487b7160e01b845260118552602484fd5b6301e133809161067961067061067f934290611256565b60085490611279565b906112ac565b046008556105ec565b6106a99060203d6020116106b0575b6106a1818361149d565b8101906114bf565b50846105c1565b503d610697565b82513d86823e3d90fd5b833461046c578060031936011261046c576106de610235336116ce565b600160ff196007541617600755337f62e78cea01bee320cd4e420270b5ea74000d11b0c9f74754ebdbfc544b05a2588280a280f35b5050346101eb57816003193601126101eb57517f00000000000000000000000000000000000000000000000000000000000000006001600160a01b03168152602090f35b5050346101eb57816003193601126101eb57602090600c549051908152f35b5050346101eb57816003193601126101eb576020906102b261166b565b5050346101eb57816003193601126101eb576020906008549051908152f35b5050346101eb57816003193601126101eb576020906006549051908152f35b833461046c57602036600319011261046c576107ff6107ee6111b0565b6107fa610235336116ce565b611531565b80f35b5050346101eb57816003193601126101eb57602090516e22d473030f116ddee9f6b43ac78ba38152f35b5050346101eb57816003193601126101eb5760209060ff6007541690519015158152f35b5050346101eb57816003193601126101eb57602090516301e133808152f35b90503461026d57606036600319011261026d5761088a6111b0565b6001600160a01b03604435818116946024359390929086830361097d576108b3610235336116ce565b861561095057835163a9059cbb60e01b81526001600160a01b03909316958301958652602086810186905291169482908190604001038189885af1801561094657917ff24ef89f38eadc1bde50701ad6e4d6d11a2dc24f7cf834a486991f38833285049391602093610929575b5051908152a380f35b61093f90843d86116106b0576106a1818361149d565b5038610920565b82513d88823e3d90fd5b835162461bcd60e51b815260208188015260076024820152665a65726f20746f60c81b6044820152606490fd5b600080fd5b5050346101eb57816003193601126101eb576020906102b26114d7565b833461046c578060031936011261046c576109bc610235336116ce565b60ff1960075416600755337f5db9ee0a495bf2e6ff9c91a7834c1ba4fdd244a5e8aa4e537bd38aeae4b073aa8280a280f35b90503461026d578260031936011261026d5760209250549051908152f35b9190503461026d578260031936011261026d57610a2e60ff60075416156113fc565b610a3661167d565b600a55610a4161166b565b600b5533610ad8575b338352600e6020528083206002810154928315610aa8575090610a98610a917f987d620f307ff6b94d58743cb7a7509f24071586a77759b77c2d4e29f75a2f9a9385611760565b8094611256565b815193845260208401523392a280f35b606490602084519162461bcd60e51b8352820152600a6024820152694e6f207265776172647360b01b6044820152fd5b610ae1336112b9565b338452600e6020528184209060028201556001600a54910155610a4a565b9190503461026d57602036600319011261026d57816102677f12c476dbe611207aa496773afc1cfedb660981ebe024c62f643a0aaec9bb7569933591610b47610235336116ce565b610b556103e884111561121b565b8260065554916005549351938493846040919493926060820195825260208201520152565b9190503461026d578260031936011261026d57610b9c60ff60075416156113fc565b610ba461167d565b600a55610baf61166b565b600b5533610d4b575b3383526020600e81528184208054938415610d17578282610c309260026003979695015480610ccf575b5088610bf06005548a611703565b9783828a95550155610c0488600c54611256565b600c55855163a9059cbb60e01b8152339181019182526020820192909252909283918291604090910190565b0381897f00000000000000000000000000000000000000000000000000000000000000006001600160a01b03165af18015610cc557938095610c99927f7fc4727e062e336010f2c282598ef5f14facb3de68cf8195c2f23e1454b2b74e96610ca8575b50611256565b9082519485528401523392a280f35b610cbe90853d87116106b0576106a1818361149d565b5038610c93565b83513d88823e3d90fd5b610ce3610cdc8483611760565b8092611256565b8751918252848201527f987d620f307ff6b94d58743cb7a7509f24071586a77759b77c2d4e29f75a2f9a873392a238610be2565b835162461bcd60e51b8152908101839052600e60248201526d139bdd1a1a5b99c81cdd185ad95960921b6044820152606490fd5b610d54336112b9565b338452600e6020528184209060028201556001600a54910155610bb8565b5050346101eb57816003193601126101eb57602090516127108152f35b9190503461026d57366003190160a081126110705760801361026d5767ffffffffffffffff9160843583811161106c573660238201121561106c578082013593808511610ff7576024903682878501011161106857610df360ff60075416156113fc565b610dfb61167d565b600a55610e0661166b565b600b5533611041575b813595610e1d871515611431565b6001600160a01b039385358581169081900361103d57857f0000000000000000000000000000000000000000000000000000000000000000160361100d5786519187830183811085821117610ffb578852308352602083018981528a93926e22d473030f116ddee9f6b43ac78ba39290833b15610ff7578986928d948d519b8c988997889563187945bd60e11b875283610eb56111b0565b16908701528d86015260443560448601526064356064860152511660848401525160a48301523360c483015261010060e483015280610104830152808a6101249401848401378181018301849052601f01601f191681010301925af18015610fed57610fa5575b50505090610a9882610f507f1449c6dd7851abc30abf37f57715f492010519147cc2652fbc38202c18a6ee90945486611703565b948591338852600e602052848820610f698482546112ac565b9055338852600e6020528488209060038201805415610f9c575b5042910155610f9482600c546112ac565b600c55611256565b42905538610f83565b8296939611610fdc5750825292610a987f1449c6dd7851abc30abf37f57715f492010519147cc2652fbc38202c18a6ee9038610f1c565b634e487b7160e01b83526041865282fd5b85513d89823e3d90fd5b8580fd5b634e487b7160e01b8b5260418852858bfd5b865162461bcd60e51b8152602081880152600b818601526a2bb937b733903a37b5b2b760a91b6044820152606490fd5b8980fd5b61104a336112b9565b338852600e6020528588209060028201556001600a54910155610e0f565b8680fd5b8480fd5b8380fd5b833461046c57602036600319011261046c576107ff6110916111b0565b61109d610235336116ce565b61130a565b5050346101eb57816003193601126101eb576020906003549051908152f35b5050346101eb57816003193601126101eb576020905160038152f35b90503461026d57602036600319011261026d5735600381101561026d575490516001600160a01b03909116815260209150f35b5050346101eb5760203660031901126101eb576020906102b26111316111b0565b6112b9565b90503461026d57602036600319011261026d577f12c476dbe611207aa496773afc1cfedb660981ebe024c62f643a0aaec9bb75699161026782359261117d610235336116ce565b61118b6103e885111561121b565b8360055554916006549051938493846040919493926060820195825260208201520152565b600435906001600160a01b038216820361097d57565b3461097d57600036600319011261097d5760206040516103e88152f35b156111ea57565b60405162461bcd60e51b81526020600482015260096024820152682737ba1037bbb732b960b91b6044820152606490fd5b1561122257565b60405162461bcd60e51b815260206004820152600c60248201526b08ccaca40e8dede40d0d2ced60a31b6044820152606490fd5b9190820391821161126357565b634e487b7160e01b600052601160045260246000fd5b8181029291811591840414171561126357565b8115611296570490565b634e487b7160e01b600052601260045260246000fd5b9190820180921161126357565b60018060a01b0316600052600e60205261130760406000206002670de0b6b3a76400006112fd83546112f76112ec61167d565b600187015490611256565b90611279565b04910154906112ac565b90565b600191600391600160035411156113bf5760005b8381106113565760405162461bcd60e51b8152602060048201526009602482015268139bdd08199bdd5b9960ba1b6044820152606490fd5b80546001600160a01b03838116919081168214611376575050840161131e565b6001600160a01b0319169091558354929450929190508015611263576000190190557f58619076adf5bb0943d100ef88d52d7c3fd691b19d3a9071b555b651fbf418da600080a2565b60405162461bcd60e51b81526020600482015260156024820152742732b2b21030ba103632b0b9ba10189037bbb732b960591b6044820152606490fd5b1561140357565b60405162461bcd60e51b815260206004820152600660248201526514185d5cd95960d21b6044820152606490fd5b1561143857565b60405162461bcd60e51b815260206004820152600b60248201526a16995c9bc8185b5bdd5b9d60aa1b6044820152606490fd5b6060810190811067ffffffffffffffff82111761148757604052565b634e487b7160e01b600052604160045260246000fd5b90601f8019910116810190811067ffffffffffffffff82111761148757604052565b9081602091031261097d5751801515810361097d5790565b600c5480158015611527575b61152157600854906301e13380918281029281840414811517156112635764496cebb80002918083046127101490151715611263576113079161128c565b50600090565b50600854156114e3565b6001600160a01b03908082169081156116375761154d906116ce565b61160257600380805410156115c85760005b81811061156c5750505050565b80548481161561157f575060010161155f565b6001600160a01b0319168317905580549192509060001981146112635760010190557f994a936646fe87ffe4f1e469d3d6aa417d6b855598397f323de5b449f765f0c3600080a2565b60405162461bcd60e51b815260206004820152601260248201527113585e081bdddb995c9cc81c995858da195960721b6044820152606490fd5b60405162461bcd60e51b815260206004820152600d60248201526c20b63932b0b23c9037bbb732b960991b6044820152606490fd5b60405162461bcd60e51b815260206004820152600c60248201526b5a65726f206164647265737360a01b6044820152606490fd5b60095480421060001461130757504290565b600c5480156116c757600a546116a061067061169761166b565b600b5490611256565b670de0b6b3a76400009081810291818304149015171561126357611307926106799161128c565b50600a5490565b60005b600381106116e0575050600090565b80546001600160a01b038381169116146116fc576001016116d1565b5050600190565b90801561175c579061171b9161271092839183611279565b04906103e88083029083820414831517156112635761130793611757910461174f6117468286611256565b91600d546112ac565b600d556117fb565b611256565b5090565b61177691600060028201556004429101556118f3565b60405163a9059cbb60e01b81523360048201526024810182905290919060208160448160006001600160a01b037f0000000000000000000000000000000000000000000000000000000000000000165af180156117ef576117d45750565b6117ec9060203d6020116106b0576106a1818361149d565b50565b6040513d6000823e3d90fd5b801580156118e9575b6117ec576118176003916003549061128c565b9060009160005b82811061182b5750505050565b805482906001600160a01b039081168061184b575b50505060010161181e565b6040805163a9059cbb60e01b81526001600160a01b03929092166004830152602482019390935260209290918390839060449082908b907f0000000000000000000000000000000000000000000000000000000000000000165af19081156118e057509060019392916118c2575b84929350611840565b816118d892903d106106b0576106a1818361149d565b5038806118b9565b513d88823e3d90fd5b5060035415611804565b600654801561175c579061171b916127109283918361127956fea2646970667358221220346afbb22d134d8bc91b6034a59effdd0ad3c916d261d08d29205fa6745be0a164736f6c63430008180033","opcodes":"PUSH1 0xA0 CALLVALUE PUSH3 0x147 JUMPI PUSH1 0x1F PUSH3 0x1ABB CODESIZE DUP2 SWAP1 SUB SWAP2 DUP3 ADD PUSH1 0x1F NOT AND DUP4 ADD SWAP2 PUSH1 0x1 PUSH1 0x1 PUSH1 0x40 SHL SUB DUP4 GT DUP5 DUP5 LT OR PUSH3 0x14C JUMPI DUP1 DUP5 SWAP3 PUSH1 0x40 SWAP5 DUP6 MSTORE DUP4 CODECOPY DUP2 ADD SUB SLT PUSH3 0x147 JUMPI PUSH3 0x5A PUSH1 0x20 PUSH3 0x52 DUP4 PUSH3 0x162 JUMP JUMPDEST SWAP3 ADD PUSH3 0x162 JUMP JUMPDEST PUSH1 0xC8 PUSH1 0x4 DUP2 SWAP1 SSTORE PUSH1 0x5 DUP2 SWAP1 SSTORE PUSH1 0x6 SSTORE PUSH1 0x1 PUSH1 0x1 PUSH1 0xA0 SHL SUB SWAP1 DUP3 DUP3 AND ISZERO PUSH3 0x115 JUMPI AND SWAP1 DUP2 ISZERO PUSH3 0xE3 JUMPI PUSH1 0x80 MSTORE PUSH1 0x0 DUP1 SLOAD PUSH1 0x1 PUSH1 0x1 PUSH1 0xA0 SHL SUB NOT AND SWAP2 SWAP1 SWAP2 OR SWAP1 SSTORE PUSH1 0x1 PUSH1 0x3 SSTORE PUSH1 0x40 MLOAD PUSH2 0x1943 SWAP1 DUP2 PUSH3 0x178 DUP3 CODECOPY PUSH1 0x80 MLOAD DUP2 DUP2 DUP2 PUSH2 0x49E ADD MSTORE DUP2 DUP2 PUSH2 0x58C ADD MSTORE DUP2 DUP2 PUSH2 0x728 ADD MSTORE DUP2 DUP2 PUSH2 0xC35 ADD MSTORE DUP2 DUP2 PUSH2 0xE36 ADD MSTORE DUP2 DUP2 PUSH2 0x17A5 ADD MSTORE PUSH2 0x1884 ADD MSTORE RETURN JUMPDEST PUSH1 0x40 MLOAD PUSH3 0x461BCD PUSH1 0xE5 SHL DUP2 MSTORE PUSH1 0x20 PUSH1 0x4 DUP3 ADD MSTORE PUSH1 0xA PUSH1 0x24 DUP3 ADD MSTORE PUSH10 0x2D32B9379037BBB732B9 PUSH1 0xB1 SHL PUSH1 0x44 DUP3 ADD MSTORE PUSH1 0x64 SWAP1 REVERT JUMPDEST PUSH1 0x40 MLOAD PUSH3 0x461BCD PUSH1 0xE5 SHL DUP2 MSTORE PUSH1 0x20 PUSH1 0x4 DUP3 ADD MSTORE PUSH1 0xA PUSH1 0x24 DUP3 ADD MSTORE PUSH10 0x2D32B937903A37B5B2B7 PUSH1 0xB1 SHL PUSH1 0x44 DUP3 ADD MSTORE PUSH1 0x64 SWAP1 REVERT JUMPDEST PUSH1 0x0 DUP1 REVERT JUMPDEST PUSH4 0x4E487B71 PUSH1 0xE0 SHL PUSH1 0x0 MSTORE PUSH1 0x41 PUSH1 0x4 MSTORE PUSH1 0x24 PUSH1 0x0 REVERT JUMPDEST MLOAD SWAP1 PUSH1 0x1 PUSH1 0x1 PUSH1 0xA0 SHL SUB DUP3 AND DUP3 SUB PUSH3 0x147 JUMPI JUMP INVALID PUSH1 0x40 PUSH1 0x80 DUP2 MSTORE PUSH1 0x4 SWAP1 DUP2 CALLDATASIZE LT ISZERO PUSH2 0x15 JUMPI PUSH1 0x0 DUP1 REVERT JUMPDEST PUSH1 0x0 SWAP2 DUP3 CALLDATALOAD PUSH1 0xE0 SHR SWAP1 DUP2 PUSH3 0x18A116 EQ PUSH2 0x1136 JUMPI DUP2 PUSH3 0x8CC262 EQ PUSH2 0x1110 JUMPI DUP2 PUSH4 0x25E7C27 EQ PUSH2 0x10DD JUMPI DUP2 PUSH4 0xB8BB146 EQ PUSH2 0x10C1 JUMPI DUP2 PUSH4 0xDB02622 EQ PUSH2 0x10A2 JUMPI DUP2 PUSH4 0x173825D9 EQ PUSH2 0x1074 JUMPI DUP2 PUSH4 0x1D9AB29A EQ PUSH2 0xD8F JUMPI DUP2 PUSH4 0x249D39E9 EQ PUSH2 0xD72 JUMPI DUP2 PUSH4 0x2DEF6620 EQ PUSH2 0xB7A JUMPI DUP2 PUSH4 0x2E75AB50 EQ PUSH2 0xAFF JUMPI DUP2 PUSH4 0x372500AB EQ PUSH2 0xA0C JUMPI DUP2 PUSH4 0x3AD5B8AA EQ PUSH2 0x9EE JUMPI DUP2 PUSH4 0x3F4BA83A EQ PUSH2 0x99F JUMPI DUP2 PUSH4 0x51618ED3 EQ PUSH2 0x982 JUMPI DUP2 PUSH4 0x551512DE EQ PUSH2 0x86F JUMPI DUP2 PUSH4 0x5ADE228A EQ PUSH2 0x850 JUMPI DUP2 PUSH4 0x5C975ABB EQ PUSH2 0x82C JUMPI DUP2 PUSH4 0x6AFDD850 EQ PUSH2 0x802 JUMPI DUP2 PUSH4 0x7065CB48 EQ PUSH2 0x7D1 JUMPI DUP2 PUSH4 0x7A526F4E EQ PUSH2 0x7B2 JUMPI DUP2 PUSH4 0x7B0A47EE EQ PUSH2 0x793 JUMPI DUP2 PUSH4 0x80FAA57D EQ PUSH2 0x776 JUMPI DUP2 PUSH4 0x817B1CD2 EQ PUSH2 0x757 JUMPI DUP2 PUSH4 0x82BFEFC8 EQ PUSH2 0x713 JUMPI DUP2 PUSH4 0x8456CB59 EQ PUSH2 0x6C1 JUMPI DUP2 PUSH4 0x8BDF67F2 EQ PUSH2 0x522 JUMPI DUP2 PUSH4 0x9E9AED62 EQ PUSH2 0x46F JUMPI DUP2 PUSH4 0xA0E67E2B EQ PUSH2 0x3DC JUMPI DUP2 PUSH4 0xA87430BA EQ PUSH2 0x379 JUMPI DUP2 PUSH4 0xA93837BD EQ PUSH2 0x290 JUMPI DUP2 PUSH4 0xC3453153 EQ PUSH2 0x316 JUMPI DUP2 PUSH4 0xC8F33C91 EQ PUSH2 0x2F7 JUMPI DUP2 PUSH4 0xC8FC9729 EQ PUSH2 0x2D8 JUMPI DUP2 PUSH4 0xCAB64BCD EQ PUSH2 0x2B9 JUMPI DUP2 PUSH4 0xCD3DAF9D EQ PUSH2 0x295 JUMPI DUP2 PUSH4 0xD55BE8C6 EQ PUSH2 0x290 JUMPI DUP2 PUSH4 0xDF136D65 EQ PUSH2 0x271 JUMPI DUP2 PUSH4 0xE2D7BEE4 EQ PUSH2 0x1EF JUMPI POP PUSH4 0xEBE2B12B EQ PUSH2 0x1CE JUMPI PUSH1 0x0 DUP1 REVERT JUMPDEST CALLVALUE PUSH2 0x1EB JUMPI DUP2 PUSH1 0x3 NOT CALLDATASIZE ADD SLT PUSH2 0x1EB JUMPI PUSH1 0x20 SWAP1 PUSH1 0x9 SLOAD SWAP1 MLOAD SWAP1 DUP2 MSTORE RETURN JUMPDEST POP DUP1 REVERT JUMPDEST SWAP2 SWAP1 POP CALLVALUE PUSH2 0x26D JUMPI PUSH1 0x20 CALLDATASIZE PUSH1 0x3 NOT ADD SLT PUSH2 0x26D JUMPI DUP2 PUSH32 0x12C476DBE611207AA496773AFC1CFEDB660981EBE024C62F643A0AAEC9BB7569 SWAP3 CALLDATALOAD DUP1 SWAP2 PUSH2 0x23A PUSH2 0x235 CALLER PUSH2 0x16CE JUMP JUMPDEST PUSH2 0x11E3 JUMP JUMPDEST PUSH2 0x248 PUSH2 0x3E8 DUP4 GT ISZERO PUSH2 0x121B JUMP JUMPDEST SSTORE PUSH1 0x5 SLOAD PUSH1 0x6 SLOAD SWAP3 MLOAD SWAP2 DUP3 MSTORE PUSH1 0x20 DUP3 ADD MSTORE PUSH1 0x40 DUP2 ADD SWAP2 SWAP1 SWAP2 MSTORE DUP1 PUSH1 0x60 DUP2 ADD JUMPDEST SUB SWAP1 LOG1 DUP1 RETURN JUMPDEST DUP3 DUP1 REVERT JUMPDEST POP POP CALLVALUE PUSH2 0x1EB JUMPI DUP2 PUSH1 0x3 NOT CALLDATASIZE ADD SLT PUSH2 0x1EB JUMPI PUSH1 0x20 SWAP1 PUSH1 0xA SLOAD SWAP1 MLOAD SWAP1 DUP2 MSTORE RETURN JUMPDEST PUSH2 0x11C6 JUMP JUMPDEST POP POP CALLVALUE PUSH2 0x1EB JUMPI DUP2 PUSH1 0x3 NOT CALLDATASIZE ADD SLT PUSH2 0x1EB JUMPI PUSH1 0x20 SWAP1 PUSH2 0x2B2 PUSH2 0x167D JUMP JUMPDEST SWAP1 MLOAD SWAP1 DUP2 MSTORE RETURN JUMPDEST POP POP CALLVALUE PUSH2 0x1EB JUMPI DUP2 PUSH1 0x3 NOT CALLDATASIZE ADD SLT PUSH2 0x1EB JUMPI PUSH1 0x20 SWAP1 PUSH1 0xD SLOAD SWAP1 MLOAD SWAP1 DUP2 MSTORE RETURN JUMPDEST POP POP CALLVALUE PUSH2 0x1EB JUMPI DUP2 PUSH1 0x3 NOT CALLDATASIZE ADD SLT PUSH2 0x1EB JUMPI PUSH1 0x20 SWAP1 PUSH1 0x5 SLOAD SWAP1 MLOAD SWAP1 DUP2 MSTORE RETURN JUMPDEST POP POP CALLVALUE PUSH2 0x1EB JUMPI DUP2 PUSH1 0x3 NOT CALLDATASIZE ADD SLT PUSH2 0x1EB JUMPI PUSH1 0x20 SWAP1 PUSH1 0xB SLOAD SWAP1 MLOAD SWAP1 DUP2 MSTORE RETURN JUMPDEST DUP4 SWAP2 POP CALLVALUE PUSH2 0x1EB JUMPI PUSH1 0x20 CALLDATASIZE PUSH1 0x3 NOT ADD SLT PUSH2 0x1EB JUMPI DUP3 PUSH1 0xA0 SWAP4 PUSH2 0x336 PUSH2 0x11B0 JUMP JUMPDEST SWAP4 PUSH1 0x1 DUP1 DUP8 SHL SUB DUP6 AND DUP2 MSTORE PUSH1 0xE PUSH1 0x20 MSTORE KECCAK256 SWAP3 PUSH2 0x35C DUP5 SLOAD SWAP4 PUSH1 0x3 DUP7 ADD SLOAD SWAP6 ADD SLOAD SWAP2 PUSH2 0x12B9 JUMP JUMPDEST SWAP2 DUP1 MLOAD SWAP5 DUP5 DUP7 MSTORE PUSH1 0x20 DUP7 ADD MSTORE DUP5 ADD MSTORE PUSH1 0x60 DUP4 ADD MSTORE ISZERO ISZERO PUSH1 0x80 DUP3 ADD MSTORE RETURN JUMPDEST SWAP2 SWAP1 POP CALLVALUE PUSH2 0x26D JUMPI PUSH1 0x20 CALLDATASIZE PUSH1 0x3 NOT ADD SLT PUSH2 0x26D JUMPI PUSH1 0xA0 SWAP3 DUP2 SWAP1 PUSH1 0x1 PUSH1 0x1 PUSH1 0xA0 SHL SUB PUSH2 0x3A2 PUSH2 0x11B0 JUMP JUMPDEST AND DUP2 MSTORE PUSH1 0xE PUSH1 0x20 MSTORE KECCAK256 DUP1 SLOAD SWAP3 PUSH1 0x1 DUP3 ADD SLOAD SWAP3 PUSH1 0x2 DUP4 ADD SLOAD SWAP2 PUSH1 0x3 DUP5 ADD SLOAD SWAP4 ADD SLOAD SWAP4 DUP2 MLOAD SWAP6 DUP7 MSTORE PUSH1 0x20 DUP7 ADD MSTORE DUP5 ADD MSTORE PUSH1 0x60 DUP4 ADD MSTORE PUSH1 0x80 DUP3 ADD MSTORE RETURN JUMPDEST DUP3 DUP5 CALLVALUE PUSH2 0x46C JUMPI DUP1 PUSH1 0x3 NOT CALLDATASIZE ADD SLT PUSH2 0x46C JUMPI SWAP1 PUSH1 0x60 DUP2 MLOAD PUSH2 0x3FC DUP2 PUSH2 0x146B JUMP JUMPDEST CALLDATASIZE SWAP1 CALLDATACOPY DUP1 MLOAD SWAP1 DUP3 DUP1 DUP4 JUMPDEST PUSH1 0x3 DUP3 LT PUSH2 0x44C JUMPI POP POP POP PUSH2 0x41A DUP3 PUSH2 0x146B JUMP JUMPDEST MLOAD SWAP2 SWAP1 DUP3 JUMPDEST PUSH1 0x3 DUP4 LT PUSH2 0x42C JUMPI PUSH1 0x60 DUP5 RETURN JUMPDEST DUP2 MLOAD PUSH1 0x1 PUSH1 0x1 PUSH1 0xA0 SHL SUB AND DUP2 MSTORE PUSH1 0x1 SWAP3 SWAP1 SWAP3 ADD SWAP2 PUSH1 0x20 SWAP2 DUP3 ADD SWAP2 ADD PUSH2 0x41F JUMP JUMPDEST DUP3 SLOAD PUSH1 0x1 PUSH1 0x1 PUSH1 0xA0 SHL SUB AND DUP2 MSTORE PUSH1 0x1 SWAP3 DUP4 ADD SWAP3 SWAP2 SWAP1 SWAP2 ADD SWAP1 PUSH1 0x20 ADD PUSH2 0x406 JUMP JUMPDEST DUP1 REVERT JUMPDEST SWAP2 SWAP1 POP CALLVALUE PUSH2 0x26D JUMPI DUP3 PUSH1 0x3 NOT CALLDATASIZE ADD SLT PUSH2 0x26D JUMPI DUP1 MLOAD PUSH4 0x70A08231 PUSH1 0xE0 SHL DUP2 MSTORE ADDRESS SWAP3 DUP2 ADD SWAP3 SWAP1 SWAP3 MSTORE PUSH1 0x20 DUP3 PUSH1 0x24 DUP2 PUSH32 0x0 PUSH1 0x1 PUSH1 0x1 PUSH1 0xA0 SHL SUB AND GAS STATICCALL SWAP2 DUP3 ISZERO PUSH2 0x518 JUMPI DUP4 SWAP3 PUSH2 0x4E0 JUMPI JUMPDEST PUSH1 0x20 DUP4 DUP4 MLOAD SWAP1 DUP2 MSTORE RETURN JUMPDEST SWAP1 SWAP2 POP PUSH1 0x20 DUP2 RETURNDATASIZE PUSH1 0x20 GT PUSH2 0x510 JUMPI JUMPDEST DUP2 PUSH2 0x4FC PUSH1 0x20 SWAP4 DUP4 PUSH2 0x149D JUMP JUMPDEST DUP2 ADD SUB SLT PUSH2 0x26D JUMPI PUSH1 0x20 SWAP3 POP MLOAD SWAP1 CODESIZE PUSH2 0x4D6 JUMP JUMPDEST RETURNDATASIZE SWAP2 POP PUSH2 0x4EF JUMP JUMPDEST DUP2 MLOAD RETURNDATASIZE DUP6 DUP3 RETURNDATACOPY RETURNDATASIZE SWAP1 REVERT JUMPDEST DUP4 DUP4 CALLVALUE PUSH2 0x1EB JUMPI PUSH1 0x20 CALLDATASIZE PUSH1 0x3 NOT ADD SLT PUSH2 0x1EB JUMPI DUP3 CALLDATALOAD SWAP1 PUSH2 0x544 PUSH2 0x235 CALLER PUSH2 0x16CE JUMP JUMPDEST PUSH2 0x54C PUSH2 0x167D JUMP JUMPDEST PUSH1 0xA SSTORE PUSH2 0x557 PUSH2 0x166B JUMP JUMPDEST PUSH1 0xB SSTORE PUSH2 0x565 DUP3 ISZERO ISZERO PUSH2 0x1431 JUMP JUMPDEST DUP1 MLOAD PUSH4 0x23B872DD PUSH1 0xE0 SHL DUP2 MSTORE CALLER DUP6 DUP3 ADD MSTORE ADDRESS PUSH1 0x24 DUP3 ADD MSTORE PUSH1 0x44 DUP2 ADD DUP4 SWAP1 MSTORE PUSH1 0x20 DUP2 PUSH1 0x64 DUP2 DUP8 PUSH32 0x0 PUSH1 0x1 PUSH1 0x1 PUSH1 0xA0 SHL SUB AND GAS CALL DUP1 ISZERO PUSH2 0x6B7 JUMPI PUSH2 0x688 JUMPI JUMPDEST POP PUSH2 0x5CE DUP3 PUSH1 0xD SLOAD PUSH2 0x12AC JUMP JUMPDEST PUSH1 0xD DUP2 SWAP1 SSTORE PUSH1 0x9 SLOAD TIMESTAMP DUP2 GT PUSH2 0x659 JUMPI POP POP PUSH4 0x1E13380 PUSH1 0xD SLOAD DIV PUSH1 0x8 SSTORE JUMPDEST TIMESTAMP PUSH1 0xB SSTORE PUSH4 0x1E13380 TIMESTAMP ADD SWAP1 DUP2 TIMESTAMP GT PUSH2 0x646 JUMPI PUSH1 0x9 DUP3 SWAP1 SSTORE PUSH1 0xD DUP5 SWAP1 SSTORE PUSH1 0x8 SLOAD SWAP1 MLOAD SWAP3 DUP4 MSTORE PUSH1 0x20 DUP4 ADD MSTORE PUSH1 0x40 DUP3 ADD MSTORE CALLER SWAP1 PUSH32 0xB167F072295E46CB15516C982366F3856186579436FECBC2241827AA89A66852 SWAP1 PUSH1 0x60 SWAP1 LOG2 DUP1 RETURN JUMPDEST PUSH4 0x4E487B71 PUSH1 0xE0 SHL DUP5 MSTORE PUSH1 0x11 DUP6 MSTORE PUSH1 0x24 DUP5 REVERT JUMPDEST PUSH4 0x1E13380 SWAP2 PUSH2 0x679 PUSH2 0x670 PUSH2 0x67F SWAP4 TIMESTAMP SWAP1 PUSH2 0x1256 JUMP JUMPDEST PUSH1 0x8 SLOAD SWAP1 PUSH2 0x1279 JUMP JUMPDEST SWAP1 PUSH2 0x12AC JUMP JUMPDEST DIV PUSH1 0x8 SSTORE PUSH2 0x5EC JUMP JUMPDEST PUSH2 0x6A9 SWAP1 PUSH1 0x20 RETURNDATASIZE PUSH1 0x20 GT PUSH2 0x6B0 JUMPI JUMPDEST PUSH2 0x6A1 DUP2 DUP4 PUSH2 0x149D JUMP JUMPDEST DUP2 ADD SWAP1 PUSH2 0x14BF JUMP JUMPDEST POP DUP5 PUSH2 0x5C1 JUMP JUMPDEST POP RETURNDATASIZE PUSH2 0x697 JUMP JUMPDEST DUP3 MLOAD RETURNDATASIZE DUP7 DUP3 RETURNDATACOPY RETURNDATASIZE SWAP1 REVERT JUMPDEST DUP4 CALLVALUE PUSH2 0x46C JUMPI DUP1 PUSH1 0x3 NOT CALLDATASIZE ADD SLT PUSH2 0x46C JUMPI PUSH2 0x6DE PUSH2 0x235 CALLER PUSH2 0x16CE JUMP JUMPDEST PUSH1 0x1 PUSH1 0xFF NOT PUSH1 0x7 SLOAD AND OR PUSH1 0x7 SSTORE CALLER PUSH32 0x62E78CEA01BEE320CD4E420270B5EA74000D11B0C9F74754EBDBFC544B05A258 DUP3 DUP1 LOG2 DUP1 RETURN JUMPDEST POP POP CALLVALUE PUSH2 0x1EB JUMPI DUP2 PUSH1 0x3 NOT CALLDATASIZE ADD SLT PUSH2 0x1EB JUMPI MLOAD PUSH32 0x0 PUSH1 0x1 PUSH1 0x1 PUSH1 0xA0 SHL SUB AND DUP2 MSTORE PUSH1 0x20 SWAP1 RETURN JUMPDEST POP POP CALLVALUE PUSH2 0x1EB JUMPI DUP2 PUSH1 0x3 NOT CALLDATASIZE ADD SLT PUSH2 0x1EB JUMPI PUSH1 0x20 SWAP1 PUSH1 0xC SLOAD SWAP1 MLOAD SWAP1 DUP2 MSTORE RETURN JUMPDEST POP POP CALLVALUE PUSH2 0x1EB JUMPI DUP2 PUSH1 0x3 NOT CALLDATASIZE ADD SLT PUSH2 0x1EB JUMPI PUSH1 0x20 SWAP1 PUSH2 0x2B2 PUSH2 0x166B JUMP JUMPDEST POP POP CALLVALUE PUSH2 0x1EB JUMPI DUP2 PUSH1 0x3 NOT CALLDATASIZE ADD SLT PUSH2 0x1EB JUMPI PUSH1 0x20 SWAP1 PUSH1 0x8 SLOAD SWAP1 MLOAD SWAP1 DUP2 MSTORE RETURN JUMPDEST POP POP CALLVALUE PUSH2 0x1EB JUMPI DUP2 PUSH1 0x3 NOT CALLDATASIZE ADD SLT PUSH2 0x1EB JUMPI PUSH1 0x20 SWAP1 PUSH1 0x6 SLOAD SWAP1 MLOAD SWAP1 DUP2 MSTORE RETURN JUMPDEST DUP4 CALLVALUE PUSH2 0x46C JUMPI PUSH1 0x20 CALLDATASIZE PUSH1 0x3 NOT ADD SLT PUSH2 0x46C JUMPI PUSH2 0x7FF PUSH2 0x7EE PUSH2 0x11B0 JUMP JUMPDEST PUSH2 0x7FA PUSH2 0x235 CALLER PUSH2 0x16CE JUMP JUMPDEST PUSH2 0x1531 JUMP JUMPDEST DUP1 RETURN JUMPDEST POP POP CALLVALUE PUSH2 0x1EB JUMPI DUP2 PUSH1 0x3 NOT CALLDATASIZE ADD SLT PUSH2 0x1EB JUMPI PUSH1 0x20 SWAP1 MLOAD PUSH15 0x22D473030F116DDEE9F6B43AC78BA3 DUP2 MSTORE RETURN JUMPDEST POP POP CALLVALUE PUSH2 0x1EB JUMPI DUP2 PUSH1 0x3 NOT CALLDATASIZE ADD SLT PUSH2 0x1EB JUMPI PUSH1 0x20 SWAP1 PUSH1 0xFF PUSH1 0x7 SLOAD AND SWAP1 MLOAD SWAP1 ISZERO ISZERO DUP2 MSTORE RETURN JUMPDEST POP POP CALLVALUE PUSH2 0x1EB JUMPI DUP2 PUSH1 0x3 NOT CALLDATASIZE ADD SLT PUSH2 0x1EB JUMPI PUSH1 0x20 SWAP1 MLOAD PUSH4 0x1E13380 DUP2 MSTORE RETURN JUMPDEST SWAP1 POP CALLVALUE PUSH2 0x26D JUMPI PUSH1 0x60 CALLDATASIZE PUSH1 0x3 NOT ADD SLT PUSH2 0x26D JUMPI PUSH2 0x88A PUSH2 0x11B0 JUMP JUMPDEST PUSH1 0x1 PUSH1 0x1 PUSH1 0xA0 SHL SUB PUSH1 0x44 CALLDATALOAD DUP2 DUP2 AND SWAP5 PUSH1 0x24 CALLDATALOAD SWAP4 SWAP1 SWAP3 SWAP1 DUP7 DUP4 SUB PUSH2 0x97D JUMPI PUSH2 0x8B3 PUSH2 0x235 CALLER PUSH2 0x16CE JUMP JUMPDEST DUP7 ISZERO PUSH2 0x950 JUMPI DUP4 MLOAD PUSH4 0xA9059CBB PUSH1 0xE0 SHL DUP2 MSTORE PUSH1 0x1 PUSH1 0x1 PUSH1 0xA0 SHL SUB SWAP1 SWAP4 AND SWAP6 DUP4 ADD SWAP6 DUP7 MSTORE PUSH1 0x20 DUP7 DUP2 ADD DUP7 SWAP1 MSTORE SWAP2 AND SWAP5 DUP3 SWAP1 DUP2 SWAP1 PUSH1 0x40 ADD SUB DUP2 DUP10 DUP9 GAS CALL DUP1 ISZERO PUSH2 0x946 JUMPI SWAP2 PUSH32 0xF24EF89F38EADC1BDE50701AD6E4D6D11A2DC24F7CF834A486991F3883328504 SWAP4 SWAP2 PUSH1 0x20 SWAP4 PUSH2 0x929 JUMPI JUMPDEST POP MLOAD SWAP1 DUP2 MSTORE LOG3 DUP1 RETURN JUMPDEST PUSH2 0x93F SWAP1 DUP5 RETURNDATASIZE DUP7 GT PUSH2 0x6B0 JUMPI PUSH2 0x6A1 DUP2 DUP4 PUSH2 0x149D JUMP JUMPDEST POP CODESIZE PUSH2 0x920 JUMP JUMPDEST DUP3 MLOAD RETURNDATASIZE DUP9 DUP3 RETURNDATACOPY RETURNDATASIZE SWAP1 REVERT JUMPDEST DUP4 MLOAD PUSH3 0x461BCD PUSH1 0xE5 SHL DUP2 MSTORE PUSH1 0x20 DUP2 DUP9 ADD MSTORE PUSH1 0x7 PUSH1 0x24 DUP3 ADD MSTORE PUSH7 0x5A65726F20746F PUSH1 0xC8 SHL PUSH1 0x44 DUP3 ADD MSTORE PUSH1 0x64 SWAP1 REVERT JUMPDEST PUSH1 0x0 DUP1 REVERT JUMPDEST POP POP CALLVALUE PUSH2 0x1EB JUMPI DUP2 PUSH1 0x3 NOT CALLDATASIZE ADD SLT PUSH2 0x1EB JUMPI PUSH1 0x20 SWAP1 PUSH2 0x2B2 PUSH2 0x14D7 JUMP JUMPDEST DUP4 CALLVALUE PUSH2 0x46C JUMPI DUP1 PUSH1 0x3 NOT CALLDATASIZE ADD SLT PUSH2 0x46C JUMPI PUSH2 0x9BC PUSH2 0x235 CALLER PUSH2 0x16CE JUMP JUMPDEST PUSH1 0xFF NOT PUSH1 0x7 SLOAD AND PUSH1 0x7 SSTORE CALLER PUSH32 0x5DB9EE0A495BF2E6FF9C91A7834C1BA4FDD244A5E8AA4E537BD38AEAE4B073AA DUP3 DUP1 LOG2 DUP1 RETURN JUMPDEST SWAP1 POP CALLVALUE PUSH2 0x26D JUMPI DUP3 PUSH1 0x3 NOT CALLDATASIZE ADD SLT PUSH2 0x26D JUMPI PUSH1 0x20 SWAP3 POP SLOAD SWAP1 MLOAD SWAP1 DUP2 MSTORE RETURN JUMPDEST SWAP2 SWAP1 POP CALLVALUE PUSH2 0x26D JUMPI DUP3 PUSH1 0x3 NOT CALLDATASIZE ADD SLT PUSH2 0x26D JUMPI PUSH2 0xA2E PUSH1 0xFF PUSH1 0x7 SLOAD AND ISZERO PUSH2 0x13FC JUMP JUMPDEST PUSH2 0xA36 PUSH2 0x167D JUMP JUMPDEST PUSH1 0xA SSTORE PUSH2 0xA41 PUSH2 0x166B JUMP JUMPDEST PUSH1 0xB SSTORE CALLER PUSH2 0xAD8 JUMPI JUMPDEST CALLER DUP4 MSTORE PUSH1 0xE PUSH1 0x20 MSTORE DUP1 DUP4 KECCAK256 PUSH1 0x2 DUP2 ADD SLOAD SWAP3 DUP4 ISZERO PUSH2 0xAA8 JUMPI POP SWAP1 PUSH2 0xA98 PUSH2 0xA91 PUSH32 0x987D620F307FF6B94D58743CB7A7509F24071586A77759B77C2D4E29F75A2F9A SWAP4 DUP6 PUSH2 0x1760 JUMP JUMPDEST DUP1 SWAP5 PUSH2 0x1256 JUMP JUMPDEST DUP2 MLOAD SWAP4 DUP5 MSTORE PUSH1 0x20 DUP5 ADD MSTORE CALLER SWAP3 LOG2 DUP1 RETURN JUMPDEST PUSH1 0x64 SWAP1 PUSH1 0x20 DUP5 MLOAD SWAP2 PUSH3 0x461BCD PUSH1 0xE5 SHL DUP4 MSTORE DUP3 ADD MSTORE PUSH1 0xA PUSH1 0x24 DUP3 ADD MSTORE PUSH10 0x4E6F2072657761726473 PUSH1 0xB0 SHL PUSH1 0x44 DUP3 ADD MSTORE REVERT JUMPDEST PUSH2 0xAE1 CALLER PUSH2 0x12B9 JUMP JUMPDEST CALLER DUP5 MSTORE PUSH1 0xE PUSH1 0x20 MSTORE DUP2 DUP5 KECCAK256 SWAP1 PUSH1 0x2 DUP3 ADD SSTORE PUSH1 0x1 PUSH1 0xA SLOAD SWAP2 ADD SSTORE PUSH2 0xA4A JUMP JUMPDEST SWAP2 SWAP1 POP CALLVALUE PUSH2 0x26D JUMPI PUSH1 0x20 CALLDATASIZE PUSH1 0x3 NOT ADD SLT PUSH2 0x26D JUMPI DUP2 PUSH2 0x267 PUSH32 0x12C476DBE611207AA496773AFC1CFEDB660981EBE024C62F643A0AAEC9BB7569 SWAP4 CALLDATALOAD SWAP2 PUSH2 0xB47 PUSH2 0x235 CALLER PUSH2 0x16CE JUMP JUMPDEST PUSH2 0xB55 PUSH2 0x3E8 DUP5 GT ISZERO PUSH2 0x121B JUMP JUMPDEST DUP3 PUSH1 0x6 SSTORE SLOAD SWAP2 PUSH1 0x5 SLOAD SWAP4 MLOAD SWAP4 DUP5 SWAP4 DUP5 PUSH1 0x40 SWAP2 SWAP5 SWAP4 SWAP3 PUSH1 0x60 DUP3 ADD SWAP6 DUP3 MSTORE PUSH1 0x20 DUP3 ADD MSTORE ADD MSTORE JUMP JUMPDEST SWAP2 SWAP1 POP CALLVALUE PUSH2 0x26D JUMPI DUP3 PUSH1 0x3 NOT CALLDATASIZE ADD SLT PUSH2 0x26D JUMPI PUSH2 0xB9C PUSH1 0xFF PUSH1 0x7 SLOAD AND ISZERO PUSH2 0x13FC JUMP JUMPDEST PUSH2 0xBA4 PUSH2 0x167D JUMP JUMPDEST PUSH1 0xA SSTORE PUSH2 0xBAF PUSH2 0x166B JUMP JUMPDEST PUSH1 0xB SSTORE CALLER PUSH2 0xD4B JUMPI JUMPDEST CALLER DUP4 MSTORE PUSH1 0x20 PUSH1 0xE DUP2 MSTORE DUP2 DUP5 KECCAK256 DUP1 SLOAD SWAP4 DUP5 ISZERO PUSH2 0xD17 JUMPI DUP3 DUP3 PUSH2 0xC30 SWAP3 PUSH1 0x2 PUSH1 0x3 SWAP8 SWAP7 SWAP6 ADD SLOAD DUP1 PUSH2 0xCCF JUMPI JUMPDEST POP DUP9 PUSH2 0xBF0 PUSH1 0x5 SLOAD DUP11 PUSH2 0x1703 JUMP JUMPDEST SWAP8 DUP4 DUP3 DUP11 SWAP6 SSTORE ADD SSTORE PUSH2 0xC04 DUP9 PUSH1 0xC SLOAD PUSH2 0x1256 JUMP JUMPDEST PUSH1 0xC SSTORE DUP6 MLOAD PUSH4 0xA9059CBB PUSH1 0xE0 SHL DUP2 MSTORE CALLER SWAP2 DUP2 ADD SWAP2 DUP3 MSTORE PUSH1 0x20 DUP3 ADD SWAP3 SWAP1 SWAP3 MSTORE SWAP1 SWAP3 DUP4 SWAP2 DUP3 SWAP2 PUSH1 0x40 SWAP1 SWAP2 ADD SWAP1 JUMP JUMPDEST SUB DUP2 DUP10 PUSH32 0x0 PUSH1 0x1 PUSH1 0x1 PUSH1 0xA0 SHL SUB AND GAS CALL DUP1 ISZERO PUSH2 0xCC5 JUMPI SWAP4 DUP1 SWAP6 PUSH2 0xC99 SWAP3 PUSH32 0x7FC4727E062E336010F2C282598EF5F14FACB3DE68CF8195C2F23E1454B2B74E SWAP7 PUSH2 0xCA8 JUMPI JUMPDEST POP PUSH2 0x1256 JUMP JUMPDEST SWAP1 DUP3 MLOAD SWAP5 DUP6 MSTORE DUP5 ADD MSTORE CALLER SWAP3 LOG2 DUP1 RETURN JUMPDEST PUSH2 0xCBE SWAP1 DUP6 RETURNDATASIZE DUP8 GT PUSH2 0x6B0 JUMPI PUSH2 0x6A1 DUP2 DUP4 PUSH2 0x149D JUMP JUMPDEST POP CODESIZE PUSH2 0xC93 JUMP JUMPDEST DUP4 MLOAD RETURNDATASIZE DUP9 DUP3 RETURNDATACOPY RETURNDATASIZE SWAP1 REVERT JUMPDEST PUSH2 0xCE3 PUSH2 0xCDC DUP5 DUP4 PUSH2 0x1760 JUMP JUMPDEST DUP1 SWAP3 PUSH2 0x1256 JUMP JUMPDEST DUP8 MLOAD SWAP2 DUP3 MSTORE DUP5 DUP3 ADD MSTORE PUSH32 0x987D620F307FF6B94D58743CB7A7509F24071586A77759B77C2D4E29F75A2F9A DUP8 CALLER SWAP3 LOG2 CODESIZE PUSH2 0xBE2 JUMP JUMPDEST DUP4 MLOAD PUSH3 0x461BCD PUSH1 0xE5 SHL DUP2 MSTORE SWAP1 DUP2 ADD DUP4 SWAP1 MSTORE PUSH1 0xE PUSH1 0x24 DUP3 ADD MSTORE PUSH14 0x139BDD1A1A5B99C81CDD185AD959 PUSH1 0x92 SHL PUSH1 0x44 DUP3 ADD MSTORE PUSH1 0x64 SWAP1 REVERT JUMPDEST PUSH2 0xD54 CALLER PUSH2 0x12B9 JUMP JUMPDEST CALLER DUP5 MSTORE PUSH1 0xE PUSH1 0x20 MSTORE DUP2 DUP5 KECCAK256 SWAP1 PUSH1 0x2 DUP3 ADD SSTORE PUSH1 0x1 PUSH1 0xA SLOAD SWAP2 ADD SSTORE PUSH2 0xBB8 JUMP JUMPDEST POP POP CALLVALUE PUSH2 0x1EB JUMPI DUP2 PUSH1 0x3 NOT CALLDATASIZE ADD SLT PUSH2 0x1EB JUMPI PUSH1 0x20 SWAP1 MLOAD PUSH2 0x2710 DUP2 MSTORE RETURN JUMPDEST SWAP2 SWAP1 POP CALLVALUE PUSH2 0x26D JUMPI CALLDATASIZE PUSH1 0x3 NOT ADD PUSH1 0xA0 DUP2 SLT PUSH2 0x1070 JUMPI PUSH1 0x80 SGT PUSH2 0x26D JUMPI PUSH8 0xFFFFFFFFFFFFFFFF SWAP2 PUSH1 0x84 CALLDATALOAD DUP4 DUP2 GT PUSH2 0x106C JUMPI CALLDATASIZE PUSH1 0x23 DUP3 ADD SLT ISZERO PUSH2 0x106C JUMPI DUP1 DUP3 ADD CALLDATALOAD SWAP4 DUP1 DUP6 GT PUSH2 0xFF7 JUMPI PUSH1 0x24 SWAP1 CALLDATASIZE DUP3 DUP8 DUP6 ADD ADD GT PUSH2 0x1068 JUMPI PUSH2 0xDF3 PUSH1 0xFF PUSH1 0x7 SLOAD AND ISZERO PUSH2 0x13FC JUMP JUMPDEST PUSH2 0xDFB PUSH2 0x167D JUMP JUMPDEST PUSH1 0xA SSTORE PUSH2 0xE06 PUSH2 0x166B JUMP JUMPDEST PUSH1 0xB SSTORE CALLER PUSH2 0x1041 JUMPI JUMPDEST DUP2 CALLDATALOAD SWAP6 PUSH2 0xE1D DUP8 ISZERO ISZERO PUSH2 0x1431 JUMP JUMPDEST PUSH1 0x1 PUSH1 0x1 PUSH1 0xA0 SHL SUB SWAP4 DUP6 CALLDATALOAD DUP6 DUP2 AND SWAP1 DUP2 SWAP1 SUB PUSH2 0x103D JUMPI DUP6 PUSH32 0x0 AND SUB PUSH2 0x100D JUMPI DUP7 MLOAD SWAP2 DUP8 DUP4 ADD DUP4 DUP2 LT DUP6 DUP3 GT OR PUSH2 0xFFB JUMPI DUP9 MSTORE ADDRESS DUP4 MSTORE PUSH1 0x20 DUP4 ADD DUP10 DUP2 MSTORE DUP11 SWAP4 SWAP3 PUSH15 0x22D473030F116DDEE9F6B43AC78BA3 SWAP3 SWAP1 DUP4 EXTCODESIZE ISZERO PUSH2 0xFF7 JUMPI DUP10 DUP7 SWAP3 DUP14 SWAP5 DUP14 MLOAD SWAP12 DUP13 SWAP9 DUP10 SWAP8 DUP9 SWAP6 PUSH4 0x187945BD PUSH1 0xE1 SHL DUP8 MSTORE DUP4 PUSH2 0xEB5 PUSH2 0x11B0 JUMP JUMPDEST AND SWAP1 DUP8 ADD MSTORE DUP14 DUP7 ADD MSTORE PUSH1 0x44 CALLDATALOAD PUSH1 0x44 DUP7 ADD MSTORE PUSH1 0x64 CALLDATALOAD PUSH1 0x64 DUP7 ADD MSTORE MLOAD AND PUSH1 0x84 DUP5 ADD MSTORE MLOAD PUSH1 0xA4 DUP4 ADD MSTORE CALLER PUSH1 0xC4 DUP4 ADD MSTORE PUSH2 0x100 PUSH1 0xE4 DUP4 ADD MSTORE DUP1 PUSH2 0x104 DUP4 ADD MSTORE DUP1 DUP11 PUSH2 0x124 SWAP5 ADD DUP5 DUP5 ADD CALLDATACOPY DUP2 DUP2 ADD DUP4 ADD DUP5 SWAP1 MSTORE PUSH1 0x1F ADD PUSH1 0x1F NOT AND DUP2 ADD SUB ADD SWAP3 GAS CALL DUP1 ISZERO PUSH2 0xFED JUMPI PUSH2 0xFA5 JUMPI JUMPDEST POP POP POP SWAP1 PUSH2 0xA98 DUP3 PUSH2 0xF50 PUSH32 0x1449C6DD7851ABC30ABF37F57715F492010519147CC2652FBC38202C18A6EE90 SWAP5 SLOAD DUP7 PUSH2 0x1703 JUMP JUMPDEST SWAP5 DUP6 SWAP2 CALLER DUP9 MSTORE PUSH1 0xE PUSH1 0x20 MSTORE DUP5 DUP9 KECCAK256 PUSH2 0xF69 DUP5 DUP3 SLOAD PUSH2 0x12AC JUMP JUMPDEST SWAP1 SSTORE CALLER DUP9 MSTORE PUSH1 0xE PUSH1 0x20 MSTORE DUP5 DUP9 KECCAK256 SWAP1 PUSH1 0x3 DUP3 ADD DUP1 SLOAD ISZERO PUSH2 0xF9C JUMPI JUMPDEST POP TIMESTAMP SWAP2 ADD SSTORE PUSH2 0xF94 DUP3 PUSH1 0xC SLOAD PUSH2 0x12AC JUMP JUMPDEST PUSH1 0xC SSTORE PUSH2 0x1256 JUMP JUMPDEST TIMESTAMP SWAP1 SSTORE CODESIZE PUSH2 0xF83 JUMP JUMPDEST DUP3 SWAP7 SWAP4 SWAP7 GT PUSH2 0xFDC JUMPI POP DUP3 MSTORE SWAP3 PUSH2 0xA98 PUSH32 0x1449C6DD7851ABC30ABF37F57715F492010519147CC2652FBC38202C18A6EE90 CODESIZE PUSH2 0xF1C JUMP JUMPDEST PUSH4 0x4E487B71 PUSH1 0xE0 SHL DUP4 MSTORE PUSH1 0x41 DUP7 MSTORE DUP3 REVERT JUMPDEST DUP6 MLOAD RETURNDATASIZE DUP10 DUP3 RETURNDATACOPY RETURNDATASIZE SWAP1 REVERT JUMPDEST DUP6 DUP1 REVERT JUMPDEST PUSH4 0x4E487B71 PUSH1 0xE0 SHL DUP12 MSTORE PUSH1 0x41 DUP9 MSTORE DUP6 DUP12 REVERT JUMPDEST DUP7 MLOAD PUSH3 0x461BCD PUSH1 0xE5 SHL DUP2 MSTORE PUSH1 0x20 DUP2 DUP9 ADD MSTORE PUSH1 0xB DUP2 DUP7 ADD MSTORE PUSH11 0x2BB937B733903A37B5B2B7 PUSH1 0xA9 SHL PUSH1 0x44 DUP3 ADD MSTORE PUSH1 0x64 SWAP1 REVERT JUMPDEST DUP10 DUP1 REVERT JUMPDEST PUSH2 0x104A CALLER PUSH2 0x12B9 JUMP JUMPDEST CALLER DUP9 MSTORE PUSH1 0xE PUSH1 0x20 MSTORE DUP6 DUP9 KECCAK256 SWAP1 PUSH1 0x2 DUP3 ADD SSTORE PUSH1 0x1 PUSH1 0xA SLOAD SWAP2 ADD SSTORE PUSH2 0xE0F JUMP JUMPDEST DUP7 DUP1 REVERT JUMPDEST DUP5 DUP1 REVERT JUMPDEST DUP4 DUP1 REVERT JUMPDEST DUP4 CALLVALUE PUSH2 0x46C JUMPI PUSH1 0x20 CALLDATASIZE PUSH1 0x3 NOT ADD SLT PUSH2 0x46C JUMPI PUSH2 0x7FF PUSH2 0x1091 PUSH2 0x11B0 JUMP JUMPDEST PUSH2 0x109D PUSH2 0x235 CALLER PUSH2 0x16CE JUMP JUMPDEST PUSH2 0x130A JUMP JUMPDEST POP POP CALLVALUE PUSH2 0x1EB JUMPI DUP2 PUSH1 0x3 NOT CALLDATASIZE ADD SLT PUSH2 0x1EB JUMPI PUSH1 0x20 SWAP1 PUSH1 0x3 SLOAD SWAP1 MLOAD SWAP1 DUP2 MSTORE RETURN JUMPDEST POP POP CALLVALUE PUSH2 0x1EB JUMPI DUP2 PUSH1 0x3 NOT CALLDATASIZE ADD SLT PUSH2 0x1EB JUMPI PUSH1 0x20 SWAP1 MLOAD PUSH1 0x3 DUP2 MSTORE RETURN JUMPDEST SWAP1 POP CALLVALUE PUSH2 0x26D JUMPI PUSH1 0x20 CALLDATASIZE PUSH1 0x3 NOT ADD SLT PUSH2 0x26D JUMPI CALLDATALOAD PUSH1 0x3 DUP2 LT ISZERO PUSH2 0x26D JUMPI SLOAD SWAP1 MLOAD PUSH1 0x1 PUSH1 0x1 PUSH1 0xA0 SHL SUB SWAP1 SWAP2 AND DUP2 MSTORE PUSH1 0x20 SWAP2 POP RETURN JUMPDEST POP POP CALLVALUE PUSH2 0x1EB JUMPI PUSH1 0x20 CALLDATASIZE PUSH1 0x3 NOT ADD SLT PUSH2 0x1EB JUMPI PUSH1 0x20 SWAP1 PUSH2 0x2B2 PUSH2 0x1131 PUSH2 0x11B0 JUMP JUMPDEST PUSH2 0x12B9 JUMP JUMPDEST SWAP1 POP CALLVALUE PUSH2 0x26D JUMPI PUSH1 0x20 CALLDATASIZE PUSH1 0x3 NOT ADD SLT PUSH2 0x26D JUMPI PUSH32 0x12C476DBE611207AA496773AFC1CFEDB660981EBE024C62F643A0AAEC9BB7569 SWAP2 PUSH2 0x267 DUP3 CALLDATALOAD SWAP3 PUSH2 0x117D PUSH2 0x235 CALLER PUSH2 0x16CE JUMP JUMPDEST PUSH2 0x118B PUSH2 0x3E8 DUP6 GT ISZERO PUSH2 0x121B JUMP JUMPDEST DUP4 PUSH1 0x5 SSTORE SLOAD SWAP2 PUSH1 0x6 SLOAD SWAP1 MLOAD SWAP4 DUP5 SWAP4 DUP5 PUSH1 0x40 SWAP2 SWAP5 SWAP4 SWAP3 PUSH1 0x60 DUP3 ADD SWAP6 DUP3 MSTORE PUSH1 0x20 DUP3 ADD MSTORE ADD MSTORE JUMP JUMPDEST PUSH1 0x4 CALLDATALOAD SWAP1 PUSH1 0x1 PUSH1 0x1 PUSH1 0xA0 SHL SUB DUP3 AND DUP3 SUB PUSH2 0x97D JUMPI JUMP JUMPDEST CALLVALUE PUSH2 0x97D JUMPI PUSH1 0x0 CALLDATASIZE PUSH1 0x3 NOT ADD SLT PUSH2 0x97D JUMPI PUSH1 0x20 PUSH1 0x40 MLOAD PUSH2 0x3E8 DUP2 MSTORE RETURN JUMPDEST ISZERO PUSH2 0x11EA JUMPI JUMP JUMPDEST PUSH1 0x40 MLOAD PUSH3 0x461BCD PUSH1 0xE5 SHL DUP2 MSTORE PUSH1 0x20 PUSH1 0x4 DUP3 ADD MSTORE PUSH1 0x9 PUSH1 0x24 DUP3 ADD MSTORE PUSH9 0x2737BA1037BBB732B9 PUSH1 0xB9 SHL PUSH1 0x44 DUP3 ADD MSTORE PUSH1 0x64 SWAP1 REVERT JUMPDEST ISZERO PUSH2 0x1222 JUMPI JUMP JUMPDEST PUSH1 0x40 MLOAD PUSH3 0x461BCD PUSH1 0xE5 SHL DUP2 MSTORE PUSH1 0x20 PUSH1 0x4 DUP3 ADD MSTORE PUSH1 0xC PUSH1 0x24 DUP3 ADD MSTORE PUSH12 0x8CCACA40E8DEDE40D0D2CED PUSH1 0xA3 SHL PUSH1 0x44 DUP3 ADD MSTORE PUSH1 0x64 SWAP1 REVERT JUMPDEST SWAP2 SWAP1 DUP3 SUB SWAP2 DUP3 GT PUSH2 0x1263 JUMPI JUMP JUMPDEST PUSH4 0x4E487B71 PUSH1 0xE0 SHL PUSH1 0x0 MSTORE PUSH1 0x11 PUSH1 0x4 MSTORE PUSH1 0x24 PUSH1 0x0 REVERT JUMPDEST DUP2 DUP2 MUL SWAP3 SWAP2 DUP2 ISZERO SWAP2 DUP5 DIV EQ OR ISZERO PUSH2 0x1263 JUMPI JUMP JUMPDEST DUP2 ISZERO PUSH2 0x1296 JUMPI DIV SWAP1 JUMP JUMPDEST PUSH4 0x4E487B71 PUSH1 0xE0 SHL PUSH1 0x0 MSTORE PUSH1 0x12 PUSH1 0x4 MSTORE PUSH1 0x24 PUSH1 0x0 REVERT JUMPDEST SWAP2 SWAP1 DUP3 ADD DUP1 SWAP3 GT PUSH2 0x1263 JUMPI JUMP JUMPDEST PUSH1 0x1 DUP1 PUSH1 0xA0 SHL SUB AND PUSH1 0x0 MSTORE PUSH1 0xE PUSH1 0x20 MSTORE PUSH2 0x1307 PUSH1 0x40 PUSH1 0x0 KECCAK256 PUSH1 0x2 PUSH8 0xDE0B6B3A7640000 PUSH2 0x12FD DUP4 SLOAD PUSH2 0x12F7 PUSH2 0x12EC PUSH2 0x167D JUMP JUMPDEST PUSH1 0x1 DUP8 ADD SLOAD SWAP1 PUSH2 0x1256 JUMP JUMPDEST SWAP1 PUSH2 0x1279 JUMP JUMPDEST DIV SWAP2 ADD SLOAD SWAP1 PUSH2 0x12AC JUMP JUMPDEST SWAP1 JUMP JUMPDEST PUSH1 0x1 SWAP2 PUSH1 0x3 SWAP2 PUSH1 0x1 PUSH1 0x3 SLOAD GT ISZERO PUSH2 0x13BF JUMPI PUSH1 0x0 JUMPDEST DUP4 DUP2 LT PUSH2 0x1356 JUMPI PUSH1 0x40 MLOAD PUSH3 0x461BCD PUSH1 0xE5 SHL DUP2 MSTORE PUSH1 0x20 PUSH1 0x4 DUP3 ADD MSTORE PUSH1 0x9 PUSH1 0x24 DUP3 ADD MSTORE PUSH9 0x139BDD08199BDD5B99 PUSH1 0xBA SHL PUSH1 0x44 DUP3 ADD MSTORE PUSH1 0x64 SWAP1 REVERT JUMPDEST DUP1 SLOAD PUSH1 0x1 PUSH1 0x1 PUSH1 0xA0 SHL SUB DUP4 DUP2 AND SWAP2 SWAP1 DUP2 AND DUP3 EQ PUSH2 0x1376 JUMPI POP POP DUP5 ADD PUSH2 0x131E JUMP JUMPDEST PUSH1 0x1 PUSH1 0x1 PUSH1 0xA0 SHL SUB NOT AND SWAP1 SWAP2 SSTORE DUP4 SLOAD SWAP3 SWAP5 POP SWAP3 SWAP2 SWAP1 POP DUP1 ISZERO PUSH2 0x1263 JUMPI PUSH1 0x0 NOT ADD SWAP1 SSTORE PUSH32 0x58619076ADF5BB0943D100EF88D52D7C3FD691B19D3A9071B555B651FBF418DA PUSH1 0x0 DUP1 LOG2 JUMP JUMPDEST PUSH1 0x40 MLOAD PUSH3 0x461BCD PUSH1 0xE5 SHL DUP2 MSTORE PUSH1 0x20 PUSH1 0x4 DUP3 ADD MSTORE PUSH1 0x15 PUSH1 0x24 DUP3 ADD MSTORE PUSH21 0x2732B2B21030BA103632B0B9BA10189037BBB732B9 PUSH1 0x59 SHL PUSH1 0x44 DUP3 ADD MSTORE PUSH1 0x64 SWAP1 REVERT JUMPDEST ISZERO PUSH2 0x1403 JUMPI JUMP JUMPDEST PUSH1 0x40 MLOAD PUSH3 0x461BCD PUSH1 0xE5 SHL DUP2 MSTORE PUSH1 0x20 PUSH1 0x4 DUP3 ADD MSTORE PUSH1 0x6 PUSH1 0x24 DUP3 ADD MSTORE PUSH6 0x14185D5CD959 PUSH1 0xD2 SHL PUSH1 0x44 DUP3 ADD MSTORE PUSH1 0x64 SWAP1 REVERT JUMPDEST ISZERO PUSH2 0x1438 JUMPI JUMP JUMPDEST PUSH1 0x40 MLOAD PUSH3 0x461BCD PUSH1 0xE5 SHL DUP2 MSTORE PUSH1 0x20 PUSH1 0x4 DUP3 ADD MSTORE PUSH1 0xB PUSH1 0x24 DUP3 ADD MSTORE PUSH11 0x16995C9BC8185B5BDD5B9D PUSH1 0xAA SHL PUSH1 0x44 DUP3 ADD MSTORE PUSH1 0x64 SWAP1 REVERT JUMPDEST PUSH1 0x60 DUP2 ADD SWAP1 DUP2 LT PUSH8 0xFFFFFFFFFFFFFFFF DUP3 GT OR PUSH2 0x1487 JUMPI PUSH1 0x40 MSTORE JUMP JUMPDEST PUSH4 0x4E487B71 PUSH1 0xE0 SHL PUSH1 0x0 MSTORE PUSH1 0x41 PUSH1 0x4 MSTORE PUSH1 0x24 PUSH1 0x0 REVERT JUMPDEST SWAP1 PUSH1 0x1F DUP1 NOT SWAP2 ADD AND DUP2 ADD SWAP1 DUP2 LT PUSH8 0xFFFFFFFFFFFFFFFF DUP3 GT OR PUSH2 0x1487 JUMPI PUSH1 0x40 MSTORE JUMP JUMPDEST SWAP1 DUP2 PUSH1 0x20 SWAP2 SUB SLT PUSH2 0x97D JUMPI MLOAD DUP1 ISZERO ISZERO DUP2 SUB PUSH2 0x97D JUMPI SWAP1 JUMP JUMPDEST PUSH1 0xC SLOAD DUP1 ISZERO DUP1 ISZERO PUSH2 0x1527 JUMPI JUMPDEST PUSH2 0x1521 JUMPI PUSH1 0x8 SLOAD SWAP1 PUSH4 0x1E13380 SWAP2 DUP3 DUP2 MUL SWAP3 DUP2 DUP5 DIV EQ DUP2 ISZERO OR ISZERO PUSH2 0x1263 JUMPI PUSH5 0x496CEBB800 MUL SWAP2 DUP1 DUP4 DIV PUSH2 0x2710 EQ SWAP1 ISZERO OR ISZERO PUSH2 0x1263 JUMPI PUSH2 0x1307 SWAP2 PUSH2 0x128C JUMP JUMPDEST POP PUSH1 0x0 SWAP1 JUMP JUMPDEST POP PUSH1 0x8 SLOAD ISZERO PUSH2 0x14E3 JUMP JUMPDEST PUSH1 0x1 PUSH1 0x1 PUSH1 0xA0 SHL SUB SWAP1 DUP1 DUP3 AND SWAP1 DUP2 ISZERO PUSH2 0x1637 JUMPI PUSH2 0x154D SWAP1 PUSH2 0x16CE JUMP JUMPDEST PUSH2 0x1602 JUMPI PUSH1 0x3 DUP1 DUP1 SLOAD LT ISZERO PUSH2 0x15C8 JUMPI PUSH1 0x0 JUMPDEST DUP2 DUP2 LT PUSH2 0x156C JUMPI POP POP POP POP JUMP JUMPDEST DUP1 SLOAD DUP5 DUP2 AND ISZERO PUSH2 0x157F JUMPI POP PUSH1 0x1 ADD PUSH2 0x155F JUMP JUMPDEST PUSH1 0x1 PUSH1 0x1 PUSH1 0xA0 SHL SUB NOT AND DUP4 OR SWAP1 SSTORE DUP1 SLOAD SWAP2 SWAP3 POP SWAP1 PUSH1 0x0 NOT DUP2 EQ PUSH2 0x1263 JUMPI PUSH1 0x1 ADD SWAP1 SSTORE PUSH32 0x994A936646FE87FFE4F1E469D3D6AA417D6B855598397F323DE5B449F765F0C3 PUSH1 0x0 DUP1 LOG2 JUMP JUMPDEST PUSH1 0x40 MLOAD PUSH3 0x461BCD PUSH1 0xE5 SHL DUP2 MSTORE PUSH1 0x20 PUSH1 0x4 DUP3 ADD MSTORE PUSH1 0x12 PUSH1 0x24 DUP3 ADD MSTORE PUSH18 0x13585E081BDDDB995C9CC81C995858DA1959 PUSH1 0x72 SHL PUSH1 0x44 DUP3 ADD MSTORE PUSH1 0x64 SWAP1 REVERT JUMPDEST PUSH1 0x40 MLOAD PUSH3 0x461BCD PUSH1 0xE5 SHL DUP2 MSTORE PUSH1 0x20 PUSH1 0x4 DUP3 ADD MSTORE PUSH1 0xD PUSH1 0x24 DUP3 ADD MSTORE PUSH13 0x20B63932B0B23C9037BBB732B9 PUSH1 0x99 SHL PUSH1 0x44 DUP3 ADD MSTORE PUSH1 0x64 SWAP1 REVERT JUMPDEST PUSH1 0x40 MLOAD PUSH3 0x461BCD PUSH1 0xE5 SHL DUP2 MSTORE PUSH1 0x20 PUSH1 0x4 DUP3 ADD MSTORE PUSH1 0xC PUSH1 0x24 DUP3 ADD MSTORE PUSH12 0x5A65726F2061646472657373 PUSH1 0xA0 SHL PUSH1 0x44 DUP3 ADD MSTORE PUSH1 0x64 SWAP1 REVERT JUMPDEST PUSH1 0x9 SLOAD DUP1 TIMESTAMP LT PUSH1 0x0 EQ PUSH2 0x1307 JUMPI POP TIMESTAMP SWAP1 JUMP JUMPDEST PUSH1 0xC SLOAD DUP1 ISZERO PUSH2 0x16C7 JUMPI PUSH1 0xA SLOAD PUSH2 0x16A0 PUSH2 0x670 PUSH2 0x1697 PUSH2 0x166B JUMP JUMPDEST PUSH1 0xB SLOAD SWAP1 PUSH2 0x1256 JUMP JUMPDEST PUSH8 0xDE0B6B3A7640000 SWAP1 DUP2 DUP2 MUL SWAP2 DUP2 DUP4 DIV EQ SWAP1 ISZERO OR ISZERO PUSH2 0x1263 JUMPI PUSH2 0x1307 SWAP3 PUSH2 0x679 SWAP2 PUSH2 0x128C JUMP JUMPDEST POP PUSH1 0xA SLOAD SWAP1 JUMP JUMPDEST PUSH1 0x0 JUMPDEST PUSH1 0x3 DUP2 LT PUSH2 0x16E0 JUMPI POP POP PUSH1 0x0 SWAP1 JUMP JUMPDEST DUP1 SLOAD PUSH1 0x1 PUSH1 0x1 PUSH1 0xA0 SHL SUB DUP4 DUP2 AND SWAP2 AND EQ PUSH2 0x16FC JUMPI PUSH1 0x1 ADD PUSH2 0x16D1 JUMP JUMPDEST POP POP PUSH1 0x1 SWAP1 JUMP JUMPDEST SWAP1 DUP1 ISZERO PUSH2 0x175C JUMPI SWAP1 PUSH2 0x171B SWAP2 PUSH2 0x2710 SWAP3 DUP4 SWAP2 DUP4 PUSH2 0x1279 JUMP JUMPDEST DIV SWAP1 PUSH2 0x3E8 DUP1 DUP4 MUL SWAP1 DUP4 DUP3 DIV EQ DUP4 ISZERO OR ISZERO PUSH2 0x1263 JUMPI PUSH2 0x1307 SWAP4 PUSH2 0x1757 SWAP2 DIV PUSH2 0x174F PUSH2 0x1746 DUP3 DUP7 PUSH2 0x1256 JUMP JUMPDEST SWAP2 PUSH1 0xD SLOAD PUSH2 0x12AC JUMP JUMPDEST PUSH1 0xD SSTORE PUSH2 0x17FB JUMP JUMPDEST PUSH2 0x1256 JUMP JUMPDEST POP SWAP1 JUMP JUMPDEST PUSH2 0x1776 SWAP2 PUSH1 0x0 PUSH1 0x2 DUP3 ADD SSTORE PUSH1 0x4 TIMESTAMP SWAP2 ADD SSTORE PUSH2 0x18F3 JUMP JUMPDEST PUSH1 0x40 MLOAD PUSH4 0xA9059CBB PUSH1 0xE0 SHL DUP2 MSTORE CALLER PUSH1 0x4 DUP3 ADD MSTORE PUSH1 0x24 DUP2 ADD DUP3 SWAP1 MSTORE SWAP1 SWAP2 SWAP1 PUSH1 0x20 DUP2 PUSH1 0x44 DUP2 PUSH1 0x0 PUSH1 0x1 PUSH1 0x1 PUSH1 0xA0 SHL SUB PUSH32 0x0 AND GAS CALL DUP1 ISZERO PUSH2 0x17EF JUMPI PUSH2 0x17D4 JUMPI POP JUMP JUMPDEST PUSH2 0x17EC SWAP1 PUSH1 0x20 RETURNDATASIZE PUSH1 0x20 GT PUSH2 0x6B0 JUMPI PUSH2 0x6A1 DUP2 DUP4 PUSH2 0x149D JUMP JUMPDEST POP JUMP JUMPDEST PUSH1 0x40 MLOAD RETURNDATASIZE PUSH1 0x0 DUP3 RETURNDATACOPY RETURNDATASIZE SWAP1 REVERT JUMPDEST DUP1 ISZERO DUP1 ISZERO PUSH2 0x18E9 JUMPI JUMPDEST PUSH2 0x17EC JUMPI PUSH2 0x1817 PUSH1 0x3 SWAP2 PUSH1 0x3 SLOAD SWAP1 PUSH2 0x128C JUMP JUMPDEST SWAP1 PUSH1 0x0 SWAP2 PUSH1 0x0 JUMPDEST DUP3 DUP2 LT PUSH2 0x182B JUMPI POP POP POP POP JUMP JUMPDEST DUP1 SLOAD DUP3 SWAP1 PUSH1 0x1 PUSH1 0x1 PUSH1 0xA0 SHL SUB SWAP1 DUP2 AND DUP1 PUSH2 0x184B JUMPI JUMPDEST POP POP POP PUSH1 0x1 ADD PUSH2 0x181E JUMP JUMPDEST PUSH1 0x40 DUP1 MLOAD PUSH4 0xA9059CBB PUSH1 0xE0 SHL DUP2 MSTORE PUSH1 0x1 PUSH1 0x1 PUSH1 0xA0 SHL SUB SWAP3 SWAP1 SWAP3 AND PUSH1 0x4 DUP4 ADD MSTORE PUSH1 0x24 DUP3 ADD SWAP4 SWAP1 SWAP4 MSTORE PUSH1 0x20 SWAP3 SWAP1 SWAP2 DUP4 SWAP1 DUP4 SWAP1 PUSH1 0x44 SWAP1 DUP3 SWAP1 DUP12 SWAP1 PUSH32 0x0 AND GAS CALL SWAP1 DUP2 ISZERO PUSH2 0x18E0 JUMPI POP SWAP1 PUSH1 0x1 SWAP4 SWAP3 SWAP2 PUSH2 0x18C2 JUMPI JUMPDEST DUP5 SWAP3 SWAP4 POP PUSH2 0x1840 JUMP JUMPDEST DUP2 PUSH2 0x18D8 SWAP3 SWAP1 RETURNDATASIZE LT PUSH2 0x6B0 JUMPI PUSH2 0x6A1 DUP2 DUP4 PUSH2 0x149D JUMP JUMPDEST POP CODESIZE DUP1 PUSH2 0x18B9 JUMP JUMPDEST MLOAD RETURNDATASIZE DUP9 DUP3 RETURNDATACOPY RETURNDATASIZE SWAP1 REVERT JUMPDEST POP PUSH1 0x3 SLOAD ISZERO PUSH2 0x1804 JUMP JUMPDEST PUSH1 0x6 SLOAD DUP1 ISZERO PUSH2 0x175C JUMPI SWAP1 PUSH2 0x171B SWAP2 PUSH2 0x2710 SWAP3 DUP4 SWAP2 DUP4 PUSH2 0x1279 JUMP INVALID LOG2 PUSH5 0x6970667358 0x22 SLT KECCAK256 CALLVALUE PUSH11 0xFBB22D134D8BC91B6034A5 SWAP15 SELFDESTRUCT 0xDD EXP 0xD3 0xC9 AND 0xD2 PUSH2 0xD08D 0x29 KECCAK256 PUSH0 0xA6 PUSH21 0x5BE0A164736F6C6343000818003300000000000000 "},"methodIdentifiers":{"BPS()":"249d39e9","FEE_TO_REWARD_BPS()":"a93837bd","MAX_FEE_BPS()":"d55be8c6","MAX_OWNERS()":"0b8bb146","PERMIT2()":"6afdd850","REWARD_DURATION()":"5ade228a","TOKEN()":"82bfefc8","addOwner(address)":"7065cb48","apyBps()":"51618ed3","claimFeeBps()":"7a526f4e","claimRewards()":"372500ab","contractTokenBalance()":"9e9aed62","depositRewards(uint256)":"8bdf67f2","earned(address)":"008cc262","emergencyWithdraw(address,uint256,address)":"551512de","getOwners()":"a0e67e2b","getStakeInfo(address)":"c3453153","lastTimeRewardApplicable()":"80faa57d","lastUpdateTime()":"c8f33c91","ownerCount()":"0db02622","owners(uint256)":"025e7c27","pause()":"8456cb59","paused()":"5c975abb","periodFinish()":"ebe2b12b","removeOwner(address)":"173825d9","rewardPerToken()":"cd3daf9d","rewardPerTokenStored()":"df136d65","rewardRate()":"7b0a47ee","rewardReserve()":"cab64bcd","setClaimFee(uint256)":"2e75ab50","setStakeFee(uint256)":"e2d7bee4","setUnstakeFee(uint256)":"0018a116","stake(((address,uint256),uint256,uint256),bytes)":"1d9ab29a","stakeFeeBps()":"3ad5b8aa","totalStaked()":"817b1cd2","unpause()":"3f4ba83a","unstake()":"2def6620","unstakeFeeBps()":"c8fc9729","users(address)":"a87430ba"}}}}}