{"contracts/H2OFeeCollector.sol":{"H2OFeeCollector":{"abi":[{"inputs":[{"internalType":"address","name":"_h2o","type":"address"},{"internalType":"address","name":"_owner","type":"address"}],"stateMutability":"nonpayable","type":"constructor"},{"anonymous":false,"inputs":[{"indexed":false,"internalType":"uint256","name":"oldFee","type":"uint256"},{"indexed":false,"internalType":"uint256","name":"newFee","type":"uint256"}],"name":"FeeChanged","type":"event"},{"anonymous":false,"inputs":[{"indexed":true,"internalType":"address","name":"user","type":"address"},{"indexed":false,"internalType":"uint256","name":"amount","type":"uint256"}],"name":"FeePaid","type":"event"},{"anonymous":false,"inputs":[{"indexed":true,"internalType":"address","name":"oldOwner","type":"address"},{"indexed":true,"internalType":"address","name":"newOwner","type":"address"}],"name":"OwnerChanged","type":"event"},{"anonymous":false,"inputs":[{"indexed":true,"internalType":"address","name":"to","type":"address"},{"indexed":false,"internalType":"uint256","name":"amount","type":"uint256"}],"name":"Withdrawn","type":"event"},{"inputs":[],"name":"H2O","outputs":[{"internalType":"address","name":"","type":"address"}],"stateMutability":"view","type":"function"},{"inputs":[],"name":"PERMIT2","outputs":[{"internalType":"address","name":"","type":"address"}],"stateMutability":"view","type":"function"},{"inputs":[],"name":"balance","outputs":[{"internalType":"uint256","name":"","type":"uint256"}],"stateMutability":"view","type":"function"},{"inputs":[],"name":"collected","outputs":[{"internalType":"uint256","name":"","type":"uint256"}],"stateMutability":"view","type":"function"},{"inputs":[],"name":"fee","outputs":[{"internalType":"uint256","name":"","type":"uint256"}],"stateMutability":"view","type":"function"},{"inputs":[],"name":"owner","outputs":[{"internalType":"address","name":"","type":"address"}],"stateMutability":"view","type":"function"},{"inputs":[{"components":[{"components":[{"internalType":"address","name":"token","type":"address"},{"internalType":"uint256","name":"amount","type":"uint256"}],"internalType":"struct IPermit2.TokenPermissions","name":"permitted","type":"tuple"},{"internalType":"uint256","name":"nonce","type":"uint256"},{"internalType":"uint256","name":"deadline","type":"uint256"}],"internalType":"struct IPermit2.PermitTransferFrom","name":"permit","type":"tuple"},{"internalType":"bytes","name":"signature","type":"bytes"}],"name":"payFee","outputs":[],"stateMutability":"nonpayable","type":"function"},{"inputs":[{"internalType":"uint256","name":"_fee","type":"uint256"}],"name":"setFee","outputs":[],"stateMutability":"nonpayable","type":"function"},{"inputs":[{"internalType":"address","name":"_owner","type":"address"}],"name":"setOwner","outputs":[],"stateMutability":"nonpayable","type":"function"},{"inputs":[{"internalType":"uint256","name":"amount","type":"uint256"},{"internalType":"address","name":"to","type":"address"}],"name":"withdraw","outputs":[],"stateMutability":"nonpayable","type":"function"},{"inputs":[{"internalType":"address","name":"to","type":"address"}],"name":"withdrawAll","outputs":[],"stateMutability":"nonpayable","type":"function"}],"evm":{"bytecode":{"linkReferences":{},"object":"60a0346100fd57601f6109ff38819003918201601f19168301916001600160401b038311848410176101025780849260409485528339810103126100fd57610052602061004b83610118565b9201610118565b6001600160a01b03918083161515806100f2575b156100be576080521660018060a01b03196000541617600055670de0b6b3a76400006001556040516108d2908161012d823960805181818160ae01528181610126015281816102ae015281816104e5015261075d0152f35b60405162461bcd60e51b815260206004820152600c60248201526b7a65726f206164647265737360a01b6044820152606490fd5b508282161515610066565b600080fd5b634e487b7160e01b600052604160045260246000fd5b51906001600160a01b03821682036100fd5756fe6040608081526004908136101561001557600080fd5b600091823560e01c908162f714ce146106d35781630299e0cb1461047857816313af40351461040057816369fe0e2d146103a05781636afdd8501461037657816384bcefd4146103575781638da5cb5b1461032f578163b69ef8a814610280578163ddca3f4314610261578163fa09e630146100e1575063feaa524d1461009b57600080fd5b346100dd57816003193601126100dd57517f00000000000000000000000000000000000000000000000000000000000000006001600160a01b03168152602090f35b5080fd5b9190503461025d57602080600319360112610259576100fe6107c3565b9260018060a01b03926101158487541633146107d9565b83851693610124851515610811565b7f00000000000000000000000000000000000000000000000000000000000000001694868251936370a0823160e01b8552308186015285856024818b5afa94851561024f578295610215575b50835163a9059cbb60e01b81526001600160a01b03909316908301908152602081018590529196859288928391829060400103925af194851561020b577f7084f5476618d8e60b11ef0d7d3f06914655adb8793e28ff7f018d4c76d505d594956101de575b5051908152a280f35b6101fd90843d8611610204575b6101f5818361084c565b810190610884565b50386101d5565b503d6101eb565b81513d88823e3d90fd5b92945090508482813d8111610248575b61022f818361084c565b810103126102435790519290879085610170565b600080fd5b503d610225565b84513d84823e3d90fd5b8380fd5b8280fd5b5050346100dd57816003193601126100dd576020906001549051908152f35b8383346100dd57816003193601126100dd5780516370a0823160e01b815230938101939093526020836024817f00000000000000000000000000000000000000000000000000000000000000006001600160a01b03165afa91821561032457916102ef575b6020925051908152f35b90506020823d60201161031c575b8161030a6020938361084c565b810103126102435760209151906102e5565b3d91506102fd565b9051903d90823e3d90fd5b5050346100dd57816003193601126100dd57905490516001600160a01b039091168152602090f35b5050346100dd57816003193601126100dd576020906002549051908152f35b5050346100dd57816003193601126100dd57602090516e22d473030f116ddee9f6b43ac78ba38152f35b90503461025d57602036600319011261025d577f5fc463da23c1b063e66f9e352006a7fbe8db7223c455dc429e881a2dfe2f94f19035916103eb60018060a01b0385541633146107d9565b6001548151908152836020820152a160015580f35b83346104755760203660031901126104755761041a6107c3565b81546001600160a01b03808216926104333385146107d9565b168092610441821515610811565b7fb532073b38c83145e3e5135377a08bf9aab55bc0fd7c1179cd4fb995d2a5159c8580a36001600160a01b03191617815580f35b80fd5b9190503461025d57366003190160a081126102595760801361025d5760843567ffffffffffffffff8082116106cf57366023830112156106cf5781840135938185116106cb5760249136838786010111610645576001600160a01b03958235878116908190036106c757877f00000000000000000000000000000000000000000000000000000000000000001603610693576001549684359188831061065b5787519688880188811086821117610649578952308852602088018a81528b94936e22d473030f116ddee9f6b43ac78ba3939290843b1561064557899387938a928e519d8e998a98899663187945bd60e11b8852846105746107c3565b169088015286015260443560448601526064356064860152511660848401525160a48301523360c483015261010060e483015280610104830152808b6101249401848401378181018301849052601f01601f191681010301925af1801561063b57610613575b505050508160025401600255519081527f075a2720282fdf622141dae0b048ef90a21a7e57c134c76912d19d006b3b3f6f60203392a280f35b839694961161062a575050835291388080806105da565b634e487b7160e01b84526041905282fd5b85513d89823e3d90fd5b8680fd5b634e487b7160e01b8c5260418752878cfd5b875162461bcd60e51b8152602081870152601381880152727065726d697420616d6f756e74203c2066656560681b6044820152606490fd5b855162461bcd60e51b8152602081850152600f818601526e666565206d7573742062652048324f60881b6044820152606490fd5b8880fd5b8580fd5b8480fd5b9190503461025d578060031936011261025d576001600160a01b03602435818116938035939286919086840361025d576107599383879361071a84602097541633146107d9565b6107258a1515610811565b875163a9059cbb60e01b81526001600160a01b03909316908301908152602081019490945290948593849291839160400190565b03927f0000000000000000000000000000000000000000000000000000000000000000165af180156107b957917f7084f5476618d8e60b11ef0d7d3f06914655adb8793e28ff7f018d4c76d505d593916020936101de575051908152a280f35b82513d87823e3d90fd5b600435906001600160a01b038216820361024357565b156107e057565b60405162461bcd60e51b81526020600482015260096024820152683737ba1037bbb732b960b91b6044820152606490fd5b1561081857565b60405162461bcd60e51b815260206004820152600c60248201526b7a65726f206164647265737360a01b6044820152606490fd5b90601f8019910116810190811067ffffffffffffffff82111761086e57604052565b634e487b7160e01b600052604160045260246000fd5b9081602091031261024357518015158103610243579056fea26469706673582212209a426247bce1872cb34f84ce219e7f6f89dca04d64af8a0276e9f21e13595e6964736f6c63430008180033","opcodes":"PUSH1 0xA0 CALLVALUE PUSH2 0xFD JUMPI PUSH1 0x1F PUSH2 0x9FF CODESIZE DUP2 SWAP1 SUB SWAP2 DUP3 ADD PUSH1 0x1F NOT AND DUP4 ADD SWAP2 PUSH1 0x1 PUSH1 0x1 PUSH1 0x40 SHL SUB DUP4 GT DUP5 DUP5 LT OR PUSH2 0x102 JUMPI DUP1 DUP5 SWAP3 PUSH1 0x40 SWAP5 DUP6 MSTORE DUP4 CODECOPY DUP2 ADD SUB SLT PUSH2 0xFD JUMPI PUSH2 0x52 PUSH1 0x20 PUSH2 0x4B DUP4 PUSH2 0x118 JUMP JUMPDEST SWAP3 ADD PUSH2 0x118 JUMP JUMPDEST PUSH1 0x1 PUSH1 0x1 PUSH1 0xA0 SHL SUB SWAP2 DUP1 DUP4 AND ISZERO ISZERO DUP1 PUSH2 0xF2 JUMPI JUMPDEST ISZERO PUSH2 0xBE JUMPI PUSH1 0x80 MSTORE AND PUSH1 0x1 DUP1 PUSH1 0xA0 SHL SUB NOT PUSH1 0x0 SLOAD AND OR PUSH1 0x0 SSTORE PUSH8 0xDE0B6B3A7640000 PUSH1 0x1 SSTORE PUSH1 0x40 MLOAD PUSH2 0x8D2 SWAP1 DUP2 PUSH2 0x12D DUP3 CODECOPY PUSH1 0x80 MLOAD DUP2 DUP2 DUP2 PUSH1 0xAE ADD MSTORE DUP2 DUP2 PUSH2 0x126 ADD MSTORE DUP2 DUP2 PUSH2 0x2AE ADD MSTORE DUP2 DUP2 PUSH2 0x4E5 ADD MSTORE PUSH2 0x75D ADD MSTORE RETURN JUMPDEST PUSH1 0x40 MLOAD PUSH3 0x461BCD PUSH1 0xE5 SHL DUP2 MSTORE PUSH1 0x20 PUSH1 0x4 DUP3 ADD MSTORE PUSH1 0xC PUSH1 0x24 DUP3 ADD MSTORE PUSH12 0x7A65726F2061646472657373 PUSH1 0xA0 SHL PUSH1 0x44 DUP3 ADD MSTORE PUSH1 0x64 SWAP1 REVERT JUMPDEST POP DUP3 DUP3 AND ISZERO ISZERO PUSH2 0x66 JUMP JUMPDEST PUSH1 0x0 DUP1 REVERT JUMPDEST PUSH4 0x4E487B71 PUSH1 0xE0 SHL PUSH1 0x0 MSTORE PUSH1 0x41 PUSH1 0x4 MSTORE PUSH1 0x24 PUSH1 0x0 REVERT JUMPDEST MLOAD SWAP1 PUSH1 0x1 PUSH1 0x1 PUSH1 0xA0 SHL SUB DUP3 AND DUP3 SUB PUSH2 0xFD JUMPI JUMP INVALID PUSH1 0x40 PUSH1 0x80 DUP2 MSTORE PUSH1 0x4 SWAP1 DUP2 CALLDATASIZE LT ISZERO PUSH2 0x15 JUMPI PUSH1 0x0 DUP1 REVERT JUMPDEST PUSH1 0x0 SWAP2 DUP3 CALLDATALOAD PUSH1 0xE0 SHR SWAP1 DUP2 PUSH3 0xF714CE EQ PUSH2 0x6D3 JUMPI DUP2 PUSH4 0x299E0CB EQ PUSH2 0x478 JUMPI DUP2 PUSH4 0x13AF4035 EQ PUSH2 0x400 JUMPI DUP2 PUSH4 0x69FE0E2D EQ PUSH2 0x3A0 JUMPI DUP2 PUSH4 0x6AFDD850 EQ PUSH2 0x376 JUMPI DUP2 PUSH4 0x84BCEFD4 EQ PUSH2 0x357 JUMPI DUP2 PUSH4 0x8DA5CB5B EQ PUSH2 0x32F JUMPI DUP2 PUSH4 0xB69EF8A8 EQ PUSH2 0x280 JUMPI DUP2 PUSH4 0xDDCA3F43 EQ PUSH2 0x261 JUMPI DUP2 PUSH4 0xFA09E630 EQ PUSH2 0xE1 JUMPI POP PUSH4 0xFEAA524D EQ PUSH2 0x9B JUMPI PUSH1 0x0 DUP1 REVERT JUMPDEST CALLVALUE PUSH2 0xDD JUMPI DUP2 PUSH1 0x3 NOT CALLDATASIZE ADD SLT PUSH2 0xDD JUMPI MLOAD PUSH32 0x0 PUSH1 0x1 PUSH1 0x1 PUSH1 0xA0 SHL SUB AND DUP2 MSTORE PUSH1 0x20 SWAP1 RETURN JUMPDEST POP DUP1 REVERT JUMPDEST SWAP2 SWAP1 POP CALLVALUE PUSH2 0x25D JUMPI PUSH1 0x20 DUP1 PUSH1 0x3 NOT CALLDATASIZE ADD SLT PUSH2 0x259 JUMPI PUSH2 0xFE PUSH2 0x7C3 JUMP JUMPDEST SWAP3 PUSH1 0x1 DUP1 PUSH1 0xA0 SHL SUB SWAP3 PUSH2 0x115 DUP5 DUP8 SLOAD AND CALLER EQ PUSH2 0x7D9 JUMP JUMPDEST DUP4 DUP6 AND SWAP4 PUSH2 0x124 DUP6 ISZERO ISZERO PUSH2 0x811 JUMP JUMPDEST PUSH32 0x0 AND SWAP5 DUP7 DUP3 MLOAD SWAP4 PUSH4 0x70A08231 PUSH1 0xE0 SHL DUP6 MSTORE ADDRESS DUP2 DUP7 ADD MSTORE DUP6 DUP6 PUSH1 0x24 DUP2 DUP12 GAS STATICCALL SWAP5 DUP6 ISZERO PUSH2 0x24F JUMPI DUP3 SWAP6 PUSH2 0x215 JUMPI JUMPDEST POP DUP4 MLOAD PUSH4 0xA9059CBB PUSH1 0xE0 SHL DUP2 MSTORE PUSH1 0x1 PUSH1 0x1 PUSH1 0xA0 SHL SUB SWAP1 SWAP4 AND SWAP1 DUP4 ADD SWAP1 DUP2 MSTORE PUSH1 0x20 DUP2 ADD DUP6 SWAP1 MSTORE SWAP2 SWAP7 DUP6 SWAP3 DUP9 SWAP3 DUP4 SWAP2 DUP3 SWAP1 PUSH1 0x40 ADD SUB SWAP3 GAS CALL SWAP5 DUP6 ISZERO PUSH2 0x20B JUMPI PUSH32 0x7084F5476618D8E60B11EF0D7D3F06914655ADB8793E28FF7F018D4C76D505D5 SWAP5 SWAP6 PUSH2 0x1DE JUMPI JUMPDEST POP MLOAD SWAP1 DUP2 MSTORE LOG2 DUP1 RETURN JUMPDEST PUSH2 0x1FD SWAP1 DUP5 RETURNDATASIZE DUP7 GT PUSH2 0x204 JUMPI JUMPDEST PUSH2 0x1F5 DUP2 DUP4 PUSH2 0x84C JUMP JUMPDEST DUP2 ADD SWAP1 PUSH2 0x884 JUMP JUMPDEST POP CODESIZE PUSH2 0x1D5 JUMP JUMPDEST POP RETURNDATASIZE PUSH2 0x1EB JUMP JUMPDEST DUP2 MLOAD RETURNDATASIZE DUP9 DUP3 RETURNDATACOPY RETURNDATASIZE SWAP1 REVERT JUMPDEST SWAP3 SWAP5 POP SWAP1 POP DUP5 DUP3 DUP2 RETURNDATASIZE DUP2 GT PUSH2 0x248 JUMPI JUMPDEST PUSH2 0x22F DUP2 DUP4 PUSH2 0x84C JUMP JUMPDEST DUP2 ADD SUB SLT PUSH2 0x243 JUMPI SWAP1 MLOAD SWAP3 SWAP1 DUP8 SWAP1 DUP6 PUSH2 0x170 JUMP JUMPDEST PUSH1 0x0 DUP1 REVERT JUMPDEST POP RETURNDATASIZE PUSH2 0x225 JUMP JUMPDEST DUP5 MLOAD RETURNDATASIZE DUP5 DUP3 RETURNDATACOPY RETURNDATASIZE SWAP1 REVERT JUMPDEST DUP4 DUP1 REVERT JUMPDEST DUP3 DUP1 REVERT JUMPDEST POP POP CALLVALUE PUSH2 0xDD JUMPI DUP2 PUSH1 0x3 NOT CALLDATASIZE ADD SLT PUSH2 0xDD JUMPI PUSH1 0x20 SWAP1 PUSH1 0x1 SLOAD SWAP1 MLOAD SWAP1 DUP2 MSTORE RETURN JUMPDEST DUP4 DUP4 CALLVALUE PUSH2 0xDD JUMPI DUP2 PUSH1 0x3 NOT CALLDATASIZE ADD SLT PUSH2 0xDD JUMPI DUP1 MLOAD PUSH4 0x70A08231 PUSH1 0xE0 SHL DUP2 MSTORE ADDRESS SWAP4 DUP2 ADD SWAP4 SWAP1 SWAP4 MSTORE PUSH1 0x20 DUP4 PUSH1 0x24 DUP2 PUSH32 0x0 PUSH1 0x1 PUSH1 0x1 PUSH1 0xA0 SHL SUB AND GAS STATICCALL SWAP2 DUP3 ISZERO PUSH2 0x324 JUMPI SWAP2 PUSH2 0x2EF JUMPI JUMPDEST PUSH1 0x20 SWAP3 POP MLOAD SWAP1 DUP2 MSTORE RETURN JUMPDEST SWAP1 POP PUSH1 0x20 DUP3 RETURNDATASIZE PUSH1 0x20 GT PUSH2 0x31C JUMPI JUMPDEST DUP2 PUSH2 0x30A PUSH1 0x20 SWAP4 DUP4 PUSH2 0x84C JUMP JUMPDEST DUP2 ADD SUB SLT PUSH2 0x243 JUMPI PUSH1 0x20 SWAP2 MLOAD SWAP1 PUSH2 0x2E5 JUMP JUMPDEST RETURNDATASIZE SWAP2 POP PUSH2 0x2FD JUMP JUMPDEST SWAP1 MLOAD SWAP1 RETURNDATASIZE SWAP1 DUP3 RETURNDATACOPY RETURNDATASIZE SWAP1 REVERT JUMPDEST POP POP CALLVALUE PUSH2 0xDD JUMPI DUP2 PUSH1 0x3 NOT CALLDATASIZE ADD SLT PUSH2 0xDD JUMPI SWAP1 SLOAD SWAP1 MLOAD PUSH1 0x1 PUSH1 0x1 PUSH1 0xA0 SHL SUB SWAP1 SWAP2 AND DUP2 MSTORE PUSH1 0x20 SWAP1 RETURN JUMPDEST POP POP CALLVALUE PUSH2 0xDD JUMPI DUP2 PUSH1 0x3 NOT CALLDATASIZE ADD SLT PUSH2 0xDD JUMPI PUSH1 0x20 SWAP1 PUSH1 0x2 SLOAD SWAP1 MLOAD SWAP1 DUP2 MSTORE RETURN JUMPDEST POP POP CALLVALUE PUSH2 0xDD JUMPI DUP2 PUSH1 0x3 NOT CALLDATASIZE ADD SLT PUSH2 0xDD JUMPI PUSH1 0x20 SWAP1 MLOAD PUSH15 0x22D473030F116DDEE9F6B43AC78BA3 DUP2 MSTORE RETURN JUMPDEST SWAP1 POP CALLVALUE PUSH2 0x25D JUMPI PUSH1 0x20 CALLDATASIZE PUSH1 0x3 NOT ADD SLT PUSH2 0x25D JUMPI PUSH32 0x5FC463DA23C1B063E66F9E352006A7FBE8DB7223C455DC429E881A2DFE2F94F1 SWAP1 CALLDATALOAD SWAP2 PUSH2 0x3EB PUSH1 0x1 DUP1 PUSH1 0xA0 SHL SUB DUP6 SLOAD AND CALLER EQ PUSH2 0x7D9 JUMP JUMPDEST PUSH1 0x1 SLOAD DUP2 MLOAD SWAP1 DUP2 MSTORE DUP4 PUSH1 0x20 DUP3 ADD MSTORE LOG1 PUSH1 0x1 SSTORE DUP1 RETURN JUMPDEST DUP4 CALLVALUE PUSH2 0x475 JUMPI PUSH1 0x20 CALLDATASIZE PUSH1 0x3 NOT ADD SLT PUSH2 0x475 JUMPI PUSH2 0x41A PUSH2 0x7C3 JUMP JUMPDEST DUP2 SLOAD PUSH1 0x1 PUSH1 0x1 PUSH1 0xA0 SHL SUB DUP1 DUP3 AND SWAP3 PUSH2 0x433 CALLER DUP6 EQ PUSH2 0x7D9 JUMP JUMPDEST AND DUP1 SWAP3 PUSH2 0x441 DUP3 ISZERO ISZERO PUSH2 0x811 JUMP JUMPDEST PUSH32 0xB532073B38C83145E3E5135377A08BF9AAB55BC0FD7C1179CD4FB995D2A5159C DUP6 DUP1 LOG3 PUSH1 0x1 PUSH1 0x1 PUSH1 0xA0 SHL SUB NOT AND OR DUP2 SSTORE DUP1 RETURN JUMPDEST DUP1 REVERT JUMPDEST SWAP2 SWAP1 POP CALLVALUE PUSH2 0x25D JUMPI CALLDATASIZE PUSH1 0x3 NOT ADD PUSH1 0xA0 DUP2 SLT PUSH2 0x259 JUMPI PUSH1 0x80 SGT PUSH2 0x25D JUMPI PUSH1 0x84 CALLDATALOAD PUSH8 0xFFFFFFFFFFFFFFFF DUP1 DUP3 GT PUSH2 0x6CF JUMPI CALLDATASIZE PUSH1 0x23 DUP4 ADD SLT ISZERO PUSH2 0x6CF JUMPI DUP2 DUP5 ADD CALLDATALOAD SWAP4 DUP2 DUP6 GT PUSH2 0x6CB JUMPI PUSH1 0x24 SWAP2 CALLDATASIZE DUP4 DUP8 DUP7 ADD ADD GT PUSH2 0x645 JUMPI PUSH1 0x1 PUSH1 0x1 PUSH1 0xA0 SHL SUB SWAP6 DUP3 CALLDATALOAD DUP8 DUP2 AND SWAP1 DUP2 SWAP1 SUB PUSH2 0x6C7 JUMPI DUP8 PUSH32 0x0 AND SUB PUSH2 0x693 JUMPI PUSH1 0x1 SLOAD SWAP7 DUP5 CALLDATALOAD SWAP2 DUP9 DUP4 LT PUSH2 0x65B JUMPI DUP8 MLOAD SWAP7 DUP9 DUP9 ADD DUP9 DUP2 LT DUP7 DUP3 GT OR PUSH2 0x649 JUMPI DUP10 MSTORE ADDRESS DUP9 MSTORE PUSH1 0x20 DUP9 ADD DUP11 DUP2 MSTORE DUP12 SWAP5 SWAP4 PUSH15 0x22D473030F116DDEE9F6B43AC78BA3 SWAP4 SWAP3 SWAP1 DUP5 EXTCODESIZE ISZERO PUSH2 0x645 JUMPI DUP10 SWAP4 DUP8 SWAP4 DUP11 SWAP3 DUP15 MLOAD SWAP14 DUP15 SWAP10 DUP11 SWAP9 DUP10 SWAP7 PUSH4 0x187945BD PUSH1 0xE1 SHL DUP9 MSTORE DUP5 PUSH2 0x574 PUSH2 0x7C3 JUMP JUMPDEST AND SWAP1 DUP9 ADD MSTORE DUP7 ADD MSTORE PUSH1 0x44 CALLDATALOAD PUSH1 0x44 DUP7 ADD MSTORE PUSH1 0x64 CALLDATALOAD PUSH1 0x64 DUP7 ADD MSTORE MLOAD AND PUSH1 0x84 DUP5 ADD MSTORE MLOAD PUSH1 0xA4 DUP4 ADD MSTORE CALLER PUSH1 0xC4 DUP4 ADD MSTORE PUSH2 0x100 PUSH1 0xE4 DUP4 ADD MSTORE DUP1 PUSH2 0x104 DUP4 ADD MSTORE DUP1 DUP12 PUSH2 0x124 SWAP5 ADD DUP5 DUP5 ADD CALLDATACOPY DUP2 DUP2 ADD DUP4 ADD DUP5 SWAP1 MSTORE PUSH1 0x1F ADD PUSH1 0x1F NOT AND DUP2 ADD SUB ADD SWAP3 GAS CALL DUP1 ISZERO PUSH2 0x63B JUMPI PUSH2 0x613 JUMPI JUMPDEST POP POP POP POP DUP2 PUSH1 0x2 SLOAD ADD PUSH1 0x2 SSTORE MLOAD SWAP1 DUP2 MSTORE PUSH32 0x75A2720282FDF622141DAE0B048EF90A21A7E57C134C76912D19D006B3B3F6F PUSH1 0x20 CALLER SWAP3 LOG2 DUP1 RETURN JUMPDEST DUP4 SWAP7 SWAP5 SWAP7 GT PUSH2 0x62A JUMPI POP POP DUP4 MSTORE SWAP2 CODESIZE DUP1 DUP1 DUP1 PUSH2 0x5DA JUMP JUMPDEST PUSH4 0x4E487B71 PUSH1 0xE0 SHL DUP5 MSTORE PUSH1 0x41 SWAP1 MSTORE DUP3 REVERT JUMPDEST DUP6 MLOAD RETURNDATASIZE DUP10 DUP3 RETURNDATACOPY RETURNDATASIZE SWAP1 REVERT JUMPDEST DUP7 DUP1 REVERT JUMPDEST PUSH4 0x4E487B71 PUSH1 0xE0 SHL DUP13 MSTORE PUSH1 0x41 DUP8 MSTORE DUP8 DUP13 REVERT JUMPDEST DUP8 MLOAD PUSH3 0x461BCD PUSH1 0xE5 SHL DUP2 MSTORE PUSH1 0x20 DUP2 DUP8 ADD MSTORE PUSH1 0x13 DUP2 DUP9 ADD MSTORE PUSH19 0x7065726D697420616D6F756E74203C20666565 PUSH1 0x68 SHL PUSH1 0x44 DUP3 ADD MSTORE PUSH1 0x64 SWAP1 REVERT JUMPDEST DUP6 MLOAD PUSH3 0x461BCD PUSH1 0xE5 SHL DUP2 MSTORE PUSH1 0x20 DUP2 DUP6 ADD MSTORE PUSH1 0xF DUP2 DUP7 ADD MSTORE PUSH15 0x666565206D7573742062652048324F PUSH1 0x88 SHL PUSH1 0x44 DUP3 ADD MSTORE PUSH1 0x64 SWAP1 REVERT JUMPDEST DUP9 DUP1 REVERT JUMPDEST DUP6 DUP1 REVERT JUMPDEST DUP5 DUP1 REVERT JUMPDEST SWAP2 SWAP1 POP CALLVALUE PUSH2 0x25D JUMPI DUP1 PUSH1 0x3 NOT CALLDATASIZE ADD SLT PUSH2 0x25D JUMPI PUSH1 0x1 PUSH1 0x1 PUSH1 0xA0 SHL SUB PUSH1 0x24 CALLDATALOAD DUP2 DUP2 AND SWAP4 DUP1 CALLDATALOAD SWAP4 SWAP3 DUP7 SWAP2 SWAP1 DUP7 DUP5 SUB PUSH2 0x25D JUMPI PUSH2 0x759 SWAP4 DUP4 DUP8 SWAP4 PUSH2 0x71A DUP5 PUSH1 0x20 SWAP8 SLOAD AND CALLER EQ PUSH2 0x7D9 JUMP JUMPDEST PUSH2 0x725 DUP11 ISZERO ISZERO PUSH2 0x811 JUMP JUMPDEST DUP8 MLOAD PUSH4 0xA9059CBB PUSH1 0xE0 SHL DUP2 MSTORE PUSH1 0x1 PUSH1 0x1 PUSH1 0xA0 SHL SUB SWAP1 SWAP4 AND SWAP1 DUP4 ADD SWAP1 DUP2 MSTORE PUSH1 0x20 DUP2 ADD SWAP5 SWAP1 SWAP5 MSTORE SWAP1 SWAP5 DUP6 SWAP4 DUP5 SWAP3 SWAP2 DUP4 SWAP2 PUSH1 0x40 ADD SWAP1 JUMP JUMPDEST SUB SWAP3 PUSH32 0x0 AND GAS CALL DUP1 ISZERO PUSH2 0x7B9 JUMPI SWAP2 PUSH32 0x7084F5476618D8E60B11EF0D7D3F06914655ADB8793E28FF7F018D4C76D505D5 SWAP4 SWAP2 PUSH1 0x20 SWAP4 PUSH2 0x1DE JUMPI POP MLOAD SWAP1 DUP2 MSTORE LOG2 DUP1 RETURN JUMPDEST DUP3 MLOAD RETURNDATASIZE DUP8 DUP3 RETURNDATACOPY RETURNDATASIZE SWAP1 REVERT JUMPDEST PUSH1 0x4 CALLDATALOAD SWAP1 PUSH1 0x1 PUSH1 0x1 PUSH1 0xA0 SHL SUB DUP3 AND DUP3 SUB PUSH2 0x243 JUMPI JUMP JUMPDEST ISZERO PUSH2 0x7E0 JUMPI JUMP JUMPDEST PUSH1 0x40 MLOAD PUSH3 0x461BCD PUSH1 0xE5 SHL DUP2 MSTORE PUSH1 0x20 PUSH1 0x4 DUP3 ADD MSTORE PUSH1 0x9 PUSH1 0x24 DUP3 ADD MSTORE PUSH9 0x3737BA1037BBB732B9 PUSH1 0xB9 SHL PUSH1 0x44 DUP3 ADD MSTORE PUSH1 0x64 SWAP1 REVERT JUMPDEST ISZERO PUSH2 0x818 JUMPI JUMP JUMPDEST PUSH1 0x40 MLOAD PUSH3 0x461BCD PUSH1 0xE5 SHL DUP2 MSTORE PUSH1 0x20 PUSH1 0x4 DUP3 ADD MSTORE PUSH1 0xC PUSH1 0x24 DUP3 ADD MSTORE PUSH12 0x7A65726F2061646472657373 PUSH1 0xA0 SHL PUSH1 0x44 DUP3 ADD MSTORE PUSH1 0x64 SWAP1 REVERT JUMPDEST SWAP1 PUSH1 0x1F DUP1 NOT SWAP2 ADD AND DUP2 ADD SWAP1 DUP2 LT PUSH8 0xFFFFFFFFFFFFFFFF DUP3 GT OR PUSH2 0x86E JUMPI PUSH1 0x40 MSTORE JUMP JUMPDEST PUSH4 0x4E487B71 PUSH1 0xE0 SHL PUSH1 0x0 MSTORE PUSH1 0x41 PUSH1 0x4 MSTORE PUSH1 0x24 PUSH1 0x0 REVERT JUMPDEST SWAP1 DUP2 PUSH1 0x20 SWAP2 SUB SLT PUSH2 0x243 JUMPI MLOAD DUP1 ISZERO ISZERO DUP2 SUB PUSH2 0x243 JUMPI SWAP1 JUMP INVALID LOG2 PUSH5 0x6970667358 0x22 SLT KECCAK256 SWAP11 TIMESTAMP PUSH3 0x47BCE1 DUP8 0x2C 0xB3 0x4F DUP5 0xCE 0x21 SWAP15 PUSH32 0x6F89DCA04D64AF8A0276E9F21E13595E6964736F6C6343000818003300000000 "},"methodIdentifiers":{"H2O()":"feaa524d","PERMIT2()":"6afdd850","balance()":"b69ef8a8","collected()":"84bcefd4","fee()":"ddca3f43","owner()":"8da5cb5b","payFee(((address,uint256),uint256,uint256),bytes)":"0299e0cb","setFee(uint256)":"69fe0e2d","setOwner(address)":"13af4035","withdraw(uint256,address)":"00f714ce","withdrawAll(address)":"fa09e630"}}}}}