{"contracts/AcuaSwapRouter.sol":{"AcuaSwapRouter":{"abi":[{"inputs":[{"internalType":"address[3]","name":"_feeOwners","type":"address[3]"}],"stateMutability":"nonpayable","type":"constructor"},{"anonymous":false,"inputs":[],"name":"ConfigUpdated","type":"event"},{"anonymous":false,"inputs":[{"indexed":true,"internalType":"address","name":"who","type":"address"},{"indexed":true,"internalType":"address","name":"token","type":"address"},{"indexed":false,"internalType":"uint256","name":"amount","type":"uint256"}],"name":"FeeClaimed","type":"event"},{"anonymous":false,"inputs":[{"indexed":true,"internalType":"address","name":"token","type":"address"},{"indexed":false,"internalType":"uint256","name":"tokenIn","type":"uint256"},{"indexed":false,"internalType":"uint256","name":"h2oOut","type":"uint256"}],"name":"H2OBought","type":"event"},{"anonymous":false,"inputs":[{"indexed":true,"internalType":"address","name":"user","type":"address"},{"indexed":false,"internalType":"address","name":"tokenIn","type":"address"},{"indexed":false,"internalType":"address","name":"tokenOut","type":"address"},{"indexed":false,"internalType":"uint256","name":"amountIn","type":"uint256"},{"indexed":false,"internalType":"uint256","name":"amountOut","type":"uint256"}],"name":"SwappedV2","type":"event"},{"anonymous":false,"inputs":[{"indexed":true,"internalType":"address","name":"user","type":"address"},{"indexed":false,"internalType":"address","name":"tokenIn","type":"address"},{"indexed":false,"internalType":"address","name":"tokenOut","type":"address"},{"indexed":false,"internalType":"uint256","name":"amountIn","type":"uint256"},{"indexed":false,"internalType":"uint256","name":"amountOut","type":"uint256"}],"name":"SwappedV3","type":"event"},{"inputs":[],"name":"H2O","outputs":[{"internalType":"address","name":"","type":"address"}],"stateMutability":"view","type":"function"},{"inputs":[],"name":"MAX_FEE_BPS","outputs":[{"internalType":"uint256","name":"","type":"uint256"}],"stateMutability":"view","type":"function"},{"inputs":[],"name":"PERMIT2","outputs":[{"internalType":"contract IPermit2","name":"","type":"address"}],"stateMutability":"view","type":"function"},{"inputs":[],"name":"ROUTER_V2","outputs":[{"internalType":"contract ISwapRouterV2","name":"","type":"address"}],"stateMutability":"view","type":"function"},{"inputs":[],"name":"ROUTER_V3","outputs":[{"internalType":"contract ISwapRouterV3","name":"","type":"address"}],"stateMutability":"view","type":"function"},{"inputs":[],"name":"USDC","outputs":[{"internalType":"address","name":"","type":"address"}],"stateMutability":"view","type":"function"},{"inputs":[],"name":"WLD","outputs":[{"internalType":"address","name":"","type":"address"}],"stateMutability":"view","type":"function"},{"inputs":[{"internalType":"address","name":"token","type":"address"}],"name":"claimFees","outputs":[],"stateMutability":"nonpayable","type":"function"},{"inputs":[{"internalType":"address[]","name":"tokens","type":"address[]"}],"name":"claimFeesBatch","outputs":[],"stateMutability":"nonpayable","type":"function"},{"inputs":[{"internalType":"address","name":"token","type":"address"},{"internalType":"uint256","name":"amount","type":"uint256"}],"name":"emergencyWithdraw","outputs":[],"stateMutability":"nonpayable","type":"function"},{"inputs":[{"internalType":"uint256","name":"","type":"uint256"}],"name":"feeOwners","outputs":[{"internalType":"address","name":"","type":"address"}],"stateMutability":"view","type":"function"},{"inputs":[],"name":"h2oFeeBps","outputs":[{"internalType":"uint256","name":"","type":"uint256"}],"stateMutability":"view","type":"function"},{"inputs":[{"internalType":"address","name":"","type":"address"}],"name":"h2oFeePool","outputs":[{"internalType":"uint256","name":"","type":"uint256"}],"stateMutability":"view","type":"function"},{"inputs":[],"name":"owner","outputs":[{"internalType":"address","name":"","type":"address"}],"stateMutability":"view","type":"function"},{"inputs":[{"internalType":"address","name":"","type":"address"},{"internalType":"address","name":"","type":"address"}],"name":"ownerFees","outputs":[{"internalType":"uint256","name":"","type":"uint256"}],"stateMutability":"view","type":"function"},{"inputs":[{"internalType":"address[3]","name":"_owners","type":"address[3]"}],"name":"setFeeOwners","outputs":[],"stateMutability":"nonpayable","type":"function"},{"inputs":[{"internalType":"uint256","name":"_swapFeeBps","type":"uint256"},{"internalType":"uint256","name":"_h2oFeeBps","type":"uint256"}],"name":"setFees","outputs":[],"stateMutability":"nonpayable","type":"function"},{"inputs":[{"internalType":"address","name":"newOwner","type":"address"}],"name":"setOwner","outputs":[],"stateMutability":"nonpayable","type":"function"},{"inputs":[{"internalType":"address","name":"_vr","type":"address"}],"name":"setVolumeRewards","outputs":[],"stateMutability":"nonpayable","type":"function"},{"inputs":[],"name":"swapFeeBps","outputs":[{"internalType":"uint256","name":"","type":"uint256"}],"stateMutability":"view","type":"function"},{"inputs":[{"internalType":"address","name":"token","type":"address"},{"internalType":"bytes","name":"h2oPath","type":"bytes"},{"internalType":"uint256","name":"minH2OOut","type":"uint256"}],"name":"swapFeesToH2OV3","outputs":[],"stateMutability":"nonpayable","type":"function"},{"inputs":[{"internalType":"address","name":"tokenIn","type":"address"},{"internalType":"address","name":"tokenOut","type":"address"},{"internalType":"uint256","name":"amountIn","type":"uint256"},{"internalType":"uint256","name":"amountOutMin","type":"uint256"},{"internalType":"address[]","name":"v2Path","type":"address[]"},{"internalType":"uint256","name":"usdcEquivalent","type":"uint256"}],"name":"swapV2","outputs":[{"internalType":"uint256","name":"amountOut","type":"uint256"}],"stateMutability":"nonpayable","type":"function"},{"inputs":[{"internalType":"address","name":"tokenIn","type":"address"},{"internalType":"address","name":"tokenOut","type":"address"},{"internalType":"uint256","name":"amountIn","type":"uint256"},{"internalType":"uint256","name":"amountOutMin","type":"uint256"},{"internalType":"bytes","name":"v3Path","type":"bytes"},{"internalType":"uint256","name":"usdcEquivalent","type":"uint256"}],"name":"swapV3","outputs":[{"internalType":"uint256","name":"amountOut","type":"uint256"}],"stateMutability":"nonpayable","type":"function"},{"inputs":[],"name":"volumeRewards","outputs":[{"internalType":"address","name":"","type":"address"}],"stateMutability":"view","type":"function"}],"evm":{"bytecode":{"linkReferences":{},"object":"608034620000f9576001600160401b0390620019053881900390601f8201601f191683019084821184831017620000fe57829160405283398101606082820312620000f95780601f83011215620000f957604051926060840190811184821017620000fe57604052829160608101918211620000f957915b818310620000d75760c8600455600a600555600080546001600160a01b0319163317815584905b60038110620000b7576040516117f09081620001158239f35b81516001600160a01b03166001919091019081556020909101906200009e565b82516001600160a01b0381168103620000f95781526020928301920162000077565b600080fd5b634e487b7160e01b600052604160045260246000fdfe608080604052600436101561001357600080fd5b600090813560e01c9081630b41a6db14610fb3575080630b56ef0914610d295780630b78f9c014610c8957806313af403514610c0d57806315a0ea6a14610aef57806321be334514610a9057806324b4fd7914610a1d5780632ffdaf89146109ff578063501015bf1461098257806350d5e40e146109645780636afdd8501461093a578063705bd4521461091157806371e042c2146108e257806382f3ae791461077f5780638543f9ca1461074857806389a30271146107195780638da5cb5b146106f25780639224c4ed146102e757806395ccea671461022e578063d55be8c614610211578063de061d66146101e2578063f1b2a7e7146101a9578063fc8a2b0a1461015a5763feaa524d1461012957600080fd5b3461015757806003193601126101575760206040517317392e5483983945deb92e0518a8f2c4eb6ba59d8152f35b80fd5b503461015757604036600319011261015757610174610fe1565b604061017e610ff7565b9260018060a01b03809316815260076020522091166000526020526020604060002054604051908152f35b5034610157576020366003190112610157576020906040906001600160a01b036101d1610fe1565b168152600883522054604051908152f35b50346101575780600319360112610157576020604051732cfc85d8e48f8eab294be644d9e25c30308630038152f35b503461015757806003193601126101575760206040516103e88152f35b503461015757604036600319011261015757610248610fe1565b81546001600160a01b039160209161029d91908416610268338214611224565b60405163a9059cbb60e01b81526001600160a01b03909116600482015260248035908201529384928391879183906044820190565b0393165af180156102dc576102b0575080f35b6102d19060203d6020116102d5575b6102c9818361112a565b81019061114c565b5080f35b503d6102bf565b6040513d84823e3d90fd5b50346101575760c036600319011261015757610301610fe1565b610309610ff7565b60843567ffffffffffffffff81116106ee5761032990369060040161103b565b9390610338604435151561106c565b61034d6001600160a01b0360443511156110a6565b600285106106be576e22d473030f116ddee9f6b43ac78ba3803b156106ba57604051631b63c28b60e11b81523360048201523060248201526001600160a01b03604480358216908301528616606482015290839082908183816084810103925af180156106af57908391610697575b50506103ca6044358561155b565b60405163095ea7b360e01b8152737a250d5630b4cf539739df2c5dacb4c659f2488d600482015260248101829052909590602081604481876001600160a01b038b165af1801561068c5761066d575b5061070842014211610659576040516338ed173960e01b81526004810196909652606435602487015260a0604487015260a486018190528290869060c482019083905b8082106106215750508192935033606483015261070842016084830152038183737a250d5630b4cf539739df2c5dacb4c659f2488d5af1938415610614578194610556575b50835160001981019190821161054257845182101561052e5750602080947fb6f8afd58b9858281e3bc6894836e7eac569bf3b4b334d771e19c2c1cfccb4569260051b01015180936104f560a43533611747565b604080516001600160a01b039283168152949091166020850152604435908401526060830152339180608081015b0390a2604051908152f35b634e487b7160e01b81526032600452602490fd5b634e487b7160e01b81526011600452602490fd5b9093503d8085833e610568818361112a565b81019060208183031261060c5780519067ffffffffffffffff821161061057019080601f8301121561060c5781519167ffffffffffffffff83116105f8578260051b90604051936105bc602084018661112a565b84526020808501928201019283116105f457602001905b8282106105e45750505092386104a1565b81518152602091820191016105d3565b8680fd5b634e487b7160e01b86526041600452602486fd5b8480fd5b8580fd5b50604051903d90823e3d90fd5b909350915083356001600160a01b038116919082900361065457602081600193829352019401920192849293889261045c565b600080fd5b634e487b7160e01b83526011600452602483fd5b6106859060203d6020116102d5576102c9818361112a565b5038610419565b6040513d86823e3d90fd5b6106a0906110e4565b6106ab5781386103bc565b5080fd5b6040513d85823e3d90fd5b8280fd5b60405162461bcd60e51b8152602060048201526008602482015267084c2c840e0c2e8d60c31b6044820152606490fd5b8380fd5b5034610157578060031936011261015757546040516001600160a01b039091168152602090f35b503461015757806003193601126101575760206040517379a02482a880bce3f13e09da970dc34db4cd24d18152f35b50346101575760203660031901126101575760043560038110156106ab57600101546040516001600160a01b039091168152602090f35b5034610157576020806003193601126106ab5760043567ffffffffffffffff81116106ba576107b290369060040161103b565b9190835b8381106107c1578480f35b3385526007808452604086206001600160a01b03929190836107ec6107e7858a89611528565b611514565b1660005285526040600020549081156108d757338852855260408720836108176107e7858a89611528565b16600052855286604060002055826108336107e7848988611528565b60405163a9059cbb60e01b81523360048201526024810184905294918791869160449183918d91165af19384156108cc576001946108af575b5061087b6107e7848988611528565b16906040519081527f4a34429a0ef883c4301d5b40aa8ae85d4eb024946062f2c7ebd8320acedc831a863392a35b016107b6565b6108c590873d89116102d5576102c9818361112a565b503861086c565b6040513d8a823e3d90fd5b5050600191506108a9565b503461015757806003193601126101575760206040517368b3465833fb72a70ecdf485e0e4c7bd8665fc458152f35b50346101575780600319360112610157576006546040516001600160a01b039091168152602090f35b503461015757806003193601126101575760206040516e22d473030f116ddee9f6b43ac78ba38152f35b50346101575780600319360112610157576020600554604051908152f35b50346101575760603660031901126101575736606411610157576109b060018060a01b038254163314611224565b6004815b600381106109e457827ffe891c6ab12cf73707f8deb6600c12ba382e4cc31eb2b0a2754cad13075ed2d18180a180f35b60019060206109f284611514565b93019281830155016109b4565b50346101575780600319360112610157576020600454604051908152f35b503461015757602036600319011261015757610a37610fe1565b81546001600160a01b039190610a509083163314611224565b166bffffffffffffffffffffffff60a01b60065416176006557ffe891c6ab12cf73707f8deb6600c12ba382e4cc31eb2b0a2754cad13075ed2d18180a180f35b503461015757606036600319011261015757610aaa610fe1565b6024359067ffffffffffffffff82116106ba57610ace610aec92369060040161100d565b90610ae360018060a01b038654163314611224565b6044359261127f565b80f35b5034610157576020806003193601126106ab57610b0a610fe1565b3383526007825260408084206001600160a01b03909216600081815292845291205490918115610bd6573380855260078252604080862060008681529084528190208690555163a9059cbb60e01b815260048101919091526024810183905290808260448188885af1918215610bcb577f4a34429a0ef883c4301d5b40aa8ae85d4eb024946062f2c7ebd8320acedc831a92610bae575b506040519283523392a380f35b610bc490823d84116102d5576102c9818361112a565b5038610ba1565b6040513d87823e3d90fd5b6064906040519062461bcd60e51b82526004820152601060248201526f4e6f7468696e6720746f20636c61696d60801b6044820152fd5b503461015757602036600319011261015757610c27610fe1565b8154906001600160a01b0390610c403383851614611224565b16908115610c58576001600160a01b03191617815580f35b60405162461bcd60e51b81526020600482015260096024820152682d32b9379030b2323960b91b6044820152606490fd5b50346101575760403660031901126101575760043560243590610cb660018060a01b038454163314611224565b6103e8610cc3838361125c565b11610cf5576004556005557ffe891c6ab12cf73707f8deb6600c12ba382e4cc31eb2b0a2754cad13075ed2d18180a180f35b60405162461bcd60e51b815260206004820152600c60248201526b08ccaca40e8dede40d0d2ced60a31b6044820152606490fd5b50346101575760c036600319011261015757610d43610fe1565b90610d4c610ff7565b9160443560843567ffffffffffffffff81116106ee57610d7090369060040161100d565b610d7e83969296151561106c565b6001600160a01b0390610d93828511156110a6565b6e22d473030f116ddee9f6b43ac78ba396873b156105f457604051631b63c28b60e11b81523360048201523060248201526001600160a01b0386851681166044830152871660648201529787908990608490829084905af18015610fa857610f94575b869750610e03858761155b565b9060405163095ea7b360e01b81527368b3465833fb72a70ecdf485e0e4c7bd8665fc45948560048301528360248301528160448160209d8e948d165af18015610f895792610e6e8a96938c9693610e9e96610f6c575b5060405193610e678561110e565b3691611164565b825233858301526040820152606435606082015260405194858094819363b858183f60e01b8352600483016111ab565b03925af1948515610f605794610f0f575b50907f918e92f54688c51950885ac1066129bb8ecc6bff902c9746495c1074fcfbf87f91610edf60a43533611747565b604080516001600160a01b0395861681529490911660208501528301526060820183905233918060808101610523565b919093508482813d8311610f59575b610f28818361112a565b81010312610654579051927f918e92f54688c51950885ac1066129bb8ecc6bff902c9746495c1074fcfbf87f610eaf565b503d610f1e565b604051903d90823e3d90fd5b610f8290883d8a116102d5576102c9818361112a565b5038610e59565b6040513d8b823e3d90fd5b959096610fa0906110e4565b948690610df6565b6040513d89823e3d90fd5b9050346106ab57816003193601126106ab5780737a250d5630b4cf539739df2c5dacb4c659f2488d60209252f35b600435906001600160a01b038216820361065457565b602435906001600160a01b038216820361065457565b9181601f840112156106545782359167ffffffffffffffff8311610654576020838186019501011161065457565b9181601f840112156106545782359167ffffffffffffffff8311610654576020808501948460051b01011161065457565b1561107357565b60405162461bcd60e51b815260206004820152600b60248201526a16995c9bc8185b5bdd5b9d60aa1b6044820152606490fd5b156110ad57565b60405162461bcd60e51b815260206004820152600f60248201526e416d6f756e74206f766572666c6f7760881b6044820152606490fd5b67ffffffffffffffff81116110f857604052565b634e487b7160e01b600052604160045260246000fd5b6080810190811067ffffffffffffffff8211176110f857604052565b90601f8019910116810190811067ffffffffffffffff8211176110f857604052565b90816020910312610654575180151581036106545790565b92919267ffffffffffffffff82116110f8576040519161118e601f8201601f19166020018461112a565b829481845281830111610654578281602093846000960137010152565b9190916020808252835193608060208401528451918260a085015260005b83811061121057505060c0939450606090600085848601015260018060a01b03602082015116604085015260408101518285015201516080830152601f8019910116010190565b86810182015185820160c0015281016111c9565b1561122b57565b60405162461bcd60e51b81526020600482015260096024820152682737ba1037bbb732b960b91b6044820152606490fd5b9190820180921161126957565b634e487b7160e01b600052601160045260246000fd5b939290919360018060a01b038091169260009584875260209060088252604094858920549384156114c75790899392918885526008845284888120557317392e5483983945deb92e0518a8f2c4eb6ba59d808a146114345750875163095ea7b360e01b81527368b3465833fb72a70ecdf485e0e4c7bd8665fc4560048201819052602482018890529697959694959086816044818b8f5af1801561142a578796949261136c9694926113419261140d575b50895416918b5194610e678661110e565b83528583015287898301526060820152875195868094819363b858183f60e01b8352600483016111ab565b03925af19182156114035787926113af575b507f626502ef77967d5c4531abad2a6f2a43b30f257e30cc352362d0eb2c61932a48949596508351928352820152a2565b9080925081813d83116113fc575b6113c7818361112a565b810103126105f457519495508594907f626502ef77967d5c4531abad2a6f2a43b30f257e30cc352362d0eb2c61932a4861137e565b503d6113bd565b84513d89823e3d90fd5b61142390893d8b116102d5576102c9818361112a565b5038611330565b8a513d8a823e3d90fd5b9454885163a9059cbb60e01b815297166001600160a01b0316600488015250505060248401839052929083908290818a816044810103925af18015611403577f626502ef77967d5c4531abad2a6f2a43b30f257e30cc352362d0eb2c61932a48959697506114aa575b50825191818352820152a2565b6114c090833d85116102d5576102c9818361112a565b503861149d565b865162461bcd60e51b8152600481018590526013602482015272139bc81999595cc81858d8dd5b5d5b185d1959606a1b6044820152606490fd5b8181029291811591840414171561126957565b356001600160a01b03811681036106545790565b91908110156115385760051b0190565b634e487b7160e01b600052603260045260246000fd5b9190820391821161126957565b91906127106004918161157060045483611501565b049161157e60055483611501565b0492826115cd575b509061159d916115a29495846115a5575b5061154e565b61154e565b90565b60018060a01b0316600052600860205260406000206115c585825461125c565b905538611597565b600090815b600381106117015750508015806116bc576116a6576115fd6115f78285049283611501565b8461154e565b9060005b60038110611655575050906115a2949561159d939260018060a01b03806001541660005260076020526040600020908316600052602052611648604060002091825461125c565b90555b9594509091611586565b6001818101549091906001600160a01b0390811680611677575b505001611601565b6000526020906007825260409182600020918c166000525260002061169d84825461125c565b9055388061166f565b634e487b7160e01b600052601260045260246000fd5b50509061159d916115a2949560018060a01b0380600054166000526007602052604060002090821660005260205260406000206116fa84825461125c565b905561164b565b6001818101546001600160a01b031661171e575b506001016115d2565b909260001981146117325701916001611715565b601183634e487b7160e01b6000525260246000fd5b6006546001600160a01b031691821515806117b1575b61176657505050565b823b1561065457604051630968013560e01b81526001600160a01b039290921660048301526024820152906000908290604490829084905af16117a65750565b6117af906110e4565b565b5080151561175d56fea26469706673582212202e802a6c9e9e385843ef072a66672e266c2430184c3d84ae98f9e08ec8dc027c64736f6c63430008180033","opcodes":"PUSH1 0x80 CALLVALUE PUSH3 0xF9 JUMPI PUSH1 0x1 PUSH1 0x1 PUSH1 0x40 SHL SUB SWAP1 PUSH3 0x1905 CODESIZE DUP2 SWAP1 SUB SWAP1 PUSH1 0x1F DUP3 ADD PUSH1 0x1F NOT AND DUP4 ADD SWAP1 DUP5 DUP3 GT DUP5 DUP4 LT OR PUSH3 0xFE JUMPI DUP3 SWAP2 PUSH1 0x40 MSTORE DUP4 CODECOPY DUP2 ADD PUSH1 0x60 DUP3 DUP3 SUB SLT PUSH3 0xF9 JUMPI DUP1 PUSH1 0x1F DUP4 ADD SLT ISZERO PUSH3 0xF9 JUMPI PUSH1 0x40 MLOAD SWAP3 PUSH1 0x60 DUP5 ADD SWAP1 DUP2 GT DUP5 DUP3 LT OR PUSH3 0xFE JUMPI PUSH1 0x40 MSTORE DUP3 SWAP2 PUSH1 0x60 DUP2 ADD SWAP2 DUP3 GT PUSH3 0xF9 JUMPI SWAP2 JUMPDEST DUP2 DUP4 LT PUSH3 0xD7 JUMPI PUSH1 0xC8 PUSH1 0x4 SSTORE PUSH1 0xA PUSH1 0x5 SSTORE PUSH1 0x0 DUP1 SLOAD PUSH1 0x1 PUSH1 0x1 PUSH1 0xA0 SHL SUB NOT AND CALLER OR DUP2 SSTORE DUP5 SWAP1 JUMPDEST PUSH1 0x3 DUP2 LT PUSH3 0xB7 JUMPI PUSH1 0x40 MLOAD PUSH2 0x17F0 SWAP1 DUP2 PUSH3 0x115 DUP3 CODECOPY RETURN JUMPDEST DUP2 MLOAD PUSH1 0x1 PUSH1 0x1 PUSH1 0xA0 SHL SUB AND PUSH1 0x1 SWAP2 SWAP1 SWAP2 ADD SWAP1 DUP2 SSTORE PUSH1 0x20 SWAP1 SWAP2 ADD SWAP1 PUSH3 0x9E JUMP JUMPDEST DUP3 MLOAD PUSH1 0x1 PUSH1 0x1 PUSH1 0xA0 SHL SUB DUP2 AND DUP2 SUB PUSH3 0xF9 JUMPI DUP2 MSTORE PUSH1 0x20 SWAP3 DUP4 ADD SWAP3 ADD PUSH3 0x77 JUMP JUMPDEST PUSH1 0x0 DUP1 REVERT JUMPDEST PUSH4 0x4E487B71 PUSH1 0xE0 SHL PUSH1 0x0 MSTORE PUSH1 0x41 PUSH1 0x4 MSTORE PUSH1 0x24 PUSH1 0x0 REVERT INVALID PUSH1 0x80 DUP1 PUSH1 0x40 MSTORE PUSH1 0x4 CALLDATASIZE LT ISZERO PUSH2 0x13 JUMPI PUSH1 0x0 DUP1 REVERT JUMPDEST PUSH1 0x0 SWAP1 DUP2 CALLDATALOAD PUSH1 0xE0 SHR SWAP1 DUP2 PUSH4 0xB41A6DB EQ PUSH2 0xFB3 JUMPI POP DUP1 PUSH4 0xB56EF09 EQ PUSH2 0xD29 JUMPI DUP1 PUSH4 0xB78F9C0 EQ PUSH2 0xC89 JUMPI DUP1 PUSH4 0x13AF4035 EQ PUSH2 0xC0D JUMPI DUP1 PUSH4 0x15A0EA6A EQ PUSH2 0xAEF JUMPI DUP1 PUSH4 0x21BE3345 EQ PUSH2 0xA90 JUMPI DUP1 PUSH4 0x24B4FD79 EQ PUSH2 0xA1D JUMPI DUP1 PUSH4 0x2FFDAF89 EQ PUSH2 0x9FF JUMPI DUP1 PUSH4 0x501015BF EQ PUSH2 0x982 JUMPI DUP1 PUSH4 0x50D5E40E EQ PUSH2 0x964 JUMPI DUP1 PUSH4 0x6AFDD850 EQ PUSH2 0x93A JUMPI DUP1 PUSH4 0x705BD452 EQ PUSH2 0x911 JUMPI DUP1 PUSH4 0x71E042C2 EQ PUSH2 0x8E2 JUMPI DUP1 PUSH4 0x82F3AE79 EQ PUSH2 0x77F JUMPI DUP1 PUSH4 0x8543F9CA EQ PUSH2 0x748 JUMPI DUP1 PUSH4 0x89A30271 EQ PUSH2 0x719 JUMPI DUP1 PUSH4 0x8DA5CB5B EQ PUSH2 0x6F2 JUMPI DUP1 PUSH4 0x9224C4ED EQ PUSH2 0x2E7 JUMPI DUP1 PUSH4 0x95CCEA67 EQ PUSH2 0x22E JUMPI DUP1 PUSH4 0xD55BE8C6 EQ PUSH2 0x211 JUMPI DUP1 PUSH4 0xDE061D66 EQ PUSH2 0x1E2 JUMPI DUP1 PUSH4 0xF1B2A7E7 EQ PUSH2 0x1A9 JUMPI DUP1 PUSH4 0xFC8A2B0A EQ PUSH2 0x15A JUMPI PUSH4 0xFEAA524D EQ PUSH2 0x129 JUMPI PUSH1 0x0 DUP1 REVERT JUMPDEST CALLVALUE PUSH2 0x157 JUMPI DUP1 PUSH1 0x3 NOT CALLDATASIZE ADD SLT PUSH2 0x157 JUMPI PUSH1 0x20 PUSH1 0x40 MLOAD PUSH20 0x17392E5483983945DEB92E0518A8F2C4EB6BA59D DUP2 MSTORE RETURN JUMPDEST DUP1 REVERT JUMPDEST POP CALLVALUE PUSH2 0x157 JUMPI PUSH1 0x40 CALLDATASIZE PUSH1 0x3 NOT ADD SLT PUSH2 0x157 JUMPI PUSH2 0x174 PUSH2 0xFE1 JUMP JUMPDEST PUSH1 0x40 PUSH2 0x17E PUSH2 0xFF7 JUMP JUMPDEST SWAP3 PUSH1 0x1 DUP1 PUSH1 0xA0 SHL SUB DUP1 SWAP4 AND DUP2 MSTORE PUSH1 0x7 PUSH1 0x20 MSTORE KECCAK256 SWAP2 AND PUSH1 0x0 MSTORE PUSH1 0x20 MSTORE PUSH1 0x20 PUSH1 0x40 PUSH1 0x0 KECCAK256 SLOAD PUSH1 0x40 MLOAD SWAP1 DUP2 MSTORE RETURN JUMPDEST POP CALLVALUE PUSH2 0x157 JUMPI PUSH1 0x20 CALLDATASIZE PUSH1 0x3 NOT ADD SLT PUSH2 0x157 JUMPI PUSH1 0x20 SWAP1 PUSH1 0x40 SWAP1 PUSH1 0x1 PUSH1 0x1 PUSH1 0xA0 SHL SUB PUSH2 0x1D1 PUSH2 0xFE1 JUMP JUMPDEST AND DUP2 MSTORE PUSH1 0x8 DUP4 MSTORE KECCAK256 SLOAD PUSH1 0x40 MLOAD SWAP1 DUP2 MSTORE RETURN JUMPDEST POP CALLVALUE PUSH2 0x157 JUMPI DUP1 PUSH1 0x3 NOT CALLDATASIZE ADD SLT PUSH2 0x157 JUMPI PUSH1 0x20 PUSH1 0x40 MLOAD PUSH20 0x2CFC85D8E48F8EAB294BE644D9E25C3030863003 DUP2 MSTORE RETURN JUMPDEST POP CALLVALUE PUSH2 0x157 JUMPI DUP1 PUSH1 0x3 NOT CALLDATASIZE ADD SLT PUSH2 0x157 JUMPI PUSH1 0x20 PUSH1 0x40 MLOAD PUSH2 0x3E8 DUP2 MSTORE RETURN JUMPDEST POP CALLVALUE PUSH2 0x157 JUMPI PUSH1 0x40 CALLDATASIZE PUSH1 0x3 NOT ADD SLT PUSH2 0x157 JUMPI PUSH2 0x248 PUSH2 0xFE1 JUMP JUMPDEST DUP2 SLOAD PUSH1 0x1 PUSH1 0x1 PUSH1 0xA0 SHL SUB SWAP2 PUSH1 0x20 SWAP2 PUSH2 0x29D SWAP2 SWAP1 DUP5 AND PUSH2 0x268 CALLER DUP3 EQ PUSH2 0x1224 JUMP JUMPDEST PUSH1 0x40 MLOAD PUSH4 0xA9059CBB PUSH1 0xE0 SHL DUP2 MSTORE PUSH1 0x1 PUSH1 0x1 PUSH1 0xA0 SHL SUB SWAP1 SWAP2 AND PUSH1 0x4 DUP3 ADD MSTORE PUSH1 0x24 DUP1 CALLDATALOAD SWAP1 DUP3 ADD MSTORE SWAP4 DUP5 SWAP3 DUP4 SWAP2 DUP8 SWAP2 DUP4 SWAP1 PUSH1 0x44 DUP3 ADD SWAP1 JUMP JUMPDEST SUB SWAP4 AND GAS CALL DUP1 ISZERO PUSH2 0x2DC JUMPI PUSH2 0x2B0 JUMPI POP DUP1 RETURN JUMPDEST PUSH2 0x2D1 SWAP1 PUSH1 0x20 RETURNDATASIZE PUSH1 0x20 GT PUSH2 0x2D5 JUMPI JUMPDEST PUSH2 0x2C9 DUP2 DUP4 PUSH2 0x112A JUMP JUMPDEST DUP2 ADD SWAP1 PUSH2 0x114C JUMP JUMPDEST POP DUP1 RETURN JUMPDEST POP RETURNDATASIZE PUSH2 0x2BF JUMP JUMPDEST PUSH1 0x40 MLOAD RETURNDATASIZE DUP5 DUP3 RETURNDATACOPY RETURNDATASIZE SWAP1 REVERT JUMPDEST POP CALLVALUE PUSH2 0x157 JUMPI PUSH1 0xC0 CALLDATASIZE PUSH1 0x3 NOT ADD SLT PUSH2 0x157 JUMPI PUSH2 0x301 PUSH2 0xFE1 JUMP JUMPDEST PUSH2 0x309 PUSH2 0xFF7 JUMP JUMPDEST PUSH1 0x84 CALLDATALOAD PUSH8 0xFFFFFFFFFFFFFFFF DUP2 GT PUSH2 0x6EE JUMPI PUSH2 0x329 SWAP1 CALLDATASIZE SWAP1 PUSH1 0x4 ADD PUSH2 0x103B JUMP JUMPDEST SWAP4 SWAP1 PUSH2 0x338 PUSH1 0x44 CALLDATALOAD ISZERO ISZERO PUSH2 0x106C JUMP JUMPDEST PUSH2 0x34D PUSH1 0x1 PUSH1 0x1 PUSH1 0xA0 SHL SUB PUSH1 0x44 CALLDATALOAD GT ISZERO PUSH2 0x10A6 JUMP JUMPDEST PUSH1 0x2 DUP6 LT PUSH2 0x6BE JUMPI PUSH15 0x22D473030F116DDEE9F6B43AC78BA3 DUP1 EXTCODESIZE ISZERO PUSH2 0x6BA JUMPI PUSH1 0x40 MLOAD PUSH4 0x1B63C28B PUSH1 0xE1 SHL DUP2 MSTORE CALLER PUSH1 0x4 DUP3 ADD MSTORE ADDRESS PUSH1 0x24 DUP3 ADD MSTORE PUSH1 0x1 PUSH1 0x1 PUSH1 0xA0 SHL SUB PUSH1 0x44 DUP1 CALLDATALOAD DUP3 AND SWAP1 DUP4 ADD MSTORE DUP7 AND PUSH1 0x64 DUP3 ADD MSTORE SWAP1 DUP4 SWAP1 DUP3 SWAP1 DUP2 DUP4 DUP2 PUSH1 0x84 DUP2 ADD SUB SWAP3 GAS CALL DUP1 ISZERO PUSH2 0x6AF JUMPI SWAP1 DUP4 SWAP2 PUSH2 0x697 JUMPI JUMPDEST POP POP PUSH2 0x3CA PUSH1 0x44 CALLDATALOAD DUP6 PUSH2 0x155B JUMP JUMPDEST PUSH1 0x40 MLOAD PUSH4 0x95EA7B3 PUSH1 0xE0 SHL DUP2 MSTORE PUSH20 0x7A250D5630B4CF539739DF2C5DACB4C659F2488D PUSH1 0x4 DUP3 ADD MSTORE PUSH1 0x24 DUP2 ADD DUP3 SWAP1 MSTORE SWAP1 SWAP6 SWAP1 PUSH1 0x20 DUP2 PUSH1 0x44 DUP2 DUP8 PUSH1 0x1 PUSH1 0x1 PUSH1 0xA0 SHL SUB DUP12 AND GAS CALL DUP1 ISZERO PUSH2 0x68C JUMPI PUSH2 0x66D JUMPI JUMPDEST POP PUSH2 0x708 TIMESTAMP ADD TIMESTAMP GT PUSH2 0x659 JUMPI PUSH1 0x40 MLOAD PUSH4 0x38ED1739 PUSH1 0xE0 SHL DUP2 MSTORE PUSH1 0x4 DUP2 ADD SWAP7 SWAP1 SWAP7 MSTORE PUSH1 0x64 CALLDATALOAD PUSH1 0x24 DUP8 ADD MSTORE PUSH1 0xA0 PUSH1 0x44 DUP8 ADD MSTORE PUSH1 0xA4 DUP7 ADD DUP2 SWAP1 MSTORE DUP3 SWAP1 DUP7 SWAP1 PUSH1 0xC4 DUP3 ADD SWAP1 DUP4 SWAP1 JUMPDEST DUP1 DUP3 LT PUSH2 0x621 JUMPI POP POP DUP2 SWAP3 SWAP4 POP CALLER PUSH1 0x64 DUP4 ADD MSTORE PUSH2 0x708 TIMESTAMP ADD PUSH1 0x84 DUP4 ADD MSTORE SUB DUP2 DUP4 PUSH20 0x7A250D5630B4CF539739DF2C5DACB4C659F2488D GAS CALL SWAP4 DUP5 ISZERO PUSH2 0x614 JUMPI DUP2 SWAP5 PUSH2 0x556 JUMPI JUMPDEST POP DUP4 MLOAD PUSH1 0x0 NOT DUP2 ADD SWAP2 SWAP1 DUP3 GT PUSH2 0x542 JUMPI DUP5 MLOAD DUP3 LT ISZERO PUSH2 0x52E JUMPI POP PUSH1 0x20 DUP1 SWAP5 PUSH32 0xB6F8AFD58B9858281E3BC6894836E7EAC569BF3B4B334D771E19C2C1CFCCB456 SWAP3 PUSH1 0x5 SHL ADD ADD MLOAD DUP1 SWAP4 PUSH2 0x4F5 PUSH1 0xA4 CALLDATALOAD CALLER PUSH2 0x1747 JUMP JUMPDEST PUSH1 0x40 DUP1 MLOAD PUSH1 0x1 PUSH1 0x1 PUSH1 0xA0 SHL SUB SWAP3 DUP4 AND DUP2 MSTORE SWAP5 SWAP1 SWAP2 AND PUSH1 0x20 DUP6 ADD MSTORE PUSH1 0x44 CALLDATALOAD SWAP1 DUP5 ADD MSTORE PUSH1 0x60 DUP4 ADD MSTORE CALLER SWAP2 DUP1 PUSH1 0x80 DUP2 ADD JUMPDEST SUB SWAP1 LOG2 PUSH1 0x40 MLOAD SWAP1 DUP2 MSTORE RETURN JUMPDEST PUSH4 0x4E487B71 PUSH1 0xE0 SHL DUP2 MSTORE PUSH1 0x32 PUSH1 0x4 MSTORE PUSH1 0x24 SWAP1 REVERT JUMPDEST PUSH4 0x4E487B71 PUSH1 0xE0 SHL DUP2 MSTORE PUSH1 0x11 PUSH1 0x4 MSTORE PUSH1 0x24 SWAP1 REVERT JUMPDEST SWAP1 SWAP4 POP RETURNDATASIZE DUP1 DUP6 DUP4 RETURNDATACOPY PUSH2 0x568 DUP2 DUP4 PUSH2 0x112A JUMP JUMPDEST DUP2 ADD SWAP1 PUSH1 0x20 DUP2 DUP4 SUB SLT PUSH2 0x60C JUMPI DUP1 MLOAD SWAP1 PUSH8 0xFFFFFFFFFFFFFFFF DUP3 GT PUSH2 0x610 JUMPI ADD SWAP1 DUP1 PUSH1 0x1F DUP4 ADD SLT ISZERO PUSH2 0x60C JUMPI DUP2 MLOAD SWAP2 PUSH8 0xFFFFFFFFFFFFFFFF DUP4 GT PUSH2 0x5F8 JUMPI DUP3 PUSH1 0x5 SHL SWAP1 PUSH1 0x40 MLOAD SWAP4 PUSH2 0x5BC PUSH1 0x20 DUP5 ADD DUP7 PUSH2 0x112A JUMP JUMPDEST DUP5 MSTORE PUSH1 0x20 DUP1 DUP6 ADD SWAP3 DUP3 ADD ADD SWAP3 DUP4 GT PUSH2 0x5F4 JUMPI PUSH1 0x20 ADD SWAP1 JUMPDEST DUP3 DUP3 LT PUSH2 0x5E4 JUMPI POP POP POP SWAP3 CODESIZE PUSH2 0x4A1 JUMP JUMPDEST DUP2 MLOAD DUP2 MSTORE PUSH1 0x20 SWAP2 DUP3 ADD SWAP2 ADD PUSH2 0x5D3 JUMP JUMPDEST DUP7 DUP1 REVERT JUMPDEST PUSH4 0x4E487B71 PUSH1 0xE0 SHL DUP7 MSTORE PUSH1 0x41 PUSH1 0x4 MSTORE PUSH1 0x24 DUP7 REVERT JUMPDEST DUP5 DUP1 REVERT JUMPDEST DUP6 DUP1 REVERT JUMPDEST POP PUSH1 0x40 MLOAD SWAP1 RETURNDATASIZE SWAP1 DUP3 RETURNDATACOPY RETURNDATASIZE SWAP1 REVERT JUMPDEST SWAP1 SWAP4 POP SWAP2 POP DUP4 CALLDATALOAD PUSH1 0x1 PUSH1 0x1 PUSH1 0xA0 SHL SUB DUP2 AND SWAP2 SWAP1 DUP3 SWAP1 SUB PUSH2 0x654 JUMPI PUSH1 0x20 DUP2 PUSH1 0x1 SWAP4 DUP3 SWAP4 MSTORE ADD SWAP5 ADD SWAP3 ADD SWAP3 DUP5 SWAP3 SWAP4 DUP9 SWAP3 PUSH2 0x45C JUMP JUMPDEST PUSH1 0x0 DUP1 REVERT JUMPDEST PUSH4 0x4E487B71 PUSH1 0xE0 SHL DUP4 MSTORE PUSH1 0x11 PUSH1 0x4 MSTORE PUSH1 0x24 DUP4 REVERT JUMPDEST PUSH2 0x685 SWAP1 PUSH1 0x20 RETURNDATASIZE PUSH1 0x20 GT PUSH2 0x2D5 JUMPI PUSH2 0x2C9 DUP2 DUP4 PUSH2 0x112A JUMP JUMPDEST POP CODESIZE PUSH2 0x419 JUMP JUMPDEST PUSH1 0x40 MLOAD RETURNDATASIZE DUP7 DUP3 RETURNDATACOPY RETURNDATASIZE SWAP1 REVERT JUMPDEST PUSH2 0x6A0 SWAP1 PUSH2 0x10E4 JUMP JUMPDEST PUSH2 0x6AB JUMPI DUP2 CODESIZE PUSH2 0x3BC JUMP JUMPDEST POP DUP1 REVERT JUMPDEST PUSH1 0x40 MLOAD RETURNDATASIZE DUP6 DUP3 RETURNDATACOPY RETURNDATASIZE SWAP1 REVERT JUMPDEST DUP3 DUP1 REVERT JUMPDEST PUSH1 0x40 MLOAD PUSH3 0x461BCD PUSH1 0xE5 SHL DUP2 MSTORE PUSH1 0x20 PUSH1 0x4 DUP3 ADD MSTORE PUSH1 0x8 PUSH1 0x24 DUP3 ADD MSTORE PUSH8 0x84C2C840E0C2E8D PUSH1 0xC3 SHL PUSH1 0x44 DUP3 ADD MSTORE PUSH1 0x64 SWAP1 REVERT JUMPDEST DUP4 DUP1 REVERT JUMPDEST POP CALLVALUE PUSH2 0x157 JUMPI DUP1 PUSH1 0x3 NOT CALLDATASIZE ADD SLT PUSH2 0x157 JUMPI SLOAD PUSH1 0x40 MLOAD PUSH1 0x1 PUSH1 0x1 PUSH1 0xA0 SHL SUB SWAP1 SWAP2 AND DUP2 MSTORE PUSH1 0x20 SWAP1 RETURN JUMPDEST POP CALLVALUE PUSH2 0x157 JUMPI DUP1 PUSH1 0x3 NOT CALLDATASIZE ADD SLT PUSH2 0x157 JUMPI PUSH1 0x20 PUSH1 0x40 MLOAD PUSH20 0x79A02482A880BCE3F13E09DA970DC34DB4CD24D1 DUP2 MSTORE RETURN JUMPDEST POP CALLVALUE PUSH2 0x157 JUMPI PUSH1 0x20 CALLDATASIZE PUSH1 0x3 NOT ADD SLT PUSH2 0x157 JUMPI PUSH1 0x4 CALLDATALOAD PUSH1 0x3 DUP2 LT ISZERO PUSH2 0x6AB JUMPI PUSH1 0x1 ADD SLOAD PUSH1 0x40 MLOAD PUSH1 0x1 PUSH1 0x1 PUSH1 0xA0 SHL SUB SWAP1 SWAP2 AND DUP2 MSTORE PUSH1 0x20 SWAP1 RETURN JUMPDEST POP CALLVALUE PUSH2 0x157 JUMPI PUSH1 0x20 DUP1 PUSH1 0x3 NOT CALLDATASIZE ADD SLT PUSH2 0x6AB JUMPI PUSH1 0x4 CALLDATALOAD PUSH8 0xFFFFFFFFFFFFFFFF DUP2 GT PUSH2 0x6BA JUMPI PUSH2 0x7B2 SWAP1 CALLDATASIZE SWAP1 PUSH1 0x4 ADD PUSH2 0x103B JUMP JUMPDEST SWAP2 SWAP1 DUP4 JUMPDEST DUP4 DUP2 LT PUSH2 0x7C1 JUMPI DUP5 DUP1 RETURN JUMPDEST CALLER DUP6 MSTORE PUSH1 0x7 DUP1 DUP5 MSTORE PUSH1 0x40 DUP7 KECCAK256 PUSH1 0x1 PUSH1 0x1 PUSH1 0xA0 SHL SUB SWAP3 SWAP2 SWAP1 DUP4 PUSH2 0x7EC PUSH2 0x7E7 DUP6 DUP11 DUP10 PUSH2 0x1528 JUMP JUMPDEST PUSH2 0x1514 JUMP JUMPDEST AND PUSH1 0x0 MSTORE DUP6 MSTORE PUSH1 0x40 PUSH1 0x0 KECCAK256 SLOAD SWAP1 DUP2 ISZERO PUSH2 0x8D7 JUMPI CALLER DUP9 MSTORE DUP6 MSTORE PUSH1 0x40 DUP8 KECCAK256 DUP4 PUSH2 0x817 PUSH2 0x7E7 DUP6 DUP11 DUP10 PUSH2 0x1528 JUMP JUMPDEST AND PUSH1 0x0 MSTORE DUP6 MSTORE DUP7 PUSH1 0x40 PUSH1 0x0 KECCAK256 SSTORE DUP3 PUSH2 0x833 PUSH2 0x7E7 DUP5 DUP10 DUP9 PUSH2 0x1528 JUMP JUMPDEST PUSH1 0x40 MLOAD PUSH4 0xA9059CBB PUSH1 0xE0 SHL DUP2 MSTORE CALLER PUSH1 0x4 DUP3 ADD MSTORE PUSH1 0x24 DUP2 ADD DUP5 SWAP1 MSTORE SWAP5 SWAP2 DUP8 SWAP2 DUP7 SWAP2 PUSH1 0x44 SWAP2 DUP4 SWAP2 DUP14 SWAP2 AND GAS CALL SWAP4 DUP5 ISZERO PUSH2 0x8CC JUMPI PUSH1 0x1 SWAP5 PUSH2 0x8AF JUMPI JUMPDEST POP PUSH2 0x87B PUSH2 0x7E7 DUP5 DUP10 DUP9 PUSH2 0x1528 JUMP JUMPDEST AND SWAP1 PUSH1 0x40 MLOAD SWAP1 DUP2 MSTORE PUSH32 0x4A34429A0EF883C4301D5B40AA8AE85D4EB024946062F2C7EBD8320ACEDC831A DUP7 CALLER SWAP3 LOG3 JUMPDEST ADD PUSH2 0x7B6 JUMP JUMPDEST PUSH2 0x8C5 SWAP1 DUP8 RETURNDATASIZE DUP10 GT PUSH2 0x2D5 JUMPI PUSH2 0x2C9 DUP2 DUP4 PUSH2 0x112A JUMP JUMPDEST POP CODESIZE PUSH2 0x86C JUMP JUMPDEST PUSH1 0x40 MLOAD RETURNDATASIZE DUP11 DUP3 RETURNDATACOPY RETURNDATASIZE SWAP1 REVERT JUMPDEST POP POP PUSH1 0x1 SWAP2 POP PUSH2 0x8A9 JUMP JUMPDEST POP CALLVALUE PUSH2 0x157 JUMPI DUP1 PUSH1 0x3 NOT CALLDATASIZE ADD SLT PUSH2 0x157 JUMPI PUSH1 0x20 PUSH1 0x40 MLOAD PUSH20 0x68B3465833FB72A70ECDF485E0E4C7BD8665FC45 DUP2 MSTORE RETURN JUMPDEST POP CALLVALUE PUSH2 0x157 JUMPI DUP1 PUSH1 0x3 NOT CALLDATASIZE ADD SLT PUSH2 0x157 JUMPI PUSH1 0x6 SLOAD PUSH1 0x40 MLOAD PUSH1 0x1 PUSH1 0x1 PUSH1 0xA0 SHL SUB SWAP1 SWAP2 AND DUP2 MSTORE PUSH1 0x20 SWAP1 RETURN JUMPDEST POP CALLVALUE PUSH2 0x157 JUMPI DUP1 PUSH1 0x3 NOT CALLDATASIZE ADD SLT PUSH2 0x157 JUMPI PUSH1 0x20 PUSH1 0x40 MLOAD PUSH15 0x22D473030F116DDEE9F6B43AC78BA3 DUP2 MSTORE RETURN JUMPDEST POP CALLVALUE PUSH2 0x157 JUMPI DUP1 PUSH1 0x3 NOT CALLDATASIZE ADD SLT PUSH2 0x157 JUMPI PUSH1 0x20 PUSH1 0x5 SLOAD PUSH1 0x40 MLOAD SWAP1 DUP2 MSTORE RETURN JUMPDEST POP CALLVALUE PUSH2 0x157 JUMPI PUSH1 0x60 CALLDATASIZE PUSH1 0x3 NOT ADD SLT PUSH2 0x157 JUMPI CALLDATASIZE PUSH1 0x64 GT PUSH2 0x157 JUMPI PUSH2 0x9B0 PUSH1 0x1 DUP1 PUSH1 0xA0 SHL SUB DUP3 SLOAD AND CALLER EQ PUSH2 0x1224 JUMP JUMPDEST PUSH1 0x4 DUP2 JUMPDEST PUSH1 0x3 DUP2 LT PUSH2 0x9E4 JUMPI DUP3 PUSH32 0xFE891C6AB12CF73707F8DEB6600C12BA382E4CC31EB2B0A2754CAD13075ED2D1 DUP2 DUP1 LOG1 DUP1 RETURN JUMPDEST PUSH1 0x1 SWAP1 PUSH1 0x20 PUSH2 0x9F2 DUP5 PUSH2 0x1514 JUMP JUMPDEST SWAP4 ADD SWAP3 DUP2 DUP4 ADD SSTORE ADD PUSH2 0x9B4 JUMP JUMPDEST POP CALLVALUE PUSH2 0x157 JUMPI DUP1 PUSH1 0x3 NOT CALLDATASIZE ADD SLT PUSH2 0x157 JUMPI PUSH1 0x20 PUSH1 0x4 SLOAD PUSH1 0x40 MLOAD SWAP1 DUP2 MSTORE RETURN JUMPDEST POP CALLVALUE PUSH2 0x157 JUMPI PUSH1 0x20 CALLDATASIZE PUSH1 0x3 NOT ADD SLT PUSH2 0x157 JUMPI PUSH2 0xA37 PUSH2 0xFE1 JUMP JUMPDEST DUP2 SLOAD PUSH1 0x1 PUSH1 0x1 PUSH1 0xA0 SHL SUB SWAP2 SWAP1 PUSH2 0xA50 SWAP1 DUP4 AND CALLER EQ PUSH2 0x1224 JUMP JUMPDEST AND PUSH12 0xFFFFFFFFFFFFFFFFFFFFFFFF PUSH1 0xA0 SHL PUSH1 0x6 SLOAD AND OR PUSH1 0x6 SSTORE PUSH32 0xFE891C6AB12CF73707F8DEB6600C12BA382E4CC31EB2B0A2754CAD13075ED2D1 DUP2 DUP1 LOG1 DUP1 RETURN JUMPDEST POP CALLVALUE PUSH2 0x157 JUMPI PUSH1 0x60 CALLDATASIZE PUSH1 0x3 NOT ADD SLT PUSH2 0x157 JUMPI PUSH2 0xAAA PUSH2 0xFE1 JUMP JUMPDEST PUSH1 0x24 CALLDATALOAD SWAP1 PUSH8 0xFFFFFFFFFFFFFFFF DUP3 GT PUSH2 0x6BA JUMPI PUSH2 0xACE PUSH2 0xAEC SWAP3 CALLDATASIZE SWAP1 PUSH1 0x4 ADD PUSH2 0x100D JUMP JUMPDEST SWAP1 PUSH2 0xAE3 PUSH1 0x1 DUP1 PUSH1 0xA0 SHL SUB DUP7 SLOAD AND CALLER EQ PUSH2 0x1224 JUMP JUMPDEST PUSH1 0x44 CALLDATALOAD SWAP3 PUSH2 0x127F JUMP JUMPDEST DUP1 RETURN JUMPDEST POP CALLVALUE PUSH2 0x157 JUMPI PUSH1 0x20 DUP1 PUSH1 0x3 NOT CALLDATASIZE ADD SLT PUSH2 0x6AB JUMPI PUSH2 0xB0A PUSH2 0xFE1 JUMP JUMPDEST CALLER DUP4 MSTORE PUSH1 0x7 DUP3 MSTORE PUSH1 0x40 DUP1 DUP5 KECCAK256 PUSH1 0x1 PUSH1 0x1 PUSH1 0xA0 SHL SUB SWAP1 SWAP3 AND PUSH1 0x0 DUP2 DUP2 MSTORE SWAP3 DUP5 MSTORE SWAP2 KECCAK256 SLOAD SWAP1 SWAP2 DUP2 ISZERO PUSH2 0xBD6 JUMPI CALLER DUP1 DUP6 MSTORE PUSH1 0x7 DUP3 MSTORE PUSH1 0x40 DUP1 DUP7 KECCAK256 PUSH1 0x0 DUP7 DUP2 MSTORE SWAP1 DUP5 MSTORE DUP2 SWAP1 KECCAK256 DUP7 SWAP1 SSTORE MLOAD PUSH4 0xA9059CBB PUSH1 0xE0 SHL DUP2 MSTORE PUSH1 0x4 DUP2 ADD SWAP2 SWAP1 SWAP2 MSTORE PUSH1 0x24 DUP2 ADD DUP4 SWAP1 MSTORE SWAP1 DUP1 DUP3 PUSH1 0x44 DUP2 DUP9 DUP9 GAS CALL SWAP2 DUP3 ISZERO PUSH2 0xBCB JUMPI PUSH32 0x4A34429A0EF883C4301D5B40AA8AE85D4EB024946062F2C7EBD8320ACEDC831A SWAP3 PUSH2 0xBAE JUMPI JUMPDEST POP PUSH1 0x40 MLOAD SWAP3 DUP4 MSTORE CALLER SWAP3 LOG3 DUP1 RETURN JUMPDEST PUSH2 0xBC4 SWAP1 DUP3 RETURNDATASIZE DUP5 GT PUSH2 0x2D5 JUMPI PUSH2 0x2C9 DUP2 DUP4 PUSH2 0x112A JUMP JUMPDEST POP CODESIZE PUSH2 0xBA1 JUMP JUMPDEST PUSH1 0x40 MLOAD RETURNDATASIZE DUP8 DUP3 RETURNDATACOPY RETURNDATASIZE SWAP1 REVERT JUMPDEST PUSH1 0x64 SWAP1 PUSH1 0x40 MLOAD SWAP1 PUSH3 0x461BCD PUSH1 0xE5 SHL DUP3 MSTORE PUSH1 0x4 DUP3 ADD MSTORE PUSH1 0x10 PUSH1 0x24 DUP3 ADD MSTORE PUSH16 0x4E6F7468696E6720746F20636C61696D PUSH1 0x80 SHL PUSH1 0x44 DUP3 ADD MSTORE REVERT JUMPDEST POP CALLVALUE PUSH2 0x157 JUMPI PUSH1 0x20 CALLDATASIZE PUSH1 0x3 NOT ADD SLT PUSH2 0x157 JUMPI PUSH2 0xC27 PUSH2 0xFE1 JUMP JUMPDEST DUP2 SLOAD SWAP1 PUSH1 0x1 PUSH1 0x1 PUSH1 0xA0 SHL SUB SWAP1 PUSH2 0xC40 CALLER DUP4 DUP6 AND EQ PUSH2 0x1224 JUMP JUMPDEST AND SWAP1 DUP2 ISZERO PUSH2 0xC58 JUMPI PUSH1 0x1 PUSH1 0x1 PUSH1 0xA0 SHL SUB NOT AND OR DUP2 SSTORE DUP1 RETURN JUMPDEST PUSH1 0x40 MLOAD PUSH3 0x461BCD PUSH1 0xE5 SHL DUP2 MSTORE PUSH1 0x20 PUSH1 0x4 DUP3 ADD MSTORE PUSH1 0x9 PUSH1 0x24 DUP3 ADD MSTORE PUSH9 0x2D32B9379030B23239 PUSH1 0xB9 SHL PUSH1 0x44 DUP3 ADD MSTORE PUSH1 0x64 SWAP1 REVERT JUMPDEST POP CALLVALUE PUSH2 0x157 JUMPI PUSH1 0x40 CALLDATASIZE PUSH1 0x3 NOT ADD SLT PUSH2 0x157 JUMPI PUSH1 0x4 CALLDATALOAD PUSH1 0x24 CALLDATALOAD SWAP1 PUSH2 0xCB6 PUSH1 0x1 DUP1 PUSH1 0xA0 SHL SUB DUP5 SLOAD AND CALLER EQ PUSH2 0x1224 JUMP JUMPDEST PUSH2 0x3E8 PUSH2 0xCC3 DUP4 DUP4 PUSH2 0x125C JUMP JUMPDEST GT PUSH2 0xCF5 JUMPI PUSH1 0x4 SSTORE PUSH1 0x5 SSTORE PUSH32 0xFE891C6AB12CF73707F8DEB6600C12BA382E4CC31EB2B0A2754CAD13075ED2D1 DUP2 DUP1 LOG1 DUP1 RETURN JUMPDEST PUSH1 0x40 MLOAD PUSH3 0x461BCD PUSH1 0xE5 SHL DUP2 MSTORE PUSH1 0x20 PUSH1 0x4 DUP3 ADD MSTORE PUSH1 0xC PUSH1 0x24 DUP3 ADD MSTORE PUSH12 0x8CCACA40E8DEDE40D0D2CED PUSH1 0xA3 SHL PUSH1 0x44 DUP3 ADD MSTORE PUSH1 0x64 SWAP1 REVERT JUMPDEST POP CALLVALUE PUSH2 0x157 JUMPI PUSH1 0xC0 CALLDATASIZE PUSH1 0x3 NOT ADD SLT PUSH2 0x157 JUMPI PUSH2 0xD43 PUSH2 0xFE1 JUMP JUMPDEST SWAP1 PUSH2 0xD4C PUSH2 0xFF7 JUMP JUMPDEST SWAP2 PUSH1 0x44 CALLDATALOAD PUSH1 0x84 CALLDATALOAD PUSH8 0xFFFFFFFFFFFFFFFF DUP2 GT PUSH2 0x6EE JUMPI PUSH2 0xD70 SWAP1 CALLDATASIZE SWAP1 PUSH1 0x4 ADD PUSH2 0x100D JUMP JUMPDEST PUSH2 0xD7E DUP4 SWAP7 SWAP3 SWAP7 ISZERO ISZERO PUSH2 0x106C JUMP JUMPDEST PUSH1 0x1 PUSH1 0x1 PUSH1 0xA0 SHL SUB SWAP1 PUSH2 0xD93 DUP3 DUP6 GT ISZERO PUSH2 0x10A6 JUMP JUMPDEST PUSH15 0x22D473030F116DDEE9F6B43AC78BA3 SWAP7 DUP8 EXTCODESIZE ISZERO PUSH2 0x5F4 JUMPI PUSH1 0x40 MLOAD PUSH4 0x1B63C28B PUSH1 0xE1 SHL DUP2 MSTORE CALLER PUSH1 0x4 DUP3 ADD MSTORE ADDRESS PUSH1 0x24 DUP3 ADD MSTORE PUSH1 0x1 PUSH1 0x1 PUSH1 0xA0 SHL SUB DUP7 DUP6 AND DUP2 AND PUSH1 0x44 DUP4 ADD MSTORE DUP8 AND PUSH1 0x64 DUP3 ADD MSTORE SWAP8 DUP8 SWAP1 DUP10 SWAP1 PUSH1 0x84 SWAP1 DUP3 SWAP1 DUP5 SWAP1 GAS CALL DUP1 ISZERO PUSH2 0xFA8 JUMPI PUSH2 0xF94 JUMPI JUMPDEST DUP7 SWAP8 POP PUSH2 0xE03 DUP6 DUP8 PUSH2 0x155B JUMP JUMPDEST SWAP1 PUSH1 0x40 MLOAD PUSH4 0x95EA7B3 PUSH1 0xE0 SHL DUP2 MSTORE PUSH20 0x68B3465833FB72A70ECDF485E0E4C7BD8665FC45 SWAP5 DUP6 PUSH1 0x4 DUP4 ADD MSTORE DUP4 PUSH1 0x24 DUP4 ADD MSTORE DUP2 PUSH1 0x44 DUP2 PUSH1 0x20 SWAP14 DUP15 SWAP5 DUP14 AND GAS CALL DUP1 ISZERO PUSH2 0xF89 JUMPI SWAP3 PUSH2 0xE6E DUP11 SWAP7 SWAP4 DUP13 SWAP7 SWAP4 PUSH2 0xE9E SWAP7 PUSH2 0xF6C JUMPI JUMPDEST POP PUSH1 0x40 MLOAD SWAP4 PUSH2 0xE67 DUP6 PUSH2 0x110E JUMP JUMPDEST CALLDATASIZE SWAP2 PUSH2 0x1164 JUMP JUMPDEST DUP3 MSTORE CALLER DUP6 DUP4 ADD MSTORE PUSH1 0x40 DUP3 ADD MSTORE PUSH1 0x64 CALLDATALOAD PUSH1 0x60 DUP3 ADD MSTORE PUSH1 0x40 MLOAD SWAP5 DUP6 DUP1 SWAP5 DUP2 SWAP4 PUSH4 0xB858183F PUSH1 0xE0 SHL DUP4 MSTORE PUSH1 0x4 DUP4 ADD PUSH2 0x11AB JUMP JUMPDEST SUB SWAP3 GAS CALL SWAP5 DUP6 ISZERO PUSH2 0xF60 JUMPI SWAP5 PUSH2 0xF0F JUMPI JUMPDEST POP SWAP1 PUSH32 0x918E92F54688C51950885AC1066129BB8ECC6BFF902C9746495C1074FCFBF87F SWAP2 PUSH2 0xEDF PUSH1 0xA4 CALLDATALOAD CALLER PUSH2 0x1747 JUMP JUMPDEST PUSH1 0x40 DUP1 MLOAD PUSH1 0x1 PUSH1 0x1 PUSH1 0xA0 SHL SUB SWAP6 DUP7 AND DUP2 MSTORE SWAP5 SWAP1 SWAP2 AND PUSH1 0x20 DUP6 ADD MSTORE DUP4 ADD MSTORE PUSH1 0x60 DUP3 ADD DUP4 SWAP1 MSTORE CALLER SWAP2 DUP1 PUSH1 0x80 DUP2 ADD PUSH2 0x523 JUMP JUMPDEST SWAP2 SWAP1 SWAP4 POP DUP5 DUP3 DUP2 RETURNDATASIZE DUP4 GT PUSH2 0xF59 JUMPI JUMPDEST PUSH2 0xF28 DUP2 DUP4 PUSH2 0x112A JUMP JUMPDEST DUP2 ADD SUB SLT PUSH2 0x654 JUMPI SWAP1 MLOAD SWAP3 PUSH32 0x918E92F54688C51950885AC1066129BB8ECC6BFF902C9746495C1074FCFBF87F PUSH2 0xEAF JUMP JUMPDEST POP RETURNDATASIZE PUSH2 0xF1E JUMP JUMPDEST PUSH1 0x40 MLOAD SWAP1 RETURNDATASIZE SWAP1 DUP3 RETURNDATACOPY RETURNDATASIZE SWAP1 REVERT JUMPDEST PUSH2 0xF82 SWAP1 DUP9 RETURNDATASIZE DUP11 GT PUSH2 0x2D5 JUMPI PUSH2 0x2C9 DUP2 DUP4 PUSH2 0x112A JUMP JUMPDEST POP CODESIZE PUSH2 0xE59 JUMP JUMPDEST PUSH1 0x40 MLOAD RETURNDATASIZE DUP12 DUP3 RETURNDATACOPY RETURNDATASIZE SWAP1 REVERT JUMPDEST SWAP6 SWAP1 SWAP7 PUSH2 0xFA0 SWAP1 PUSH2 0x10E4 JUMP JUMPDEST SWAP5 DUP7 SWAP1 PUSH2 0xDF6 JUMP JUMPDEST PUSH1 0x40 MLOAD RETURNDATASIZE DUP10 DUP3 RETURNDATACOPY RETURNDATASIZE SWAP1 REVERT JUMPDEST SWAP1 POP CALLVALUE PUSH2 0x6AB JUMPI DUP2 PUSH1 0x3 NOT CALLDATASIZE ADD SLT PUSH2 0x6AB JUMPI DUP1 PUSH20 0x7A250D5630B4CF539739DF2C5DACB4C659F2488D PUSH1 0x20 SWAP3 MSTORE RETURN JUMPDEST PUSH1 0x4 CALLDATALOAD SWAP1 PUSH1 0x1 PUSH1 0x1 PUSH1 0xA0 SHL SUB DUP3 AND DUP3 SUB PUSH2 0x654 JUMPI JUMP JUMPDEST PUSH1 0x24 CALLDATALOAD SWAP1 PUSH1 0x1 PUSH1 0x1 PUSH1 0xA0 SHL SUB DUP3 AND DUP3 SUB PUSH2 0x654 JUMPI JUMP JUMPDEST SWAP2 DUP2 PUSH1 0x1F DUP5 ADD SLT ISZERO PUSH2 0x654 JUMPI DUP3 CALLDATALOAD SWAP2 PUSH8 0xFFFFFFFFFFFFFFFF DUP4 GT PUSH2 0x654 JUMPI PUSH1 0x20 DUP4 DUP2 DUP7 ADD SWAP6 ADD ADD GT PUSH2 0x654 JUMPI JUMP JUMPDEST SWAP2 DUP2 PUSH1 0x1F DUP5 ADD SLT ISZERO PUSH2 0x654 JUMPI DUP3 CALLDATALOAD SWAP2 PUSH8 0xFFFFFFFFFFFFFFFF DUP4 GT PUSH2 0x654 JUMPI PUSH1 0x20 DUP1 DUP6 ADD SWAP5 DUP5 PUSH1 0x5 SHL ADD ADD GT PUSH2 0x654 JUMPI JUMP JUMPDEST ISZERO PUSH2 0x1073 JUMPI JUMP JUMPDEST PUSH1 0x40 MLOAD PUSH3 0x461BCD PUSH1 0xE5 SHL DUP2 MSTORE PUSH1 0x20 PUSH1 0x4 DUP3 ADD MSTORE PUSH1 0xB PUSH1 0x24 DUP3 ADD MSTORE PUSH11 0x16995C9BC8185B5BDD5B9D PUSH1 0xAA SHL PUSH1 0x44 DUP3 ADD MSTORE PUSH1 0x64 SWAP1 REVERT JUMPDEST ISZERO PUSH2 0x10AD JUMPI JUMP JUMPDEST PUSH1 0x40 MLOAD PUSH3 0x461BCD PUSH1 0xE5 SHL DUP2 MSTORE PUSH1 0x20 PUSH1 0x4 DUP3 ADD MSTORE PUSH1 0xF PUSH1 0x24 DUP3 ADD MSTORE PUSH15 0x416D6F756E74206F766572666C6F77 PUSH1 0x88 SHL PUSH1 0x44 DUP3 ADD MSTORE PUSH1 0x64 SWAP1 REVERT JUMPDEST PUSH8 0xFFFFFFFFFFFFFFFF DUP2 GT PUSH2 0x10F8 JUMPI PUSH1 0x40 MSTORE JUMP JUMPDEST PUSH4 0x4E487B71 PUSH1 0xE0 SHL PUSH1 0x0 MSTORE PUSH1 0x41 PUSH1 0x4 MSTORE PUSH1 0x24 PUSH1 0x0 REVERT JUMPDEST PUSH1 0x80 DUP2 ADD SWAP1 DUP2 LT PUSH8 0xFFFFFFFFFFFFFFFF DUP3 GT OR PUSH2 0x10F8 JUMPI PUSH1 0x40 MSTORE JUMP JUMPDEST SWAP1 PUSH1 0x1F DUP1 NOT SWAP2 ADD AND DUP2 ADD SWAP1 DUP2 LT PUSH8 0xFFFFFFFFFFFFFFFF DUP3 GT OR PUSH2 0x10F8 JUMPI PUSH1 0x40 MSTORE JUMP JUMPDEST SWAP1 DUP2 PUSH1 0x20 SWAP2 SUB SLT PUSH2 0x654 JUMPI MLOAD DUP1 ISZERO ISZERO DUP2 SUB PUSH2 0x654 JUMPI SWAP1 JUMP JUMPDEST SWAP3 SWAP2 SWAP3 PUSH8 0xFFFFFFFFFFFFFFFF DUP3 GT PUSH2 0x10F8 JUMPI PUSH1 0x40 MLOAD SWAP2 PUSH2 0x118E PUSH1 0x1F DUP3 ADD PUSH1 0x1F NOT AND PUSH1 0x20 ADD DUP5 PUSH2 0x112A JUMP JUMPDEST DUP3 SWAP5 DUP2 DUP5 MSTORE DUP2 DUP4 ADD GT PUSH2 0x654 JUMPI DUP3 DUP2 PUSH1 0x20 SWAP4 DUP5 PUSH1 0x0 SWAP7 ADD CALLDATACOPY ADD ADD MSTORE JUMP JUMPDEST SWAP2 SWAP1 SWAP2 PUSH1 0x20 DUP1 DUP3 MSTORE DUP4 MLOAD SWAP4 PUSH1 0x80 PUSH1 0x20 DUP5 ADD MSTORE DUP5 MLOAD SWAP2 DUP3 PUSH1 0xA0 DUP6 ADD MSTORE PUSH1 0x0 JUMPDEST DUP4 DUP2 LT PUSH2 0x1210 JUMPI POP POP PUSH1 0xC0 SWAP4 SWAP5 POP PUSH1 0x60 SWAP1 PUSH1 0x0 DUP6 DUP5 DUP7 ADD ADD MSTORE PUSH1 0x1 DUP1 PUSH1 0xA0 SHL SUB PUSH1 0x20 DUP3 ADD MLOAD AND PUSH1 0x40 DUP6 ADD MSTORE PUSH1 0x40 DUP2 ADD MLOAD DUP3 DUP6 ADD MSTORE ADD MLOAD PUSH1 0x80 DUP4 ADD MSTORE PUSH1 0x1F DUP1 NOT SWAP2 ADD AND ADD ADD SWAP1 JUMP JUMPDEST DUP7 DUP2 ADD DUP3 ADD MLOAD DUP6 DUP3 ADD PUSH1 0xC0 ADD MSTORE DUP2 ADD PUSH2 0x11C9 JUMP JUMPDEST ISZERO PUSH2 0x122B JUMPI JUMP JUMPDEST PUSH1 0x40 MLOAD PUSH3 0x461BCD PUSH1 0xE5 SHL DUP2 MSTORE PUSH1 0x20 PUSH1 0x4 DUP3 ADD MSTORE PUSH1 0x9 PUSH1 0x24 DUP3 ADD MSTORE PUSH9 0x2737BA1037BBB732B9 PUSH1 0xB9 SHL PUSH1 0x44 DUP3 ADD MSTORE PUSH1 0x64 SWAP1 REVERT JUMPDEST SWAP2 SWAP1 DUP3 ADD DUP1 SWAP3 GT PUSH2 0x1269 JUMPI JUMP JUMPDEST PUSH4 0x4E487B71 PUSH1 0xE0 SHL PUSH1 0x0 MSTORE PUSH1 0x11 PUSH1 0x4 MSTORE PUSH1 0x24 PUSH1 0x0 REVERT JUMPDEST SWAP4 SWAP3 SWAP1 SWAP2 SWAP4 PUSH1 0x1 DUP1 PUSH1 0xA0 SHL SUB DUP1 SWAP2 AND SWAP3 PUSH1 0x0 SWAP6 DUP5 DUP8 MSTORE PUSH1 0x20 SWAP1 PUSH1 0x8 DUP3 MSTORE PUSH1 0x40 SWAP5 DUP6 DUP10 KECCAK256 SLOAD SWAP4 DUP5 ISZERO PUSH2 0x14C7 JUMPI SWAP1 DUP10 SWAP4 SWAP3 SWAP2 DUP9 DUP6 MSTORE PUSH1 0x8 DUP5 MSTORE DUP5 DUP9 DUP2 KECCAK256 SSTORE PUSH20 0x17392E5483983945DEB92E0518A8F2C4EB6BA59D DUP1 DUP11 EQ PUSH2 0x1434 JUMPI POP DUP8 MLOAD PUSH4 0x95EA7B3 PUSH1 0xE0 SHL DUP2 MSTORE PUSH20 0x68B3465833FB72A70ECDF485E0E4C7BD8665FC45 PUSH1 0x4 DUP3 ADD DUP2 SWAP1 MSTORE PUSH1 0x24 DUP3 ADD DUP9 SWAP1 MSTORE SWAP7 SWAP8 SWAP6 SWAP7 SWAP5 SWAP6 SWAP1 DUP7 DUP2 PUSH1 0x44 DUP2 DUP12 DUP16 GAS CALL DUP1 ISZERO PUSH2 0x142A JUMPI DUP8 SWAP7 SWAP5 SWAP3 PUSH2 0x136C SWAP7 SWAP5 SWAP3 PUSH2 0x1341 SWAP3 PUSH2 0x140D JUMPI JUMPDEST POP DUP10 SLOAD AND SWAP2 DUP12 MLOAD SWAP5 PUSH2 0xE67 DUP7 PUSH2 0x110E JUMP JUMPDEST DUP4 MSTORE DUP6 DUP4 ADD MSTORE DUP8 DUP10 DUP4 ADD MSTORE PUSH1 0x60 DUP3 ADD MSTORE DUP8 MLOAD SWAP6 DUP7 DUP1 SWAP5 DUP2 SWAP4 PUSH4 0xB858183F PUSH1 0xE0 SHL DUP4 MSTORE PUSH1 0x4 DUP4 ADD PUSH2 0x11AB JUMP JUMPDEST SUB SWAP3 GAS CALL SWAP2 DUP3 ISZERO PUSH2 0x1403 JUMPI DUP8 SWAP3 PUSH2 0x13AF JUMPI JUMPDEST POP PUSH32 0x626502EF77967D5C4531ABAD2A6F2A43B30F257E30CC352362D0EB2C61932A48 SWAP5 SWAP6 SWAP7 POP DUP4 MLOAD SWAP3 DUP4 MSTORE DUP3 ADD MSTORE LOG2 JUMP JUMPDEST SWAP1 DUP1 SWAP3 POP DUP2 DUP2 RETURNDATASIZE DUP4 GT PUSH2 0x13FC JUMPI JUMPDEST PUSH2 0x13C7 DUP2 DUP4 PUSH2 0x112A JUMP JUMPDEST DUP2 ADD SUB SLT PUSH2 0x5F4 JUMPI MLOAD SWAP5 SWAP6 POP DUP6 SWAP5 SWAP1 PUSH32 0x626502EF77967D5C4531ABAD2A6F2A43B30F257E30CC352362D0EB2C61932A48 PUSH2 0x137E JUMP JUMPDEST POP RETURNDATASIZE PUSH2 0x13BD JUMP JUMPDEST DUP5 MLOAD RETURNDATASIZE DUP10 DUP3 RETURNDATACOPY RETURNDATASIZE SWAP1 REVERT JUMPDEST PUSH2 0x1423 SWAP1 DUP10 RETURNDATASIZE DUP12 GT PUSH2 0x2D5 JUMPI PUSH2 0x2C9 DUP2 DUP4 PUSH2 0x112A JUMP JUMPDEST POP CODESIZE PUSH2 0x1330 JUMP JUMPDEST DUP11 MLOAD RETURNDATASIZE DUP11 DUP3 RETURNDATACOPY RETURNDATASIZE SWAP1 REVERT JUMPDEST SWAP5 SLOAD DUP9 MLOAD PUSH4 0xA9059CBB PUSH1 0xE0 SHL DUP2 MSTORE SWAP8 AND PUSH1 0x1 PUSH1 0x1 PUSH1 0xA0 SHL SUB AND PUSH1 0x4 DUP9 ADD MSTORE POP POP POP PUSH1 0x24 DUP5 ADD DUP4 SWAP1 MSTORE SWAP3 SWAP1 DUP4 SWAP1 DUP3 SWAP1 DUP2 DUP11 DUP2 PUSH1 0x44 DUP2 ADD SUB SWAP3 GAS CALL DUP1 ISZERO PUSH2 0x1403 JUMPI PUSH32 0x626502EF77967D5C4531ABAD2A6F2A43B30F257E30CC352362D0EB2C61932A48 SWAP6 SWAP7 SWAP8 POP PUSH2 0x14AA JUMPI JUMPDEST POP DUP3 MLOAD SWAP2 DUP2 DUP4 MSTORE DUP3 ADD MSTORE LOG2 JUMP JUMPDEST PUSH2 0x14C0 SWAP1 DUP4 RETURNDATASIZE DUP6 GT PUSH2 0x2D5 JUMPI PUSH2 0x2C9 DUP2 DUP4 PUSH2 0x112A JUMP JUMPDEST POP CODESIZE PUSH2 0x149D JUMP JUMPDEST DUP7 MLOAD PUSH3 0x461BCD PUSH1 0xE5 SHL DUP2 MSTORE PUSH1 0x4 DUP2 ADD DUP6 SWAP1 MSTORE PUSH1 0x13 PUSH1 0x24 DUP3 ADD MSTORE PUSH19 0x139BC81999595CC81858D8DD5B5D5B185D1959 PUSH1 0x6A SHL PUSH1 0x44 DUP3 ADD MSTORE PUSH1 0x64 SWAP1 REVERT JUMPDEST DUP2 DUP2 MUL SWAP3 SWAP2 DUP2 ISZERO SWAP2 DUP5 DIV EQ OR ISZERO PUSH2 0x1269 JUMPI JUMP JUMPDEST CALLDATALOAD PUSH1 0x1 PUSH1 0x1 PUSH1 0xA0 SHL SUB DUP2 AND DUP2 SUB PUSH2 0x654 JUMPI SWAP1 JUMP JUMPDEST SWAP2 SWAP1 DUP2 LT ISZERO PUSH2 0x1538 JUMPI PUSH1 0x5 SHL ADD SWAP1 JUMP JUMPDEST PUSH4 0x4E487B71 PUSH1 0xE0 SHL PUSH1 0x0 MSTORE PUSH1 0x32 PUSH1 0x4 MSTORE PUSH1 0x24 PUSH1 0x0 REVERT JUMPDEST SWAP2 SWAP1 DUP3 SUB SWAP2 DUP3 GT PUSH2 0x1269 JUMPI JUMP JUMPDEST SWAP2 SWAP1 PUSH2 0x2710 PUSH1 0x4 SWAP2 DUP2 PUSH2 0x1570 PUSH1 0x4 SLOAD DUP4 PUSH2 0x1501 JUMP JUMPDEST DIV SWAP2 PUSH2 0x157E PUSH1 0x5 SLOAD DUP4 PUSH2 0x1501 JUMP JUMPDEST DIV SWAP3 DUP3 PUSH2 0x15CD JUMPI JUMPDEST POP SWAP1 PUSH2 0x159D SWAP2 PUSH2 0x15A2 SWAP5 SWAP6 DUP5 PUSH2 0x15A5 JUMPI JUMPDEST POP PUSH2 0x154E JUMP JUMPDEST PUSH2 0x154E JUMP JUMPDEST SWAP1 JUMP JUMPDEST PUSH1 0x1 DUP1 PUSH1 0xA0 SHL SUB AND PUSH1 0x0 MSTORE PUSH1 0x8 PUSH1 0x20 MSTORE PUSH1 0x40 PUSH1 0x0 KECCAK256 PUSH2 0x15C5 DUP6 DUP3 SLOAD PUSH2 0x125C JUMP JUMPDEST SWAP1 SSTORE CODESIZE PUSH2 0x1597 JUMP JUMPDEST PUSH1 0x0 SWAP1 DUP2 JUMPDEST PUSH1 0x3 DUP2 LT PUSH2 0x1701 JUMPI POP POP DUP1 ISZERO DUP1 PUSH2 0x16BC JUMPI PUSH2 0x16A6 JUMPI PUSH2 0x15FD PUSH2 0x15F7 DUP3 DUP6 DIV SWAP3 DUP4 PUSH2 0x1501 JUMP JUMPDEST DUP5 PUSH2 0x154E JUMP JUMPDEST SWAP1 PUSH1 0x0 JUMPDEST PUSH1 0x3 DUP2 LT PUSH2 0x1655 JUMPI POP POP SWAP1 PUSH2 0x15A2 SWAP5 SWAP6 PUSH2 0x159D SWAP4 SWAP3 PUSH1 0x1 DUP1 PUSH1 0xA0 SHL SUB DUP1 PUSH1 0x1 SLOAD AND PUSH1 0x0 MSTORE PUSH1 0x7 PUSH1 0x20 MSTORE PUSH1 0x40 PUSH1 0x0 KECCAK256 SWAP1 DUP4 AND PUSH1 0x0 MSTORE PUSH1 0x20 MSTORE PUSH2 0x1648 PUSH1 0x40 PUSH1 0x0 KECCAK256 SWAP2 DUP3 SLOAD PUSH2 0x125C JUMP JUMPDEST SWAP1 SSTORE JUMPDEST SWAP6 SWAP5 POP SWAP1 SWAP2 PUSH2 0x1586 JUMP JUMPDEST PUSH1 0x1 DUP2 DUP2 ADD SLOAD SWAP1 SWAP2 SWAP1 PUSH1 0x1 PUSH1 0x1 PUSH1 0xA0 SHL SUB SWAP1 DUP2 AND DUP1 PUSH2 0x1677 JUMPI JUMPDEST POP POP ADD PUSH2 0x1601 JUMP JUMPDEST PUSH1 0x0 MSTORE PUSH1 0x20 SWAP1 PUSH1 0x7 DUP3 MSTORE PUSH1 0x40 SWAP2 DUP3 PUSH1 0x0 KECCAK256 SWAP2 DUP13 AND PUSH1 0x0 MSTORE MSTORE PUSH1 0x0 KECCAK256 PUSH2 0x169D DUP5 DUP3 SLOAD PUSH2 0x125C JUMP JUMPDEST SWAP1 SSTORE CODESIZE DUP1 PUSH2 0x166F JUMP JUMPDEST PUSH4 0x4E487B71 PUSH1 0xE0 SHL PUSH1 0x0 MSTORE PUSH1 0x12 PUSH1 0x4 MSTORE PUSH1 0x24 PUSH1 0x0 REVERT JUMPDEST POP POP SWAP1 PUSH2 0x159D SWAP2 PUSH2 0x15A2 SWAP5 SWAP6 PUSH1 0x1 DUP1 PUSH1 0xA0 SHL SUB DUP1 PUSH1 0x0 SLOAD AND PUSH1 0x0 MSTORE PUSH1 0x7 PUSH1 0x20 MSTORE PUSH1 0x40 PUSH1 0x0 KECCAK256 SWAP1 DUP3 AND PUSH1 0x0 MSTORE PUSH1 0x20 MSTORE PUSH1 0x40 PUSH1 0x0 KECCAK256 PUSH2 0x16FA DUP5 DUP3 SLOAD PUSH2 0x125C JUMP JUMPDEST SWAP1 SSTORE PUSH2 0x164B JUMP JUMPDEST PUSH1 0x1 DUP2 DUP2 ADD SLOAD PUSH1 0x1 PUSH1 0x1 PUSH1 0xA0 SHL SUB AND PUSH2 0x171E JUMPI JUMPDEST POP PUSH1 0x1 ADD PUSH2 0x15D2 JUMP JUMPDEST SWAP1 SWAP3 PUSH1 0x0 NOT DUP2 EQ PUSH2 0x1732 JUMPI ADD SWAP2 PUSH1 0x1 PUSH2 0x1715 JUMP JUMPDEST PUSH1 0x11 DUP4 PUSH4 0x4E487B71 PUSH1 0xE0 SHL PUSH1 0x0 MSTORE MSTORE PUSH1 0x24 PUSH1 0x0 REVERT JUMPDEST PUSH1 0x6 SLOAD PUSH1 0x1 PUSH1 0x1 PUSH1 0xA0 SHL SUB AND SWAP2 DUP3 ISZERO ISZERO DUP1 PUSH2 0x17B1 JUMPI JUMPDEST PUSH2 0x1766 JUMPI POP POP POP JUMP JUMPDEST DUP3 EXTCODESIZE ISZERO PUSH2 0x654 JUMPI PUSH1 0x40 MLOAD PUSH4 0x9680135 PUSH1 0xE0 SHL DUP2 MSTORE PUSH1 0x1 PUSH1 0x1 PUSH1 0xA0 SHL SUB SWAP3 SWAP1 SWAP3 AND PUSH1 0x4 DUP4 ADD MSTORE PUSH1 0x24 DUP3 ADD MSTORE SWAP1 PUSH1 0x0 SWAP1 DUP3 SWAP1 PUSH1 0x44 SWAP1 DUP3 SWAP1 DUP5 SWAP1 GAS CALL PUSH2 0x17A6 JUMPI POP JUMP JUMPDEST PUSH2 0x17AF SWAP1 PUSH2 0x10E4 JUMP JUMPDEST JUMP JUMPDEST POP DUP1 ISZERO ISZERO PUSH2 0x175D JUMP INVALID LOG2 PUSH5 0x6970667358 0x22 SLT KECCAK256 0x2E DUP1 0x2A PUSH13 0x9E9E385843EF072A66672E266C 0x24 ADDRESS XOR 0x4C RETURNDATASIZE DUP5 0xAE SWAP9 0xF9 0xE0 DUP15 0xC8 0xDC MUL PUSH29 0x64736F6C63430008180033000000000000000000000000000000000000 "},"methodIdentifiers":{"H2O()":"feaa524d","MAX_FEE_BPS()":"d55be8c6","PERMIT2()":"6afdd850","ROUTER_V2()":"0b41a6db","ROUTER_V3()":"71e042c2","USDC()":"89a30271","WLD()":"de061d66","claimFees(address)":"15a0ea6a","claimFeesBatch(address[])":"82f3ae79","emergencyWithdraw(address,uint256)":"95ccea67","feeOwners(uint256)":"8543f9ca","h2oFeeBps()":"50d5e40e","h2oFeePool(address)":"f1b2a7e7","owner()":"8da5cb5b","ownerFees(address,address)":"fc8a2b0a","setFeeOwners(address[3])":"501015bf","setFees(uint256,uint256)":"0b78f9c0","setOwner(address)":"13af4035","setVolumeRewards(address)":"24b4fd79","swapFeeBps()":"2ffdaf89","swapFeesToH2OV3(address,bytes,uint256)":"21be3345","swapV2(address,address,uint256,uint256,address[],uint256)":"9224c4ed","swapV3(address,address,uint256,uint256,bytes,uint256)":"0b56ef09","volumeRewards()":"705bd452"}}}}}