{"contracts/AcuaVolumeRewardsV2.sol":{"AcuaVolumeRewardsV2":{"abi":[{"inputs":[{"internalType":"address","name":"initialRouter","type":"address"}],"stateMutability":"nonpayable","type":"constructor"},{"anonymous":false,"inputs":[{"indexed":true,"internalType":"address","name":"by","type":"address"},{"indexed":false,"internalType":"uint256","name":"amount","type":"uint256"}],"name":"Funded","type":"event"},{"anonymous":false,"inputs":[{"indexed":true,"internalType":"address","name":"previousOwner","type":"address"},{"indexed":true,"internalType":"address","name":"newOwner","type":"address"}],"name":"OwnerChanged","type":"event"},{"anonymous":false,"inputs":[{"indexed":true,"internalType":"address","name":"user","type":"address"},{"indexed":true,"internalType":"uint256","name":"monthId","type":"uint256"},{"indexed":false,"internalType":"uint256","name":"uth2Amount","type":"uint256"}],"name":"RewardClaimed","type":"event"},{"anonymous":false,"inputs":[{"indexed":true,"internalType":"address","name":"router","type":"address"},{"indexed":false,"internalType":"bool","name":"authorised","type":"bool"}],"name":"RouterUpdated","type":"event"},{"anonymous":false,"inputs":[{"indexed":true,"internalType":"address","name":"user","type":"address"},{"indexed":true,"internalType":"address","name":"router","type":"address"},{"indexed":false,"internalType":"uint256","name":"usdcAmount","type":"uint256"},{"indexed":false,"internalType":"uint256","name":"swapCountForUser","type":"uint256"}],"name":"SwapTracked","type":"event"},{"anonymous":false,"inputs":[{"indexed":false,"internalType":"uint256","name":"numTiers","type":"uint256"}],"name":"TiersUpdated","type":"event"},{"anonymous":false,"inputs":[{"indexed":true,"internalType":"address","name":"user","type":"address"},{"indexed":true,"internalType":"uint256","name":"monthId","type":"uint256"},{"indexed":false,"internalType":"uint256","name":"added","type":"uint256"},{"indexed":false,"internalType":"uint256","name":"total","type":"uint256"}],"name":"VolumeRecorded","type":"event"},{"inputs":[],"name":"MAX_TIERS","outputs":[{"internalType":"uint256","name":"","type":"uint256"}],"stateMutability":"view","type":"function"},{"inputs":[],"name":"PERIOD","outputs":[{"internalType":"uint256","name":"","type":"uint256"}],"stateMutability":"view","type":"function"},{"inputs":[],"name":"UTH2","outputs":[{"internalType":"address","name":"","type":"address"}],"stateMutability":"view","type":"function"},{"inputs":[{"internalType":"address","name":"user","type":"address"},{"internalType":"uint256","name":"usdcAmount","type":"uint256"}],"name":"adminRecordVolume","outputs":[],"stateMutability":"nonpayable","type":"function"},{"inputs":[{"internalType":"uint256","name":"monthId","type":"uint256"}],"name":"claimRewards","outputs":[],"stateMutability":"nonpayable","type":"function"},{"inputs":[{"internalType":"address","name":"","type":"address"},{"internalType":"uint256","name":"","type":"uint256"},{"internalType":"uint256","name":"","type":"uint256"}],"name":"claimed","outputs":[{"internalType":"bool","name":"","type":"bool"}],"stateMutability":"view","type":"function"},{"inputs":[],"name":"currentMonth","outputs":[{"internalType":"uint256","name":"","type":"uint256"}],"stateMutability":"view","type":"function"},{"inputs":[{"internalType":"uint256","name":"amount","type":"uint256"}],"name":"emergencyWithdraw","outputs":[],"stateMutability":"nonpayable","type":"function"},{"inputs":[{"internalType":"uint256","name":"amount","type":"uint256"}],"name":"fundUTH2","outputs":[],"stateMutability":"nonpayable","type":"function"},{"inputs":[],"name":"getAllTiers","outputs":[{"internalType":"uint256[]","name":"thresholds","type":"uint256[]"},{"internalType":"uint256[]","name":"rewards","type":"uint256[]"}],"stateMutability":"view","type":"function"},{"inputs":[],"name":"getPeriodInfo","outputs":[{"internalType":"uint256","name":"monthId","type":"uint256"},{"internalType":"uint256","name":"periodStart","type":"uint256"},{"internalType":"uint256","name":"periodEnd","type":"uint256"},{"internalType":"uint256","name":"secondsLeft","type":"uint256"}],"stateMutability":"view","type":"function"},{"inputs":[],"name":"numTiers","outputs":[{"internalType":"uint256","name":"","type":"uint256"}],"stateMutability":"view","type":"function"},{"inputs":[],"name":"owner","outputs":[{"internalType":"address","name":"","type":"address"}],"stateMutability":"view","type":"function"},{"inputs":[{"internalType":"address","name":"user","type":"address"}],"name":"pendingNow","outputs":[{"internalType":"uint256","name":"uth2Amount","type":"uint256"},{"internalType":"uint256","name":"userVolume","type":"uint256"},{"internalType":"uint8[]","name":"tierStatus","type":"uint8[]"}],"stateMutability":"view","type":"function"},{"inputs":[{"internalType":"address","name":"user","type":"address"},{"internalType":"uint256","name":"monthId","type":"uint256"}],"name":"pendingRewards","outputs":[{"internalType":"uint256","name":"uth2Amount","type":"uint256"},{"internalType":"uint256","name":"userVolume","type":"uint256"},{"internalType":"uint8[]","name":"tierStatus","type":"uint8[]"}],"stateMutability":"view","type":"function"},{"inputs":[{"internalType":"address","name":"user","type":"address"},{"internalType":"uint256","name":"usdcAmount","type":"uint256"}],"name":"recordSwap","outputs":[],"stateMutability":"nonpayable","type":"function"},{"inputs":[{"internalType":"address","name":"","type":"address"}],"name":"routers","outputs":[{"internalType":"bool","name":"","type":"bool"}],"stateMutability":"view","type":"function"},{"inputs":[{"internalType":"address","name":"newOwner","type":"address"}],"name":"setOwner","outputs":[],"stateMutability":"nonpayable","type":"function"},{"inputs":[{"internalType":"address","name":"router","type":"address"},{"internalType":"bool","name":"authorised","type":"bool"}],"name":"setRouter","outputs":[],"stateMutability":"nonpayable","type":"function"},{"inputs":[{"internalType":"uint256","name":"n","type":"uint256"},{"internalType":"uint256[8]","name":"thresholds","type":"uint256[8]"},{"internalType":"uint256[8]","name":"rewards","type":"uint256[8]"}],"name":"setTiers","outputs":[],"stateMutability":"nonpayable","type":"function"},{"inputs":[{"internalType":"address","name":"","type":"address"}],"name":"swapCount","outputs":[{"internalType":"uint256","name":"","type":"uint256"}],"stateMutability":"view","type":"function"},{"inputs":[{"internalType":"uint256","name":"","type":"uint256"}],"name":"tierRewards","outputs":[{"internalType":"uint256","name":"","type":"uint256"}],"stateMutability":"view","type":"function"},{"inputs":[{"internalType":"uint256","name":"","type":"uint256"}],"name":"tierThresholds","outputs":[{"internalType":"uint256","name":"","type":"uint256"}],"stateMutability":"view","type":"function"},{"inputs":[],"name":"totalDistributed","outputs":[{"internalType":"uint256","name":"","type":"uint256"}],"stateMutability":"view","type":"function"},{"inputs":[],"name":"totalSwapsRecorded","outputs":[{"internalType":"uint256","name":"","type":"uint256"}],"stateMutability":"view","type":"function"},{"inputs":[{"internalType":"address","name":"","type":"address"},{"internalType":"uint256","name":"","type":"uint256"}],"name":"volume","outputs":[{"internalType":"uint256","name":"","type":"uint256"}],"stateMutability":"view","type":"function"}],"evm":{"bytecode":{"linkReferences":{},"object":"60803461011157601f61132d38819003918201601f19168301916001600160401b038311848410176101165780849260209460405283398101031261011157516001600160a01b03811690819003610111576004600255600080546001600160a01b03191633179055806100c7575b620f4240600355629896806004556305f5e100600555633b9aca00600655655af3107a4000600b5566038d7ea4c68000600c55662386f26fc10000600d5567016345785d8a0000600e55604051611200908161012d8239f35b8060005260016020526040600020600160ff198254161790557fab5814e9f0dc78998a367cdeb77f1143370431cce307f90adb6db02f49fd768a602060405160018152a23861006e565b600080fd5b634e487b7160e01b600052604160045260246000fdfe608060408181526004918236101561001657600080fd5b600092833560e01c91826307c3d4af14610ed4575081630962ef7914610bf65781630968013514610a9057816313af4035146109ec5781631daddb5e1461094a5781633193dcdc1461091257816340445a4f146108f35781635312ea8e14610842578163556c448d146108165781636099ecb2146107ec5781636471af831461075057816376e77df01461071057816380dd9a1f146106d2578163862a4d47146106b25781638d227fc0146105f85781638da5cb5b146105d05781639220162f146104d3578163a100d69d146104a7578163a70c1aba14610466578163aa62f83d146102e7578163b4d1d795146102c9578163c3c646741461020157508063efca2eed146101e3578063f6c08a2e146101b5578063faf8ef98146101645763fcb70a321461014357600080fd5b346101605781600319360112610160576020906017549051908152f35b5080fd5b50346101605760603660031901126101605760209160ff9082906001600160a01b0361018e610eef565b16815260148552818120602435825285528181206044358252855220541690519015158152f35b503461016057816003193601126101605760209051739ea8653640e22a5b69887985bb75d496dc97022a8152f35b50346101605781600319360112610160576020906016549051908152f35b919050346102c557806003193601126102c55761021c610eef565b90602435918215158093036102c15784546001600160a01b039190610244908316331461100a565b1692831561029157507fab5814e9f0dc78998a367cdeb77f1143370431cce307f90adb6db02f49fd768a916020918486526001835280862060ff1981541660ff841617905551908152a280f35b6020606492519162461bcd60e51b8352820152600b60248201526a2d32b937903937baba32b960a91b6044820152fd5b8480fd5b8280fd5b5050346101605781600319360112610160576020905162278d008152f35b919050346102c5576102203660031901126102c5578135916101243681116102c15736610224116102c15761032660018060a01b03865416331461100a565b60019160018510158061045b575b156104275760015b8581106103a457505083600255845b6008811061038157857f2f291eaf494dc7eca20457441a1df7d9119f0c0d764309daf9cb6b148810ee366020878751908152a180f35b8061038c84926111b8565b3581600301558060051b83013581600b01550161034b565b6103ad816111b8565b356000198201828111610414576103c3906111b8565b3510156103d157830161033c565b845162461bcd60e51b8152602081840152601860248201527f5468726573686f6c6473206e6f7420617363656e64696e6700000000000000006044820152606490fd5b634e487b7160e01b895260118452602489fd5b606490602085519162461bcd60e51b8352820152600e60248201526d109859081d1a595c8818dbdd5b9d60921b6044820152fd5b506008851115610334565b50503461016057806003193601126101605760209181906001600160a01b0361048d610eef565b168152601384528181206024358252845220549051908152f35b9050346102c55760203660031901126102c5573560088110156102c55760209250600301549051908152f35b919050346102c5576020806003193601126105cc57823591821561059d578051936323b872dd60e01b85523390850152306024850152826044850152818460648188739ea8653640e22a5b69887985bb75d496dc97022a5af1938415610593577f5af8184bef8e4b45eb9f6ed7734d04da38ced226495548f46e0c8ff8d7d9a5249394610566575b50519283523392a280f35b61058590833d851161058c575b61057d8183610fab565b810190610fe3565b503861055b565b503d610573565b81513d87823e3d90fd5b5162461bcd60e51b81529283015250600b60248201526a16995c9bc8185b5bdd5b9d60aa1b6044820152606490fd5b8380fd5b505034610160578160031936011261016057905490516001600160a01b039091168152602090f35b8284346106af57806003193601126106af5762278d008042049281840292848404831485151715610689576001850180861161069c57838102938185041490151715610689574283111561067f574283039083821161066c575060809550925b815194855260208501528301526060820152f35b634e487b7160e01b815260118752602490fd5b6080955092610658565b634e487b7160e01b815260118652602490fd5b634e487b7160e01b825260118752602482fd5b80fd5b5050346101605781600319360112610160576020905162278d0042048152f35b5050346101605760203660031901126101605760209160ff9082906001600160a01b036106fd610eef565b1681526001855220541690519015158152f35b5050346101605760203660031901126101605761074c9061073e610732610eef565b62278d00420490611084565b909391925193849384610f0a565b0390f35b8284346106af57806003193601126106af576002549261076f84611186565b9361077981611186565b92805b8281106107a75785518681528061074c87610799838b018c610f54565b908382036020850152610f54565b60088110156107d95780600191600301546107c2828a61105a565b5280600b01546107d2828861105a565b520161077c565b634e487b7160e01b825260328452602482fd5b50503461016057806003193601126101605761074c9061073e61080d610eef565b60243590611084565b9050346102c55760203660031901126102c5573560088110156102c55760209250600b01549051908152f35b919050346102c55760203660031901126102c55782546108a4926020916001600160a01b031661087333821461100a565b835163a9059cbb60e01b81526001600160a01b03909116828201908152913560208301529384918291604090910190565b038186739ea8653640e22a5b69887985bb75d496dc97022a5af19081156108ea57506108ce575080f35b6108e69060203d60201161058c5761057d8183610fab565b5080f35b513d84823e3d90fd5b5050346101605781600319360112610160576020906002549051908152f35b5050346101605760203660031901126101605760209181906001600160a01b0361093a610eef565b1681526015845220549051908152f35b505034610160578060031936011261016057610964610eef565b907fbe136f55822a8400613c511fe3a4ab8aeaa1df9c6d834afd7d8531039e327b096024359160018060a01b0361099f81875416331461100a565b62278d00420494169283865260136020528186208587526020528186206109c7828254610f88565b905583865260136020528186208587526020528186205482519182526020820152a380f35b9050346102c55760203660031901126102c557610a07610eef565b8354916001600160a01b0380841692610a2133851461100a565b16938415610a6157505082907fb532073b38c83145e3e5135377a08bf9aab55bc0fd7c1179cd4fb995d2a5159c8580a36001600160a01b03191617815580f35b906020606492519162461bcd60e51b835282015260096024820152682d32b9379030b2323960b91b6044820152fd5b919050346102c557806003193601126102c557610aab610eef565b602435903385526020936001855260ff84872054168015610be3575b15610baf57506001600160a01b0316808552601584528285208054919391610aee90610ffb565b9055610afb601754610ffb565b601755828552601584528085205481519083825285820152837fe53357d432a19ca14e65a9539aa1973bdff89a75a8a16f67b4bb8aac8ebc7b7d833393a381610b42578480f35b7fbe136f55822a8400613c511fe3a4ab8aeaa1df9c6d834afd7d8531039e327b099162278d00420494848752601381528287208688528152828720610b88838254610f88565b905584875260138152828720868852815282872054908351928352820152a3388080808480f35b835162461bcd60e51b8152908101859052600e60248201526d139bdd08185d5d1a1bdc9a5e995960921b6044820152606490fd5b5085546001600160a01b03163314610ac7565b838334610160576020806003193601126102c55783359133845260138252808420838552825280842054938415610e9a578092815b600254811015610ccf576008811015610cbc57806003015487101580610c97575b610c59575b600101610c2b565b93610c8f60019133855260148452858520888652845285852087865284528585208360ff1982541617905586600b015490610f88565b949050610c51565b50338352601482528383208684528252838320818452825260ff848420541615610c4c565b634e487b7160e01b835260328852602483fd5b50838591888215610e5a5785516370a0823160e01b81523082820152739ea8653640e22a5b69887985bb75d496dc97022a91908381602481865afa908115610e50579085918891610e1b575b5010610dcc5783610d669697928492610d3683601654610f88565b601655845163a9059cbb60e01b81523391810191825260208201939093529197889283918b918391604090910190565b03925af1948515610dc2577ff01da32686223933d8a18a391060918c7f11a3648639edd87ae013e2e2731743939495610da5575b50519283523392a380f35b610dbb90833d851161058c5761057d8183610fab565b5086610d9a565b81513d88823e3d90fd5b865162461bcd60e51b81529081018390526024808201527f496e73756666696369656e742055544832202d207761697420666f7220726573604482015263746f636b60e01b6064820152608490fd5b809250858092503d8311610e49575b610e348183610fab565b81010312610e455784905189610d1b565b8680fd5b503d610e2a565b88513d89823e3d90fd5b8160649287519262461bcd60e51b845283015260248201527f416c6c20746965727320636c61696d6564206f72206e6f7420726561636865646044820152fd5b815162461bcd60e51b8152808701849052601460248201527309cde40ecded8eadaca40e8d0d2e640dadedce8d60631b6044820152606490fd5b84903461016057816003193601126101605780600860209252f35b600435906001600160a01b0382168203610f0557565b600080fd5b6080602091606081019381528294838201526060604082015285518094520193019160005b828110610f3d575050505090565b835160ff1685529381019392810192600101610f2f565b90815180825260208080930193019160005b828110610f74575050505090565b835185529381019392810192600101610f66565b91908201809211610f9557565b634e487b7160e01b600052601160045260246000fd5b90601f8019910116810190811067ffffffffffffffff821117610fcd57604052565b634e487b7160e01b600052604160045260246000fd5b90816020910312610f0557518015158103610f055790565b6000198114610f955760010190565b1561101157565b60405162461bcd60e51b81526020600482015260096024820152682737ba1037bbb732b960b91b6044820152606490fd5b67ffffffffffffffff8111610fcd5760051b60200190565b805182101561106e5760209160051b010190565b634e487b7160e01b600052603260045260246000fd5b9060009260009260018060a01b03169182845260206013815260409182862081875282528286205495600293600254936110bd85611042565b936110ca83519586610fab565b858552601f196110d987611042565b0136838701378498845b8781106110f557505050505050505050565b81865260148452848620838752845284862081875284528486205460ff161561112e5780896111266001938a61105a565b525b016110e3565b60088110156111725780600301548c101561114c575b600190611128565b9b61116a6001918e8361115f828c61105a565b52600b015490610f88565b9c9050611144565b634e487b7160e01b86526032600452602486fd5b9061119082611042565b61119d6040519182610fab565b82815280926111ae601f1991611042565b0190602036910137565b600881101561106e5760051b6024019056fea2646970667358221220cbada725310d22e5dd06db0bfe807a3168b097dd014a59375b6010b89d52092664736f6c63430008180033","opcodes":"PUSH1 0x80 CALLVALUE PUSH2 0x111 JUMPI PUSH1 0x1F PUSH2 0x132D CODESIZE DUP2 SWAP1 SUB SWAP2 DUP3 ADD PUSH1 0x1F NOT AND DUP4 ADD SWAP2 PUSH1 0x1 PUSH1 0x1 PUSH1 0x40 SHL SUB DUP4 GT DUP5 DUP5 LT OR PUSH2 0x116 JUMPI DUP1 DUP5 SWAP3 PUSH1 0x20 SWAP5 PUSH1 0x40 MSTORE DUP4 CODECOPY DUP2 ADD SUB SLT PUSH2 0x111 JUMPI MLOAD PUSH1 0x1 PUSH1 0x1 PUSH1 0xA0 SHL SUB DUP2 AND SWAP1 DUP2 SWAP1 SUB PUSH2 0x111 JUMPI PUSH1 0x4 PUSH1 0x2 SSTORE PUSH1 0x0 DUP1 SLOAD PUSH1 0x1 PUSH1 0x1 PUSH1 0xA0 SHL SUB NOT AND CALLER OR SWAP1 SSTORE DUP1 PUSH2 0xC7 JUMPI JUMPDEST PUSH3 0xF4240 PUSH1 0x3 SSTORE PUSH3 0x989680 PUSH1 0x4 SSTORE PUSH4 0x5F5E100 PUSH1 0x5 SSTORE PUSH4 0x3B9ACA00 PUSH1 0x6 SSTORE PUSH6 0x5AF3107A4000 PUSH1 0xB SSTORE PUSH7 0x38D7EA4C68000 PUSH1 0xC SSTORE PUSH7 0x2386F26FC10000 PUSH1 0xD SSTORE PUSH8 0x16345785D8A0000 PUSH1 0xE SSTORE PUSH1 0x40 MLOAD PUSH2 0x1200 SWAP1 DUP2 PUSH2 0x12D DUP3 CODECOPY RETURN JUMPDEST DUP1 PUSH1 0x0 MSTORE PUSH1 0x1 PUSH1 0x20 MSTORE PUSH1 0x40 PUSH1 0x0 KECCAK256 PUSH1 0x1 PUSH1 0xFF NOT DUP3 SLOAD AND OR SWAP1 SSTORE PUSH32 0xAB5814E9F0DC78998A367CDEB77F1143370431CCE307F90ADB6DB02F49FD768A PUSH1 0x20 PUSH1 0x40 MLOAD PUSH1 0x1 DUP2 MSTORE LOG2 CODESIZE PUSH2 0x6E JUMP JUMPDEST PUSH1 0x0 DUP1 REVERT JUMPDEST PUSH4 0x4E487B71 PUSH1 0xE0 SHL PUSH1 0x0 MSTORE PUSH1 0x41 PUSH1 0x4 MSTORE PUSH1 0x24 PUSH1 0x0 REVERT INVALID PUSH1 0x80 PUSH1 0x40 DUP2 DUP2 MSTORE PUSH1 0x4 SWAP2 DUP3 CALLDATASIZE LT ISZERO PUSH2 0x16 JUMPI PUSH1 0x0 DUP1 REVERT JUMPDEST PUSH1 0x0 SWAP3 DUP4 CALLDATALOAD PUSH1 0xE0 SHR SWAP2 DUP3 PUSH4 0x7C3D4AF EQ PUSH2 0xED4 JUMPI POP DUP2 PUSH4 0x962EF79 EQ PUSH2 0xBF6 JUMPI DUP2 PUSH4 0x9680135 EQ PUSH2 0xA90 JUMPI DUP2 PUSH4 0x13AF4035 EQ PUSH2 0x9EC JUMPI DUP2 PUSH4 0x1DADDB5E EQ PUSH2 0x94A JUMPI DUP2 PUSH4 0x3193DCDC EQ PUSH2 0x912 JUMPI DUP2 PUSH4 0x40445A4F EQ PUSH2 0x8F3 JUMPI DUP2 PUSH4 0x5312EA8E EQ PUSH2 0x842 JUMPI DUP2 PUSH4 0x556C448D EQ PUSH2 0x816 JUMPI DUP2 PUSH4 0x6099ECB2 EQ PUSH2 0x7EC JUMPI DUP2 PUSH4 0x6471AF83 EQ PUSH2 0x750 JUMPI DUP2 PUSH4 0x76E77DF0 EQ PUSH2 0x710 JUMPI DUP2 PUSH4 0x80DD9A1F EQ PUSH2 0x6D2 JUMPI DUP2 PUSH4 0x862A4D47 EQ PUSH2 0x6B2 JUMPI DUP2 PUSH4 0x8D227FC0 EQ PUSH2 0x5F8 JUMPI DUP2 PUSH4 0x8DA5CB5B EQ PUSH2 0x5D0 JUMPI DUP2 PUSH4 0x9220162F EQ PUSH2 0x4D3 JUMPI DUP2 PUSH4 0xA100D69D EQ PUSH2 0x4A7 JUMPI DUP2 PUSH4 0xA70C1ABA EQ PUSH2 0x466 JUMPI DUP2 PUSH4 0xAA62F83D EQ PUSH2 0x2E7 JUMPI DUP2 PUSH4 0xB4D1D795 EQ PUSH2 0x2C9 JUMPI DUP2 PUSH4 0xC3C64674 EQ PUSH2 0x201 JUMPI POP DUP1 PUSH4 0xEFCA2EED EQ PUSH2 0x1E3 JUMPI DUP1 PUSH4 0xF6C08A2E EQ PUSH2 0x1B5 JUMPI DUP1 PUSH4 0xFAF8EF98 EQ PUSH2 0x164 JUMPI PUSH4 0xFCB70A32 EQ PUSH2 0x143 JUMPI PUSH1 0x0 DUP1 REVERT JUMPDEST CALLVALUE PUSH2 0x160 JUMPI DUP2 PUSH1 0x3 NOT CALLDATASIZE ADD SLT PUSH2 0x160 JUMPI PUSH1 0x20 SWAP1 PUSH1 0x17 SLOAD SWAP1 MLOAD SWAP1 DUP2 MSTORE RETURN JUMPDEST POP DUP1 REVERT JUMPDEST POP CALLVALUE PUSH2 0x160 JUMPI PUSH1 0x60 CALLDATASIZE PUSH1 0x3 NOT ADD SLT PUSH2 0x160 JUMPI PUSH1 0x20 SWAP2 PUSH1 0xFF SWAP1 DUP3 SWAP1 PUSH1 0x1 PUSH1 0x1 PUSH1 0xA0 SHL SUB PUSH2 0x18E PUSH2 0xEEF JUMP JUMPDEST AND DUP2 MSTORE PUSH1 0x14 DUP6 MSTORE DUP2 DUP2 KECCAK256 PUSH1 0x24 CALLDATALOAD DUP3 MSTORE DUP6 MSTORE DUP2 DUP2 KECCAK256 PUSH1 0x44 CALLDATALOAD DUP3 MSTORE DUP6 MSTORE KECCAK256 SLOAD AND SWAP1 MLOAD SWAP1 ISZERO ISZERO DUP2 MSTORE RETURN JUMPDEST POP CALLVALUE PUSH2 0x160 JUMPI DUP2 PUSH1 0x3 NOT CALLDATASIZE ADD SLT PUSH2 0x160 JUMPI PUSH1 0x20 SWAP1 MLOAD PUSH20 0x9EA8653640E22A5B69887985BB75D496DC97022A DUP2 MSTORE RETURN JUMPDEST POP CALLVALUE PUSH2 0x160 JUMPI DUP2 PUSH1 0x3 NOT CALLDATASIZE ADD SLT PUSH2 0x160 JUMPI PUSH1 0x20 SWAP1 PUSH1 0x16 SLOAD SWAP1 MLOAD SWAP1 DUP2 MSTORE RETURN JUMPDEST SWAP2 SWAP1 POP CALLVALUE PUSH2 0x2C5 JUMPI DUP1 PUSH1 0x3 NOT CALLDATASIZE ADD SLT PUSH2 0x2C5 JUMPI PUSH2 0x21C PUSH2 0xEEF JUMP JUMPDEST SWAP1 PUSH1 0x24 CALLDATALOAD SWAP2 DUP3 ISZERO ISZERO DUP1 SWAP4 SUB PUSH2 0x2C1 JUMPI DUP5 SLOAD PUSH1 0x1 PUSH1 0x1 PUSH1 0xA0 SHL SUB SWAP2 SWAP1 PUSH2 0x244 SWAP1 DUP4 AND CALLER EQ PUSH2 0x100A JUMP JUMPDEST AND SWAP3 DUP4 ISZERO PUSH2 0x291 JUMPI POP PUSH32 0xAB5814E9F0DC78998A367CDEB77F1143370431CCE307F90ADB6DB02F49FD768A SWAP2 PUSH1 0x20 SWAP2 DUP5 DUP7 MSTORE PUSH1 0x1 DUP4 MSTORE DUP1 DUP7 KECCAK256 PUSH1 0xFF NOT DUP2 SLOAD AND PUSH1 0xFF DUP5 AND OR SWAP1 SSTORE MLOAD SWAP1 DUP2 MSTORE LOG2 DUP1 RETURN JUMPDEST PUSH1 0x20 PUSH1 0x64 SWAP3 MLOAD SWAP2 PUSH3 0x461BCD PUSH1 0xE5 SHL DUP4 MSTORE DUP3 ADD MSTORE PUSH1 0xB PUSH1 0x24 DUP3 ADD MSTORE PUSH11 0x2D32B937903937BABA32B9 PUSH1 0xA9 SHL PUSH1 0x44 DUP3 ADD MSTORE REVERT JUMPDEST DUP5 DUP1 REVERT JUMPDEST DUP3 DUP1 REVERT JUMPDEST POP POP CALLVALUE PUSH2 0x160 JUMPI DUP2 PUSH1 0x3 NOT CALLDATASIZE ADD SLT PUSH2 0x160 JUMPI PUSH1 0x20 SWAP1 MLOAD PUSH3 0x278D00 DUP2 MSTORE RETURN JUMPDEST SWAP2 SWAP1 POP CALLVALUE PUSH2 0x2C5 JUMPI PUSH2 0x220 CALLDATASIZE PUSH1 0x3 NOT ADD SLT PUSH2 0x2C5 JUMPI DUP2 CALLDATALOAD SWAP2 PUSH2 0x124 CALLDATASIZE DUP2 GT PUSH2 0x2C1 JUMPI CALLDATASIZE PUSH2 0x224 GT PUSH2 0x2C1 JUMPI PUSH2 0x326 PUSH1 0x1 DUP1 PUSH1 0xA0 SHL SUB DUP7 SLOAD AND CALLER EQ PUSH2 0x100A JUMP JUMPDEST PUSH1 0x1 SWAP2 PUSH1 0x1 DUP6 LT ISZERO DUP1 PUSH2 0x45B JUMPI JUMPDEST ISZERO PUSH2 0x427 JUMPI PUSH1 0x1 JUMPDEST DUP6 DUP2 LT PUSH2 0x3A4 JUMPI POP POP DUP4 PUSH1 0x2 SSTORE DUP5 JUMPDEST PUSH1 0x8 DUP2 LT PUSH2 0x381 JUMPI DUP6 PUSH32 0x2F291EAF494DC7ECA20457441A1DF7D9119F0C0D764309DAF9CB6B148810EE36 PUSH1 0x20 DUP8 DUP8 MLOAD SWAP1 DUP2 MSTORE LOG1 DUP1 RETURN JUMPDEST DUP1 PUSH2 0x38C DUP5 SWAP3 PUSH2 0x11B8 JUMP JUMPDEST CALLDATALOAD DUP2 PUSH1 0x3 ADD SSTORE DUP1 PUSH1 0x5 SHL DUP4 ADD CALLDATALOAD DUP2 PUSH1 0xB ADD SSTORE ADD PUSH2 0x34B JUMP JUMPDEST PUSH2 0x3AD DUP2 PUSH2 0x11B8 JUMP JUMPDEST CALLDATALOAD PUSH1 0x0 NOT DUP3 ADD DUP3 DUP2 GT PUSH2 0x414 JUMPI PUSH2 0x3C3 SWAP1 PUSH2 0x11B8 JUMP JUMPDEST CALLDATALOAD LT ISZERO PUSH2 0x3D1 JUMPI DUP4 ADD PUSH2 0x33C JUMP JUMPDEST DUP5 MLOAD PUSH3 0x461BCD PUSH1 0xE5 SHL DUP2 MSTORE PUSH1 0x20 DUP2 DUP5 ADD MSTORE PUSH1 0x18 PUSH1 0x24 DUP3 ADD MSTORE PUSH32 0x5468726573686F6C6473206E6F7420617363656E64696E670000000000000000 PUSH1 0x44 DUP3 ADD MSTORE PUSH1 0x64 SWAP1 REVERT JUMPDEST PUSH4 0x4E487B71 PUSH1 0xE0 SHL DUP10 MSTORE PUSH1 0x11 DUP5 MSTORE PUSH1 0x24 DUP10 REVERT JUMPDEST PUSH1 0x64 SWAP1 PUSH1 0x20 DUP6 MLOAD SWAP2 PUSH3 0x461BCD PUSH1 0xE5 SHL DUP4 MSTORE DUP3 ADD MSTORE PUSH1 0xE PUSH1 0x24 DUP3 ADD MSTORE PUSH14 0x109859081D1A595C8818DBDD5B9D PUSH1 0x92 SHL PUSH1 0x44 DUP3 ADD MSTORE REVERT JUMPDEST POP PUSH1 0x8 DUP6 GT ISZERO PUSH2 0x334 JUMP JUMPDEST POP POP CALLVALUE PUSH2 0x160 JUMPI DUP1 PUSH1 0x3 NOT CALLDATASIZE ADD SLT PUSH2 0x160 JUMPI PUSH1 0x20 SWAP2 DUP2 SWAP1 PUSH1 0x1 PUSH1 0x1 PUSH1 0xA0 SHL SUB PUSH2 0x48D PUSH2 0xEEF JUMP JUMPDEST AND DUP2 MSTORE PUSH1 0x13 DUP5 MSTORE DUP2 DUP2 KECCAK256 PUSH1 0x24 CALLDATALOAD DUP3 MSTORE DUP5 MSTORE KECCAK256 SLOAD SWAP1 MLOAD SWAP1 DUP2 MSTORE RETURN JUMPDEST SWAP1 POP CALLVALUE PUSH2 0x2C5 JUMPI PUSH1 0x20 CALLDATASIZE PUSH1 0x3 NOT ADD SLT PUSH2 0x2C5 JUMPI CALLDATALOAD PUSH1 0x8 DUP2 LT ISZERO PUSH2 0x2C5 JUMPI PUSH1 0x20 SWAP3 POP PUSH1 0x3 ADD SLOAD SWAP1 MLOAD SWAP1 DUP2 MSTORE RETURN JUMPDEST SWAP2 SWAP1 POP CALLVALUE PUSH2 0x2C5 JUMPI PUSH1 0x20 DUP1 PUSH1 0x3 NOT CALLDATASIZE ADD SLT PUSH2 0x5CC JUMPI DUP3 CALLDATALOAD SWAP2 DUP3 ISZERO PUSH2 0x59D JUMPI DUP1 MLOAD SWAP4 PUSH4 0x23B872DD PUSH1 0xE0 SHL DUP6 MSTORE CALLER SWAP1 DUP6 ADD MSTORE ADDRESS PUSH1 0x24 DUP6 ADD MSTORE DUP3 PUSH1 0x44 DUP6 ADD MSTORE DUP2 DUP5 PUSH1 0x64 DUP2 DUP9 PUSH20 0x9EA8653640E22A5B69887985BB75D496DC97022A GAS CALL SWAP4 DUP5 ISZERO PUSH2 0x593 JUMPI PUSH32 0x5AF8184BEF8E4B45EB9F6ED7734D04DA38CED226495548F46E0C8FF8D7D9A524 SWAP4 SWAP5 PUSH2 0x566 JUMPI JUMPDEST POP MLOAD SWAP3 DUP4 MSTORE CALLER SWAP3 LOG2 DUP1 RETURN JUMPDEST PUSH2 0x585 SWAP1 DUP4 RETURNDATASIZE DUP6 GT PUSH2 0x58C JUMPI JUMPDEST PUSH2 0x57D DUP2 DUP4 PUSH2 0xFAB JUMP JUMPDEST DUP2 ADD SWAP1 PUSH2 0xFE3 JUMP JUMPDEST POP CODESIZE PUSH2 0x55B JUMP JUMPDEST POP RETURNDATASIZE PUSH2 0x573 JUMP JUMPDEST DUP2 MLOAD RETURNDATASIZE DUP8 DUP3 RETURNDATACOPY RETURNDATASIZE SWAP1 REVERT JUMPDEST MLOAD PUSH3 0x461BCD PUSH1 0xE5 SHL DUP2 MSTORE SWAP3 DUP4 ADD MSTORE POP PUSH1 0xB PUSH1 0x24 DUP3 ADD MSTORE PUSH11 0x16995C9BC8185B5BDD5B9D PUSH1 0xAA SHL PUSH1 0x44 DUP3 ADD MSTORE PUSH1 0x64 SWAP1 REVERT JUMPDEST DUP4 DUP1 REVERT JUMPDEST POP POP CALLVALUE PUSH2 0x160 JUMPI DUP2 PUSH1 0x3 NOT CALLDATASIZE ADD SLT PUSH2 0x160 JUMPI SWAP1 SLOAD SWAP1 MLOAD PUSH1 0x1 PUSH1 0x1 PUSH1 0xA0 SHL SUB SWAP1 SWAP2 AND DUP2 MSTORE PUSH1 0x20 SWAP1 RETURN JUMPDEST DUP3 DUP5 CALLVALUE PUSH2 0x6AF JUMPI DUP1 PUSH1 0x3 NOT CALLDATASIZE ADD SLT PUSH2 0x6AF JUMPI PUSH3 0x278D00 DUP1 TIMESTAMP DIV SWAP3 DUP2 DUP5 MUL SWAP3 DUP5 DUP5 DIV DUP4 EQ DUP6 ISZERO OR ISZERO PUSH2 0x689 JUMPI PUSH1 0x1 DUP6 ADD DUP1 DUP7 GT PUSH2 0x69C JUMPI DUP4 DUP2 MUL SWAP4 DUP2 DUP6 DIV EQ SWAP1 ISZERO OR ISZERO PUSH2 0x689 JUMPI TIMESTAMP DUP4 GT ISZERO PUSH2 0x67F JUMPI TIMESTAMP DUP4 SUB SWAP1 DUP4 DUP3 GT PUSH2 0x66C JUMPI POP PUSH1 0x80 SWAP6 POP SWAP3 JUMPDEST DUP2 MLOAD SWAP5 DUP6 MSTORE PUSH1 0x20 DUP6 ADD MSTORE DUP4 ADD MSTORE PUSH1 0x60 DUP3 ADD MSTORE RETURN JUMPDEST PUSH4 0x4E487B71 PUSH1 0xE0 SHL DUP2 MSTORE PUSH1 0x11 DUP8 MSTORE PUSH1 0x24 SWAP1 REVERT JUMPDEST PUSH1 0x80 SWAP6 POP SWAP3 PUSH2 0x658 JUMP JUMPDEST PUSH4 0x4E487B71 PUSH1 0xE0 SHL DUP2 MSTORE PUSH1 0x11 DUP7 MSTORE PUSH1 0x24 SWAP1 REVERT JUMPDEST PUSH4 0x4E487B71 PUSH1 0xE0 SHL DUP3 MSTORE PUSH1 0x11 DUP8 MSTORE PUSH1 0x24 DUP3 REVERT JUMPDEST DUP1 REVERT JUMPDEST POP POP CALLVALUE PUSH2 0x160 JUMPI DUP2 PUSH1 0x3 NOT CALLDATASIZE ADD SLT PUSH2 0x160 JUMPI PUSH1 0x20 SWAP1 MLOAD PUSH3 0x278D00 TIMESTAMP DIV DUP2 MSTORE RETURN JUMPDEST POP POP CALLVALUE PUSH2 0x160 JUMPI PUSH1 0x20 CALLDATASIZE PUSH1 0x3 NOT ADD SLT PUSH2 0x160 JUMPI PUSH1 0x20 SWAP2 PUSH1 0xFF SWAP1 DUP3 SWAP1 PUSH1 0x1 PUSH1 0x1 PUSH1 0xA0 SHL SUB PUSH2 0x6FD PUSH2 0xEEF JUMP JUMPDEST AND DUP2 MSTORE PUSH1 0x1 DUP6 MSTORE KECCAK256 SLOAD AND SWAP1 MLOAD SWAP1 ISZERO ISZERO DUP2 MSTORE RETURN JUMPDEST POP POP CALLVALUE PUSH2 0x160 JUMPI PUSH1 0x20 CALLDATASIZE PUSH1 0x3 NOT ADD SLT PUSH2 0x160 JUMPI PUSH2 0x74C SWAP1 PUSH2 0x73E PUSH2 0x732 PUSH2 0xEEF JUMP JUMPDEST PUSH3 0x278D00 TIMESTAMP DIV SWAP1 PUSH2 0x1084 JUMP JUMPDEST SWAP1 SWAP4 SWAP2 SWAP3 MLOAD SWAP4 DUP5 SWAP4 DUP5 PUSH2 0xF0A JUMP JUMPDEST SUB SWAP1 RETURN JUMPDEST DUP3 DUP5 CALLVALUE PUSH2 0x6AF JUMPI DUP1 PUSH1 0x3 NOT CALLDATASIZE ADD SLT PUSH2 0x6AF JUMPI PUSH1 0x2 SLOAD SWAP3 PUSH2 0x76F DUP5 PUSH2 0x1186 JUMP JUMPDEST SWAP4 PUSH2 0x779 DUP2 PUSH2 0x1186 JUMP JUMPDEST SWAP3 DUP1 JUMPDEST DUP3 DUP2 LT PUSH2 0x7A7 JUMPI DUP6 MLOAD DUP7 DUP2 MSTORE DUP1 PUSH2 0x74C DUP8 PUSH2 0x799 DUP4 DUP12 ADD DUP13 PUSH2 0xF54 JUMP JUMPDEST SWAP1 DUP4 DUP3 SUB PUSH1 0x20 DUP6 ADD MSTORE PUSH2 0xF54 JUMP JUMPDEST PUSH1 0x8 DUP2 LT ISZERO PUSH2 0x7D9 JUMPI DUP1 PUSH1 0x1 SWAP2 PUSH1 0x3 ADD SLOAD PUSH2 0x7C2 DUP3 DUP11 PUSH2 0x105A JUMP JUMPDEST MSTORE DUP1 PUSH1 0xB ADD SLOAD PUSH2 0x7D2 DUP3 DUP9 PUSH2 0x105A JUMP JUMPDEST MSTORE ADD PUSH2 0x77C JUMP JUMPDEST PUSH4 0x4E487B71 PUSH1 0xE0 SHL DUP3 MSTORE PUSH1 0x32 DUP5 MSTORE PUSH1 0x24 DUP3 REVERT JUMPDEST POP POP CALLVALUE PUSH2 0x160 JUMPI DUP1 PUSH1 0x3 NOT CALLDATASIZE ADD SLT PUSH2 0x160 JUMPI PUSH2 0x74C SWAP1 PUSH2 0x73E PUSH2 0x80D PUSH2 0xEEF JUMP JUMPDEST PUSH1 0x24 CALLDATALOAD SWAP1 PUSH2 0x1084 JUMP JUMPDEST SWAP1 POP CALLVALUE PUSH2 0x2C5 JUMPI PUSH1 0x20 CALLDATASIZE PUSH1 0x3 NOT ADD SLT PUSH2 0x2C5 JUMPI CALLDATALOAD PUSH1 0x8 DUP2 LT ISZERO PUSH2 0x2C5 JUMPI PUSH1 0x20 SWAP3 POP PUSH1 0xB ADD SLOAD SWAP1 MLOAD SWAP1 DUP2 MSTORE RETURN JUMPDEST SWAP2 SWAP1 POP CALLVALUE PUSH2 0x2C5 JUMPI PUSH1 0x20 CALLDATASIZE PUSH1 0x3 NOT ADD SLT PUSH2 0x2C5 JUMPI DUP3 SLOAD PUSH2 0x8A4 SWAP3 PUSH1 0x20 SWAP2 PUSH1 0x1 PUSH1 0x1 PUSH1 0xA0 SHL SUB AND PUSH2 0x873 CALLER DUP3 EQ PUSH2 0x100A JUMP JUMPDEST DUP4 MLOAD PUSH4 0xA9059CBB PUSH1 0xE0 SHL DUP2 MSTORE PUSH1 0x1 PUSH1 0x1 PUSH1 0xA0 SHL SUB SWAP1 SWAP2 AND DUP3 DUP3 ADD SWAP1 DUP2 MSTORE SWAP2 CALLDATALOAD PUSH1 0x20 DUP4 ADD MSTORE SWAP4 DUP5 SWAP2 DUP3 SWAP2 PUSH1 0x40 SWAP1 SWAP2 ADD SWAP1 JUMP JUMPDEST SUB DUP2 DUP7 PUSH20 0x9EA8653640E22A5B69887985BB75D496DC97022A GAS CALL SWAP1 DUP2 ISZERO PUSH2 0x8EA JUMPI POP PUSH2 0x8CE JUMPI POP DUP1 RETURN JUMPDEST PUSH2 0x8E6 SWAP1 PUSH1 0x20 RETURNDATASIZE PUSH1 0x20 GT PUSH2 0x58C JUMPI PUSH2 0x57D DUP2 DUP4 PUSH2 0xFAB JUMP JUMPDEST POP DUP1 RETURN JUMPDEST MLOAD RETURNDATASIZE DUP5 DUP3 RETURNDATACOPY RETURNDATASIZE SWAP1 REVERT JUMPDEST POP POP CALLVALUE PUSH2 0x160 JUMPI DUP2 PUSH1 0x3 NOT CALLDATASIZE ADD SLT PUSH2 0x160 JUMPI PUSH1 0x20 SWAP1 PUSH1 0x2 SLOAD SWAP1 MLOAD SWAP1 DUP2 MSTORE RETURN JUMPDEST POP POP CALLVALUE PUSH2 0x160 JUMPI PUSH1 0x20 CALLDATASIZE PUSH1 0x3 NOT ADD SLT PUSH2 0x160 JUMPI PUSH1 0x20 SWAP2 DUP2 SWAP1 PUSH1 0x1 PUSH1 0x1 PUSH1 0xA0 SHL SUB PUSH2 0x93A PUSH2 0xEEF JUMP JUMPDEST AND DUP2 MSTORE PUSH1 0x15 DUP5 MSTORE KECCAK256 SLOAD SWAP1 MLOAD SWAP1 DUP2 MSTORE RETURN JUMPDEST POP POP CALLVALUE PUSH2 0x160 JUMPI DUP1 PUSH1 0x3 NOT CALLDATASIZE ADD SLT PUSH2 0x160 JUMPI PUSH2 0x964 PUSH2 0xEEF JUMP JUMPDEST SWAP1 PUSH32 0xBE136F55822A8400613C511FE3A4AB8AEAA1DF9C6D834AFD7D8531039E327B09 PUSH1 0x24 CALLDATALOAD SWAP2 PUSH1 0x1 DUP1 PUSH1 0xA0 SHL SUB PUSH2 0x99F DUP2 DUP8 SLOAD AND CALLER EQ PUSH2 0x100A JUMP JUMPDEST PUSH3 0x278D00 TIMESTAMP DIV SWAP5 AND SWAP3 DUP4 DUP7 MSTORE PUSH1 0x13 PUSH1 0x20 MSTORE DUP2 DUP7 KECCAK256 DUP6 DUP8 MSTORE PUSH1 0x20 MSTORE DUP2 DUP7 KECCAK256 PUSH2 0x9C7 DUP3 DUP3 SLOAD PUSH2 0xF88 JUMP JUMPDEST SWAP1 SSTORE DUP4 DUP7 MSTORE PUSH1 0x13 PUSH1 0x20 MSTORE DUP2 DUP7 KECCAK256 DUP6 DUP8 MSTORE PUSH1 0x20 MSTORE DUP2 DUP7 KECCAK256 SLOAD DUP3 MLOAD SWAP2 DUP3 MSTORE PUSH1 0x20 DUP3 ADD MSTORE LOG3 DUP1 RETURN JUMPDEST SWAP1 POP CALLVALUE PUSH2 0x2C5 JUMPI PUSH1 0x20 CALLDATASIZE PUSH1 0x3 NOT ADD SLT PUSH2 0x2C5 JUMPI PUSH2 0xA07 PUSH2 0xEEF JUMP JUMPDEST DUP4 SLOAD SWAP2 PUSH1 0x1 PUSH1 0x1 PUSH1 0xA0 SHL SUB DUP1 DUP5 AND SWAP3 PUSH2 0xA21 CALLER DUP6 EQ PUSH2 0x100A JUMP JUMPDEST AND SWAP4 DUP5 ISZERO PUSH2 0xA61 JUMPI POP POP DUP3 SWAP1 PUSH32 0xB532073B38C83145E3E5135377A08BF9AAB55BC0FD7C1179CD4FB995D2A5159C DUP6 DUP1 LOG3 PUSH1 0x1 PUSH1 0x1 PUSH1 0xA0 SHL SUB NOT AND OR DUP2 SSTORE DUP1 RETURN JUMPDEST SWAP1 PUSH1 0x20 PUSH1 0x64 SWAP3 MLOAD SWAP2 PUSH3 0x461BCD PUSH1 0xE5 SHL DUP4 MSTORE DUP3 ADD MSTORE PUSH1 0x9 PUSH1 0x24 DUP3 ADD MSTORE PUSH9 0x2D32B9379030B23239 PUSH1 0xB9 SHL PUSH1 0x44 DUP3 ADD MSTORE REVERT JUMPDEST SWAP2 SWAP1 POP CALLVALUE PUSH2 0x2C5 JUMPI DUP1 PUSH1 0x3 NOT CALLDATASIZE ADD SLT PUSH2 0x2C5 JUMPI PUSH2 0xAAB PUSH2 0xEEF JUMP JUMPDEST PUSH1 0x24 CALLDATALOAD SWAP1 CALLER DUP6 MSTORE PUSH1 0x20 SWAP4 PUSH1 0x1 DUP6 MSTORE PUSH1 0xFF DUP5 DUP8 KECCAK256 SLOAD AND DUP1 ISZERO PUSH2 0xBE3 JUMPI JUMPDEST ISZERO PUSH2 0xBAF JUMPI POP PUSH1 0x1 PUSH1 0x1 PUSH1 0xA0 SHL SUB AND DUP1 DUP6 MSTORE PUSH1 0x15 DUP5 MSTORE DUP3 DUP6 KECCAK256 DUP1 SLOAD SWAP2 SWAP4 SWAP2 PUSH2 0xAEE SWAP1 PUSH2 0xFFB JUMP JUMPDEST SWAP1 SSTORE PUSH2 0xAFB PUSH1 0x17 SLOAD PUSH2 0xFFB JUMP JUMPDEST PUSH1 0x17 SSTORE DUP3 DUP6 MSTORE PUSH1 0x15 DUP5 MSTORE DUP1 DUP6 KECCAK256 SLOAD DUP2 MLOAD SWAP1 DUP4 DUP3 MSTORE DUP6 DUP3 ADD MSTORE DUP4 PUSH32 0xE53357D432A19CA14E65A9539AA1973BDFF89A75A8A16F67B4BB8AAC8EBC7B7D DUP4 CALLER SWAP4 LOG3 DUP2 PUSH2 0xB42 JUMPI DUP5 DUP1 RETURN JUMPDEST PUSH32 0xBE136F55822A8400613C511FE3A4AB8AEAA1DF9C6D834AFD7D8531039E327B09 SWAP2 PUSH3 0x278D00 TIMESTAMP DIV SWAP5 DUP5 DUP8 MSTORE PUSH1 0x13 DUP2 MSTORE DUP3 DUP8 KECCAK256 DUP7 DUP9 MSTORE DUP2 MSTORE DUP3 DUP8 KECCAK256 PUSH2 0xB88 DUP4 DUP3 SLOAD PUSH2 0xF88 JUMP JUMPDEST SWAP1 SSTORE DUP5 DUP8 MSTORE PUSH1 0x13 DUP2 MSTORE DUP3 DUP8 KECCAK256 DUP7 DUP9 MSTORE DUP2 MSTORE DUP3 DUP8 KECCAK256 SLOAD SWAP1 DUP4 MLOAD SWAP3 DUP4 MSTORE DUP3 ADD MSTORE LOG3 CODESIZE DUP1 DUP1 DUP1 DUP5 DUP1 RETURN JUMPDEST DUP4 MLOAD PUSH3 0x461BCD PUSH1 0xE5 SHL DUP2 MSTORE SWAP1 DUP2 ADD DUP6 SWAP1 MSTORE PUSH1 0xE PUSH1 0x24 DUP3 ADD MSTORE PUSH14 0x139BDD08185D5D1A1BDC9A5E9959 PUSH1 0x92 SHL PUSH1 0x44 DUP3 ADD MSTORE PUSH1 0x64 SWAP1 REVERT JUMPDEST POP DUP6 SLOAD PUSH1 0x1 PUSH1 0x1 PUSH1 0xA0 SHL SUB AND CALLER EQ PUSH2 0xAC7 JUMP JUMPDEST DUP4 DUP4 CALLVALUE PUSH2 0x160 JUMPI PUSH1 0x20 DUP1 PUSH1 0x3 NOT CALLDATASIZE ADD SLT PUSH2 0x2C5 JUMPI DUP4 CALLDATALOAD SWAP2 CALLER DUP5 MSTORE PUSH1 0x13 DUP3 MSTORE DUP1 DUP5 KECCAK256 DUP4 DUP6 MSTORE DUP3 MSTORE DUP1 DUP5 KECCAK256 SLOAD SWAP4 DUP5 ISZERO PUSH2 0xE9A JUMPI DUP1 SWAP3 DUP2 JUMPDEST PUSH1 0x2 SLOAD DUP2 LT ISZERO PUSH2 0xCCF JUMPI PUSH1 0x8 DUP2 LT ISZERO PUSH2 0xCBC JUMPI DUP1 PUSH1 0x3 ADD SLOAD DUP8 LT ISZERO DUP1 PUSH2 0xC97 JUMPI JUMPDEST PUSH2 0xC59 JUMPI JUMPDEST PUSH1 0x1 ADD PUSH2 0xC2B JUMP JUMPDEST SWAP4 PUSH2 0xC8F PUSH1 0x1 SWAP2 CALLER DUP6 MSTORE PUSH1 0x14 DUP5 MSTORE DUP6 DUP6 KECCAK256 DUP9 DUP7 MSTORE DUP5 MSTORE DUP6 DUP6 KECCAK256 DUP8 DUP7 MSTORE DUP5 MSTORE DUP6 DUP6 KECCAK256 DUP4 PUSH1 0xFF NOT DUP3 SLOAD AND OR SWAP1 SSTORE DUP7 PUSH1 0xB ADD SLOAD SWAP1 PUSH2 0xF88 JUMP JUMPDEST SWAP5 SWAP1 POP PUSH2 0xC51 JUMP JUMPDEST POP CALLER DUP4 MSTORE PUSH1 0x14 DUP3 MSTORE DUP4 DUP4 KECCAK256 DUP7 DUP5 MSTORE DUP3 MSTORE DUP4 DUP4 KECCAK256 DUP2 DUP5 MSTORE DUP3 MSTORE PUSH1 0xFF DUP5 DUP5 KECCAK256 SLOAD AND ISZERO PUSH2 0xC4C JUMP JUMPDEST PUSH4 0x4E487B71 PUSH1 0xE0 SHL DUP4 MSTORE PUSH1 0x32 DUP9 MSTORE PUSH1 0x24 DUP4 REVERT JUMPDEST POP DUP4 DUP6 SWAP2 DUP9 DUP3 ISZERO PUSH2 0xE5A JUMPI DUP6 MLOAD PUSH4 0x70A08231 PUSH1 0xE0 SHL DUP2 MSTORE ADDRESS DUP3 DUP3 ADD MSTORE PUSH20 0x9EA8653640E22A5B69887985BB75D496DC97022A SWAP2 SWAP1 DUP4 DUP2 PUSH1 0x24 DUP2 DUP7 GAS STATICCALL SWAP1 DUP2 ISZERO PUSH2 0xE50 JUMPI SWAP1 DUP6 SWAP2 DUP9 SWAP2 PUSH2 0xE1B JUMPI JUMPDEST POP LT PUSH2 0xDCC JUMPI DUP4 PUSH2 0xD66 SWAP7 SWAP8 SWAP3 DUP5 SWAP3 PUSH2 0xD36 DUP4 PUSH1 0x16 SLOAD PUSH2 0xF88 JUMP JUMPDEST PUSH1 0x16 SSTORE DUP5 MLOAD PUSH4 0xA9059CBB PUSH1 0xE0 SHL DUP2 MSTORE CALLER SWAP2 DUP2 ADD SWAP2 DUP3 MSTORE PUSH1 0x20 DUP3 ADD SWAP4 SWAP1 SWAP4 MSTORE SWAP2 SWAP8 DUP9 SWAP3 DUP4 SWAP2 DUP12 SWAP2 DUP4 SWAP2 PUSH1 0x40 SWAP1 SWAP2 ADD SWAP1 JUMP JUMPDEST SUB SWAP3 GAS CALL SWAP5 DUP6 ISZERO PUSH2 0xDC2 JUMPI PUSH32 0xF01DA32686223933D8A18A391060918C7F11A3648639EDD87AE013E2E2731743 SWAP4 SWAP5 SWAP6 PUSH2 0xDA5 JUMPI JUMPDEST POP MLOAD SWAP3 DUP4 MSTORE CALLER SWAP3 LOG3 DUP1 RETURN JUMPDEST PUSH2 0xDBB SWAP1 DUP4 RETURNDATASIZE DUP6 GT PUSH2 0x58C JUMPI PUSH2 0x57D DUP2 DUP4 PUSH2 0xFAB JUMP JUMPDEST POP DUP7 PUSH2 0xD9A JUMP JUMPDEST DUP2 MLOAD RETURNDATASIZE DUP9 DUP3 RETURNDATACOPY RETURNDATASIZE SWAP1 REVERT JUMPDEST DUP7 MLOAD PUSH3 0x461BCD PUSH1 0xE5 SHL DUP2 MSTORE SWAP1 DUP2 ADD DUP4 SWAP1 MSTORE PUSH1 0x24 DUP1 DUP3 ADD MSTORE PUSH32 0x496E73756666696369656E742055544832202D207761697420666F7220726573 PUSH1 0x44 DUP3 ADD MSTORE PUSH4 0x746F636B PUSH1 0xE0 SHL PUSH1 0x64 DUP3 ADD MSTORE PUSH1 0x84 SWAP1 REVERT JUMPDEST DUP1 SWAP3 POP DUP6 DUP1 SWAP3 POP RETURNDATASIZE DUP4 GT PUSH2 0xE49 JUMPI JUMPDEST PUSH2 0xE34 DUP2 DUP4 PUSH2 0xFAB JUMP JUMPDEST DUP2 ADD SUB SLT PUSH2 0xE45 JUMPI DUP5 SWAP1 MLOAD DUP10 PUSH2 0xD1B JUMP JUMPDEST DUP7 DUP1 REVERT JUMPDEST POP RETURNDATASIZE PUSH2 0xE2A JUMP JUMPDEST DUP9 MLOAD RETURNDATASIZE DUP10 DUP3 RETURNDATACOPY RETURNDATASIZE SWAP1 REVERT JUMPDEST DUP2 PUSH1 0x64 SWAP3 DUP8 MLOAD SWAP3 PUSH3 0x461BCD PUSH1 0xE5 SHL DUP5 MSTORE DUP4 ADD MSTORE PUSH1 0x24 DUP3 ADD MSTORE PUSH32 0x416C6C20746965727320636C61696D6564206F72206E6F742072656163686564 PUSH1 0x44 DUP3 ADD MSTORE REVERT JUMPDEST DUP2 MLOAD PUSH3 0x461BCD PUSH1 0xE5 SHL DUP2 MSTORE DUP1 DUP8 ADD DUP5 SWAP1 MSTORE PUSH1 0x14 PUSH1 0x24 DUP3 ADD MSTORE PUSH20 0x9CDE40ECDED8EADACA40E8D0D2E640DADEDCE8D PUSH1 0x63 SHL PUSH1 0x44 DUP3 ADD MSTORE PUSH1 0x64 SWAP1 REVERT JUMPDEST DUP5 SWAP1 CALLVALUE PUSH2 0x160 JUMPI DUP2 PUSH1 0x3 NOT CALLDATASIZE ADD SLT PUSH2 0x160 JUMPI DUP1 PUSH1 0x8 PUSH1 0x20 SWAP3 MSTORE RETURN JUMPDEST PUSH1 0x4 CALLDATALOAD SWAP1 PUSH1 0x1 PUSH1 0x1 PUSH1 0xA0 SHL SUB DUP3 AND DUP3 SUB PUSH2 0xF05 JUMPI JUMP JUMPDEST PUSH1 0x0 DUP1 REVERT JUMPDEST PUSH1 0x80 PUSH1 0x20 SWAP2 PUSH1 0x60 DUP2 ADD SWAP4 DUP2 MSTORE DUP3 SWAP5 DUP4 DUP3 ADD MSTORE PUSH1 0x60 PUSH1 0x40 DUP3 ADD MSTORE DUP6 MLOAD DUP1 SWAP5 MSTORE ADD SWAP4 ADD SWAP2 PUSH1 0x0 JUMPDEST DUP3 DUP2 LT PUSH2 0xF3D JUMPI POP POP POP POP SWAP1 JUMP JUMPDEST DUP4 MLOAD PUSH1 0xFF AND DUP6 MSTORE SWAP4 DUP2 ADD SWAP4 SWAP3 DUP2 ADD SWAP3 PUSH1 0x1 ADD PUSH2 0xF2F JUMP JUMPDEST SWAP1 DUP2 MLOAD DUP1 DUP3 MSTORE PUSH1 0x20 DUP1 DUP1 SWAP4 ADD SWAP4 ADD SWAP2 PUSH1 0x0 JUMPDEST DUP3 DUP2 LT PUSH2 0xF74 JUMPI POP POP POP POP SWAP1 JUMP JUMPDEST DUP4 MLOAD DUP6 MSTORE SWAP4 DUP2 ADD SWAP4 SWAP3 DUP2 ADD SWAP3 PUSH1 0x1 ADD PUSH2 0xF66 JUMP JUMPDEST SWAP2 SWAP1 DUP3 ADD DUP1 SWAP3 GT PUSH2 0xF95 JUMPI JUMP JUMPDEST PUSH4 0x4E487B71 PUSH1 0xE0 SHL PUSH1 0x0 MSTORE PUSH1 0x11 PUSH1 0x4 MSTORE PUSH1 0x24 PUSH1 0x0 REVERT JUMPDEST SWAP1 PUSH1 0x1F DUP1 NOT SWAP2 ADD AND DUP2 ADD SWAP1 DUP2 LT PUSH8 0xFFFFFFFFFFFFFFFF DUP3 GT OR PUSH2 0xFCD JUMPI PUSH1 0x40 MSTORE JUMP JUMPDEST PUSH4 0x4E487B71 PUSH1 0xE0 SHL PUSH1 0x0 MSTORE PUSH1 0x41 PUSH1 0x4 MSTORE PUSH1 0x24 PUSH1 0x0 REVERT JUMPDEST SWAP1 DUP2 PUSH1 0x20 SWAP2 SUB SLT PUSH2 0xF05 JUMPI MLOAD DUP1 ISZERO ISZERO DUP2 SUB PUSH2 0xF05 JUMPI SWAP1 JUMP JUMPDEST PUSH1 0x0 NOT DUP2 EQ PUSH2 0xF95 JUMPI PUSH1 0x1 ADD SWAP1 JUMP JUMPDEST ISZERO PUSH2 0x1011 JUMPI JUMP JUMPDEST PUSH1 0x40 MLOAD PUSH3 0x461BCD PUSH1 0xE5 SHL DUP2 MSTORE PUSH1 0x20 PUSH1 0x4 DUP3 ADD MSTORE PUSH1 0x9 PUSH1 0x24 DUP3 ADD MSTORE PUSH9 0x2737BA1037BBB732B9 PUSH1 0xB9 SHL PUSH1 0x44 DUP3 ADD MSTORE PUSH1 0x64 SWAP1 REVERT JUMPDEST PUSH8 0xFFFFFFFFFFFFFFFF DUP2 GT PUSH2 0xFCD JUMPI PUSH1 0x5 SHL PUSH1 0x20 ADD SWAP1 JUMP JUMPDEST DUP1 MLOAD DUP3 LT ISZERO PUSH2 0x106E JUMPI PUSH1 0x20 SWAP2 PUSH1 0x5 SHL ADD ADD SWAP1 JUMP JUMPDEST PUSH4 0x4E487B71 PUSH1 0xE0 SHL PUSH1 0x0 MSTORE PUSH1 0x32 PUSH1 0x4 MSTORE PUSH1 0x24 PUSH1 0x0 REVERT JUMPDEST SWAP1 PUSH1 0x0 SWAP3 PUSH1 0x0 SWAP3 PUSH1 0x1 DUP1 PUSH1 0xA0 SHL SUB AND SWAP2 DUP3 DUP5 MSTORE PUSH1 0x20 PUSH1 0x13 DUP2 MSTORE PUSH1 0x40 SWAP2 DUP3 DUP7 KECCAK256 DUP2 DUP8 MSTORE DUP3 MSTORE DUP3 DUP7 KECCAK256 SLOAD SWAP6 PUSH1 0x2 SWAP4 PUSH1 0x2 SLOAD SWAP4 PUSH2 0x10BD DUP6 PUSH2 0x1042 JUMP JUMPDEST SWAP4 PUSH2 0x10CA DUP4 MLOAD SWAP6 DUP7 PUSH2 0xFAB JUMP JUMPDEST DUP6 DUP6 MSTORE PUSH1 0x1F NOT PUSH2 0x10D9 DUP8 PUSH2 0x1042 JUMP JUMPDEST ADD CALLDATASIZE DUP4 DUP8 ADD CALLDATACOPY DUP5 SWAP9 DUP5 JUMPDEST DUP8 DUP2 LT PUSH2 0x10F5 JUMPI POP POP POP POP POP POP POP POP POP JUMP JUMPDEST DUP2 DUP7 MSTORE PUSH1 0x14 DUP5 MSTORE DUP5 DUP7 KECCAK256 DUP4 DUP8 MSTORE DUP5 MSTORE DUP5 DUP7 KECCAK256 DUP2 DUP8 MSTORE DUP5 MSTORE DUP5 DUP7 KECCAK256 SLOAD PUSH1 0xFF AND ISZERO PUSH2 0x112E JUMPI DUP1 DUP10 PUSH2 0x1126 PUSH1 0x1 SWAP4 DUP11 PUSH2 0x105A JUMP JUMPDEST MSTORE JUMPDEST ADD PUSH2 0x10E3 JUMP JUMPDEST PUSH1 0x8 DUP2 LT ISZERO PUSH2 0x1172 JUMPI DUP1 PUSH1 0x3 ADD SLOAD DUP13 LT ISZERO PUSH2 0x114C JUMPI JUMPDEST PUSH1 0x1 SWAP1 PUSH2 0x1128 JUMP JUMPDEST SWAP12 PUSH2 0x116A PUSH1 0x1 SWAP2 DUP15 DUP4 PUSH2 0x115F DUP3 DUP13 PUSH2 0x105A JUMP JUMPDEST MSTORE PUSH1 0xB ADD SLOAD SWAP1 PUSH2 0xF88 JUMP JUMPDEST SWAP13 SWAP1 POP PUSH2 0x1144 JUMP JUMPDEST PUSH4 0x4E487B71 PUSH1 0xE0 SHL DUP7 MSTORE PUSH1 0x32 PUSH1 0x4 MSTORE PUSH1 0x24 DUP7 REVERT JUMPDEST SWAP1 PUSH2 0x1190 DUP3 PUSH2 0x1042 JUMP JUMPDEST PUSH2 0x119D PUSH1 0x40 MLOAD SWAP2 DUP3 PUSH2 0xFAB JUMP JUMPDEST DUP3 DUP2 MSTORE DUP1 SWAP3 PUSH2 0x11AE PUSH1 0x1F NOT SWAP2 PUSH2 0x1042 JUMP JUMPDEST ADD SWAP1 PUSH1 0x20 CALLDATASIZE SWAP2 ADD CALLDATACOPY JUMP JUMPDEST PUSH1 0x8 DUP2 LT ISZERO PUSH2 0x106E JUMPI PUSH1 0x5 SHL PUSH1 0x24 ADD SWAP1 JUMP INVALID LOG2 PUSH5 0x6970667358 0x22 SLT KECCAK256 0xCB 0xAD 0xA7 0x25 BALANCE 0xD 0x22 0xE5 0xDD MOD 0xDB SIGNEXTEND INVALID DUP1 PUSH27 0x3168B097DD014A59375B6010B89D52092664736F6C634300081800 CALLER "},"methodIdentifiers":{"MAX_TIERS()":"07c3d4af","PERIOD()":"b4d1d795","UTH2()":"f6c08a2e","adminRecordVolume(address,uint256)":"1daddb5e","claimRewards(uint256)":"0962ef79","claimed(address,uint256,uint256)":"faf8ef98","currentMonth()":"862a4d47","emergencyWithdraw(uint256)":"5312ea8e","fundUTH2(uint256)":"9220162f","getAllTiers()":"6471af83","getPeriodInfo()":"8d227fc0","numTiers()":"40445a4f","owner()":"8da5cb5b","pendingNow(address)":"76e77df0","pendingRewards(address,uint256)":"6099ecb2","recordSwap(address,uint256)":"09680135","routers(address)":"80dd9a1f","setOwner(address)":"13af4035","setRouter(address,bool)":"c3c64674","setTiers(uint256,uint256[8],uint256[8])":"aa62f83d","swapCount(address)":"3193dcdc","tierRewards(uint256)":"556c448d","tierThresholds(uint256)":"a100d69d","totalDistributed()":"efca2eed","totalSwapsRecorded()":"fcb70a32","volume(address,uint256)":"a70c1aba"}}}}}