{"contracts/AcuaVolumeRewards.sol":{"AcuaVolumeRewards":{"abi":[{"inputs":[{"internalType":"address","name":"_swapRouter","type":"address"}],"stateMutability":"nonpayable","type":"constructor"},{"anonymous":false,"inputs":[{"indexed":true,"internalType":"address","name":"by","type":"address"},{"indexed":false,"internalType":"uint256","name":"amount","type":"uint256"}],"name":"Funded","type":"event"},{"anonymous":false,"inputs":[{"indexed":true,"internalType":"address","name":"user","type":"address"},{"indexed":true,"internalType":"uint256","name":"monthId","type":"uint256"},{"indexed":false,"internalType":"uint256","name":"uth2Amount","type":"uint256"}],"name":"RewardClaimed","type":"event"},{"anonymous":false,"inputs":[{"indexed":false,"internalType":"uint256","name":"numTiers","type":"uint256"}],"name":"TiersUpdated","type":"event"},{"anonymous":false,"inputs":[{"indexed":true,"internalType":"address","name":"user","type":"address"},{"indexed":true,"internalType":"uint256","name":"monthId","type":"uint256"},{"indexed":false,"internalType":"uint256","name":"added","type":"uint256"},{"indexed":false,"internalType":"uint256","name":"total","type":"uint256"}],"name":"VolumeRecorded","type":"event"},{"inputs":[],"name":"MAX_TIERS","outputs":[{"internalType":"uint256","name":"","type":"uint256"}],"stateMutability":"view","type":"function"},{"inputs":[],"name":"PERIOD","outputs":[{"internalType":"uint256","name":"","type":"uint256"}],"stateMutability":"view","type":"function"},{"inputs":[],"name":"UTH2","outputs":[{"internalType":"address","name":"","type":"address"}],"stateMutability":"view","type":"function"},{"inputs":[{"internalType":"address","name":"user","type":"address"},{"internalType":"uint256","name":"usdcAmount","type":"uint256"}],"name":"adminRecordVolume","outputs":[],"stateMutability":"nonpayable","type":"function"},{"inputs":[{"internalType":"uint256","name":"monthId","type":"uint256"}],"name":"claimRewards","outputs":[],"stateMutability":"nonpayable","type":"function"},{"inputs":[{"internalType":"address","name":"","type":"address"},{"internalType":"uint256","name":"","type":"uint256"},{"internalType":"uint256","name":"","type":"uint256"}],"name":"claimed","outputs":[{"internalType":"bool","name":"","type":"bool"}],"stateMutability":"view","type":"function"},{"inputs":[],"name":"currentMonth","outputs":[{"internalType":"uint256","name":"","type":"uint256"}],"stateMutability":"view","type":"function"},{"inputs":[{"internalType":"uint256","name":"amount","type":"uint256"}],"name":"emergencyWithdraw","outputs":[],"stateMutability":"nonpayable","type":"function"},{"inputs":[{"internalType":"uint256","name":"amount","type":"uint256"}],"name":"fundUTH2","outputs":[],"stateMutability":"nonpayable","type":"function"},{"inputs":[],"name":"getAllTiers","outputs":[{"internalType":"uint256[]","name":"thresholds","type":"uint256[]"},{"internalType":"uint256[]","name":"rewards","type":"uint256[]"}],"stateMutability":"view","type":"function"},{"inputs":[],"name":"getPeriodInfo","outputs":[{"internalType":"uint256","name":"monthId","type":"uint256"},{"internalType":"uint256","name":"periodStart","type":"uint256"},{"internalType":"uint256","name":"periodEnd","type":"uint256"},{"internalType":"uint256","name":"secondsLeft","type":"uint256"}],"stateMutability":"view","type":"function"},{"inputs":[],"name":"numTiers","outputs":[{"internalType":"uint256","name":"","type":"uint256"}],"stateMutability":"view","type":"function"},{"inputs":[],"name":"owner","outputs":[{"internalType":"address","name":"","type":"address"}],"stateMutability":"view","type":"function"},{"inputs":[{"internalType":"address","name":"user","type":"address"}],"name":"pendingNow","outputs":[{"internalType":"uint256","name":"uth2Amount","type":"uint256"},{"internalType":"uint256","name":"userVolume","type":"uint256"},{"internalType":"uint8[]","name":"tierStatus","type":"uint8[]"}],"stateMutability":"view","type":"function"},{"inputs":[{"internalType":"address","name":"user","type":"address"},{"internalType":"uint256","name":"monthId","type":"uint256"}],"name":"pendingRewards","outputs":[{"internalType":"uint256","name":"uth2Amount","type":"uint256"},{"internalType":"uint256","name":"userVolume","type":"uint256"},{"internalType":"uint8[]","name":"tierStatus","type":"uint8[]"}],"stateMutability":"view","type":"function"},{"inputs":[{"internalType":"address","name":"user","type":"address"},{"internalType":"uint256","name":"usdcAmount","type":"uint256"}],"name":"recordSwap","outputs":[],"stateMutability":"nonpayable","type":"function"},{"inputs":[{"internalType":"address","name":"newOwner","type":"address"}],"name":"setOwner","outputs":[],"stateMutability":"nonpayable","type":"function"},{"inputs":[{"internalType":"address","name":"_router","type":"address"}],"name":"setSwapRouter","outputs":[],"stateMutability":"nonpayable","type":"function"},{"inputs":[{"internalType":"uint256","name":"n","type":"uint256"},{"internalType":"uint256[8]","name":"thresholds","type":"uint256[8]"},{"internalType":"uint256[8]","name":"rewards","type":"uint256[8]"}],"name":"setTiers","outputs":[],"stateMutability":"nonpayable","type":"function"},{"inputs":[],"name":"swapRouter","outputs":[{"internalType":"address","name":"","type":"address"}],"stateMutability":"view","type":"function"},{"inputs":[{"internalType":"uint256","name":"","type":"uint256"}],"name":"tierRewards","outputs":[{"internalType":"uint256","name":"","type":"uint256"}],"stateMutability":"view","type":"function"},{"inputs":[{"internalType":"uint256","name":"","type":"uint256"}],"name":"tierThresholds","outputs":[{"internalType":"uint256","name":"","type":"uint256"}],"stateMutability":"view","type":"function"},{"inputs":[],"name":"totalDistributed","outputs":[{"internalType":"uint256","name":"","type":"uint256"}],"stateMutability":"view","type":"function"},{"inputs":[{"internalType":"address","name":"","type":"address"},{"internalType":"uint256","name":"","type":"uint256"}],"name":"volume","outputs":[{"internalType":"uint256","name":"","type":"uint256"}],"stateMutability":"view","type":"function"}],"evm":{"bytecode":{"linkReferences":{},"object":"6080346100c957601f6111f138819003918201601f19168301916001600160401b038311848410176100ce578084926020946040528339810103126100c957516001600160a01b038116908190036100c957600460025560018060a01b0319338160005416176000556001541617600155620f4240600355629896806004556305f5e100600555633b9aca00600655655af3107a4000600b5566038d7ea4c68000600c55662386f26fc10000600d5567016345785d8a0000600e5560405161110c90816100e58239f35b600080fd5b634e487b7160e01b600052604160045260246000fdfe608060408181526004918236101561001657600080fd5b600092833560e01c91826307c3d4af14610e77575081630962ef7914610b995781630968013514610b1057816313af403514610a925781631daddb5e14610a5657816340445a4f14610a3757816341273657146109e85781635312ea8e14610937578163556c448d1461090b5781636099ecb2146107e75781636471af831461074b57816376e77df014610605578163862a4d47146105e55781638d227fc01461052b5781638da5cb5b146105035781639220162f14610406578163a100d69d146103da578163a70c1aba14610399578163aa62f83d1461021257508063b4d1d795146101f5578063c31c9c07146101cd578063efca2eed146101af578063f6c08a2e146101815763faf8ef981461012d57600080fd5b3461017d57606036600319011261017d5760209160ff9082906001600160a01b03610156610e92565b16815260148552818120602435825285528181206044358252855220541690519015158152f35b5080fd5b503461017d578160031936011261017d5760209051739ea8653640e22a5b69887985bb75d496dc97022a8152f35b503461017d578160031936011261017d576020906015549051908152f35b503461017d578160031936011261017d5760015490516001600160a01b039091168152602090f35b503461017d578160031936011261017d576020905162278d008152f35b9190503461039557610220366003190112610395578135916101243681116103915736610224116103915761025160018060a01b038654163314611018565b600191600185101580610386575b156103525760015b8581106102cf57505083600255845b600881106102ac57857f2f291eaf494dc7eca20457441a1df7d9119f0c0d764309daf9cb6b148810ee366020878751908152a180f35b806102b784926110c4565b3581600301558060051b83013581600b015501610276565b6102d8816110c4565b35600019820182811161033f576102ee906110c4565b3510156102fc578301610267565b845162461bcd60e51b8152602081840152601860248201527f5468726573686f6c6473206e6f7420617363656e64696e6700000000000000006044820152606490fd5b634e487b7160e01b895260118452602489fd5b606490602085519162461bcd60e51b8352820152600e60248201526d109859081d1a595c8818dbdd5b9d60921b6044820152fd5b50600885111561025f565b8480fd5b8280fd5b50503461017d578060031936011261017d5760209181906001600160a01b036103c0610e92565b168152601384528181206024358252845220549051908152f35b905034610395576020366003190112610395573560088110156103955760209250600301549051908152f35b91905034610395576020806003193601126104ff5782359182156104d0578051936323b872dd60e01b85523390850152306024850152826044850152818460648188739ea8653640e22a5b69887985bb75d496dc97022a5af19384156104c6577f5af8184bef8e4b45eb9f6ed7734d04da38ced226495548f46e0c8ff8d7d9a5249394610499575b50519283523392a280f35b6104b890833d85116104bf575b6104b08183610f4e565b810190610f86565b503861048e565b503d6104a6565b81513d87823e3d90fd5b5162461bcd60e51b81529283015250600b60248201526a16995c9bc8185b5bdd5b9d60aa1b6044820152606490fd5b8380fd5b50503461017d578160031936011261017d57905490516001600160a01b039091168152602090f35b8284346105e257806003193601126105e25762278d0080420492818402928484048314851517156105bc57600185018086116105cf578381029381850414901517156105bc57428311156105b2574283039083821161059f575060809550925b815194855260208501528301526060820152f35b634e487b7160e01b815260118752602490fd5b608095509261058b565b634e487b7160e01b815260118652602490fd5b634e487b7160e01b825260118752602482fd5b80fd5b50503461017d578160031936011261017d576020905162278d0042048152f35b8284346105e2576020918260031936011261017d578161065d9394610628610e92565b835163304cf65960e11b81526001600160a01b0390911691810191825262278d00420460208301529485918291604090910190565b0381305afa9182156107405780938195829461068a575b50505090610686915193849384610ead565b0390f35b929350935093503d8085853e6106a08185610f4e565b830190606084830312610391578351918185015194848101519067ffffffffffffffff821161073c57019581601f880112156105e2578651906106e282611050565b976106ef8751998a610f4e565b82895284808a019360051b82010193841161017d578401915b83831061072357505050505090610686919293918580610674565b825160ff81168103610395578152918401918401610708565b8780fd5b9051903d90823e3d90fd5b8284346105e257806003193601126105e2576002549261076a84611092565b9361077481611092565b92805b8281106107a25785518681528061068687610794838b018c610ef7565b908382036020850152610ef7565b60088110156107d45780600191600301546107bd828a611068565b5280600b01546107cd8288611068565b5201610777565b634e487b7160e01b825260328452602482fd5b8284346105e257816003193601126105e257610801610e92565b91602491602435819460018060a01b03169384835260209260138452848120838252845284812054976002946002549461083a86611050565b9861084789519a8b610f4e565b868a52601f1961085688611050565b0136848c0137845b878110610876578c8c6106868d8d5193849384610ead565b8a90828752601485528a872084885285528a872081885285528960ff8c892054166000146108b2576108aa82600194611068565b525b0161085e565b50905060088110156108f95780600301548d10156108d3575b6001906108ac565b9a6108f1600191826108e58f8f611068565b528d600b015490610f2b565b9b90506108cb565b634e487b7160e01b8652603285528686fd5b905034610395576020366003190112610395573560088110156103955760209250600b01549051908152f35b91905034610395576020366003190112610395578254610999926020916001600160a01b0316610968338214611018565b835163a9059cbb60e01b81526001600160a01b03909116828201908152913560208301529384918291604090910190565b038186739ea8653640e22a5b69887985bb75d496dc97022a5af19081156109df57506109c3575080f35b6109db9060203d6020116104bf576104b08183610f4e565b5080f35b513d84823e3d90fd5b83346105e25760203660031901126105e257610a02610e92565b81546001600160a01b039190610a1b9083163314611018565b166bffffffffffffffffffffffff60a01b600154161760015580f35b50503461017d578160031936011261017d576020906002549051908152f35b50503461017d573660031901126105e257610a8f610a72610e92565b610a8660018060a01b038454163314611018565b60243590610f9e565b80f35b90503461039557602036600319011261039557610aad610e92565b835491906001600160a01b0390610ac73383861614611018565b16928315610ae15750506001600160a01b03191617815580f35b906020606492519162461bcd60e51b835282015260096024820152682d32b9379030b2323960b91b6044820152fd5b905034610395578160031936011261039557610b2a610e92565b600154909290336001600160a01b0391821614908115610b8c575b5015610b585783610a8f60243585610f9e565b906020606492519162461bcd60e51b8352820152600e60248201526d139bdd08185d5d1a1bdc9a5e995960921b6044820152fd5b9050845416331438610b45565b83833461017d576020806003193601126103955783359133845260138252808420838552825280842054938415610e3d578092815b600254811015610c72576008811015610c5f57806003015487101580610c3a575b610bfc575b600101610bce565b93610c3260019133855260148452858520888652845285852087865284528585208360ff1982541617905586600b015490610f2b565b949050610bf4565b50338352601482528383208684528252838320818452825260ff848420541615610bef565b634e487b7160e01b835260328852602483fd5b50838591888215610dfd5785516370a0823160e01b81523082820152739ea8653640e22a5b69887985bb75d496dc97022a91908381602481865afa908115610df3579085918891610dbe575b5010610d6f5783610d099697928492610cd983601554610f2b565b601555845163a9059cbb60e01b81523391810191825260208201939093529197889283918b918391604090910190565b03925af1948515610d65577ff01da32686223933d8a18a391060918c7f11a3648639edd87ae013e2e2731743939495610d48575b50519283523392a380f35b610d5e90833d85116104bf576104b08183610f4e565b5086610d3d565b81513d88823e3d90fd5b865162461bcd60e51b81529081018390526024808201527f496e73756666696369656e742055544832202d207761697420666f7220726573604482015263746f636b60e01b6064820152608490fd5b809250858092503d8311610dec575b610dd78183610f4e565b81010312610de85784905189610cbe565b8680fd5b503d610dcd565b88513d89823e3d90fd5b8160649287519262461bcd60e51b845283015260248201527f416c6c20746965727320636c61696d6564206f72206e6f7420726561636865646044820152fd5b815162461bcd60e51b8152808701849052601460248201527309cde40ecded8eadaca40e8d0d2e640dadedce8d60631b6044820152606490fd5b84903461017d578160031936011261017d5780600860209252f35b600435906001600160a01b0382168203610ea857565b600080fd5b6080602091606081019381528294838201526060604082015285518094520193019160005b828110610ee0575050505090565b835160ff1685529381019392810192600101610ed2565b90815180825260208080930193019160005b828110610f17575050505090565b835185529381019392810192600101610f09565b91908201809211610f3857565b634e487b7160e01b600052601160045260246000fd5b90601f8019910116810190811067ffffffffffffffff821117610f7057604052565b634e487b7160e01b600052604160045260246000fd5b90816020910312610ea857518015158103610ea85790565b907fbe136f55822a8400613c511fe3a4ab8aeaa1df9c6d834afd7d8531039e327b0962278d0042049260018060a01b031691600090838252601360205260408281809420878252602052818120610ff6848254610f2b565b90558581526013602052818120878252602052205482519182526020820152a3565b1561101f57565b60405162461bcd60e51b81526020600482015260096024820152682737ba1037bbb732b960b91b6044820152606490fd5b67ffffffffffffffff8111610f705760051b60200190565b805182101561107c5760209160051b010190565b634e487b7160e01b600052603260045260246000fd5b9061109c82611050565b6110a96040519182610f4e565b82815280926110ba601f1991611050565b0190602036910137565b600881101561107c5760051b6024019056fea2646970667358221220f86f3b937e8987f8c365ca00fbb79b2aea459007b235003983f041cdd826084964736f6c63430008180033","opcodes":"PUSH1 0x80 CALLVALUE PUSH2 0xC9 JUMPI PUSH1 0x1F PUSH2 0x11F1 CODESIZE DUP2 SWAP1 SUB SWAP2 DUP3 ADD PUSH1 0x1F NOT AND DUP4 ADD SWAP2 PUSH1 0x1 PUSH1 0x1 PUSH1 0x40 SHL SUB DUP4 GT DUP5 DUP5 LT OR PUSH2 0xCE JUMPI DUP1 DUP5 SWAP3 PUSH1 0x20 SWAP5 PUSH1 0x40 MSTORE DUP4 CODECOPY DUP2 ADD SUB SLT PUSH2 0xC9 JUMPI MLOAD PUSH1 0x1 PUSH1 0x1 PUSH1 0xA0 SHL SUB DUP2 AND SWAP1 DUP2 SWAP1 SUB PUSH2 0xC9 JUMPI PUSH1 0x4 PUSH1 0x2 SSTORE PUSH1 0x1 DUP1 PUSH1 0xA0 SHL SUB NOT CALLER DUP2 PUSH1 0x0 SLOAD AND OR PUSH1 0x0 SSTORE PUSH1 0x1 SLOAD AND OR PUSH1 0x1 SSTORE PUSH3 0xF4240 PUSH1 0x3 SSTORE PUSH3 0x989680 PUSH1 0x4 SSTORE PUSH4 0x5F5E100 PUSH1 0x5 SSTORE PUSH4 0x3B9ACA00 PUSH1 0x6 SSTORE PUSH6 0x5AF3107A4000 PUSH1 0xB SSTORE PUSH7 0x38D7EA4C68000 PUSH1 0xC SSTORE PUSH7 0x2386F26FC10000 PUSH1 0xD SSTORE PUSH8 0x16345785D8A0000 PUSH1 0xE SSTORE PUSH1 0x40 MLOAD PUSH2 0x110C SWAP1 DUP2 PUSH2 0xE5 DUP3 CODECOPY RETURN JUMPDEST PUSH1 0x0 DUP1 REVERT JUMPDEST PUSH4 0x4E487B71 PUSH1 0xE0 SHL PUSH1 0x0 MSTORE PUSH1 0x41 PUSH1 0x4 MSTORE PUSH1 0x24 PUSH1 0x0 REVERT INVALID PUSH1 0x80 PUSH1 0x40 DUP2 DUP2 MSTORE PUSH1 0x4 SWAP2 DUP3 CALLDATASIZE LT ISZERO PUSH2 0x16 JUMPI PUSH1 0x0 DUP1 REVERT JUMPDEST PUSH1 0x0 SWAP3 DUP4 CALLDATALOAD PUSH1 0xE0 SHR SWAP2 DUP3 PUSH4 0x7C3D4AF EQ PUSH2 0xE77 JUMPI POP DUP2 PUSH4 0x962EF79 EQ PUSH2 0xB99 JUMPI DUP2 PUSH4 0x9680135 EQ PUSH2 0xB10 JUMPI DUP2 PUSH4 0x13AF4035 EQ PUSH2 0xA92 JUMPI DUP2 PUSH4 0x1DADDB5E EQ PUSH2 0xA56 JUMPI DUP2 PUSH4 0x40445A4F EQ PUSH2 0xA37 JUMPI DUP2 PUSH4 0x41273657 EQ PUSH2 0x9E8 JUMPI DUP2 PUSH4 0x5312EA8E EQ PUSH2 0x937 JUMPI DUP2 PUSH4 0x556C448D EQ PUSH2 0x90B JUMPI DUP2 PUSH4 0x6099ECB2 EQ PUSH2 0x7E7 JUMPI DUP2 PUSH4 0x6471AF83 EQ PUSH2 0x74B JUMPI DUP2 PUSH4 0x76E77DF0 EQ PUSH2 0x605 JUMPI DUP2 PUSH4 0x862A4D47 EQ PUSH2 0x5E5 JUMPI DUP2 PUSH4 0x8D227FC0 EQ PUSH2 0x52B JUMPI DUP2 PUSH4 0x8DA5CB5B EQ PUSH2 0x503 JUMPI DUP2 PUSH4 0x9220162F EQ PUSH2 0x406 JUMPI DUP2 PUSH4 0xA100D69D EQ PUSH2 0x3DA JUMPI DUP2 PUSH4 0xA70C1ABA EQ PUSH2 0x399 JUMPI DUP2 PUSH4 0xAA62F83D EQ PUSH2 0x212 JUMPI POP DUP1 PUSH4 0xB4D1D795 EQ PUSH2 0x1F5 JUMPI DUP1 PUSH4 0xC31C9C07 EQ PUSH2 0x1CD JUMPI DUP1 PUSH4 0xEFCA2EED EQ PUSH2 0x1AF JUMPI DUP1 PUSH4 0xF6C08A2E EQ PUSH2 0x181 JUMPI PUSH4 0xFAF8EF98 EQ PUSH2 0x12D JUMPI PUSH1 0x0 DUP1 REVERT JUMPDEST CALLVALUE PUSH2 0x17D JUMPI PUSH1 0x60 CALLDATASIZE PUSH1 0x3 NOT ADD SLT PUSH2 0x17D JUMPI PUSH1 0x20 SWAP2 PUSH1 0xFF SWAP1 DUP3 SWAP1 PUSH1 0x1 PUSH1 0x1 PUSH1 0xA0 SHL SUB PUSH2 0x156 PUSH2 0xE92 JUMP JUMPDEST AND DUP2 MSTORE PUSH1 0x14 DUP6 MSTORE DUP2 DUP2 KECCAK256 PUSH1 0x24 CALLDATALOAD DUP3 MSTORE DUP6 MSTORE DUP2 DUP2 KECCAK256 PUSH1 0x44 CALLDATALOAD DUP3 MSTORE DUP6 MSTORE KECCAK256 SLOAD AND SWAP1 MLOAD SWAP1 ISZERO ISZERO DUP2 MSTORE RETURN JUMPDEST POP DUP1 REVERT JUMPDEST POP CALLVALUE PUSH2 0x17D JUMPI DUP2 PUSH1 0x3 NOT CALLDATASIZE ADD SLT PUSH2 0x17D JUMPI PUSH1 0x20 SWAP1 MLOAD PUSH20 0x9EA8653640E22A5B69887985BB75D496DC97022A DUP2 MSTORE RETURN JUMPDEST POP CALLVALUE PUSH2 0x17D JUMPI DUP2 PUSH1 0x3 NOT CALLDATASIZE ADD SLT PUSH2 0x17D JUMPI PUSH1 0x20 SWAP1 PUSH1 0x15 SLOAD SWAP1 MLOAD SWAP1 DUP2 MSTORE RETURN JUMPDEST POP CALLVALUE PUSH2 0x17D JUMPI DUP2 PUSH1 0x3 NOT CALLDATASIZE ADD SLT PUSH2 0x17D JUMPI PUSH1 0x1 SLOAD SWAP1 MLOAD PUSH1 0x1 PUSH1 0x1 PUSH1 0xA0 SHL SUB SWAP1 SWAP2 AND DUP2 MSTORE PUSH1 0x20 SWAP1 RETURN JUMPDEST POP CALLVALUE PUSH2 0x17D JUMPI DUP2 PUSH1 0x3 NOT CALLDATASIZE ADD SLT PUSH2 0x17D JUMPI PUSH1 0x20 SWAP1 MLOAD PUSH3 0x278D00 DUP2 MSTORE RETURN JUMPDEST SWAP2 SWAP1 POP CALLVALUE PUSH2 0x395 JUMPI PUSH2 0x220 CALLDATASIZE PUSH1 0x3 NOT ADD SLT PUSH2 0x395 JUMPI DUP2 CALLDATALOAD SWAP2 PUSH2 0x124 CALLDATASIZE DUP2 GT PUSH2 0x391 JUMPI CALLDATASIZE PUSH2 0x224 GT PUSH2 0x391 JUMPI PUSH2 0x251 PUSH1 0x1 DUP1 PUSH1 0xA0 SHL SUB DUP7 SLOAD AND CALLER EQ PUSH2 0x1018 JUMP JUMPDEST PUSH1 0x1 SWAP2 PUSH1 0x1 DUP6 LT ISZERO DUP1 PUSH2 0x386 JUMPI JUMPDEST ISZERO PUSH2 0x352 JUMPI PUSH1 0x1 JUMPDEST DUP6 DUP2 LT PUSH2 0x2CF JUMPI POP POP DUP4 PUSH1 0x2 SSTORE DUP5 JUMPDEST PUSH1 0x8 DUP2 LT PUSH2 0x2AC JUMPI DUP6 PUSH32 0x2F291EAF494DC7ECA20457441A1DF7D9119F0C0D764309DAF9CB6B148810EE36 PUSH1 0x20 DUP8 DUP8 MLOAD SWAP1 DUP2 MSTORE LOG1 DUP1 RETURN JUMPDEST DUP1 PUSH2 0x2B7 DUP5 SWAP3 PUSH2 0x10C4 JUMP JUMPDEST CALLDATALOAD DUP2 PUSH1 0x3 ADD SSTORE DUP1 PUSH1 0x5 SHL DUP4 ADD CALLDATALOAD DUP2 PUSH1 0xB ADD SSTORE ADD PUSH2 0x276 JUMP JUMPDEST PUSH2 0x2D8 DUP2 PUSH2 0x10C4 JUMP JUMPDEST CALLDATALOAD PUSH1 0x0 NOT DUP3 ADD DUP3 DUP2 GT PUSH2 0x33F JUMPI PUSH2 0x2EE SWAP1 PUSH2 0x10C4 JUMP JUMPDEST CALLDATALOAD LT ISZERO PUSH2 0x2FC JUMPI DUP4 ADD PUSH2 0x267 JUMP JUMPDEST DUP5 MLOAD PUSH3 0x461BCD PUSH1 0xE5 SHL DUP2 MSTORE PUSH1 0x20 DUP2 DUP5 ADD MSTORE PUSH1 0x18 PUSH1 0x24 DUP3 ADD MSTORE PUSH32 0x5468726573686F6C6473206E6F7420617363656E64696E670000000000000000 PUSH1 0x44 DUP3 ADD MSTORE PUSH1 0x64 SWAP1 REVERT JUMPDEST PUSH4 0x4E487B71 PUSH1 0xE0 SHL DUP10 MSTORE PUSH1 0x11 DUP5 MSTORE PUSH1 0x24 DUP10 REVERT JUMPDEST PUSH1 0x64 SWAP1 PUSH1 0x20 DUP6 MLOAD SWAP2 PUSH3 0x461BCD PUSH1 0xE5 SHL DUP4 MSTORE DUP3 ADD MSTORE PUSH1 0xE PUSH1 0x24 DUP3 ADD MSTORE PUSH14 0x109859081D1A595C8818DBDD5B9D PUSH1 0x92 SHL PUSH1 0x44 DUP3 ADD MSTORE REVERT JUMPDEST POP PUSH1 0x8 DUP6 GT ISZERO PUSH2 0x25F JUMP JUMPDEST DUP5 DUP1 REVERT JUMPDEST DUP3 DUP1 REVERT JUMPDEST POP POP CALLVALUE PUSH2 0x17D JUMPI DUP1 PUSH1 0x3 NOT CALLDATASIZE ADD SLT PUSH2 0x17D JUMPI PUSH1 0x20 SWAP2 DUP2 SWAP1 PUSH1 0x1 PUSH1 0x1 PUSH1 0xA0 SHL SUB PUSH2 0x3C0 PUSH2 0xE92 JUMP JUMPDEST AND DUP2 MSTORE PUSH1 0x13 DUP5 MSTORE DUP2 DUP2 KECCAK256 PUSH1 0x24 CALLDATALOAD DUP3 MSTORE DUP5 MSTORE KECCAK256 SLOAD SWAP1 MLOAD SWAP1 DUP2 MSTORE RETURN JUMPDEST SWAP1 POP CALLVALUE PUSH2 0x395 JUMPI PUSH1 0x20 CALLDATASIZE PUSH1 0x3 NOT ADD SLT PUSH2 0x395 JUMPI CALLDATALOAD PUSH1 0x8 DUP2 LT ISZERO PUSH2 0x395 JUMPI PUSH1 0x20 SWAP3 POP PUSH1 0x3 ADD SLOAD SWAP1 MLOAD SWAP1 DUP2 MSTORE RETURN JUMPDEST SWAP2 SWAP1 POP CALLVALUE PUSH2 0x395 JUMPI PUSH1 0x20 DUP1 PUSH1 0x3 NOT CALLDATASIZE ADD SLT PUSH2 0x4FF JUMPI DUP3 CALLDATALOAD SWAP2 DUP3 ISZERO PUSH2 0x4D0 JUMPI DUP1 MLOAD SWAP4 PUSH4 0x23B872DD PUSH1 0xE0 SHL DUP6 MSTORE CALLER SWAP1 DUP6 ADD MSTORE ADDRESS PUSH1 0x24 DUP6 ADD MSTORE DUP3 PUSH1 0x44 DUP6 ADD MSTORE DUP2 DUP5 PUSH1 0x64 DUP2 DUP9 PUSH20 0x9EA8653640E22A5B69887985BB75D496DC97022A GAS CALL SWAP4 DUP5 ISZERO PUSH2 0x4C6 JUMPI PUSH32 0x5AF8184BEF8E4B45EB9F6ED7734D04DA38CED226495548F46E0C8FF8D7D9A524 SWAP4 SWAP5 PUSH2 0x499 JUMPI JUMPDEST POP MLOAD SWAP3 DUP4 MSTORE CALLER SWAP3 LOG2 DUP1 RETURN JUMPDEST PUSH2 0x4B8 SWAP1 DUP4 RETURNDATASIZE DUP6 GT PUSH2 0x4BF JUMPI JUMPDEST PUSH2 0x4B0 DUP2 DUP4 PUSH2 0xF4E JUMP JUMPDEST DUP2 ADD SWAP1 PUSH2 0xF86 JUMP JUMPDEST POP CODESIZE PUSH2 0x48E JUMP JUMPDEST POP RETURNDATASIZE PUSH2 0x4A6 JUMP JUMPDEST DUP2 MLOAD RETURNDATASIZE DUP8 DUP3 RETURNDATACOPY RETURNDATASIZE SWAP1 REVERT JUMPDEST MLOAD PUSH3 0x461BCD PUSH1 0xE5 SHL DUP2 MSTORE SWAP3 DUP4 ADD MSTORE POP PUSH1 0xB PUSH1 0x24 DUP3 ADD MSTORE PUSH11 0x16995C9BC8185B5BDD5B9D PUSH1 0xAA SHL PUSH1 0x44 DUP3 ADD MSTORE PUSH1 0x64 SWAP1 REVERT JUMPDEST DUP4 DUP1 REVERT JUMPDEST POP POP CALLVALUE PUSH2 0x17D JUMPI DUP2 PUSH1 0x3 NOT CALLDATASIZE ADD SLT PUSH2 0x17D JUMPI SWAP1 SLOAD SWAP1 MLOAD PUSH1 0x1 PUSH1 0x1 PUSH1 0xA0 SHL SUB SWAP1 SWAP2 AND DUP2 MSTORE PUSH1 0x20 SWAP1 RETURN JUMPDEST DUP3 DUP5 CALLVALUE PUSH2 0x5E2 JUMPI DUP1 PUSH1 0x3 NOT CALLDATASIZE ADD SLT PUSH2 0x5E2 JUMPI PUSH3 0x278D00 DUP1 TIMESTAMP DIV SWAP3 DUP2 DUP5 MUL SWAP3 DUP5 DUP5 DIV DUP4 EQ DUP6 ISZERO OR ISZERO PUSH2 0x5BC JUMPI PUSH1 0x1 DUP6 ADD DUP1 DUP7 GT PUSH2 0x5CF JUMPI DUP4 DUP2 MUL SWAP4 DUP2 DUP6 DIV EQ SWAP1 ISZERO OR ISZERO PUSH2 0x5BC JUMPI TIMESTAMP DUP4 GT ISZERO PUSH2 0x5B2 JUMPI TIMESTAMP DUP4 SUB SWAP1 DUP4 DUP3 GT PUSH2 0x59F JUMPI POP PUSH1 0x80 SWAP6 POP SWAP3 JUMPDEST DUP2 MLOAD SWAP5 DUP6 MSTORE PUSH1 0x20 DUP6 ADD MSTORE DUP4 ADD MSTORE PUSH1 0x60 DUP3 ADD MSTORE RETURN JUMPDEST PUSH4 0x4E487B71 PUSH1 0xE0 SHL DUP2 MSTORE PUSH1 0x11 DUP8 MSTORE PUSH1 0x24 SWAP1 REVERT JUMPDEST PUSH1 0x80 SWAP6 POP SWAP3 PUSH2 0x58B JUMP JUMPDEST PUSH4 0x4E487B71 PUSH1 0xE0 SHL DUP2 MSTORE PUSH1 0x11 DUP7 MSTORE PUSH1 0x24 SWAP1 REVERT JUMPDEST PUSH4 0x4E487B71 PUSH1 0xE0 SHL DUP3 MSTORE PUSH1 0x11 DUP8 MSTORE PUSH1 0x24 DUP3 REVERT JUMPDEST DUP1 REVERT JUMPDEST POP POP CALLVALUE PUSH2 0x17D JUMPI DUP2 PUSH1 0x3 NOT CALLDATASIZE ADD SLT PUSH2 0x17D JUMPI PUSH1 0x20 SWAP1 MLOAD PUSH3 0x278D00 TIMESTAMP DIV DUP2 MSTORE RETURN JUMPDEST DUP3 DUP5 CALLVALUE PUSH2 0x5E2 JUMPI PUSH1 0x20 SWAP2 DUP3 PUSH1 0x3 NOT CALLDATASIZE ADD SLT PUSH2 0x17D JUMPI DUP2 PUSH2 0x65D SWAP4 SWAP5 PUSH2 0x628 PUSH2 0xE92 JUMP JUMPDEST DUP4 MLOAD PUSH4 0x304CF659 PUSH1 0xE1 SHL DUP2 MSTORE PUSH1 0x1 PUSH1 0x1 PUSH1 0xA0 SHL SUB SWAP1 SWAP2 AND SWAP2 DUP2 ADD SWAP2 DUP3 MSTORE PUSH3 0x278D00 TIMESTAMP DIV PUSH1 0x20 DUP4 ADD MSTORE SWAP5 DUP6 SWAP2 DUP3 SWAP2 PUSH1 0x40 SWAP1 SWAP2 ADD SWAP1 JUMP JUMPDEST SUB DUP2 ADDRESS GAS STATICCALL SWAP2 DUP3 ISZERO PUSH2 0x740 JUMPI DUP1 SWAP4 DUP2 SWAP6 DUP3 SWAP5 PUSH2 0x68A JUMPI JUMPDEST POP POP POP SWAP1 PUSH2 0x686 SWAP2 MLOAD SWAP4 DUP5 SWAP4 DUP5 PUSH2 0xEAD JUMP JUMPDEST SUB SWAP1 RETURN JUMPDEST SWAP3 SWAP4 POP SWAP4 POP SWAP4 POP RETURNDATASIZE DUP1 DUP6 DUP6 RETURNDATACOPY PUSH2 0x6A0 DUP2 DUP6 PUSH2 0xF4E JUMP JUMPDEST DUP4 ADD SWAP1 PUSH1 0x60 DUP5 DUP4 SUB SLT PUSH2 0x391 JUMPI DUP4 MLOAD SWAP2 DUP2 DUP6 ADD MLOAD SWAP5 DUP5 DUP2 ADD MLOAD SWAP1 PUSH8 0xFFFFFFFFFFFFFFFF DUP3 GT PUSH2 0x73C JUMPI ADD SWAP6 DUP2 PUSH1 0x1F DUP9 ADD SLT ISZERO PUSH2 0x5E2 JUMPI DUP7 MLOAD SWAP1 PUSH2 0x6E2 DUP3 PUSH2 0x1050 JUMP JUMPDEST SWAP8 PUSH2 0x6EF DUP8 MLOAD SWAP10 DUP11 PUSH2 0xF4E JUMP JUMPDEST DUP3 DUP10 MSTORE DUP5 DUP1 DUP11 ADD SWAP4 PUSH1 0x5 SHL DUP3 ADD ADD SWAP4 DUP5 GT PUSH2 0x17D JUMPI DUP5 ADD SWAP2 JUMPDEST DUP4 DUP4 LT PUSH2 0x723 JUMPI POP POP POP POP POP SWAP1 PUSH2 0x686 SWAP2 SWAP3 SWAP4 SWAP2 DUP6 DUP1 PUSH2 0x674 JUMP JUMPDEST DUP3 MLOAD PUSH1 0xFF DUP2 AND DUP2 SUB PUSH2 0x395 JUMPI DUP2 MSTORE SWAP2 DUP5 ADD SWAP2 DUP5 ADD PUSH2 0x708 JUMP JUMPDEST DUP8 DUP1 REVERT JUMPDEST SWAP1 MLOAD SWAP1 RETURNDATASIZE SWAP1 DUP3 RETURNDATACOPY RETURNDATASIZE SWAP1 REVERT JUMPDEST DUP3 DUP5 CALLVALUE PUSH2 0x5E2 JUMPI DUP1 PUSH1 0x3 NOT CALLDATASIZE ADD SLT PUSH2 0x5E2 JUMPI PUSH1 0x2 SLOAD SWAP3 PUSH2 0x76A DUP5 PUSH2 0x1092 JUMP JUMPDEST SWAP4 PUSH2 0x774 DUP2 PUSH2 0x1092 JUMP JUMPDEST SWAP3 DUP1 JUMPDEST DUP3 DUP2 LT PUSH2 0x7A2 JUMPI DUP6 MLOAD DUP7 DUP2 MSTORE DUP1 PUSH2 0x686 DUP8 PUSH2 0x794 DUP4 DUP12 ADD DUP13 PUSH2 0xEF7 JUMP JUMPDEST SWAP1 DUP4 DUP3 SUB PUSH1 0x20 DUP6 ADD MSTORE PUSH2 0xEF7 JUMP JUMPDEST PUSH1 0x8 DUP2 LT ISZERO PUSH2 0x7D4 JUMPI DUP1 PUSH1 0x1 SWAP2 PUSH1 0x3 ADD SLOAD PUSH2 0x7BD DUP3 DUP11 PUSH2 0x1068 JUMP JUMPDEST MSTORE DUP1 PUSH1 0xB ADD SLOAD PUSH2 0x7CD DUP3 DUP9 PUSH2 0x1068 JUMP JUMPDEST MSTORE ADD PUSH2 0x777 JUMP JUMPDEST PUSH4 0x4E487B71 PUSH1 0xE0 SHL DUP3 MSTORE PUSH1 0x32 DUP5 MSTORE PUSH1 0x24 DUP3 REVERT JUMPDEST DUP3 DUP5 CALLVALUE PUSH2 0x5E2 JUMPI DUP2 PUSH1 0x3 NOT CALLDATASIZE ADD SLT PUSH2 0x5E2 JUMPI PUSH2 0x801 PUSH2 0xE92 JUMP JUMPDEST SWAP2 PUSH1 0x24 SWAP2 PUSH1 0x24 CALLDATALOAD DUP2 SWAP5 PUSH1 0x1 DUP1 PUSH1 0xA0 SHL SUB AND SWAP4 DUP5 DUP4 MSTORE PUSH1 0x20 SWAP3 PUSH1 0x13 DUP5 MSTORE DUP5 DUP2 KECCAK256 DUP4 DUP3 MSTORE DUP5 MSTORE DUP5 DUP2 KECCAK256 SLOAD SWAP8 PUSH1 0x2 SWAP5 PUSH1 0x2 SLOAD SWAP5 PUSH2 0x83A DUP7 PUSH2 0x1050 JUMP JUMPDEST SWAP9 PUSH2 0x847 DUP10 MLOAD SWAP11 DUP12 PUSH2 0xF4E JUMP JUMPDEST DUP7 DUP11 MSTORE PUSH1 0x1F NOT PUSH2 0x856 DUP9 PUSH2 0x1050 JUMP JUMPDEST ADD CALLDATASIZE DUP5 DUP13 ADD CALLDATACOPY DUP5 JUMPDEST DUP8 DUP2 LT PUSH2 0x876 JUMPI DUP13 DUP13 PUSH2 0x686 DUP14 DUP14 MLOAD SWAP4 DUP5 SWAP4 DUP5 PUSH2 0xEAD JUMP JUMPDEST DUP11 SWAP1 DUP3 DUP8 MSTORE PUSH1 0x14 DUP6 MSTORE DUP11 DUP8 KECCAK256 DUP5 DUP9 MSTORE DUP6 MSTORE DUP11 DUP8 KECCAK256 DUP2 DUP9 MSTORE DUP6 MSTORE DUP10 PUSH1 0xFF DUP13 DUP10 KECCAK256 SLOAD AND PUSH1 0x0 EQ PUSH2 0x8B2 JUMPI PUSH2 0x8AA DUP3 PUSH1 0x1 SWAP5 PUSH2 0x1068 JUMP JUMPDEST MSTORE JUMPDEST ADD PUSH2 0x85E JUMP JUMPDEST POP SWAP1 POP PUSH1 0x8 DUP2 LT ISZERO PUSH2 0x8F9 JUMPI DUP1 PUSH1 0x3 ADD SLOAD DUP14 LT ISZERO PUSH2 0x8D3 JUMPI JUMPDEST PUSH1 0x1 SWAP1 PUSH2 0x8AC JUMP JUMPDEST SWAP11 PUSH2 0x8F1 PUSH1 0x1 SWAP2 DUP3 PUSH2 0x8E5 DUP16 DUP16 PUSH2 0x1068 JUMP JUMPDEST MSTORE DUP14 PUSH1 0xB ADD SLOAD SWAP1 PUSH2 0xF2B JUMP JUMPDEST SWAP12 SWAP1 POP PUSH2 0x8CB JUMP JUMPDEST PUSH4 0x4E487B71 PUSH1 0xE0 SHL DUP7 MSTORE PUSH1 0x32 DUP6 MSTORE DUP7 DUP7 REVERT JUMPDEST SWAP1 POP CALLVALUE PUSH2 0x395 JUMPI PUSH1 0x20 CALLDATASIZE PUSH1 0x3 NOT ADD SLT PUSH2 0x395 JUMPI CALLDATALOAD PUSH1 0x8 DUP2 LT ISZERO PUSH2 0x395 JUMPI PUSH1 0x20 SWAP3 POP PUSH1 0xB ADD SLOAD SWAP1 MLOAD SWAP1 DUP2 MSTORE RETURN JUMPDEST SWAP2 SWAP1 POP CALLVALUE PUSH2 0x395 JUMPI PUSH1 0x20 CALLDATASIZE PUSH1 0x3 NOT ADD SLT PUSH2 0x395 JUMPI DUP3 SLOAD PUSH2 0x999 SWAP3 PUSH1 0x20 SWAP2 PUSH1 0x1 PUSH1 0x1 PUSH1 0xA0 SHL SUB AND PUSH2 0x968 CALLER DUP3 EQ PUSH2 0x1018 JUMP JUMPDEST DUP4 MLOAD PUSH4 0xA9059CBB PUSH1 0xE0 SHL DUP2 MSTORE PUSH1 0x1 PUSH1 0x1 PUSH1 0xA0 SHL SUB SWAP1 SWAP2 AND DUP3 DUP3 ADD SWAP1 DUP2 MSTORE SWAP2 CALLDATALOAD PUSH1 0x20 DUP4 ADD MSTORE SWAP4 DUP5 SWAP2 DUP3 SWAP2 PUSH1 0x40 SWAP1 SWAP2 ADD SWAP1 JUMP JUMPDEST SUB DUP2 DUP7 PUSH20 0x9EA8653640E22A5B69887985BB75D496DC97022A GAS CALL SWAP1 DUP2 ISZERO PUSH2 0x9DF JUMPI POP PUSH2 0x9C3 JUMPI POP DUP1 RETURN JUMPDEST PUSH2 0x9DB SWAP1 PUSH1 0x20 RETURNDATASIZE PUSH1 0x20 GT PUSH2 0x4BF JUMPI PUSH2 0x4B0 DUP2 DUP4 PUSH2 0xF4E JUMP JUMPDEST POP DUP1 RETURN JUMPDEST MLOAD RETURNDATASIZE DUP5 DUP3 RETURNDATACOPY RETURNDATASIZE SWAP1 REVERT JUMPDEST DUP4 CALLVALUE PUSH2 0x5E2 JUMPI PUSH1 0x20 CALLDATASIZE PUSH1 0x3 NOT ADD SLT PUSH2 0x5E2 JUMPI PUSH2 0xA02 PUSH2 0xE92 JUMP JUMPDEST DUP2 SLOAD PUSH1 0x1 PUSH1 0x1 PUSH1 0xA0 SHL SUB SWAP2 SWAP1 PUSH2 0xA1B SWAP1 DUP4 AND CALLER EQ PUSH2 0x1018 JUMP JUMPDEST AND PUSH12 0xFFFFFFFFFFFFFFFFFFFFFFFF PUSH1 0xA0 SHL PUSH1 0x1 SLOAD AND OR PUSH1 0x1 SSTORE DUP1 RETURN JUMPDEST POP POP CALLVALUE PUSH2 0x17D JUMPI DUP2 PUSH1 0x3 NOT CALLDATASIZE ADD SLT PUSH2 0x17D JUMPI PUSH1 0x20 SWAP1 PUSH1 0x2 SLOAD SWAP1 MLOAD SWAP1 DUP2 MSTORE RETURN JUMPDEST POP POP CALLVALUE PUSH2 0x17D JUMPI CALLDATASIZE PUSH1 0x3 NOT ADD SLT PUSH2 0x5E2 JUMPI PUSH2 0xA8F PUSH2 0xA72 PUSH2 0xE92 JUMP JUMPDEST PUSH2 0xA86 PUSH1 0x1 DUP1 PUSH1 0xA0 SHL SUB DUP5 SLOAD AND CALLER EQ PUSH2 0x1018 JUMP JUMPDEST PUSH1 0x24 CALLDATALOAD SWAP1 PUSH2 0xF9E JUMP JUMPDEST DUP1 RETURN JUMPDEST SWAP1 POP CALLVALUE PUSH2 0x395 JUMPI PUSH1 0x20 CALLDATASIZE PUSH1 0x3 NOT ADD SLT PUSH2 0x395 JUMPI PUSH2 0xAAD PUSH2 0xE92 JUMP JUMPDEST DUP4 SLOAD SWAP2 SWAP1 PUSH1 0x1 PUSH1 0x1 PUSH1 0xA0 SHL SUB SWAP1 PUSH2 0xAC7 CALLER DUP4 DUP7 AND EQ PUSH2 0x1018 JUMP JUMPDEST AND SWAP3 DUP4 ISZERO PUSH2 0xAE1 JUMPI POP POP PUSH1 0x1 PUSH1 0x1 PUSH1 0xA0 SHL SUB NOT AND OR DUP2 SSTORE DUP1 RETURN JUMPDEST SWAP1 PUSH1 0x20 PUSH1 0x64 SWAP3 MLOAD SWAP2 PUSH3 0x461BCD PUSH1 0xE5 SHL DUP4 MSTORE DUP3 ADD MSTORE PUSH1 0x9 PUSH1 0x24 DUP3 ADD MSTORE PUSH9 0x2D32B9379030B23239 PUSH1 0xB9 SHL PUSH1 0x44 DUP3 ADD MSTORE REVERT JUMPDEST SWAP1 POP CALLVALUE PUSH2 0x395 JUMPI DUP2 PUSH1 0x3 NOT CALLDATASIZE ADD SLT PUSH2 0x395 JUMPI PUSH2 0xB2A PUSH2 0xE92 JUMP JUMPDEST PUSH1 0x1 SLOAD SWAP1 SWAP3 SWAP1 CALLER PUSH1 0x1 PUSH1 0x1 PUSH1 0xA0 SHL SUB SWAP2 DUP3 AND EQ SWAP1 DUP2 ISZERO PUSH2 0xB8C JUMPI JUMPDEST POP ISZERO PUSH2 0xB58 JUMPI DUP4 PUSH2 0xA8F PUSH1 0x24 CALLDATALOAD DUP6 PUSH2 0xF9E JUMP JUMPDEST SWAP1 PUSH1 0x20 PUSH1 0x64 SWAP3 MLOAD SWAP2 PUSH3 0x461BCD PUSH1 0xE5 SHL DUP4 MSTORE DUP3 ADD MSTORE PUSH1 0xE PUSH1 0x24 DUP3 ADD MSTORE PUSH14 0x139BDD08185D5D1A1BDC9A5E9959 PUSH1 0x92 SHL PUSH1 0x44 DUP3 ADD MSTORE REVERT JUMPDEST SWAP1 POP DUP5 SLOAD AND CALLER EQ CODESIZE PUSH2 0xB45 JUMP JUMPDEST DUP4 DUP4 CALLVALUE PUSH2 0x17D JUMPI PUSH1 0x20 DUP1 PUSH1 0x3 NOT CALLDATASIZE ADD SLT PUSH2 0x395 JUMPI DUP4 CALLDATALOAD SWAP2 CALLER DUP5 MSTORE PUSH1 0x13 DUP3 MSTORE DUP1 DUP5 KECCAK256 DUP4 DUP6 MSTORE DUP3 MSTORE DUP1 DUP5 KECCAK256 SLOAD SWAP4 DUP5 ISZERO PUSH2 0xE3D JUMPI DUP1 SWAP3 DUP2 JUMPDEST PUSH1 0x2 SLOAD DUP2 LT ISZERO PUSH2 0xC72 JUMPI PUSH1 0x8 DUP2 LT ISZERO PUSH2 0xC5F JUMPI DUP1 PUSH1 0x3 ADD SLOAD DUP8 LT ISZERO DUP1 PUSH2 0xC3A JUMPI JUMPDEST PUSH2 0xBFC JUMPI JUMPDEST PUSH1 0x1 ADD PUSH2 0xBCE JUMP JUMPDEST SWAP4 PUSH2 0xC32 PUSH1 0x1 SWAP2 CALLER DUP6 MSTORE PUSH1 0x14 DUP5 MSTORE DUP6 DUP6 KECCAK256 DUP9 DUP7 MSTORE DUP5 MSTORE DUP6 DUP6 KECCAK256 DUP8 DUP7 MSTORE DUP5 MSTORE DUP6 DUP6 KECCAK256 DUP4 PUSH1 0xFF NOT DUP3 SLOAD AND OR SWAP1 SSTORE DUP7 PUSH1 0xB ADD SLOAD SWAP1 PUSH2 0xF2B JUMP JUMPDEST SWAP5 SWAP1 POP PUSH2 0xBF4 JUMP JUMPDEST POP CALLER DUP4 MSTORE PUSH1 0x14 DUP3 MSTORE DUP4 DUP4 KECCAK256 DUP7 DUP5 MSTORE DUP3 MSTORE DUP4 DUP4 KECCAK256 DUP2 DUP5 MSTORE DUP3 MSTORE PUSH1 0xFF DUP5 DUP5 KECCAK256 SLOAD AND ISZERO PUSH2 0xBEF JUMP JUMPDEST PUSH4 0x4E487B71 PUSH1 0xE0 SHL DUP4 MSTORE PUSH1 0x32 DUP9 MSTORE PUSH1 0x24 DUP4 REVERT JUMPDEST POP DUP4 DUP6 SWAP2 DUP9 DUP3 ISZERO PUSH2 0xDFD JUMPI DUP6 MLOAD PUSH4 0x70A08231 PUSH1 0xE0 SHL DUP2 MSTORE ADDRESS DUP3 DUP3 ADD MSTORE PUSH20 0x9EA8653640E22A5B69887985BB75D496DC97022A SWAP2 SWAP1 DUP4 DUP2 PUSH1 0x24 DUP2 DUP7 GAS STATICCALL SWAP1 DUP2 ISZERO PUSH2 0xDF3 JUMPI SWAP1 DUP6 SWAP2 DUP9 SWAP2 PUSH2 0xDBE JUMPI JUMPDEST POP LT PUSH2 0xD6F JUMPI DUP4 PUSH2 0xD09 SWAP7 SWAP8 SWAP3 DUP5 SWAP3 PUSH2 0xCD9 DUP4 PUSH1 0x15 SLOAD PUSH2 0xF2B JUMP JUMPDEST PUSH1 0x15 SSTORE DUP5 MLOAD PUSH4 0xA9059CBB PUSH1 0xE0 SHL DUP2 MSTORE CALLER SWAP2 DUP2 ADD SWAP2 DUP3 MSTORE PUSH1 0x20 DUP3 ADD SWAP4 SWAP1 SWAP4 MSTORE SWAP2 SWAP8 DUP9 SWAP3 DUP4 SWAP2 DUP12 SWAP2 DUP4 SWAP2 PUSH1 0x40 SWAP1 SWAP2 ADD SWAP1 JUMP JUMPDEST SUB SWAP3 GAS CALL SWAP5 DUP6 ISZERO PUSH2 0xD65 JUMPI PUSH32 0xF01DA32686223933D8A18A391060918C7F11A3648639EDD87AE013E2E2731743 SWAP4 SWAP5 SWAP6 PUSH2 0xD48 JUMPI JUMPDEST POP MLOAD SWAP3 DUP4 MSTORE CALLER SWAP3 LOG3 DUP1 RETURN JUMPDEST PUSH2 0xD5E SWAP1 DUP4 RETURNDATASIZE DUP6 GT PUSH2 0x4BF JUMPI PUSH2 0x4B0 DUP2 DUP4 PUSH2 0xF4E JUMP JUMPDEST POP DUP7 PUSH2 0xD3D JUMP JUMPDEST DUP2 MLOAD RETURNDATASIZE DUP9 DUP3 RETURNDATACOPY RETURNDATASIZE SWAP1 REVERT JUMPDEST DUP7 MLOAD PUSH3 0x461BCD PUSH1 0xE5 SHL DUP2 MSTORE SWAP1 DUP2 ADD DUP4 SWAP1 MSTORE PUSH1 0x24 DUP1 DUP3 ADD MSTORE PUSH32 0x496E73756666696369656E742055544832202D207761697420666F7220726573 PUSH1 0x44 DUP3 ADD MSTORE PUSH4 0x746F636B PUSH1 0xE0 SHL PUSH1 0x64 DUP3 ADD MSTORE PUSH1 0x84 SWAP1 REVERT JUMPDEST DUP1 SWAP3 POP DUP6 DUP1 SWAP3 POP RETURNDATASIZE DUP4 GT PUSH2 0xDEC JUMPI JUMPDEST PUSH2 0xDD7 DUP2 DUP4 PUSH2 0xF4E JUMP JUMPDEST DUP2 ADD SUB SLT PUSH2 0xDE8 JUMPI DUP5 SWAP1 MLOAD DUP10 PUSH2 0xCBE JUMP JUMPDEST DUP7 DUP1 REVERT JUMPDEST POP RETURNDATASIZE PUSH2 0xDCD JUMP JUMPDEST DUP9 MLOAD RETURNDATASIZE DUP10 DUP3 RETURNDATACOPY RETURNDATASIZE SWAP1 REVERT JUMPDEST DUP2 PUSH1 0x64 SWAP3 DUP8 MLOAD SWAP3 PUSH3 0x461BCD PUSH1 0xE5 SHL DUP5 MSTORE DUP4 ADD MSTORE PUSH1 0x24 DUP3 ADD MSTORE PUSH32 0x416C6C20746965727320636C61696D6564206F72206E6F742072656163686564 PUSH1 0x44 DUP3 ADD MSTORE REVERT JUMPDEST DUP2 MLOAD PUSH3 0x461BCD PUSH1 0xE5 SHL DUP2 MSTORE DUP1 DUP8 ADD DUP5 SWAP1 MSTORE PUSH1 0x14 PUSH1 0x24 DUP3 ADD MSTORE PUSH20 0x9CDE40ECDED8EADACA40E8D0D2E640DADEDCE8D PUSH1 0x63 SHL PUSH1 0x44 DUP3 ADD MSTORE PUSH1 0x64 SWAP1 REVERT JUMPDEST DUP5 SWAP1 CALLVALUE PUSH2 0x17D JUMPI DUP2 PUSH1 0x3 NOT CALLDATASIZE ADD SLT PUSH2 0x17D JUMPI DUP1 PUSH1 0x8 PUSH1 0x20 SWAP3 MSTORE RETURN JUMPDEST PUSH1 0x4 CALLDATALOAD SWAP1 PUSH1 0x1 PUSH1 0x1 PUSH1 0xA0 SHL SUB DUP3 AND DUP3 SUB PUSH2 0xEA8 JUMPI JUMP JUMPDEST PUSH1 0x0 DUP1 REVERT JUMPDEST PUSH1 0x80 PUSH1 0x20 SWAP2 PUSH1 0x60 DUP2 ADD SWAP4 DUP2 MSTORE DUP3 SWAP5 DUP4 DUP3 ADD MSTORE PUSH1 0x60 PUSH1 0x40 DUP3 ADD MSTORE DUP6 MLOAD DUP1 SWAP5 MSTORE ADD SWAP4 ADD SWAP2 PUSH1 0x0 JUMPDEST DUP3 DUP2 LT PUSH2 0xEE0 JUMPI POP POP POP POP SWAP1 JUMP JUMPDEST DUP4 MLOAD PUSH1 0xFF AND DUP6 MSTORE SWAP4 DUP2 ADD SWAP4 SWAP3 DUP2 ADD SWAP3 PUSH1 0x1 ADD PUSH2 0xED2 JUMP JUMPDEST SWAP1 DUP2 MLOAD DUP1 DUP3 MSTORE PUSH1 0x20 DUP1 DUP1 SWAP4 ADD SWAP4 ADD SWAP2 PUSH1 0x0 JUMPDEST DUP3 DUP2 LT PUSH2 0xF17 JUMPI POP POP POP POP SWAP1 JUMP JUMPDEST DUP4 MLOAD DUP6 MSTORE SWAP4 DUP2 ADD SWAP4 SWAP3 DUP2 ADD SWAP3 PUSH1 0x1 ADD PUSH2 0xF09 JUMP JUMPDEST SWAP2 SWAP1 DUP3 ADD DUP1 SWAP3 GT PUSH2 0xF38 JUMPI JUMP JUMPDEST PUSH4 0x4E487B71 PUSH1 0xE0 SHL PUSH1 0x0 MSTORE PUSH1 0x11 PUSH1 0x4 MSTORE PUSH1 0x24 PUSH1 0x0 REVERT JUMPDEST SWAP1 PUSH1 0x1F DUP1 NOT SWAP2 ADD AND DUP2 ADD SWAP1 DUP2 LT PUSH8 0xFFFFFFFFFFFFFFFF DUP3 GT OR PUSH2 0xF70 JUMPI PUSH1 0x40 MSTORE JUMP JUMPDEST PUSH4 0x4E487B71 PUSH1 0xE0 SHL PUSH1 0x0 MSTORE PUSH1 0x41 PUSH1 0x4 MSTORE PUSH1 0x24 PUSH1 0x0 REVERT JUMPDEST SWAP1 DUP2 PUSH1 0x20 SWAP2 SUB SLT PUSH2 0xEA8 JUMPI MLOAD DUP1 ISZERO ISZERO DUP2 SUB PUSH2 0xEA8 JUMPI SWAP1 JUMP JUMPDEST SWAP1 PUSH32 0xBE136F55822A8400613C511FE3A4AB8AEAA1DF9C6D834AFD7D8531039E327B09 PUSH3 0x278D00 TIMESTAMP DIV SWAP3 PUSH1 0x1 DUP1 PUSH1 0xA0 SHL SUB AND SWAP2 PUSH1 0x0 SWAP1 DUP4 DUP3 MSTORE PUSH1 0x13 PUSH1 0x20 MSTORE PUSH1 0x40 DUP3 DUP2 DUP1 SWAP5 KECCAK256 DUP8 DUP3 MSTORE PUSH1 0x20 MSTORE DUP2 DUP2 KECCAK256 PUSH2 0xFF6 DUP5 DUP3 SLOAD PUSH2 0xF2B JUMP JUMPDEST SWAP1 SSTORE DUP6 DUP2 MSTORE PUSH1 0x13 PUSH1 0x20 MSTORE DUP2 DUP2 KECCAK256 DUP8 DUP3 MSTORE PUSH1 0x20 MSTORE KECCAK256 SLOAD DUP3 MLOAD SWAP2 DUP3 MSTORE PUSH1 0x20 DUP3 ADD MSTORE LOG3 JUMP JUMPDEST ISZERO PUSH2 0x101F JUMPI JUMP JUMPDEST PUSH1 0x40 MLOAD PUSH3 0x461BCD PUSH1 0xE5 SHL DUP2 MSTORE PUSH1 0x20 PUSH1 0x4 DUP3 ADD MSTORE PUSH1 0x9 PUSH1 0x24 DUP3 ADD MSTORE PUSH9 0x2737BA1037BBB732B9 PUSH1 0xB9 SHL PUSH1 0x44 DUP3 ADD MSTORE PUSH1 0x64 SWAP1 REVERT JUMPDEST PUSH8 0xFFFFFFFFFFFFFFFF DUP2 GT PUSH2 0xF70 JUMPI PUSH1 0x5 SHL PUSH1 0x20 ADD SWAP1 JUMP JUMPDEST DUP1 MLOAD DUP3 LT ISZERO PUSH2 0x107C JUMPI PUSH1 0x20 SWAP2 PUSH1 0x5 SHL ADD ADD SWAP1 JUMP JUMPDEST PUSH4 0x4E487B71 PUSH1 0xE0 SHL PUSH1 0x0 MSTORE PUSH1 0x32 PUSH1 0x4 MSTORE PUSH1 0x24 PUSH1 0x0 REVERT JUMPDEST SWAP1 PUSH2 0x109C DUP3 PUSH2 0x1050 JUMP JUMPDEST PUSH2 0x10A9 PUSH1 0x40 MLOAD SWAP2 DUP3 PUSH2 0xF4E JUMP JUMPDEST DUP3 DUP2 MSTORE DUP1 SWAP3 PUSH2 0x10BA PUSH1 0x1F NOT SWAP2 PUSH2 0x1050 JUMP JUMPDEST ADD SWAP1 PUSH1 0x20 CALLDATASIZE SWAP2 ADD CALLDATACOPY JUMP JUMPDEST PUSH1 0x8 DUP2 LT ISZERO PUSH2 0x107C JUMPI PUSH1 0x5 SHL PUSH1 0x24 ADD SWAP1 JUMP INVALID LOG2 PUSH5 0x6970667358 0x22 SLT KECCAK256 0xF8 PUSH16 0x3B937E8987F8C365CA00FBB79B2AEA45 SWAP1 SMOD 0xB2 CALLDATALOAD STOP CODECOPY DUP4 CREATE COINBASE 0xCD 0xD8 0x26 ADDMOD BLOBHASH PUSH5 0x736F6C6343 STOP ADDMOD XOR STOP CALLER "},"methodIdentifiers":{"MAX_TIERS()":"07c3d4af","PERIOD()":"b4d1d795","UTH2()":"f6c08a2e","adminRecordVolume(address,uint256)":"1daddb5e","claimRewards(uint256)":"0962ef79","claimed(address,uint256,uint256)":"faf8ef98","currentMonth()":"862a4d47","emergencyWithdraw(uint256)":"5312ea8e","fundUTH2(uint256)":"9220162f","getAllTiers()":"6471af83","getPeriodInfo()":"8d227fc0","numTiers()":"40445a4f","owner()":"8da5cb5b","pendingNow(address)":"76e77df0","pendingRewards(address,uint256)":"6099ecb2","recordSwap(address,uint256)":"09680135","setOwner(address)":"13af4035","setSwapRouter(address)":"41273657","setTiers(uint256,uint256[8],uint256[8])":"aa62f83d","swapRouter()":"c31c9c07","tierRewards(uint256)":"556c448d","tierThresholds(uint256)":"a100d69d","totalDistributed()":"efca2eed","volume(address,uint256)":"a70c1aba"}}}}}