{"contracts/UniversalStakingV2.sol":{"UniversalStakingV2":{"abi":[{"inputs":[{"internalType":"address","name":"token","type":"address"},{"internalType":"address","name":"owner1","type":"address"},{"internalType":"address","name":"owner2","type":"address"}],"stateMutability":"nonpayable","type":"constructor"},{"anonymous":false,"inputs":[{"indexed":true,"internalType":"address","name":"user","type":"address"},{"indexed":false,"internalType":"uint256","name":"amount","type":"uint256"},{"indexed":false,"internalType":"uint256","name":"fee","type":"uint256"}],"name":"Claimed","type":"event"},{"anonymous":false,"inputs":[{"indexed":true,"internalType":"address","name":"token","type":"address"},{"indexed":true,"internalType":"address","name":"to","type":"address"},{"indexed":false,"internalType":"uint256","name":"amount","type":"uint256"}],"name":"EmergencyWithdraw","type":"event"},{"anonymous":false,"inputs":[{"indexed":false,"internalType":"uint256","name":"stakeFeeBps","type":"uint256"},{"indexed":false,"internalType":"uint256","name":"unstakeFeeBps","type":"uint256"},{"indexed":false,"internalType":"uint256","name":"claimFeeBps","type":"uint256"}],"name":"FeeConfigured","type":"event"},{"anonymous":false,"inputs":[{"indexed":true,"internalType":"address","name":"owner","type":"address"}],"name":"OwnerAdded","type":"event"},{"anonymous":false,"inputs":[{"indexed":true,"internalType":"address","name":"owner","type":"address"}],"name":"OwnerRemoved","type":"event"},{"anonymous":false,"inputs":[{"indexed":true,"internalType":"address","name":"by","type":"address"}],"name":"Paused","type":"event"},{"anonymous":false,"inputs":[{"indexed":true,"internalType":"address","name":"depositor","type":"address"},{"indexed":false,"internalType":"uint256","name":"amount","type":"uint256"},{"indexed":false,"internalType":"uint256","name":"newRate","type":"uint256"},{"indexed":false,"internalType":"uint256","name":"periodEnd","type":"uint256"}],"name":"RewardsDeposited","type":"event"},{"anonymous":false,"inputs":[{"indexed":true,"internalType":"address","name":"user","type":"address"},{"indexed":false,"internalType":"uint256","name":"amount","type":"uint256"},{"indexed":false,"internalType":"uint256","name":"fee","type":"uint256"}],"name":"Staked","type":"event"},{"anonymous":false,"inputs":[{"indexed":true,"internalType":"address","name":"by","type":"address"}],"name":"Unpaused","type":"event"},{"anonymous":false,"inputs":[{"indexed":true,"internalType":"address","name":"user","type":"address"},{"indexed":false,"internalType":"uint256","name":"amount","type":"uint256"},{"indexed":false,"internalType":"uint256","name":"fee","type":"uint256"}],"name":"Unstaked","type":"event"},{"inputs":[],"name":"BPS","outputs":[{"internalType":"uint256","name":"","type":"uint256"}],"stateMutability":"view","type":"function"},{"inputs":[],"name":"FEE_TO_REWARD_BPS","outputs":[{"internalType":"uint256","name":"","type":"uint256"}],"stateMutability":"view","type":"function"},{"inputs":[],"name":"MAX_FEE_BPS","outputs":[{"internalType":"uint256","name":"","type":"uint256"}],"stateMutability":"view","type":"function"},{"inputs":[],"name":"MAX_OWNERS","outputs":[{"internalType":"uint256","name":"","type":"uint256"}],"stateMutability":"view","type":"function"},{"inputs":[],"name":"PERMIT2","outputs":[{"internalType":"address","name":"","type":"address"}],"stateMutability":"view","type":"function"},{"inputs":[],"name":"REWARD_DURATION","outputs":[{"internalType":"uint256","name":"","type":"uint256"}],"stateMutability":"view","type":"function"},{"inputs":[],"name":"SCALE","outputs":[{"internalType":"uint256","name":"","type":"uint256"}],"stateMutability":"view","type":"function"},{"inputs":[],"name":"TOKEN","outputs":[{"internalType":"address","name":"","type":"address"}],"stateMutability":"view","type":"function"},{"inputs":[{"internalType":"address","name":"addr","type":"address"}],"name":"addOwner","outputs":[],"stateMutability":"nonpayable","type":"function"},{"inputs":[],"name":"apyBps","outputs":[{"internalType":"uint256","name":"","type":"uint256"}],"stateMutability":"view","type":"function"},{"inputs":[],"name":"claimFeeBps","outputs":[{"internalType":"uint256","name":"","type":"uint256"}],"stateMutability":"view","type":"function"},{"inputs":[],"name":"claimRewards","outputs":[],"stateMutability":"nonpayable","type":"function"},{"inputs":[],"name":"contractTokenBalance","outputs":[{"internalType":"uint256","name":"","type":"uint256"}],"stateMutability":"view","type":"function"},{"inputs":[{"internalType":"uint256","name":"amount","type":"uint256"}],"name":"depositRewards","outputs":[],"stateMutability":"nonpayable","type":"function"},{"inputs":[{"internalType":"address","name":"account","type":"address"}],"name":"earned","outputs":[{"internalType":"uint256","name":"","type":"uint256"}],"stateMutability":"view","type":"function"},{"inputs":[{"internalType":"address","name":"token","type":"address"},{"internalType":"uint256","name":"amount","type":"uint256"},{"internalType":"address","name":"to","type":"address"}],"name":"emergencyWithdraw","outputs":[],"stateMutability":"nonpayable","type":"function"},{"inputs":[],"name":"getOwners","outputs":[{"internalType":"address[3]","name":"","type":"address[3]"}],"stateMutability":"view","type":"function"},{"inputs":[{"internalType":"address","name":"user","type":"address"}],"name":"getStakeInfo","outputs":[{"internalType":"uint256","name":"stakedAmount","type":"uint256"},{"internalType":"uint256","name":"stakedAt","type":"uint256"},{"internalType":"uint256","name":"lastClaimAt","type":"uint256"},{"internalType":"uint256","name":"pendingRewards","type":"uint256"},{"internalType":"bool","name":"active","type":"bool"}],"stateMutability":"view","type":"function"},{"inputs":[],"name":"lastTimeRewardApplicable","outputs":[{"internalType":"uint256","name":"","type":"uint256"}],"stateMutability":"view","type":"function"},{"inputs":[],"name":"lastUpdateTime","outputs":[{"internalType":"uint256","name":"","type":"uint256"}],"stateMutability":"view","type":"function"},{"inputs":[],"name":"ownerCount","outputs":[{"internalType":"uint256","name":"","type":"uint256"}],"stateMutability":"view","type":"function"},{"inputs":[{"internalType":"uint256","name":"","type":"uint256"}],"name":"owners","outputs":[{"internalType":"address","name":"","type":"address"}],"stateMutability":"view","type":"function"},{"inputs":[],"name":"pause","outputs":[],"stateMutability":"nonpayable","type":"function"},{"inputs":[],"name":"paused","outputs":[{"internalType":"bool","name":"","type":"bool"}],"stateMutability":"view","type":"function"},{"inputs":[],"name":"periodFinish","outputs":[{"internalType":"uint256","name":"","type":"uint256"}],"stateMutability":"view","type":"function"},{"inputs":[{"internalType":"address","name":"addr","type":"address"}],"name":"removeOwner","outputs":[],"stateMutability":"nonpayable","type":"function"},{"inputs":[],"name":"rewardPerToken","outputs":[{"internalType":"uint256","name":"","type":"uint256"}],"stateMutability":"view","type":"function"},{"inputs":[],"name":"rewardPerTokenStored","outputs":[{"internalType":"uint256","name":"","type":"uint256"}],"stateMutability":"view","type":"function"},{"inputs":[],"name":"rewardRate","outputs":[{"internalType":"uint256","name":"","type":"uint256"}],"stateMutability":"view","type":"function"},{"inputs":[],"name":"rewardReserve","outputs":[{"internalType":"uint256","name":"","type":"uint256"}],"stateMutability":"view","type":"function"},{"inputs":[{"internalType":"uint256","name":"bps","type":"uint256"}],"name":"setClaimFee","outputs":[],"stateMutability":"nonpayable","type":"function"},{"inputs":[{"internalType":"uint256","name":"bps","type":"uint256"}],"name":"setStakeFee","outputs":[],"stateMutability":"nonpayable","type":"function"},{"inputs":[{"internalType":"uint256","name":"bps","type":"uint256"}],"name":"setUnstakeFee","outputs":[],"stateMutability":"nonpayable","type":"function"},{"inputs":[{"components":[{"components":[{"internalType":"address","name":"token","type":"address"},{"internalType":"uint256","name":"amount","type":"uint256"}],"internalType":"struct IPermit2.TokenPermissions","name":"permitted","type":"tuple"},{"internalType":"uint256","name":"nonce","type":"uint256"},{"internalType":"uint256","name":"deadline","type":"uint256"}],"internalType":"struct IPermit2.PermitTransferFrom","name":"permit","type":"tuple"},{"internalType":"bytes","name":"signature","type":"bytes"}],"name":"stake","outputs":[],"stateMutability":"nonpayable","type":"function"},{"inputs":[],"name":"stakeFeeBps","outputs":[{"internalType":"uint256","name":"","type":"uint256"}],"stateMutability":"view","type":"function"},{"inputs":[],"name":"totalStaked","outputs":[{"internalType":"uint256","name":"","type":"uint256"}],"stateMutability":"view","type":"function"},{"inputs":[],"name":"unpause","outputs":[],"stateMutability":"nonpayable","type":"function"},{"inputs":[],"name":"unstake","outputs":[],"stateMutability":"nonpayable","type":"function"},{"inputs":[],"name":"unstakeFeeBps","outputs":[{"internalType":"uint256","name":"","type":"uint256"}],"stateMutability":"view","type":"function"},{"inputs":[{"internalType":"address","name":"","type":"address"}],"name":"users","outputs":[{"internalType":"uint256","name":"staked","type":"uint256"},{"internalType":"uint256","name":"rewardPerTokenPaid","type":"uint256"},{"internalType":"uint256","name":"pendingReward","type":"uint256"},{"internalType":"uint256","name":"stakedAt","type":"uint256"},{"internalType":"uint256","name":"lastClaimAt","type":"uint256"}],"stateMutability":"view","type":"function"}],"evm":{"bytecode":{"linkReferences":{},"object":"60a0346200018357601f62001b0d38819003918201601f19168301916001600160401b03831184841017620001885780849260609460405283398101031262000183576200004d816200019e565b906200006a604062000062602084016200019e565b92016200019e565b6101f460048190556005819055600655906001600160a01b039083821615620001515781169283156200011f57608052600080546001600160a01b031990811685179091556001600355911691821515908162000113575b50620000fe575b6040516119599081620001b482396080518181816104cb015281816105b9015281816107ce01528181610e4f01526118070152f35b600154161760015560026003553880620000c9565b905082141538620000c2565b60405162461bcd60e51b815260206004820152600a6024820152692d32b9379037bbb732b960b11b6044820152606490fd5b60405162461bcd60e51b815260206004820152600a6024820152692d32b937903a37b5b2b760b11b6044820152606490fd5b600080fd5b634e487b7160e01b600052604160045260246000fd5b51906001600160a01b0382168203620001835756fe6040608081526004908136101561001557600080fd5b600091823560e01c90816218a1161461114f5781628cc26214611129578163025e7c27146110f65781630b8bb146146110da5781630db02622146110bb578163173825d91461108d5781631d9ab29a14610da8578163249d39e914610d8b5781632def662014610c2b5781632e75ab5014610bb0578163372500ab14610abd5781633ad5b8aa14610a9f5781633f4ba83a14610a5057816351618ed314610a33578163551512de146109155781635ade228a146108f65781635c975abb146108d25781636afdd850146108a85781637065cb48146108775781637a526f4e146108585781637b0a47ee1461083957816380faa57d1461081c578163817b1cd2146107fd57816382bfefc8146107b95781638456cb59146107675781638bdf67f21461054f5781639e9aed621461049c578163a0e67e2b14610409578163a87430ba146103a6578163a93837bd146102bd578163c345315314610343578163c8f33c9114610324578163c8fc972914610305578163cab64bcd146102e6578163cd3daf9d146102c2578163d55be8c6146102bd578163df136d651461029e578163e2d7bee41461021c57508063ebe2b12b146101fe5763eced5526146101d957600080fd5b346101fa57816003193601126101fa5760209051670de0b6b3a76400008152f35b5080fd5b50346101fa57816003193601126101fa576020906009549051908152f35b9190503461029a57602036600319011261029a57817f12c476dbe611207aa496773afc1cfedb660981ebe024c62f643a0aaec9bb75699235809161026761026233611724565b6111fc565b6102756103e8831115611234565b5560055460065492519182526020820152604081019190915280606081015b0390a180f35b8280fd5b5050346101fa57816003193601126101fa57602090600a549051908152f35b6111df565b5050346101fa57816003193601126101fa576020906102df6116de565b9051908152f35b5050346101fa57816003193601126101fa57602090600d549051908152f35b5050346101fa57816003193601126101fa576020906005549051908152f35b5050346101fa57816003193601126101fa57602090600b549051908152f35b839150346101fa5760203660031901126101fa578260a0936103636111c9565b93600180871b0385168152600e60205220926103898454936003860154950154916112d2565b918051948486526020860152840152606083015215156080820152f35b9190503461029a57602036600319011261029a5760a09281906001600160a01b036103cf6111c9565b168152600e602052208054926001820154926002830154916003840154930154938151958652602086015284015260608301526080820152f35b8284346104995780600319360112610499579060608151610429816114e8565b3690378051908280835b6003821061047957505050610447826114e8565b519190825b6003831061045957606084f35b81516001600160a01b03168152600192909201916020918201910161044c565b82546001600160a01b031681526001928301929190910190602001610433565b80fd5b9190503461029a578260031936011261029a5780516370a0823160e01b815230928101929092526020826024817f00000000000000000000000000000000000000000000000000000000000000006001600160a01b03165afa91821561054557839261050d575b6020838351908152f35b9091506020813d60201161053d575b816105296020938361151a565b8101031261029a5760209250519038610503565b3d915061051c565b81513d85823e3d90fd5b8383346101fa5760203660031901126101fa5782359061057161026233611724565b6105796116de565b600a556105846116cc565b600b5561059282151561144a565b80516323b872dd60e01b8152338582015230602482015260448101839052602081606481877f00000000000000000000000000000000000000000000000000000000000000006001600160a01b03165af190811561075d57849161072e575b50156106f65761060382600d546112c5565b600d8190556009544281116106a9575050600d54670de0b6b3a764000090818102918183041490151715610696576301e1338090046008555b42600b556301e13380420190814211610696576009829055600d84905560085490519283526020830152604082015233907fb167f072295e46cb15516c982366f3856186579436fecbc2241827aa89a6685290606090a280f35b634e487b7160e01b845260118552602484fd5b6106d0916106bb6106d792429061126f565b670de0b6b3a764000093849160085490611292565b04906112c5565b818102918183041490151715610696576301e13380900460085561063c565b5162461bcd60e51b81526020818501526013602482015272151c985b9cd9995c919c9bdb4819985a5b1959606a1b6044820152606490fd5b610750915060203d602011610756575b610748818361151a565b81019061153c565b856105f1565b503d61073e565b82513d86823e3d90fd5b833461049957806003193601126104995761078461026233611724565b600160ff196007541617600755337f62e78cea01bee320cd4e420270b5ea74000d11b0c9f74754ebdbfc544b05a2588280a280f35b5050346101fa57816003193601126101fa57517f00000000000000000000000000000000000000000000000000000000000000006001600160a01b03168152602090f35b5050346101fa57816003193601126101fa57602090600c549051908152f35b5050346101fa57816003193601126101fa576020906102df6116cc565b5050346101fa57816003193601126101fa576020906008549051908152f35b5050346101fa57816003193601126101fa576020906006549051908152f35b8334610499576020366003190112610499576108a56108946111c9565b6108a061026233611724565b611592565b80f35b5050346101fa57816003193601126101fa57602090516e22d473030f116ddee9f6b43ac78ba38152f35b5050346101fa57816003193601126101fa5760209060ff6007541690519015158152f35b5050346101fa57816003193601126101fa57602090516301e133808152f35b90503461029a57606036600319011261029a576109306111c9565b6001600160a01b036044358181169460243593909290868303610a2e5761095961026233611724565b8615610a0157835163a9059cbb60e01b81526001600160a01b03909316958301958652602086810186905291169482908190604001038189885af19081156109f757916109d27ff24ef89f38eadc1bde50701ad6e4d6d11a2dc24f7cf834a486991f3883328504949260209489916109da575b50611554565b51908152a380f35b6109f19150853d871161075657610748818361151a565b386109cc565b82513d88823e3d90fd5b835162461bcd60e51b815260208188015260076024820152665a65726f20746f60c81b6044820152606490fd5b600080fd5b5050346101fa57816003193601126101fa576020906102df611484565b8334610499578060031936011261049957610a6d61026233611724565b60ff1960075416600755337f5db9ee0a495bf2e6ff9c91a7834c1ba4fdd244a5e8aa4e537bd38aeae4b073aa8280a280f35b90503461029a578260031936011261029a5760209250549051908152f35b9190503461029a578260031936011261029a57610adf60ff6007541615611415565b610ae76116de565b600a55610af26116cc565b600b5533610b89575b338352600e6020528083206002810154928315610b59575090610b49610b427f987d620f307ff6b94d58743cb7a7509f24071586a77759b77c2d4e29f75a2f9a93856117b1565b809461126f565b815193845260208401523392a280f35b606490602084519162461bcd60e51b8352820152600a6024820152694e6f207265776172647360b01b6044820152fd5b610b92336112d2565b338452600e6020528184209060028201556001600a54910155610afb565b9190503461029a57602036600319011261029a57816102947f12c476dbe611207aa496773afc1cfedb660981ebe024c62f643a0aaec9bb7569933591610bf861026233611724565b610c066103e8841115611234565b8260065554916005549351938493846040919493926060820195825260208201520152565b839150346101fa57816003193601126101fa57610c4d60ff6007541615611415565b610c556116de565b600a55610c606116cc565b600b5533610d64575b338252600e602052828220908154908115610d30575083610b49837f7fc4727e062e336010f2c282598ef5f14facb3de68cf8195c2f23e1454b2b74e936002600396015480610ce7575b5086610cc160055483611759565b9683828995550155610cd581600c5461126f565b600c55610ce282336117d4565b61126f565b610cfb610cf484836117b1565b809261126f565b855191825260208201527f987d620f307ff6b94d58743cb7a7509f24071586a77759b77c2d4e29f75a2f9a853392a287610cb3565b606490602086519162461bcd60e51b8352820152600e60248201526d139bdd1a1a5b99c81cdd185ad95960921b6044820152fd5b610d6d336112d2565b338352600e6020528383209060028201556001600a54910155610c69565b5050346101fa57816003193601126101fa57602090516127108152f35b9190503461029a57366003190160a081126110895760801361029a5767ffffffffffffffff916084358381116110855736602382011215611085578082013593808511611010576024903682878501011161108157610e0c60ff6007541615611415565b610e146116de565b600a55610e1f6116cc565b600b553361105a575b813595610e3687151561144a565b6001600160a01b039385358581169081900361105657857f000000000000000000000000000000000000000000000000000000000000000016036110265786519187830183811085821117611014578852308352602083018981528a93926e22d473030f116ddee9f6b43ac78ba39290833b15611010578986928d948d519b8c988997889563187945bd60e11b875283610ece6111c9565b16908701528d86015260443560448601526064356064860152511660848401525160a48301523360c483015261010060e483015280610104830152808a6101249401848401378181018301849052601f01601f191681010301925af1801561100657610fbe575b50505090610b4982610f697f1449c6dd7851abc30abf37f57715f492010519147cc2652fbc38202c18a6ee90945486611759565b948591338852600e602052848820610f828482546112c5565b9055338852600e6020528488209060038201805415610fb5575b5042910155610fad82600c546112c5565b600c5561126f565b42905538610f9c565b8296939611610ff55750825292610b497f1449c6dd7851abc30abf37f57715f492010519147cc2652fbc38202c18a6ee9038610f35565b634e487b7160e01b83526041865282fd5b85513d89823e3d90fd5b8580fd5b634e487b7160e01b8b5260418852858bfd5b865162461bcd60e51b8152602081880152600b818601526a2bb937b733903a37b5b2b760a91b6044820152606490fd5b8980fd5b611063336112d2565b338852600e6020528588209060028201556001600a54910155610e28565b8680fd5b8480fd5b8380fd5b8334610499576020366003190112610499576108a56110aa6111c9565b6110b661026233611724565b611323565b5050346101fa57816003193601126101fa576020906003549051908152f35b5050346101fa57816003193601126101fa576020905160038152f35b90503461029a57602036600319011261029a5735600381101561029a575490516001600160a01b03909116815260209150f35b5050346101fa5760203660031901126101fa576020906102df61114a6111c9565b6112d2565b90503461029a57602036600319011261029a577f12c476dbe611207aa496773afc1cfedb660981ebe024c62f643a0aaec9bb75699161029482359261119661026233611724565b6111a46103e8851115611234565b8360055554916006549051938493846040919493926060820195825260208201520152565b600435906001600160a01b0382168203610a2e57565b34610a2e576000366003190112610a2e5760206040516103e88152f35b1561120357565b60405162461bcd60e51b81526020600482015260096024820152682737ba1037bbb732b960b91b6044820152606490fd5b1561123b57565b60405162461bcd60e51b815260206004820152600c60248201526b08ccaca40e8dede40d0d2ced60a31b6044820152606490fd5b9190820391821161127c57565b634e487b7160e01b600052601160045260246000fd5b8181029291811591840414171561127c57565b81156112af570490565b634e487b7160e01b600052601260045260246000fd5b9190820180921161127c57565b60018060a01b0316600052600e60205261132060406000206002670de0b6b3a764000061131683546113106113056116de565b60018701549061126f565b90611292565b04910154906112c5565b90565b600191600391600160035411156113d85760005b83811061136f5760405162461bcd60e51b8152602060048201526009602482015268139bdd08199bdd5b9960ba1b6044820152606490fd5b80546001600160a01b0383811691908116821461138f5750508401611337565b6001600160a01b031916909155835492945092919050801561127c576000190190557f58619076adf5bb0943d100ef88d52d7c3fd691b19d3a9071b555b651fbf418da600080a2565b60405162461bcd60e51b81526020600482015260156024820152742732b2b21030ba103632b0b9ba10189037bbb732b960591b6044820152606490fd5b1561141c57565b60405162461bcd60e51b815260206004820152600660248201526514185d5cd95960d21b6044820152606490fd5b1561145157565b60405162461bcd60e51b815260206004820152600b60248201526a16995c9bc8185b5bdd5b9d60aa1b6044820152606490fd5b600c54801580156114de575b6114d857600854906301e133809182810292818404148115171561127c5764496cebb8000291808304612710149015171561127c57670de0b6b3a764000061132092046112a5565b50600090565b5060085415611490565b6060810190811067ffffffffffffffff82111761150457604052565b634e487b7160e01b600052604160045260246000fd5b90601f8019910116810190811067ffffffffffffffff82111761150457604052565b90816020910312610a2e57518015158103610a2e5790565b1561155b57565b60405162461bcd60e51b815260206004820152600f60248201526e151c985b9cd9995c8819985a5b1959608a1b6044820152606490fd5b6001600160a01b0390808216908115611698576115ae90611724565b61166357600380805410156116295760005b8181106115cd5750505050565b8054848116156115e057506001016115c0565b6001600160a01b03191683179055805491925090600019811461127c5760010190557f994a936646fe87ffe4f1e469d3d6aa417d6b855598397f323de5b449f765f0c3600080a2565b60405162461bcd60e51b815260206004820152601260248201527113585e081bdddb995c9cc81c995858da195960721b6044820152606490fd5b60405162461bcd60e51b815260206004820152600d60248201526c20b63932b0b23c9037bbb732b960991b6044820152606490fd5b60405162461bcd60e51b815260206004820152600c60248201526b5a65726f206164647265737360a01b6044820152606490fd5b60095480421060001461132057504290565b600c54801561171d5761132090611717600a54916117126117096117006116cc565b600b549061126f565b60085490611292565b6112a5565b906112c5565b50600a5490565b60005b60038110611736575050600090565b80546001600160a01b0383811691161461175257600101611727565b5050600190565b9080156117ad57906117719161271092839183611292565b04906103e880830290838204148315171561127c5761132093610ce291046117a561179c828661126f565b91600d546112c5565b600d5561186d565b5090565b6117c79160006002820155600442910155611909565b906117d282336117d4565b565b60405163a9059cbb60e01b81526001600160a01b03909116600482015260248101919091526020818060448101038160007f00000000000000000000000000000000000000000000000000000000000000006001600160a01b03165af18015611861576117d2916000916118485750611554565b6109f1915060203d60201161075657610748818361151a565b6040513d6000823e3d90fd5b90811580156118ff575b6118fb57600060039261188c600354826112a5565b9360005b8181106118bd5750506118a492935061126f565b806118ac5750565b6118b890600d546112c5565b600d55565b805486906001600160a01b0316806118da575b5050600101611890565b90600192956118ec826118f1946117d4565b6112c5565b93905085386118d0565b9050565b5060035415611877565b60065480156117ad5790611771916127109283918361129256fea26469706673582212202e2aea9833a64a9ff4804ec6435d06983cfd34b47091c42b7875cf5ba5a07c3e64736f6c63430008180033","opcodes":"PUSH1 0xA0 CALLVALUE PUSH3 0x183 JUMPI PUSH1 0x1F PUSH3 0x1B0D CODESIZE DUP2 SWAP1 SUB SWAP2 DUP3 ADD PUSH1 0x1F NOT AND DUP4 ADD SWAP2 PUSH1 0x1 PUSH1 0x1 PUSH1 0x40 SHL SUB DUP4 GT DUP5 DUP5 LT OR PUSH3 0x188 JUMPI DUP1 DUP5 SWAP3 PUSH1 0x60 SWAP5 PUSH1 0x40 MSTORE DUP4 CODECOPY DUP2 ADD SUB SLT PUSH3 0x183 JUMPI PUSH3 0x4D DUP2 PUSH3 0x19E JUMP JUMPDEST SWAP1 PUSH3 0x6A PUSH1 0x40 PUSH3 0x62 PUSH1 0x20 DUP5 ADD PUSH3 0x19E JUMP JUMPDEST SWAP3 ADD PUSH3 0x19E JUMP JUMPDEST PUSH2 0x1F4 PUSH1 0x4 DUP2 SWAP1 SSTORE PUSH1 0x5 DUP2 SWAP1 SSTORE PUSH1 0x6 SSTORE SWAP1 PUSH1 0x1 PUSH1 0x1 PUSH1 0xA0 SHL SUB SWAP1 DUP4 DUP3 AND ISZERO PUSH3 0x151 JUMPI DUP2 AND SWAP3 DUP4 ISZERO PUSH3 0x11F JUMPI PUSH1 0x80 MSTORE PUSH1 0x0 DUP1 SLOAD PUSH1 0x1 PUSH1 0x1 PUSH1 0xA0 SHL SUB NOT SWAP1 DUP2 AND DUP6 OR SWAP1 SWAP2 SSTORE PUSH1 0x1 PUSH1 0x3 SSTORE SWAP2 AND SWAP2 DUP3 ISZERO ISZERO SWAP1 DUP2 PUSH3 0x113 JUMPI JUMPDEST POP PUSH3 0xFE JUMPI JUMPDEST PUSH1 0x40 MLOAD PUSH2 0x1959 SWAP1 DUP2 PUSH3 0x1B4 DUP3 CODECOPY PUSH1 0x80 MLOAD DUP2 DUP2 DUP2 PUSH2 0x4CB ADD MSTORE DUP2 DUP2 PUSH2 0x5B9 ADD MSTORE DUP2 DUP2 PUSH2 0x7CE ADD MSTORE DUP2 DUP2 PUSH2 0xE4F ADD MSTORE PUSH2 0x1807 ADD MSTORE RETURN JUMPDEST PUSH1 0x1 SLOAD AND OR PUSH1 0x1 SSTORE PUSH1 0x2 PUSH1 0x3 SSTORE CODESIZE DUP1 PUSH3 0xC9 JUMP JUMPDEST SWAP1 POP DUP3 EQ ISZERO CODESIZE PUSH3 0xC2 JUMP JUMPDEST PUSH1 0x40 MLOAD PUSH3 0x461BCD PUSH1 0xE5 SHL DUP2 MSTORE PUSH1 0x20 PUSH1 0x4 DUP3 ADD MSTORE PUSH1 0xA PUSH1 0x24 DUP3 ADD MSTORE PUSH10 0x2D32B9379037BBB732B9 PUSH1 0xB1 SHL PUSH1 0x44 DUP3 ADD MSTORE PUSH1 0x64 SWAP1 REVERT JUMPDEST PUSH1 0x40 MLOAD PUSH3 0x461BCD PUSH1 0xE5 SHL DUP2 MSTORE PUSH1 0x20 PUSH1 0x4 DUP3 ADD MSTORE PUSH1 0xA PUSH1 0x24 DUP3 ADD MSTORE PUSH10 0x2D32B937903A37B5B2B7 PUSH1 0xB1 SHL PUSH1 0x44 DUP3 ADD MSTORE PUSH1 0x64 SWAP1 REVERT JUMPDEST PUSH1 0x0 DUP1 REVERT JUMPDEST PUSH4 0x4E487B71 PUSH1 0xE0 SHL PUSH1 0x0 MSTORE PUSH1 0x41 PUSH1 0x4 MSTORE PUSH1 0x24 PUSH1 0x0 REVERT JUMPDEST MLOAD SWAP1 PUSH1 0x1 PUSH1 0x1 PUSH1 0xA0 SHL SUB DUP3 AND DUP3 SUB PUSH3 0x183 JUMPI JUMP INVALID PUSH1 0x40 PUSH1 0x80 DUP2 MSTORE PUSH1 0x4 SWAP1 DUP2 CALLDATASIZE LT ISZERO PUSH2 0x15 JUMPI PUSH1 0x0 DUP1 REVERT JUMPDEST PUSH1 0x0 SWAP2 DUP3 CALLDATALOAD PUSH1 0xE0 SHR SWAP1 DUP2 PUSH3 0x18A116 EQ PUSH2 0x114F JUMPI DUP2 PUSH3 0x8CC262 EQ PUSH2 0x1129 JUMPI DUP2 PUSH4 0x25E7C27 EQ PUSH2 0x10F6 JUMPI DUP2 PUSH4 0xB8BB146 EQ PUSH2 0x10DA JUMPI DUP2 PUSH4 0xDB02622 EQ PUSH2 0x10BB JUMPI DUP2 PUSH4 0x173825D9 EQ PUSH2 0x108D JUMPI DUP2 PUSH4 0x1D9AB29A EQ PUSH2 0xDA8 JUMPI DUP2 PUSH4 0x249D39E9 EQ PUSH2 0xD8B JUMPI DUP2 PUSH4 0x2DEF6620 EQ PUSH2 0xC2B JUMPI DUP2 PUSH4 0x2E75AB50 EQ PUSH2 0xBB0 JUMPI DUP2 PUSH4 0x372500AB EQ PUSH2 0xABD JUMPI DUP2 PUSH4 0x3AD5B8AA EQ PUSH2 0xA9F JUMPI DUP2 PUSH4 0x3F4BA83A EQ PUSH2 0xA50 JUMPI DUP2 PUSH4 0x51618ED3 EQ PUSH2 0xA33 JUMPI DUP2 PUSH4 0x551512DE EQ PUSH2 0x915 JUMPI DUP2 PUSH4 0x5ADE228A EQ PUSH2 0x8F6 JUMPI DUP2 PUSH4 0x5C975ABB EQ PUSH2 0x8D2 JUMPI DUP2 PUSH4 0x6AFDD850 EQ PUSH2 0x8A8 JUMPI DUP2 PUSH4 0x7065CB48 EQ PUSH2 0x877 JUMPI DUP2 PUSH4 0x7A526F4E EQ PUSH2 0x858 JUMPI DUP2 PUSH4 0x7B0A47EE EQ PUSH2 0x839 JUMPI DUP2 PUSH4 0x80FAA57D EQ PUSH2 0x81C JUMPI DUP2 PUSH4 0x817B1CD2 EQ PUSH2 0x7FD JUMPI DUP2 PUSH4 0x82BFEFC8 EQ PUSH2 0x7B9 JUMPI DUP2 PUSH4 0x8456CB59 EQ PUSH2 0x767 JUMPI DUP2 PUSH4 0x8BDF67F2 EQ PUSH2 0x54F JUMPI DUP2 PUSH4 0x9E9AED62 EQ PUSH2 0x49C JUMPI DUP2 PUSH4 0xA0E67E2B EQ PUSH2 0x409 JUMPI DUP2 PUSH4 0xA87430BA EQ PUSH2 0x3A6 JUMPI DUP2 PUSH4 0xA93837BD EQ PUSH2 0x2BD JUMPI DUP2 PUSH4 0xC3453153 EQ PUSH2 0x343 JUMPI DUP2 PUSH4 0xC8F33C91 EQ PUSH2 0x324 JUMPI DUP2 PUSH4 0xC8FC9729 EQ PUSH2 0x305 JUMPI DUP2 PUSH4 0xCAB64BCD EQ PUSH2 0x2E6 JUMPI DUP2 PUSH4 0xCD3DAF9D EQ PUSH2 0x2C2 JUMPI DUP2 PUSH4 0xD55BE8C6 EQ PUSH2 0x2BD JUMPI DUP2 PUSH4 0xDF136D65 EQ PUSH2 0x29E JUMPI DUP2 PUSH4 0xE2D7BEE4 EQ PUSH2 0x21C JUMPI POP DUP1 PUSH4 0xEBE2B12B EQ PUSH2 0x1FE JUMPI PUSH4 0xECED5526 EQ PUSH2 0x1D9 JUMPI PUSH1 0x0 DUP1 REVERT JUMPDEST CALLVALUE PUSH2 0x1FA JUMPI DUP2 PUSH1 0x3 NOT CALLDATASIZE ADD SLT PUSH2 0x1FA JUMPI PUSH1 0x20 SWAP1 MLOAD PUSH8 0xDE0B6B3A7640000 DUP2 MSTORE RETURN JUMPDEST POP DUP1 REVERT JUMPDEST POP CALLVALUE PUSH2 0x1FA JUMPI DUP2 PUSH1 0x3 NOT CALLDATASIZE ADD SLT PUSH2 0x1FA JUMPI PUSH1 0x20 SWAP1 PUSH1 0x9 SLOAD SWAP1 MLOAD SWAP1 DUP2 MSTORE RETURN JUMPDEST SWAP2 SWAP1 POP CALLVALUE PUSH2 0x29A JUMPI PUSH1 0x20 CALLDATASIZE PUSH1 0x3 NOT ADD SLT PUSH2 0x29A JUMPI DUP2 PUSH32 0x12C476DBE611207AA496773AFC1CFEDB660981EBE024C62F643A0AAEC9BB7569 SWAP3 CALLDATALOAD DUP1 SWAP2 PUSH2 0x267 PUSH2 0x262 CALLER PUSH2 0x1724 JUMP JUMPDEST PUSH2 0x11FC JUMP JUMPDEST PUSH2 0x275 PUSH2 0x3E8 DUP4 GT ISZERO PUSH2 0x1234 JUMP JUMPDEST SSTORE PUSH1 0x5 SLOAD PUSH1 0x6 SLOAD SWAP3 MLOAD SWAP2 DUP3 MSTORE PUSH1 0x20 DUP3 ADD MSTORE PUSH1 0x40 DUP2 ADD SWAP2 SWAP1 SWAP2 MSTORE DUP1 PUSH1 0x60 DUP2 ADD JUMPDEST SUB SWAP1 LOG1 DUP1 RETURN JUMPDEST DUP3 DUP1 REVERT JUMPDEST POP POP CALLVALUE PUSH2 0x1FA JUMPI DUP2 PUSH1 0x3 NOT CALLDATASIZE ADD SLT PUSH2 0x1FA JUMPI PUSH1 0x20 SWAP1 PUSH1 0xA SLOAD SWAP1 MLOAD SWAP1 DUP2 MSTORE RETURN JUMPDEST PUSH2 0x11DF JUMP JUMPDEST POP POP CALLVALUE PUSH2 0x1FA JUMPI DUP2 PUSH1 0x3 NOT CALLDATASIZE ADD SLT PUSH2 0x1FA JUMPI PUSH1 0x20 SWAP1 PUSH2 0x2DF PUSH2 0x16DE JUMP JUMPDEST SWAP1 MLOAD SWAP1 DUP2 MSTORE RETURN JUMPDEST POP POP CALLVALUE PUSH2 0x1FA JUMPI DUP2 PUSH1 0x3 NOT CALLDATASIZE ADD SLT PUSH2 0x1FA JUMPI PUSH1 0x20 SWAP1 PUSH1 0xD SLOAD SWAP1 MLOAD SWAP1 DUP2 MSTORE RETURN JUMPDEST POP POP CALLVALUE PUSH2 0x1FA JUMPI DUP2 PUSH1 0x3 NOT CALLDATASIZE ADD SLT PUSH2 0x1FA JUMPI PUSH1 0x20 SWAP1 PUSH1 0x5 SLOAD SWAP1 MLOAD SWAP1 DUP2 MSTORE RETURN JUMPDEST POP POP CALLVALUE PUSH2 0x1FA JUMPI DUP2 PUSH1 0x3 NOT CALLDATASIZE ADD SLT PUSH2 0x1FA JUMPI PUSH1 0x20 SWAP1 PUSH1 0xB SLOAD SWAP1 MLOAD SWAP1 DUP2 MSTORE RETURN JUMPDEST DUP4 SWAP2 POP CALLVALUE PUSH2 0x1FA JUMPI PUSH1 0x20 CALLDATASIZE PUSH1 0x3 NOT ADD SLT PUSH2 0x1FA JUMPI DUP3 PUSH1 0xA0 SWAP4 PUSH2 0x363 PUSH2 0x11C9 JUMP JUMPDEST SWAP4 PUSH1 0x1 DUP1 DUP8 SHL SUB DUP6 AND DUP2 MSTORE PUSH1 0xE PUSH1 0x20 MSTORE KECCAK256 SWAP3 PUSH2 0x389 DUP5 SLOAD SWAP4 PUSH1 0x3 DUP7 ADD SLOAD SWAP6 ADD SLOAD SWAP2 PUSH2 0x12D2 JUMP JUMPDEST SWAP2 DUP1 MLOAD SWAP5 DUP5 DUP7 MSTORE PUSH1 0x20 DUP7 ADD MSTORE DUP5 ADD MSTORE PUSH1 0x60 DUP4 ADD MSTORE ISZERO ISZERO PUSH1 0x80 DUP3 ADD MSTORE RETURN JUMPDEST SWAP2 SWAP1 POP CALLVALUE PUSH2 0x29A JUMPI PUSH1 0x20 CALLDATASIZE PUSH1 0x3 NOT ADD SLT PUSH2 0x29A JUMPI PUSH1 0xA0 SWAP3 DUP2 SWAP1 PUSH1 0x1 PUSH1 0x1 PUSH1 0xA0 SHL SUB PUSH2 0x3CF PUSH2 0x11C9 JUMP JUMPDEST AND DUP2 MSTORE PUSH1 0xE PUSH1 0x20 MSTORE KECCAK256 DUP1 SLOAD SWAP3 PUSH1 0x1 DUP3 ADD SLOAD SWAP3 PUSH1 0x2 DUP4 ADD SLOAD SWAP2 PUSH1 0x3 DUP5 ADD SLOAD SWAP4 ADD SLOAD SWAP4 DUP2 MLOAD SWAP6 DUP7 MSTORE PUSH1 0x20 DUP7 ADD MSTORE DUP5 ADD MSTORE PUSH1 0x60 DUP4 ADD MSTORE PUSH1 0x80 DUP3 ADD MSTORE RETURN JUMPDEST DUP3 DUP5 CALLVALUE PUSH2 0x499 JUMPI DUP1 PUSH1 0x3 NOT CALLDATASIZE ADD SLT PUSH2 0x499 JUMPI SWAP1 PUSH1 0x60 DUP2 MLOAD PUSH2 0x429 DUP2 PUSH2 0x14E8 JUMP JUMPDEST CALLDATASIZE SWAP1 CALLDATACOPY DUP1 MLOAD SWAP1 DUP3 DUP1 DUP4 JUMPDEST PUSH1 0x3 DUP3 LT PUSH2 0x479 JUMPI POP POP POP PUSH2 0x447 DUP3 PUSH2 0x14E8 JUMP JUMPDEST MLOAD SWAP2 SWAP1 DUP3 JUMPDEST PUSH1 0x3 DUP4 LT PUSH2 0x459 JUMPI PUSH1 0x60 DUP5 RETURN JUMPDEST DUP2 MLOAD PUSH1 0x1 PUSH1 0x1 PUSH1 0xA0 SHL SUB AND DUP2 MSTORE PUSH1 0x1 SWAP3 SWAP1 SWAP3 ADD SWAP2 PUSH1 0x20 SWAP2 DUP3 ADD SWAP2 ADD PUSH2 0x44C JUMP JUMPDEST DUP3 SLOAD PUSH1 0x1 PUSH1 0x1 PUSH1 0xA0 SHL SUB AND DUP2 MSTORE PUSH1 0x1 SWAP3 DUP4 ADD SWAP3 SWAP2 SWAP1 SWAP2 ADD SWAP1 PUSH1 0x20 ADD PUSH2 0x433 JUMP JUMPDEST DUP1 REVERT JUMPDEST SWAP2 SWAP1 POP CALLVALUE PUSH2 0x29A JUMPI DUP3 PUSH1 0x3 NOT CALLDATASIZE ADD SLT PUSH2 0x29A JUMPI DUP1 MLOAD PUSH4 0x70A08231 PUSH1 0xE0 SHL DUP2 MSTORE ADDRESS SWAP3 DUP2 ADD SWAP3 SWAP1 SWAP3 MSTORE PUSH1 0x20 DUP3 PUSH1 0x24 DUP2 PUSH32 0x0 PUSH1 0x1 PUSH1 0x1 PUSH1 0xA0 SHL SUB AND GAS STATICCALL SWAP2 DUP3 ISZERO PUSH2 0x545 JUMPI DUP4 SWAP3 PUSH2 0x50D JUMPI JUMPDEST PUSH1 0x20 DUP4 DUP4 MLOAD SWAP1 DUP2 MSTORE RETURN JUMPDEST SWAP1 SWAP2 POP PUSH1 0x20 DUP2 RETURNDATASIZE PUSH1 0x20 GT PUSH2 0x53D JUMPI JUMPDEST DUP2 PUSH2 0x529 PUSH1 0x20 SWAP4 DUP4 PUSH2 0x151A JUMP JUMPDEST DUP2 ADD SUB SLT PUSH2 0x29A JUMPI PUSH1 0x20 SWAP3 POP MLOAD SWAP1 CODESIZE PUSH2 0x503 JUMP JUMPDEST RETURNDATASIZE SWAP2 POP PUSH2 0x51C JUMP JUMPDEST DUP2 MLOAD RETURNDATASIZE DUP6 DUP3 RETURNDATACOPY RETURNDATASIZE SWAP1 REVERT JUMPDEST DUP4 DUP4 CALLVALUE PUSH2 0x1FA JUMPI PUSH1 0x20 CALLDATASIZE PUSH1 0x3 NOT ADD SLT PUSH2 0x1FA JUMPI DUP3 CALLDATALOAD SWAP1 PUSH2 0x571 PUSH2 0x262 CALLER PUSH2 0x1724 JUMP JUMPDEST PUSH2 0x579 PUSH2 0x16DE JUMP JUMPDEST PUSH1 0xA SSTORE PUSH2 0x584 PUSH2 0x16CC JUMP JUMPDEST PUSH1 0xB SSTORE PUSH2 0x592 DUP3 ISZERO ISZERO PUSH2 0x144A JUMP JUMPDEST DUP1 MLOAD PUSH4 0x23B872DD PUSH1 0xE0 SHL DUP2 MSTORE CALLER DUP6 DUP3 ADD MSTORE ADDRESS PUSH1 0x24 DUP3 ADD MSTORE PUSH1 0x44 DUP2 ADD DUP4 SWAP1 MSTORE PUSH1 0x20 DUP2 PUSH1 0x64 DUP2 DUP8 PUSH32 0x0 PUSH1 0x1 PUSH1 0x1 PUSH1 0xA0 SHL SUB AND GAS CALL SWAP1 DUP2 ISZERO PUSH2 0x75D JUMPI DUP5 SWAP2 PUSH2 0x72E JUMPI JUMPDEST POP ISZERO PUSH2 0x6F6 JUMPI PUSH2 0x603 DUP3 PUSH1 0xD SLOAD PUSH2 0x12C5 JUMP JUMPDEST PUSH1 0xD DUP2 SWAP1 SSTORE PUSH1 0x9 SLOAD TIMESTAMP DUP2 GT PUSH2 0x6A9 JUMPI POP POP PUSH1 0xD SLOAD PUSH8 0xDE0B6B3A7640000 SWAP1 DUP2 DUP2 MUL SWAP2 DUP2 DUP4 DIV EQ SWAP1 ISZERO OR ISZERO PUSH2 0x696 JUMPI PUSH4 0x1E13380 SWAP1 DIV PUSH1 0x8 SSTORE JUMPDEST TIMESTAMP PUSH1 0xB SSTORE PUSH4 0x1E13380 TIMESTAMP ADD SWAP1 DUP2 TIMESTAMP GT PUSH2 0x696 JUMPI PUSH1 0x9 DUP3 SWAP1 SSTORE PUSH1 0xD DUP5 SWAP1 SSTORE PUSH1 0x8 SLOAD SWAP1 MLOAD SWAP3 DUP4 MSTORE PUSH1 0x20 DUP4 ADD MSTORE PUSH1 0x40 DUP3 ADD MSTORE CALLER SWAP1 PUSH32 0xB167F072295E46CB15516C982366F3856186579436FECBC2241827AA89A66852 SWAP1 PUSH1 0x60 SWAP1 LOG2 DUP1 RETURN JUMPDEST PUSH4 0x4E487B71 PUSH1 0xE0 SHL DUP5 MSTORE PUSH1 0x11 DUP6 MSTORE PUSH1 0x24 DUP5 REVERT JUMPDEST PUSH2 0x6D0 SWAP2 PUSH2 0x6BB PUSH2 0x6D7 SWAP3 TIMESTAMP SWAP1 PUSH2 0x126F JUMP JUMPDEST PUSH8 0xDE0B6B3A7640000 SWAP4 DUP5 SWAP2 PUSH1 0x8 SLOAD SWAP1 PUSH2 0x1292 JUMP JUMPDEST DIV SWAP1 PUSH2 0x12C5 JUMP JUMPDEST DUP2 DUP2 MUL SWAP2 DUP2 DUP4 DIV EQ SWAP1 ISZERO OR ISZERO PUSH2 0x696 JUMPI PUSH4 0x1E13380 SWAP1 DIV PUSH1 0x8 SSTORE PUSH2 0x63C JUMP JUMPDEST MLOAD PUSH3 0x461BCD PUSH1 0xE5 SHL DUP2 MSTORE PUSH1 0x20 DUP2 DUP6 ADD MSTORE PUSH1 0x13 PUSH1 0x24 DUP3 ADD MSTORE PUSH19 0x151C985B9CD9995C919C9BDB4819985A5B1959 PUSH1 0x6A SHL PUSH1 0x44 DUP3 ADD MSTORE PUSH1 0x64 SWAP1 REVERT JUMPDEST PUSH2 0x750 SWAP2 POP PUSH1 0x20 RETURNDATASIZE PUSH1 0x20 GT PUSH2 0x756 JUMPI JUMPDEST PUSH2 0x748 DUP2 DUP4 PUSH2 0x151A JUMP JUMPDEST DUP2 ADD SWAP1 PUSH2 0x153C JUMP JUMPDEST DUP6 PUSH2 0x5F1 JUMP JUMPDEST POP RETURNDATASIZE PUSH2 0x73E JUMP JUMPDEST DUP3 MLOAD RETURNDATASIZE DUP7 DUP3 RETURNDATACOPY RETURNDATASIZE SWAP1 REVERT JUMPDEST DUP4 CALLVALUE PUSH2 0x499 JUMPI DUP1 PUSH1 0x3 NOT CALLDATASIZE ADD SLT PUSH2 0x499 JUMPI PUSH2 0x784 PUSH2 0x262 CALLER PUSH2 0x1724 JUMP JUMPDEST PUSH1 0x1 PUSH1 0xFF NOT PUSH1 0x7 SLOAD AND OR PUSH1 0x7 SSTORE CALLER PUSH32 0x62E78CEA01BEE320CD4E420270B5EA74000D11B0C9F74754EBDBFC544B05A258 DUP3 DUP1 LOG2 DUP1 RETURN JUMPDEST POP POP CALLVALUE PUSH2 0x1FA JUMPI DUP2 PUSH1 0x3 NOT CALLDATASIZE ADD SLT PUSH2 0x1FA JUMPI MLOAD PUSH32 0x0 PUSH1 0x1 PUSH1 0x1 PUSH1 0xA0 SHL SUB AND DUP2 MSTORE PUSH1 0x20 SWAP1 RETURN JUMPDEST POP POP CALLVALUE PUSH2 0x1FA JUMPI DUP2 PUSH1 0x3 NOT CALLDATASIZE ADD SLT PUSH2 0x1FA JUMPI PUSH1 0x20 SWAP1 PUSH1 0xC SLOAD SWAP1 MLOAD SWAP1 DUP2 MSTORE RETURN JUMPDEST POP POP CALLVALUE PUSH2 0x1FA JUMPI DUP2 PUSH1 0x3 NOT CALLDATASIZE ADD SLT PUSH2 0x1FA JUMPI PUSH1 0x20 SWAP1 PUSH2 0x2DF PUSH2 0x16CC JUMP JUMPDEST POP POP CALLVALUE PUSH2 0x1FA JUMPI DUP2 PUSH1 0x3 NOT CALLDATASIZE ADD SLT PUSH2 0x1FA JUMPI PUSH1 0x20 SWAP1 PUSH1 0x8 SLOAD SWAP1 MLOAD SWAP1 DUP2 MSTORE RETURN JUMPDEST POP POP CALLVALUE PUSH2 0x1FA JUMPI DUP2 PUSH1 0x3 NOT CALLDATASIZE ADD SLT PUSH2 0x1FA JUMPI PUSH1 0x20 SWAP1 PUSH1 0x6 SLOAD SWAP1 MLOAD SWAP1 DUP2 MSTORE RETURN JUMPDEST DUP4 CALLVALUE PUSH2 0x499 JUMPI PUSH1 0x20 CALLDATASIZE PUSH1 0x3 NOT ADD SLT PUSH2 0x499 JUMPI PUSH2 0x8A5 PUSH2 0x894 PUSH2 0x11C9 JUMP JUMPDEST PUSH2 0x8A0 PUSH2 0x262 CALLER PUSH2 0x1724 JUMP JUMPDEST PUSH2 0x1592 JUMP JUMPDEST DUP1 RETURN JUMPDEST POP POP CALLVALUE PUSH2 0x1FA JUMPI DUP2 PUSH1 0x3 NOT CALLDATASIZE ADD SLT PUSH2 0x1FA JUMPI PUSH1 0x20 SWAP1 MLOAD PUSH15 0x22D473030F116DDEE9F6B43AC78BA3 DUP2 MSTORE RETURN JUMPDEST POP POP CALLVALUE PUSH2 0x1FA JUMPI DUP2 PUSH1 0x3 NOT CALLDATASIZE ADD SLT PUSH2 0x1FA JUMPI PUSH1 0x20 SWAP1 PUSH1 0xFF PUSH1 0x7 SLOAD AND SWAP1 MLOAD SWAP1 ISZERO ISZERO DUP2 MSTORE RETURN JUMPDEST POP POP CALLVALUE PUSH2 0x1FA JUMPI DUP2 PUSH1 0x3 NOT CALLDATASIZE ADD SLT PUSH2 0x1FA JUMPI PUSH1 0x20 SWAP1 MLOAD PUSH4 0x1E13380 DUP2 MSTORE RETURN JUMPDEST SWAP1 POP CALLVALUE PUSH2 0x29A JUMPI PUSH1 0x60 CALLDATASIZE PUSH1 0x3 NOT ADD SLT PUSH2 0x29A JUMPI PUSH2 0x930 PUSH2 0x11C9 JUMP JUMPDEST PUSH1 0x1 PUSH1 0x1 PUSH1 0xA0 SHL SUB PUSH1 0x44 CALLDATALOAD DUP2 DUP2 AND SWAP5 PUSH1 0x24 CALLDATALOAD SWAP4 SWAP1 SWAP3 SWAP1 DUP7 DUP4 SUB PUSH2 0xA2E JUMPI PUSH2 0x959 PUSH2 0x262 CALLER PUSH2 0x1724 JUMP JUMPDEST DUP7 ISZERO PUSH2 0xA01 JUMPI DUP4 MLOAD PUSH4 0xA9059CBB PUSH1 0xE0 SHL DUP2 MSTORE PUSH1 0x1 PUSH1 0x1 PUSH1 0xA0 SHL SUB SWAP1 SWAP4 AND SWAP6 DUP4 ADD SWAP6 DUP7 MSTORE PUSH1 0x20 DUP7 DUP2 ADD DUP7 SWAP1 MSTORE SWAP2 AND SWAP5 DUP3 SWAP1 DUP2 SWAP1 PUSH1 0x40 ADD SUB DUP2 DUP10 DUP9 GAS CALL SWAP1 DUP2 ISZERO PUSH2 0x9F7 JUMPI SWAP2 PUSH2 0x9D2 PUSH32 0xF24EF89F38EADC1BDE50701AD6E4D6D11A2DC24F7CF834A486991F3883328504 SWAP5 SWAP3 PUSH1 0x20 SWAP5 DUP10 SWAP2 PUSH2 0x9DA JUMPI JUMPDEST POP PUSH2 0x1554 JUMP JUMPDEST MLOAD SWAP1 DUP2 MSTORE LOG3 DUP1 RETURN JUMPDEST PUSH2 0x9F1 SWAP2 POP DUP6 RETURNDATASIZE DUP8 GT PUSH2 0x756 JUMPI PUSH2 0x748 DUP2 DUP4 PUSH2 0x151A JUMP JUMPDEST CODESIZE PUSH2 0x9CC JUMP JUMPDEST DUP3 MLOAD RETURNDATASIZE DUP9 DUP3 RETURNDATACOPY RETURNDATASIZE SWAP1 REVERT JUMPDEST DUP4 MLOAD PUSH3 0x461BCD PUSH1 0xE5 SHL DUP2 MSTORE PUSH1 0x20 DUP2 DUP9 ADD MSTORE PUSH1 0x7 PUSH1 0x24 DUP3 ADD MSTORE PUSH7 0x5A65726F20746F PUSH1 0xC8 SHL PUSH1 0x44 DUP3 ADD MSTORE PUSH1 0x64 SWAP1 REVERT JUMPDEST PUSH1 0x0 DUP1 REVERT JUMPDEST POP POP CALLVALUE PUSH2 0x1FA JUMPI DUP2 PUSH1 0x3 NOT CALLDATASIZE ADD SLT PUSH2 0x1FA JUMPI PUSH1 0x20 SWAP1 PUSH2 0x2DF PUSH2 0x1484 JUMP JUMPDEST DUP4 CALLVALUE PUSH2 0x499 JUMPI DUP1 PUSH1 0x3 NOT CALLDATASIZE ADD SLT PUSH2 0x499 JUMPI PUSH2 0xA6D PUSH2 0x262 CALLER PUSH2 0x1724 JUMP JUMPDEST PUSH1 0xFF NOT PUSH1 0x7 SLOAD AND PUSH1 0x7 SSTORE CALLER PUSH32 0x5DB9EE0A495BF2E6FF9C91A7834C1BA4FDD244A5E8AA4E537BD38AEAE4B073AA DUP3 DUP1 LOG2 DUP1 RETURN JUMPDEST SWAP1 POP CALLVALUE PUSH2 0x29A JUMPI DUP3 PUSH1 0x3 NOT CALLDATASIZE ADD SLT PUSH2 0x29A JUMPI PUSH1 0x20 SWAP3 POP SLOAD SWAP1 MLOAD SWAP1 DUP2 MSTORE RETURN JUMPDEST SWAP2 SWAP1 POP CALLVALUE PUSH2 0x29A JUMPI DUP3 PUSH1 0x3 NOT CALLDATASIZE ADD SLT PUSH2 0x29A JUMPI PUSH2 0xADF PUSH1 0xFF PUSH1 0x7 SLOAD AND ISZERO PUSH2 0x1415 JUMP JUMPDEST PUSH2 0xAE7 PUSH2 0x16DE JUMP JUMPDEST PUSH1 0xA SSTORE PUSH2 0xAF2 PUSH2 0x16CC JUMP JUMPDEST PUSH1 0xB SSTORE CALLER PUSH2 0xB89 JUMPI JUMPDEST CALLER DUP4 MSTORE PUSH1 0xE PUSH1 0x20 MSTORE DUP1 DUP4 KECCAK256 PUSH1 0x2 DUP2 ADD SLOAD SWAP3 DUP4 ISZERO PUSH2 0xB59 JUMPI POP SWAP1 PUSH2 0xB49 PUSH2 0xB42 PUSH32 0x987D620F307FF6B94D58743CB7A7509F24071586A77759B77C2D4E29F75A2F9A SWAP4 DUP6 PUSH2 0x17B1 JUMP JUMPDEST DUP1 SWAP5 PUSH2 0x126F JUMP JUMPDEST DUP2 MLOAD SWAP4 DUP5 MSTORE PUSH1 0x20 DUP5 ADD MSTORE CALLER SWAP3 LOG2 DUP1 RETURN JUMPDEST PUSH1 0x64 SWAP1 PUSH1 0x20 DUP5 MLOAD SWAP2 PUSH3 0x461BCD PUSH1 0xE5 SHL DUP4 MSTORE DUP3 ADD MSTORE PUSH1 0xA PUSH1 0x24 DUP3 ADD MSTORE PUSH10 0x4E6F2072657761726473 PUSH1 0xB0 SHL PUSH1 0x44 DUP3 ADD MSTORE REVERT JUMPDEST PUSH2 0xB92 CALLER PUSH2 0x12D2 JUMP JUMPDEST CALLER DUP5 MSTORE PUSH1 0xE PUSH1 0x20 MSTORE DUP2 DUP5 KECCAK256 SWAP1 PUSH1 0x2 DUP3 ADD SSTORE PUSH1 0x1 PUSH1 0xA SLOAD SWAP2 ADD SSTORE PUSH2 0xAFB JUMP JUMPDEST SWAP2 SWAP1 POP CALLVALUE PUSH2 0x29A JUMPI PUSH1 0x20 CALLDATASIZE PUSH1 0x3 NOT ADD SLT PUSH2 0x29A JUMPI DUP2 PUSH2 0x294 PUSH32 0x12C476DBE611207AA496773AFC1CFEDB660981EBE024C62F643A0AAEC9BB7569 SWAP4 CALLDATALOAD SWAP2 PUSH2 0xBF8 PUSH2 0x262 CALLER PUSH2 0x1724 JUMP JUMPDEST PUSH2 0xC06 PUSH2 0x3E8 DUP5 GT ISZERO PUSH2 0x1234 JUMP JUMPDEST DUP3 PUSH1 0x6 SSTORE SLOAD SWAP2 PUSH1 0x5 SLOAD SWAP4 MLOAD SWAP4 DUP5 SWAP4 DUP5 PUSH1 0x40 SWAP2 SWAP5 SWAP4 SWAP3 PUSH1 0x60 DUP3 ADD SWAP6 DUP3 MSTORE PUSH1 0x20 DUP3 ADD MSTORE ADD MSTORE JUMP JUMPDEST DUP4 SWAP2 POP CALLVALUE PUSH2 0x1FA JUMPI DUP2 PUSH1 0x3 NOT CALLDATASIZE ADD SLT PUSH2 0x1FA JUMPI PUSH2 0xC4D PUSH1 0xFF PUSH1 0x7 SLOAD AND ISZERO PUSH2 0x1415 JUMP JUMPDEST PUSH2 0xC55 PUSH2 0x16DE JUMP JUMPDEST PUSH1 0xA SSTORE PUSH2 0xC60 PUSH2 0x16CC JUMP JUMPDEST PUSH1 0xB SSTORE CALLER PUSH2 0xD64 JUMPI JUMPDEST CALLER DUP3 MSTORE PUSH1 0xE PUSH1 0x20 MSTORE DUP3 DUP3 KECCAK256 SWAP1 DUP2 SLOAD SWAP1 DUP2 ISZERO PUSH2 0xD30 JUMPI POP DUP4 PUSH2 0xB49 DUP4 PUSH32 0x7FC4727E062E336010F2C282598EF5F14FACB3DE68CF8195C2F23E1454B2B74E SWAP4 PUSH1 0x2 PUSH1 0x3 SWAP7 ADD SLOAD DUP1 PUSH2 0xCE7 JUMPI JUMPDEST POP DUP7 PUSH2 0xCC1 PUSH1 0x5 SLOAD DUP4 PUSH2 0x1759 JUMP JUMPDEST SWAP7 DUP4 DUP3 DUP10 SWAP6 SSTORE ADD SSTORE PUSH2 0xCD5 DUP2 PUSH1 0xC SLOAD PUSH2 0x126F JUMP JUMPDEST PUSH1 0xC SSTORE PUSH2 0xCE2 DUP3 CALLER PUSH2 0x17D4 JUMP JUMPDEST PUSH2 0x126F JUMP JUMPDEST PUSH2 0xCFB PUSH2 0xCF4 DUP5 DUP4 PUSH2 0x17B1 JUMP JUMPDEST DUP1 SWAP3 PUSH2 0x126F JUMP JUMPDEST DUP6 MLOAD SWAP2 DUP3 MSTORE PUSH1 0x20 DUP3 ADD MSTORE PUSH32 0x987D620F307FF6B94D58743CB7A7509F24071586A77759B77C2D4E29F75A2F9A DUP6 CALLER SWAP3 LOG2 DUP8 PUSH2 0xCB3 JUMP JUMPDEST PUSH1 0x64 SWAP1 PUSH1 0x20 DUP7 MLOAD SWAP2 PUSH3 0x461BCD PUSH1 0xE5 SHL DUP4 MSTORE DUP3 ADD MSTORE PUSH1 0xE PUSH1 0x24 DUP3 ADD MSTORE PUSH14 0x139BDD1A1A5B99C81CDD185AD959 PUSH1 0x92 SHL PUSH1 0x44 DUP3 ADD MSTORE REVERT JUMPDEST PUSH2 0xD6D CALLER PUSH2 0x12D2 JUMP JUMPDEST CALLER DUP4 MSTORE PUSH1 0xE PUSH1 0x20 MSTORE DUP4 DUP4 KECCAK256 SWAP1 PUSH1 0x2 DUP3 ADD SSTORE PUSH1 0x1 PUSH1 0xA SLOAD SWAP2 ADD SSTORE PUSH2 0xC69 JUMP JUMPDEST POP POP CALLVALUE PUSH2 0x1FA JUMPI DUP2 PUSH1 0x3 NOT CALLDATASIZE ADD SLT PUSH2 0x1FA JUMPI PUSH1 0x20 SWAP1 MLOAD PUSH2 0x2710 DUP2 MSTORE RETURN JUMPDEST SWAP2 SWAP1 POP CALLVALUE PUSH2 0x29A JUMPI CALLDATASIZE PUSH1 0x3 NOT ADD PUSH1 0xA0 DUP2 SLT PUSH2 0x1089 JUMPI PUSH1 0x80 SGT PUSH2 0x29A JUMPI PUSH8 0xFFFFFFFFFFFFFFFF SWAP2 PUSH1 0x84 CALLDATALOAD DUP4 DUP2 GT PUSH2 0x1085 JUMPI CALLDATASIZE PUSH1 0x23 DUP3 ADD SLT ISZERO PUSH2 0x1085 JUMPI DUP1 DUP3 ADD CALLDATALOAD SWAP4 DUP1 DUP6 GT PUSH2 0x1010 JUMPI PUSH1 0x24 SWAP1 CALLDATASIZE DUP3 DUP8 DUP6 ADD ADD GT PUSH2 0x1081 JUMPI PUSH2 0xE0C PUSH1 0xFF PUSH1 0x7 SLOAD AND ISZERO PUSH2 0x1415 JUMP JUMPDEST PUSH2 0xE14 PUSH2 0x16DE JUMP JUMPDEST PUSH1 0xA SSTORE PUSH2 0xE1F PUSH2 0x16CC JUMP JUMPDEST PUSH1 0xB SSTORE CALLER PUSH2 0x105A JUMPI JUMPDEST DUP2 CALLDATALOAD SWAP6 PUSH2 0xE36 DUP8 ISZERO ISZERO PUSH2 0x144A JUMP JUMPDEST PUSH1 0x1 PUSH1 0x1 PUSH1 0xA0 SHL SUB SWAP4 DUP6 CALLDATALOAD DUP6 DUP2 AND SWAP1 DUP2 SWAP1 SUB PUSH2 0x1056 JUMPI DUP6 PUSH32 0x0 AND SUB PUSH2 0x1026 JUMPI DUP7 MLOAD SWAP2 DUP8 DUP4 ADD DUP4 DUP2 LT DUP6 DUP3 GT OR PUSH2 0x1014 JUMPI DUP9 MSTORE ADDRESS DUP4 MSTORE PUSH1 0x20 DUP4 ADD DUP10 DUP2 MSTORE DUP11 SWAP4 SWAP3 PUSH15 0x22D473030F116DDEE9F6B43AC78BA3 SWAP3 SWAP1 DUP4 EXTCODESIZE ISZERO PUSH2 0x1010 JUMPI DUP10 DUP7 SWAP3 DUP14 SWAP5 DUP14 MLOAD SWAP12 DUP13 SWAP9 DUP10 SWAP8 DUP9 SWAP6 PUSH4 0x187945BD PUSH1 0xE1 SHL DUP8 MSTORE DUP4 PUSH2 0xECE PUSH2 0x11C9 JUMP JUMPDEST AND SWAP1 DUP8 ADD MSTORE DUP14 DUP7 ADD MSTORE PUSH1 0x44 CALLDATALOAD PUSH1 0x44 DUP7 ADD MSTORE PUSH1 0x64 CALLDATALOAD PUSH1 0x64 DUP7 ADD MSTORE MLOAD AND PUSH1 0x84 DUP5 ADD MSTORE MLOAD PUSH1 0xA4 DUP4 ADD MSTORE CALLER PUSH1 0xC4 DUP4 ADD MSTORE PUSH2 0x100 PUSH1 0xE4 DUP4 ADD MSTORE DUP1 PUSH2 0x104 DUP4 ADD MSTORE DUP1 DUP11 PUSH2 0x124 SWAP5 ADD DUP5 DUP5 ADD CALLDATACOPY DUP2 DUP2 ADD DUP4 ADD DUP5 SWAP1 MSTORE PUSH1 0x1F ADD PUSH1 0x1F NOT AND DUP2 ADD SUB ADD SWAP3 GAS CALL DUP1 ISZERO PUSH2 0x1006 JUMPI PUSH2 0xFBE JUMPI JUMPDEST POP POP POP SWAP1 PUSH2 0xB49 DUP3 PUSH2 0xF69 PUSH32 0x1449C6DD7851ABC30ABF37F57715F492010519147CC2652FBC38202C18A6EE90 SWAP5 SLOAD DUP7 PUSH2 0x1759 JUMP JUMPDEST SWAP5 DUP6 SWAP2 CALLER DUP9 MSTORE PUSH1 0xE PUSH1 0x20 MSTORE DUP5 DUP9 KECCAK256 PUSH2 0xF82 DUP5 DUP3 SLOAD PUSH2 0x12C5 JUMP JUMPDEST SWAP1 SSTORE CALLER DUP9 MSTORE PUSH1 0xE PUSH1 0x20 MSTORE DUP5 DUP9 KECCAK256 SWAP1 PUSH1 0x3 DUP3 ADD DUP1 SLOAD ISZERO PUSH2 0xFB5 JUMPI JUMPDEST POP TIMESTAMP SWAP2 ADD SSTORE PUSH2 0xFAD DUP3 PUSH1 0xC SLOAD PUSH2 0x12C5 JUMP JUMPDEST PUSH1 0xC SSTORE PUSH2 0x126F JUMP JUMPDEST TIMESTAMP SWAP1 SSTORE CODESIZE PUSH2 0xF9C JUMP JUMPDEST DUP3 SWAP7 SWAP4 SWAP7 GT PUSH2 0xFF5 JUMPI POP DUP3 MSTORE SWAP3 PUSH2 0xB49 PUSH32 0x1449C6DD7851ABC30ABF37F57715F492010519147CC2652FBC38202C18A6EE90 CODESIZE PUSH2 0xF35 JUMP JUMPDEST PUSH4 0x4E487B71 PUSH1 0xE0 SHL DUP4 MSTORE PUSH1 0x41 DUP7 MSTORE DUP3 REVERT JUMPDEST DUP6 MLOAD RETURNDATASIZE DUP10 DUP3 RETURNDATACOPY RETURNDATASIZE SWAP1 REVERT JUMPDEST DUP6 DUP1 REVERT JUMPDEST PUSH4 0x4E487B71 PUSH1 0xE0 SHL DUP12 MSTORE PUSH1 0x41 DUP9 MSTORE DUP6 DUP12 REVERT JUMPDEST DUP7 MLOAD PUSH3 0x461BCD PUSH1 0xE5 SHL DUP2 MSTORE PUSH1 0x20 DUP2 DUP9 ADD MSTORE PUSH1 0xB DUP2 DUP7 ADD MSTORE PUSH11 0x2BB937B733903A37B5B2B7 PUSH1 0xA9 SHL PUSH1 0x44 DUP3 ADD MSTORE PUSH1 0x64 SWAP1 REVERT JUMPDEST DUP10 DUP1 REVERT JUMPDEST PUSH2 0x1063 CALLER PUSH2 0x12D2 JUMP JUMPDEST CALLER DUP9 MSTORE PUSH1 0xE PUSH1 0x20 MSTORE DUP6 DUP9 KECCAK256 SWAP1 PUSH1 0x2 DUP3 ADD SSTORE PUSH1 0x1 PUSH1 0xA SLOAD SWAP2 ADD SSTORE PUSH2 0xE28 JUMP JUMPDEST DUP7 DUP1 REVERT JUMPDEST DUP5 DUP1 REVERT JUMPDEST DUP4 DUP1 REVERT JUMPDEST DUP4 CALLVALUE PUSH2 0x499 JUMPI PUSH1 0x20 CALLDATASIZE PUSH1 0x3 NOT ADD SLT PUSH2 0x499 JUMPI PUSH2 0x8A5 PUSH2 0x10AA PUSH2 0x11C9 JUMP JUMPDEST PUSH2 0x10B6 PUSH2 0x262 CALLER PUSH2 0x1724 JUMP JUMPDEST PUSH2 0x1323 JUMP JUMPDEST POP POP CALLVALUE PUSH2 0x1FA JUMPI DUP2 PUSH1 0x3 NOT CALLDATASIZE ADD SLT PUSH2 0x1FA JUMPI PUSH1 0x20 SWAP1 PUSH1 0x3 SLOAD SWAP1 MLOAD SWAP1 DUP2 MSTORE RETURN JUMPDEST POP POP CALLVALUE PUSH2 0x1FA JUMPI DUP2 PUSH1 0x3 NOT CALLDATASIZE ADD SLT PUSH2 0x1FA JUMPI PUSH1 0x20 SWAP1 MLOAD PUSH1 0x3 DUP2 MSTORE RETURN JUMPDEST SWAP1 POP CALLVALUE PUSH2 0x29A JUMPI PUSH1 0x20 CALLDATASIZE PUSH1 0x3 NOT ADD SLT PUSH2 0x29A JUMPI CALLDATALOAD PUSH1 0x3 DUP2 LT ISZERO PUSH2 0x29A JUMPI SLOAD SWAP1 MLOAD PUSH1 0x1 PUSH1 0x1 PUSH1 0xA0 SHL SUB SWAP1 SWAP2 AND DUP2 MSTORE PUSH1 0x20 SWAP2 POP RETURN JUMPDEST POP POP CALLVALUE PUSH2 0x1FA JUMPI PUSH1 0x20 CALLDATASIZE PUSH1 0x3 NOT ADD SLT PUSH2 0x1FA JUMPI PUSH1 0x20 SWAP1 PUSH2 0x2DF PUSH2 0x114A PUSH2 0x11C9 JUMP JUMPDEST PUSH2 0x12D2 JUMP JUMPDEST SWAP1 POP CALLVALUE PUSH2 0x29A JUMPI PUSH1 0x20 CALLDATASIZE PUSH1 0x3 NOT ADD SLT PUSH2 0x29A JUMPI PUSH32 0x12C476DBE611207AA496773AFC1CFEDB660981EBE024C62F643A0AAEC9BB7569 SWAP2 PUSH2 0x294 DUP3 CALLDATALOAD SWAP3 PUSH2 0x1196 PUSH2 0x262 CALLER PUSH2 0x1724 JUMP JUMPDEST PUSH2 0x11A4 PUSH2 0x3E8 DUP6 GT ISZERO PUSH2 0x1234 JUMP JUMPDEST DUP4 PUSH1 0x5 SSTORE SLOAD SWAP2 PUSH1 0x6 SLOAD SWAP1 MLOAD SWAP4 DUP5 SWAP4 DUP5 PUSH1 0x40 SWAP2 SWAP5 SWAP4 SWAP3 PUSH1 0x60 DUP3 ADD SWAP6 DUP3 MSTORE PUSH1 0x20 DUP3 ADD MSTORE ADD MSTORE JUMP JUMPDEST PUSH1 0x4 CALLDATALOAD SWAP1 PUSH1 0x1 PUSH1 0x1 PUSH1 0xA0 SHL SUB DUP3 AND DUP3 SUB PUSH2 0xA2E JUMPI JUMP JUMPDEST CALLVALUE PUSH2 0xA2E JUMPI PUSH1 0x0 CALLDATASIZE PUSH1 0x3 NOT ADD SLT PUSH2 0xA2E JUMPI PUSH1 0x20 PUSH1 0x40 MLOAD PUSH2 0x3E8 DUP2 MSTORE RETURN JUMPDEST ISZERO PUSH2 0x1203 JUMPI JUMP JUMPDEST PUSH1 0x40 MLOAD PUSH3 0x461BCD PUSH1 0xE5 SHL DUP2 MSTORE PUSH1 0x20 PUSH1 0x4 DUP3 ADD MSTORE PUSH1 0x9 PUSH1 0x24 DUP3 ADD MSTORE PUSH9 0x2737BA1037BBB732B9 PUSH1 0xB9 SHL PUSH1 0x44 DUP3 ADD MSTORE PUSH1 0x64 SWAP1 REVERT JUMPDEST ISZERO PUSH2 0x123B JUMPI JUMP JUMPDEST PUSH1 0x40 MLOAD PUSH3 0x461BCD PUSH1 0xE5 SHL DUP2 MSTORE PUSH1 0x20 PUSH1 0x4 DUP3 ADD MSTORE PUSH1 0xC PUSH1 0x24 DUP3 ADD MSTORE PUSH12 0x8CCACA40E8DEDE40D0D2CED PUSH1 0xA3 SHL PUSH1 0x44 DUP3 ADD MSTORE PUSH1 0x64 SWAP1 REVERT JUMPDEST SWAP2 SWAP1 DUP3 SUB SWAP2 DUP3 GT PUSH2 0x127C JUMPI JUMP JUMPDEST PUSH4 0x4E487B71 PUSH1 0xE0 SHL PUSH1 0x0 MSTORE PUSH1 0x11 PUSH1 0x4 MSTORE PUSH1 0x24 PUSH1 0x0 REVERT JUMPDEST DUP2 DUP2 MUL SWAP3 SWAP2 DUP2 ISZERO SWAP2 DUP5 DIV EQ OR ISZERO PUSH2 0x127C JUMPI JUMP JUMPDEST DUP2 ISZERO PUSH2 0x12AF JUMPI DIV SWAP1 JUMP JUMPDEST PUSH4 0x4E487B71 PUSH1 0xE0 SHL PUSH1 0x0 MSTORE PUSH1 0x12 PUSH1 0x4 MSTORE PUSH1 0x24 PUSH1 0x0 REVERT JUMPDEST SWAP2 SWAP1 DUP3 ADD DUP1 SWAP3 GT PUSH2 0x127C JUMPI JUMP JUMPDEST PUSH1 0x1 DUP1 PUSH1 0xA0 SHL SUB AND PUSH1 0x0 MSTORE PUSH1 0xE PUSH1 0x20 MSTORE PUSH2 0x1320 PUSH1 0x40 PUSH1 0x0 KECCAK256 PUSH1 0x2 PUSH8 0xDE0B6B3A7640000 PUSH2 0x1316 DUP4 SLOAD PUSH2 0x1310 PUSH2 0x1305 PUSH2 0x16DE JUMP JUMPDEST PUSH1 0x1 DUP8 ADD SLOAD SWAP1 PUSH2 0x126F JUMP JUMPDEST SWAP1 PUSH2 0x1292 JUMP JUMPDEST DIV SWAP2 ADD SLOAD SWAP1 PUSH2 0x12C5 JUMP JUMPDEST SWAP1 JUMP JUMPDEST PUSH1 0x1 SWAP2 PUSH1 0x3 SWAP2 PUSH1 0x1 PUSH1 0x3 SLOAD GT ISZERO PUSH2 0x13D8 JUMPI PUSH1 0x0 JUMPDEST DUP4 DUP2 LT PUSH2 0x136F JUMPI PUSH1 0x40 MLOAD PUSH3 0x461BCD PUSH1 0xE5 SHL DUP2 MSTORE PUSH1 0x20 PUSH1 0x4 DUP3 ADD MSTORE PUSH1 0x9 PUSH1 0x24 DUP3 ADD MSTORE PUSH9 0x139BDD08199BDD5B99 PUSH1 0xBA SHL PUSH1 0x44 DUP3 ADD MSTORE PUSH1 0x64 SWAP1 REVERT JUMPDEST DUP1 SLOAD PUSH1 0x1 PUSH1 0x1 PUSH1 0xA0 SHL SUB DUP4 DUP2 AND SWAP2 SWAP1 DUP2 AND DUP3 EQ PUSH2 0x138F JUMPI POP POP DUP5 ADD PUSH2 0x1337 JUMP JUMPDEST PUSH1 0x1 PUSH1 0x1 PUSH1 0xA0 SHL SUB NOT AND SWAP1 SWAP2 SSTORE DUP4 SLOAD SWAP3 SWAP5 POP SWAP3 SWAP2 SWAP1 POP DUP1 ISZERO PUSH2 0x127C JUMPI PUSH1 0x0 NOT ADD SWAP1 SSTORE PUSH32 0x58619076ADF5BB0943D100EF88D52D7C3FD691B19D3A9071B555B651FBF418DA PUSH1 0x0 DUP1 LOG2 JUMP JUMPDEST PUSH1 0x40 MLOAD PUSH3 0x461BCD PUSH1 0xE5 SHL DUP2 MSTORE PUSH1 0x20 PUSH1 0x4 DUP3 ADD MSTORE PUSH1 0x15 PUSH1 0x24 DUP3 ADD MSTORE PUSH21 0x2732B2B21030BA103632B0B9BA10189037BBB732B9 PUSH1 0x59 SHL PUSH1 0x44 DUP3 ADD MSTORE PUSH1 0x64 SWAP1 REVERT JUMPDEST ISZERO PUSH2 0x141C JUMPI JUMP JUMPDEST PUSH1 0x40 MLOAD PUSH3 0x461BCD PUSH1 0xE5 SHL DUP2 MSTORE PUSH1 0x20 PUSH1 0x4 DUP3 ADD MSTORE PUSH1 0x6 PUSH1 0x24 DUP3 ADD MSTORE PUSH6 0x14185D5CD959 PUSH1 0xD2 SHL PUSH1 0x44 DUP3 ADD MSTORE PUSH1 0x64 SWAP1 REVERT JUMPDEST ISZERO PUSH2 0x1451 JUMPI JUMP JUMPDEST PUSH1 0x40 MLOAD PUSH3 0x461BCD PUSH1 0xE5 SHL DUP2 MSTORE PUSH1 0x20 PUSH1 0x4 DUP3 ADD MSTORE PUSH1 0xB PUSH1 0x24 DUP3 ADD MSTORE PUSH11 0x16995C9BC8185B5BDD5B9D PUSH1 0xAA SHL PUSH1 0x44 DUP3 ADD MSTORE PUSH1 0x64 SWAP1 REVERT JUMPDEST PUSH1 0xC SLOAD DUP1 ISZERO DUP1 ISZERO PUSH2 0x14DE JUMPI JUMPDEST PUSH2 0x14D8 JUMPI PUSH1 0x8 SLOAD SWAP1 PUSH4 0x1E13380 SWAP2 DUP3 DUP2 MUL SWAP3 DUP2 DUP5 DIV EQ DUP2 ISZERO OR ISZERO PUSH2 0x127C JUMPI PUSH5 0x496CEBB800 MUL SWAP2 DUP1 DUP4 DIV PUSH2 0x2710 EQ SWAP1 ISZERO OR ISZERO PUSH2 0x127C JUMPI PUSH8 0xDE0B6B3A7640000 PUSH2 0x1320 SWAP3 DIV PUSH2 0x12A5 JUMP JUMPDEST POP PUSH1 0x0 SWAP1 JUMP JUMPDEST POP PUSH1 0x8 SLOAD ISZERO PUSH2 0x1490 JUMP JUMPDEST PUSH1 0x60 DUP2 ADD SWAP1 DUP2 LT PUSH8 0xFFFFFFFFFFFFFFFF DUP3 GT OR PUSH2 0x1504 JUMPI PUSH1 0x40 MSTORE JUMP JUMPDEST PUSH4 0x4E487B71 PUSH1 0xE0 SHL PUSH1 0x0 MSTORE PUSH1 0x41 PUSH1 0x4 MSTORE PUSH1 0x24 PUSH1 0x0 REVERT JUMPDEST SWAP1 PUSH1 0x1F DUP1 NOT SWAP2 ADD AND DUP2 ADD SWAP1 DUP2 LT PUSH8 0xFFFFFFFFFFFFFFFF DUP3 GT OR PUSH2 0x1504 JUMPI PUSH1 0x40 MSTORE JUMP JUMPDEST SWAP1 DUP2 PUSH1 0x20 SWAP2 SUB SLT PUSH2 0xA2E JUMPI MLOAD DUP1 ISZERO ISZERO DUP2 SUB PUSH2 0xA2E JUMPI SWAP1 JUMP JUMPDEST ISZERO PUSH2 0x155B JUMPI JUMP JUMPDEST PUSH1 0x40 MLOAD PUSH3 0x461BCD PUSH1 0xE5 SHL DUP2 MSTORE PUSH1 0x20 PUSH1 0x4 DUP3 ADD MSTORE PUSH1 0xF PUSH1 0x24 DUP3 ADD MSTORE PUSH15 0x151C985B9CD9995C8819985A5B1959 PUSH1 0x8A SHL PUSH1 0x44 DUP3 ADD MSTORE PUSH1 0x64 SWAP1 REVERT JUMPDEST PUSH1 0x1 PUSH1 0x1 PUSH1 0xA0 SHL SUB SWAP1 DUP1 DUP3 AND SWAP1 DUP2 ISZERO PUSH2 0x1698 JUMPI PUSH2 0x15AE SWAP1 PUSH2 0x1724 JUMP JUMPDEST PUSH2 0x1663 JUMPI PUSH1 0x3 DUP1 DUP1 SLOAD LT ISZERO PUSH2 0x1629 JUMPI PUSH1 0x0 JUMPDEST DUP2 DUP2 LT PUSH2 0x15CD JUMPI POP POP POP POP JUMP JUMPDEST DUP1 SLOAD DUP5 DUP2 AND ISZERO PUSH2 0x15E0 JUMPI POP PUSH1 0x1 ADD PUSH2 0x15C0 JUMP JUMPDEST PUSH1 0x1 PUSH1 0x1 PUSH1 0xA0 SHL SUB NOT AND DUP4 OR SWAP1 SSTORE DUP1 SLOAD SWAP2 SWAP3 POP SWAP1 PUSH1 0x0 NOT DUP2 EQ PUSH2 0x127C JUMPI PUSH1 0x1 ADD SWAP1 SSTORE PUSH32 0x994A936646FE87FFE4F1E469D3D6AA417D6B855598397F323DE5B449F765F0C3 PUSH1 0x0 DUP1 LOG2 JUMP JUMPDEST PUSH1 0x40 MLOAD PUSH3 0x461BCD PUSH1 0xE5 SHL DUP2 MSTORE PUSH1 0x20 PUSH1 0x4 DUP3 ADD MSTORE PUSH1 0x12 PUSH1 0x24 DUP3 ADD MSTORE PUSH18 0x13585E081BDDDB995C9CC81C995858DA1959 PUSH1 0x72 SHL PUSH1 0x44 DUP3 ADD MSTORE PUSH1 0x64 SWAP1 REVERT JUMPDEST PUSH1 0x40 MLOAD PUSH3 0x461BCD PUSH1 0xE5 SHL DUP2 MSTORE PUSH1 0x20 PUSH1 0x4 DUP3 ADD MSTORE PUSH1 0xD PUSH1 0x24 DUP3 ADD MSTORE PUSH13 0x20B63932B0B23C9037BBB732B9 PUSH1 0x99 SHL PUSH1 0x44 DUP3 ADD MSTORE PUSH1 0x64 SWAP1 REVERT JUMPDEST PUSH1 0x40 MLOAD PUSH3 0x461BCD PUSH1 0xE5 SHL DUP2 MSTORE PUSH1 0x20 PUSH1 0x4 DUP3 ADD MSTORE PUSH1 0xC PUSH1 0x24 DUP3 ADD MSTORE PUSH12 0x5A65726F2061646472657373 PUSH1 0xA0 SHL PUSH1 0x44 DUP3 ADD MSTORE PUSH1 0x64 SWAP1 REVERT JUMPDEST PUSH1 0x9 SLOAD DUP1 TIMESTAMP LT PUSH1 0x0 EQ PUSH2 0x1320 JUMPI POP TIMESTAMP SWAP1 JUMP JUMPDEST PUSH1 0xC SLOAD DUP1 ISZERO PUSH2 0x171D JUMPI PUSH2 0x1320 SWAP1 PUSH2 0x1717 PUSH1 0xA SLOAD SWAP2 PUSH2 0x1712 PUSH2 0x1709 PUSH2 0x1700 PUSH2 0x16CC JUMP JUMPDEST PUSH1 0xB SLOAD SWAP1 PUSH2 0x126F JUMP JUMPDEST PUSH1 0x8 SLOAD SWAP1 PUSH2 0x1292 JUMP JUMPDEST PUSH2 0x12A5 JUMP JUMPDEST SWAP1 PUSH2 0x12C5 JUMP JUMPDEST POP PUSH1 0xA SLOAD SWAP1 JUMP JUMPDEST PUSH1 0x0 JUMPDEST PUSH1 0x3 DUP2 LT PUSH2 0x1736 JUMPI POP POP PUSH1 0x0 SWAP1 JUMP JUMPDEST DUP1 SLOAD PUSH1 0x1 PUSH1 0x1 PUSH1 0xA0 SHL SUB DUP4 DUP2 AND SWAP2 AND EQ PUSH2 0x1752 JUMPI PUSH1 0x1 ADD PUSH2 0x1727 JUMP JUMPDEST POP POP PUSH1 0x1 SWAP1 JUMP JUMPDEST SWAP1 DUP1 ISZERO PUSH2 0x17AD JUMPI SWAP1 PUSH2 0x1771 SWAP2 PUSH2 0x2710 SWAP3 DUP4 SWAP2 DUP4 PUSH2 0x1292 JUMP JUMPDEST DIV SWAP1 PUSH2 0x3E8 DUP1 DUP4 MUL SWAP1 DUP4 DUP3 DIV EQ DUP4 ISZERO OR ISZERO PUSH2 0x127C JUMPI PUSH2 0x1320 SWAP4 PUSH2 0xCE2 SWAP2 DIV PUSH2 0x17A5 PUSH2 0x179C DUP3 DUP7 PUSH2 0x126F JUMP JUMPDEST SWAP2 PUSH1 0xD SLOAD PUSH2 0x12C5 JUMP JUMPDEST PUSH1 0xD SSTORE PUSH2 0x186D JUMP JUMPDEST POP SWAP1 JUMP JUMPDEST PUSH2 0x17C7 SWAP2 PUSH1 0x0 PUSH1 0x2 DUP3 ADD SSTORE PUSH1 0x4 TIMESTAMP SWAP2 ADD SSTORE PUSH2 0x1909 JUMP JUMPDEST SWAP1 PUSH2 0x17D2 DUP3 CALLER PUSH2 0x17D4 JUMP JUMPDEST JUMP JUMPDEST PUSH1 0x40 MLOAD PUSH4 0xA9059CBB PUSH1 0xE0 SHL DUP2 MSTORE PUSH1 0x1 PUSH1 0x1 PUSH1 0xA0 SHL SUB SWAP1 SWAP2 AND PUSH1 0x4 DUP3 ADD MSTORE PUSH1 0x24 DUP2 ADD SWAP2 SWAP1 SWAP2 MSTORE PUSH1 0x20 DUP2 DUP1 PUSH1 0x44 DUP2 ADD SUB DUP2 PUSH1 0x0 PUSH32 0x0 PUSH1 0x1 PUSH1 0x1 PUSH1 0xA0 SHL SUB AND GAS CALL DUP1 ISZERO PUSH2 0x1861 JUMPI PUSH2 0x17D2 SWAP2 PUSH1 0x0 SWAP2 PUSH2 0x1848 JUMPI POP PUSH2 0x1554 JUMP JUMPDEST PUSH2 0x9F1 SWAP2 POP PUSH1 0x20 RETURNDATASIZE PUSH1 0x20 GT PUSH2 0x756 JUMPI PUSH2 0x748 DUP2 DUP4 PUSH2 0x151A JUMP JUMPDEST PUSH1 0x40 MLOAD RETURNDATASIZE PUSH1 0x0 DUP3 RETURNDATACOPY RETURNDATASIZE SWAP1 REVERT JUMPDEST SWAP1 DUP2 ISZERO DUP1 ISZERO PUSH2 0x18FF JUMPI JUMPDEST PUSH2 0x18FB JUMPI PUSH1 0x0 PUSH1 0x3 SWAP3 PUSH2 0x188C PUSH1 0x3 SLOAD DUP3 PUSH2 0x12A5 JUMP JUMPDEST SWAP4 PUSH1 0x0 JUMPDEST DUP2 DUP2 LT PUSH2 0x18BD JUMPI POP POP PUSH2 0x18A4 SWAP3 SWAP4 POP PUSH2 0x126F JUMP JUMPDEST DUP1 PUSH2 0x18AC JUMPI POP JUMP JUMPDEST PUSH2 0x18B8 SWAP1 PUSH1 0xD SLOAD PUSH2 0x12C5 JUMP JUMPDEST PUSH1 0xD SSTORE JUMP JUMPDEST DUP1 SLOAD DUP7 SWAP1 PUSH1 0x1 PUSH1 0x1 PUSH1 0xA0 SHL SUB AND DUP1 PUSH2 0x18DA JUMPI JUMPDEST POP POP PUSH1 0x1 ADD PUSH2 0x1890 JUMP JUMPDEST SWAP1 PUSH1 0x1 SWAP3 SWAP6 PUSH2 0x18EC DUP3 PUSH2 0x18F1 SWAP5 PUSH2 0x17D4 JUMP JUMPDEST PUSH2 0x12C5 JUMP JUMPDEST SWAP4 SWAP1 POP DUP6 CODESIZE PUSH2 0x18D0 JUMP JUMPDEST SWAP1 POP JUMP JUMPDEST POP PUSH1 0x3 SLOAD ISZERO PUSH2 0x1877 JUMP JUMPDEST PUSH1 0x6 SLOAD DUP1 ISZERO PUSH2 0x17AD JUMPI SWAP1 PUSH2 0x1771 SWAP2 PUSH2 0x2710 SWAP3 DUP4 SWAP2 DUP4 PUSH2 0x1292 JUMP INVALID LOG2 PUSH5 0x6970667358 0x22 SLT KECCAK256 0x2E 0x2A 0xEA SWAP9 CALLER 0xA6 BLOBBASEFEE SWAP16 DELEGATECALL DUP1 0x4E 0xC6 NUMBER TSTORE MOD SWAP9 EXTCODECOPY REVERT CALLVALUE 0xB4 PUSH17 0x91C42B7875CF5BA5A07C3E64736F6C6343 STOP ADDMOD XOR STOP CALLER "},"methodIdentifiers":{"BPS()":"249d39e9","FEE_TO_REWARD_BPS()":"a93837bd","MAX_FEE_BPS()":"d55be8c6","MAX_OWNERS()":"0b8bb146","PERMIT2()":"6afdd850","REWARD_DURATION()":"5ade228a","SCALE()":"eced5526","TOKEN()":"82bfefc8","addOwner(address)":"7065cb48","apyBps()":"51618ed3","claimFeeBps()":"7a526f4e","claimRewards()":"372500ab","contractTokenBalance()":"9e9aed62","depositRewards(uint256)":"8bdf67f2","earned(address)":"008cc262","emergencyWithdraw(address,uint256,address)":"551512de","getOwners()":"a0e67e2b","getStakeInfo(address)":"c3453153","lastTimeRewardApplicable()":"80faa57d","lastUpdateTime()":"c8f33c91","ownerCount()":"0db02622","owners(uint256)":"025e7c27","pause()":"8456cb59","paused()":"5c975abb","periodFinish()":"ebe2b12b","removeOwner(address)":"173825d9","rewardPerToken()":"cd3daf9d","rewardPerTokenStored()":"df136d65","rewardRate()":"7b0a47ee","rewardReserve()":"cab64bcd","setClaimFee(uint256)":"2e75ab50","setStakeFee(uint256)":"e2d7bee4","setUnstakeFee(uint256)":"0018a116","stake(((address,uint256),uint256,uint256),bytes)":"1d9ab29a","stakeFeeBps()":"3ad5b8aa","totalStaked()":"817b1cd2","unpause()":"3f4ba83a","unstake()":"2def6620","unstakeFeeBps()":"c8fc9729","users(address)":"a87430ba"}}}}}