{"contracts/AcuaSwapRouterV2.sol":{"AcuaSwapRouterV2":{"abi":[{"inputs":[{"internalType":"address[3]","name":"_feeOwners","type":"address[3]"}],"stateMutability":"nonpayable","type":"constructor"},{"anonymous":false,"inputs":[],"name":"ConfigUpdated","type":"event"},{"anonymous":false,"inputs":[{"indexed":true,"internalType":"address","name":"who","type":"address"},{"indexed":true,"internalType":"address","name":"token","type":"address"},{"indexed":false,"internalType":"uint256","name":"amount","type":"uint256"}],"name":"FeeClaimed","type":"event"},{"anonymous":false,"inputs":[{"indexed":true,"internalType":"address","name":"token","type":"address"},{"indexed":false,"internalType":"uint256","name":"tokenIn","type":"uint256"},{"indexed":false,"internalType":"uint256","name":"h2oOut","type":"uint256"}],"name":"H2OBought","type":"event"},{"anonymous":false,"inputs":[{"indexed":true,"internalType":"address","name":"user","type":"address"},{"indexed":false,"internalType":"address","name":"tokenIn","type":"address"},{"indexed":false,"internalType":"address","name":"tokenOut","type":"address"},{"indexed":false,"internalType":"uint256","name":"amountIn","type":"uint256"},{"indexed":false,"internalType":"uint256","name":"amountOut","type":"uint256"}],"name":"SwappedV3","type":"event"},{"inputs":[],"name":"H2O","outputs":[{"internalType":"address","name":"","type":"address"}],"stateMutability":"view","type":"function"},{"inputs":[],"name":"MAX_FEE_BPS","outputs":[{"internalType":"uint256","name":"","type":"uint256"}],"stateMutability":"view","type":"function"},{"inputs":[],"name":"PERMIT2_ADDR","outputs":[{"internalType":"address","name":"","type":"address"}],"stateMutability":"view","type":"function"},{"inputs":[],"name":"USDC","outputs":[{"internalType":"address","name":"","type":"address"}],"stateMutability":"view","type":"function"},{"inputs":[],"name":"V3_FACTORY","outputs":[{"internalType":"address","name":"","type":"address"}],"stateMutability":"view","type":"function"},{"inputs":[],"name":"V3_POOL_INIT_CODE_HASH","outputs":[{"internalType":"bytes32","name":"","type":"bytes32"}],"stateMutability":"view","type":"function"},{"inputs":[],"name":"WLD","outputs":[{"internalType":"address","name":"","type":"address"}],"stateMutability":"view","type":"function"},{"inputs":[{"internalType":"address","name":"token","type":"address"},{"internalType":"uint24","name":"feeHop","type":"uint24"},{"internalType":"uint24","name":"feeOut","type":"uint24"}],"name":"buybackH2O","outputs":[],"stateMutability":"nonpayable","type":"function"},{"inputs":[{"internalType":"address","name":"token","type":"address"}],"name":"claimFees","outputs":[],"stateMutability":"nonpayable","type":"function"},{"inputs":[{"internalType":"address[]","name":"tokens","type":"address[]"}],"name":"claimFeesBatch","outputs":[],"stateMutability":"nonpayable","type":"function"},{"inputs":[{"internalType":"address","name":"token","type":"address"},{"internalType":"uint256","name":"amount","type":"uint256"}],"name":"emergencyWithdraw","outputs":[],"stateMutability":"nonpayable","type":"function"},{"inputs":[{"internalType":"uint256","name":"","type":"uint256"}],"name":"feeOwners","outputs":[{"internalType":"address","name":"","type":"address"}],"stateMutability":"view","type":"function"},{"inputs":[{"internalType":"address","name":"tokenA","type":"address"},{"internalType":"address","name":"tokenB","type":"address"},{"internalType":"uint24","name":"fee","type":"uint24"}],"name":"getPoolAddress","outputs":[{"internalType":"address","name":"","type":"address"}],"stateMutability":"pure","type":"function"},{"inputs":[],"name":"h2oFeeBps","outputs":[{"internalType":"uint256","name":"","type":"uint256"}],"stateMutability":"view","type":"function"},{"inputs":[{"internalType":"address","name":"","type":"address"}],"name":"h2oFeePool","outputs":[{"internalType":"uint256","name":"","type":"uint256"}],"stateMutability":"view","type":"function"},{"inputs":[],"name":"owner","outputs":[{"internalType":"address","name":"","type":"address"}],"stateMutability":"view","type":"function"},{"inputs":[{"internalType":"address","name":"","type":"address"},{"internalType":"address","name":"","type":"address"}],"name":"ownerFees","outputs":[{"internalType":"uint256","name":"","type":"uint256"}],"stateMutability":"view","type":"function"},{"inputs":[{"internalType":"address","name":"tokenIn","type":"address"},{"internalType":"address","name":"tokenOut","type":"address"},{"internalType":"uint24","name":"fee","type":"uint24"},{"internalType":"uint256","name":"amountIn","type":"uint256"}],"name":"quoteSingle","outputs":[{"internalType":"uint256","name":"amountOut","type":"uint256"},{"internalType":"address","name":"poolAddr","type":"address"}],"stateMutability":"view","type":"function"},{"inputs":[{"internalType":"address[3]","name":"_owners","type":"address[3]"}],"name":"setFeeOwners","outputs":[],"stateMutability":"nonpayable","type":"function"},{"inputs":[{"internalType":"uint256","name":"_swapFeeBps","type":"uint256"},{"internalType":"uint256","name":"_h2oFeeBps","type":"uint256"}],"name":"setFees","outputs":[],"stateMutability":"nonpayable","type":"function"},{"inputs":[{"internalType":"address","name":"newOwner","type":"address"}],"name":"setOwner","outputs":[],"stateMutability":"nonpayable","type":"function"},{"inputs":[{"internalType":"address","name":"_vr","type":"address"}],"name":"setVolumeRewards","outputs":[],"stateMutability":"nonpayable","type":"function"},{"inputs":[],"name":"swapFeeBps","outputs":[{"internalType":"uint256","name":"","type":"uint256"}],"stateMutability":"view","type":"function"},{"inputs":[{"internalType":"address","name":"hopToken","type":"address"},{"internalType":"address","name":"tokenOut","type":"address"},{"internalType":"uint24","name":"fee1","type":"uint24"},{"internalType":"uint24","name":"fee2","type":"uint24"},{"internalType":"uint256","name":"amountOutMin","type":"uint256"},{"internalType":"uint256","name":"usdcEquivalent","type":"uint256"},{"components":[{"components":[{"internalType":"address","name":"token","type":"address"},{"internalType":"uint256","name":"amount","type":"uint256"}],"internalType":"struct IPermit2.TokenPermissions","name":"permitted","type":"tuple"},{"internalType":"uint256","name":"nonce","type":"uint256"},{"internalType":"uint256","name":"deadline","type":"uint256"}],"internalType":"struct IPermit2.PermitTransferFrom","name":"permit","type":"tuple"},{"internalType":"bytes","name":"signature","type":"bytes"}],"name":"swapV3Multi","outputs":[{"internalType":"uint256","name":"amountOut","type":"uint256"}],"stateMutability":"nonpayable","type":"function"},{"inputs":[{"internalType":"address","name":"tokenOut","type":"address"},{"internalType":"uint24","name":"fee","type":"uint24"},{"internalType":"uint256","name":"amountOutMin","type":"uint256"},{"internalType":"uint256","name":"usdcEquivalent","type":"uint256"},{"components":[{"components":[{"internalType":"address","name":"token","type":"address"},{"internalType":"uint256","name":"amount","type":"uint256"}],"internalType":"struct IPermit2.TokenPermissions","name":"permitted","type":"tuple"},{"internalType":"uint256","name":"nonce","type":"uint256"},{"internalType":"uint256","name":"deadline","type":"uint256"}],"internalType":"struct IPermit2.PermitTransferFrom","name":"permit","type":"tuple"},{"internalType":"bytes","name":"signature","type":"bytes"}],"name":"swapV3Single","outputs":[{"internalType":"uint256","name":"amountOut","type":"uint256"}],"stateMutability":"nonpayable","type":"function"},{"inputs":[{"internalType":"int256","name":"amount0Delta","type":"int256"},{"internalType":"int256","name":"amount1Delta","type":"int256"},{"internalType":"bytes","name":"","type":"bytes"}],"name":"uniswapV3SwapCallback","outputs":[],"stateMutability":"nonpayable","type":"function"},{"inputs":[],"name":"volumeRewards","outputs":[{"internalType":"address","name":"","type":"address"}],"stateMutability":"view","type":"function"}],"evm":{"bytecode":{"linkReferences":{},"object":"608034620000f9576001600160401b039062001eb53881900390601f8201601f191683019084821184831017620000fe57829160405283398101606082820312620000f95780601f83011215620000f957604051926060840190811184821017620000fe57604052829160608101918211620000f957915b818310620000d75760c8600455600a600555600080546001600160a01b0319163317815584905b60038110620000b757604051611da09081620001158239f35b81516001600160a01b03166001919091019081556020909101906200009e565b82516001600160a01b0381168103620000f95781526020928301920162000077565b600080fd5b634e487b7160e01b600052604160045260246000fdfe608080604052600436101561001357600080fd5b60003560e01c90816308bd1a8514611268575080630b78f9c0146111c857806313af40351461114c57806315a0ea6a14610fff57806324b4fd7914610f915780632ffdaf8914610f73578063501015bf14610ef657806350d5e40e14610ed8578063696d628314610e92578063705bd45214610e6957806371255ea014610afa578063795e2c4d146109875780637e9602fc1461095e57806382f3ae79146107cc5780638543f9ca1461079657806389a30271146107675780638da5cb5b1461073e578063904c1853146106f757806395ccea6714610676578063ca19c851146103c9578063d55be8c6146103ac578063de061d661461037d578063f1b2a7e714610343578063fa461e33146101f7578063fc8a2b0a146101a6578063fdcf09551461017c5763feaa524d1461014857600080fd5b346101775760003660031901126101775760206040517317392e5483983945deb92e0518a8f2c4eb6ba59d8152f35b600080fd5b346101775760003660031901126101775760206040516e22d473030f116ddee9f6b43ac78ba38152f35b34610177576040366003190112610177576101bf611295565b6101c76112ab565b9060018060a01b038091166000526007602052604060002091166000526020526020604060002054604051908152f35b346101775760603660031901126101775760043560243560443567ffffffffffffffff81116101775761022e9036906004016112e5565b50506009546001600160a01b0391908216801561030d5760008413156102c957505060095460405163a9059cbb60e01b8152336004820152602481019390935260209183916044918391600091165af180156102bd5761028b575b005b6020813d6020116102b5575b816102a4602093836113ba565b8101031261017757610289906113dc565b3d9150610297565b6040513d6000823e3d90fd5b91509150600082136102d757005b60405163a9059cbb60e01b81523360048201526024810192909252602090829060449082906000905af180156102bd5761028b57005b60405162461bcd60e51b815260206004820152600e60248201526d04e6f2061637469766520737761760941b6044820152606490fd5b34610177576020366003190112610177576001600160a01b03610364611295565b1660005260086020526020604060002054604051908152f35b34610177576000366003190112610177576020604051732cfc85d8e48f8eab294be644d9e25c30308630038152f35b346101775760003660031901126101775760206040516103e88152f35b3461017757610120366003190112610177576103e3611295565b6103eb6112d3565b9060803660831901126101775761010491823567ffffffffffffffff81116101775761041b9036906004016112e5565b6001600160a01b0360843581811696909493908786036101775760a43593610444851515611410565b6040519061045182611358565b30825260208201908682526e22d473030f116ddee9f6b43ac78ba391823b156101775786958c838a9460009889956040519c8d9a8b998a9763187945bd60e11b89526004890152602488015260c435604488015260e4356064880152511660848601525160a48501523360c485015261010060e48501528301528061012493848401378181018301849052601f01601f191681010301925af19081156102bd5761055f92604092610667575b506105088487611b00565b976105296001600160601b0360a01b96828860095416176009558989611a47565b9082891611988960001461064a5760006401000276a4935b8b865197889687958693630251596160e31b85523360048601611460565b0393165af19081156102bd576020967f918e92f54688c51950885ac1066129bb8ecc6bff902c9746495c1074fcfbf87f94600092600094610613575b506009541660095560001461060357506105b490611499565b935b6105c46044358610156114aa565b6105d060643533611cd7565b604080516001600160a01b03958616815291909416602082015292830152606082018390523391608090a2604051908152f35b61060d9150611499565b936105b6565b90935061063991925060403d604011610643575b61063181836113ba565b81019061144a565b919091928961059b565b503d610627565b600073fffd8963efd1fc6a506488495d951d5263988d2593610541565b6106709061138a565b886104fd565b346101775760403660031901126101775761068f611295565b6000546001600160a01b03916020916106e6919084166106b0338214611313565b60405163a9059cbb60e01b81526001600160a01b0390911660048201526024803590820152938492839160009183906044820190565b0393165af180156102bd5761028b57005b3461017757606036600319011261017757610289610713611295565b61071b6112d3565b6107236112c1565b9161073960018060a01b03600054163314611313565b61153f565b34610177576000366003190112610177576000546040516001600160a01b039091168152602090f35b346101775760003660031901126101775760206040517379a02482a880bce3f13e09da970dc34db4cd24d18152f35b3461017757602036600319011261017757600435600381101561017757600101546040516001600160a01b039091168152602090f35b3461017757602080600319360112610177576004359067ffffffffffffffff908183116101775736602384011215610177578260040135918211610177576024830192602436918460051b0101116101775760005b82811061082a57005b336000908152600780845260409091206001600160a01b039291908361085961085485898b611519565b6113fc565b1660005284526040600020549081156109535733600052845260406000208361088661085485898b611519565b16600052845260006040812055826108a261085484888a611519565b60405163a9059cbb60e01b8152336004820152602481018490529491869186916044918391600091165af180156102bd5761091e575b600193506108ea61085484888a611519565b16906040519081527f4a34429a0ef883c4301d5b40aa8ae85d4eb024946062f2c7ebd8320acedc831a853392a35b01610821565b8484813d831161094c575b61093381836113ba565b81010312610177576109466001946113dc565b506108d8565b503d610929565b505060019150610918565b34610177576000366003190112610177576020604051600080516020611d4b8339815191528152f35b34610177576080366003190112610177576109a0611295565b6109cc6109ab6112ab565b916109b46112c1565b6001600160a01b039260643592918491908684611a47565b1692604051633850c7bd60e01b815260e081600481885afa80156102bd578291600091610a66575b5081610a019116806113e9565b951691161015610a2857604092610a17916113e9565b60c01c905b82519182526020820152f35b8060c01b90808204600160c01b1490151715610a5057604092610a4a916114f9565b90610a1c565b634e487b7160e01b600052601160045260246000fd5b91505060e0813d60e011610af2575b81610a8260e093836113ba565b8101031261017757805182811681036101775760208201518060020b0361017757610aaf604083016114ea565b50610abc606083016114ea565b50610ac9608083016114ea565b5060a082015160ff8116036101775782610a0191610aea60c08395016113dc565b5091506109f4565b3d9150610a75565b346101775761016036600319011261017757610b14611295565b610b1c6112ab565b610b246112c1565b9162ffffff60643516606435036101775760803660c3190112610177576101443567ffffffffffffffff811161017757610b629036906004016112e5565b60c435926001600160a01b03841692918385036101775760e43592610b88841515611410565b604051610b9481611358565b308152602081018581526e22d473030f116ddee9f6b43ac78ba390813b156101775760405163187945bd60e11b81526004810189905260248101889052610104803560448301526101248035606484015294516001600160a01b03166084830152915160a48201523360c482015261010060e4820152908101859052936000938593849286928491908190848401378181018301849052601f01601f191681010301925af180156102bd57610e5a575b50610c4f8285611b00565b92610cb260406001600160601b0360a01b95610c7660099a85898d5416178c55868a611a47565b6001600160a01b03861694909411938415610e3f576401000276a4915b60008451809681958294630251596160e31b84528a3060048601611460565b03926001600160a01b03165af19182156102bd57610d4892604092600090600092610e1f575b508a5488169215610e0f5750610ced90611499565b905b6001600160a01b038516178955610d096064358986611a47565b6001600160a01b03898116951694909410938415610df4576401000276a4915b60008451809681958294630251596160e31b84528a3360048601611460565b03926001600160a01b03165af19182156102bd576020977f918e92f54688c51950885ac1066129bb8ecc6bff902c9746495c1074fcfbf87f95600093600095610dcd575b50815416905515610dbd5750610da190611499565b935b610db16084358610156114aa565b6105d060a43533611cd7565b610dc79150611499565b93610da3565b909450610dea91935060403d6040116106435761063181836113ba565b929092938a610d8c565b73fffd8963efd1fc6a506488495d951d5263988d2591610d29565b610e199150611499565b90610cef565b9050610e389150833d85116106435761063181836113ba565b908b610cd8565b73fffd8963efd1fc6a506488495d951d5263988d2591610c93565b610e639061138a565b86610c44565b34610177576000366003190112610177576006546040516001600160a01b039091168152602090f35b34610177576060366003190112610177576020610ec6610eb0611295565b610eb86112ab565b610ec06112c1565b91611a47565b6040516001600160a01b039091168152f35b34610177576000366003190112610177576020600554604051908152f35b34610177576060366003190112610177573660641161017757610f2460018060a01b03600054163314611313565b600460005b60038110610f58577ffe891c6ab12cf73707f8deb6600c12ba382e4cc31eb2b0a2754cad13075ed2d1600080a1005b6001906020610f66846113fc565b9301928183015501610f29565b34610177576000366003190112610177576020600454604051908152f35b3461017757602036600319011261017757610faa611295565b6000546001600160a01b039190610fc49083163314611313565b166001600160601b0360a01b60065416176006557ffe891c6ab12cf73707f8deb6600c12ba382e4cc31eb2b0a2754cad13075ed2d1600080a1005b346101775760208060031936011261017757611019611295565b3360009081526007835260408082206001600160a01b0390931680835292845290205490918115611115573360008181526007835260408082208683528452808220919091555163a9059cbb60e01b8152600481019190915260248101839052908082806044810103816000885af180156102bd576110c1575b7f4a34429a0ef883c4301d5b40aa8ae85d4eb024946062f2c7ebd8320acedc831a91506040519283523392a3005b8082813d831161110e575b6110d681836113ba565b81010312610177576111087f4a34429a0ef883c4301d5b40aa8ae85d4eb024946062f2c7ebd8320acedc831a926113dc565b50611093565b503d6110cc565b6064906040519062461bcd60e51b82526004820152601060248201526f4e6f7468696e6720746f20636c61696d60801b6044820152fd5b3461017757602036600319011261017757611165611295565b600054906001600160a01b039061117f3383851614611313565b16908115611197576001600160a01b03191617600055005b60405162461bcd60e51b81526020600482015260096024820152682d32b9379030b2323960b91b6044820152606490fd5b3461017757604036600319011261017757600435602435906111f560018060a01b03600054163314611313565b6103e8611202838361134b565b11611234576004556005557ffe891c6ab12cf73707f8deb6600c12ba382e4cc31eb2b0a2754cad13075ed2d1600080a1005b60405162461bcd60e51b815260206004820152600c60248201526b08ccaca40e8dede40d0d2ced60a31b6044820152606490fd5b346101775760003660031901126101775780737a5028bda40e7b173c278c5342087826455ea25a60209252f35b600435906001600160a01b038216820361017757565b602435906001600160a01b038216820361017757565b6044359062ffffff8216820361017757565b6024359062ffffff8216820361017757565b9181601f840112156101775782359167ffffffffffffffff8311610177576020838186019501011161017757565b1561131a57565b60405162461bcd60e51b81526020600482015260096024820152682737ba1037bbb732b960b91b6044820152606490fd5b91908201809211610a5057565b6040810190811067ffffffffffffffff82111761137457604052565b634e487b7160e01b600052604160045260246000fd5b67ffffffffffffffff811161137457604052565b6080810190811067ffffffffffffffff82111761137457604052565b90601f8019910116810190811067ffffffffffffffff82111761137457604052565b5190811515820361017757565b81810292918115918404141715610a5057565b356001600160a01b03811681036101775790565b1561141757565b60405162461bcd60e51b815260206004820152600b60248201526a16995c9bc8185b5bdd5b9d60aa1b6044820152606490fd5b9190826040910312610177576020825192015190565b6001600160a01b039182168152911515602083015260408201929092529116606082015260a06080820181905260009082015260c00190565b600160ff1b8114610a505760000390565b156114b157565b60405162461bcd60e51b8152602060048201526011602482015270546f6f206d75636820736c69707061676560781b6044820152606490fd5b519061ffff8216820361017757565b8115611503570490565b634e487b7160e01b600052601260045260246000fd5b91908110156115295760051b0190565b634e487b7160e01b600052603260045260246000fd5b6001600160a01b038116600081815260086020526040902054909390918215611a1857846000526008602052600060408120557317392e5483983945deb92e0518a8f2c4eb6ba59d851461192d576116ce600094604092876001600160601b0360a01b6009541617600955732cfc85d8e48f8eab294be644d9e25c30308630038810871461190d579062ffffff732cfc85d8e48f8eab294be644d9e25c3030863003915b85516001600160a01b039485166020820190815294909316838701521660608083019190915281526116148161139e565b519020825190602082019060ff60f81b8252733d28145ed2073d8b9e13c629a1043c1322af512d60611b60218401526035830152600080516020611d4b8339815191526055830152605582526116698261139e565b905190206001600160a01b0316732cfc85d8e48f8eab294be644d9e25c3030863003871086146118f3576401000276a45b8351968780948193630251596160e31b835289732cfc85d8e48f8eab294be644d9e25c30308630038d103060048601611460565b03925af180156102bd576000936000916118b6575b506009546001600160a01b0319169360409291732cfc85d8e48f8eab294be644d9e25c303086300391828810156118a6575061171e90611499565b945b17600955815162ffffff60208201927317392e5483983945deb92e0518a8f2c4eb6ba59d8452732cfc85d8e48f8eab294be644d9e25c303086300385840152166060820152606081526117728161139e565b519020815190602082019060ff60f81b8252733d28145ed2073d8b9e13c629a1043c1322af512d60611b60218401526035830152600080516020611d4b8339815191526055830152605582526117c78261139e565b90519020600080548351630251596160e31b81526001600160a01b03918216600482015260248101839052604481019690965273fffd8963efd1fc6a506488495d951d5263988d25606487015260a0608487015260a48601829052859260c49284929091165af19081156102bd5761187b6040927f626502ef77967d5c4531abad2a6f2a43b30f257e30cc352362d0eb2c61932a4894600091611888575b50600980546001600160a01b0319169055611499565b82519182526020820152a2565b61189f9150843d86116106435761063181836113ba565b5038611865565b6118b09150611499565b94611720565b732cfc85d8e48f8eab294be644d9e25c3030863003945060409291506118e890833d85116106435761063181836113ba565b9490949192506116e3565b73fffd8963efd1fc6a506488495d951d5263988d2561169a565b732cfc85d8e48f8eab294be644d9e25c30308630039162ffffff906115e3565b505060005460405163a9059cbb60e01b81526001600160a01b039091166004820152602481018290529091506020818060448101038160007317392e5483983945deb92e0518a8f2c4eb6ba59d5af180156102bd576119ba575b5060407f626502ef77967d5c4531abad2a6f2a43b30f257e30cc352362d0eb2c61932a48918151908082526020820152a2565b6020813d602011611a10575b816119d3602093836113ba565b81010312610177577f626502ef77967d5c4531abad2a6f2a43b30f257e30cc352362d0eb2c61932a4891611a086040926113dc565b509150611987565b3d91506119c6565b60405162461bcd60e51b81526020600482015260076024820152664e6f206665657360c81b6044820152606490fd5b6001600160a01b0392908284168482161015611ae85762ffffff9092915b846040519381602086019616865216604084015216606082015260608152611a8c8161139e565b519020604051602081019160ff60f81b8352733d28145ed2073d8b9e13c629a1043c1322af512d60611b60218301526035820152600080516020611d4b833981519152605582015260558152611ae18161139e565b5190201690565b9062ffffff90611a65565b91908203918211610a5057565b919061271060049181611b15600454836113e9565b0491611b23600554836113e9565b049282611b72575b5090611b4291611b47949584611b4a575b50611af3565b611af3565b90565b60018060a01b031660005260086020526040600020611b6a85825461134b565b905538611b3c565b600090815b60038110611c915750508015611c4d57611ba4611b9e611b9783866114f9565b92836113e9565b84611af3565b9060005b60038110611bfc57505090611b479495611b42939260018060a01b03806001541660005260076020526040600020908316600052602052611bef604060002091825461134b565b90555b9594509091611b2b565b6001818101549091906001600160a01b0390811680611c1e575b505001611ba8565b6000526020906007825260409182600020918c1660005252600020611c4484825461134b565b90553880611c16565b5090611b4291611b47949560018060a01b038060005416600052600760205260406000209082166000526020526040600020611c8a84825461134b565b9055611bf2565b6001818101546001600160a01b0316611cae575b50600101611b77565b90926000198114611cc25701916001611ca5565b601183634e487b7160e01b6000525260246000fd5b6006546001600160a01b03169182151580611d41575b611cf657505050565b823b1561017757604051630968013560e01b81526001600160a01b039290921660048301526024820152906000908290604490829084905af1611d365750565b611d3f9061138a565b565b50801515611ced56fee34f199b19b2b4f47f68442619d555527d244f78a3297ea89325f843f87b8b54a2646970667358221220671c331a45388a5d26ef4cb6bd9d793b10b09d8b0d6791414a4bfa3b85654d0664736f6c63430008180033","opcodes":"PUSH1 0x80 CALLVALUE PUSH3 0xF9 JUMPI PUSH1 0x1 PUSH1 0x1 PUSH1 0x40 SHL SUB SWAP1 PUSH3 0x1EB5 CODESIZE DUP2 SWAP1 SUB SWAP1 PUSH1 0x1F DUP3 ADD PUSH1 0x1F NOT AND DUP4 ADD SWAP1 DUP5 DUP3 GT DUP5 DUP4 LT OR PUSH3 0xFE JUMPI DUP3 SWAP2 PUSH1 0x40 MSTORE DUP4 CODECOPY DUP2 ADD PUSH1 0x60 DUP3 DUP3 SUB SLT PUSH3 0xF9 JUMPI DUP1 PUSH1 0x1F DUP4 ADD SLT ISZERO PUSH3 0xF9 JUMPI PUSH1 0x40 MLOAD SWAP3 PUSH1 0x60 DUP5 ADD SWAP1 DUP2 GT DUP5 DUP3 LT OR PUSH3 0xFE JUMPI PUSH1 0x40 MSTORE DUP3 SWAP2 PUSH1 0x60 DUP2 ADD SWAP2 DUP3 GT PUSH3 0xF9 JUMPI SWAP2 JUMPDEST DUP2 DUP4 LT PUSH3 0xD7 JUMPI PUSH1 0xC8 PUSH1 0x4 SSTORE PUSH1 0xA PUSH1 0x5 SSTORE PUSH1 0x0 DUP1 SLOAD PUSH1 0x1 PUSH1 0x1 PUSH1 0xA0 SHL SUB NOT AND CALLER OR DUP2 SSTORE DUP5 SWAP1 JUMPDEST PUSH1 0x3 DUP2 LT PUSH3 0xB7 JUMPI PUSH1 0x40 MLOAD PUSH2 0x1DA0 SWAP1 DUP2 PUSH3 0x115 DUP3 CODECOPY RETURN JUMPDEST DUP2 MLOAD PUSH1 0x1 PUSH1 0x1 PUSH1 0xA0 SHL SUB AND PUSH1 0x1 SWAP2 SWAP1 SWAP2 ADD SWAP1 DUP2 SSTORE PUSH1 0x20 SWAP1 SWAP2 ADD SWAP1 PUSH3 0x9E JUMP JUMPDEST DUP3 MLOAD PUSH1 0x1 PUSH1 0x1 PUSH1 0xA0 SHL SUB DUP2 AND DUP2 SUB PUSH3 0xF9 JUMPI DUP2 MSTORE PUSH1 0x20 SWAP3 DUP4 ADD SWAP3 ADD PUSH3 0x77 JUMP JUMPDEST PUSH1 0x0 DUP1 REVERT JUMPDEST PUSH4 0x4E487B71 PUSH1 0xE0 SHL PUSH1 0x0 MSTORE PUSH1 0x41 PUSH1 0x4 MSTORE PUSH1 0x24 PUSH1 0x0 REVERT INVALID PUSH1 0x80 DUP1 PUSH1 0x40 MSTORE PUSH1 0x4 CALLDATASIZE LT ISZERO PUSH2 0x13 JUMPI PUSH1 0x0 DUP1 REVERT JUMPDEST PUSH1 0x0 CALLDATALOAD PUSH1 0xE0 SHR SWAP1 DUP2 PUSH4 0x8BD1A85 EQ PUSH2 0x1268 JUMPI POP DUP1 PUSH4 0xB78F9C0 EQ PUSH2 0x11C8 JUMPI DUP1 PUSH4 0x13AF4035 EQ PUSH2 0x114C JUMPI DUP1 PUSH4 0x15A0EA6A EQ PUSH2 0xFFF JUMPI DUP1 PUSH4 0x24B4FD79 EQ PUSH2 0xF91 JUMPI DUP1 PUSH4 0x2FFDAF89 EQ PUSH2 0xF73 JUMPI DUP1 PUSH4 0x501015BF EQ PUSH2 0xEF6 JUMPI DUP1 PUSH4 0x50D5E40E EQ PUSH2 0xED8 JUMPI DUP1 PUSH4 0x696D6283 EQ PUSH2 0xE92 JUMPI DUP1 PUSH4 0x705BD452 EQ PUSH2 0xE69 JUMPI DUP1 PUSH4 0x71255EA0 EQ PUSH2 0xAFA JUMPI DUP1 PUSH4 0x795E2C4D EQ PUSH2 0x987 JUMPI DUP1 PUSH4 0x7E9602FC EQ PUSH2 0x95E JUMPI DUP1 PUSH4 0x82F3AE79 EQ PUSH2 0x7CC JUMPI DUP1 PUSH4 0x8543F9CA EQ PUSH2 0x796 JUMPI DUP1 PUSH4 0x89A30271 EQ PUSH2 0x767 JUMPI DUP1 PUSH4 0x8DA5CB5B EQ PUSH2 0x73E JUMPI DUP1 PUSH4 0x904C1853 EQ PUSH2 0x6F7 JUMPI DUP1 PUSH4 0x95CCEA67 EQ PUSH2 0x676 JUMPI DUP1 PUSH4 0xCA19C851 EQ PUSH2 0x3C9 JUMPI DUP1 PUSH4 0xD55BE8C6 EQ PUSH2 0x3AC JUMPI DUP1 PUSH4 0xDE061D66 EQ PUSH2 0x37D JUMPI DUP1 PUSH4 0xF1B2A7E7 EQ PUSH2 0x343 JUMPI DUP1 PUSH4 0xFA461E33 EQ PUSH2 0x1F7 JUMPI DUP1 PUSH4 0xFC8A2B0A EQ PUSH2 0x1A6 JUMPI DUP1 PUSH4 0xFDCF0955 EQ PUSH2 0x17C JUMPI PUSH4 0xFEAA524D EQ PUSH2 0x148 JUMPI PUSH1 0x0 DUP1 REVERT JUMPDEST CALLVALUE PUSH2 0x177 JUMPI PUSH1 0x0 CALLDATASIZE PUSH1 0x3 NOT ADD SLT PUSH2 0x177 JUMPI PUSH1 0x20 PUSH1 0x40 MLOAD PUSH20 0x17392E5483983945DEB92E0518A8F2C4EB6BA59D DUP2 MSTORE RETURN JUMPDEST PUSH1 0x0 DUP1 REVERT JUMPDEST CALLVALUE PUSH2 0x177 JUMPI PUSH1 0x0 CALLDATASIZE PUSH1 0x3 NOT ADD SLT PUSH2 0x177 JUMPI PUSH1 0x20 PUSH1 0x40 MLOAD PUSH15 0x22D473030F116DDEE9F6B43AC78BA3 DUP2 MSTORE RETURN JUMPDEST CALLVALUE PUSH2 0x177 JUMPI PUSH1 0x40 CALLDATASIZE PUSH1 0x3 NOT ADD SLT PUSH2 0x177 JUMPI PUSH2 0x1BF PUSH2 0x1295 JUMP JUMPDEST PUSH2 0x1C7 PUSH2 0x12AB JUMP JUMPDEST SWAP1 PUSH1 0x1 DUP1 PUSH1 0xA0 SHL SUB DUP1 SWAP2 AND PUSH1 0x0 MSTORE PUSH1 0x7 PUSH1 0x20 MSTORE PUSH1 0x40 PUSH1 0x0 KECCAK256 SWAP2 AND PUSH1 0x0 MSTORE PUSH1 0x20 MSTORE PUSH1 0x20 PUSH1 0x40 PUSH1 0x0 KECCAK256 SLOAD PUSH1 0x40 MLOAD SWAP1 DUP2 MSTORE RETURN JUMPDEST CALLVALUE PUSH2 0x177 JUMPI PUSH1 0x60 CALLDATASIZE PUSH1 0x3 NOT ADD SLT PUSH2 0x177 JUMPI PUSH1 0x4 CALLDATALOAD PUSH1 0x24 CALLDATALOAD PUSH1 0x44 CALLDATALOAD PUSH8 0xFFFFFFFFFFFFFFFF DUP2 GT PUSH2 0x177 JUMPI PUSH2 0x22E SWAP1 CALLDATASIZE SWAP1 PUSH1 0x4 ADD PUSH2 0x12E5 JUMP JUMPDEST POP POP PUSH1 0x9 SLOAD PUSH1 0x1 PUSH1 0x1 PUSH1 0xA0 SHL SUB SWAP2 SWAP1 DUP3 AND DUP1 ISZERO PUSH2 0x30D JUMPI PUSH1 0x0 DUP5 SGT ISZERO PUSH2 0x2C9 JUMPI POP POP PUSH1 0x9 SLOAD PUSH1 0x40 MLOAD PUSH4 0xA9059CBB PUSH1 0xE0 SHL DUP2 MSTORE CALLER PUSH1 0x4 DUP3 ADD MSTORE PUSH1 0x24 DUP2 ADD SWAP4 SWAP1 SWAP4 MSTORE PUSH1 0x20 SWAP2 DUP4 SWAP2 PUSH1 0x44 SWAP2 DUP4 SWAP2 PUSH1 0x0 SWAP2 AND GAS CALL DUP1 ISZERO PUSH2 0x2BD JUMPI PUSH2 0x28B JUMPI JUMPDEST STOP JUMPDEST PUSH1 0x20 DUP2 RETURNDATASIZE PUSH1 0x20 GT PUSH2 0x2B5 JUMPI JUMPDEST DUP2 PUSH2 0x2A4 PUSH1 0x20 SWAP4 DUP4 PUSH2 0x13BA JUMP JUMPDEST DUP2 ADD SUB SLT PUSH2 0x177 JUMPI PUSH2 0x289 SWAP1 PUSH2 0x13DC JUMP JUMPDEST RETURNDATASIZE SWAP2 POP PUSH2 0x297 JUMP JUMPDEST PUSH1 0x40 MLOAD RETURNDATASIZE PUSH1 0x0 DUP3 RETURNDATACOPY RETURNDATASIZE SWAP1 REVERT JUMPDEST SWAP2 POP SWAP2 POP PUSH1 0x0 DUP3 SGT PUSH2 0x2D7 JUMPI STOP JUMPDEST PUSH1 0x40 MLOAD PUSH4 0xA9059CBB PUSH1 0xE0 SHL DUP2 MSTORE CALLER PUSH1 0x4 DUP3 ADD MSTORE PUSH1 0x24 DUP2 ADD SWAP3 SWAP1 SWAP3 MSTORE PUSH1 0x20 SWAP1 DUP3 SWAP1 PUSH1 0x44 SWAP1 DUP3 SWAP1 PUSH1 0x0 SWAP1 GAS CALL DUP1 ISZERO PUSH2 0x2BD JUMPI PUSH2 0x28B JUMPI STOP JUMPDEST PUSH1 0x40 MLOAD PUSH3 0x461BCD PUSH1 0xE5 SHL DUP2 MSTORE PUSH1 0x20 PUSH1 0x4 DUP3 ADD MSTORE PUSH1 0xE PUSH1 0x24 DUP3 ADD MSTORE PUSH14 0x4E6F20616374697665207377617 PUSH1 0x94 SHL PUSH1 0x44 DUP3 ADD MSTORE PUSH1 0x64 SWAP1 REVERT JUMPDEST CALLVALUE PUSH2 0x177 JUMPI PUSH1 0x20 CALLDATASIZE PUSH1 0x3 NOT ADD SLT PUSH2 0x177 JUMPI PUSH1 0x1 PUSH1 0x1 PUSH1 0xA0 SHL SUB PUSH2 0x364 PUSH2 0x1295 JUMP JUMPDEST AND PUSH1 0x0 MSTORE PUSH1 0x8 PUSH1 0x20 MSTORE PUSH1 0x20 PUSH1 0x40 PUSH1 0x0 KECCAK256 SLOAD PUSH1 0x40 MLOAD SWAP1 DUP2 MSTORE RETURN JUMPDEST CALLVALUE PUSH2 0x177 JUMPI PUSH1 0x0 CALLDATASIZE PUSH1 0x3 NOT ADD SLT PUSH2 0x177 JUMPI PUSH1 0x20 PUSH1 0x40 MLOAD PUSH20 0x2CFC85D8E48F8EAB294BE644D9E25C3030863003 DUP2 MSTORE RETURN JUMPDEST CALLVALUE PUSH2 0x177 JUMPI PUSH1 0x0 CALLDATASIZE PUSH1 0x3 NOT ADD SLT PUSH2 0x177 JUMPI PUSH1 0x20 PUSH1 0x40 MLOAD PUSH2 0x3E8 DUP2 MSTORE RETURN JUMPDEST CALLVALUE PUSH2 0x177 JUMPI PUSH2 0x120 CALLDATASIZE PUSH1 0x3 NOT ADD SLT PUSH2 0x177 JUMPI PUSH2 0x3E3 PUSH2 0x1295 JUMP JUMPDEST PUSH2 0x3EB PUSH2 0x12D3 JUMP JUMPDEST SWAP1 PUSH1 0x80 CALLDATASIZE PUSH1 0x83 NOT ADD SLT PUSH2 0x177 JUMPI PUSH2 0x104 SWAP2 DUP3 CALLDATALOAD PUSH8 0xFFFFFFFFFFFFFFFF DUP2 GT PUSH2 0x177 JUMPI PUSH2 0x41B SWAP1 CALLDATASIZE SWAP1 PUSH1 0x4 ADD PUSH2 0x12E5 JUMP JUMPDEST PUSH1 0x1 PUSH1 0x1 PUSH1 0xA0 SHL SUB PUSH1 0x84 CALLDATALOAD DUP2 DUP2 AND SWAP7 SWAP1 SWAP5 SWAP4 SWAP1 DUP8 DUP7 SUB PUSH2 0x177 JUMPI PUSH1 0xA4 CALLDATALOAD SWAP4 PUSH2 0x444 DUP6 ISZERO ISZERO PUSH2 0x1410 JUMP JUMPDEST PUSH1 0x40 MLOAD SWAP1 PUSH2 0x451 DUP3 PUSH2 0x1358 JUMP JUMPDEST ADDRESS DUP3 MSTORE PUSH1 0x20 DUP3 ADD SWAP1 DUP7 DUP3 MSTORE PUSH15 0x22D473030F116DDEE9F6B43AC78BA3 SWAP2 DUP3 EXTCODESIZE ISZERO PUSH2 0x177 JUMPI DUP7 SWAP6 DUP13 DUP4 DUP11 SWAP5 PUSH1 0x0 SWAP9 DUP10 SWAP6 PUSH1 0x40 MLOAD SWAP13 DUP14 SWAP11 DUP12 SWAP10 DUP11 SWAP8 PUSH4 0x187945BD PUSH1 0xE1 SHL DUP10 MSTORE PUSH1 0x4 DUP10 ADD MSTORE PUSH1 0x24 DUP9 ADD MSTORE PUSH1 0xC4 CALLDATALOAD PUSH1 0x44 DUP9 ADD MSTORE PUSH1 0xE4 CALLDATALOAD PUSH1 0x64 DUP9 ADD MSTORE MLOAD AND PUSH1 0x84 DUP7 ADD MSTORE MLOAD PUSH1 0xA4 DUP6 ADD MSTORE CALLER PUSH1 0xC4 DUP6 ADD MSTORE PUSH2 0x100 PUSH1 0xE4 DUP6 ADD MSTORE DUP4 ADD MSTORE DUP1 PUSH2 0x124 SWAP4 DUP5 DUP5 ADD CALLDATACOPY DUP2 DUP2 ADD DUP4 ADD DUP5 SWAP1 MSTORE PUSH1 0x1F ADD PUSH1 0x1F NOT AND DUP2 ADD SUB ADD SWAP3 GAS CALL SWAP1 DUP2 ISZERO PUSH2 0x2BD JUMPI PUSH2 0x55F SWAP3 PUSH1 0x40 SWAP3 PUSH2 0x667 JUMPI JUMPDEST POP PUSH2 0x508 DUP5 DUP8 PUSH2 0x1B00 JUMP JUMPDEST SWAP8 PUSH2 0x529 PUSH1 0x1 PUSH1 0x1 PUSH1 0x60 SHL SUB PUSH1 0xA0 SHL SWAP7 DUP3 DUP9 PUSH1 0x9 SLOAD AND OR PUSH1 0x9 SSTORE DUP10 DUP10 PUSH2 0x1A47 JUMP JUMPDEST SWAP1 DUP3 DUP10 AND GT SWAP9 DUP10 PUSH1 0x0 EQ PUSH2 0x64A JUMPI PUSH1 0x0 PUSH5 0x1000276A4 SWAP4 JUMPDEST DUP12 DUP7 MLOAD SWAP8 DUP9 SWAP7 DUP8 SWAP6 DUP7 SWAP4 PUSH4 0x2515961 PUSH1 0xE3 SHL DUP6 MSTORE CALLER PUSH1 0x4 DUP7 ADD PUSH2 0x1460 JUMP JUMPDEST SUB SWAP4 AND GAS CALL SWAP1 DUP2 ISZERO PUSH2 0x2BD JUMPI PUSH1 0x20 SWAP7 PUSH32 0x918E92F54688C51950885AC1066129BB8ECC6BFF902C9746495C1074FCFBF87F SWAP5 PUSH1 0x0 SWAP3 PUSH1 0x0 SWAP5 PUSH2 0x613 JUMPI JUMPDEST POP PUSH1 0x9 SLOAD AND PUSH1 0x9 SSTORE PUSH1 0x0 EQ PUSH2 0x603 JUMPI POP PUSH2 0x5B4 SWAP1 PUSH2 0x1499 JUMP JUMPDEST SWAP4 JUMPDEST PUSH2 0x5C4 PUSH1 0x44 CALLDATALOAD DUP7 LT ISZERO PUSH2 0x14AA JUMP JUMPDEST PUSH2 0x5D0 PUSH1 0x64 CALLDATALOAD CALLER PUSH2 0x1CD7 JUMP JUMPDEST PUSH1 0x40 DUP1 MLOAD PUSH1 0x1 PUSH1 0x1 PUSH1 0xA0 SHL SUB SWAP6 DUP7 AND DUP2 MSTORE SWAP2 SWAP1 SWAP5 AND PUSH1 0x20 DUP3 ADD MSTORE SWAP3 DUP4 ADD MSTORE PUSH1 0x60 DUP3 ADD DUP4 SWAP1 MSTORE CALLER SWAP2 PUSH1 0x80 SWAP1 LOG2 PUSH1 0x40 MLOAD SWAP1 DUP2 MSTORE RETURN JUMPDEST PUSH2 0x60D SWAP2 POP PUSH2 0x1499 JUMP JUMPDEST SWAP4 PUSH2 0x5B6 JUMP JUMPDEST SWAP1 SWAP4 POP PUSH2 0x639 SWAP2 SWAP3 POP PUSH1 0x40 RETURNDATASIZE PUSH1 0x40 GT PUSH2 0x643 JUMPI JUMPDEST PUSH2 0x631 DUP2 DUP4 PUSH2 0x13BA JUMP JUMPDEST DUP2 ADD SWAP1 PUSH2 0x144A JUMP JUMPDEST SWAP2 SWAP1 SWAP2 SWAP3 DUP10 PUSH2 0x59B JUMP JUMPDEST POP RETURNDATASIZE PUSH2 0x627 JUMP JUMPDEST PUSH1 0x0 PUSH20 0xFFFD8963EFD1FC6A506488495D951D5263988D25 SWAP4 PUSH2 0x541 JUMP JUMPDEST PUSH2 0x670 SWAP1 PUSH2 0x138A JUMP JUMPDEST DUP9 PUSH2 0x4FD JUMP JUMPDEST CALLVALUE PUSH2 0x177 JUMPI PUSH1 0x40 CALLDATASIZE PUSH1 0x3 NOT ADD SLT PUSH2 0x177 JUMPI PUSH2 0x68F PUSH2 0x1295 JUMP JUMPDEST PUSH1 0x0 SLOAD PUSH1 0x1 PUSH1 0x1 PUSH1 0xA0 SHL SUB SWAP2 PUSH1 0x20 SWAP2 PUSH2 0x6E6 SWAP2 SWAP1 DUP5 AND PUSH2 0x6B0 CALLER DUP3 EQ PUSH2 0x1313 JUMP JUMPDEST PUSH1 0x40 MLOAD PUSH4 0xA9059CBB PUSH1 0xE0 SHL DUP2 MSTORE PUSH1 0x1 PUSH1 0x1 PUSH1 0xA0 SHL SUB SWAP1 SWAP2 AND PUSH1 0x4 DUP3 ADD MSTORE PUSH1 0x24 DUP1 CALLDATALOAD SWAP1 DUP3 ADD MSTORE SWAP4 DUP5 SWAP3 DUP4 SWAP2 PUSH1 0x0 SWAP2 DUP4 SWAP1 PUSH1 0x44 DUP3 ADD SWAP1 JUMP JUMPDEST SUB SWAP4 AND GAS CALL DUP1 ISZERO PUSH2 0x2BD JUMPI PUSH2 0x28B JUMPI STOP JUMPDEST CALLVALUE PUSH2 0x177 JUMPI PUSH1 0x60 CALLDATASIZE PUSH1 0x3 NOT ADD SLT PUSH2 0x177 JUMPI PUSH2 0x289 PUSH2 0x713 PUSH2 0x1295 JUMP JUMPDEST PUSH2 0x71B PUSH2 0x12D3 JUMP JUMPDEST PUSH2 0x723 PUSH2 0x12C1 JUMP JUMPDEST SWAP2 PUSH2 0x739 PUSH1 0x1 DUP1 PUSH1 0xA0 SHL SUB PUSH1 0x0 SLOAD AND CALLER EQ PUSH2 0x1313 JUMP JUMPDEST PUSH2 0x153F JUMP JUMPDEST CALLVALUE PUSH2 0x177 JUMPI PUSH1 0x0 CALLDATASIZE PUSH1 0x3 NOT ADD SLT PUSH2 0x177 JUMPI PUSH1 0x0 SLOAD PUSH1 0x40 MLOAD PUSH1 0x1 PUSH1 0x1 PUSH1 0xA0 SHL SUB SWAP1 SWAP2 AND DUP2 MSTORE PUSH1 0x20 SWAP1 RETURN JUMPDEST CALLVALUE PUSH2 0x177 JUMPI PUSH1 0x0 CALLDATASIZE PUSH1 0x3 NOT ADD SLT PUSH2 0x177 JUMPI PUSH1 0x20 PUSH1 0x40 MLOAD PUSH20 0x79A02482A880BCE3F13E09DA970DC34DB4CD24D1 DUP2 MSTORE RETURN JUMPDEST CALLVALUE PUSH2 0x177 JUMPI PUSH1 0x20 CALLDATASIZE PUSH1 0x3 NOT ADD SLT PUSH2 0x177 JUMPI PUSH1 0x4 CALLDATALOAD PUSH1 0x3 DUP2 LT ISZERO PUSH2 0x177 JUMPI PUSH1 0x1 ADD SLOAD PUSH1 0x40 MLOAD PUSH1 0x1 PUSH1 0x1 PUSH1 0xA0 SHL SUB SWAP1 SWAP2 AND DUP2 MSTORE PUSH1 0x20 SWAP1 RETURN JUMPDEST CALLVALUE PUSH2 0x177 JUMPI PUSH1 0x20 DUP1 PUSH1 0x3 NOT CALLDATASIZE ADD SLT PUSH2 0x177 JUMPI PUSH1 0x4 CALLDATALOAD SWAP1 PUSH8 0xFFFFFFFFFFFFFFFF SWAP1 DUP2 DUP4 GT PUSH2 0x177 JUMPI CALLDATASIZE PUSH1 0x23 DUP5 ADD SLT ISZERO PUSH2 0x177 JUMPI DUP3 PUSH1 0x4 ADD CALLDATALOAD SWAP2 DUP3 GT PUSH2 0x177 JUMPI PUSH1 0x24 DUP4 ADD SWAP3 PUSH1 0x24 CALLDATASIZE SWAP2 DUP5 PUSH1 0x5 SHL ADD ADD GT PUSH2 0x177 JUMPI PUSH1 0x0 JUMPDEST DUP3 DUP2 LT PUSH2 0x82A JUMPI STOP JUMPDEST CALLER PUSH1 0x0 SWAP1 DUP2 MSTORE PUSH1 0x7 DUP1 DUP5 MSTORE PUSH1 0x40 SWAP1 SWAP2 KECCAK256 PUSH1 0x1 PUSH1 0x1 PUSH1 0xA0 SHL SUB SWAP3 SWAP2 SWAP1 DUP4 PUSH2 0x859 PUSH2 0x854 DUP6 DUP10 DUP12 PUSH2 0x1519 JUMP JUMPDEST PUSH2 0x13FC JUMP JUMPDEST AND PUSH1 0x0 MSTORE DUP5 MSTORE PUSH1 0x40 PUSH1 0x0 KECCAK256 SLOAD SWAP1 DUP2 ISZERO PUSH2 0x953 JUMPI CALLER PUSH1 0x0 MSTORE DUP5 MSTORE PUSH1 0x40 PUSH1 0x0 KECCAK256 DUP4 PUSH2 0x886 PUSH2 0x854 DUP6 DUP10 DUP12 PUSH2 0x1519 JUMP JUMPDEST AND PUSH1 0x0 MSTORE DUP5 MSTORE PUSH1 0x0 PUSH1 0x40 DUP2 KECCAK256 SSTORE DUP3 PUSH2 0x8A2 PUSH2 0x854 DUP5 DUP9 DUP11 PUSH2 0x1519 JUMP JUMPDEST PUSH1 0x40 MLOAD PUSH4 0xA9059CBB PUSH1 0xE0 SHL DUP2 MSTORE CALLER PUSH1 0x4 DUP3 ADD MSTORE PUSH1 0x24 DUP2 ADD DUP5 SWAP1 MSTORE SWAP5 SWAP2 DUP7 SWAP2 DUP7 SWAP2 PUSH1 0x44 SWAP2 DUP4 SWAP2 PUSH1 0x0 SWAP2 AND GAS CALL DUP1 ISZERO PUSH2 0x2BD JUMPI PUSH2 0x91E JUMPI JUMPDEST PUSH1 0x1 SWAP4 POP PUSH2 0x8EA PUSH2 0x854 DUP5 DUP9 DUP11 PUSH2 0x1519 JUMP JUMPDEST AND SWAP1 PUSH1 0x40 MLOAD SWAP1 DUP2 MSTORE PUSH32 0x4A34429A0EF883C4301D5B40AA8AE85D4EB024946062F2C7EBD8320ACEDC831A DUP6 CALLER SWAP3 LOG3 JUMPDEST ADD PUSH2 0x821 JUMP JUMPDEST DUP5 DUP5 DUP2 RETURNDATASIZE DUP4 GT PUSH2 0x94C JUMPI JUMPDEST PUSH2 0x933 DUP2 DUP4 PUSH2 0x13BA JUMP JUMPDEST DUP2 ADD SUB SLT PUSH2 0x177 JUMPI PUSH2 0x946 PUSH1 0x1 SWAP5 PUSH2 0x13DC JUMP JUMPDEST POP PUSH2 0x8D8 JUMP JUMPDEST POP RETURNDATASIZE PUSH2 0x929 JUMP JUMPDEST POP POP PUSH1 0x1 SWAP2 POP PUSH2 0x918 JUMP JUMPDEST CALLVALUE PUSH2 0x177 JUMPI PUSH1 0x0 CALLDATASIZE PUSH1 0x3 NOT ADD SLT PUSH2 0x177 JUMPI PUSH1 0x20 PUSH1 0x40 MLOAD PUSH1 0x0 DUP1 MLOAD PUSH1 0x20 PUSH2 0x1D4B DUP4 CODECOPY DUP2 MLOAD SWAP2 MSTORE DUP2 MSTORE RETURN JUMPDEST CALLVALUE PUSH2 0x177 JUMPI PUSH1 0x80 CALLDATASIZE PUSH1 0x3 NOT ADD SLT PUSH2 0x177 JUMPI PUSH2 0x9A0 PUSH2 0x1295 JUMP JUMPDEST PUSH2 0x9CC PUSH2 0x9AB PUSH2 0x12AB JUMP JUMPDEST SWAP2 PUSH2 0x9B4 PUSH2 0x12C1 JUMP JUMPDEST PUSH1 0x1 PUSH1 0x1 PUSH1 0xA0 SHL SUB SWAP3 PUSH1 0x64 CALLDATALOAD SWAP3 SWAP2 DUP5 SWAP2 SWAP1 DUP7 DUP5 PUSH2 0x1A47 JUMP JUMPDEST AND SWAP3 PUSH1 0x40 MLOAD PUSH4 0x3850C7BD PUSH1 0xE0 SHL DUP2 MSTORE PUSH1 0xE0 DUP2 PUSH1 0x4 DUP2 DUP9 GAS STATICCALL DUP1 ISZERO PUSH2 0x2BD JUMPI DUP3 SWAP2 PUSH1 0x0 SWAP2 PUSH2 0xA66 JUMPI JUMPDEST POP DUP2 PUSH2 0xA01 SWAP2 AND DUP1 PUSH2 0x13E9 JUMP JUMPDEST SWAP6 AND SWAP2 AND LT ISZERO PUSH2 0xA28 JUMPI PUSH1 0x40 SWAP3 PUSH2 0xA17 SWAP2 PUSH2 0x13E9 JUMP JUMPDEST PUSH1 0xC0 SHR SWAP1 JUMPDEST DUP3 MLOAD SWAP2 DUP3 MSTORE PUSH1 0x20 DUP3 ADD MSTORE RETURN JUMPDEST DUP1 PUSH1 0xC0 SHL SWAP1 DUP1 DUP3 DIV PUSH1 0x1 PUSH1 0xC0 SHL EQ SWAP1 ISZERO OR ISZERO PUSH2 0xA50 JUMPI PUSH1 0x40 SWAP3 PUSH2 0xA4A SWAP2 PUSH2 0x14F9 JUMP JUMPDEST SWAP1 PUSH2 0xA1C JUMP JUMPDEST PUSH4 0x4E487B71 PUSH1 0xE0 SHL PUSH1 0x0 MSTORE PUSH1 0x11 PUSH1 0x4 MSTORE PUSH1 0x24 PUSH1 0x0 REVERT JUMPDEST SWAP2 POP POP PUSH1 0xE0 DUP2 RETURNDATASIZE PUSH1 0xE0 GT PUSH2 0xAF2 JUMPI JUMPDEST DUP2 PUSH2 0xA82 PUSH1 0xE0 SWAP4 DUP4 PUSH2 0x13BA JUMP JUMPDEST DUP2 ADD SUB SLT PUSH2 0x177 JUMPI DUP1 MLOAD DUP3 DUP2 AND DUP2 SUB PUSH2 0x177 JUMPI PUSH1 0x20 DUP3 ADD MLOAD DUP1 PUSH1 0x2 SIGNEXTEND SUB PUSH2 0x177 JUMPI PUSH2 0xAAF PUSH1 0x40 DUP4 ADD PUSH2 0x14EA JUMP JUMPDEST POP PUSH2 0xABC PUSH1 0x60 DUP4 ADD PUSH2 0x14EA JUMP JUMPDEST POP PUSH2 0xAC9 PUSH1 0x80 DUP4 ADD PUSH2 0x14EA JUMP JUMPDEST POP PUSH1 0xA0 DUP3 ADD MLOAD PUSH1 0xFF DUP2 AND SUB PUSH2 0x177 JUMPI DUP3 PUSH2 0xA01 SWAP2 PUSH2 0xAEA PUSH1 0xC0 DUP4 SWAP6 ADD PUSH2 0x13DC JUMP JUMPDEST POP SWAP2 POP PUSH2 0x9F4 JUMP JUMPDEST RETURNDATASIZE SWAP2 POP PUSH2 0xA75 JUMP JUMPDEST CALLVALUE PUSH2 0x177 JUMPI PUSH2 0x160 CALLDATASIZE PUSH1 0x3 NOT ADD SLT PUSH2 0x177 JUMPI PUSH2 0xB14 PUSH2 0x1295 JUMP JUMPDEST PUSH2 0xB1C PUSH2 0x12AB JUMP JUMPDEST PUSH2 0xB24 PUSH2 0x12C1 JUMP JUMPDEST SWAP2 PUSH3 0xFFFFFF PUSH1 0x64 CALLDATALOAD AND PUSH1 0x64 CALLDATALOAD SUB PUSH2 0x177 JUMPI PUSH1 0x80 CALLDATASIZE PUSH1 0xC3 NOT ADD SLT PUSH2 0x177 JUMPI PUSH2 0x144 CALLDATALOAD PUSH8 0xFFFFFFFFFFFFFFFF DUP2 GT PUSH2 0x177 JUMPI PUSH2 0xB62 SWAP1 CALLDATASIZE SWAP1 PUSH1 0x4 ADD PUSH2 0x12E5 JUMP JUMPDEST PUSH1 0xC4 CALLDATALOAD SWAP3 PUSH1 0x1 PUSH1 0x1 PUSH1 0xA0 SHL SUB DUP5 AND SWAP3 SWAP2 DUP4 DUP6 SUB PUSH2 0x177 JUMPI PUSH1 0xE4 CALLDATALOAD SWAP3 PUSH2 0xB88 DUP5 ISZERO ISZERO PUSH2 0x1410 JUMP JUMPDEST PUSH1 0x40 MLOAD PUSH2 0xB94 DUP2 PUSH2 0x1358 JUMP JUMPDEST ADDRESS DUP2 MSTORE PUSH1 0x20 DUP2 ADD DUP6 DUP2 MSTORE PUSH15 0x22D473030F116DDEE9F6B43AC78BA3 SWAP1 DUP2 EXTCODESIZE ISZERO PUSH2 0x177 JUMPI PUSH1 0x40 MLOAD PUSH4 0x187945BD PUSH1 0xE1 SHL DUP2 MSTORE PUSH1 0x4 DUP2 ADD DUP10 SWAP1 MSTORE PUSH1 0x24 DUP2 ADD DUP9 SWAP1 MSTORE PUSH2 0x104 DUP1 CALLDATALOAD PUSH1 0x44 DUP4 ADD MSTORE PUSH2 0x124 DUP1 CALLDATALOAD PUSH1 0x64 DUP5 ADD MSTORE SWAP5 MLOAD PUSH1 0x1 PUSH1 0x1 PUSH1 0xA0 SHL SUB AND PUSH1 0x84 DUP4 ADD MSTORE SWAP2 MLOAD PUSH1 0xA4 DUP3 ADD MSTORE CALLER PUSH1 0xC4 DUP3 ADD MSTORE PUSH2 0x100 PUSH1 0xE4 DUP3 ADD MSTORE SWAP1 DUP2 ADD DUP6 SWAP1 MSTORE SWAP4 PUSH1 0x0 SWAP4 DUP6 SWAP4 DUP5 SWAP3 DUP7 SWAP3 DUP5 SWAP2 SWAP1 DUP2 SWAP1 DUP5 DUP5 ADD CALLDATACOPY DUP2 DUP2 ADD DUP4 ADD DUP5 SWAP1 MSTORE PUSH1 0x1F ADD PUSH1 0x1F NOT AND DUP2 ADD SUB ADD SWAP3 GAS CALL DUP1 ISZERO PUSH2 0x2BD JUMPI PUSH2 0xE5A JUMPI JUMPDEST POP PUSH2 0xC4F DUP3 DUP6 PUSH2 0x1B00 JUMP JUMPDEST SWAP3 PUSH2 0xCB2 PUSH1 0x40 PUSH1 0x1 PUSH1 0x1 PUSH1 0x60 SHL SUB PUSH1 0xA0 SHL SWAP6 PUSH2 0xC76 PUSH1 0x9 SWAP11 DUP6 DUP10 DUP14 SLOAD AND OR DUP13 SSTORE DUP7 DUP11 PUSH2 0x1A47 JUMP JUMPDEST PUSH1 0x1 PUSH1 0x1 PUSH1 0xA0 SHL SUB DUP7 AND SWAP5 SWAP1 SWAP5 GT SWAP4 DUP5 ISZERO PUSH2 0xE3F JUMPI PUSH5 0x1000276A4 SWAP2 JUMPDEST PUSH1 0x0 DUP5 MLOAD DUP1 SWAP7 DUP2 SWAP6 DUP3 SWAP5 PUSH4 0x2515961 PUSH1 0xE3 SHL DUP5 MSTORE DUP11 ADDRESS PUSH1 0x4 DUP7 ADD PUSH2 0x1460 JUMP JUMPDEST SUB SWAP3 PUSH1 0x1 PUSH1 0x1 PUSH1 0xA0 SHL SUB AND GAS CALL SWAP2 DUP3 ISZERO PUSH2 0x2BD JUMPI PUSH2 0xD48 SWAP3 PUSH1 0x40 SWAP3 PUSH1 0x0 SWAP1 PUSH1 0x0 SWAP3 PUSH2 0xE1F JUMPI JUMPDEST POP DUP11 SLOAD DUP9 AND SWAP3 ISZERO PUSH2 0xE0F JUMPI POP PUSH2 0xCED SWAP1 PUSH2 0x1499 JUMP JUMPDEST SWAP1 JUMPDEST PUSH1 0x1 PUSH1 0x1 PUSH1 0xA0 SHL SUB DUP6 AND OR DUP10 SSTORE PUSH2 0xD09 PUSH1 0x64 CALLDATALOAD DUP10 DUP7 PUSH2 0x1A47 JUMP JUMPDEST PUSH1 0x1 PUSH1 0x1 PUSH1 0xA0 SHL SUB DUP10 DUP2 AND SWAP6 AND SWAP5 SWAP1 SWAP5 LT SWAP4 DUP5 ISZERO PUSH2 0xDF4 JUMPI PUSH5 0x1000276A4 SWAP2 JUMPDEST PUSH1 0x0 DUP5 MLOAD DUP1 SWAP7 DUP2 SWAP6 DUP3 SWAP5 PUSH4 0x2515961 PUSH1 0xE3 SHL DUP5 MSTORE DUP11 CALLER PUSH1 0x4 DUP7 ADD PUSH2 0x1460 JUMP JUMPDEST SUB SWAP3 PUSH1 0x1 PUSH1 0x1 PUSH1 0xA0 SHL SUB AND GAS CALL SWAP2 DUP3 ISZERO PUSH2 0x2BD JUMPI PUSH1 0x20 SWAP8 PUSH32 0x918E92F54688C51950885AC1066129BB8ECC6BFF902C9746495C1074FCFBF87F SWAP6 PUSH1 0x0 SWAP4 PUSH1 0x0 SWAP6 PUSH2 0xDCD JUMPI JUMPDEST POP DUP2 SLOAD AND SWAP1 SSTORE ISZERO PUSH2 0xDBD JUMPI POP PUSH2 0xDA1 SWAP1 PUSH2 0x1499 JUMP JUMPDEST SWAP4 JUMPDEST PUSH2 0xDB1 PUSH1 0x84 CALLDATALOAD DUP7 LT ISZERO PUSH2 0x14AA JUMP JUMPDEST PUSH2 0x5D0 PUSH1 0xA4 CALLDATALOAD CALLER PUSH2 0x1CD7 JUMP JUMPDEST PUSH2 0xDC7 SWAP2 POP PUSH2 0x1499 JUMP JUMPDEST SWAP4 PUSH2 0xDA3 JUMP JUMPDEST SWAP1 SWAP5 POP PUSH2 0xDEA SWAP2 SWAP4 POP PUSH1 0x40 RETURNDATASIZE PUSH1 0x40 GT PUSH2 0x643 JUMPI PUSH2 0x631 DUP2 DUP4 PUSH2 0x13BA JUMP JUMPDEST SWAP3 SWAP1 SWAP3 SWAP4 DUP11 PUSH2 0xD8C JUMP JUMPDEST PUSH20 0xFFFD8963EFD1FC6A506488495D951D5263988D25 SWAP2 PUSH2 0xD29 JUMP JUMPDEST PUSH2 0xE19 SWAP2 POP PUSH2 0x1499 JUMP JUMPDEST SWAP1 PUSH2 0xCEF JUMP JUMPDEST SWAP1 POP PUSH2 0xE38 SWAP2 POP DUP4 RETURNDATASIZE DUP6 GT PUSH2 0x643 JUMPI PUSH2 0x631 DUP2 DUP4 PUSH2 0x13BA JUMP JUMPDEST SWAP1 DUP12 PUSH2 0xCD8 JUMP JUMPDEST PUSH20 0xFFFD8963EFD1FC6A506488495D951D5263988D25 SWAP2 PUSH2 0xC93 JUMP JUMPDEST PUSH2 0xE63 SWAP1 PUSH2 0x138A JUMP JUMPDEST DUP7 PUSH2 0xC44 JUMP JUMPDEST CALLVALUE PUSH2 0x177 JUMPI PUSH1 0x0 CALLDATASIZE PUSH1 0x3 NOT ADD SLT PUSH2 0x177 JUMPI PUSH1 0x6 SLOAD PUSH1 0x40 MLOAD PUSH1 0x1 PUSH1 0x1 PUSH1 0xA0 SHL SUB SWAP1 SWAP2 AND DUP2 MSTORE PUSH1 0x20 SWAP1 RETURN JUMPDEST CALLVALUE PUSH2 0x177 JUMPI PUSH1 0x60 CALLDATASIZE PUSH1 0x3 NOT ADD SLT PUSH2 0x177 JUMPI PUSH1 0x20 PUSH2 0xEC6 PUSH2 0xEB0 PUSH2 0x1295 JUMP JUMPDEST PUSH2 0xEB8 PUSH2 0x12AB JUMP JUMPDEST PUSH2 0xEC0 PUSH2 0x12C1 JUMP JUMPDEST SWAP2 PUSH2 0x1A47 JUMP JUMPDEST PUSH1 0x40 MLOAD PUSH1 0x1 PUSH1 0x1 PUSH1 0xA0 SHL SUB SWAP1 SWAP2 AND DUP2 MSTORE RETURN JUMPDEST CALLVALUE PUSH2 0x177 JUMPI PUSH1 0x0 CALLDATASIZE PUSH1 0x3 NOT ADD SLT PUSH2 0x177 JUMPI PUSH1 0x20 PUSH1 0x5 SLOAD PUSH1 0x40 MLOAD SWAP1 DUP2 MSTORE RETURN JUMPDEST CALLVALUE PUSH2 0x177 JUMPI PUSH1 0x60 CALLDATASIZE PUSH1 0x3 NOT ADD SLT PUSH2 0x177 JUMPI CALLDATASIZE PUSH1 0x64 GT PUSH2 0x177 JUMPI PUSH2 0xF24 PUSH1 0x1 DUP1 PUSH1 0xA0 SHL SUB PUSH1 0x0 SLOAD AND CALLER EQ PUSH2 0x1313 JUMP JUMPDEST PUSH1 0x4 PUSH1 0x0 JUMPDEST PUSH1 0x3 DUP2 LT PUSH2 0xF58 JUMPI PUSH32 0xFE891C6AB12CF73707F8DEB6600C12BA382E4CC31EB2B0A2754CAD13075ED2D1 PUSH1 0x0 DUP1 LOG1 STOP JUMPDEST PUSH1 0x1 SWAP1 PUSH1 0x20 PUSH2 0xF66 DUP5 PUSH2 0x13FC JUMP JUMPDEST SWAP4 ADD SWAP3 DUP2 DUP4 ADD SSTORE ADD PUSH2 0xF29 JUMP JUMPDEST CALLVALUE PUSH2 0x177 JUMPI PUSH1 0x0 CALLDATASIZE PUSH1 0x3 NOT ADD SLT PUSH2 0x177 JUMPI PUSH1 0x20 PUSH1 0x4 SLOAD PUSH1 0x40 MLOAD SWAP1 DUP2 MSTORE RETURN JUMPDEST CALLVALUE PUSH2 0x177 JUMPI PUSH1 0x20 CALLDATASIZE PUSH1 0x3 NOT ADD SLT PUSH2 0x177 JUMPI PUSH2 0xFAA PUSH2 0x1295 JUMP JUMPDEST PUSH1 0x0 SLOAD PUSH1 0x1 PUSH1 0x1 PUSH1 0xA0 SHL SUB SWAP2 SWAP1 PUSH2 0xFC4 SWAP1 DUP4 AND CALLER EQ PUSH2 0x1313 JUMP JUMPDEST AND PUSH1 0x1 PUSH1 0x1 PUSH1 0x60 SHL SUB PUSH1 0xA0 SHL PUSH1 0x6 SLOAD AND OR PUSH1 0x6 SSTORE PUSH32 0xFE891C6AB12CF73707F8DEB6600C12BA382E4CC31EB2B0A2754CAD13075ED2D1 PUSH1 0x0 DUP1 LOG1 STOP JUMPDEST CALLVALUE PUSH2 0x177 JUMPI PUSH1 0x20 DUP1 PUSH1 0x3 NOT CALLDATASIZE ADD SLT PUSH2 0x177 JUMPI PUSH2 0x1019 PUSH2 0x1295 JUMP JUMPDEST CALLER PUSH1 0x0 SWAP1 DUP2 MSTORE PUSH1 0x7 DUP4 MSTORE PUSH1 0x40 DUP1 DUP3 KECCAK256 PUSH1 0x1 PUSH1 0x1 PUSH1 0xA0 SHL SUB SWAP1 SWAP4 AND DUP1 DUP4 MSTORE SWAP3 DUP5 MSTORE SWAP1 KECCAK256 SLOAD SWAP1 SWAP2 DUP2 ISZERO PUSH2 0x1115 JUMPI CALLER PUSH1 0x0 DUP2 DUP2 MSTORE PUSH1 0x7 DUP4 MSTORE PUSH1 0x40 DUP1 DUP3 KECCAK256 DUP7 DUP4 MSTORE DUP5 MSTORE DUP1 DUP3 KECCAK256 SWAP2 SWAP1 SWAP2 SSTORE MLOAD PUSH4 0xA9059CBB PUSH1 0xE0 SHL DUP2 MSTORE PUSH1 0x4 DUP2 ADD SWAP2 SWAP1 SWAP2 MSTORE PUSH1 0x24 DUP2 ADD DUP4 SWAP1 MSTORE SWAP1 DUP1 DUP3 DUP1 PUSH1 0x44 DUP2 ADD SUB DUP2 PUSH1 0x0 DUP9 GAS CALL DUP1 ISZERO PUSH2 0x2BD JUMPI PUSH2 0x10C1 JUMPI JUMPDEST PUSH32 0x4A34429A0EF883C4301D5B40AA8AE85D4EB024946062F2C7EBD8320ACEDC831A SWAP2 POP PUSH1 0x40 MLOAD SWAP3 DUP4 MSTORE CALLER SWAP3 LOG3 STOP JUMPDEST DUP1 DUP3 DUP2 RETURNDATASIZE DUP4 GT PUSH2 0x110E JUMPI JUMPDEST PUSH2 0x10D6 DUP2 DUP4 PUSH2 0x13BA JUMP JUMPDEST DUP2 ADD SUB SLT PUSH2 0x177 JUMPI PUSH2 0x1108 PUSH32 0x4A34429A0EF883C4301D5B40AA8AE85D4EB024946062F2C7EBD8320ACEDC831A SWAP3 PUSH2 0x13DC JUMP JUMPDEST POP PUSH2 0x1093 JUMP JUMPDEST POP RETURNDATASIZE PUSH2 0x10CC JUMP JUMPDEST PUSH1 0x64 SWAP1 PUSH1 0x40 MLOAD SWAP1 PUSH3 0x461BCD PUSH1 0xE5 SHL DUP3 MSTORE PUSH1 0x4 DUP3 ADD MSTORE PUSH1 0x10 PUSH1 0x24 DUP3 ADD MSTORE PUSH16 0x4E6F7468696E6720746F20636C61696D PUSH1 0x80 SHL PUSH1 0x44 DUP3 ADD MSTORE REVERT JUMPDEST CALLVALUE PUSH2 0x177 JUMPI PUSH1 0x20 CALLDATASIZE PUSH1 0x3 NOT ADD SLT PUSH2 0x177 JUMPI PUSH2 0x1165 PUSH2 0x1295 JUMP JUMPDEST PUSH1 0x0 SLOAD SWAP1 PUSH1 0x1 PUSH1 0x1 PUSH1 0xA0 SHL SUB SWAP1 PUSH2 0x117F CALLER DUP4 DUP6 AND EQ PUSH2 0x1313 JUMP JUMPDEST AND SWAP1 DUP2 ISZERO PUSH2 0x1197 JUMPI PUSH1 0x1 PUSH1 0x1 PUSH1 0xA0 SHL SUB NOT AND OR PUSH1 0x0 SSTORE STOP JUMPDEST PUSH1 0x40 MLOAD PUSH3 0x461BCD PUSH1 0xE5 SHL DUP2 MSTORE PUSH1 0x20 PUSH1 0x4 DUP3 ADD MSTORE PUSH1 0x9 PUSH1 0x24 DUP3 ADD MSTORE PUSH9 0x2D32B9379030B23239 PUSH1 0xB9 SHL PUSH1 0x44 DUP3 ADD MSTORE PUSH1 0x64 SWAP1 REVERT JUMPDEST CALLVALUE PUSH2 0x177 JUMPI PUSH1 0x40 CALLDATASIZE PUSH1 0x3 NOT ADD SLT PUSH2 0x177 JUMPI PUSH1 0x4 CALLDATALOAD PUSH1 0x24 CALLDATALOAD SWAP1 PUSH2 0x11F5 PUSH1 0x1 DUP1 PUSH1 0xA0 SHL SUB PUSH1 0x0 SLOAD AND CALLER EQ PUSH2 0x1313 JUMP JUMPDEST PUSH2 0x3E8 PUSH2 0x1202 DUP4 DUP4 PUSH2 0x134B JUMP JUMPDEST GT PUSH2 0x1234 JUMPI PUSH1 0x4 SSTORE PUSH1 0x5 SSTORE PUSH32 0xFE891C6AB12CF73707F8DEB6600C12BA382E4CC31EB2B0A2754CAD13075ED2D1 PUSH1 0x0 DUP1 LOG1 STOP JUMPDEST PUSH1 0x40 MLOAD PUSH3 0x461BCD PUSH1 0xE5 SHL DUP2 MSTORE PUSH1 0x20 PUSH1 0x4 DUP3 ADD MSTORE PUSH1 0xC PUSH1 0x24 DUP3 ADD MSTORE PUSH12 0x8CCACA40E8DEDE40D0D2CED PUSH1 0xA3 SHL PUSH1 0x44 DUP3 ADD MSTORE PUSH1 0x64 SWAP1 REVERT JUMPDEST CALLVALUE PUSH2 0x177 JUMPI PUSH1 0x0 CALLDATASIZE PUSH1 0x3 NOT ADD SLT PUSH2 0x177 JUMPI DUP1 PUSH20 0x7A5028BDA40E7B173C278C5342087826455EA25A PUSH1 0x20 SWAP3 MSTORE RETURN JUMPDEST PUSH1 0x4 CALLDATALOAD SWAP1 PUSH1 0x1 PUSH1 0x1 PUSH1 0xA0 SHL SUB DUP3 AND DUP3 SUB PUSH2 0x177 JUMPI JUMP JUMPDEST PUSH1 0x24 CALLDATALOAD SWAP1 PUSH1 0x1 PUSH1 0x1 PUSH1 0xA0 SHL SUB DUP3 AND DUP3 SUB PUSH2 0x177 JUMPI JUMP JUMPDEST PUSH1 0x44 CALLDATALOAD SWAP1 PUSH3 0xFFFFFF DUP3 AND DUP3 SUB PUSH2 0x177 JUMPI JUMP JUMPDEST PUSH1 0x24 CALLDATALOAD SWAP1 PUSH3 0xFFFFFF DUP3 AND DUP3 SUB PUSH2 0x177 JUMPI JUMP JUMPDEST SWAP2 DUP2 PUSH1 0x1F DUP5 ADD SLT ISZERO PUSH2 0x177 JUMPI DUP3 CALLDATALOAD SWAP2 PUSH8 0xFFFFFFFFFFFFFFFF DUP4 GT PUSH2 0x177 JUMPI PUSH1 0x20 DUP4 DUP2 DUP7 ADD SWAP6 ADD ADD GT PUSH2 0x177 JUMPI JUMP JUMPDEST ISZERO PUSH2 0x131A JUMPI JUMP JUMPDEST PUSH1 0x40 MLOAD PUSH3 0x461BCD PUSH1 0xE5 SHL DUP2 MSTORE PUSH1 0x20 PUSH1 0x4 DUP3 ADD MSTORE PUSH1 0x9 PUSH1 0x24 DUP3 ADD MSTORE PUSH9 0x2737BA1037BBB732B9 PUSH1 0xB9 SHL PUSH1 0x44 DUP3 ADD MSTORE PUSH1 0x64 SWAP1 REVERT JUMPDEST SWAP2 SWAP1 DUP3 ADD DUP1 SWAP3 GT PUSH2 0xA50 JUMPI JUMP JUMPDEST PUSH1 0x40 DUP2 ADD SWAP1 DUP2 LT PUSH8 0xFFFFFFFFFFFFFFFF DUP3 GT OR PUSH2 0x1374 JUMPI PUSH1 0x40 MSTORE JUMP JUMPDEST PUSH4 0x4E487B71 PUSH1 0xE0 SHL PUSH1 0x0 MSTORE PUSH1 0x41 PUSH1 0x4 MSTORE PUSH1 0x24 PUSH1 0x0 REVERT JUMPDEST PUSH8 0xFFFFFFFFFFFFFFFF DUP2 GT PUSH2 0x1374 JUMPI PUSH1 0x40 MSTORE JUMP JUMPDEST PUSH1 0x80 DUP2 ADD SWAP1 DUP2 LT PUSH8 0xFFFFFFFFFFFFFFFF DUP3 GT OR PUSH2 0x1374 JUMPI PUSH1 0x40 MSTORE JUMP JUMPDEST SWAP1 PUSH1 0x1F DUP1 NOT SWAP2 ADD AND DUP2 ADD SWAP1 DUP2 LT PUSH8 0xFFFFFFFFFFFFFFFF DUP3 GT OR PUSH2 0x1374 JUMPI PUSH1 0x40 MSTORE JUMP JUMPDEST MLOAD SWAP1 DUP2 ISZERO ISZERO DUP3 SUB PUSH2 0x177 JUMPI JUMP JUMPDEST DUP2 DUP2 MUL SWAP3 SWAP2 DUP2 ISZERO SWAP2 DUP5 DIV EQ OR ISZERO PUSH2 0xA50 JUMPI JUMP JUMPDEST CALLDATALOAD PUSH1 0x1 PUSH1 0x1 PUSH1 0xA0 SHL SUB DUP2 AND DUP2 SUB PUSH2 0x177 JUMPI SWAP1 JUMP JUMPDEST ISZERO PUSH2 0x1417 JUMPI JUMP JUMPDEST PUSH1 0x40 MLOAD PUSH3 0x461BCD PUSH1 0xE5 SHL DUP2 MSTORE PUSH1 0x20 PUSH1 0x4 DUP3 ADD MSTORE PUSH1 0xB PUSH1 0x24 DUP3 ADD MSTORE PUSH11 0x16995C9BC8185B5BDD5B9D PUSH1 0xAA SHL PUSH1 0x44 DUP3 ADD MSTORE PUSH1 0x64 SWAP1 REVERT JUMPDEST SWAP2 SWAP1 DUP3 PUSH1 0x40 SWAP2 SUB SLT PUSH2 0x177 JUMPI PUSH1 0x20 DUP3 MLOAD SWAP3 ADD MLOAD SWAP1 JUMP JUMPDEST PUSH1 0x1 PUSH1 0x1 PUSH1 0xA0 SHL SUB SWAP2 DUP3 AND DUP2 MSTORE SWAP2 ISZERO ISZERO PUSH1 0x20 DUP4 ADD MSTORE PUSH1 0x40 DUP3 ADD SWAP3 SWAP1 SWAP3 MSTORE SWAP2 AND PUSH1 0x60 DUP3 ADD MSTORE PUSH1 0xA0 PUSH1 0x80 DUP3 ADD DUP2 SWAP1 MSTORE PUSH1 0x0 SWAP1 DUP3 ADD MSTORE PUSH1 0xC0 ADD SWAP1 JUMP JUMPDEST PUSH1 0x1 PUSH1 0xFF SHL DUP2 EQ PUSH2 0xA50 JUMPI PUSH1 0x0 SUB SWAP1 JUMP JUMPDEST ISZERO PUSH2 0x14B1 JUMPI JUMP JUMPDEST PUSH1 0x40 MLOAD PUSH3 0x461BCD PUSH1 0xE5 SHL DUP2 MSTORE PUSH1 0x20 PUSH1 0x4 DUP3 ADD MSTORE PUSH1 0x11 PUSH1 0x24 DUP3 ADD MSTORE PUSH17 0x546F6F206D75636820736C697070616765 PUSH1 0x78 SHL PUSH1 0x44 DUP3 ADD MSTORE PUSH1 0x64 SWAP1 REVERT JUMPDEST MLOAD SWAP1 PUSH2 0xFFFF DUP3 AND DUP3 SUB PUSH2 0x177 JUMPI JUMP JUMPDEST DUP2 ISZERO PUSH2 0x1503 JUMPI DIV SWAP1 JUMP JUMPDEST PUSH4 0x4E487B71 PUSH1 0xE0 SHL PUSH1 0x0 MSTORE PUSH1 0x12 PUSH1 0x4 MSTORE PUSH1 0x24 PUSH1 0x0 REVERT JUMPDEST SWAP2 SWAP1 DUP2 LT ISZERO PUSH2 0x1529 JUMPI PUSH1 0x5 SHL ADD SWAP1 JUMP JUMPDEST PUSH4 0x4E487B71 PUSH1 0xE0 SHL PUSH1 0x0 MSTORE PUSH1 0x32 PUSH1 0x4 MSTORE PUSH1 0x24 PUSH1 0x0 REVERT JUMPDEST PUSH1 0x1 PUSH1 0x1 PUSH1 0xA0 SHL SUB DUP2 AND PUSH1 0x0 DUP2 DUP2 MSTORE PUSH1 0x8 PUSH1 0x20 MSTORE PUSH1 0x40 SWAP1 KECCAK256 SLOAD SWAP1 SWAP4 SWAP1 SWAP2 DUP3 ISZERO PUSH2 0x1A18 JUMPI DUP5 PUSH1 0x0 MSTORE PUSH1 0x8 PUSH1 0x20 MSTORE PUSH1 0x0 PUSH1 0x40 DUP2 KECCAK256 SSTORE PUSH20 0x17392E5483983945DEB92E0518A8F2C4EB6BA59D DUP6 EQ PUSH2 0x192D JUMPI PUSH2 0x16CE PUSH1 0x0 SWAP5 PUSH1 0x40 SWAP3 DUP8 PUSH1 0x1 PUSH1 0x1 PUSH1 0x60 SHL SUB PUSH1 0xA0 SHL PUSH1 0x9 SLOAD AND OR PUSH1 0x9 SSTORE PUSH20 0x2CFC85D8E48F8EAB294BE644D9E25C3030863003 DUP9 LT DUP8 EQ PUSH2 0x190D JUMPI SWAP1 PUSH3 0xFFFFFF PUSH20 0x2CFC85D8E48F8EAB294BE644D9E25C3030863003 SWAP2 JUMPDEST DUP6 MLOAD PUSH1 0x1 PUSH1 0x1 PUSH1 0xA0 SHL SUB SWAP5 DUP6 AND PUSH1 0x20 DUP3 ADD SWAP1 DUP2 MSTORE SWAP5 SWAP1 SWAP4 AND DUP4 DUP8 ADD MSTORE AND PUSH1 0x60 DUP1 DUP4 ADD SWAP2 SWAP1 SWAP2 MSTORE DUP2 MSTORE PUSH2 0x1614 DUP2 PUSH2 0x139E JUMP JUMPDEST MLOAD SWAP1 KECCAK256 DUP3 MLOAD SWAP1 PUSH1 0x20 DUP3 ADD SWAP1 PUSH1 0xFF PUSH1 0xF8 SHL DUP3 MSTORE PUSH20 0x3D28145ED2073D8B9E13C629A1043C1322AF512D PUSH1 0x61 SHL PUSH1 0x21 DUP5 ADD MSTORE PUSH1 0x35 DUP4 ADD MSTORE PUSH1 0x0 DUP1 MLOAD PUSH1 0x20 PUSH2 0x1D4B DUP4 CODECOPY DUP2 MLOAD SWAP2 MSTORE PUSH1 0x55 DUP4 ADD MSTORE PUSH1 0x55 DUP3 MSTORE PUSH2 0x1669 DUP3 PUSH2 0x139E JUMP JUMPDEST SWAP1 MLOAD SWAP1 KECCAK256 PUSH1 0x1 PUSH1 0x1 PUSH1 0xA0 SHL SUB AND PUSH20 0x2CFC85D8E48F8EAB294BE644D9E25C3030863003 DUP8 LT DUP7 EQ PUSH2 0x18F3 JUMPI PUSH5 0x1000276A4 JUMPDEST DUP4 MLOAD SWAP7 DUP8 DUP1 SWAP5 DUP2 SWAP4 PUSH4 0x2515961 PUSH1 0xE3 SHL DUP4 MSTORE DUP10 PUSH20 0x2CFC85D8E48F8EAB294BE644D9E25C3030863003 DUP14 LT ADDRESS PUSH1 0x4 DUP7 ADD PUSH2 0x1460 JUMP JUMPDEST SUB SWAP3 GAS CALL DUP1 ISZERO PUSH2 0x2BD JUMPI PUSH1 0x0 SWAP4 PUSH1 0x0 SWAP2 PUSH2 0x18B6 JUMPI JUMPDEST POP PUSH1 0x9 SLOAD PUSH1 0x1 PUSH1 0x1 PUSH1 0xA0 SHL SUB NOT AND SWAP4 PUSH1 0x40 SWAP3 SWAP2 PUSH20 0x2CFC85D8E48F8EAB294BE644D9E25C3030863003 SWAP2 DUP3 DUP9 LT ISZERO PUSH2 0x18A6 JUMPI POP PUSH2 0x171E SWAP1 PUSH2 0x1499 JUMP JUMPDEST SWAP5 JUMPDEST OR PUSH1 0x9 SSTORE DUP2 MLOAD PUSH3 0xFFFFFF PUSH1 0x20 DUP3 ADD SWAP3 PUSH20 0x17392E5483983945DEB92E0518A8F2C4EB6BA59D DUP5 MSTORE PUSH20 0x2CFC85D8E48F8EAB294BE644D9E25C3030863003 DUP6 DUP5 ADD MSTORE AND PUSH1 0x60 DUP3 ADD MSTORE PUSH1 0x60 DUP2 MSTORE PUSH2 0x1772 DUP2 PUSH2 0x139E JUMP JUMPDEST MLOAD SWAP1 KECCAK256 DUP2 MLOAD SWAP1 PUSH1 0x20 DUP3 ADD SWAP1 PUSH1 0xFF PUSH1 0xF8 SHL DUP3 MSTORE PUSH20 0x3D28145ED2073D8B9E13C629A1043C1322AF512D PUSH1 0x61 SHL PUSH1 0x21 DUP5 ADD MSTORE PUSH1 0x35 DUP4 ADD MSTORE PUSH1 0x0 DUP1 MLOAD PUSH1 0x20 PUSH2 0x1D4B DUP4 CODECOPY DUP2 MLOAD SWAP2 MSTORE PUSH1 0x55 DUP4 ADD MSTORE PUSH1 0x55 DUP3 MSTORE PUSH2 0x17C7 DUP3 PUSH2 0x139E JUMP JUMPDEST SWAP1 MLOAD SWAP1 KECCAK256 PUSH1 0x0 DUP1 SLOAD DUP4 MLOAD PUSH4 0x2515961 PUSH1 0xE3 SHL DUP2 MSTORE PUSH1 0x1 PUSH1 0x1 PUSH1 0xA0 SHL SUB SWAP2 DUP3 AND PUSH1 0x4 DUP3 ADD MSTORE PUSH1 0x24 DUP2 ADD DUP4 SWAP1 MSTORE PUSH1 0x44 DUP2 ADD SWAP7 SWAP1 SWAP7 MSTORE PUSH20 0xFFFD8963EFD1FC6A506488495D951D5263988D25 PUSH1 0x64 DUP8 ADD MSTORE PUSH1 0xA0 PUSH1 0x84 DUP8 ADD MSTORE PUSH1 0xA4 DUP7 ADD DUP3 SWAP1 MSTORE DUP6 SWAP3 PUSH1 0xC4 SWAP3 DUP5 SWAP3 SWAP1 SWAP2 AND GAS CALL SWAP1 DUP2 ISZERO PUSH2 0x2BD JUMPI PUSH2 0x187B PUSH1 0x40 SWAP3 PUSH32 0x626502EF77967D5C4531ABAD2A6F2A43B30F257E30CC352362D0EB2C61932A48 SWAP5 PUSH1 0x0 SWAP2 PUSH2 0x1888 JUMPI JUMPDEST POP PUSH1 0x9 DUP1 SLOAD PUSH1 0x1 PUSH1 0x1 PUSH1 0xA0 SHL SUB NOT AND SWAP1 SSTORE PUSH2 0x1499 JUMP JUMPDEST DUP3 MLOAD SWAP2 DUP3 MSTORE PUSH1 0x20 DUP3 ADD MSTORE LOG2 JUMP JUMPDEST PUSH2 0x189F SWAP2 POP DUP5 RETURNDATASIZE DUP7 GT PUSH2 0x643 JUMPI PUSH2 0x631 DUP2 DUP4 PUSH2 0x13BA JUMP JUMPDEST POP CODESIZE PUSH2 0x1865 JUMP JUMPDEST PUSH2 0x18B0 SWAP2 POP PUSH2 0x1499 JUMP JUMPDEST SWAP5 PUSH2 0x1720 JUMP JUMPDEST PUSH20 0x2CFC85D8E48F8EAB294BE644D9E25C3030863003 SWAP5 POP PUSH1 0x40 SWAP3 SWAP2 POP PUSH2 0x18E8 SWAP1 DUP4 RETURNDATASIZE DUP6 GT PUSH2 0x643 JUMPI PUSH2 0x631 DUP2 DUP4 PUSH2 0x13BA JUMP JUMPDEST SWAP5 SWAP1 SWAP5 SWAP2 SWAP3 POP PUSH2 0x16E3 JUMP JUMPDEST PUSH20 0xFFFD8963EFD1FC6A506488495D951D5263988D25 PUSH2 0x169A JUMP JUMPDEST PUSH20 0x2CFC85D8E48F8EAB294BE644D9E25C3030863003 SWAP2 PUSH3 0xFFFFFF SWAP1 PUSH2 0x15E3 JUMP JUMPDEST POP POP PUSH1 0x0 SLOAD PUSH1 0x40 MLOAD PUSH4 0xA9059CBB PUSH1 0xE0 SHL DUP2 MSTORE PUSH1 0x1 PUSH1 0x1 PUSH1 0xA0 SHL SUB SWAP1 SWAP2 AND PUSH1 0x4 DUP3 ADD MSTORE PUSH1 0x24 DUP2 ADD DUP3 SWAP1 MSTORE SWAP1 SWAP2 POP PUSH1 0x20 DUP2 DUP1 PUSH1 0x44 DUP2 ADD SUB DUP2 PUSH1 0x0 PUSH20 0x17392E5483983945DEB92E0518A8F2C4EB6BA59D GAS CALL DUP1 ISZERO PUSH2 0x2BD JUMPI PUSH2 0x19BA JUMPI JUMPDEST POP PUSH1 0x40 PUSH32 0x626502EF77967D5C4531ABAD2A6F2A43B30F257E30CC352362D0EB2C61932A48 SWAP2 DUP2 MLOAD SWAP1 DUP1 DUP3 MSTORE PUSH1 0x20 DUP3 ADD MSTORE LOG2 JUMP JUMPDEST PUSH1 0x20 DUP2 RETURNDATASIZE PUSH1 0x20 GT PUSH2 0x1A10 JUMPI JUMPDEST DUP2 PUSH2 0x19D3 PUSH1 0x20 SWAP4 DUP4 PUSH2 0x13BA JUMP JUMPDEST DUP2 ADD SUB SLT PUSH2 0x177 JUMPI PUSH32 0x626502EF77967D5C4531ABAD2A6F2A43B30F257E30CC352362D0EB2C61932A48 SWAP2 PUSH2 0x1A08 PUSH1 0x40 SWAP3 PUSH2 0x13DC JUMP JUMPDEST POP SWAP2 POP PUSH2 0x1987 JUMP JUMPDEST RETURNDATASIZE SWAP2 POP PUSH2 0x19C6 JUMP JUMPDEST PUSH1 0x40 MLOAD PUSH3 0x461BCD PUSH1 0xE5 SHL DUP2 MSTORE PUSH1 0x20 PUSH1 0x4 DUP3 ADD MSTORE PUSH1 0x7 PUSH1 0x24 DUP3 ADD MSTORE PUSH7 0x4E6F2066656573 PUSH1 0xC8 SHL PUSH1 0x44 DUP3 ADD MSTORE PUSH1 0x64 SWAP1 REVERT JUMPDEST PUSH1 0x1 PUSH1 0x1 PUSH1 0xA0 SHL SUB SWAP3 SWAP1 DUP3 DUP5 AND DUP5 DUP3 AND LT ISZERO PUSH2 0x1AE8 JUMPI PUSH3 0xFFFFFF SWAP1 SWAP3 SWAP2 JUMPDEST DUP5 PUSH1 0x40 MLOAD SWAP4 DUP2 PUSH1 0x20 DUP7 ADD SWAP7 AND DUP7 MSTORE AND PUSH1 0x40 DUP5 ADD MSTORE AND PUSH1 0x60 DUP3 ADD MSTORE PUSH1 0x60 DUP2 MSTORE PUSH2 0x1A8C DUP2 PUSH2 0x139E JUMP JUMPDEST MLOAD SWAP1 KECCAK256 PUSH1 0x40 MLOAD PUSH1 0x20 DUP2 ADD SWAP2 PUSH1 0xFF PUSH1 0xF8 SHL DUP4 MSTORE PUSH20 0x3D28145ED2073D8B9E13C629A1043C1322AF512D PUSH1 0x61 SHL PUSH1 0x21 DUP4 ADD MSTORE PUSH1 0x35 DUP3 ADD MSTORE PUSH1 0x0 DUP1 MLOAD PUSH1 0x20 PUSH2 0x1D4B DUP4 CODECOPY DUP2 MLOAD SWAP2 MSTORE PUSH1 0x55 DUP3 ADD MSTORE PUSH1 0x55 DUP2 MSTORE PUSH2 0x1AE1 DUP2 PUSH2 0x139E JUMP JUMPDEST MLOAD SWAP1 KECCAK256 AND SWAP1 JUMP JUMPDEST SWAP1 PUSH3 0xFFFFFF SWAP1 PUSH2 0x1A65 JUMP JUMPDEST SWAP2 SWAP1 DUP3 SUB SWAP2 DUP3 GT PUSH2 0xA50 JUMPI JUMP JUMPDEST SWAP2 SWAP1 PUSH2 0x2710 PUSH1 0x4 SWAP2 DUP2 PUSH2 0x1B15 PUSH1 0x4 SLOAD DUP4 PUSH2 0x13E9 JUMP JUMPDEST DIV SWAP2 PUSH2 0x1B23 PUSH1 0x5 SLOAD DUP4 PUSH2 0x13E9 JUMP JUMPDEST DIV SWAP3 DUP3 PUSH2 0x1B72 JUMPI JUMPDEST POP SWAP1 PUSH2 0x1B42 SWAP2 PUSH2 0x1B47 SWAP5 SWAP6 DUP5 PUSH2 0x1B4A JUMPI JUMPDEST POP PUSH2 0x1AF3 JUMP JUMPDEST PUSH2 0x1AF3 JUMP JUMPDEST SWAP1 JUMP JUMPDEST PUSH1 0x1 DUP1 PUSH1 0xA0 SHL SUB AND PUSH1 0x0 MSTORE PUSH1 0x8 PUSH1 0x20 MSTORE PUSH1 0x40 PUSH1 0x0 KECCAK256 PUSH2 0x1B6A DUP6 DUP3 SLOAD PUSH2 0x134B JUMP JUMPDEST SWAP1 SSTORE CODESIZE PUSH2 0x1B3C JUMP JUMPDEST PUSH1 0x0 SWAP1 DUP2 JUMPDEST PUSH1 0x3 DUP2 LT PUSH2 0x1C91 JUMPI POP POP DUP1 ISZERO PUSH2 0x1C4D JUMPI PUSH2 0x1BA4 PUSH2 0x1B9E PUSH2 0x1B97 DUP4 DUP7 PUSH2 0x14F9 JUMP JUMPDEST SWAP3 DUP4 PUSH2 0x13E9 JUMP JUMPDEST DUP5 PUSH2 0x1AF3 JUMP JUMPDEST SWAP1 PUSH1 0x0 JUMPDEST PUSH1 0x3 DUP2 LT PUSH2 0x1BFC JUMPI POP POP SWAP1 PUSH2 0x1B47 SWAP5 SWAP6 PUSH2 0x1B42 SWAP4 SWAP3 PUSH1 0x1 DUP1 PUSH1 0xA0 SHL SUB DUP1 PUSH1 0x1 SLOAD AND PUSH1 0x0 MSTORE PUSH1 0x7 PUSH1 0x20 MSTORE PUSH1 0x40 PUSH1 0x0 KECCAK256 SWAP1 DUP4 AND PUSH1 0x0 MSTORE PUSH1 0x20 MSTORE PUSH2 0x1BEF PUSH1 0x40 PUSH1 0x0 KECCAK256 SWAP2 DUP3 SLOAD PUSH2 0x134B JUMP JUMPDEST SWAP1 SSTORE JUMPDEST SWAP6 SWAP5 POP SWAP1 SWAP2 PUSH2 0x1B2B JUMP JUMPDEST PUSH1 0x1 DUP2 DUP2 ADD SLOAD SWAP1 SWAP2 SWAP1 PUSH1 0x1 PUSH1 0x1 PUSH1 0xA0 SHL SUB SWAP1 DUP2 AND DUP1 PUSH2 0x1C1E JUMPI JUMPDEST POP POP ADD PUSH2 0x1BA8 JUMP JUMPDEST PUSH1 0x0 MSTORE PUSH1 0x20 SWAP1 PUSH1 0x7 DUP3 MSTORE PUSH1 0x40 SWAP2 DUP3 PUSH1 0x0 KECCAK256 SWAP2 DUP13 AND PUSH1 0x0 MSTORE MSTORE PUSH1 0x0 KECCAK256 PUSH2 0x1C44 DUP5 DUP3 SLOAD PUSH2 0x134B JUMP JUMPDEST SWAP1 SSTORE CODESIZE DUP1 PUSH2 0x1C16 JUMP JUMPDEST POP SWAP1 PUSH2 0x1B42 SWAP2 PUSH2 0x1B47 SWAP5 SWAP6 PUSH1 0x1 DUP1 PUSH1 0xA0 SHL SUB DUP1 PUSH1 0x0 SLOAD AND PUSH1 0x0 MSTORE PUSH1 0x7 PUSH1 0x20 MSTORE PUSH1 0x40 PUSH1 0x0 KECCAK256 SWAP1 DUP3 AND PUSH1 0x0 MSTORE PUSH1 0x20 MSTORE PUSH1 0x40 PUSH1 0x0 KECCAK256 PUSH2 0x1C8A DUP5 DUP3 SLOAD PUSH2 0x134B JUMP JUMPDEST SWAP1 SSTORE PUSH2 0x1BF2 JUMP JUMPDEST PUSH1 0x1 DUP2 DUP2 ADD SLOAD PUSH1 0x1 PUSH1 0x1 PUSH1 0xA0 SHL SUB AND PUSH2 0x1CAE JUMPI JUMPDEST POP PUSH1 0x1 ADD PUSH2 0x1B77 JUMP JUMPDEST SWAP1 SWAP3 PUSH1 0x0 NOT DUP2 EQ PUSH2 0x1CC2 JUMPI ADD SWAP2 PUSH1 0x1 PUSH2 0x1CA5 JUMP JUMPDEST PUSH1 0x11 DUP4 PUSH4 0x4E487B71 PUSH1 0xE0 SHL PUSH1 0x0 MSTORE MSTORE PUSH1 0x24 PUSH1 0x0 REVERT JUMPDEST PUSH1 0x6 SLOAD PUSH1 0x1 PUSH1 0x1 PUSH1 0xA0 SHL SUB AND SWAP2 DUP3 ISZERO ISZERO DUP1 PUSH2 0x1D41 JUMPI JUMPDEST PUSH2 0x1CF6 JUMPI POP POP POP JUMP JUMPDEST DUP3 EXTCODESIZE ISZERO PUSH2 0x177 JUMPI PUSH1 0x40 MLOAD PUSH4 0x9680135 PUSH1 0xE0 SHL DUP2 MSTORE PUSH1 0x1 PUSH1 0x1 PUSH1 0xA0 SHL SUB SWAP3 SWAP1 SWAP3 AND PUSH1 0x4 DUP4 ADD MSTORE PUSH1 0x24 DUP3 ADD MSTORE SWAP1 PUSH1 0x0 SWAP1 DUP3 SWAP1 PUSH1 0x44 SWAP1 DUP3 SWAP1 DUP5 SWAP1 GAS CALL PUSH2 0x1D36 JUMPI POP JUMP JUMPDEST PUSH2 0x1D3F SWAP1 PUSH2 0x138A JUMP JUMPDEST JUMP JUMPDEST POP DUP1 ISZERO ISZERO PUSH2 0x1CED JUMP INVALID 0xE3 0x4F NOT SWAP12 NOT 0xB2 0xB4 DELEGATECALL PUSH32 0x68442619D555527D244F78A3297EA89325F843F87B8B54A26469706673582212 KECCAK256 PUSH8 0x1C331A45388A5D26 0xEF 0x4C 0xB6 0xBD SWAP14 PUSH26 0x3B10B09D8B0D6791414A4BFA3B85654D0664736F6C6343000818 STOP CALLER "},"methodIdentifiers":{"H2O()":"feaa524d","MAX_FEE_BPS()":"d55be8c6","PERMIT2_ADDR()":"fdcf0955","USDC()":"89a30271","V3_FACTORY()":"08bd1a85","V3_POOL_INIT_CODE_HASH()":"7e9602fc","WLD()":"de061d66","buybackH2O(address,uint24,uint24)":"904c1853","claimFees(address)":"15a0ea6a","claimFeesBatch(address[])":"82f3ae79","emergencyWithdraw(address,uint256)":"95ccea67","feeOwners(uint256)":"8543f9ca","getPoolAddress(address,address,uint24)":"696d6283","h2oFeeBps()":"50d5e40e","h2oFeePool(address)":"f1b2a7e7","owner()":"8da5cb5b","ownerFees(address,address)":"fc8a2b0a","quoteSingle(address,address,uint24,uint256)":"795e2c4d","setFeeOwners(address[3])":"501015bf","setFees(uint256,uint256)":"0b78f9c0","setOwner(address)":"13af4035","setVolumeRewards(address)":"24b4fd79","swapFeeBps()":"2ffdaf89","swapV3Multi(address,address,uint24,uint24,uint256,uint256,((address,uint256),uint256,uint256),bytes)":"71255ea0","swapV3Single(address,uint24,uint256,uint256,((address,uint256),uint256,uint256),bytes)":"ca19c851","uniswapV3SwapCallback(int256,int256,bytes)":"fa461e33","volumeRewards()":"705bd452"}}}}}