{"contracts/AcuaSwapRouter.sol":{"AcuaSwapRouter":{"abi":[{"inputs":[{"internalType":"address[3]","name":"_feeOwners","type":"address[3]"}],"stateMutability":"nonpayable","type":"constructor"},{"anonymous":false,"inputs":[],"name":"ConfigUpdated","type":"event"},{"anonymous":false,"inputs":[{"indexed":true,"internalType":"address","name":"who","type":"address"},{"indexed":true,"internalType":"address","name":"token","type":"address"},{"indexed":false,"internalType":"uint256","name":"amount","type":"uint256"}],"name":"FeeClaimed","type":"event"},{"anonymous":false,"inputs":[{"indexed":true,"internalType":"address","name":"token","type":"address"},{"indexed":false,"internalType":"uint256","name":"tokenIn","type":"uint256"},{"indexed":false,"internalType":"uint256","name":"h2oOut","type":"uint256"}],"name":"H2OBought","type":"event"},{"anonymous":false,"inputs":[{"indexed":true,"internalType":"address","name":"user","type":"address"},{"indexed":false,"internalType":"address","name":"tokenIn","type":"address"},{"indexed":false,"internalType":"address","name":"tokenOut","type":"address"},{"indexed":false,"internalType":"uint256","name":"amountIn","type":"uint256"},{"indexed":false,"internalType":"uint256","name":"amountOut","type":"uint256"}],"name":"SwappedV2","type":"event"},{"anonymous":false,"inputs":[{"indexed":true,"internalType":"address","name":"user","type":"address"},{"indexed":false,"internalType":"address","name":"tokenIn","type":"address"},{"indexed":false,"internalType":"address","name":"tokenOut","type":"address"},{"indexed":false,"internalType":"uint256","name":"amountIn","type":"uint256"},{"indexed":false,"internalType":"uint256","name":"amountOut","type":"uint256"}],"name":"SwappedV3","type":"event"},{"inputs":[],"name":"H2O","outputs":[{"internalType":"address","name":"","type":"address"}],"stateMutability":"view","type":"function"},{"inputs":[],"name":"MAX_FEE_BPS","outputs":[{"internalType":"uint256","name":"","type":"uint256"}],"stateMutability":"view","type":"function"},{"inputs":[],"name":"PERMIT2","outputs":[{"internalType":"contract IPermit2","name":"","type":"address"}],"stateMutability":"view","type":"function"},{"inputs":[],"name":"ROUTER_V2","outputs":[{"internalType":"contract ISwapRouterV2","name":"","type":"address"}],"stateMutability":"view","type":"function"},{"inputs":[],"name":"USDC","outputs":[{"internalType":"address","name":"","type":"address"}],"stateMutability":"view","type":"function"},{"inputs":[],"name":"V3_FACTORY","outputs":[{"internalType":"address","name":"","type":"address"}],"stateMutability":"view","type":"function"},{"inputs":[],"name":"V3_POOL_INIT_CODE_HASH","outputs":[{"internalType":"bytes32","name":"","type":"bytes32"}],"stateMutability":"view","type":"function"},{"inputs":[],"name":"WLD","outputs":[{"internalType":"address","name":"","type":"address"}],"stateMutability":"view","type":"function"},{"inputs":[{"internalType":"address","name":"token","type":"address"},{"internalType":"uint24","name":"feeHop","type":"uint24"},{"internalType":"uint24","name":"feeOut","type":"uint24"}],"name":"buybackH2O","outputs":[],"stateMutability":"nonpayable","type":"function"},{"inputs":[{"internalType":"address","name":"token","type":"address"}],"name":"claimFees","outputs":[],"stateMutability":"nonpayable","type":"function"},{"inputs":[{"internalType":"address[]","name":"tokens","type":"address[]"}],"name":"claimFeesBatch","outputs":[],"stateMutability":"nonpayable","type":"function"},{"inputs":[{"internalType":"address","name":"token","type":"address"},{"internalType":"uint256","name":"amount","type":"uint256"}],"name":"emergencyWithdraw","outputs":[],"stateMutability":"nonpayable","type":"function"},{"inputs":[{"internalType":"uint256","name":"","type":"uint256"}],"name":"feeOwners","outputs":[{"internalType":"address","name":"","type":"address"}],"stateMutability":"view","type":"function"},{"inputs":[{"internalType":"address","name":"tokenA","type":"address"},{"internalType":"address","name":"tokenB","type":"address"},{"internalType":"uint24","name":"fee","type":"uint24"}],"name":"getPoolAddress","outputs":[{"internalType":"address","name":"","type":"address"}],"stateMutability":"pure","type":"function"},{"inputs":[],"name":"h2oFeeBps","outputs":[{"internalType":"uint256","name":"","type":"uint256"}],"stateMutability":"view","type":"function"},{"inputs":[{"internalType":"address","name":"","type":"address"}],"name":"h2oFeePool","outputs":[{"internalType":"uint256","name":"","type":"uint256"}],"stateMutability":"view","type":"function"},{"inputs":[],"name":"owner","outputs":[{"internalType":"address","name":"","type":"address"}],"stateMutability":"view","type":"function"},{"inputs":[{"internalType":"address","name":"","type":"address"},{"internalType":"address","name":"","type":"address"}],"name":"ownerFees","outputs":[{"internalType":"uint256","name":"","type":"uint256"}],"stateMutability":"view","type":"function"},{"inputs":[{"internalType":"address","name":"tokenIn","type":"address"},{"internalType":"address","name":"tokenOut","type":"address"},{"internalType":"uint24","name":"fee","type":"uint24"},{"internalType":"uint256","name":"amountIn","type":"uint256"}],"name":"quoteSingle","outputs":[{"internalType":"uint256","name":"amountOut","type":"uint256"},{"internalType":"address","name":"poolAddr","type":"address"}],"stateMutability":"view","type":"function"},{"inputs":[{"internalType":"address[3]","name":"_owners","type":"address[3]"}],"name":"setFeeOwners","outputs":[],"stateMutability":"nonpayable","type":"function"},{"inputs":[{"internalType":"uint256","name":"_swapFeeBps","type":"uint256"},{"internalType":"uint256","name":"_h2oFeeBps","type":"uint256"}],"name":"setFees","outputs":[],"stateMutability":"nonpayable","type":"function"},{"inputs":[{"internalType":"address","name":"newOwner","type":"address"}],"name":"setOwner","outputs":[],"stateMutability":"nonpayable","type":"function"},{"inputs":[{"internalType":"address","name":"_vr","type":"address"}],"name":"setVolumeRewards","outputs":[],"stateMutability":"nonpayable","type":"function"},{"inputs":[],"name":"swapFeeBps","outputs":[{"internalType":"uint256","name":"","type":"uint256"}],"stateMutability":"view","type":"function"},{"inputs":[{"internalType":"address","name":"tokenIn","type":"address"},{"internalType":"address","name":"tokenOut","type":"address"},{"internalType":"uint256","name":"amountIn","type":"uint256"},{"internalType":"uint256","name":"amountOutMin","type":"uint256"},{"internalType":"address[]","name":"v2Path","type":"address[]"},{"internalType":"uint256","name":"usdcEquivalent","type":"uint256"}],"name":"swapV2","outputs":[{"internalType":"uint256","name":"amountOut","type":"uint256"}],"stateMutability":"nonpayable","type":"function"},{"inputs":[{"internalType":"address","name":"tokenIn","type":"address"},{"internalType":"address","name":"hopToken","type":"address"},{"internalType":"address","name":"tokenOut","type":"address"},{"internalType":"uint24","name":"fee1","type":"uint24"},{"internalType":"uint24","name":"fee2","type":"uint24"},{"internalType":"uint256","name":"amountIn","type":"uint256"},{"internalType":"uint256","name":"amountOutMin","type":"uint256"},{"internalType":"uint256","name":"usdcEquivalent","type":"uint256"}],"name":"swapV3Multi","outputs":[{"internalType":"uint256","name":"amountOut","type":"uint256"}],"stateMutability":"nonpayable","type":"function"},{"inputs":[{"internalType":"address","name":"tokenIn","type":"address"},{"internalType":"address","name":"tokenOut","type":"address"},{"internalType":"uint24","name":"fee","type":"uint24"},{"internalType":"uint256","name":"amountIn","type":"uint256"},{"internalType":"uint256","name":"amountOutMin","type":"uint256"},{"internalType":"uint256","name":"usdcEquivalent","type":"uint256"}],"name":"swapV3Single","outputs":[{"internalType":"uint256","name":"amountOut","type":"uint256"}],"stateMutability":"nonpayable","type":"function"},{"inputs":[{"internalType":"int256","name":"amount0Delta","type":"int256"},{"internalType":"int256","name":"amount1Delta","type":"int256"},{"internalType":"bytes","name":"","type":"bytes"}],"name":"uniswapV3SwapCallback","outputs":[],"stateMutability":"nonpayable","type":"function"},{"inputs":[],"name":"volumeRewards","outputs":[{"internalType":"address","name":"","type":"address"}],"stateMutability":"view","type":"function"}],"evm":{"bytecode":{"linkReferences":{},"object":"608034620000f9576001600160401b0390620023173881900390601f8201601f191683019084821184831017620000fe57829160405283398101606082820312620000f95780601f83011215620000f957604051926060840190811184821017620000fe57604052829160608101918211620000f957915b818310620000d75760c8600455600a600555600080546001600160a01b0319163317815584905b60038110620000b7576040516122029081620001158239f35b81516001600160a01b03166001919091019081556020909101906200009e565b82516001600160a01b0381168103620000f95781526020928301920162000077565b600080fd5b634e487b7160e01b600052604160045260246000fdfe608080604052600436101561001357600080fd5b600090813560e01c90816308bd1a85146116d3575080630b41a6db146116a45780630b78f9c01461160457806313af40351461158857806315a0ea6a1461144457806324b4fd79146113d65780632ffdaf89146113b85780633e3148b01461102d578063501015bf14610fb057806350d5e40e14610f92578063696d628314610f4b5780636afdd85014610f21578063705bd45214610ef8578063795e2c4d14610d965780637e9602fc14610d6d57806382f3ae7914610bef578063833b10a4146109975780638543f9ca1461096057806389a30271146109315780638da5cb5b1461090a578063904c1853146108b75780639224c4ed1461049957806395ccea6714610417578063d55be8c6146103fa578063de061d66146103cb578063f1b2a7e714610392578063fa461e33146101e0578063fc8a2b0a146101915763feaa524d1461016057600080fd5b3461018e578060031936011261018e5760206040517317392e5483983945deb92e0518a8f2c4eb6ba59d8152f35b80fd5b503461018e57604036600319011261018e576101ab611701565b60406101b5611717565b9260018060a01b03809316815260076020522091166000526020526020604060002054604051908152f35b503461018e57606036600319011261018e5760243560043560443567ffffffffffffffff80821161038e573660238301121561038e57816004013590811161038e573691016024011161038a57600a546001600160a01b039081168015610354578493848413156102cc575050600a5460405163a9059cbb60e01b815233600482015260248101939093529192602092849260449284929091165af180156102c15761028b575b5080f35b6020813d6020116102b9575b816102a460209383611811565b810103126102b55761028790611833565b5080fd5b3d9150610297565b6040513d84823e3d90fd5b84919350809250136102df575b50505080f35b60405163a9059cbb60e01b815233600482015260248101919091529160209183916044918391905af180156102c15761031b575b8082916102d9565b6020813d60201161034c575b8161033460209383611811565b810103126102b55761034590611833565b5038610313565b3d9150610327565b60405162461bcd60e51b815260206004820152600e60248201526d04e6f2061637469766520737761760941b6044820152606490fd5b8280fd5b8480fd5b503461018e57602036600319011261018e576020906040906001600160a01b036103ba611701565b168152600883522054604051908152f35b503461018e578060031936011261018e576020604051732cfc85d8e48f8eab294be644d9e25c30308630038152f35b503461018e578060031936011261018e5760206040516103e88152f35b503461018e57604036600319011261018e57610431611701565b81546001600160a01b039160209161048691908416610451338214611770565b60405163a9059cbb60e01b81526001600160a01b03909116600482015260248035908201529384928391879183906044820190565b0393165af180156102c15761028b575080f35b503461018e5760c036600319011261018e576104b3611701565b6104bb611717565b60843567ffffffffffffffff811161083e576104db90369060040161173f565b93906044351515806108a4575b6104f190611840565b60028510610874576e22d473030f116ddee9f6b43ac78ba3803b1561038a57604051631b63c28b60e11b81523360048201523060248201526001600160a01b03604480358216908301528616606482015290839082908183816084810103925af1801561086957908391610855575b505061056e60443585611eb6565b60405163095ea7b360e01b8152737a250d5630b4cf539739df2c5dacb4c659f2488d600482015260248101829052909590602081604481876001600160a01b038b165af1801561084a5761080d575b50610708420142116107f9576040516338ed173960e01b81526004810196909652606435602487015260a0604487015260a486018190528290869060c482019083905b8082106107c15750508192935033606483015261070842016084830152038183737a250d5630b4cf539739df2c5dacb4c659f2488d5af19384156107b45781946106fa575b5083516000198101919082116106e65784518210156106d25750602080947fb6f8afd58b9858281e3bc6894836e7eac569bf3b4b334d771e19c2c1cfccb4569260051b010151809361069960a43533612139565b604080516001600160a01b039283168152949091166020850152604435908401526060830152339180608081015b0390a2604051908152f35b634e487b7160e01b81526032600452602490fd5b634e487b7160e01b81526011600452602490fd5b9093503d8085833e61070c8183611811565b81019060208183031261038e5780519067ffffffffffffffff82116107b057019080601f8301121561038e5781519167ffffffffffffffff831161079c578260051b90604051936107606020840186611811565b845260208085019282010192831161079857602001905b828210610788575050509238610645565b8151815260209182019101610777565b8680fd5b634e487b7160e01b86526041600452602486fd5b8580fd5b50604051903d90823e3d90fd5b909350915083356001600160a01b03811691908290036107f4576020816001938293520194019201928492938892610600565b600080fd5b634e487b7160e01b83526011600452602483fd5b6020813d602011610842575b8161082660209383611811565b8101031261083e5761083790611833565b50386105bd565b8380fd5b3d9150610819565b6040513d86823e3d90fd5b61085e906117cb565b6102b5578138610560565b6040513d85823e3d90fd5b60405162461bcd60e51b8152602060048201526008602482015267084c2c840e0c2e8d60c31b6044820152606490fd5b506001600160a01b0360443511156104e8565b503461018e57606036600319011261018e576108d1611701565b6024359062ffffff821682036107f457610907916108ed61172d565b9161090260018060a01b038654163314611770565b611995565b80f35b503461018e578060031936011261018e57546040516001600160a01b039091168152602090f35b503461018e578060031936011261018e5760206040517379a02482a880bce3f13e09da970dc34db4cd24d18152f35b503461018e57602036600319011261018e5760043560038110156102b557600101546040516001600160a01b039091168152602090f35b503461018e5760c036600319011261018e576109b1611701565b6109b9611717565b906109c261172d565b6064359081151580610bde575b6109d890611840565b6001600160a01b03856e22d473030f116ddee9f6b43ac78ba3803b156102b557604051631b63c28b60e11b81523360048201523060248201526001600160a01b0386851681166044830152871660648201529082908290608490829084905af180156102c157610bca575b5050610ab8906040610a558587611eb6565b916001600160601b0360a01b9433866009541617600955610a84828916918288600a541617600a558a8a61208d565b90828a16119384600014610bae578a6401000276a4935b8551809881968295630251596160e31b84528a336004860161188f565b0393165af1928315610ba35790877f918e92f54688c51950885ac1066129bb8ecc6bff902c9746495c1074fcfbf87f95949392602099938295610b6c575b50600a5416600a5550600014610b5c5750610b10906118c8565b935b610b206084358610156118d9565b610b2c60a43533612139565b604080516001600160a01b03958616815294909116602085015283015260608201839052339180608081016106c7565b610b6691506118c8565b93610b12565b909450610b9291935060403d604011610b9c575b610b8a8183611811565b810190611879565b9290929338610af6565b503d610b80565b6040513d89823e3d90fd5b8a73fffd8963efd1fc6a506488495d951d5263988d2593610a9b565b610bd3906117cb565b6107b0578538610a43565b506001600160a01b038211156109cf565b503461018e576020806003193601126102b55760043567ffffffffffffffff811161038a57610c2290369060040161173f565b9190835b838110610c31578480f35b3385526007808452604086206001600160a01b0392919083610c5c610c57858a8961196f565b61192c565b166000528552604060002054908115610d625733885285526040872083610c87610c57858a8961196f565b1660005285528660406000205582610ca3610c5784898861196f565b60405163a9059cbb60e01b81523360048201526024810184905294918791869160449183918d91165af18015610d5757610d1e575b60019350610cea610c5784898861196f565b16906040519081527f4a34429a0ef883c4301d5b40aa8ae85d4eb024946062f2c7ebd8320acedc831a863392a35b01610c26565b8584813d8311610d50575b610d338183611811565b81010312610d4c57610d46600194611833565b50610cd8565b8780fd5b503d610d29565b6040513d8a823e3d90fd5b505060019150610d18565b503461018e578060031936011261018e5760206040516000805160206121ad8339815191528152f35b503461018e57608036600319011261018e57610ddc610db3611701565b610dbb611717565b92610dc461172d565b6001600160a01b03936064359391859190878461208d565b1693604051633850c7bd60e01b815260e081600481895afa90811561084a579082918591610e63575b5081610e12911680611919565b961691161015610e3a5750604092610e2991611919565b60c01c905b82519182526020820152f35b8160c01b91808304600160c01b14901517156106e65750604092610e5d9161194f565b90610e2e565b91505060e0813d60e011610ef0575b81610e7f60e09383611811565b8101031261083e57805190828216820361038e5760208101518060020b0361038e57610ead60408201611940565b50610eba60608201611940565b50610ec760808201611940565b5060a081015160ff81160361038e57828092610ee860c0610e129401611833565b509150610e05565b3d9150610e72565b503461018e578060031936011261018e576006546040516001600160a01b039091168152602090f35b503461018e578060031936011261018e5760206040516e22d473030f116ddee9f6b43ac78ba38152f35b503461018e57606036600319011261018e576020610f80610f6a611701565b610f72611717565b610f7a61172d565b9161208d565b6040516001600160a01b039091168152f35b503461018e578060031936011261018e576020600554604051908152f35b503461018e57606036600319011261018e573660641161018e57610fde60018060a01b038254163314611770565b6004815b6003811061101257827ffe891c6ab12cf73707f8deb6600c12ba382e4cc31eb2b0a2754cad13075ed2d18180a180f35b60019060206110208461192c565b9301928183015501610fe2565b503461018e5761010036600319011261018e57611048611701565b611050611717565b6044356001600160a01b038116900361038a5760643562ffffff808216820361038e57608435166084350361083e5760a4351515806113a5575b61109390611840565b6e22d473030f116ddee9f6b43ac78ba3803b1561038e57604051631b63c28b60e11b81523360048201523060248201526001600160a01b0360a43581166044830152851660648201529085908290608490829084905af1801561136c57611392575b50611189604061110760a43586611eb6565b336001600160601b0360a01b600954161760095561114360018060a01b03871694856001600160601b0360a01b600a541617600a55868861208d565b6001600160a01b038616851015611377576401000276a4915b8351630251596160e31b815294859384928b92849290916001600160a01b038c168b10306004860161188f565b03926001600160a01b03165af191821561136c57611235926040928790889261134c575b50600a546001600160a01b031916926001600160a01b038716111561133c57506111d6906118c8565b905b6001600160a01b03851617600a556111f56084356044358661208d565b6001600160a01b036044358116951694909410938415611321576401000276a4915b878451809681958294630251596160e31b84528a336004860161188f565b03926001600160a01b03165af191821561084a57846020959281946112fa575b5050600a80546001600160a01b0319169055156112ea5750611276906118c8565b905b61128660c4358310156118d9565b61129260e43533612139565b604080516001600160a01b039283168152604435909216602083015260a435908201526060810182905233907f918e92f54688c51950885ac1066129bb8ecc6bff902c9746495c1074fcfbf87f9080608081016106c7565b6112f491506118c8565b90611278565b90935061131791925060403d604011610b9c57610b8a8183611811565b9190919238611255565b73fffd8963efd1fc6a506488495d951d5263988d2591611217565b61134691506118c8565b906111d8565b90506113659150833d8511610b9c57610b8a8183611811565b90386111ad565b6040513d87823e3d90fd5b73fffd8963efd1fc6a506488495d951d5263988d259161115c565b61139e909491946117cb565b92386110f5565b506001600160a01b0360a435111561108a565b503461018e578060031936011261018e576020600454604051908152f35b503461018e57602036600319011261018e576113f0611701565b81546001600160a01b0391906114099083163314611770565b166001600160601b0360a01b60065416176006557ffe891c6ab12cf73707f8deb6600c12ba382e4cc31eb2b0a2754cad13075ed2d18180a180f35b503461018e576020806003193601126102b55761145f611701565b3383526007825260408084206001600160a01b0390921680855291835283205490918115611551573380855260078252604080862085875283528086208690555163a9059cbb60e01b815260048101919091526024810183905290808260448188885af1801561136c576114fd575b7f4a34429a0ef883c4301d5b40aa8ae85d4eb024946062f2c7ebd8320acedc831a91506040519283523392a380f35b8082813d831161154a575b6115128183611811565b8101031261038e576115447f4a34429a0ef883c4301d5b40aa8ae85d4eb024946062f2c7ebd8320acedc831a92611833565b506114ce565b503d611508565b6064906040519062461bcd60e51b82526004820152601060248201526f4e6f7468696e6720746f20636c61696d60801b6044820152fd5b503461018e57602036600319011261018e576115a2611701565b8154906001600160a01b03906115bb3383851614611770565b169081156115d3576001600160a01b03191617815580f35b60405162461bcd60e51b81526020600482015260096024820152682d32b9379030b2323960b91b6044820152606490fd5b503461018e57604036600319011261018e576004356024359061163160018060a01b038454163314611770565b6103e861163e83836117a8565b11611670576004556005557ffe891c6ab12cf73707f8deb6600c12ba382e4cc31eb2b0a2754cad13075ed2d18180a180f35b60405162461bcd60e51b815260206004820152600c60248201526b08ccaca40e8dede40d0d2ced60a31b6044820152606490fd5b503461018e578060031936011261018e576020604051737a250d5630b4cf539739df2c5dacb4c659f2488d8152f35b9050346102b557816003193601126102b55780737a5028bda40e7b173c278c5342087826455ea25a60209252f35b600435906001600160a01b03821682036107f457565b602435906001600160a01b03821682036107f457565b6044359062ffffff821682036107f457565b9181601f840112156107f45782359167ffffffffffffffff83116107f4576020808501948460051b0101116107f457565b1561177757565b60405162461bcd60e51b81526020600482015260096024820152682737ba1037bbb732b960b91b6044820152606490fd5b919082018092116117b557565b634e487b7160e01b600052601160045260246000fd5b67ffffffffffffffff81116117df57604052565b634e487b7160e01b600052604160045260246000fd5b6080810190811067ffffffffffffffff8211176117df57604052565b90601f8019910116810190811067ffffffffffffffff8211176117df57604052565b519081151582036107f457565b1561184757565b60405162461bcd60e51b815260206004820152600a60248201526910985908185b5bdd5b9d60b21b6044820152606490fd5b91908260409103126107f4576020825192015190565b6001600160a01b039182168152911515602083015260408201929092529116606082015260a06080820181905260009082015260c00190565b600160ff1b81146117b55760000390565b156118e057565b60405162461bcd60e51b8152602060048201526011602482015270546f6f206d75636820736c69707061676560781b6044820152606490fd5b818102929181159184041417156117b557565b356001600160a01b03811681036107f45790565b519061ffff821682036107f457565b8115611959570490565b634e487b7160e01b600052601260045260246000fd5b919081101561197f5760051b0190565b634e487b7160e01b600052603260045260246000fd5b6001600160a01b038116600081815260086020526040902054909390918215611e7a57846000526008602052600060408120557317392e5483983945deb92e0518a8f2c4eb6ba59d8514611d8f57611b24600094604092876001600160601b0360a01b600a541617600a55732cfc85d8e48f8eab294be644d9e25c303086300388108714611d6f579062ffffff732cfc85d8e48f8eab294be644d9e25c3030863003915b85516001600160a01b03948516602082019081529490931683870152166060808301919091528152611a6a816117f5565b519020825190602082019060ff60f81b8252733d28145ed2073d8b9e13c629a1043c1322af512d60611b602184015260358301526000805160206121ad833981519152605583015260558252611abf826117f5565b905190206001600160a01b0316732cfc85d8e48f8eab294be644d9e25c303086300387108614611d55576401000276a45b8351968780948193630251596160e31b835289732cfc85d8e48f8eab294be644d9e25c30308630038d10306004860161188f565b03925af18015611cfc57600093600091611d18575b50600a546001600160a01b0319169360409291732cfc85d8e48f8eab294be644d9e25c30308630039182881015611d085750611b74906118c8565b945b17600a55815162ffffff60208201927317392e5483983945deb92e0518a8f2c4eb6ba59d8452732cfc85d8e48f8eab294be644d9e25c30308630038584015216606082015260608152611bc8816117f5565b519020815190602082019060ff60f81b8252733d28145ed2073d8b9e13c629a1043c1322af512d60611b602184015260358301526000805160206121ad833981519152605583015260558252611c1d826117f5565b90519020600080548351630251596160e31b81526001600160a01b03918216600482015260248101839052604481019690965273fffd8963efd1fc6a506488495d951d5263988d25606487015260a0608487015260a48601829052859260c49284929091165af1908115611cfc57611cd16040927f626502ef77967d5c4531abad2a6f2a43b30f257e30cc352362d0eb2c61932a4894600091611cde575b50600a80546001600160a01b03191690556118c8565b82519182526020820152a2565b611cf59150843d8611610b9c57610b8a8183611811565b5038611cbb565b6040513d6000823e3d90fd5b611d1291506118c8565b94611b76565b732cfc85d8e48f8eab294be644d9e25c303086300394506040929150611d4a90833d8511610b9c57610b8a8183611811565b949094919250611b39565b73fffd8963efd1fc6a506488495d951d5263988d25611af0565b732cfc85d8e48f8eab294be644d9e25c30308630039162ffffff90611a39565b505060005460405163a9059cbb60e01b81526001600160a01b039091166004820152602481018290529091506020818060448101038160007317392e5483983945deb92e0518a8f2c4eb6ba59d5af18015611cfc57611e1c575b5060407f626502ef77967d5c4531abad2a6f2a43b30f257e30cc352362d0eb2c61932a48918151908082526020820152a2565b6020813d602011611e72575b81611e3560209383611811565b810103126107f4577f626502ef77967d5c4531abad2a6f2a43b30f257e30cc352362d0eb2c61932a4891611e6a604092611833565b509150611de9565b3d9150611e28565b60405162461bcd60e51b81526020600482015260076024820152664e6f206665657360c81b6044820152606490fd5b919082039182116117b557565b919061271060049181611ecb60045483611919565b0491611ed960055483611919565b049282611f28575b5090611ef891611efd949584611f00575b50611ea9565b611ea9565b90565b60018060a01b031660005260086020526040600020611f208582546117a8565b905538611ef2565b600090815b60038110612047575050801561200357611f5a611f54611f4d838661194f565b9283611919565b84611ea9565b9060005b60038110611fb257505090611efd9495611ef8939260018060a01b03806001541660005260076020526040600020908316600052602052611fa560406000209182546117a8565b90555b9594509091611ee1565b6001818101549091906001600160a01b0390811680611fd4575b505001611f5e565b6000526020906007825260409182600020918c1660005252600020611ffa8482546117a8565b90553880611fcc565b5090611ef891611efd949560018060a01b0380600054166000526007602052604060002090821660005260205260406000206120408482546117a8565b9055611fa8565b6001818101546001600160a01b0316612064575b50600101611f2d565b90926000198114612078570191600161205b565b601183634e487b7160e01b6000525260246000fd5b6001600160a01b039290828416848216101561212e5762ffffff9092915b8460405193816020860196168652166040840152166060820152606081526120d2816117f5565b519020604051602081019160ff60f81b8352733d28145ed2073d8b9e13c629a1043c1322af512d60611b602183015260358201526000805160206121ad833981519152605582015260558152612127816117f5565b5190201690565b9062ffffff906120ab565b6006546001600160a01b031691821515806121a3575b61215857505050565b823b156107f457604051630968013560e01b81526001600160a01b039290921660048301526024820152906000908290604490829084905af16121985750565b6121a1906117cb565b565b5080151561214f56fee34f199b19b2b4f47f68442619d555527d244f78a3297ea89325f843f87b8b54a26469706673582212202082a3499830d8df0a3f9ac20a3ca7a8c3e906db42475d02e47895c00b70975d64736f6c63430008180033","opcodes":"PUSH1 0x80 CALLVALUE PUSH3 0xF9 JUMPI PUSH1 0x1 PUSH1 0x1 PUSH1 0x40 SHL SUB SWAP1 PUSH3 0x2317 CODESIZE DUP2 SWAP1 SUB SWAP1 PUSH1 0x1F DUP3 ADD PUSH1 0x1F NOT AND DUP4 ADD SWAP1 DUP5 DUP3 GT DUP5 DUP4 LT OR PUSH3 0xFE JUMPI DUP3 SWAP2 PUSH1 0x40 MSTORE DUP4 CODECOPY DUP2 ADD PUSH1 0x60 DUP3 DUP3 SUB SLT PUSH3 0xF9 JUMPI DUP1 PUSH1 0x1F DUP4 ADD SLT ISZERO PUSH3 0xF9 JUMPI PUSH1 0x40 MLOAD SWAP3 PUSH1 0x60 DUP5 ADD SWAP1 DUP2 GT DUP5 DUP3 LT OR PUSH3 0xFE JUMPI PUSH1 0x40 MSTORE DUP3 SWAP2 PUSH1 0x60 DUP2 ADD SWAP2 DUP3 GT PUSH3 0xF9 JUMPI SWAP2 JUMPDEST DUP2 DUP4 LT PUSH3 0xD7 JUMPI PUSH1 0xC8 PUSH1 0x4 SSTORE PUSH1 0xA PUSH1 0x5 SSTORE PUSH1 0x0 DUP1 SLOAD PUSH1 0x1 PUSH1 0x1 PUSH1 0xA0 SHL SUB NOT AND CALLER OR DUP2 SSTORE DUP5 SWAP1 JUMPDEST PUSH1 0x3 DUP2 LT PUSH3 0xB7 JUMPI PUSH1 0x40 MLOAD PUSH2 0x2202 SWAP1 DUP2 PUSH3 0x115 DUP3 CODECOPY RETURN JUMPDEST DUP2 MLOAD PUSH1 0x1 PUSH1 0x1 PUSH1 0xA0 SHL SUB AND PUSH1 0x1 SWAP2 SWAP1 SWAP2 ADD SWAP1 DUP2 SSTORE PUSH1 0x20 SWAP1 SWAP2 ADD SWAP1 PUSH3 0x9E JUMP JUMPDEST DUP3 MLOAD PUSH1 0x1 PUSH1 0x1 PUSH1 0xA0 SHL SUB DUP2 AND DUP2 SUB PUSH3 0xF9 JUMPI DUP2 MSTORE PUSH1 0x20 SWAP3 DUP4 ADD SWAP3 ADD PUSH3 0x77 JUMP JUMPDEST PUSH1 0x0 DUP1 REVERT JUMPDEST PUSH4 0x4E487B71 PUSH1 0xE0 SHL PUSH1 0x0 MSTORE PUSH1 0x41 PUSH1 0x4 MSTORE PUSH1 0x24 PUSH1 0x0 REVERT INVALID PUSH1 0x80 DUP1 PUSH1 0x40 MSTORE PUSH1 0x4 CALLDATASIZE LT ISZERO PUSH2 0x13 JUMPI PUSH1 0x0 DUP1 REVERT JUMPDEST PUSH1 0x0 SWAP1 DUP2 CALLDATALOAD PUSH1 0xE0 SHR SWAP1 DUP2 PUSH4 0x8BD1A85 EQ PUSH2 0x16D3 JUMPI POP DUP1 PUSH4 0xB41A6DB EQ PUSH2 0x16A4 JUMPI DUP1 PUSH4 0xB78F9C0 EQ PUSH2 0x1604 JUMPI DUP1 PUSH4 0x13AF4035 EQ PUSH2 0x1588 JUMPI DUP1 PUSH4 0x15A0EA6A EQ PUSH2 0x1444 JUMPI DUP1 PUSH4 0x24B4FD79 EQ PUSH2 0x13D6 JUMPI DUP1 PUSH4 0x2FFDAF89 EQ PUSH2 0x13B8 JUMPI DUP1 PUSH4 0x3E3148B0 EQ PUSH2 0x102D JUMPI DUP1 PUSH4 0x501015BF EQ PUSH2 0xFB0 JUMPI DUP1 PUSH4 0x50D5E40E EQ PUSH2 0xF92 JUMPI DUP1 PUSH4 0x696D6283 EQ PUSH2 0xF4B JUMPI DUP1 PUSH4 0x6AFDD850 EQ PUSH2 0xF21 JUMPI DUP1 PUSH4 0x705BD452 EQ PUSH2 0xEF8 JUMPI DUP1 PUSH4 0x795E2C4D EQ PUSH2 0xD96 JUMPI DUP1 PUSH4 0x7E9602FC EQ PUSH2 0xD6D JUMPI DUP1 PUSH4 0x82F3AE79 EQ PUSH2 0xBEF JUMPI DUP1 PUSH4 0x833B10A4 EQ PUSH2 0x997 JUMPI DUP1 PUSH4 0x8543F9CA EQ PUSH2 0x960 JUMPI DUP1 PUSH4 0x89A30271 EQ PUSH2 0x931 JUMPI DUP1 PUSH4 0x8DA5CB5B EQ PUSH2 0x90A JUMPI DUP1 PUSH4 0x904C1853 EQ PUSH2 0x8B7 JUMPI DUP1 PUSH4 0x9224C4ED EQ PUSH2 0x499 JUMPI DUP1 PUSH4 0x95CCEA67 EQ PUSH2 0x417 JUMPI DUP1 PUSH4 0xD55BE8C6 EQ PUSH2 0x3FA JUMPI DUP1 PUSH4 0xDE061D66 EQ PUSH2 0x3CB JUMPI DUP1 PUSH4 0xF1B2A7E7 EQ PUSH2 0x392 JUMPI DUP1 PUSH4 0xFA461E33 EQ PUSH2 0x1E0 JUMPI DUP1 PUSH4 0xFC8A2B0A EQ PUSH2 0x191 JUMPI PUSH4 0xFEAA524D EQ PUSH2 0x160 JUMPI PUSH1 0x0 DUP1 REVERT JUMPDEST CALLVALUE PUSH2 0x18E JUMPI DUP1 PUSH1 0x3 NOT CALLDATASIZE ADD SLT PUSH2 0x18E JUMPI PUSH1 0x20 PUSH1 0x40 MLOAD PUSH20 0x17392E5483983945DEB92E0518A8F2C4EB6BA59D DUP2 MSTORE RETURN JUMPDEST DUP1 REVERT JUMPDEST POP CALLVALUE PUSH2 0x18E JUMPI PUSH1 0x40 CALLDATASIZE PUSH1 0x3 NOT ADD SLT PUSH2 0x18E JUMPI PUSH2 0x1AB PUSH2 0x1701 JUMP JUMPDEST PUSH1 0x40 PUSH2 0x1B5 PUSH2 0x1717 JUMP JUMPDEST SWAP3 PUSH1 0x1 DUP1 PUSH1 0xA0 SHL SUB DUP1 SWAP4 AND DUP2 MSTORE PUSH1 0x7 PUSH1 0x20 MSTORE KECCAK256 SWAP2 AND PUSH1 0x0 MSTORE PUSH1 0x20 MSTORE PUSH1 0x20 PUSH1 0x40 PUSH1 0x0 KECCAK256 SLOAD PUSH1 0x40 MLOAD SWAP1 DUP2 MSTORE RETURN JUMPDEST POP CALLVALUE PUSH2 0x18E JUMPI PUSH1 0x60 CALLDATASIZE PUSH1 0x3 NOT ADD SLT PUSH2 0x18E JUMPI PUSH1 0x24 CALLDATALOAD PUSH1 0x4 CALLDATALOAD PUSH1 0x44 CALLDATALOAD PUSH8 0xFFFFFFFFFFFFFFFF DUP1 DUP3 GT PUSH2 0x38E JUMPI CALLDATASIZE PUSH1 0x23 DUP4 ADD SLT ISZERO PUSH2 0x38E JUMPI DUP2 PUSH1 0x4 ADD CALLDATALOAD SWAP1 DUP2 GT PUSH2 0x38E JUMPI CALLDATASIZE SWAP2 ADD PUSH1 0x24 ADD GT PUSH2 0x38A JUMPI PUSH1 0xA SLOAD PUSH1 0x1 PUSH1 0x1 PUSH1 0xA0 SHL SUB SWAP1 DUP2 AND DUP1 ISZERO PUSH2 0x354 JUMPI DUP5 SWAP4 DUP5 DUP5 SGT ISZERO PUSH2 0x2CC JUMPI POP POP PUSH1 0xA SLOAD PUSH1 0x40 MLOAD PUSH4 0xA9059CBB PUSH1 0xE0 SHL DUP2 MSTORE CALLER PUSH1 0x4 DUP3 ADD MSTORE PUSH1 0x24 DUP2 ADD SWAP4 SWAP1 SWAP4 MSTORE SWAP2 SWAP3 PUSH1 0x20 SWAP3 DUP5 SWAP3 PUSH1 0x44 SWAP3 DUP5 SWAP3 SWAP1 SWAP2 AND GAS CALL DUP1 ISZERO PUSH2 0x2C1 JUMPI PUSH2 0x28B JUMPI JUMPDEST POP DUP1 RETURN JUMPDEST PUSH1 0x20 DUP2 RETURNDATASIZE PUSH1 0x20 GT PUSH2 0x2B9 JUMPI JUMPDEST DUP2 PUSH2 0x2A4 PUSH1 0x20 SWAP4 DUP4 PUSH2 0x1811 JUMP JUMPDEST DUP2 ADD SUB SLT PUSH2 0x2B5 JUMPI PUSH2 0x287 SWAP1 PUSH2 0x1833 JUMP JUMPDEST POP DUP1 REVERT JUMPDEST RETURNDATASIZE SWAP2 POP PUSH2 0x297 JUMP JUMPDEST PUSH1 0x40 MLOAD RETURNDATASIZE DUP5 DUP3 RETURNDATACOPY RETURNDATASIZE SWAP1 REVERT JUMPDEST DUP5 SWAP2 SWAP4 POP DUP1 SWAP3 POP SGT PUSH2 0x2DF JUMPI JUMPDEST POP POP POP DUP1 RETURN JUMPDEST PUSH1 0x40 MLOAD PUSH4 0xA9059CBB PUSH1 0xE0 SHL DUP2 MSTORE CALLER PUSH1 0x4 DUP3 ADD MSTORE PUSH1 0x24 DUP2 ADD SWAP2 SWAP1 SWAP2 MSTORE SWAP2 PUSH1 0x20 SWAP2 DUP4 SWAP2 PUSH1 0x44 SWAP2 DUP4 SWAP2 SWAP1 GAS CALL DUP1 ISZERO PUSH2 0x2C1 JUMPI PUSH2 0x31B JUMPI JUMPDEST DUP1 DUP3 SWAP2 PUSH2 0x2D9 JUMP JUMPDEST PUSH1 0x20 DUP2 RETURNDATASIZE PUSH1 0x20 GT PUSH2 0x34C JUMPI JUMPDEST DUP2 PUSH2 0x334 PUSH1 0x20 SWAP4 DUP4 PUSH2 0x1811 JUMP JUMPDEST DUP2 ADD SUB SLT PUSH2 0x2B5 JUMPI PUSH2 0x345 SWAP1 PUSH2 0x1833 JUMP JUMPDEST POP CODESIZE PUSH2 0x313 JUMP JUMPDEST RETURNDATASIZE SWAP2 POP PUSH2 0x327 JUMP JUMPDEST PUSH1 0x40 MLOAD PUSH3 0x461BCD PUSH1 0xE5 SHL DUP2 MSTORE PUSH1 0x20 PUSH1 0x4 DUP3 ADD MSTORE PUSH1 0xE PUSH1 0x24 DUP3 ADD MSTORE PUSH14 0x4E6F20616374697665207377617 PUSH1 0x94 SHL PUSH1 0x44 DUP3 ADD MSTORE PUSH1 0x64 SWAP1 REVERT JUMPDEST DUP3 DUP1 REVERT JUMPDEST DUP5 DUP1 REVERT JUMPDEST POP CALLVALUE PUSH2 0x18E JUMPI PUSH1 0x20 CALLDATASIZE PUSH1 0x3 NOT ADD SLT PUSH2 0x18E JUMPI PUSH1 0x20 SWAP1 PUSH1 0x40 SWAP1 PUSH1 0x1 PUSH1 0x1 PUSH1 0xA0 SHL SUB PUSH2 0x3BA PUSH2 0x1701 JUMP JUMPDEST AND DUP2 MSTORE PUSH1 0x8 DUP4 MSTORE KECCAK256 SLOAD PUSH1 0x40 MLOAD SWAP1 DUP2 MSTORE RETURN JUMPDEST POP CALLVALUE PUSH2 0x18E JUMPI DUP1 PUSH1 0x3 NOT CALLDATASIZE ADD SLT PUSH2 0x18E JUMPI PUSH1 0x20 PUSH1 0x40 MLOAD PUSH20 0x2CFC85D8E48F8EAB294BE644D9E25C3030863003 DUP2 MSTORE RETURN JUMPDEST POP CALLVALUE PUSH2 0x18E JUMPI DUP1 PUSH1 0x3 NOT CALLDATASIZE ADD SLT PUSH2 0x18E JUMPI PUSH1 0x20 PUSH1 0x40 MLOAD PUSH2 0x3E8 DUP2 MSTORE RETURN JUMPDEST POP CALLVALUE PUSH2 0x18E JUMPI PUSH1 0x40 CALLDATASIZE PUSH1 0x3 NOT ADD SLT PUSH2 0x18E JUMPI PUSH2 0x431 PUSH2 0x1701 JUMP JUMPDEST DUP2 SLOAD PUSH1 0x1 PUSH1 0x1 PUSH1 0xA0 SHL SUB SWAP2 PUSH1 0x20 SWAP2 PUSH2 0x486 SWAP2 SWAP1 DUP5 AND PUSH2 0x451 CALLER DUP3 EQ PUSH2 0x1770 JUMP JUMPDEST PUSH1 0x40 MLOAD PUSH4 0xA9059CBB PUSH1 0xE0 SHL DUP2 MSTORE PUSH1 0x1 PUSH1 0x1 PUSH1 0xA0 SHL SUB SWAP1 SWAP2 AND PUSH1 0x4 DUP3 ADD MSTORE PUSH1 0x24 DUP1 CALLDATALOAD SWAP1 DUP3 ADD MSTORE SWAP4 DUP5 SWAP3 DUP4 SWAP2 DUP8 SWAP2 DUP4 SWAP1 PUSH1 0x44 DUP3 ADD SWAP1 JUMP JUMPDEST SUB SWAP4 AND GAS CALL DUP1 ISZERO PUSH2 0x2C1 JUMPI PUSH2 0x28B JUMPI POP DUP1 RETURN JUMPDEST POP CALLVALUE PUSH2 0x18E JUMPI PUSH1 0xC0 CALLDATASIZE PUSH1 0x3 NOT ADD SLT PUSH2 0x18E JUMPI PUSH2 0x4B3 PUSH2 0x1701 JUMP JUMPDEST PUSH2 0x4BB PUSH2 0x1717 JUMP JUMPDEST PUSH1 0x84 CALLDATALOAD PUSH8 0xFFFFFFFFFFFFFFFF DUP2 GT PUSH2 0x83E JUMPI PUSH2 0x4DB SWAP1 CALLDATASIZE SWAP1 PUSH1 0x4 ADD PUSH2 0x173F JUMP JUMPDEST SWAP4 SWAP1 PUSH1 0x44 CALLDATALOAD ISZERO ISZERO DUP1 PUSH2 0x8A4 JUMPI JUMPDEST PUSH2 0x4F1 SWAP1 PUSH2 0x1840 JUMP JUMPDEST PUSH1 0x2 DUP6 LT PUSH2 0x874 JUMPI PUSH15 0x22D473030F116DDEE9F6B43AC78BA3 DUP1 EXTCODESIZE ISZERO PUSH2 0x38A JUMPI PUSH1 0x40 MLOAD PUSH4 0x1B63C28B PUSH1 0xE1 SHL DUP2 MSTORE CALLER PUSH1 0x4 DUP3 ADD MSTORE ADDRESS PUSH1 0x24 DUP3 ADD MSTORE PUSH1 0x1 PUSH1 0x1 PUSH1 0xA0 SHL SUB PUSH1 0x44 DUP1 CALLDATALOAD DUP3 AND SWAP1 DUP4 ADD MSTORE DUP7 AND PUSH1 0x64 DUP3 ADD MSTORE SWAP1 DUP4 SWAP1 DUP3 SWAP1 DUP2 DUP4 DUP2 PUSH1 0x84 DUP2 ADD SUB SWAP3 GAS CALL DUP1 ISZERO PUSH2 0x869 JUMPI SWAP1 DUP4 SWAP2 PUSH2 0x855 JUMPI JUMPDEST POP POP PUSH2 0x56E PUSH1 0x44 CALLDATALOAD DUP6 PUSH2 0x1EB6 JUMP JUMPDEST PUSH1 0x40 MLOAD PUSH4 0x95EA7B3 PUSH1 0xE0 SHL DUP2 MSTORE PUSH20 0x7A250D5630B4CF539739DF2C5DACB4C659F2488D PUSH1 0x4 DUP3 ADD MSTORE PUSH1 0x24 DUP2 ADD DUP3 SWAP1 MSTORE SWAP1 SWAP6 SWAP1 PUSH1 0x20 DUP2 PUSH1 0x44 DUP2 DUP8 PUSH1 0x1 PUSH1 0x1 PUSH1 0xA0 SHL SUB DUP12 AND GAS CALL DUP1 ISZERO PUSH2 0x84A JUMPI PUSH2 0x80D JUMPI JUMPDEST POP PUSH2 0x708 TIMESTAMP ADD TIMESTAMP GT PUSH2 0x7F9 JUMPI PUSH1 0x40 MLOAD PUSH4 0x38ED1739 PUSH1 0xE0 SHL DUP2 MSTORE PUSH1 0x4 DUP2 ADD SWAP7 SWAP1 SWAP7 MSTORE PUSH1 0x64 CALLDATALOAD PUSH1 0x24 DUP8 ADD MSTORE PUSH1 0xA0 PUSH1 0x44 DUP8 ADD MSTORE PUSH1 0xA4 DUP7 ADD DUP2 SWAP1 MSTORE DUP3 SWAP1 DUP7 SWAP1 PUSH1 0xC4 DUP3 ADD SWAP1 DUP4 SWAP1 JUMPDEST DUP1 DUP3 LT PUSH2 0x7C1 JUMPI POP POP DUP2 SWAP3 SWAP4 POP CALLER PUSH1 0x64 DUP4 ADD MSTORE PUSH2 0x708 TIMESTAMP ADD PUSH1 0x84 DUP4 ADD MSTORE SUB DUP2 DUP4 PUSH20 0x7A250D5630B4CF539739DF2C5DACB4C659F2488D GAS CALL SWAP4 DUP5 ISZERO PUSH2 0x7B4 JUMPI DUP2 SWAP5 PUSH2 0x6FA JUMPI JUMPDEST POP DUP4 MLOAD PUSH1 0x0 NOT DUP2 ADD SWAP2 SWAP1 DUP3 GT PUSH2 0x6E6 JUMPI DUP5 MLOAD DUP3 LT ISZERO PUSH2 0x6D2 JUMPI POP PUSH1 0x20 DUP1 SWAP5 PUSH32 0xB6F8AFD58B9858281E3BC6894836E7EAC569BF3B4B334D771E19C2C1CFCCB456 SWAP3 PUSH1 0x5 SHL ADD ADD MLOAD DUP1 SWAP4 PUSH2 0x699 PUSH1 0xA4 CALLDATALOAD CALLER PUSH2 0x2139 JUMP JUMPDEST PUSH1 0x40 DUP1 MLOAD PUSH1 0x1 PUSH1 0x1 PUSH1 0xA0 SHL SUB SWAP3 DUP4 AND DUP2 MSTORE SWAP5 SWAP1 SWAP2 AND PUSH1 0x20 DUP6 ADD MSTORE PUSH1 0x44 CALLDATALOAD SWAP1 DUP5 ADD MSTORE PUSH1 0x60 DUP4 ADD MSTORE CALLER SWAP2 DUP1 PUSH1 0x80 DUP2 ADD JUMPDEST SUB SWAP1 LOG2 PUSH1 0x40 MLOAD SWAP1 DUP2 MSTORE RETURN JUMPDEST PUSH4 0x4E487B71 PUSH1 0xE0 SHL DUP2 MSTORE PUSH1 0x32 PUSH1 0x4 MSTORE PUSH1 0x24 SWAP1 REVERT JUMPDEST PUSH4 0x4E487B71 PUSH1 0xE0 SHL DUP2 MSTORE PUSH1 0x11 PUSH1 0x4 MSTORE PUSH1 0x24 SWAP1 REVERT JUMPDEST SWAP1 SWAP4 POP RETURNDATASIZE DUP1 DUP6 DUP4 RETURNDATACOPY PUSH2 0x70C DUP2 DUP4 PUSH2 0x1811 JUMP JUMPDEST DUP2 ADD SWAP1 PUSH1 0x20 DUP2 DUP4 SUB SLT PUSH2 0x38E JUMPI DUP1 MLOAD SWAP1 PUSH8 0xFFFFFFFFFFFFFFFF DUP3 GT PUSH2 0x7B0 JUMPI ADD SWAP1 DUP1 PUSH1 0x1F DUP4 ADD SLT ISZERO PUSH2 0x38E JUMPI DUP2 MLOAD SWAP2 PUSH8 0xFFFFFFFFFFFFFFFF DUP4 GT PUSH2 0x79C JUMPI DUP3 PUSH1 0x5 SHL SWAP1 PUSH1 0x40 MLOAD SWAP4 PUSH2 0x760 PUSH1 0x20 DUP5 ADD DUP7 PUSH2 0x1811 JUMP JUMPDEST DUP5 MSTORE PUSH1 0x20 DUP1 DUP6 ADD SWAP3 DUP3 ADD ADD SWAP3 DUP4 GT PUSH2 0x798 JUMPI PUSH1 0x20 ADD SWAP1 JUMPDEST DUP3 DUP3 LT PUSH2 0x788 JUMPI POP POP POP SWAP3 CODESIZE PUSH2 0x645 JUMP JUMPDEST DUP2 MLOAD DUP2 MSTORE PUSH1 0x20 SWAP2 DUP3 ADD SWAP2 ADD PUSH2 0x777 JUMP JUMPDEST DUP7 DUP1 REVERT JUMPDEST PUSH4 0x4E487B71 PUSH1 0xE0 SHL DUP7 MSTORE PUSH1 0x41 PUSH1 0x4 MSTORE PUSH1 0x24 DUP7 REVERT JUMPDEST DUP6 DUP1 REVERT JUMPDEST POP PUSH1 0x40 MLOAD SWAP1 RETURNDATASIZE SWAP1 DUP3 RETURNDATACOPY RETURNDATASIZE SWAP1 REVERT JUMPDEST SWAP1 SWAP4 POP SWAP2 POP DUP4 CALLDATALOAD PUSH1 0x1 PUSH1 0x1 PUSH1 0xA0 SHL SUB DUP2 AND SWAP2 SWAP1 DUP3 SWAP1 SUB PUSH2 0x7F4 JUMPI PUSH1 0x20 DUP2 PUSH1 0x1 SWAP4 DUP3 SWAP4 MSTORE ADD SWAP5 ADD SWAP3 ADD SWAP3 DUP5 SWAP3 SWAP4 DUP9 SWAP3 PUSH2 0x600 JUMP JUMPDEST PUSH1 0x0 DUP1 REVERT JUMPDEST PUSH4 0x4E487B71 PUSH1 0xE0 SHL DUP4 MSTORE PUSH1 0x11 PUSH1 0x4 MSTORE PUSH1 0x24 DUP4 REVERT JUMPDEST PUSH1 0x20 DUP2 RETURNDATASIZE PUSH1 0x20 GT PUSH2 0x842 JUMPI JUMPDEST DUP2 PUSH2 0x826 PUSH1 0x20 SWAP4 DUP4 PUSH2 0x1811 JUMP JUMPDEST DUP2 ADD SUB SLT PUSH2 0x83E JUMPI PUSH2 0x837 SWAP1 PUSH2 0x1833 JUMP JUMPDEST POP CODESIZE PUSH2 0x5BD JUMP JUMPDEST DUP4 DUP1 REVERT JUMPDEST RETURNDATASIZE SWAP2 POP PUSH2 0x819 JUMP JUMPDEST PUSH1 0x40 MLOAD RETURNDATASIZE DUP7 DUP3 RETURNDATACOPY RETURNDATASIZE SWAP1 REVERT JUMPDEST PUSH2 0x85E SWAP1 PUSH2 0x17CB JUMP JUMPDEST PUSH2 0x2B5 JUMPI DUP2 CODESIZE PUSH2 0x560 JUMP JUMPDEST PUSH1 0x40 MLOAD RETURNDATASIZE DUP6 DUP3 RETURNDATACOPY RETURNDATASIZE SWAP1 REVERT JUMPDEST PUSH1 0x40 MLOAD PUSH3 0x461BCD PUSH1 0xE5 SHL DUP2 MSTORE PUSH1 0x20 PUSH1 0x4 DUP3 ADD MSTORE PUSH1 0x8 PUSH1 0x24 DUP3 ADD MSTORE PUSH8 0x84C2C840E0C2E8D PUSH1 0xC3 SHL PUSH1 0x44 DUP3 ADD MSTORE PUSH1 0x64 SWAP1 REVERT JUMPDEST POP PUSH1 0x1 PUSH1 0x1 PUSH1 0xA0 SHL SUB PUSH1 0x44 CALLDATALOAD GT ISZERO PUSH2 0x4E8 JUMP JUMPDEST POP CALLVALUE PUSH2 0x18E JUMPI PUSH1 0x60 CALLDATASIZE PUSH1 0x3 NOT ADD SLT PUSH2 0x18E JUMPI PUSH2 0x8D1 PUSH2 0x1701 JUMP JUMPDEST PUSH1 0x24 CALLDATALOAD SWAP1 PUSH3 0xFFFFFF DUP3 AND DUP3 SUB PUSH2 0x7F4 JUMPI PUSH2 0x907 SWAP2 PUSH2 0x8ED PUSH2 0x172D JUMP JUMPDEST SWAP2 PUSH2 0x902 PUSH1 0x1 DUP1 PUSH1 0xA0 SHL SUB DUP7 SLOAD AND CALLER EQ PUSH2 0x1770 JUMP JUMPDEST PUSH2 0x1995 JUMP JUMPDEST DUP1 RETURN JUMPDEST POP CALLVALUE PUSH2 0x18E JUMPI DUP1 PUSH1 0x3 NOT CALLDATASIZE ADD SLT PUSH2 0x18E JUMPI SLOAD PUSH1 0x40 MLOAD PUSH1 0x1 PUSH1 0x1 PUSH1 0xA0 SHL SUB SWAP1 SWAP2 AND DUP2 MSTORE PUSH1 0x20 SWAP1 RETURN JUMPDEST POP CALLVALUE PUSH2 0x18E JUMPI DUP1 PUSH1 0x3 NOT CALLDATASIZE ADD SLT PUSH2 0x18E JUMPI PUSH1 0x20 PUSH1 0x40 MLOAD PUSH20 0x79A02482A880BCE3F13E09DA970DC34DB4CD24D1 DUP2 MSTORE RETURN JUMPDEST POP CALLVALUE PUSH2 0x18E JUMPI PUSH1 0x20 CALLDATASIZE PUSH1 0x3 NOT ADD SLT PUSH2 0x18E JUMPI PUSH1 0x4 CALLDATALOAD PUSH1 0x3 DUP2 LT ISZERO PUSH2 0x2B5 JUMPI PUSH1 0x1 ADD SLOAD PUSH1 0x40 MLOAD PUSH1 0x1 PUSH1 0x1 PUSH1 0xA0 SHL SUB SWAP1 SWAP2 AND DUP2 MSTORE PUSH1 0x20 SWAP1 RETURN JUMPDEST POP CALLVALUE PUSH2 0x18E JUMPI PUSH1 0xC0 CALLDATASIZE PUSH1 0x3 NOT ADD SLT PUSH2 0x18E JUMPI PUSH2 0x9B1 PUSH2 0x1701 JUMP JUMPDEST PUSH2 0x9B9 PUSH2 0x1717 JUMP JUMPDEST SWAP1 PUSH2 0x9C2 PUSH2 0x172D JUMP JUMPDEST PUSH1 0x64 CALLDATALOAD SWAP1 DUP2 ISZERO ISZERO DUP1 PUSH2 0xBDE JUMPI JUMPDEST PUSH2 0x9D8 SWAP1 PUSH2 0x1840 JUMP JUMPDEST PUSH1 0x1 PUSH1 0x1 PUSH1 0xA0 SHL SUB DUP6 PUSH15 0x22D473030F116DDEE9F6B43AC78BA3 DUP1 EXTCODESIZE ISZERO PUSH2 0x2B5 JUMPI PUSH1 0x40 MLOAD PUSH4 0x1B63C28B PUSH1 0xE1 SHL DUP2 MSTORE CALLER PUSH1 0x4 DUP3 ADD MSTORE ADDRESS PUSH1 0x24 DUP3 ADD MSTORE PUSH1 0x1 PUSH1 0x1 PUSH1 0xA0 SHL SUB DUP7 DUP6 AND DUP2 AND PUSH1 0x44 DUP4 ADD MSTORE DUP8 AND PUSH1 0x64 DUP3 ADD MSTORE SWAP1 DUP3 SWAP1 DUP3 SWAP1 PUSH1 0x84 SWAP1 DUP3 SWAP1 DUP5 SWAP1 GAS CALL DUP1 ISZERO PUSH2 0x2C1 JUMPI PUSH2 0xBCA JUMPI JUMPDEST POP POP PUSH2 0xAB8 SWAP1 PUSH1 0x40 PUSH2 0xA55 DUP6 DUP8 PUSH2 0x1EB6 JUMP JUMPDEST SWAP2 PUSH1 0x1 PUSH1 0x1 PUSH1 0x60 SHL SUB PUSH1 0xA0 SHL SWAP5 CALLER DUP7 PUSH1 0x9 SLOAD AND OR PUSH1 0x9 SSTORE PUSH2 0xA84 DUP3 DUP10 AND SWAP2 DUP3 DUP9 PUSH1 0xA SLOAD AND OR PUSH1 0xA SSTORE DUP11 DUP11 PUSH2 0x208D JUMP JUMPDEST SWAP1 DUP3 DUP11 AND GT SWAP4 DUP5 PUSH1 0x0 EQ PUSH2 0xBAE JUMPI DUP11 PUSH5 0x1000276A4 SWAP4 JUMPDEST DUP6 MLOAD DUP1 SWAP9 DUP2 SWAP7 DUP3 SWAP6 PUSH4 0x2515961 PUSH1 0xE3 SHL DUP5 MSTORE DUP11 CALLER PUSH1 0x4 DUP7 ADD PUSH2 0x188F JUMP JUMPDEST SUB SWAP4 AND GAS CALL SWAP3 DUP4 ISZERO PUSH2 0xBA3 JUMPI SWAP1 DUP8 PUSH32 0x918E92F54688C51950885AC1066129BB8ECC6BFF902C9746495C1074FCFBF87F SWAP6 SWAP5 SWAP4 SWAP3 PUSH1 0x20 SWAP10 SWAP4 DUP3 SWAP6 PUSH2 0xB6C JUMPI JUMPDEST POP PUSH1 0xA SLOAD AND PUSH1 0xA SSTORE POP PUSH1 0x0 EQ PUSH2 0xB5C JUMPI POP PUSH2 0xB10 SWAP1 PUSH2 0x18C8 JUMP JUMPDEST SWAP4 JUMPDEST PUSH2 0xB20 PUSH1 0x84 CALLDATALOAD DUP7 LT ISZERO PUSH2 0x18D9 JUMP JUMPDEST PUSH2 0xB2C PUSH1 0xA4 CALLDATALOAD CALLER PUSH2 0x2139 JUMP JUMPDEST PUSH1 0x40 DUP1 MLOAD PUSH1 0x1 PUSH1 0x1 PUSH1 0xA0 SHL SUB SWAP6 DUP7 AND DUP2 MSTORE SWAP5 SWAP1 SWAP2 AND PUSH1 0x20 DUP6 ADD MSTORE DUP4 ADD MSTORE PUSH1 0x60 DUP3 ADD DUP4 SWAP1 MSTORE CALLER SWAP2 DUP1 PUSH1 0x80 DUP2 ADD PUSH2 0x6C7 JUMP JUMPDEST PUSH2 0xB66 SWAP2 POP PUSH2 0x18C8 JUMP JUMPDEST SWAP4 PUSH2 0xB12 JUMP JUMPDEST SWAP1 SWAP5 POP PUSH2 0xB92 SWAP2 SWAP4 POP PUSH1 0x40 RETURNDATASIZE PUSH1 0x40 GT PUSH2 0xB9C JUMPI JUMPDEST PUSH2 0xB8A DUP2 DUP4 PUSH2 0x1811 JUMP JUMPDEST DUP2 ADD SWAP1 PUSH2 0x1879 JUMP JUMPDEST SWAP3 SWAP1 SWAP3 SWAP4 CODESIZE PUSH2 0xAF6 JUMP JUMPDEST POP RETURNDATASIZE PUSH2 0xB80 JUMP JUMPDEST PUSH1 0x40 MLOAD RETURNDATASIZE DUP10 DUP3 RETURNDATACOPY RETURNDATASIZE SWAP1 REVERT JUMPDEST DUP11 PUSH20 0xFFFD8963EFD1FC6A506488495D951D5263988D25 SWAP4 PUSH2 0xA9B JUMP JUMPDEST PUSH2 0xBD3 SWAP1 PUSH2 0x17CB JUMP JUMPDEST PUSH2 0x7B0 JUMPI DUP6 CODESIZE PUSH2 0xA43 JUMP JUMPDEST POP PUSH1 0x1 PUSH1 0x1 PUSH1 0xA0 SHL SUB DUP3 GT ISZERO PUSH2 0x9CF JUMP JUMPDEST POP CALLVALUE PUSH2 0x18E JUMPI PUSH1 0x20 DUP1 PUSH1 0x3 NOT CALLDATASIZE ADD SLT PUSH2 0x2B5 JUMPI PUSH1 0x4 CALLDATALOAD PUSH8 0xFFFFFFFFFFFFFFFF DUP2 GT PUSH2 0x38A JUMPI PUSH2 0xC22 SWAP1 CALLDATASIZE SWAP1 PUSH1 0x4 ADD PUSH2 0x173F JUMP JUMPDEST SWAP2 SWAP1 DUP4 JUMPDEST DUP4 DUP2 LT PUSH2 0xC31 JUMPI DUP5 DUP1 RETURN JUMPDEST CALLER DUP6 MSTORE PUSH1 0x7 DUP1 DUP5 MSTORE PUSH1 0x40 DUP7 KECCAK256 PUSH1 0x1 PUSH1 0x1 PUSH1 0xA0 SHL SUB SWAP3 SWAP2 SWAP1 DUP4 PUSH2 0xC5C PUSH2 0xC57 DUP6 DUP11 DUP10 PUSH2 0x196F JUMP JUMPDEST PUSH2 0x192C JUMP JUMPDEST AND PUSH1 0x0 MSTORE DUP6 MSTORE PUSH1 0x40 PUSH1 0x0 KECCAK256 SLOAD SWAP1 DUP2 ISZERO PUSH2 0xD62 JUMPI CALLER DUP9 MSTORE DUP6 MSTORE PUSH1 0x40 DUP8 KECCAK256 DUP4 PUSH2 0xC87 PUSH2 0xC57 DUP6 DUP11 DUP10 PUSH2 0x196F JUMP JUMPDEST AND PUSH1 0x0 MSTORE DUP6 MSTORE DUP7 PUSH1 0x40 PUSH1 0x0 KECCAK256 SSTORE DUP3 PUSH2 0xCA3 PUSH2 0xC57 DUP5 DUP10 DUP9 PUSH2 0x196F JUMP JUMPDEST PUSH1 0x40 MLOAD PUSH4 0xA9059CBB PUSH1 0xE0 SHL DUP2 MSTORE CALLER PUSH1 0x4 DUP3 ADD MSTORE PUSH1 0x24 DUP2 ADD DUP5 SWAP1 MSTORE SWAP5 SWAP2 DUP8 SWAP2 DUP7 SWAP2 PUSH1 0x44 SWAP2 DUP4 SWAP2 DUP14 SWAP2 AND GAS CALL DUP1 ISZERO PUSH2 0xD57 JUMPI PUSH2 0xD1E JUMPI JUMPDEST PUSH1 0x1 SWAP4 POP PUSH2 0xCEA PUSH2 0xC57 DUP5 DUP10 DUP9 PUSH2 0x196F JUMP JUMPDEST AND SWAP1 PUSH1 0x40 MLOAD SWAP1 DUP2 MSTORE PUSH32 0x4A34429A0EF883C4301D5B40AA8AE85D4EB024946062F2C7EBD8320ACEDC831A DUP7 CALLER SWAP3 LOG3 JUMPDEST ADD PUSH2 0xC26 JUMP JUMPDEST DUP6 DUP5 DUP2 RETURNDATASIZE DUP4 GT PUSH2 0xD50 JUMPI JUMPDEST PUSH2 0xD33 DUP2 DUP4 PUSH2 0x1811 JUMP JUMPDEST DUP2 ADD SUB SLT PUSH2 0xD4C JUMPI PUSH2 0xD46 PUSH1 0x1 SWAP5 PUSH2 0x1833 JUMP JUMPDEST POP PUSH2 0xCD8 JUMP JUMPDEST DUP8 DUP1 REVERT JUMPDEST POP RETURNDATASIZE PUSH2 0xD29 JUMP JUMPDEST PUSH1 0x40 MLOAD RETURNDATASIZE DUP11 DUP3 RETURNDATACOPY RETURNDATASIZE SWAP1 REVERT JUMPDEST POP POP PUSH1 0x1 SWAP2 POP PUSH2 0xD18 JUMP JUMPDEST POP CALLVALUE PUSH2 0x18E JUMPI DUP1 PUSH1 0x3 NOT CALLDATASIZE ADD SLT PUSH2 0x18E JUMPI PUSH1 0x20 PUSH1 0x40 MLOAD PUSH1 0x0 DUP1 MLOAD PUSH1 0x20 PUSH2 0x21AD DUP4 CODECOPY DUP2 MLOAD SWAP2 MSTORE DUP2 MSTORE RETURN JUMPDEST POP CALLVALUE PUSH2 0x18E JUMPI PUSH1 0x80 CALLDATASIZE PUSH1 0x3 NOT ADD SLT PUSH2 0x18E JUMPI PUSH2 0xDDC PUSH2 0xDB3 PUSH2 0x1701 JUMP JUMPDEST PUSH2 0xDBB PUSH2 0x1717 JUMP JUMPDEST SWAP3 PUSH2 0xDC4 PUSH2 0x172D JUMP JUMPDEST PUSH1 0x1 PUSH1 0x1 PUSH1 0xA0 SHL SUB SWAP4 PUSH1 0x64 CALLDATALOAD SWAP4 SWAP2 DUP6 SWAP2 SWAP1 DUP8 DUP5 PUSH2 0x208D JUMP JUMPDEST AND SWAP4 PUSH1 0x40 MLOAD PUSH4 0x3850C7BD PUSH1 0xE0 SHL DUP2 MSTORE PUSH1 0xE0 DUP2 PUSH1 0x4 DUP2 DUP10 GAS STATICCALL SWAP1 DUP2 ISZERO PUSH2 0x84A JUMPI SWAP1 DUP3 SWAP2 DUP6 SWAP2 PUSH2 0xE63 JUMPI JUMPDEST POP DUP2 PUSH2 0xE12 SWAP2 AND DUP1 PUSH2 0x1919 JUMP JUMPDEST SWAP7 AND SWAP2 AND LT ISZERO PUSH2 0xE3A JUMPI POP PUSH1 0x40 SWAP3 PUSH2 0xE29 SWAP2 PUSH2 0x1919 JUMP JUMPDEST PUSH1 0xC0 SHR SWAP1 JUMPDEST DUP3 MLOAD SWAP2 DUP3 MSTORE PUSH1 0x20 DUP3 ADD MSTORE RETURN JUMPDEST DUP2 PUSH1 0xC0 SHL SWAP2 DUP1 DUP4 DIV PUSH1 0x1 PUSH1 0xC0 SHL EQ SWAP1 ISZERO OR ISZERO PUSH2 0x6E6 JUMPI POP PUSH1 0x40 SWAP3 PUSH2 0xE5D SWAP2 PUSH2 0x194F JUMP JUMPDEST SWAP1 PUSH2 0xE2E JUMP JUMPDEST SWAP2 POP POP PUSH1 0xE0 DUP2 RETURNDATASIZE PUSH1 0xE0 GT PUSH2 0xEF0 JUMPI JUMPDEST DUP2 PUSH2 0xE7F PUSH1 0xE0 SWAP4 DUP4 PUSH2 0x1811 JUMP JUMPDEST DUP2 ADD SUB SLT PUSH2 0x83E JUMPI DUP1 MLOAD SWAP1 DUP3 DUP3 AND DUP3 SUB PUSH2 0x38E JUMPI PUSH1 0x20 DUP2 ADD MLOAD DUP1 PUSH1 0x2 SIGNEXTEND SUB PUSH2 0x38E JUMPI PUSH2 0xEAD PUSH1 0x40 DUP3 ADD PUSH2 0x1940 JUMP JUMPDEST POP PUSH2 0xEBA PUSH1 0x60 DUP3 ADD PUSH2 0x1940 JUMP JUMPDEST POP PUSH2 0xEC7 PUSH1 0x80 DUP3 ADD PUSH2 0x1940 JUMP JUMPDEST POP PUSH1 0xA0 DUP2 ADD MLOAD PUSH1 0xFF DUP2 AND SUB PUSH2 0x38E JUMPI DUP3 DUP1 SWAP3 PUSH2 0xEE8 PUSH1 0xC0 PUSH2 0xE12 SWAP5 ADD PUSH2 0x1833 JUMP JUMPDEST POP SWAP2 POP PUSH2 0xE05 JUMP JUMPDEST RETURNDATASIZE SWAP2 POP PUSH2 0xE72 JUMP JUMPDEST POP CALLVALUE PUSH2 0x18E JUMPI DUP1 PUSH1 0x3 NOT CALLDATASIZE ADD SLT PUSH2 0x18E JUMPI PUSH1 0x6 SLOAD PUSH1 0x40 MLOAD PUSH1 0x1 PUSH1 0x1 PUSH1 0xA0 SHL SUB SWAP1 SWAP2 AND DUP2 MSTORE PUSH1 0x20 SWAP1 RETURN JUMPDEST POP CALLVALUE PUSH2 0x18E JUMPI DUP1 PUSH1 0x3 NOT CALLDATASIZE ADD SLT PUSH2 0x18E JUMPI PUSH1 0x20 PUSH1 0x40 MLOAD PUSH15 0x22D473030F116DDEE9F6B43AC78BA3 DUP2 MSTORE RETURN JUMPDEST POP CALLVALUE PUSH2 0x18E JUMPI PUSH1 0x60 CALLDATASIZE PUSH1 0x3 NOT ADD SLT PUSH2 0x18E JUMPI PUSH1 0x20 PUSH2 0xF80 PUSH2 0xF6A PUSH2 0x1701 JUMP JUMPDEST PUSH2 0xF72 PUSH2 0x1717 JUMP JUMPDEST PUSH2 0xF7A PUSH2 0x172D JUMP JUMPDEST SWAP2 PUSH2 0x208D JUMP JUMPDEST PUSH1 0x40 MLOAD PUSH1 0x1 PUSH1 0x1 PUSH1 0xA0 SHL SUB SWAP1 SWAP2 AND DUP2 MSTORE RETURN JUMPDEST POP CALLVALUE PUSH2 0x18E JUMPI DUP1 PUSH1 0x3 NOT CALLDATASIZE ADD SLT PUSH2 0x18E JUMPI PUSH1 0x20 PUSH1 0x5 SLOAD PUSH1 0x40 MLOAD SWAP1 DUP2 MSTORE RETURN JUMPDEST POP CALLVALUE PUSH2 0x18E JUMPI PUSH1 0x60 CALLDATASIZE PUSH1 0x3 NOT ADD SLT PUSH2 0x18E JUMPI CALLDATASIZE PUSH1 0x64 GT PUSH2 0x18E JUMPI PUSH2 0xFDE PUSH1 0x1 DUP1 PUSH1 0xA0 SHL SUB DUP3 SLOAD AND CALLER EQ PUSH2 0x1770 JUMP JUMPDEST PUSH1 0x4 DUP2 JUMPDEST PUSH1 0x3 DUP2 LT PUSH2 0x1012 JUMPI DUP3 PUSH32 0xFE891C6AB12CF73707F8DEB6600C12BA382E4CC31EB2B0A2754CAD13075ED2D1 DUP2 DUP1 LOG1 DUP1 RETURN JUMPDEST PUSH1 0x1 SWAP1 PUSH1 0x20 PUSH2 0x1020 DUP5 PUSH2 0x192C JUMP JUMPDEST SWAP4 ADD SWAP3 DUP2 DUP4 ADD SSTORE ADD PUSH2 0xFE2 JUMP JUMPDEST POP CALLVALUE PUSH2 0x18E JUMPI PUSH2 0x100 CALLDATASIZE PUSH1 0x3 NOT ADD SLT PUSH2 0x18E JUMPI PUSH2 0x1048 PUSH2 0x1701 JUMP JUMPDEST PUSH2 0x1050 PUSH2 0x1717 JUMP JUMPDEST PUSH1 0x44 CALLDATALOAD PUSH1 0x1 PUSH1 0x1 PUSH1 0xA0 SHL SUB DUP2 AND SWAP1 SUB PUSH2 0x38A JUMPI PUSH1 0x64 CALLDATALOAD PUSH3 0xFFFFFF DUP1 DUP3 AND DUP3 SUB PUSH2 0x38E JUMPI PUSH1 0x84 CALLDATALOAD AND PUSH1 0x84 CALLDATALOAD SUB PUSH2 0x83E JUMPI PUSH1 0xA4 CALLDATALOAD ISZERO ISZERO DUP1 PUSH2 0x13A5 JUMPI JUMPDEST PUSH2 0x1093 SWAP1 PUSH2 0x1840 JUMP JUMPDEST PUSH15 0x22D473030F116DDEE9F6B43AC78BA3 DUP1 EXTCODESIZE ISZERO PUSH2 0x38E JUMPI PUSH1 0x40 MLOAD PUSH4 0x1B63C28B PUSH1 0xE1 SHL DUP2 MSTORE CALLER PUSH1 0x4 DUP3 ADD MSTORE ADDRESS PUSH1 0x24 DUP3 ADD MSTORE PUSH1 0x1 PUSH1 0x1 PUSH1 0xA0 SHL SUB PUSH1 0xA4 CALLDATALOAD DUP2 AND PUSH1 0x44 DUP4 ADD MSTORE DUP6 AND PUSH1 0x64 DUP3 ADD MSTORE SWAP1 DUP6 SWAP1 DUP3 SWAP1 PUSH1 0x84 SWAP1 DUP3 SWAP1 DUP5 SWAP1 GAS CALL DUP1 ISZERO PUSH2 0x136C JUMPI PUSH2 0x1392 JUMPI JUMPDEST POP PUSH2 0x1189 PUSH1 0x40 PUSH2 0x1107 PUSH1 0xA4 CALLDATALOAD DUP7 PUSH2 0x1EB6 JUMP JUMPDEST CALLER PUSH1 0x1 PUSH1 0x1 PUSH1 0x60 SHL SUB PUSH1 0xA0 SHL PUSH1 0x9 SLOAD AND OR PUSH1 0x9 SSTORE PUSH2 0x1143 PUSH1 0x1 DUP1 PUSH1 0xA0 SHL SUB DUP8 AND SWAP5 DUP6 PUSH1 0x1 PUSH1 0x1 PUSH1 0x60 SHL SUB PUSH1 0xA0 SHL PUSH1 0xA SLOAD AND OR PUSH1 0xA SSTORE DUP7 DUP9 PUSH2 0x208D JUMP JUMPDEST PUSH1 0x1 PUSH1 0x1 PUSH1 0xA0 SHL SUB DUP7 AND DUP6 LT ISZERO PUSH2 0x1377 JUMPI PUSH5 0x1000276A4 SWAP2 JUMPDEST DUP4 MLOAD PUSH4 0x2515961 PUSH1 0xE3 SHL DUP2 MSTORE SWAP5 DUP6 SWAP4 DUP5 SWAP3 DUP12 SWAP3 DUP5 SWAP3 SWAP1 SWAP2 PUSH1 0x1 PUSH1 0x1 PUSH1 0xA0 SHL SUB DUP13 AND DUP12 LT ADDRESS PUSH1 0x4 DUP7 ADD PUSH2 0x188F JUMP JUMPDEST SUB SWAP3 PUSH1 0x1 PUSH1 0x1 PUSH1 0xA0 SHL SUB AND GAS CALL SWAP2 DUP3 ISZERO PUSH2 0x136C JUMPI PUSH2 0x1235 SWAP3 PUSH1 0x40 SWAP3 DUP8 SWAP1 DUP9 SWAP3 PUSH2 0x134C JUMPI JUMPDEST POP PUSH1 0xA SLOAD PUSH1 0x1 PUSH1 0x1 PUSH1 0xA0 SHL SUB NOT AND SWAP3 PUSH1 0x1 PUSH1 0x1 PUSH1 0xA0 SHL SUB DUP8 AND GT ISZERO PUSH2 0x133C JUMPI POP PUSH2 0x11D6 SWAP1 PUSH2 0x18C8 JUMP JUMPDEST SWAP1 JUMPDEST PUSH1 0x1 PUSH1 0x1 PUSH1 0xA0 SHL SUB DUP6 AND OR PUSH1 0xA SSTORE PUSH2 0x11F5 PUSH1 0x84 CALLDATALOAD PUSH1 0x44 CALLDATALOAD DUP7 PUSH2 0x208D JUMP JUMPDEST PUSH1 0x1 PUSH1 0x1 PUSH1 0xA0 SHL SUB PUSH1 0x44 CALLDATALOAD DUP2 AND SWAP6 AND SWAP5 SWAP1 SWAP5 LT SWAP4 DUP5 ISZERO PUSH2 0x1321 JUMPI PUSH5 0x1000276A4 SWAP2 JUMPDEST DUP8 DUP5 MLOAD DUP1 SWAP7 DUP2 SWAP6 DUP3 SWAP5 PUSH4 0x2515961 PUSH1 0xE3 SHL DUP5 MSTORE DUP11 CALLER PUSH1 0x4 DUP7 ADD PUSH2 0x188F JUMP JUMPDEST SUB SWAP3 PUSH1 0x1 PUSH1 0x1 PUSH1 0xA0 SHL SUB AND GAS CALL SWAP2 DUP3 ISZERO PUSH2 0x84A JUMPI DUP5 PUSH1 0x20 SWAP6 SWAP3 DUP2 SWAP5 PUSH2 0x12FA JUMPI JUMPDEST POP POP PUSH1 0xA DUP1 SLOAD PUSH1 0x1 PUSH1 0x1 PUSH1 0xA0 SHL SUB NOT AND SWAP1 SSTORE ISZERO PUSH2 0x12EA JUMPI POP PUSH2 0x1276 SWAP1 PUSH2 0x18C8 JUMP JUMPDEST SWAP1 JUMPDEST PUSH2 0x1286 PUSH1 0xC4 CALLDATALOAD DUP4 LT ISZERO PUSH2 0x18D9 JUMP JUMPDEST PUSH2 0x1292 PUSH1 0xE4 CALLDATALOAD CALLER PUSH2 0x2139 JUMP JUMPDEST PUSH1 0x40 DUP1 MLOAD PUSH1 0x1 PUSH1 0x1 PUSH1 0xA0 SHL SUB SWAP3 DUP4 AND DUP2 MSTORE PUSH1 0x44 CALLDATALOAD SWAP1 SWAP3 AND PUSH1 0x20 DUP4 ADD MSTORE PUSH1 0xA4 CALLDATALOAD SWAP1 DUP3 ADD MSTORE PUSH1 0x60 DUP2 ADD DUP3 SWAP1 MSTORE CALLER SWAP1 PUSH32 0x918E92F54688C51950885AC1066129BB8ECC6BFF902C9746495C1074FCFBF87F SWAP1 DUP1 PUSH1 0x80 DUP2 ADD PUSH2 0x6C7 JUMP JUMPDEST PUSH2 0x12F4 SWAP2 POP PUSH2 0x18C8 JUMP JUMPDEST SWAP1 PUSH2 0x1278 JUMP JUMPDEST SWAP1 SWAP4 POP PUSH2 0x1317 SWAP2 SWAP3 POP PUSH1 0x40 RETURNDATASIZE PUSH1 0x40 GT PUSH2 0xB9C JUMPI PUSH2 0xB8A DUP2 DUP4 PUSH2 0x1811 JUMP JUMPDEST SWAP2 SWAP1 SWAP2 SWAP3 CODESIZE PUSH2 0x1255 JUMP JUMPDEST PUSH20 0xFFFD8963EFD1FC6A506488495D951D5263988D25 SWAP2 PUSH2 0x1217 JUMP JUMPDEST PUSH2 0x1346 SWAP2 POP PUSH2 0x18C8 JUMP JUMPDEST SWAP1 PUSH2 0x11D8 JUMP JUMPDEST SWAP1 POP PUSH2 0x1365 SWAP2 POP DUP4 RETURNDATASIZE DUP6 GT PUSH2 0xB9C JUMPI PUSH2 0xB8A DUP2 DUP4 PUSH2 0x1811 JUMP JUMPDEST SWAP1 CODESIZE PUSH2 0x11AD JUMP JUMPDEST PUSH1 0x40 MLOAD RETURNDATASIZE DUP8 DUP3 RETURNDATACOPY RETURNDATASIZE SWAP1 REVERT JUMPDEST PUSH20 0xFFFD8963EFD1FC6A506488495D951D5263988D25 SWAP2 PUSH2 0x115C JUMP JUMPDEST PUSH2 0x139E SWAP1 SWAP5 SWAP2 SWAP5 PUSH2 0x17CB JUMP JUMPDEST SWAP3 CODESIZE PUSH2 0x10F5 JUMP JUMPDEST POP PUSH1 0x1 PUSH1 0x1 PUSH1 0xA0 SHL SUB PUSH1 0xA4 CALLDATALOAD GT ISZERO PUSH2 0x108A JUMP JUMPDEST POP CALLVALUE PUSH2 0x18E JUMPI DUP1 PUSH1 0x3 NOT CALLDATASIZE ADD SLT PUSH2 0x18E JUMPI PUSH1 0x20 PUSH1 0x4 SLOAD PUSH1 0x40 MLOAD SWAP1 DUP2 MSTORE RETURN JUMPDEST POP CALLVALUE PUSH2 0x18E JUMPI PUSH1 0x20 CALLDATASIZE PUSH1 0x3 NOT ADD SLT PUSH2 0x18E JUMPI PUSH2 0x13F0 PUSH2 0x1701 JUMP JUMPDEST DUP2 SLOAD PUSH1 0x1 PUSH1 0x1 PUSH1 0xA0 SHL SUB SWAP2 SWAP1 PUSH2 0x1409 SWAP1 DUP4 AND CALLER EQ PUSH2 0x1770 JUMP JUMPDEST AND PUSH1 0x1 PUSH1 0x1 PUSH1 0x60 SHL SUB PUSH1 0xA0 SHL PUSH1 0x6 SLOAD AND OR PUSH1 0x6 SSTORE PUSH32 0xFE891C6AB12CF73707F8DEB6600C12BA382E4CC31EB2B0A2754CAD13075ED2D1 DUP2 DUP1 LOG1 DUP1 RETURN JUMPDEST POP CALLVALUE PUSH2 0x18E JUMPI PUSH1 0x20 DUP1 PUSH1 0x3 NOT CALLDATASIZE ADD SLT PUSH2 0x2B5 JUMPI PUSH2 0x145F PUSH2 0x1701 JUMP JUMPDEST CALLER DUP4 MSTORE PUSH1 0x7 DUP3 MSTORE PUSH1 0x40 DUP1 DUP5 KECCAK256 PUSH1 0x1 PUSH1 0x1 PUSH1 0xA0 SHL SUB SWAP1 SWAP3 AND DUP1 DUP6 MSTORE SWAP2 DUP4 MSTORE DUP4 KECCAK256 SLOAD SWAP1 SWAP2 DUP2 ISZERO PUSH2 0x1551 JUMPI CALLER DUP1 DUP6 MSTORE PUSH1 0x7 DUP3 MSTORE PUSH1 0x40 DUP1 DUP7 KECCAK256 DUP6 DUP8 MSTORE DUP4 MSTORE DUP1 DUP7 KECCAK256 DUP7 SWAP1 SSTORE MLOAD PUSH4 0xA9059CBB PUSH1 0xE0 SHL DUP2 MSTORE PUSH1 0x4 DUP2 ADD SWAP2 SWAP1 SWAP2 MSTORE PUSH1 0x24 DUP2 ADD DUP4 SWAP1 MSTORE SWAP1 DUP1 DUP3 PUSH1 0x44 DUP2 DUP9 DUP9 GAS CALL DUP1 ISZERO PUSH2 0x136C JUMPI PUSH2 0x14FD JUMPI JUMPDEST PUSH32 0x4A34429A0EF883C4301D5B40AA8AE85D4EB024946062F2C7EBD8320ACEDC831A SWAP2 POP PUSH1 0x40 MLOAD SWAP3 DUP4 MSTORE CALLER SWAP3 LOG3 DUP1 RETURN JUMPDEST DUP1 DUP3 DUP2 RETURNDATASIZE DUP4 GT PUSH2 0x154A JUMPI JUMPDEST PUSH2 0x1512 DUP2 DUP4 PUSH2 0x1811 JUMP JUMPDEST DUP2 ADD SUB SLT PUSH2 0x38E JUMPI PUSH2 0x1544 PUSH32 0x4A34429A0EF883C4301D5B40AA8AE85D4EB024946062F2C7EBD8320ACEDC831A SWAP3 PUSH2 0x1833 JUMP JUMPDEST POP PUSH2 0x14CE JUMP JUMPDEST POP RETURNDATASIZE PUSH2 0x1508 JUMP JUMPDEST PUSH1 0x64 SWAP1 PUSH1 0x40 MLOAD SWAP1 PUSH3 0x461BCD PUSH1 0xE5 SHL DUP3 MSTORE PUSH1 0x4 DUP3 ADD MSTORE PUSH1 0x10 PUSH1 0x24 DUP3 ADD MSTORE PUSH16 0x4E6F7468696E6720746F20636C61696D PUSH1 0x80 SHL PUSH1 0x44 DUP3 ADD MSTORE REVERT JUMPDEST POP CALLVALUE PUSH2 0x18E JUMPI PUSH1 0x20 CALLDATASIZE PUSH1 0x3 NOT ADD SLT PUSH2 0x18E JUMPI PUSH2 0x15A2 PUSH2 0x1701 JUMP JUMPDEST DUP2 SLOAD SWAP1 PUSH1 0x1 PUSH1 0x1 PUSH1 0xA0 SHL SUB SWAP1 PUSH2 0x15BB CALLER DUP4 DUP6 AND EQ PUSH2 0x1770 JUMP JUMPDEST AND SWAP1 DUP2 ISZERO PUSH2 0x15D3 JUMPI PUSH1 0x1 PUSH1 0x1 PUSH1 0xA0 SHL SUB NOT AND OR DUP2 SSTORE DUP1 RETURN JUMPDEST PUSH1 0x40 MLOAD PUSH3 0x461BCD PUSH1 0xE5 SHL DUP2 MSTORE PUSH1 0x20 PUSH1 0x4 DUP3 ADD MSTORE PUSH1 0x9 PUSH1 0x24 DUP3 ADD MSTORE PUSH9 0x2D32B9379030B23239 PUSH1 0xB9 SHL PUSH1 0x44 DUP3 ADD MSTORE PUSH1 0x64 SWAP1 REVERT JUMPDEST POP CALLVALUE PUSH2 0x18E JUMPI PUSH1 0x40 CALLDATASIZE PUSH1 0x3 NOT ADD SLT PUSH2 0x18E JUMPI PUSH1 0x4 CALLDATALOAD PUSH1 0x24 CALLDATALOAD SWAP1 PUSH2 0x1631 PUSH1 0x1 DUP1 PUSH1 0xA0 SHL SUB DUP5 SLOAD AND CALLER EQ PUSH2 0x1770 JUMP JUMPDEST PUSH2 0x3E8 PUSH2 0x163E DUP4 DUP4 PUSH2 0x17A8 JUMP JUMPDEST GT PUSH2 0x1670 JUMPI PUSH1 0x4 SSTORE PUSH1 0x5 SSTORE PUSH32 0xFE891C6AB12CF73707F8DEB6600C12BA382E4CC31EB2B0A2754CAD13075ED2D1 DUP2 DUP1 LOG1 DUP1 RETURN JUMPDEST PUSH1 0x40 MLOAD PUSH3 0x461BCD PUSH1 0xE5 SHL DUP2 MSTORE PUSH1 0x20 PUSH1 0x4 DUP3 ADD MSTORE PUSH1 0xC PUSH1 0x24 DUP3 ADD MSTORE PUSH12 0x8CCACA40E8DEDE40D0D2CED PUSH1 0xA3 SHL PUSH1 0x44 DUP3 ADD MSTORE PUSH1 0x64 SWAP1 REVERT JUMPDEST POP CALLVALUE PUSH2 0x18E JUMPI DUP1 PUSH1 0x3 NOT CALLDATASIZE ADD SLT PUSH2 0x18E JUMPI PUSH1 0x20 PUSH1 0x40 MLOAD PUSH20 0x7A250D5630B4CF539739DF2C5DACB4C659F2488D DUP2 MSTORE RETURN JUMPDEST SWAP1 POP CALLVALUE PUSH2 0x2B5 JUMPI DUP2 PUSH1 0x3 NOT CALLDATASIZE ADD SLT PUSH2 0x2B5 JUMPI DUP1 PUSH20 0x7A5028BDA40E7B173C278C5342087826455EA25A PUSH1 0x20 SWAP3 MSTORE RETURN JUMPDEST PUSH1 0x4 CALLDATALOAD SWAP1 PUSH1 0x1 PUSH1 0x1 PUSH1 0xA0 SHL SUB DUP3 AND DUP3 SUB PUSH2 0x7F4 JUMPI JUMP JUMPDEST PUSH1 0x24 CALLDATALOAD SWAP1 PUSH1 0x1 PUSH1 0x1 PUSH1 0xA0 SHL SUB DUP3 AND DUP3 SUB PUSH2 0x7F4 JUMPI JUMP JUMPDEST PUSH1 0x44 CALLDATALOAD SWAP1 PUSH3 0xFFFFFF DUP3 AND DUP3 SUB PUSH2 0x7F4 JUMPI JUMP JUMPDEST SWAP2 DUP2 PUSH1 0x1F DUP5 ADD SLT ISZERO PUSH2 0x7F4 JUMPI DUP3 CALLDATALOAD SWAP2 PUSH8 0xFFFFFFFFFFFFFFFF DUP4 GT PUSH2 0x7F4 JUMPI PUSH1 0x20 DUP1 DUP6 ADD SWAP5 DUP5 PUSH1 0x5 SHL ADD ADD GT PUSH2 0x7F4 JUMPI JUMP JUMPDEST ISZERO PUSH2 0x1777 JUMPI JUMP JUMPDEST PUSH1 0x40 MLOAD PUSH3 0x461BCD PUSH1 0xE5 SHL DUP2 MSTORE PUSH1 0x20 PUSH1 0x4 DUP3 ADD MSTORE PUSH1 0x9 PUSH1 0x24 DUP3 ADD MSTORE PUSH9 0x2737BA1037BBB732B9 PUSH1 0xB9 SHL PUSH1 0x44 DUP3 ADD MSTORE PUSH1 0x64 SWAP1 REVERT JUMPDEST SWAP2 SWAP1 DUP3 ADD DUP1 SWAP3 GT PUSH2 0x17B5 JUMPI JUMP JUMPDEST PUSH4 0x4E487B71 PUSH1 0xE0 SHL PUSH1 0x0 MSTORE PUSH1 0x11 PUSH1 0x4 MSTORE PUSH1 0x24 PUSH1 0x0 REVERT JUMPDEST PUSH8 0xFFFFFFFFFFFFFFFF DUP2 GT PUSH2 0x17DF JUMPI PUSH1 0x40 MSTORE JUMP JUMPDEST PUSH4 0x4E487B71 PUSH1 0xE0 SHL PUSH1 0x0 MSTORE PUSH1 0x41 PUSH1 0x4 MSTORE PUSH1 0x24 PUSH1 0x0 REVERT JUMPDEST PUSH1 0x80 DUP2 ADD SWAP1 DUP2 LT PUSH8 0xFFFFFFFFFFFFFFFF DUP3 GT OR PUSH2 0x17DF JUMPI PUSH1 0x40 MSTORE JUMP JUMPDEST SWAP1 PUSH1 0x1F DUP1 NOT SWAP2 ADD AND DUP2 ADD SWAP1 DUP2 LT PUSH8 0xFFFFFFFFFFFFFFFF DUP3 GT OR PUSH2 0x17DF JUMPI PUSH1 0x40 MSTORE JUMP JUMPDEST MLOAD SWAP1 DUP2 ISZERO ISZERO DUP3 SUB PUSH2 0x7F4 JUMPI JUMP JUMPDEST ISZERO PUSH2 0x1847 JUMPI JUMP JUMPDEST PUSH1 0x40 MLOAD PUSH3 0x461BCD PUSH1 0xE5 SHL DUP2 MSTORE PUSH1 0x20 PUSH1 0x4 DUP3 ADD MSTORE PUSH1 0xA PUSH1 0x24 DUP3 ADD MSTORE PUSH10 0x10985908185B5BDD5B9D PUSH1 0xB2 SHL PUSH1 0x44 DUP3 ADD MSTORE PUSH1 0x64 SWAP1 REVERT JUMPDEST SWAP2 SWAP1 DUP3 PUSH1 0x40 SWAP2 SUB SLT PUSH2 0x7F4 JUMPI PUSH1 0x20 DUP3 MLOAD SWAP3 ADD MLOAD SWAP1 JUMP JUMPDEST PUSH1 0x1 PUSH1 0x1 PUSH1 0xA0 SHL SUB SWAP2 DUP3 AND DUP2 MSTORE SWAP2 ISZERO ISZERO PUSH1 0x20 DUP4 ADD MSTORE PUSH1 0x40 DUP3 ADD SWAP3 SWAP1 SWAP3 MSTORE SWAP2 AND PUSH1 0x60 DUP3 ADD MSTORE PUSH1 0xA0 PUSH1 0x80 DUP3 ADD DUP2 SWAP1 MSTORE PUSH1 0x0 SWAP1 DUP3 ADD MSTORE PUSH1 0xC0 ADD SWAP1 JUMP JUMPDEST PUSH1 0x1 PUSH1 0xFF SHL DUP2 EQ PUSH2 0x17B5 JUMPI PUSH1 0x0 SUB SWAP1 JUMP JUMPDEST ISZERO PUSH2 0x18E0 JUMPI JUMP JUMPDEST PUSH1 0x40 MLOAD PUSH3 0x461BCD PUSH1 0xE5 SHL DUP2 MSTORE PUSH1 0x20 PUSH1 0x4 DUP3 ADD MSTORE PUSH1 0x11 PUSH1 0x24 DUP3 ADD MSTORE PUSH17 0x546F6F206D75636820736C697070616765 PUSH1 0x78 SHL PUSH1 0x44 DUP3 ADD MSTORE PUSH1 0x64 SWAP1 REVERT JUMPDEST DUP2 DUP2 MUL SWAP3 SWAP2 DUP2 ISZERO SWAP2 DUP5 DIV EQ OR ISZERO PUSH2 0x17B5 JUMPI JUMP JUMPDEST CALLDATALOAD PUSH1 0x1 PUSH1 0x1 PUSH1 0xA0 SHL SUB DUP2 AND DUP2 SUB PUSH2 0x7F4 JUMPI SWAP1 JUMP JUMPDEST MLOAD SWAP1 PUSH2 0xFFFF DUP3 AND DUP3 SUB PUSH2 0x7F4 JUMPI JUMP JUMPDEST DUP2 ISZERO PUSH2 0x1959 JUMPI DIV SWAP1 JUMP JUMPDEST PUSH4 0x4E487B71 PUSH1 0xE0 SHL PUSH1 0x0 MSTORE PUSH1 0x12 PUSH1 0x4 MSTORE PUSH1 0x24 PUSH1 0x0 REVERT JUMPDEST SWAP2 SWAP1 DUP2 LT ISZERO PUSH2 0x197F JUMPI PUSH1 0x5 SHL ADD SWAP1 JUMP JUMPDEST PUSH4 0x4E487B71 PUSH1 0xE0 SHL PUSH1 0x0 MSTORE PUSH1 0x32 PUSH1 0x4 MSTORE PUSH1 0x24 PUSH1 0x0 REVERT JUMPDEST PUSH1 0x1 PUSH1 0x1 PUSH1 0xA0 SHL SUB DUP2 AND PUSH1 0x0 DUP2 DUP2 MSTORE PUSH1 0x8 PUSH1 0x20 MSTORE PUSH1 0x40 SWAP1 KECCAK256 SLOAD SWAP1 SWAP4 SWAP1 SWAP2 DUP3 ISZERO PUSH2 0x1E7A JUMPI DUP5 PUSH1 0x0 MSTORE PUSH1 0x8 PUSH1 0x20 MSTORE PUSH1 0x0 PUSH1 0x40 DUP2 KECCAK256 SSTORE PUSH20 0x17392E5483983945DEB92E0518A8F2C4EB6BA59D DUP6 EQ PUSH2 0x1D8F JUMPI PUSH2 0x1B24 PUSH1 0x0 SWAP5 PUSH1 0x40 SWAP3 DUP8 PUSH1 0x1 PUSH1 0x1 PUSH1 0x60 SHL SUB PUSH1 0xA0 SHL PUSH1 0xA SLOAD AND OR PUSH1 0xA SSTORE PUSH20 0x2CFC85D8E48F8EAB294BE644D9E25C3030863003 DUP9 LT DUP8 EQ PUSH2 0x1D6F JUMPI SWAP1 PUSH3 0xFFFFFF PUSH20 0x2CFC85D8E48F8EAB294BE644D9E25C3030863003 SWAP2 JUMPDEST DUP6 MLOAD PUSH1 0x1 PUSH1 0x1 PUSH1 0xA0 SHL SUB SWAP5 DUP6 AND PUSH1 0x20 DUP3 ADD SWAP1 DUP2 MSTORE SWAP5 SWAP1 SWAP4 AND DUP4 DUP8 ADD MSTORE AND PUSH1 0x60 DUP1 DUP4 ADD SWAP2 SWAP1 SWAP2 MSTORE DUP2 MSTORE PUSH2 0x1A6A DUP2 PUSH2 0x17F5 JUMP JUMPDEST MLOAD SWAP1 KECCAK256 DUP3 MLOAD SWAP1 PUSH1 0x20 DUP3 ADD SWAP1 PUSH1 0xFF PUSH1 0xF8 SHL DUP3 MSTORE PUSH20 0x3D28145ED2073D8B9E13C629A1043C1322AF512D PUSH1 0x61 SHL PUSH1 0x21 DUP5 ADD MSTORE PUSH1 0x35 DUP4 ADD MSTORE PUSH1 0x0 DUP1 MLOAD PUSH1 0x20 PUSH2 0x21AD DUP4 CODECOPY DUP2 MLOAD SWAP2 MSTORE PUSH1 0x55 DUP4 ADD MSTORE PUSH1 0x55 DUP3 MSTORE PUSH2 0x1ABF DUP3 PUSH2 0x17F5 JUMP JUMPDEST SWAP1 MLOAD SWAP1 KECCAK256 PUSH1 0x1 PUSH1 0x1 PUSH1 0xA0 SHL SUB AND PUSH20 0x2CFC85D8E48F8EAB294BE644D9E25C3030863003 DUP8 LT DUP7 EQ PUSH2 0x1D55 JUMPI PUSH5 0x1000276A4 JUMPDEST DUP4 MLOAD SWAP7 DUP8 DUP1 SWAP5 DUP2 SWAP4 PUSH4 0x2515961 PUSH1 0xE3 SHL DUP4 MSTORE DUP10 PUSH20 0x2CFC85D8E48F8EAB294BE644D9E25C3030863003 DUP14 LT ADDRESS PUSH1 0x4 DUP7 ADD PUSH2 0x188F JUMP JUMPDEST SUB SWAP3 GAS CALL DUP1 ISZERO PUSH2 0x1CFC JUMPI PUSH1 0x0 SWAP4 PUSH1 0x0 SWAP2 PUSH2 0x1D18 JUMPI JUMPDEST POP PUSH1 0xA SLOAD PUSH1 0x1 PUSH1 0x1 PUSH1 0xA0 SHL SUB NOT AND SWAP4 PUSH1 0x40 SWAP3 SWAP2 PUSH20 0x2CFC85D8E48F8EAB294BE644D9E25C3030863003 SWAP2 DUP3 DUP9 LT ISZERO PUSH2 0x1D08 JUMPI POP PUSH2 0x1B74 SWAP1 PUSH2 0x18C8 JUMP JUMPDEST SWAP5 JUMPDEST OR PUSH1 0xA SSTORE DUP2 MLOAD PUSH3 0xFFFFFF PUSH1 0x20 DUP3 ADD SWAP3 PUSH20 0x17392E5483983945DEB92E0518A8F2C4EB6BA59D DUP5 MSTORE PUSH20 0x2CFC85D8E48F8EAB294BE644D9E25C3030863003 DUP6 DUP5 ADD MSTORE AND PUSH1 0x60 DUP3 ADD MSTORE PUSH1 0x60 DUP2 MSTORE PUSH2 0x1BC8 DUP2 PUSH2 0x17F5 JUMP JUMPDEST MLOAD SWAP1 KECCAK256 DUP2 MLOAD SWAP1 PUSH1 0x20 DUP3 ADD SWAP1 PUSH1 0xFF PUSH1 0xF8 SHL DUP3 MSTORE PUSH20 0x3D28145ED2073D8B9E13C629A1043C1322AF512D PUSH1 0x61 SHL PUSH1 0x21 DUP5 ADD MSTORE PUSH1 0x35 DUP4 ADD MSTORE PUSH1 0x0 DUP1 MLOAD PUSH1 0x20 PUSH2 0x21AD DUP4 CODECOPY DUP2 MLOAD SWAP2 MSTORE PUSH1 0x55 DUP4 ADD MSTORE PUSH1 0x55 DUP3 MSTORE PUSH2 0x1C1D DUP3 PUSH2 0x17F5 JUMP JUMPDEST SWAP1 MLOAD SWAP1 KECCAK256 PUSH1 0x0 DUP1 SLOAD DUP4 MLOAD PUSH4 0x2515961 PUSH1 0xE3 SHL DUP2 MSTORE PUSH1 0x1 PUSH1 0x1 PUSH1 0xA0 SHL SUB SWAP2 DUP3 AND PUSH1 0x4 DUP3 ADD MSTORE PUSH1 0x24 DUP2 ADD DUP4 SWAP1 MSTORE PUSH1 0x44 DUP2 ADD SWAP7 SWAP1 SWAP7 MSTORE PUSH20 0xFFFD8963EFD1FC6A506488495D951D5263988D25 PUSH1 0x64 DUP8 ADD MSTORE PUSH1 0xA0 PUSH1 0x84 DUP8 ADD MSTORE PUSH1 0xA4 DUP7 ADD DUP3 SWAP1 MSTORE DUP6 SWAP3 PUSH1 0xC4 SWAP3 DUP5 SWAP3 SWAP1 SWAP2 AND GAS CALL SWAP1 DUP2 ISZERO PUSH2 0x1CFC JUMPI PUSH2 0x1CD1 PUSH1 0x40 SWAP3 PUSH32 0x626502EF77967D5C4531ABAD2A6F2A43B30F257E30CC352362D0EB2C61932A48 SWAP5 PUSH1 0x0 SWAP2 PUSH2 0x1CDE JUMPI JUMPDEST POP PUSH1 0xA DUP1 SLOAD PUSH1 0x1 PUSH1 0x1 PUSH1 0xA0 SHL SUB NOT AND SWAP1 SSTORE PUSH2 0x18C8 JUMP JUMPDEST DUP3 MLOAD SWAP2 DUP3 MSTORE PUSH1 0x20 DUP3 ADD MSTORE LOG2 JUMP JUMPDEST PUSH2 0x1CF5 SWAP2 POP DUP5 RETURNDATASIZE DUP7 GT PUSH2 0xB9C JUMPI PUSH2 0xB8A DUP2 DUP4 PUSH2 0x1811 JUMP JUMPDEST POP CODESIZE PUSH2 0x1CBB JUMP JUMPDEST PUSH1 0x40 MLOAD RETURNDATASIZE PUSH1 0x0 DUP3 RETURNDATACOPY RETURNDATASIZE SWAP1 REVERT JUMPDEST PUSH2 0x1D12 SWAP2 POP PUSH2 0x18C8 JUMP JUMPDEST SWAP5 PUSH2 0x1B76 JUMP JUMPDEST PUSH20 0x2CFC85D8E48F8EAB294BE644D9E25C3030863003 SWAP5 POP PUSH1 0x40 SWAP3 SWAP2 POP PUSH2 0x1D4A SWAP1 DUP4 RETURNDATASIZE DUP6 GT PUSH2 0xB9C JUMPI PUSH2 0xB8A DUP2 DUP4 PUSH2 0x1811 JUMP JUMPDEST SWAP5 SWAP1 SWAP5 SWAP2 SWAP3 POP PUSH2 0x1B39 JUMP JUMPDEST PUSH20 0xFFFD8963EFD1FC6A506488495D951D5263988D25 PUSH2 0x1AF0 JUMP JUMPDEST PUSH20 0x2CFC85D8E48F8EAB294BE644D9E25C3030863003 SWAP2 PUSH3 0xFFFFFF SWAP1 PUSH2 0x1A39 JUMP JUMPDEST POP POP PUSH1 0x0 SLOAD PUSH1 0x40 MLOAD PUSH4 0xA9059CBB PUSH1 0xE0 SHL DUP2 MSTORE PUSH1 0x1 PUSH1 0x1 PUSH1 0xA0 SHL SUB SWAP1 SWAP2 AND PUSH1 0x4 DUP3 ADD MSTORE PUSH1 0x24 DUP2 ADD DUP3 SWAP1 MSTORE SWAP1 SWAP2 POP PUSH1 0x20 DUP2 DUP1 PUSH1 0x44 DUP2 ADD SUB DUP2 PUSH1 0x0 PUSH20 0x17392E5483983945DEB92E0518A8F2C4EB6BA59D GAS CALL DUP1 ISZERO PUSH2 0x1CFC JUMPI PUSH2 0x1E1C JUMPI JUMPDEST POP PUSH1 0x40 PUSH32 0x626502EF77967D5C4531ABAD2A6F2A43B30F257E30CC352362D0EB2C61932A48 SWAP2 DUP2 MLOAD SWAP1 DUP1 DUP3 MSTORE PUSH1 0x20 DUP3 ADD MSTORE LOG2 JUMP JUMPDEST PUSH1 0x20 DUP2 RETURNDATASIZE PUSH1 0x20 GT PUSH2 0x1E72 JUMPI JUMPDEST DUP2 PUSH2 0x1E35 PUSH1 0x20 SWAP4 DUP4 PUSH2 0x1811 JUMP JUMPDEST DUP2 ADD SUB SLT PUSH2 0x7F4 JUMPI PUSH32 0x626502EF77967D5C4531ABAD2A6F2A43B30F257E30CC352362D0EB2C61932A48 SWAP2 PUSH2 0x1E6A PUSH1 0x40 SWAP3 PUSH2 0x1833 JUMP JUMPDEST POP SWAP2 POP PUSH2 0x1DE9 JUMP JUMPDEST RETURNDATASIZE SWAP2 POP PUSH2 0x1E28 JUMP JUMPDEST PUSH1 0x40 MLOAD PUSH3 0x461BCD PUSH1 0xE5 SHL DUP2 MSTORE PUSH1 0x20 PUSH1 0x4 DUP3 ADD MSTORE PUSH1 0x7 PUSH1 0x24 DUP3 ADD MSTORE PUSH7 0x4E6F2066656573 PUSH1 0xC8 SHL PUSH1 0x44 DUP3 ADD MSTORE PUSH1 0x64 SWAP1 REVERT JUMPDEST SWAP2 SWAP1 DUP3 SUB SWAP2 DUP3 GT PUSH2 0x17B5 JUMPI JUMP JUMPDEST SWAP2 SWAP1 PUSH2 0x2710 PUSH1 0x4 SWAP2 DUP2 PUSH2 0x1ECB PUSH1 0x4 SLOAD DUP4 PUSH2 0x1919 JUMP JUMPDEST DIV SWAP2 PUSH2 0x1ED9 PUSH1 0x5 SLOAD DUP4 PUSH2 0x1919 JUMP JUMPDEST DIV SWAP3 DUP3 PUSH2 0x1F28 JUMPI JUMPDEST POP SWAP1 PUSH2 0x1EF8 SWAP2 PUSH2 0x1EFD SWAP5 SWAP6 DUP5 PUSH2 0x1F00 JUMPI JUMPDEST POP PUSH2 0x1EA9 JUMP JUMPDEST PUSH2 0x1EA9 JUMP JUMPDEST SWAP1 JUMP JUMPDEST PUSH1 0x1 DUP1 PUSH1 0xA0 SHL SUB AND PUSH1 0x0 MSTORE PUSH1 0x8 PUSH1 0x20 MSTORE PUSH1 0x40 PUSH1 0x0 KECCAK256 PUSH2 0x1F20 DUP6 DUP3 SLOAD PUSH2 0x17A8 JUMP JUMPDEST SWAP1 SSTORE CODESIZE PUSH2 0x1EF2 JUMP JUMPDEST PUSH1 0x0 SWAP1 DUP2 JUMPDEST PUSH1 0x3 DUP2 LT PUSH2 0x2047 JUMPI POP POP DUP1 ISZERO PUSH2 0x2003 JUMPI PUSH2 0x1F5A PUSH2 0x1F54 PUSH2 0x1F4D DUP4 DUP7 PUSH2 0x194F JUMP JUMPDEST SWAP3 DUP4 PUSH2 0x1919 JUMP JUMPDEST DUP5 PUSH2 0x1EA9 JUMP JUMPDEST SWAP1 PUSH1 0x0 JUMPDEST PUSH1 0x3 DUP2 LT PUSH2 0x1FB2 JUMPI POP POP SWAP1 PUSH2 0x1EFD SWAP5 SWAP6 PUSH2 0x1EF8 SWAP4 SWAP3 PUSH1 0x1 DUP1 PUSH1 0xA0 SHL SUB DUP1 PUSH1 0x1 SLOAD AND PUSH1 0x0 MSTORE PUSH1 0x7 PUSH1 0x20 MSTORE PUSH1 0x40 PUSH1 0x0 KECCAK256 SWAP1 DUP4 AND PUSH1 0x0 MSTORE PUSH1 0x20 MSTORE PUSH2 0x1FA5 PUSH1 0x40 PUSH1 0x0 KECCAK256 SWAP2 DUP3 SLOAD PUSH2 0x17A8 JUMP JUMPDEST SWAP1 SSTORE JUMPDEST SWAP6 SWAP5 POP SWAP1 SWAP2 PUSH2 0x1EE1 JUMP JUMPDEST PUSH1 0x1 DUP2 DUP2 ADD SLOAD SWAP1 SWAP2 SWAP1 PUSH1 0x1 PUSH1 0x1 PUSH1 0xA0 SHL SUB SWAP1 DUP2 AND DUP1 PUSH2 0x1FD4 JUMPI JUMPDEST POP POP ADD PUSH2 0x1F5E JUMP JUMPDEST PUSH1 0x0 MSTORE PUSH1 0x20 SWAP1 PUSH1 0x7 DUP3 MSTORE PUSH1 0x40 SWAP2 DUP3 PUSH1 0x0 KECCAK256 SWAP2 DUP13 AND PUSH1 0x0 MSTORE MSTORE PUSH1 0x0 KECCAK256 PUSH2 0x1FFA DUP5 DUP3 SLOAD PUSH2 0x17A8 JUMP JUMPDEST SWAP1 SSTORE CODESIZE DUP1 PUSH2 0x1FCC JUMP JUMPDEST POP SWAP1 PUSH2 0x1EF8 SWAP2 PUSH2 0x1EFD SWAP5 SWAP6 PUSH1 0x1 DUP1 PUSH1 0xA0 SHL SUB DUP1 PUSH1 0x0 SLOAD AND PUSH1 0x0 MSTORE PUSH1 0x7 PUSH1 0x20 MSTORE PUSH1 0x40 PUSH1 0x0 KECCAK256 SWAP1 DUP3 AND PUSH1 0x0 MSTORE PUSH1 0x20 MSTORE PUSH1 0x40 PUSH1 0x0 KECCAK256 PUSH2 0x2040 DUP5 DUP3 SLOAD PUSH2 0x17A8 JUMP JUMPDEST SWAP1 SSTORE PUSH2 0x1FA8 JUMP JUMPDEST PUSH1 0x1 DUP2 DUP2 ADD SLOAD PUSH1 0x1 PUSH1 0x1 PUSH1 0xA0 SHL SUB AND PUSH2 0x2064 JUMPI JUMPDEST POP PUSH1 0x1 ADD PUSH2 0x1F2D JUMP JUMPDEST SWAP1 SWAP3 PUSH1 0x0 NOT DUP2 EQ PUSH2 0x2078 JUMPI ADD SWAP2 PUSH1 0x1 PUSH2 0x205B JUMP JUMPDEST PUSH1 0x11 DUP4 PUSH4 0x4E487B71 PUSH1 0xE0 SHL PUSH1 0x0 MSTORE MSTORE PUSH1 0x24 PUSH1 0x0 REVERT JUMPDEST PUSH1 0x1 PUSH1 0x1 PUSH1 0xA0 SHL SUB SWAP3 SWAP1 DUP3 DUP5 AND DUP5 DUP3 AND LT ISZERO PUSH2 0x212E JUMPI PUSH3 0xFFFFFF SWAP1 SWAP3 SWAP2 JUMPDEST DUP5 PUSH1 0x40 MLOAD SWAP4 DUP2 PUSH1 0x20 DUP7 ADD SWAP7 AND DUP7 MSTORE AND PUSH1 0x40 DUP5 ADD MSTORE AND PUSH1 0x60 DUP3 ADD MSTORE PUSH1 0x60 DUP2 MSTORE PUSH2 0x20D2 DUP2 PUSH2 0x17F5 JUMP JUMPDEST MLOAD SWAP1 KECCAK256 PUSH1 0x40 MLOAD PUSH1 0x20 DUP2 ADD SWAP2 PUSH1 0xFF PUSH1 0xF8 SHL DUP4 MSTORE PUSH20 0x3D28145ED2073D8B9E13C629A1043C1322AF512D PUSH1 0x61 SHL PUSH1 0x21 DUP4 ADD MSTORE PUSH1 0x35 DUP3 ADD MSTORE PUSH1 0x0 DUP1 MLOAD PUSH1 0x20 PUSH2 0x21AD DUP4 CODECOPY DUP2 MLOAD SWAP2 MSTORE PUSH1 0x55 DUP3 ADD MSTORE PUSH1 0x55 DUP2 MSTORE PUSH2 0x2127 DUP2 PUSH2 0x17F5 JUMP JUMPDEST MLOAD SWAP1 KECCAK256 AND SWAP1 JUMP JUMPDEST SWAP1 PUSH3 0xFFFFFF SWAP1 PUSH2 0x20AB JUMP JUMPDEST PUSH1 0x6 SLOAD PUSH1 0x1 PUSH1 0x1 PUSH1 0xA0 SHL SUB AND SWAP2 DUP3 ISZERO ISZERO DUP1 PUSH2 0x21A3 JUMPI JUMPDEST PUSH2 0x2158 JUMPI POP POP POP JUMP JUMPDEST DUP3 EXTCODESIZE ISZERO PUSH2 0x7F4 JUMPI PUSH1 0x40 MLOAD PUSH4 0x9680135 PUSH1 0xE0 SHL DUP2 MSTORE PUSH1 0x1 PUSH1 0x1 PUSH1 0xA0 SHL SUB SWAP3 SWAP1 SWAP3 AND PUSH1 0x4 DUP4 ADD MSTORE PUSH1 0x24 DUP3 ADD MSTORE SWAP1 PUSH1 0x0 SWAP1 DUP3 SWAP1 PUSH1 0x44 SWAP1 DUP3 SWAP1 DUP5 SWAP1 GAS CALL PUSH2 0x2198 JUMPI POP JUMP JUMPDEST PUSH2 0x21A1 SWAP1 PUSH2 0x17CB JUMP JUMPDEST JUMP JUMPDEST POP DUP1 ISZERO ISZERO PUSH2 0x214F JUMP INVALID 0xE3 0x4F NOT SWAP12 NOT 0xB2 0xB4 DELEGATECALL PUSH32 0x68442619D555527D244F78A3297EA89325F843F87B8B54A26469706673582212 KECCAK256 KECCAK256 DUP3 LOG3 BLOBHASH SWAP9 ADDRESS 0xD8 0xDF EXP EXTCODEHASH SWAP11 0xC2 EXP EXTCODECOPY 0xA7 0xA8 0xC3 0xE9 MOD 0xDB TIMESTAMP SELFBALANCE TSTORE MUL 0xE4 PUSH25 0x95C00B70975D64736F6C634300081800330000000000000000 "},"methodIdentifiers":{"H2O()":"feaa524d","MAX_FEE_BPS()":"d55be8c6","PERMIT2()":"6afdd850","ROUTER_V2()":"0b41a6db","USDC()":"89a30271","V3_FACTORY()":"08bd1a85","V3_POOL_INIT_CODE_HASH()":"7e9602fc","WLD()":"de061d66","buybackH2O(address,uint24,uint24)":"904c1853","claimFees(address)":"15a0ea6a","claimFeesBatch(address[])":"82f3ae79","emergencyWithdraw(address,uint256)":"95ccea67","feeOwners(uint256)":"8543f9ca","getPoolAddress(address,address,uint24)":"696d6283","h2oFeeBps()":"50d5e40e","h2oFeePool(address)":"f1b2a7e7","owner()":"8da5cb5b","ownerFees(address,address)":"fc8a2b0a","quoteSingle(address,address,uint24,uint256)":"795e2c4d","setFeeOwners(address[3])":"501015bf","setFees(uint256,uint256)":"0b78f9c0","setOwner(address)":"13af4035","setVolumeRewards(address)":"24b4fd79","swapFeeBps()":"2ffdaf89","swapV2(address,address,uint256,uint256,address[],uint256)":"9224c4ed","swapV3Multi(address,address,address,uint24,uint24,uint256,uint256,uint256)":"3e3148b0","swapV3Single(address,address,uint24,uint256,uint256,uint256)":"833b10a4","uniswapV3SwapCallback(int256,int256,bytes)":"fa461e33","volumeRewards()":"705bd452"}}}}}