{"contracts/H2OVIPSubscription.sol":{"H2OVIPSubscription":{"abi":[{"inputs":[{"internalType":"address","name":"_uth2","type":"address"},{"internalType":"address","name":"_h2o","type":"address"},{"internalType":"address","name":"_staking","type":"address"}],"stateMutability":"nonpayable","type":"constructor"},{"inputs":[],"name":"H2O","outputs":[{"internalType":"address","name":"","type":"address"}],"stateMutability":"view","type":"function"},{"inputs":[],"name":"STAKING","outputs":[{"internalType":"address","name":"","type":"address"}],"stateMutability":"view","type":"function"},{"inputs":[],"name":"UTH2","outputs":[{"internalType":"address","name":"","type":"address"}],"stateMutability":"view","type":"function"},{"inputs":[{"internalType":"uint256","name":"months_","type":"uint256"},{"components":[{"components":[{"internalType":"address","name":"token","type":"address"},{"internalType":"uint256","name":"amount","type":"uint256"}],"internalType":"struct IPermit2.TokenPermissions","name":"permitted","type":"tuple"},{"internalType":"uint256","name":"nonce","type":"uint256"},{"internalType":"uint256","name":"deadline","type":"uint256"}],"internalType":"struct IPermit2.PermitTransferFrom","name":"permit","type":"tuple"},{"internalType":"bytes","name":"sig","type":"bytes"}],"name":"buyVIPWithPermit2","outputs":[],"stateMutability":"nonpayable","type":"function"},{"inputs":[],"name":"claimOwnerVip","outputs":[],"stateMutability":"nonpayable","type":"function"},{"inputs":[{"internalType":"address","name":"","type":"address"}],"name":"holderShares","outputs":[{"internalType":"uint256","name":"","type":"uint256"}],"stateMutability":"view","type":"function"},{"inputs":[{"internalType":"address","name":"user","type":"address"}],"name":"isVIP","outputs":[{"internalType":"bool","name":"","type":"bool"}],"stateMutability":"view","type":"function"},{"inputs":[],"name":"owner","outputs":[{"internalType":"address","name":"","type":"address"}],"stateMutability":"view","type":"function"},{"inputs":[{"internalType":"address","name":"user","type":"address"}],"name":"pendingReward","outputs":[{"internalType":"uint256","name":"","type":"uint256"}],"stateMutability":"view","type":"function"},{"inputs":[],"name":"pullFromStaking","outputs":[],"stateMutability":"nonpayable","type":"function"},{"inputs":[{"internalType":"address","name":"token","type":"address"},{"internalType":"uint256","name":"amount","type":"uint256"}],"name":"rescueToken","outputs":[],"stateMutability":"nonpayable","type":"function"},{"inputs":[{"internalType":"address","name":"","type":"address"}],"name":"rewardDebt","outputs":[{"internalType":"uint256","name":"","type":"uint256"}],"stateMutability":"view","type":"function"},{"inputs":[],"name":"rewardPerShare","outputs":[{"internalType":"uint256","name":"","type":"uint256"}],"stateMutability":"view","type":"function"},{"inputs":[{"internalType":"address","name":"newOwner","type":"address"}],"name":"setOwner","outputs":[],"stateMutability":"nonpayable","type":"function"},{"inputs":[],"name":"totalHolderShares","outputs":[{"internalType":"uint256","name":"","type":"uint256"}],"stateMutability":"view","type":"function"},{"inputs":[],"name":"vipDuration","outputs":[{"internalType":"uint256","name":"","type":"uint256"}],"stateMutability":"view","type":"function"},{"inputs":[{"internalType":"address","name":"","type":"address"}],"name":"vipExpire","outputs":[{"internalType":"uint256","name":"","type":"uint256"}],"stateMutability":"view","type":"function"},{"inputs":[],"name":"vipPrice","outputs":[{"internalType":"uint256","name":"","type":"uint256"}],"stateMutability":"view","type":"function"}],"evm":{"bytecode":{"linkReferences":{},"object":"60e08060405234620001615760608162000f88803803809162000023828562000166565b83398101031262000161576200003981620001a0565b6200005560406200004d60208501620001a0565b9301620001a0565b608082905260a09290925260c0829052600080546001600160a01b0319163317815560405163095ea7b360e01b81526001600160a01b039384166004820152600019602482015290929091602091839160449183918791165af18015620001565762000110575b604051610dd29081620001b682396080518181816101430152610575015260a05181818160fc015281816102ad0152610bb7015260c0518181816103f40152818161066701528181610a470152610b730152f35b6020813d6020116200014d575b816200012c6020938362000166565b8101031262000149575180151503620001465780620000bc565b80fd5b5080fd5b3d91506200011d565b6040513d84823e3d90fd5b600080fd5b601f909101601f19168101906001600160401b038211908210176200018a57604052565b634e487b7160e01b600052604160045260246000fd5b51906001600160a01b0382168203620001615756fe6040608081526004908136101561001557600080fd5b600091823560e01c90816313af40351461092f57816333f3d628146108855781633711b23f1461086857816337ef4b15146104dd578163446a2ec8146104bb5781635873eb9b14610483578163765d6b741461044b5781638da5cb5b1461042357816397610f30146103df578163991bbde7146103a7578163a093370114610389578163cb8304691461021457508063db6ff135146101f5578063f40f0f52146101c9578063f4201c3c14610190578063f49c622914610172578063f6c08a2e1461012f5763feaa524d146100e957600080fd5b3461012b578160031936011261012b57517f00000000000000000000000000000000000000000000000000000000000000006001600160a01b03168152602090f35b5080fd5b503461012b578160031936011261012b57517f00000000000000000000000000000000000000000000000000000000000000006001600160a01b03168152602090f35b503461012b578160031936011261012b576020906003549051908152f35b503461012b57602036600319011261012b5760209181906001600160a01b036101b761097b565b16815260018452205490519042108152f35b503461012b57602036600319011261012b576020906101ee6101e961097b565b610b01565b9051908152f35b823461021157806003193601126102115761020e610b4d565b80f35b80fd5b83833461012b578160031936011261012b5761022e610b4d565b3382526020906002825280832054801561035357670de0b6b3a764000061026b865492338752600586526102658588205485610af4565b90610abe565b0490811561031d57338086526005855283862091909155825163a9059cbb60e01b815280870191825260208201929092529091908390839081906040010381877f00000000000000000000000000000000000000000000000000000000000000006001600160a01b03165af190811561031457506102e7578280f35b8161030692903d1061030d575b6102fe81836109f8565b810190610a1a565b5081808280f35b503d6102f4565b513d85823e3d90fd5b825162461bcd60e51b8152808701859052601060248201526f6e6f7468696e6720746f20636c61696d60801b6044820152606490fd5b815162461bcd60e51b8152808601849052601060248201526f3737ba1030902b24a8103437b63232b960811b6044820152606490fd5b50503461012b578160031936011261012b576020905162278d008152f35b50503461012b57602036600319011261012b5760209181906001600160a01b036103cf61097b565b1681526001845220549051908152f35b50503461012b578160031936011261012b57517f00000000000000000000000000000000000000000000000000000000000000006001600160a01b03168152602090f35b50503461012b578160031936011261012b57905490516001600160a01b039091168152602090f35b50503461012b57602036600319011261012b5760209181906001600160a01b0361047361097b565b1681526002845220549051908152f35b50503461012b57602036600319011261012b5760209181906001600160a01b036104ab61097b565b1681526005845220549051908152f35b9050346104d957826003193601126104d95760209250549051908152f35b8280fd5b919050346104d95760c03660031901126104d95781359160803660231901126108645760a4359267ffffffffffffffff9081851161077a573660238601121561077a5784830135918083116107a557602492368482890101116108605782151580610855575b156108225761055983610554610a32565b610abe565b6001600160a01b039290919085358481169081900361081e57847f00000000000000000000000000000000000000000000000000000000000000001681036107ee57604435938085106107bb57895192838b01908111848210176107a957908c949392918b5230835260209b8c84019182526e22d473030f116ddee9f6b43ac78ba393843b156107a5578a9587938a8f938f94519b8c9a8b998a9763187945bd60e11b895288015286015260643560448601526084356064860152511660848401525160a48301523360c483015261010060e483015280610104830152808c6101249401848401378181018301849052601f01601f191681010301925af1801561079b57610788575b5086907f000000000000000000000000000000000000000000000000000000000000000016803b1561012b5781809185885180948193637414aed960e11b8352888b8401525af1801561077e57610766575b505033865260018552838620544281111561075f575b62278d00918083029283040361074d57906106e491610ae7565b3386526001855283862055600284528285205415610700578480f35b610708610b4d565b33855260028452600183862055600354906001820180921161073c5750600355543384526005909252822055388080808480f35b634e487b7160e01b86526011835285fd5b634e487b7160e01b8752601184528287fd5b50426106ca565b61076f906109ce565b61077a5785386106b4565b8580fd5b86513d84823e3d90fd5b610794909791976109ce565b9538610662565b86513d8a823e3d90fd5b8680fd5b634e487b7160e01b8d5260418a52888dfd5b895162461bcd60e51b81526020818b0152600e818a01526d616d6f756e7420746f6f206c6f7760901b6044820152606490fd5b885162461bcd60e51b81526020818a0152600b818901526a3bb937b733903a37b5b2b760a91b6044820152606490fd5b8a80fd5b855162461bcd60e51b8152602081870152600e818601526d696e76616c6964206d6f6e74687360901b6044820152606490fd5b50600c831115610543565b8780fd5b8380fd5b50503461012b578160031936011261012b576020906101ee610a32565b919050346104d957806003193601126104d95760206108f5926108a661097b565b85546001600160a01b039081169087906108c1338414610996565b865163a9059cbb60e01b81526001600160a01b03909316948301948552602435602086015291968794859391849160400190565b0393165af1908115610926575061090a575080f35b6109229060203d60201161030d576102fe81836109f8565b5080f35b513d84823e3d90fd5b83346102115760203660031901126102115761094961097b565b8154906001600160a01b03906109623383851614610996565b16906bffffffffffffffffffffffff60a01b1617815580f35b600435906001600160a01b038216820361099157565b600080fd5b1561099d57565b60405162461bcd60e51b81526020600482015260096024820152683737ba1037bbb732b960b91b6044820152606490fd5b67ffffffffffffffff81116109e257604052565b634e487b7160e01b600052604160045260246000fd5b90601f8019910116810190811067ffffffffffffffff8211176109e257604052565b90816020910312610991575180151581036109915790565b604051633711b23f60e01b81526020816004817f00000000000000000000000000000000000000000000000000000000000000006001600160a01b03165afa908115610ab257600091610a83575090565b90506020813d602011610aaa575b81610a9e602093836109f8565b81010312610991575190565b3d9150610a91565b6040513d6000823e3d90fd5b81810292918115918404141715610ad157565b634e487b7160e01b600052601160045260246000fd5b91908201809211610ad157565b91908203918211610ad157565b6001600160a01b03166000908152600260205260409020548015610b4757610b43670de0b6b3a764000091610265600454600560205260406000205490610af4565b0490565b50600090565b6040805163e702da8360e01b815230600480830191909152916000916001600160a01b037f0000000000000000000000000000000000000000000000000000000000000000811691602091908281602481875afa908115610d92578691610d65575b5015610d5d577f000000000000000000000000000000000000000000000000000000000000000016908351926370a0823160e01b9081855230888601528285602481875afa948515610d53578795610d24575b50803b156107a5578680918988518094819363cb83046960e01b83525af1610d11575b50819060248651809581938252308b8301525afa938415610d0857508493610cd8575b505080821180610ccd575b610c5e575b50505050565b610c6791610af4565b90670de0b6b3a764000091828102928184041490151715610cba5750600354908115610ca55790610c9a91048254610ae7565b905538808080610c58565b601283634e487b7160e01b6000525260246000fd5b634e487b7160e01b815260118352602490fd5b506003541515610c53565b9080929350813d8311610d01575b610cf081836109f8565b810103126109915751903880610c48565b503d610ce6565b513d86823e3d90fd5b95610d1d8392976109ce565b9590610c25565b9094508281813d8311610d4c575b610d3c81836109f8565b810103126107a557519338610c02565b503d610d32565b86513d89823e3d90fd5b505050505050565b90508281813d8311610d8b575b610d7c81836109f8565b8101031261077a575138610baf565b503d610d72565b85513d88823e3d90fdfea26469706673582212207ae4c39c60554743132afd9a01dd0b65df4d6998656d89736e4fa9d44f99777664736f6c63430008180033","opcodes":"PUSH1 0xE0 DUP1 PUSH1 0x40 MSTORE CALLVALUE PUSH3 0x161 JUMPI PUSH1 0x60 DUP2 PUSH3 0xF88 DUP1 CODESIZE SUB DUP1 SWAP2 PUSH3 0x23 DUP3 DUP6 PUSH3 0x166 JUMP JUMPDEST DUP4 CODECOPY DUP2 ADD SUB SLT PUSH3 0x161 JUMPI PUSH3 0x39 DUP2 PUSH3 0x1A0 JUMP JUMPDEST PUSH3 0x55 PUSH1 0x40 PUSH3 0x4D PUSH1 0x20 DUP6 ADD PUSH3 0x1A0 JUMP JUMPDEST SWAP4 ADD PUSH3 0x1A0 JUMP JUMPDEST PUSH1 0x80 DUP3 SWAP1 MSTORE PUSH1 0xA0 SWAP3 SWAP1 SWAP3 MSTORE PUSH1 0xC0 DUP3 SWAP1 MSTORE PUSH1 0x0 DUP1 SLOAD PUSH1 0x1 PUSH1 0x1 PUSH1 0xA0 SHL SUB NOT AND CALLER OR DUP2 SSTORE PUSH1 0x40 MLOAD PUSH4 0x95EA7B3 PUSH1 0xE0 SHL DUP2 MSTORE PUSH1 0x1 PUSH1 0x1 PUSH1 0xA0 SHL SUB SWAP4 DUP5 AND PUSH1 0x4 DUP3 ADD MSTORE PUSH1 0x0 NOT PUSH1 0x24 DUP3 ADD MSTORE SWAP1 SWAP3 SWAP1 SWAP2 PUSH1 0x20 SWAP2 DUP4 SWAP2 PUSH1 0x44 SWAP2 DUP4 SWAP2 DUP8 SWAP2 AND GAS CALL DUP1 ISZERO PUSH3 0x156 JUMPI PUSH3 0x110 JUMPI JUMPDEST PUSH1 0x40 MLOAD PUSH2 0xDD2 SWAP1 DUP2 PUSH3 0x1B6 DUP3 CODECOPY PUSH1 0x80 MLOAD DUP2 DUP2 DUP2 PUSH2 0x143 ADD MSTORE PUSH2 0x575 ADD MSTORE PUSH1 0xA0 MLOAD DUP2 DUP2 DUP2 PUSH1 0xFC ADD MSTORE DUP2 DUP2 PUSH2 0x2AD ADD MSTORE PUSH2 0xBB7 ADD MSTORE PUSH1 0xC0 MLOAD DUP2 DUP2 DUP2 PUSH2 0x3F4 ADD MSTORE DUP2 DUP2 PUSH2 0x667 ADD MSTORE DUP2 DUP2 PUSH2 0xA47 ADD MSTORE PUSH2 0xB73 ADD MSTORE RETURN JUMPDEST PUSH1 0x20 DUP2 RETURNDATASIZE PUSH1 0x20 GT PUSH3 0x14D JUMPI JUMPDEST DUP2 PUSH3 0x12C PUSH1 0x20 SWAP4 DUP4 PUSH3 0x166 JUMP JUMPDEST DUP2 ADD SUB SLT PUSH3 0x149 JUMPI MLOAD DUP1 ISZERO ISZERO SUB PUSH3 0x146 JUMPI DUP1 PUSH3 0xBC JUMP JUMPDEST DUP1 REVERT JUMPDEST POP DUP1 REVERT JUMPDEST RETURNDATASIZE SWAP2 POP PUSH3 0x11D JUMP JUMPDEST PUSH1 0x40 MLOAD RETURNDATASIZE DUP5 DUP3 RETURNDATACOPY RETURNDATASIZE SWAP1 REVERT JUMPDEST PUSH1 0x0 DUP1 REVERT JUMPDEST PUSH1 0x1F SWAP1 SWAP2 ADD PUSH1 0x1F NOT AND DUP2 ADD SWAP1 PUSH1 0x1 PUSH1 0x1 PUSH1 0x40 SHL SUB DUP3 GT SWAP1 DUP3 LT OR PUSH3 0x18A JUMPI PUSH1 0x40 MSTORE JUMP JUMPDEST PUSH4 0x4E487B71 PUSH1 0xE0 SHL PUSH1 0x0 MSTORE PUSH1 0x41 PUSH1 0x4 MSTORE PUSH1 0x24 PUSH1 0x0 REVERT JUMPDEST MLOAD SWAP1 PUSH1 0x1 PUSH1 0x1 PUSH1 0xA0 SHL SUB DUP3 AND DUP3 SUB PUSH3 0x161 JUMPI JUMP INVALID PUSH1 0x40 PUSH1 0x80 DUP2 MSTORE PUSH1 0x4 SWAP1 DUP2 CALLDATASIZE LT ISZERO PUSH2 0x15 JUMPI PUSH1 0x0 DUP1 REVERT JUMPDEST PUSH1 0x0 SWAP2 DUP3 CALLDATALOAD PUSH1 0xE0 SHR SWAP1 DUP2 PUSH4 0x13AF4035 EQ PUSH2 0x92F JUMPI DUP2 PUSH4 0x33F3D628 EQ PUSH2 0x885 JUMPI DUP2 PUSH4 0x3711B23F EQ PUSH2 0x868 JUMPI DUP2 PUSH4 0x37EF4B15 EQ PUSH2 0x4DD JUMPI DUP2 PUSH4 0x446A2EC8 EQ PUSH2 0x4BB JUMPI DUP2 PUSH4 0x5873EB9B EQ PUSH2 0x483 JUMPI DUP2 PUSH4 0x765D6B74 EQ PUSH2 0x44B JUMPI DUP2 PUSH4 0x8DA5CB5B EQ PUSH2 0x423 JUMPI DUP2 PUSH4 0x97610F30 EQ PUSH2 0x3DF JUMPI DUP2 PUSH4 0x991BBDE7 EQ PUSH2 0x3A7 JUMPI DUP2 PUSH4 0xA0933701 EQ PUSH2 0x389 JUMPI DUP2 PUSH4 0xCB830469 EQ PUSH2 0x214 JUMPI POP DUP1 PUSH4 0xDB6FF135 EQ PUSH2 0x1F5 JUMPI DUP1 PUSH4 0xF40F0F52 EQ PUSH2 0x1C9 JUMPI DUP1 PUSH4 0xF4201C3C EQ PUSH2 0x190 JUMPI DUP1 PUSH4 0xF49C6229 EQ PUSH2 0x172 JUMPI DUP1 PUSH4 0xF6C08A2E EQ PUSH2 0x12F JUMPI PUSH4 0xFEAA524D EQ PUSH2 0xE9 JUMPI PUSH1 0x0 DUP1 REVERT JUMPDEST CALLVALUE PUSH2 0x12B JUMPI DUP2 PUSH1 0x3 NOT CALLDATASIZE ADD SLT PUSH2 0x12B JUMPI MLOAD PUSH32 0x0 PUSH1 0x1 PUSH1 0x1 PUSH1 0xA0 SHL SUB AND DUP2 MSTORE PUSH1 0x20 SWAP1 RETURN JUMPDEST POP DUP1 REVERT JUMPDEST POP CALLVALUE PUSH2 0x12B JUMPI DUP2 PUSH1 0x3 NOT CALLDATASIZE ADD SLT PUSH2 0x12B JUMPI MLOAD PUSH32 0x0 PUSH1 0x1 PUSH1 0x1 PUSH1 0xA0 SHL SUB AND DUP2 MSTORE PUSH1 0x20 SWAP1 RETURN JUMPDEST POP CALLVALUE PUSH2 0x12B JUMPI DUP2 PUSH1 0x3 NOT CALLDATASIZE ADD SLT PUSH2 0x12B JUMPI PUSH1 0x20 SWAP1 PUSH1 0x3 SLOAD SWAP1 MLOAD SWAP1 DUP2 MSTORE RETURN JUMPDEST POP CALLVALUE PUSH2 0x12B JUMPI PUSH1 0x20 CALLDATASIZE PUSH1 0x3 NOT ADD SLT PUSH2 0x12B JUMPI PUSH1 0x20 SWAP2 DUP2 SWAP1 PUSH1 0x1 PUSH1 0x1 PUSH1 0xA0 SHL SUB PUSH2 0x1B7 PUSH2 0x97B JUMP JUMPDEST AND DUP2 MSTORE PUSH1 0x1 DUP5 MSTORE KECCAK256 SLOAD SWAP1 MLOAD SWAP1 TIMESTAMP LT DUP2 MSTORE RETURN JUMPDEST POP CALLVALUE PUSH2 0x12B JUMPI PUSH1 0x20 CALLDATASIZE PUSH1 0x3 NOT ADD SLT PUSH2 0x12B JUMPI PUSH1 0x20 SWAP1 PUSH2 0x1EE PUSH2 0x1E9 PUSH2 0x97B JUMP JUMPDEST PUSH2 0xB01 JUMP JUMPDEST SWAP1 MLOAD SWAP1 DUP2 MSTORE RETURN JUMPDEST DUP3 CALLVALUE PUSH2 0x211 JUMPI DUP1 PUSH1 0x3 NOT CALLDATASIZE ADD SLT PUSH2 0x211 JUMPI PUSH2 0x20E PUSH2 0xB4D JUMP JUMPDEST DUP1 RETURN JUMPDEST DUP1 REVERT JUMPDEST DUP4 DUP4 CALLVALUE PUSH2 0x12B JUMPI DUP2 PUSH1 0x3 NOT CALLDATASIZE ADD SLT PUSH2 0x12B JUMPI PUSH2 0x22E PUSH2 0xB4D JUMP JUMPDEST CALLER DUP3 MSTORE PUSH1 0x20 SWAP1 PUSH1 0x2 DUP3 MSTORE DUP1 DUP4 KECCAK256 SLOAD DUP1 ISZERO PUSH2 0x353 JUMPI PUSH8 0xDE0B6B3A7640000 PUSH2 0x26B DUP7 SLOAD SWAP3 CALLER DUP8 MSTORE PUSH1 0x5 DUP7 MSTORE PUSH2 0x265 DUP6 DUP9 KECCAK256 SLOAD DUP6 PUSH2 0xAF4 JUMP JUMPDEST SWAP1 PUSH2 0xABE JUMP JUMPDEST DIV SWAP1 DUP2 ISZERO PUSH2 0x31D JUMPI CALLER DUP1 DUP7 MSTORE PUSH1 0x5 DUP6 MSTORE DUP4 DUP7 KECCAK256 SWAP2 SWAP1 SWAP2 SSTORE DUP3 MLOAD PUSH4 0xA9059CBB PUSH1 0xE0 SHL DUP2 MSTORE DUP1 DUP8 ADD SWAP2 DUP3 MSTORE PUSH1 0x20 DUP3 ADD SWAP3 SWAP1 SWAP3 MSTORE SWAP1 SWAP2 SWAP1 DUP4 SWAP1 DUP4 SWAP1 DUP2 SWAP1 PUSH1 0x40 ADD SUB DUP2 DUP8 PUSH32 0x0 PUSH1 0x1 PUSH1 0x1 PUSH1 0xA0 SHL SUB AND GAS CALL SWAP1 DUP2 ISZERO PUSH2 0x314 JUMPI POP PUSH2 0x2E7 JUMPI DUP3 DUP1 RETURN JUMPDEST DUP2 PUSH2 0x306 SWAP3 SWAP1 RETURNDATASIZE LT PUSH2 0x30D JUMPI JUMPDEST PUSH2 0x2FE DUP2 DUP4 PUSH2 0x9F8 JUMP JUMPDEST DUP2 ADD SWAP1 PUSH2 0xA1A JUMP JUMPDEST POP DUP2 DUP1 DUP3 DUP1 RETURN JUMPDEST POP RETURNDATASIZE PUSH2 0x2F4 JUMP JUMPDEST MLOAD RETURNDATASIZE DUP6 DUP3 RETURNDATACOPY RETURNDATASIZE SWAP1 REVERT JUMPDEST DUP3 MLOAD PUSH3 0x461BCD PUSH1 0xE5 SHL DUP2 MSTORE DUP1 DUP8 ADD DUP6 SWAP1 MSTORE PUSH1 0x10 PUSH1 0x24 DUP3 ADD MSTORE PUSH16 0x6E6F7468696E6720746F20636C61696D PUSH1 0x80 SHL PUSH1 0x44 DUP3 ADD MSTORE PUSH1 0x64 SWAP1 REVERT JUMPDEST DUP2 MLOAD PUSH3 0x461BCD PUSH1 0xE5 SHL DUP2 MSTORE DUP1 DUP7 ADD DUP5 SWAP1 MSTORE PUSH1 0x10 PUSH1 0x24 DUP3 ADD MSTORE PUSH16 0x3737BA1030902B24A8103437B63232B9 PUSH1 0x81 SHL PUSH1 0x44 DUP3 ADD MSTORE PUSH1 0x64 SWAP1 REVERT JUMPDEST POP POP CALLVALUE PUSH2 0x12B JUMPI DUP2 PUSH1 0x3 NOT CALLDATASIZE ADD SLT PUSH2 0x12B JUMPI PUSH1 0x20 SWAP1 MLOAD PUSH3 0x278D00 DUP2 MSTORE RETURN JUMPDEST POP POP CALLVALUE PUSH2 0x12B JUMPI PUSH1 0x20 CALLDATASIZE PUSH1 0x3 NOT ADD SLT PUSH2 0x12B JUMPI PUSH1 0x20 SWAP2 DUP2 SWAP1 PUSH1 0x1 PUSH1 0x1 PUSH1 0xA0 SHL SUB PUSH2 0x3CF PUSH2 0x97B JUMP JUMPDEST AND DUP2 MSTORE PUSH1 0x1 DUP5 MSTORE KECCAK256 SLOAD SWAP1 MLOAD SWAP1 DUP2 MSTORE RETURN JUMPDEST POP POP CALLVALUE PUSH2 0x12B JUMPI DUP2 PUSH1 0x3 NOT CALLDATASIZE ADD SLT PUSH2 0x12B JUMPI MLOAD PUSH32 0x0 PUSH1 0x1 PUSH1 0x1 PUSH1 0xA0 SHL SUB AND DUP2 MSTORE PUSH1 0x20 SWAP1 RETURN JUMPDEST POP POP CALLVALUE PUSH2 0x12B JUMPI DUP2 PUSH1 0x3 NOT CALLDATASIZE ADD SLT PUSH2 0x12B JUMPI SWAP1 SLOAD SWAP1 MLOAD PUSH1 0x1 PUSH1 0x1 PUSH1 0xA0 SHL SUB SWAP1 SWAP2 AND DUP2 MSTORE PUSH1 0x20 SWAP1 RETURN JUMPDEST POP POP CALLVALUE PUSH2 0x12B JUMPI PUSH1 0x20 CALLDATASIZE PUSH1 0x3 NOT ADD SLT PUSH2 0x12B JUMPI PUSH1 0x20 SWAP2 DUP2 SWAP1 PUSH1 0x1 PUSH1 0x1 PUSH1 0xA0 SHL SUB PUSH2 0x473 PUSH2 0x97B JUMP JUMPDEST AND DUP2 MSTORE PUSH1 0x2 DUP5 MSTORE KECCAK256 SLOAD SWAP1 MLOAD SWAP1 DUP2 MSTORE RETURN JUMPDEST POP POP CALLVALUE PUSH2 0x12B JUMPI PUSH1 0x20 CALLDATASIZE PUSH1 0x3 NOT ADD SLT PUSH2 0x12B JUMPI PUSH1 0x20 SWAP2 DUP2 SWAP1 PUSH1 0x1 PUSH1 0x1 PUSH1 0xA0 SHL SUB PUSH2 0x4AB PUSH2 0x97B JUMP JUMPDEST AND DUP2 MSTORE PUSH1 0x5 DUP5 MSTORE KECCAK256 SLOAD SWAP1 MLOAD SWAP1 DUP2 MSTORE RETURN JUMPDEST SWAP1 POP CALLVALUE PUSH2 0x4D9 JUMPI DUP3 PUSH1 0x3 NOT CALLDATASIZE ADD SLT PUSH2 0x4D9 JUMPI PUSH1 0x20 SWAP3 POP SLOAD SWAP1 MLOAD SWAP1 DUP2 MSTORE RETURN JUMPDEST DUP3 DUP1 REVERT JUMPDEST SWAP2 SWAP1 POP CALLVALUE PUSH2 0x4D9 JUMPI PUSH1 0xC0 CALLDATASIZE PUSH1 0x3 NOT ADD SLT PUSH2 0x4D9 JUMPI DUP2 CALLDATALOAD SWAP2 PUSH1 0x80 CALLDATASIZE PUSH1 0x23 NOT ADD SLT PUSH2 0x864 JUMPI PUSH1 0xA4 CALLDATALOAD SWAP3 PUSH8 0xFFFFFFFFFFFFFFFF SWAP1 DUP2 DUP6 GT PUSH2 0x77A JUMPI CALLDATASIZE PUSH1 0x23 DUP7 ADD SLT ISZERO PUSH2 0x77A JUMPI DUP5 DUP4 ADD CALLDATALOAD SWAP2 DUP1 DUP4 GT PUSH2 0x7A5 JUMPI PUSH1 0x24 SWAP3 CALLDATASIZE DUP5 DUP3 DUP10 ADD ADD GT PUSH2 0x860 JUMPI DUP3 ISZERO ISZERO DUP1 PUSH2 0x855 JUMPI JUMPDEST ISZERO PUSH2 0x822 JUMPI PUSH2 0x559 DUP4 PUSH2 0x554 PUSH2 0xA32 JUMP JUMPDEST PUSH2 0xABE JUMP JUMPDEST PUSH1 0x1 PUSH1 0x1 PUSH1 0xA0 SHL SUB SWAP3 SWAP1 SWAP2 SWAP1 DUP6 CALLDATALOAD DUP5 DUP2 AND SWAP1 DUP2 SWAP1 SUB PUSH2 0x81E JUMPI DUP5 PUSH32 0x0 AND DUP2 SUB PUSH2 0x7EE JUMPI PUSH1 0x44 CALLDATALOAD SWAP4 DUP1 DUP6 LT PUSH2 0x7BB JUMPI DUP10 MLOAD SWAP3 DUP4 DUP12 ADD SWAP1 DUP2 GT DUP5 DUP3 LT OR PUSH2 0x7A9 JUMPI SWAP1 DUP13 SWAP5 SWAP4 SWAP3 SWAP2 DUP12 MSTORE ADDRESS DUP4 MSTORE PUSH1 0x20 SWAP12 DUP13 DUP5 ADD SWAP2 DUP3 MSTORE PUSH15 0x22D473030F116DDEE9F6B43AC78BA3 SWAP4 DUP5 EXTCODESIZE ISZERO PUSH2 0x7A5 JUMPI DUP11 SWAP6 DUP8 SWAP4 DUP11 DUP16 SWAP4 DUP16 SWAP5 MLOAD SWAP12 DUP13 SWAP11 DUP12 SWAP10 DUP11 SWAP8 PUSH4 0x187945BD PUSH1 0xE1 SHL DUP10 MSTORE DUP9 ADD MSTORE DUP7 ADD MSTORE PUSH1 0x64 CALLDATALOAD PUSH1 0x44 DUP7 ADD MSTORE PUSH1 0x84 CALLDATALOAD PUSH1 0x64 DUP7 ADD MSTORE MLOAD AND PUSH1 0x84 DUP5 ADD MSTORE MLOAD PUSH1 0xA4 DUP4 ADD MSTORE CALLER PUSH1 0xC4 DUP4 ADD MSTORE PUSH2 0x100 PUSH1 0xE4 DUP4 ADD MSTORE DUP1 PUSH2 0x104 DUP4 ADD MSTORE DUP1 DUP13 PUSH2 0x124 SWAP5 ADD DUP5 DUP5 ADD CALLDATACOPY DUP2 DUP2 ADD DUP4 ADD DUP5 SWAP1 MSTORE PUSH1 0x1F ADD PUSH1 0x1F NOT AND DUP2 ADD SUB ADD SWAP3 GAS CALL DUP1 ISZERO PUSH2 0x79B JUMPI PUSH2 0x788 JUMPI JUMPDEST POP DUP7 SWAP1 PUSH32 0x0 AND DUP1 EXTCODESIZE ISZERO PUSH2 0x12B JUMPI DUP2 DUP1 SWAP2 DUP6 DUP9 MLOAD DUP1 SWAP5 DUP2 SWAP4 PUSH4 0x7414AED9 PUSH1 0xE1 SHL DUP4 MSTORE DUP9 DUP12 DUP5 ADD MSTORE GAS CALL DUP1 ISZERO PUSH2 0x77E JUMPI PUSH2 0x766 JUMPI JUMPDEST POP POP CALLER DUP7 MSTORE PUSH1 0x1 DUP6 MSTORE DUP4 DUP7 KECCAK256 SLOAD TIMESTAMP DUP2 GT ISZERO PUSH2 0x75F JUMPI JUMPDEST PUSH3 0x278D00 SWAP2 DUP1 DUP4 MUL SWAP3 DUP4 DIV SUB PUSH2 0x74D JUMPI SWAP1 PUSH2 0x6E4 SWAP2 PUSH2 0xAE7 JUMP JUMPDEST CALLER DUP7 MSTORE PUSH1 0x1 DUP6 MSTORE DUP4 DUP7 KECCAK256 SSTORE PUSH1 0x2 DUP5 MSTORE DUP3 DUP6 KECCAK256 SLOAD ISZERO PUSH2 0x700 JUMPI DUP5 DUP1 RETURN JUMPDEST PUSH2 0x708 PUSH2 0xB4D JUMP JUMPDEST CALLER DUP6 MSTORE PUSH1 0x2 DUP5 MSTORE PUSH1 0x1 DUP4 DUP7 KECCAK256 SSTORE PUSH1 0x3 SLOAD SWAP1 PUSH1 0x1 DUP3 ADD DUP1 SWAP3 GT PUSH2 0x73C JUMPI POP PUSH1 0x3 SSTORE SLOAD CALLER DUP5 MSTORE PUSH1 0x5 SWAP1 SWAP3 MSTORE DUP3 KECCAK256 SSTORE CODESIZE DUP1 DUP1 DUP1 DUP5 DUP1 RETURN JUMPDEST PUSH4 0x4E487B71 PUSH1 0xE0 SHL DUP7 MSTORE PUSH1 0x11 DUP4 MSTORE DUP6 REVERT JUMPDEST PUSH4 0x4E487B71 PUSH1 0xE0 SHL DUP8 MSTORE PUSH1 0x11 DUP5 MSTORE DUP3 DUP8 REVERT JUMPDEST POP TIMESTAMP PUSH2 0x6CA JUMP JUMPDEST PUSH2 0x76F SWAP1 PUSH2 0x9CE JUMP JUMPDEST PUSH2 0x77A JUMPI DUP6 CODESIZE PUSH2 0x6B4 JUMP JUMPDEST DUP6 DUP1 REVERT JUMPDEST DUP7 MLOAD RETURNDATASIZE DUP5 DUP3 RETURNDATACOPY RETURNDATASIZE SWAP1 REVERT JUMPDEST PUSH2 0x794 SWAP1 SWAP8 SWAP2 SWAP8 PUSH2 0x9CE JUMP JUMPDEST SWAP6 CODESIZE PUSH2 0x662 JUMP JUMPDEST DUP7 MLOAD RETURNDATASIZE DUP11 DUP3 RETURNDATACOPY RETURNDATASIZE SWAP1 REVERT JUMPDEST DUP7 DUP1 REVERT JUMPDEST PUSH4 0x4E487B71 PUSH1 0xE0 SHL DUP14 MSTORE PUSH1 0x41 DUP11 MSTORE DUP9 DUP14 REVERT JUMPDEST DUP10 MLOAD PUSH3 0x461BCD PUSH1 0xE5 SHL DUP2 MSTORE PUSH1 0x20 DUP2 DUP12 ADD MSTORE PUSH1 0xE DUP2 DUP11 ADD MSTORE PUSH14 0x616D6F756E7420746F6F206C6F77 PUSH1 0x90 SHL PUSH1 0x44 DUP3 ADD MSTORE PUSH1 0x64 SWAP1 REVERT JUMPDEST DUP9 MLOAD PUSH3 0x461BCD PUSH1 0xE5 SHL DUP2 MSTORE PUSH1 0x20 DUP2 DUP11 ADD MSTORE PUSH1 0xB DUP2 DUP10 ADD MSTORE PUSH11 0x3BB937B733903A37B5B2B7 PUSH1 0xA9 SHL PUSH1 0x44 DUP3 ADD MSTORE PUSH1 0x64 SWAP1 REVERT JUMPDEST DUP11 DUP1 REVERT JUMPDEST DUP6 MLOAD PUSH3 0x461BCD PUSH1 0xE5 SHL DUP2 MSTORE PUSH1 0x20 DUP2 DUP8 ADD MSTORE PUSH1 0xE DUP2 DUP7 ADD MSTORE PUSH14 0x696E76616C6964206D6F6E746873 PUSH1 0x90 SHL PUSH1 0x44 DUP3 ADD MSTORE PUSH1 0x64 SWAP1 REVERT JUMPDEST POP PUSH1 0xC DUP4 GT ISZERO PUSH2 0x543 JUMP JUMPDEST DUP8 DUP1 REVERT JUMPDEST DUP4 DUP1 REVERT JUMPDEST POP POP CALLVALUE PUSH2 0x12B JUMPI DUP2 PUSH1 0x3 NOT CALLDATASIZE ADD SLT PUSH2 0x12B JUMPI PUSH1 0x20 SWAP1 PUSH2 0x1EE PUSH2 0xA32 JUMP JUMPDEST SWAP2 SWAP1 POP CALLVALUE PUSH2 0x4D9 JUMPI DUP1 PUSH1 0x3 NOT CALLDATASIZE ADD SLT PUSH2 0x4D9 JUMPI PUSH1 0x20 PUSH2 0x8F5 SWAP3 PUSH2 0x8A6 PUSH2 0x97B JUMP JUMPDEST DUP6 SLOAD PUSH1 0x1 PUSH1 0x1 PUSH1 0xA0 SHL SUB SWAP1 DUP2 AND SWAP1 DUP8 SWAP1 PUSH2 0x8C1 CALLER DUP5 EQ PUSH2 0x996 JUMP JUMPDEST DUP7 MLOAD PUSH4 0xA9059CBB PUSH1 0xE0 SHL DUP2 MSTORE PUSH1 0x1 PUSH1 0x1 PUSH1 0xA0 SHL SUB SWAP1 SWAP4 AND SWAP5 DUP4 ADD SWAP5 DUP6 MSTORE PUSH1 0x24 CALLDATALOAD PUSH1 0x20 DUP7 ADD MSTORE SWAP2 SWAP7 DUP8 SWAP5 DUP6 SWAP4 SWAP2 DUP5 SWAP2 PUSH1 0x40 ADD SWAP1 JUMP JUMPDEST SUB SWAP4 AND GAS CALL SWAP1 DUP2 ISZERO PUSH2 0x926 JUMPI POP PUSH2 0x90A JUMPI POP DUP1 RETURN JUMPDEST PUSH2 0x922 SWAP1 PUSH1 0x20 RETURNDATASIZE PUSH1 0x20 GT PUSH2 0x30D JUMPI PUSH2 0x2FE DUP2 DUP4 PUSH2 0x9F8 JUMP JUMPDEST POP DUP1 RETURN JUMPDEST MLOAD RETURNDATASIZE DUP5 DUP3 RETURNDATACOPY RETURNDATASIZE SWAP1 REVERT JUMPDEST DUP4 CALLVALUE PUSH2 0x211 JUMPI PUSH1 0x20 CALLDATASIZE PUSH1 0x3 NOT ADD SLT PUSH2 0x211 JUMPI PUSH2 0x949 PUSH2 0x97B JUMP JUMPDEST DUP2 SLOAD SWAP1 PUSH1 0x1 PUSH1 0x1 PUSH1 0xA0 SHL SUB SWAP1 PUSH2 0x962 CALLER DUP4 DUP6 AND EQ PUSH2 0x996 JUMP JUMPDEST AND SWAP1 PUSH12 0xFFFFFFFFFFFFFFFFFFFFFFFF PUSH1 0xA0 SHL AND OR DUP2 SSTORE DUP1 RETURN JUMPDEST PUSH1 0x4 CALLDATALOAD SWAP1 PUSH1 0x1 PUSH1 0x1 PUSH1 0xA0 SHL SUB DUP3 AND DUP3 SUB PUSH2 0x991 JUMPI JUMP JUMPDEST PUSH1 0x0 DUP1 REVERT JUMPDEST ISZERO PUSH2 0x99D JUMPI JUMP JUMPDEST PUSH1 0x40 MLOAD PUSH3 0x461BCD PUSH1 0xE5 SHL DUP2 MSTORE PUSH1 0x20 PUSH1 0x4 DUP3 ADD MSTORE PUSH1 0x9 PUSH1 0x24 DUP3 ADD MSTORE PUSH9 0x3737BA1037BBB732B9 PUSH1 0xB9 SHL PUSH1 0x44 DUP3 ADD MSTORE PUSH1 0x64 SWAP1 REVERT JUMPDEST PUSH8 0xFFFFFFFFFFFFFFFF DUP2 GT PUSH2 0x9E2 JUMPI PUSH1 0x40 MSTORE JUMP JUMPDEST PUSH4 0x4E487B71 PUSH1 0xE0 SHL PUSH1 0x0 MSTORE PUSH1 0x41 PUSH1 0x4 MSTORE PUSH1 0x24 PUSH1 0x0 REVERT JUMPDEST SWAP1 PUSH1 0x1F DUP1 NOT SWAP2 ADD AND DUP2 ADD SWAP1 DUP2 LT PUSH8 0xFFFFFFFFFFFFFFFF DUP3 GT OR PUSH2 0x9E2 JUMPI PUSH1 0x40 MSTORE JUMP JUMPDEST SWAP1 DUP2 PUSH1 0x20 SWAP2 SUB SLT PUSH2 0x991 JUMPI MLOAD DUP1 ISZERO ISZERO DUP2 SUB PUSH2 0x991 JUMPI SWAP1 JUMP JUMPDEST PUSH1 0x40 MLOAD PUSH4 0x3711B23F PUSH1 0xE0 SHL DUP2 MSTORE PUSH1 0x20 DUP2 PUSH1 0x4 DUP2 PUSH32 0x0 PUSH1 0x1 PUSH1 0x1 PUSH1 0xA0 SHL SUB AND GAS STATICCALL SWAP1 DUP2 ISZERO PUSH2 0xAB2 JUMPI PUSH1 0x0 SWAP2 PUSH2 0xA83 JUMPI POP SWAP1 JUMP JUMPDEST SWAP1 POP PUSH1 0x20 DUP2 RETURNDATASIZE PUSH1 0x20 GT PUSH2 0xAAA JUMPI JUMPDEST DUP2 PUSH2 0xA9E PUSH1 0x20 SWAP4 DUP4 PUSH2 0x9F8 JUMP JUMPDEST DUP2 ADD SUB SLT PUSH2 0x991 JUMPI MLOAD SWAP1 JUMP JUMPDEST RETURNDATASIZE SWAP2 POP PUSH2 0xA91 JUMP JUMPDEST PUSH1 0x40 MLOAD RETURNDATASIZE PUSH1 0x0 DUP3 RETURNDATACOPY RETURNDATASIZE SWAP1 REVERT JUMPDEST DUP2 DUP2 MUL SWAP3 SWAP2 DUP2 ISZERO SWAP2 DUP5 DIV EQ OR ISZERO PUSH2 0xAD1 JUMPI JUMP JUMPDEST PUSH4 0x4E487B71 PUSH1 0xE0 SHL PUSH1 0x0 MSTORE PUSH1 0x11 PUSH1 0x4 MSTORE PUSH1 0x24 PUSH1 0x0 REVERT JUMPDEST SWAP2 SWAP1 DUP3 ADD DUP1 SWAP3 GT PUSH2 0xAD1 JUMPI JUMP JUMPDEST SWAP2 SWAP1 DUP3 SUB SWAP2 DUP3 GT PUSH2 0xAD1 JUMPI JUMP JUMPDEST PUSH1 0x1 PUSH1 0x1 PUSH1 0xA0 SHL SUB AND PUSH1 0x0 SWAP1 DUP2 MSTORE PUSH1 0x2 PUSH1 0x20 MSTORE PUSH1 0x40 SWAP1 KECCAK256 SLOAD DUP1 ISZERO PUSH2 0xB47 JUMPI PUSH2 0xB43 PUSH8 0xDE0B6B3A7640000 SWAP2 PUSH2 0x265 PUSH1 0x4 SLOAD PUSH1 0x5 PUSH1 0x20 MSTORE PUSH1 0x40 PUSH1 0x0 KECCAK256 SLOAD SWAP1 PUSH2 0xAF4 JUMP JUMPDEST DIV SWAP1 JUMP JUMPDEST POP PUSH1 0x0 SWAP1 JUMP JUMPDEST PUSH1 0x40 DUP1 MLOAD PUSH4 0xE702DA83 PUSH1 0xE0 SHL DUP2 MSTORE ADDRESS PUSH1 0x4 DUP1 DUP4 ADD SWAP2 SWAP1 SWAP2 MSTORE SWAP2 PUSH1 0x0 SWAP2 PUSH1 0x1 PUSH1 0x1 PUSH1 0xA0 SHL SUB PUSH32 0x0 DUP2 AND SWAP2 PUSH1 0x20 SWAP2 SWAP1 DUP3 DUP2 PUSH1 0x24 DUP2 DUP8 GAS STATICCALL SWAP1 DUP2 ISZERO PUSH2 0xD92 JUMPI DUP7 SWAP2 PUSH2 0xD65 JUMPI JUMPDEST POP ISZERO PUSH2 0xD5D JUMPI PUSH32 0x0 AND SWAP1 DUP4 MLOAD SWAP3 PUSH4 0x70A08231 PUSH1 0xE0 SHL SWAP1 DUP2 DUP6 MSTORE ADDRESS DUP9 DUP7 ADD MSTORE DUP3 DUP6 PUSH1 0x24 DUP2 DUP8 GAS STATICCALL SWAP5 DUP6 ISZERO PUSH2 0xD53 JUMPI DUP8 SWAP6 PUSH2 0xD24 JUMPI JUMPDEST POP DUP1 EXTCODESIZE ISZERO PUSH2 0x7A5 JUMPI DUP7 DUP1 SWAP2 DUP10 DUP9 MLOAD DUP1 SWAP5 DUP2 SWAP4 PUSH4 0xCB830469 PUSH1 0xE0 SHL DUP4 MSTORE GAS CALL PUSH2 0xD11 JUMPI JUMPDEST POP DUP2 SWAP1 PUSH1 0x24 DUP7 MLOAD DUP1 SWAP6 DUP2 SWAP4 DUP3 MSTORE ADDRESS DUP12 DUP4 ADD MSTORE GAS STATICCALL SWAP4 DUP5 ISZERO PUSH2 0xD08 JUMPI POP DUP5 SWAP4 PUSH2 0xCD8 JUMPI JUMPDEST POP POP DUP1 DUP3 GT DUP1 PUSH2 0xCCD JUMPI JUMPDEST PUSH2 0xC5E JUMPI JUMPDEST POP POP POP POP JUMP JUMPDEST PUSH2 0xC67 SWAP2 PUSH2 0xAF4 JUMP JUMPDEST SWAP1 PUSH8 0xDE0B6B3A7640000 SWAP2 DUP3 DUP2 MUL SWAP3 DUP2 DUP5 DIV EQ SWAP1 ISZERO OR ISZERO PUSH2 0xCBA JUMPI POP PUSH1 0x3 SLOAD SWAP1 DUP2 ISZERO PUSH2 0xCA5 JUMPI SWAP1 PUSH2 0xC9A SWAP2 DIV DUP3 SLOAD PUSH2 0xAE7 JUMP JUMPDEST SWAP1 SSTORE CODESIZE DUP1 DUP1 DUP1 PUSH2 0xC58 JUMP JUMPDEST PUSH1 0x12 DUP4 PUSH4 0x4E487B71 PUSH1 0xE0 SHL PUSH1 0x0 MSTORE MSTORE PUSH1 0x24 PUSH1 0x0 REVERT JUMPDEST PUSH4 0x4E487B71 PUSH1 0xE0 SHL DUP2 MSTORE PUSH1 0x11 DUP4 MSTORE PUSH1 0x24 SWAP1 REVERT JUMPDEST POP PUSH1 0x3 SLOAD ISZERO ISZERO PUSH2 0xC53 JUMP JUMPDEST SWAP1 DUP1 SWAP3 SWAP4 POP DUP2 RETURNDATASIZE DUP4 GT PUSH2 0xD01 JUMPI JUMPDEST PUSH2 0xCF0 DUP2 DUP4 PUSH2 0x9F8 JUMP JUMPDEST DUP2 ADD SUB SLT PUSH2 0x991 JUMPI MLOAD SWAP1 CODESIZE DUP1 PUSH2 0xC48 JUMP JUMPDEST POP RETURNDATASIZE PUSH2 0xCE6 JUMP JUMPDEST MLOAD RETURNDATASIZE DUP7 DUP3 RETURNDATACOPY RETURNDATASIZE SWAP1 REVERT JUMPDEST SWAP6 PUSH2 0xD1D DUP4 SWAP3 SWAP8 PUSH2 0x9CE JUMP JUMPDEST SWAP6 SWAP1 PUSH2 0xC25 JUMP JUMPDEST SWAP1 SWAP5 POP DUP3 DUP2 DUP2 RETURNDATASIZE DUP4 GT PUSH2 0xD4C JUMPI JUMPDEST PUSH2 0xD3C DUP2 DUP4 PUSH2 0x9F8 JUMP JUMPDEST DUP2 ADD SUB SLT PUSH2 0x7A5 JUMPI MLOAD SWAP4 CODESIZE PUSH2 0xC02 JUMP JUMPDEST POP RETURNDATASIZE PUSH2 0xD32 JUMP JUMPDEST DUP7 MLOAD RETURNDATASIZE DUP10 DUP3 RETURNDATACOPY RETURNDATASIZE SWAP1 REVERT JUMPDEST POP POP POP POP POP POP JUMP JUMPDEST SWAP1 POP DUP3 DUP2 DUP2 RETURNDATASIZE DUP4 GT PUSH2 0xD8B JUMPI JUMPDEST PUSH2 0xD7C DUP2 DUP4 PUSH2 0x9F8 JUMP JUMPDEST DUP2 ADD SUB SLT PUSH2 0x77A JUMPI MLOAD CODESIZE PUSH2 0xBAF JUMP JUMPDEST POP RETURNDATASIZE PUSH2 0xD72 JUMP JUMPDEST DUP6 MLOAD RETURNDATASIZE DUP9 DUP3 RETURNDATACOPY RETURNDATASIZE SWAP1 REVERT INVALID LOG2 PUSH5 0x6970667358 0x22 SLT KECCAK256 PUSH27 0xE4C39C60554743132AFD9A01DD0B65DF4D6998656D89736E4FA9D4 0x4F SWAP10 PUSH24 0x7664736F6C63430008180033000000000000000000000000 "},"methodIdentifiers":{"H2O()":"feaa524d","STAKING()":"97610f30","UTH2()":"f6c08a2e","buyVIPWithPermit2(uint256,((address,uint256),uint256,uint256),bytes)":"37ef4b15","claimOwnerVip()":"cb830469","holderShares(address)":"765d6b74","isVIP(address)":"f4201c3c","owner()":"8da5cb5b","pendingReward(address)":"f40f0f52","pullFromStaking()":"db6ff135","rescueToken(address,uint256)":"33f3d628","rewardDebt(address)":"5873eb9b","rewardPerShare()":"446a2ec8","setOwner(address)":"13af4035","totalHolderShares()":"f49c6229","vipDuration()":"a0933701","vipExpire(address)":"991bbde7","vipPrice()":"3711b23f"}}}}}