{"contracts/MiningWLD.sol":{"MiningWLD":{"abi":[{"inputs":[{"internalType":"address","name":"wldToken","type":"address"},{"internalType":"address","name":"h2oToken","type":"address"},{"internalType":"address","name":"fireToken","type":"address"},{"internalType":"address","name":"btch2oToken","type":"address"},{"internalType":"address","name":"warsToken","type":"address"},{"internalType":"address","name":"wcopToken","type":"address"},{"internalType":"address","name":"uth2Token","type":"address"},{"internalType":"address","name":"owner1","type":"address"},{"internalType":"address","name":"owner2","type":"address"}],"stateMutability":"nonpayable","type":"constructor"},{"anonymous":false,"inputs":[{"indexed":true,"internalType":"address","name":"token","type":"address"},{"indexed":true,"internalType":"address","name":"to","type":"address"},{"indexed":false,"internalType":"uint256","name":"amount","type":"uint256"}],"name":"EmergencyWithdraw","type":"event"},{"anonymous":false,"inputs":[{"indexed":true,"internalType":"uint256","name":"index","type":"uint256"},{"indexed":true,"internalType":"address","name":"newOwner","type":"address"}],"name":"OwnerChanged","type":"event"},{"anonymous":false,"inputs":[{"indexed":true,"internalType":"uint256","name":"packageId","type":"uint256"},{"indexed":false,"internalType":"uint256","name":"price","type":"uint256"},{"indexed":false,"internalType":"uint256","name":"dailyYield","type":"uint256"}],"name":"PackageConfigured","type":"event"},{"anonymous":false,"inputs":[{"indexed":true,"internalType":"address","name":"user","type":"address"},{"indexed":true,"internalType":"uint256","name":"packageId","type":"uint256"},{"indexed":false,"internalType":"uint256","name":"units","type":"uint256"},{"indexed":false,"internalType":"uint256","name":"totalPaid","type":"uint256"}],"name":"PackagePurchased","type":"event"},{"anonymous":false,"inputs":[{"indexed":true,"internalType":"address","name":"by","type":"address"}],"name":"Paused","type":"event"},{"anonymous":false,"inputs":[{"indexed":true,"internalType":"address","name":"user","type":"address"},{"indexed":true,"internalType":"uint256","name":"packageId","type":"uint256"},{"indexed":false,"internalType":"uint256","name":"amount","type":"uint256"},{"indexed":false,"internalType":"address","name":"rewardToken","type":"address"}],"name":"RewardsClaimed","type":"event"},{"anonymous":false,"inputs":[{"indexed":true,"internalType":"address","name":"by","type":"address"}],"name":"Unpaused","type":"event"},{"inputs":[],"name":"MAX_PACKAGES","outputs":[{"internalType":"uint256","name":"","type":"uint256"}],"stateMutability":"view","type":"function"},{"inputs":[],"name":"PERMIT2","outputs":[{"internalType":"address","name":"","type":"address"}],"stateMutability":"view","type":"function"},{"inputs":[],"name":"SECONDS_PER_DAY","outputs":[{"internalType":"uint256","name":"","type":"uint256"}],"stateMutability":"view","type":"function"},{"inputs":[],"name":"WLD_TOKEN","outputs":[{"internalType":"address","name":"","type":"address"}],"stateMutability":"view","type":"function"},{"inputs":[{"internalType":"uint256","name":"packageId","type":"uint256"},{"internalType":"uint256","name":"units","type":"uint256"},{"components":[{"components":[{"internalType":"address","name":"token","type":"address"},{"internalType":"uint256","name":"amount","type":"uint256"}],"internalType":"struct IPermit2.TokenPermissions","name":"permitted","type":"tuple"},{"internalType":"uint256","name":"nonce","type":"uint256"},{"internalType":"uint256","name":"deadline","type":"uint256"}],"internalType":"struct IPermit2.PermitTransferFrom","name":"permit","type":"tuple"},{"internalType":"bytes","name":"signature","type":"bytes"}],"name":"buyPackage","outputs":[],"stateMutability":"nonpayable","type":"function"},{"inputs":[],"name":"claimAllRewards","outputs":[],"stateMutability":"nonpayable","type":"function"},{"inputs":[{"internalType":"uint256","name":"packageId","type":"uint256"}],"name":"claimPackageRewards","outputs":[],"stateMutability":"nonpayable","type":"function"},{"inputs":[{"internalType":"address","name":"token","type":"address"},{"internalType":"uint256","name":"amount","type":"uint256"},{"internalType":"address","name":"to","type":"address"}],"name":"emergencyWithdraw","outputs":[],"stateMutability":"nonpayable","type":"function"},{"inputs":[],"name":"getAllPackages","outputs":[{"components":[{"internalType":"uint256","name":"priceWLD","type":"uint256"},{"internalType":"uint256","name":"dailyRewardYield","type":"uint256"},{"internalType":"bool","name":"active","type":"bool"}],"internalType":"struct MiningWLD.Package[7]","name":"","type":"tuple[7]"}],"stateMutability":"view","type":"function"},{"inputs":[],"name":"getRewardTokens","outputs":[{"internalType":"address[7]","name":"","type":"address[7]"}],"stateMutability":"view","type":"function"},{"inputs":[{"internalType":"address","name":"user","type":"address"}],"name":"getUserPackages","outputs":[{"components":[{"internalType":"uint256","name":"units","type":"uint256"},{"internalType":"uint256","name":"lastClaimTime","type":"uint256"},{"internalType":"uint256","name":"pendingRewards","type":"uint256"}],"internalType":"struct MiningWLD.UserPackage[7]","name":"","type":"tuple[7]"}],"stateMutability":"view","type":"function"},{"inputs":[{"internalType":"uint256","name":"","type":"uint256"}],"name":"owners","outputs":[{"internalType":"address","name":"","type":"address"}],"stateMutability":"view","type":"function"},{"inputs":[{"internalType":"uint256","name":"","type":"uint256"}],"name":"packages","outputs":[{"internalType":"uint256","name":"priceWLD","type":"uint256"},{"internalType":"uint256","name":"dailyRewardYield","type":"uint256"},{"internalType":"bool","name":"active","type":"bool"}],"stateMutability":"view","type":"function"},{"inputs":[],"name":"pause","outputs":[],"stateMutability":"nonpayable","type":"function"},{"inputs":[],"name":"paused","outputs":[{"internalType":"bool","name":"","type":"bool"}],"stateMutability":"view","type":"function"},{"inputs":[{"internalType":"address","name":"user","type":"address"}],"name":"pendingPerPackage","outputs":[{"internalType":"uint256[7]","name":"result","type":"uint256[7]"}],"stateMutability":"view","type":"function"},{"inputs":[{"internalType":"uint256","name":"","type":"uint256"}],"name":"rewardTokens","outputs":[{"internalType":"address","name":"","type":"address"}],"stateMutability":"view","type":"function"},{"inputs":[{"internalType":"uint256","name":"index","type":"uint256"},{"internalType":"address","name":"addr","type":"address"}],"name":"setOwner","outputs":[],"stateMutability":"nonpayable","type":"function"},{"inputs":[{"internalType":"uint256","name":"id","type":"uint256"},{"internalType":"uint256","name":"priceWLD","type":"uint256"},{"internalType":"uint256","name":"dailyYield","type":"uint256"},{"internalType":"bool","name":"active","type":"bool"}],"name":"setPackage","outputs":[],"stateMutability":"nonpayable","type":"function"},{"inputs":[],"name":"unpause","outputs":[],"stateMutability":"nonpayable","type":"function"},{"inputs":[{"internalType":"address","name":"user","type":"address"}],"name":"userDailyYield","outputs":[{"internalType":"uint256[7]","name":"daily","type":"uint256[7]"}],"stateMutability":"view","type":"function"},{"inputs":[{"internalType":"address","name":"","type":"address"},{"internalType":"uint256","name":"","type":"uint256"}],"name":"userPackages","outputs":[{"internalType":"uint256","name":"units","type":"uint256"},{"internalType":"uint256","name":"lastClaimTime","type":"uint256"},{"internalType":"uint256","name":"pendingRewards","type":"uint256"}],"stateMutability":"view","type":"function"}],"evm":{"bytecode":{"linkReferences":{},"object":"60a034620003bc57601f620019d038819003918201601f191683019291906001600160401b03841183851017620003c157816101209284926040968752833981010312620003bc576200005281620003f7565b906200006160208201620003f7565b916200006f848301620003f7565b906200007e60608401620003f7565b906200008d60808501620003f7565b906200009c60a08601620003f7565b92620000ab60c08701620003f7565b94620000c9610100620000c160e08a01620003f7565b9801620003f7565b976001600160a01b038416156200038d576001600160a01b038816156200035c576080849052600080546001600160a01b03199081166001600160a01b0393841617909155600180548216938316939093179092556002805483169382169390931790925560038054821693831693909317909255600480548316938216939093179092556005805482169383169390931790925560068054831693821693909317909255600780549091168383161790558216156200035457505b600880546001600160a01b0319166001600160a01b03929092169190911790556001620001b1620003d7565b674563918244f400008082528284678ac7230489e800009384602082015201528060095581600a5560ff19918383600b541617600b55620001f1620003d7565b908082528486676f05b59d3b200000938460208201520152600c55600d558282600e541617600e5562000223620003d7565b838567d02ab486cedc0000928381528460208201520152600f556010558181601154161760115562000254620003d7565b6801158e460913d0000080825283856753444835ec580000938460208201520152601255601355818160145416176014556200028f620003d7565b6801a055690d9db80000808252838568056bc75e2d6310000093846020820152015260155560165581816017541617601755620002cb620003d7565b68015af1d78b58c4000080825283856804563918244f4000009384602082015201526018556019558181601a541617601a5562000307620003d7565b6802b5e3af16b1880000808252838567a688906bd8b00000938460208201520152601b55601c55601d541617601d55516115c390816200040d82396080518181816101df015261069c0152f35b905062000185565b895162461bcd60e51b815260206004820152600a6024820152692d32b9379037bbb732b960b11b6044820152606490fd5b895162461bcd60e51b815260206004820152600860248201526716995c9bc815d31160c21b6044820152606490fd5b600080fd5b634e487b7160e01b600052604160045260246000fd5b60405190606082016001600160401b03811183821017620003c157604052565b51906001600160a01b0382168203620003bc5756fe608060408181526004908136101561001657600080fd5b60009260e0908435821c908163025e7c27146112b1575080630a421f0f146111d45780630b83a727146110165780633f4ba83a14610fb2578063551512de14610e8e5780635c975abb14610e6a5780636afdd85014610e405780636de43ad814610beb57806374f0314f14610bcd57806376c0773814610b6d5780637bb7bed114610b395780637fd3924714610a33578063810e4538146109a45780638456cb591461092f5780638bb0097b146108ca5780639408e7b2146108ae578063c216212a14610861578063c4f59f9b146107ce578063c78da6e6146106cf578063cdb7354a14610687578063deef5378146105995763eaf4a3fa1461011857600080fd5b346105955736600319011261059157813590602480359190608036604319011261058d5760c4359067ffffffffffffffff95868311610589573660238401121561058957828101359187831161058557368184860101116105855761018260ff601f5416156113fc565b6007871061018f81611481565b86156105565715610545576003870260ff600b820154161561051057866101b991600901546114d0565b9384606435106104ce576001600160a01b03986044358a81169391908490036104ca578a7f00000000000000000000000000000000000000000000000000000000000000001680940361049a578751928884018481108382111761048857908d918a52308552602097888601958a87526e22d473030f116ddee9f6b43ac78ba391823b15610484578f938a86928f519a8b978896879463187945bd60e11b8652826102626112ff565b16908601526064358d860152608435604486015260a4356064860152511660848401525160a48301523360c483015261010060e483015280610104830152808a6101249401848401378181018301849052601f01601f191681010301925af1801561047a57610454575b5050508360011c9189896007541699875186818063a9059cbb60e01b9e8f8252898883019161030f9260209093929193604081019460018060a01b031681520152565b038186895af1801561044a57916103379188979695949361042d575b506008541694886114f9565b88519b8c526001600160a01b03909416918b01918252602082019390935289928391829060400103925af1958615610423577f129a0377f5862974e93e873169fd1e8cf0681916d5b8b04338cb4224af00f0249495966103f6575b50338752601e81526103a686848920611343565b506001810180541515806103ec575b6103d8575b4290556103c8868254611506565b905582519485528401523392a380f35b6103e28833611513565b60028301556103ba565b50815415156103b5565b61041590823d841161041c575b61040d81836113bb565b810190611431565b5038610392565b503d610403565b83513d89823e3d90fd5b61044390883d8a1161041c5761040d81836113bb565b503861032b565b89513d85823e3d90fd5b829b939b1161046957508552973880806102cc565b634e487b7160e01b83526041845282fd5b88513d8e823e3d90fd5b8480fd5b634e487b7160e01b8e5260418752838efd5b875162461bcd60e51b8152602081870152600b818401526a2bb937b733903a37b5b2b760a91b6044820152606490fd5b8b80fd5b855162461bcd60e51b8152602081850152601a818401527f496e73756666696369656e74207065726d697420616d6f756e740000000000006044820152606490fd5b855162461bcd60e51b81526020818501526010818401526f5061636b61676520696e61637469766560801b6044820152606490fd5b634e487b7160e01b89526032825288fd5b855162461bcd60e51b8152602081850152600a81840152695a65726f20756e69747360b01b6044820152606490fd5b8880fd5b8780fd5b8580fd5b8280fd5b8380fd5b848383346105915760209081600319360112610595576105b76112e4565b9083516105c38161136d565b83865b83811061067357505050506001600160a01b03168352601e81528183208251906105ef8261136d565b84825b60078210610639575050835194919050845b60078310610612576102a086f35b83606060019287855180518352848101518584015201518882015201920192019190610604565b600385600192889996995161064d8161139f565b86548152848701548382015260028701548a8201528152019301910190919592956105f2565b61067b6113dd565b818401520184906105c6565b8483346106cb57816003193601126106cb57517f00000000000000000000000000000000000000000000000000000000000000006001600160a01b03168152602090f35b5080fd5b838584346106cb5760803660031901126106cb578235906024356044356064359586151580970361058d5760075461071c90336001600160a01b03918216149081156107c0575b50611449565b60078510156107905750857f48641f4a0f178e182df2f9884537f7d8e8e9e71b933a9df65dea78f211120ce89495968480516107578161139f565b8581528460208201520152600b6003870284816009015583600a820155019060ff8019835416911617905582519182526020820152a280f35b606490602085519162461bcd60e51b8352820152600a602482015269125b9d985b1a59081a5960b21b6044820152fd5b905060085416331489610716565b5090833461085e578060031936011261085e57908281516107ee8161136d565b3690378051908280835b6007821061083e5750505061080c8261136d565b519190825b6007831061081e57505050f35b81516001600160a01b031681526001929092019160209182019101610811565b82546001600160a01b0316815260019283019291909101906020016107f8565b80fd5b50509034610591576020366003190112610591573591600783101561085e57506003606092029081600901549160ff600b600a830154920154169082519384526020840152151590820152f35b8483346106cb57816003193601126106cb576020905160078152f35b8483346106cb57806003193601126106cb576108e46112e4565b6001600160a01b03168252601e60205280822060243592600784101561085e575060609261091191611343565b50805491600260018301549201549181519384526020840152820152f35b843461085e578060031936011261085e5760075461096190336001600160a01b03918216149081156109965750611449565b600160ff19601f541617601f55337f62e78cea01bee320cd4e420270b5ea74000d11b0c9f74754ebdbfc544b05a2588280a280f35b905060085416331483610716565b50833461085e57602090602060031936011261085e576109c26112e4565b918451936109cf8561136d565b3685376001600160a01b0390921691815b600781106109f9578551806109f58782611315565b0390f35b600190848452601e8352610a22610a1282898720611343565b5054600a600384020154906114d0565b610a2c82886114bf565b52016109e0565b505090346105915781600319360112610591576001600160a01b036024358181169383359392909185900361058d5780610a7a91600754163314908115610b2b5750611449565b6002831015610af8578315610ac65750506007810180546001600160a01b031916831790557f9c65bdcdf3baa5d433981546cddddb0c820aa405c7bd651375df9f19f02698768380a380f35b906020606492519162461bcd60e51b8352820152600c60248201526b5a65726f206164647265737360a01b6044820152fd5b906020606492519162461bcd60e51b8352820152600d60248201526c092dcecc2d8d2c840d2dcc8caf609b1b6044820152fd5b905060085416331438610716565b5050903461059157602036600319011261059157356007811015610591575490516001600160a01b03909116815260209150f35b5091503461059157602036600319011261059157610b896112e4565b92815192610b968461136d565b3684375b60078110610baf578151806109f58582611315565b80610bbc60019286611513565b610bc682866114bf565b5201610b9a565b8483346106cb57816003193601126106cb5760209051620151808152f35b50509034610591576020908160031936011261059557803592610c1360ff601f5416156113fc565b6007841092610c2184611481565b338652601e8152610c3485838820611343565b5093845415801590610e33575b15610dff57610c508633611513565b948515610dcf5787600282015560014291015515610dbc57845482516370a0823160e01b815230858201526001600160a01b0390911693908281602481885afa908115610db2579086918991610d81575b5010610d4957825163a9059cbb60e01b815233918101918252602082018690529082908290819060400103818a885af180156104235791610d2593917f579ad409a683bafbf650743b9466037910944feb4a9aacccdbcfcdab27ab58619593610d2b575b5050519384526001600160a01b0316602084015233929081906040820190565b0390a380f35b81610d4192903d1061041c5761040d81836113bb565b503880610d05565b915162461bcd60e51b8152918201526014602482015273496e73756666696369656e74207265736572766560601b6044820152606490fd5b809250848092503d8311610dab575b610d9a81836113bb565b810103126105895785905138610ca1565b503d610d90565b84513d8a823e3d90fd5b634e487b7160e01b865260328352602486fd5b835162461bcd60e51b8152808601849052600a6024820152694e6f207265776172647360b01b6044820152606490fd5b50905162461bcd60e51b815291820152600f60248201526e27379036b4b734b733903837bbb2b960891b6044820152606490fd5b5060028501541515610c41565b8483346106cb57816003193601126106cb57602090516e22d473030f116ddee9f6b43ac78ba38152f35b8483346106cb57816003193601126106cb5760209060ff601f541690519015158152f35b5050903461059157606036600319011261059157610eaa6112e4565b9160243590610eb76112ff565b6007546001600160a01b0390811633148015610fa5575b610ed790611449565b808216958615610f7857835163a9059cbb60e01b81526001600160a01b03909316958301958652602086810186905291169482908190604001038189885af18015610f6e57917ff24ef89f38eadc1bde50701ad6e4d6d11a2dc24f7cf834a486991f38833285049391602093610f51575b5051908152a380f35b610f6790843d861161041c5761040d81836113bb565b5038610f48565b82513d88823e3d90fd5b835162461bcd60e51b815260208188015260076024820152665a65726f20746f60c81b6044820152606490fd5b5060085481163314610ece565b843461085e578060031936011261085e57600754610fe490336001600160a01b03918216149081156109965750611449565b60ff19601f5416601f55337f5db9ee0a495bf2e6ff9c91a7834c1ba4fdd244a5e8aa4e537bd38aeae4b073aa8280a280f35b5050903461059157826003193601126105915761103860ff601f5416156113fc565b825b60078110611046578380f35b338452602090601e825261105c81858720611343565b5091825415806111c8575b6111be576110758233611513565b9283156111b35786600282015560014291015560018060a01b038254169285516370a0823160e01b815230868201528281602481885afa80156111785782918991611182575b5010156110d0575b5050600191505b0161103a565b855163a9059cbb60e01b8152338682019081526020810183905283908290819060400103818b895af180156111785760019585947f579ad409a683bafbf650743b9466037910944feb4a9aacccdbcfcdab27ab5861936111509361115a575b505088519384526001600160a01b0316602084015233929081906040820190565b0390a338806110c3565b8161117092903d1061041c5761040d81836113bb565b50388061112f565b87513d8a823e3d90fd5b809250848092503d83116111ac575b61119b81836113bb565b8101031261058957819051386110bb565b503d611191565b5050600191506110ca565b50600191506110ca565b50600283015415611067565b8483833461059157826003193601126105915781516111f28161136d565b835b82811061129c57835185856112088361136d565b600982845b60078210611259575050815193929050835b6007821061122d576102a085f35b60019060608551918251815285602093848101518584015201511515868201520194019101909261121f565b600360019185979697519061126d8261139f565b8554825283860154916020928382015260ff60028801541615158882015281520193019101909194939461120d565b6020906112a76113dd565b81840152016111f4565b859085346105915760203660031901126105915735600281101561059157600701546001600160a01b0316815260209150f35b600435906001600160a01b03821682036112fa57565b600080fd5b604435906001600160a01b03821682036112fa57565b60e0810192916000915b6007831061132c57505050565b60019082518152602080910192019201919061131f565b906007811015611357576003020190600090565b634e487b7160e01b600052603260045260246000fd5b60e0810190811067ffffffffffffffff82111761138957604052565b634e487b7160e01b600052604160045260246000fd5b6060810190811067ffffffffffffffff82111761138957604052565b90601f8019910116810190811067ffffffffffffffff82111761138957604052565b604051906113ea8261139f565b60006040838281528260208201520152565b1561140357565b60405162461bcd60e51b815260206004820152600660248201526514185d5cd95960d21b6044820152606490fd5b908160209103126112fa575180151581036112fa5790565b1561145057565b60405162461bcd60e51b81526020600482015260096024820152682737ba1037bbb732b960b91b6044820152606490fd5b1561148857565b60405162461bcd60e51b815260206004820152600f60248201526e496e76616c6964207061636b61676560881b6044820152606490fd5b9060078110156113575760051b0190565b818102929181159184041417156114e357565b634e487b7160e01b600052601160045260246000fd5b919082039182116114e357565b919082018092116114e357565b60018060a01b0316600052601e602052611531816040600020611343565b508054918215611583576115496001830154426114f9565b9060078110156113575761157760029261157261158096600a60036201518096020154906114d0565b6114d0565b04910154611506565b90565b506002915001549056fea2646970667358221220cccfaeecc2dc1cf08c05c8c2224cea26ea902f310c6d3c9f9e493d397a0c9c6764736f6c63430008180033","opcodes":"PUSH1 0xA0 CALLVALUE PUSH3 0x3BC JUMPI PUSH1 0x1F PUSH3 0x19D0 CODESIZE DUP2 SWAP1 SUB SWAP2 DUP3 ADD PUSH1 0x1F NOT AND DUP4 ADD SWAP3 SWAP2 SWAP1 PUSH1 0x1 PUSH1 0x1 PUSH1 0x40 SHL SUB DUP5 GT DUP4 DUP6 LT OR PUSH3 0x3C1 JUMPI DUP2 PUSH2 0x120 SWAP3 DUP5 SWAP3 PUSH1 0x40 SWAP7 DUP8 MSTORE DUP4 CODECOPY DUP2 ADD SUB SLT PUSH3 0x3BC JUMPI PUSH3 0x52 DUP2 PUSH3 0x3F7 JUMP JUMPDEST SWAP1 PUSH3 0x61 PUSH1 0x20 DUP3 ADD PUSH3 0x3F7 JUMP JUMPDEST SWAP2 PUSH3 0x6F DUP5 DUP4 ADD PUSH3 0x3F7 JUMP JUMPDEST SWAP1 PUSH3 0x7E PUSH1 0x60 DUP5 ADD PUSH3 0x3F7 JUMP JUMPDEST SWAP1 PUSH3 0x8D PUSH1 0x80 DUP6 ADD PUSH3 0x3F7 JUMP JUMPDEST SWAP1 PUSH3 0x9C PUSH1 0xA0 DUP7 ADD PUSH3 0x3F7 JUMP JUMPDEST SWAP3 PUSH3 0xAB PUSH1 0xC0 DUP8 ADD PUSH3 0x3F7 JUMP JUMPDEST SWAP5 PUSH3 0xC9 PUSH2 0x100 PUSH3 0xC1 PUSH1 0xE0 DUP11 ADD PUSH3 0x3F7 JUMP JUMPDEST SWAP9 ADD PUSH3 0x3F7 JUMP JUMPDEST SWAP8 PUSH1 0x1 PUSH1 0x1 PUSH1 0xA0 SHL SUB DUP5 AND ISZERO PUSH3 0x38D JUMPI PUSH1 0x1 PUSH1 0x1 PUSH1 0xA0 SHL SUB DUP9 AND ISZERO PUSH3 0x35C JUMPI PUSH1 0x80 DUP5 SWAP1 MSTORE PUSH1 0x0 DUP1 SLOAD PUSH1 0x1 PUSH1 0x1 PUSH1 0xA0 SHL SUB NOT SWAP1 DUP2 AND PUSH1 0x1 PUSH1 0x1 PUSH1 0xA0 SHL SUB SWAP4 DUP5 AND OR SWAP1 SWAP2 SSTORE PUSH1 0x1 DUP1 SLOAD DUP3 AND SWAP4 DUP4 AND SWAP4 SWAP1 SWAP4 OR SWAP1 SWAP3 SSTORE PUSH1 0x2 DUP1 SLOAD DUP4 AND SWAP4 DUP3 AND SWAP4 SWAP1 SWAP4 OR SWAP1 SWAP3 SSTORE PUSH1 0x3 DUP1 SLOAD DUP3 AND SWAP4 DUP4 AND SWAP4 SWAP1 SWAP4 OR SWAP1 SWAP3 SSTORE PUSH1 0x4 DUP1 SLOAD DUP4 AND SWAP4 DUP3 AND SWAP4 SWAP1 SWAP4 OR SWAP1 SWAP3 SSTORE PUSH1 0x5 DUP1 SLOAD DUP3 AND SWAP4 DUP4 AND SWAP4 SWAP1 SWAP4 OR SWAP1 SWAP3 SSTORE PUSH1 0x6 DUP1 SLOAD DUP4 AND SWAP4 DUP3 AND SWAP4 SWAP1 SWAP4 OR SWAP1 SWAP3 SSTORE PUSH1 0x7 DUP1 SLOAD SWAP1 SWAP2 AND DUP4 DUP4 AND OR SWAP1 SSTORE DUP3 AND ISZERO PUSH3 0x354 JUMPI POP JUMPDEST PUSH1 0x8 DUP1 SLOAD PUSH1 0x1 PUSH1 0x1 PUSH1 0xA0 SHL SUB NOT AND PUSH1 0x1 PUSH1 0x1 PUSH1 0xA0 SHL SUB SWAP3 SWAP1 SWAP3 AND SWAP2 SWAP1 SWAP2 OR SWAP1 SSTORE PUSH1 0x1 PUSH3 0x1B1 PUSH3 0x3D7 JUMP JUMPDEST PUSH8 0x4563918244F40000 DUP1 DUP3 MSTORE DUP3 DUP5 PUSH8 0x8AC7230489E80000 SWAP4 DUP5 PUSH1 0x20 DUP3 ADD MSTORE ADD MSTORE DUP1 PUSH1 0x9 SSTORE DUP2 PUSH1 0xA SSTORE PUSH1 0xFF NOT SWAP2 DUP4 DUP4 PUSH1 0xB SLOAD AND OR PUSH1 0xB SSTORE PUSH3 0x1F1 PUSH3 0x3D7 JUMP JUMPDEST SWAP1 DUP1 DUP3 MSTORE DUP5 DUP7 PUSH8 0x6F05B59D3B200000 SWAP4 DUP5 PUSH1 0x20 DUP3 ADD MSTORE ADD MSTORE PUSH1 0xC SSTORE PUSH1 0xD SSTORE DUP3 DUP3 PUSH1 0xE SLOAD AND OR PUSH1 0xE SSTORE PUSH3 0x223 PUSH3 0x3D7 JUMP JUMPDEST DUP4 DUP6 PUSH8 0xD02AB486CEDC0000 SWAP3 DUP4 DUP2 MSTORE DUP5 PUSH1 0x20 DUP3 ADD MSTORE ADD MSTORE PUSH1 0xF SSTORE PUSH1 0x10 SSTORE DUP2 DUP2 PUSH1 0x11 SLOAD AND OR PUSH1 0x11 SSTORE PUSH3 0x254 PUSH3 0x3D7 JUMP JUMPDEST PUSH9 0x1158E460913D00000 DUP1 DUP3 MSTORE DUP4 DUP6 PUSH8 0x53444835EC580000 SWAP4 DUP5 PUSH1 0x20 DUP3 ADD MSTORE ADD MSTORE PUSH1 0x12 SSTORE PUSH1 0x13 SSTORE DUP2 DUP2 PUSH1 0x14 SLOAD AND OR PUSH1 0x14 SSTORE PUSH3 0x28F PUSH3 0x3D7 JUMP JUMPDEST PUSH9 0x1A055690D9DB80000 DUP1 DUP3 MSTORE DUP4 DUP6 PUSH9 0x56BC75E2D63100000 SWAP4 DUP5 PUSH1 0x20 DUP3 ADD MSTORE ADD MSTORE PUSH1 0x15 SSTORE PUSH1 0x16 SSTORE DUP2 DUP2 PUSH1 0x17 SLOAD AND OR PUSH1 0x17 SSTORE PUSH3 0x2CB PUSH3 0x3D7 JUMP JUMPDEST PUSH9 0x15AF1D78B58C40000 DUP1 DUP3 MSTORE DUP4 DUP6 PUSH9 0x4563918244F400000 SWAP4 DUP5 PUSH1 0x20 DUP3 ADD MSTORE ADD MSTORE PUSH1 0x18 SSTORE PUSH1 0x19 SSTORE DUP2 DUP2 PUSH1 0x1A SLOAD AND OR PUSH1 0x1A SSTORE PUSH3 0x307 PUSH3 0x3D7 JUMP JUMPDEST PUSH9 0x2B5E3AF16B1880000 DUP1 DUP3 MSTORE DUP4 DUP6 PUSH8 0xA688906BD8B00000 SWAP4 DUP5 PUSH1 0x20 DUP3 ADD MSTORE ADD MSTORE PUSH1 0x1B SSTORE PUSH1 0x1C SSTORE PUSH1 0x1D SLOAD AND OR PUSH1 0x1D SSTORE MLOAD PUSH2 0x15C3 SWAP1 DUP2 PUSH3 0x40D DUP3 CODECOPY PUSH1 0x80 MLOAD DUP2 DUP2 DUP2 PUSH2 0x1DF ADD MSTORE PUSH2 0x69C ADD MSTORE RETURN JUMPDEST SWAP1 POP PUSH3 0x185 JUMP JUMPDEST DUP10 MLOAD PUSH3 0x461BCD PUSH1 0xE5 SHL DUP2 MSTORE PUSH1 0x20 PUSH1 0x4 DUP3 ADD MSTORE PUSH1 0xA PUSH1 0x24 DUP3 ADD MSTORE PUSH10 0x2D32B9379037BBB732B9 PUSH1 0xB1 SHL PUSH1 0x44 DUP3 ADD MSTORE PUSH1 0x64 SWAP1 REVERT JUMPDEST DUP10 MLOAD PUSH3 0x461BCD PUSH1 0xE5 SHL DUP2 MSTORE PUSH1 0x20 PUSH1 0x4 DUP3 ADD MSTORE PUSH1 0x8 PUSH1 0x24 DUP3 ADD MSTORE PUSH8 0x16995C9BC815D311 PUSH1 0xC2 SHL PUSH1 0x44 DUP3 ADD MSTORE PUSH1 0x64 SWAP1 REVERT JUMPDEST PUSH1 0x0 DUP1 REVERT JUMPDEST PUSH4 0x4E487B71 PUSH1 0xE0 SHL PUSH1 0x0 MSTORE PUSH1 0x41 PUSH1 0x4 MSTORE PUSH1 0x24 PUSH1 0x0 REVERT JUMPDEST PUSH1 0x40 MLOAD SWAP1 PUSH1 0x60 DUP3 ADD PUSH1 0x1 PUSH1 0x1 PUSH1 0x40 SHL SUB DUP2 GT DUP4 DUP3 LT OR PUSH3 0x3C1 JUMPI PUSH1 0x40 MSTORE JUMP JUMPDEST MLOAD SWAP1 PUSH1 0x1 PUSH1 0x1 PUSH1 0xA0 SHL SUB DUP3 AND DUP3 SUB PUSH3 0x3BC JUMPI JUMP INVALID PUSH1 0x80 PUSH1 0x40 DUP2 DUP2 MSTORE PUSH1 0x4 SWAP1 DUP2 CALLDATASIZE LT ISZERO PUSH2 0x16 JUMPI PUSH1 0x0 DUP1 REVERT JUMPDEST PUSH1 0x0 SWAP3 PUSH1 0xE0 SWAP1 DUP5 CALLDATALOAD DUP3 SHR SWAP1 DUP2 PUSH4 0x25E7C27 EQ PUSH2 0x12B1 JUMPI POP DUP1 PUSH4 0xA421F0F EQ PUSH2 0x11D4 JUMPI DUP1 PUSH4 0xB83A727 EQ PUSH2 0x1016 JUMPI DUP1 PUSH4 0x3F4BA83A EQ PUSH2 0xFB2 JUMPI DUP1 PUSH4 0x551512DE EQ PUSH2 0xE8E JUMPI DUP1 PUSH4 0x5C975ABB EQ PUSH2 0xE6A JUMPI DUP1 PUSH4 0x6AFDD850 EQ PUSH2 0xE40 JUMPI DUP1 PUSH4 0x6DE43AD8 EQ PUSH2 0xBEB JUMPI DUP1 PUSH4 0x74F0314F EQ PUSH2 0xBCD JUMPI DUP1 PUSH4 0x76C07738 EQ PUSH2 0xB6D JUMPI DUP1 PUSH4 0x7BB7BED1 EQ PUSH2 0xB39 JUMPI DUP1 PUSH4 0x7FD39247 EQ PUSH2 0xA33 JUMPI DUP1 PUSH4 0x810E4538 EQ PUSH2 0x9A4 JUMPI DUP1 PUSH4 0x8456CB59 EQ PUSH2 0x92F JUMPI DUP1 PUSH4 0x8BB0097B EQ PUSH2 0x8CA JUMPI DUP1 PUSH4 0x9408E7B2 EQ PUSH2 0x8AE JUMPI DUP1 PUSH4 0xC216212A EQ PUSH2 0x861 JUMPI DUP1 PUSH4 0xC4F59F9B EQ PUSH2 0x7CE JUMPI DUP1 PUSH4 0xC78DA6E6 EQ PUSH2 0x6CF JUMPI DUP1 PUSH4 0xCDB7354A EQ PUSH2 0x687 JUMPI DUP1 PUSH4 0xDEEF5378 EQ PUSH2 0x599 JUMPI PUSH4 0xEAF4A3FA EQ PUSH2 0x118 JUMPI PUSH1 0x0 DUP1 REVERT JUMPDEST CALLVALUE PUSH2 0x595 JUMPI CALLDATASIZE PUSH1 0x3 NOT ADD SLT PUSH2 0x591 JUMPI DUP2 CALLDATALOAD SWAP1 PUSH1 0x24 DUP1 CALLDATALOAD SWAP2 SWAP1 PUSH1 0x80 CALLDATASIZE PUSH1 0x43 NOT ADD SLT PUSH2 0x58D JUMPI PUSH1 0xC4 CALLDATALOAD SWAP1 PUSH8 0xFFFFFFFFFFFFFFFF SWAP6 DUP7 DUP4 GT PUSH2 0x589 JUMPI CALLDATASIZE PUSH1 0x23 DUP5 ADD SLT ISZERO PUSH2 0x589 JUMPI DUP3 DUP2 ADD CALLDATALOAD SWAP2 DUP8 DUP4 GT PUSH2 0x585 JUMPI CALLDATASIZE DUP2 DUP5 DUP7 ADD ADD GT PUSH2 0x585 JUMPI PUSH2 0x182 PUSH1 0xFF PUSH1 0x1F SLOAD AND ISZERO PUSH2 0x13FC JUMP JUMPDEST PUSH1 0x7 DUP8 LT PUSH2 0x18F DUP2 PUSH2 0x1481 JUMP JUMPDEST DUP7 ISZERO PUSH2 0x556 JUMPI ISZERO PUSH2 0x545 JUMPI PUSH1 0x3 DUP8 MUL PUSH1 0xFF PUSH1 0xB DUP3 ADD SLOAD AND ISZERO PUSH2 0x510 JUMPI DUP7 PUSH2 0x1B9 SWAP2 PUSH1 0x9 ADD SLOAD PUSH2 0x14D0 JUMP JUMPDEST SWAP4 DUP5 PUSH1 0x64 CALLDATALOAD LT PUSH2 0x4CE JUMPI PUSH1 0x1 PUSH1 0x1 PUSH1 0xA0 SHL SUB SWAP9 PUSH1 0x44 CALLDATALOAD DUP11 DUP2 AND SWAP4 SWAP2 SWAP1 DUP5 SWAP1 SUB PUSH2 0x4CA JUMPI DUP11 PUSH32 0x0 AND DUP1 SWAP5 SUB PUSH2 0x49A JUMPI DUP8 MLOAD SWAP3 DUP9 DUP5 ADD DUP5 DUP2 LT DUP4 DUP3 GT OR PUSH2 0x488 JUMPI SWAP1 DUP14 SWAP2 DUP11 MSTORE ADDRESS DUP6 MSTORE PUSH1 0x20 SWAP8 DUP9 DUP7 ADD SWAP6 DUP11 DUP8 MSTORE PUSH15 0x22D473030F116DDEE9F6B43AC78BA3 SWAP2 DUP3 EXTCODESIZE ISZERO PUSH2 0x484 JUMPI DUP16 SWAP4 DUP11 DUP7 SWAP3 DUP16 MLOAD SWAP11 DUP12 SWAP8 DUP9 SWAP7 DUP8 SWAP5 PUSH4 0x187945BD PUSH1 0xE1 SHL DUP7 MSTORE DUP3 PUSH2 0x262 PUSH2 0x12FF JUMP JUMPDEST AND SWAP1 DUP7 ADD MSTORE PUSH1 0x64 CALLDATALOAD DUP14 DUP7 ADD MSTORE PUSH1 0x84 CALLDATALOAD PUSH1 0x44 DUP7 ADD MSTORE PUSH1 0xA4 CALLDATALOAD PUSH1 0x64 DUP7 ADD MSTORE MLOAD AND PUSH1 0x84 DUP5 ADD MSTORE MLOAD PUSH1 0xA4 DUP4 ADD MSTORE CALLER PUSH1 0xC4 DUP4 ADD MSTORE PUSH2 0x100 PUSH1 0xE4 DUP4 ADD MSTORE DUP1 PUSH2 0x104 DUP4 ADD MSTORE DUP1 DUP11 PUSH2 0x124 SWAP5 ADD DUP5 DUP5 ADD CALLDATACOPY DUP2 DUP2 ADD DUP4 ADD DUP5 SWAP1 MSTORE PUSH1 0x1F ADD PUSH1 0x1F NOT AND DUP2 ADD SUB ADD SWAP3 GAS CALL DUP1 ISZERO PUSH2 0x47A JUMPI PUSH2 0x454 JUMPI JUMPDEST POP POP POP DUP4 PUSH1 0x1 SHR SWAP2 DUP10 DUP10 PUSH1 0x7 SLOAD AND SWAP10 DUP8 MLOAD DUP7 DUP2 DUP1 PUSH4 0xA9059CBB PUSH1 0xE0 SHL SWAP15 DUP16 DUP3 MSTORE DUP10 DUP9 DUP4 ADD SWAP2 PUSH2 0x30F SWAP3 PUSH1 0x20 SWAP1 SWAP4 SWAP3 SWAP2 SWAP4 PUSH1 0x40 DUP2 ADD SWAP5 PUSH1 0x1 DUP1 PUSH1 0xA0 SHL SUB AND DUP2 MSTORE ADD MSTORE JUMP JUMPDEST SUB DUP2 DUP7 DUP10 GAS CALL DUP1 ISZERO PUSH2 0x44A JUMPI SWAP2 PUSH2 0x337 SWAP2 DUP9 SWAP8 SWAP7 SWAP6 SWAP5 SWAP4 PUSH2 0x42D JUMPI JUMPDEST POP PUSH1 0x8 SLOAD AND SWAP5 DUP9 PUSH2 0x14F9 JUMP JUMPDEST DUP9 MLOAD SWAP12 DUP13 MSTORE PUSH1 0x1 PUSH1 0x1 PUSH1 0xA0 SHL SUB SWAP1 SWAP5 AND SWAP2 DUP12 ADD SWAP2 DUP3 MSTORE PUSH1 0x20 DUP3 ADD SWAP4 SWAP1 SWAP4 MSTORE DUP10 SWAP3 DUP4 SWAP2 DUP3 SWAP1 PUSH1 0x40 ADD SUB SWAP3 GAS CALL SWAP6 DUP7 ISZERO PUSH2 0x423 JUMPI PUSH32 0x129A0377F5862974E93E873169FD1E8CF0681916D5B8B04338CB4224AF00F024 SWAP5 SWAP6 SWAP7 PUSH2 0x3F6 JUMPI JUMPDEST POP CALLER DUP8 MSTORE PUSH1 0x1E DUP2 MSTORE PUSH2 0x3A6 DUP7 DUP5 DUP10 KECCAK256 PUSH2 0x1343 JUMP JUMPDEST POP PUSH1 0x1 DUP2 ADD DUP1 SLOAD ISZERO ISZERO DUP1 PUSH2 0x3EC JUMPI JUMPDEST PUSH2 0x3D8 JUMPI JUMPDEST TIMESTAMP SWAP1 SSTORE PUSH2 0x3C8 DUP7 DUP3 SLOAD PUSH2 0x1506 JUMP JUMPDEST SWAP1 SSTORE DUP3 MLOAD SWAP5 DUP6 MSTORE DUP5 ADD MSTORE CALLER SWAP3 LOG3 DUP1 RETURN JUMPDEST PUSH2 0x3E2 DUP9 CALLER PUSH2 0x1513 JUMP JUMPDEST PUSH1 0x2 DUP4 ADD SSTORE PUSH2 0x3BA JUMP JUMPDEST POP DUP2 SLOAD ISZERO ISZERO PUSH2 0x3B5 JUMP JUMPDEST PUSH2 0x415 SWAP1 DUP3 RETURNDATASIZE DUP5 GT PUSH2 0x41C JUMPI JUMPDEST PUSH2 0x40D DUP2 DUP4 PUSH2 0x13BB JUMP JUMPDEST DUP2 ADD SWAP1 PUSH2 0x1431 JUMP JUMPDEST POP CODESIZE PUSH2 0x392 JUMP JUMPDEST POP RETURNDATASIZE PUSH2 0x403 JUMP JUMPDEST DUP4 MLOAD RETURNDATASIZE DUP10 DUP3 RETURNDATACOPY RETURNDATASIZE SWAP1 REVERT JUMPDEST PUSH2 0x443 SWAP1 DUP9 RETURNDATASIZE DUP11 GT PUSH2 0x41C JUMPI PUSH2 0x40D DUP2 DUP4 PUSH2 0x13BB JUMP JUMPDEST POP CODESIZE PUSH2 0x32B JUMP JUMPDEST DUP10 MLOAD RETURNDATASIZE DUP6 DUP3 RETURNDATACOPY RETURNDATASIZE SWAP1 REVERT JUMPDEST DUP3 SWAP12 SWAP4 SWAP12 GT PUSH2 0x469 JUMPI POP DUP6 MSTORE SWAP8 CODESIZE DUP1 DUP1 PUSH2 0x2CC JUMP JUMPDEST PUSH4 0x4E487B71 PUSH1 0xE0 SHL DUP4 MSTORE PUSH1 0x41 DUP5 MSTORE DUP3 REVERT JUMPDEST DUP9 MLOAD RETURNDATASIZE DUP15 DUP3 RETURNDATACOPY RETURNDATASIZE SWAP1 REVERT JUMPDEST DUP5 DUP1 REVERT JUMPDEST PUSH4 0x4E487B71 PUSH1 0xE0 SHL DUP15 MSTORE PUSH1 0x41 DUP8 MSTORE DUP4 DUP15 REVERT JUMPDEST DUP8 MLOAD PUSH3 0x461BCD PUSH1 0xE5 SHL DUP2 MSTORE PUSH1 0x20 DUP2 DUP8 ADD MSTORE PUSH1 0xB DUP2 DUP5 ADD MSTORE PUSH11 0x2BB937B733903A37B5B2B7 PUSH1 0xA9 SHL PUSH1 0x44 DUP3 ADD MSTORE PUSH1 0x64 SWAP1 REVERT JUMPDEST DUP12 DUP1 REVERT JUMPDEST DUP6 MLOAD PUSH3 0x461BCD PUSH1 0xE5 SHL DUP2 MSTORE PUSH1 0x20 DUP2 DUP6 ADD MSTORE PUSH1 0x1A DUP2 DUP5 ADD MSTORE PUSH32 0x496E73756666696369656E74207065726D697420616D6F756E74000000000000 PUSH1 0x44 DUP3 ADD MSTORE PUSH1 0x64 SWAP1 REVERT JUMPDEST DUP6 MLOAD PUSH3 0x461BCD PUSH1 0xE5 SHL DUP2 MSTORE PUSH1 0x20 DUP2 DUP6 ADD MSTORE PUSH1 0x10 DUP2 DUP5 ADD MSTORE PUSH16 0x5061636B61676520696E616374697665 PUSH1 0x80 SHL PUSH1 0x44 DUP3 ADD MSTORE PUSH1 0x64 SWAP1 REVERT JUMPDEST PUSH4 0x4E487B71 PUSH1 0xE0 SHL DUP10 MSTORE PUSH1 0x32 DUP3 MSTORE DUP9 REVERT JUMPDEST DUP6 MLOAD PUSH3 0x461BCD PUSH1 0xE5 SHL DUP2 MSTORE PUSH1 0x20 DUP2 DUP6 ADD MSTORE PUSH1 0xA DUP2 DUP5 ADD MSTORE PUSH10 0x5A65726F20756E697473 PUSH1 0xB0 SHL PUSH1 0x44 DUP3 ADD MSTORE PUSH1 0x64 SWAP1 REVERT JUMPDEST DUP9 DUP1 REVERT JUMPDEST DUP8 DUP1 REVERT JUMPDEST DUP6 DUP1 REVERT JUMPDEST DUP3 DUP1 REVERT JUMPDEST DUP4 DUP1 REVERT JUMPDEST DUP5 DUP4 DUP4 CALLVALUE PUSH2 0x591 JUMPI PUSH1 0x20 SWAP1 DUP2 PUSH1 0x3 NOT CALLDATASIZE ADD SLT PUSH2 0x595 JUMPI PUSH2 0x5B7 PUSH2 0x12E4 JUMP JUMPDEST SWAP1 DUP4 MLOAD PUSH2 0x5C3 DUP2 PUSH2 0x136D JUMP JUMPDEST DUP4 DUP7 JUMPDEST DUP4 DUP2 LT PUSH2 0x673 JUMPI POP POP POP POP PUSH1 0x1 PUSH1 0x1 PUSH1 0xA0 SHL SUB AND DUP4 MSTORE PUSH1 0x1E DUP2 MSTORE DUP2 DUP4 KECCAK256 DUP3 MLOAD SWAP1 PUSH2 0x5EF DUP3 PUSH2 0x136D JUMP JUMPDEST DUP5 DUP3 JUMPDEST PUSH1 0x7 DUP3 LT PUSH2 0x639 JUMPI POP POP DUP4 MLOAD SWAP5 SWAP2 SWAP1 POP DUP5 JUMPDEST PUSH1 0x7 DUP4 LT PUSH2 0x612 JUMPI PUSH2 0x2A0 DUP7 RETURN JUMPDEST DUP4 PUSH1 0x60 PUSH1 0x1 SWAP3 DUP8 DUP6 MLOAD DUP1 MLOAD DUP4 MSTORE DUP5 DUP2 ADD MLOAD DUP6 DUP5 ADD MSTORE ADD MLOAD DUP9 DUP3 ADD MSTORE ADD SWAP3 ADD SWAP3 ADD SWAP2 SWAP1 PUSH2 0x604 JUMP JUMPDEST PUSH1 0x3 DUP6 PUSH1 0x1 SWAP3 DUP9 SWAP10 SWAP7 SWAP10 MLOAD PUSH2 0x64D DUP2 PUSH2 0x139F JUMP JUMPDEST DUP7 SLOAD DUP2 MSTORE DUP5 DUP8 ADD SLOAD DUP4 DUP3 ADD MSTORE PUSH1 0x2 DUP8 ADD SLOAD DUP11 DUP3 ADD MSTORE DUP2 MSTORE ADD SWAP4 ADD SWAP2 ADD SWAP1 SWAP2 SWAP6 SWAP3 SWAP6 PUSH2 0x5F2 JUMP JUMPDEST PUSH2 0x67B PUSH2 0x13DD JUMP JUMPDEST DUP2 DUP5 ADD MSTORE ADD DUP5 SWAP1 PUSH2 0x5C6 JUMP JUMPDEST DUP5 DUP4 CALLVALUE PUSH2 0x6CB JUMPI DUP2 PUSH1 0x3 NOT CALLDATASIZE ADD SLT PUSH2 0x6CB JUMPI MLOAD PUSH32 0x0 PUSH1 0x1 PUSH1 0x1 PUSH1 0xA0 SHL SUB AND DUP2 MSTORE PUSH1 0x20 SWAP1 RETURN JUMPDEST POP DUP1 REVERT JUMPDEST DUP4 DUP6 DUP5 CALLVALUE PUSH2 0x6CB JUMPI PUSH1 0x80 CALLDATASIZE PUSH1 0x3 NOT ADD SLT PUSH2 0x6CB JUMPI DUP3 CALLDATALOAD SWAP1 PUSH1 0x24 CALLDATALOAD PUSH1 0x44 CALLDATALOAD PUSH1 0x64 CALLDATALOAD SWAP6 DUP7 ISZERO ISZERO DUP1 SWAP8 SUB PUSH2 0x58D JUMPI PUSH1 0x7 SLOAD PUSH2 0x71C SWAP1 CALLER PUSH1 0x1 PUSH1 0x1 PUSH1 0xA0 SHL SUB SWAP2 DUP3 AND EQ SWAP1 DUP2 ISZERO PUSH2 0x7C0 JUMPI JUMPDEST POP PUSH2 0x1449 JUMP JUMPDEST PUSH1 0x7 DUP6 LT ISZERO PUSH2 0x790 JUMPI POP DUP6 PUSH32 0x48641F4A0F178E182DF2F9884537F7D8E8E9E71B933A9DF65DEA78F211120CE8 SWAP5 SWAP6 SWAP7 DUP5 DUP1 MLOAD PUSH2 0x757 DUP2 PUSH2 0x139F JUMP JUMPDEST DUP6 DUP2 MSTORE DUP5 PUSH1 0x20 DUP3 ADD MSTORE ADD MSTORE PUSH1 0xB PUSH1 0x3 DUP8 MUL DUP5 DUP2 PUSH1 0x9 ADD SSTORE DUP4 PUSH1 0xA DUP3 ADD SSTORE ADD SWAP1 PUSH1 0xFF DUP1 NOT DUP4 SLOAD AND SWAP2 AND OR SWAP1 SSTORE DUP3 MLOAD SWAP2 DUP3 MSTORE PUSH1 0x20 DUP3 ADD MSTORE LOG2 DUP1 RETURN JUMPDEST PUSH1 0x64 SWAP1 PUSH1 0x20 DUP6 MLOAD SWAP2 PUSH3 0x461BCD PUSH1 0xE5 SHL DUP4 MSTORE DUP3 ADD MSTORE PUSH1 0xA PUSH1 0x24 DUP3 ADD MSTORE PUSH10 0x125B9D985B1A59081A59 PUSH1 0xB2 SHL PUSH1 0x44 DUP3 ADD MSTORE REVERT JUMPDEST SWAP1 POP PUSH1 0x8 SLOAD AND CALLER EQ DUP10 PUSH2 0x716 JUMP JUMPDEST POP SWAP1 DUP4 CALLVALUE PUSH2 0x85E JUMPI DUP1 PUSH1 0x3 NOT CALLDATASIZE ADD SLT PUSH2 0x85E JUMPI SWAP1 DUP3 DUP2 MLOAD PUSH2 0x7EE DUP2 PUSH2 0x136D JUMP JUMPDEST CALLDATASIZE SWAP1 CALLDATACOPY DUP1 MLOAD SWAP1 DUP3 DUP1 DUP4 JUMPDEST PUSH1 0x7 DUP3 LT PUSH2 0x83E JUMPI POP POP POP PUSH2 0x80C DUP3 PUSH2 0x136D JUMP JUMPDEST MLOAD SWAP2 SWAP1 DUP3 JUMPDEST PUSH1 0x7 DUP4 LT PUSH2 0x81E JUMPI POP POP POP RETURN JUMPDEST DUP2 MLOAD PUSH1 0x1 PUSH1 0x1 PUSH1 0xA0 SHL SUB AND DUP2 MSTORE PUSH1 0x1 SWAP3 SWAP1 SWAP3 ADD SWAP2 PUSH1 0x20 SWAP2 DUP3 ADD SWAP2 ADD PUSH2 0x811 JUMP JUMPDEST DUP3 SLOAD PUSH1 0x1 PUSH1 0x1 PUSH1 0xA0 SHL SUB AND DUP2 MSTORE PUSH1 0x1 SWAP3 DUP4 ADD SWAP3 SWAP2 SWAP1 SWAP2 ADD SWAP1 PUSH1 0x20 ADD PUSH2 0x7F8 JUMP JUMPDEST DUP1 REVERT JUMPDEST POP POP SWAP1 CALLVALUE PUSH2 0x591 JUMPI PUSH1 0x20 CALLDATASIZE PUSH1 0x3 NOT ADD SLT PUSH2 0x591 JUMPI CALLDATALOAD SWAP2 PUSH1 0x7 DUP4 LT ISZERO PUSH2 0x85E JUMPI POP PUSH1 0x3 PUSH1 0x60 SWAP3 MUL SWAP1 DUP2 PUSH1 0x9 ADD SLOAD SWAP2 PUSH1 0xFF PUSH1 0xB PUSH1 0xA DUP4 ADD SLOAD SWAP3 ADD SLOAD AND SWAP1 DUP3 MLOAD SWAP4 DUP5 MSTORE PUSH1 0x20 DUP5 ADD MSTORE ISZERO ISZERO SWAP1 DUP3 ADD MSTORE RETURN JUMPDEST DUP5 DUP4 CALLVALUE PUSH2 0x6CB JUMPI DUP2 PUSH1 0x3 NOT CALLDATASIZE ADD SLT PUSH2 0x6CB JUMPI PUSH1 0x20 SWAP1 MLOAD PUSH1 0x7 DUP2 MSTORE RETURN JUMPDEST DUP5 DUP4 CALLVALUE PUSH2 0x6CB JUMPI DUP1 PUSH1 0x3 NOT CALLDATASIZE ADD SLT PUSH2 0x6CB JUMPI PUSH2 0x8E4 PUSH2 0x12E4 JUMP JUMPDEST PUSH1 0x1 PUSH1 0x1 PUSH1 0xA0 SHL SUB AND DUP3 MSTORE PUSH1 0x1E PUSH1 0x20 MSTORE DUP1 DUP3 KECCAK256 PUSH1 0x24 CALLDATALOAD SWAP3 PUSH1 0x7 DUP5 LT ISZERO PUSH2 0x85E JUMPI POP PUSH1 0x60 SWAP3 PUSH2 0x911 SWAP2 PUSH2 0x1343 JUMP JUMPDEST POP DUP1 SLOAD SWAP2 PUSH1 0x2 PUSH1 0x1 DUP4 ADD SLOAD SWAP3 ADD SLOAD SWAP2 DUP2 MLOAD SWAP4 DUP5 MSTORE PUSH1 0x20 DUP5 ADD MSTORE DUP3 ADD MSTORE RETURN JUMPDEST DUP5 CALLVALUE PUSH2 0x85E JUMPI DUP1 PUSH1 0x3 NOT CALLDATASIZE ADD SLT PUSH2 0x85E JUMPI PUSH1 0x7 SLOAD PUSH2 0x961 SWAP1 CALLER PUSH1 0x1 PUSH1 0x1 PUSH1 0xA0 SHL SUB SWAP2 DUP3 AND EQ SWAP1 DUP2 ISZERO PUSH2 0x996 JUMPI POP PUSH2 0x1449 JUMP JUMPDEST PUSH1 0x1 PUSH1 0xFF NOT PUSH1 0x1F SLOAD AND OR PUSH1 0x1F SSTORE CALLER PUSH32 0x62E78CEA01BEE320CD4E420270B5EA74000D11B0C9F74754EBDBFC544B05A258 DUP3 DUP1 LOG2 DUP1 RETURN JUMPDEST SWAP1 POP PUSH1 0x8 SLOAD AND CALLER EQ DUP4 PUSH2 0x716 JUMP JUMPDEST POP DUP4 CALLVALUE PUSH2 0x85E JUMPI PUSH1 0x20 SWAP1 PUSH1 0x20 PUSH1 0x3 NOT CALLDATASIZE ADD SLT PUSH2 0x85E JUMPI PUSH2 0x9C2 PUSH2 0x12E4 JUMP JUMPDEST SWAP2 DUP5 MLOAD SWAP4 PUSH2 0x9CF DUP6 PUSH2 0x136D JUMP JUMPDEST CALLDATASIZE DUP6 CALLDATACOPY PUSH1 0x1 PUSH1 0x1 PUSH1 0xA0 SHL SUB SWAP1 SWAP3 AND SWAP2 DUP2 JUMPDEST PUSH1 0x7 DUP2 LT PUSH2 0x9F9 JUMPI DUP6 MLOAD DUP1 PUSH2 0x9F5 DUP8 DUP3 PUSH2 0x1315 JUMP JUMPDEST SUB SWAP1 RETURN JUMPDEST PUSH1 0x1 SWAP1 DUP5 DUP5 MSTORE PUSH1 0x1E DUP4 MSTORE PUSH2 0xA22 PUSH2 0xA12 DUP3 DUP10 DUP8 KECCAK256 PUSH2 0x1343 JUMP JUMPDEST POP SLOAD PUSH1 0xA PUSH1 0x3 DUP5 MUL ADD SLOAD SWAP1 PUSH2 0x14D0 JUMP JUMPDEST PUSH2 0xA2C DUP3 DUP9 PUSH2 0x14BF JUMP JUMPDEST MSTORE ADD PUSH2 0x9E0 JUMP JUMPDEST POP POP SWAP1 CALLVALUE PUSH2 0x591 JUMPI DUP2 PUSH1 0x3 NOT CALLDATASIZE ADD SLT PUSH2 0x591 JUMPI PUSH1 0x1 PUSH1 0x1 PUSH1 0xA0 SHL SUB PUSH1 0x24 CALLDATALOAD DUP2 DUP2 AND SWAP4 DUP4 CALLDATALOAD SWAP4 SWAP3 SWAP1 SWAP2 DUP6 SWAP1 SUB PUSH2 0x58D JUMPI DUP1 PUSH2 0xA7A SWAP2 PUSH1 0x7 SLOAD AND CALLER EQ SWAP1 DUP2 ISZERO PUSH2 0xB2B JUMPI POP PUSH2 0x1449 JUMP JUMPDEST PUSH1 0x2 DUP4 LT ISZERO PUSH2 0xAF8 JUMPI DUP4 ISZERO PUSH2 0xAC6 JUMPI POP POP PUSH1 0x7 DUP2 ADD DUP1 SLOAD PUSH1 0x1 PUSH1 0x1 PUSH1 0xA0 SHL SUB NOT AND DUP4 OR SWAP1 SSTORE PUSH32 0x9C65BDCDF3BAA5D433981546CDDDDB0C820AA405C7BD651375DF9F19F0269876 DUP4 DUP1 LOG3 DUP1 RETURN JUMPDEST SWAP1 PUSH1 0x20 PUSH1 0x64 SWAP3 MLOAD SWAP2 PUSH3 0x461BCD PUSH1 0xE5 SHL DUP4 MSTORE DUP3 ADD MSTORE PUSH1 0xC PUSH1 0x24 DUP3 ADD MSTORE PUSH12 0x5A65726F2061646472657373 PUSH1 0xA0 SHL PUSH1 0x44 DUP3 ADD MSTORE REVERT JUMPDEST SWAP1 PUSH1 0x20 PUSH1 0x64 SWAP3 MLOAD SWAP2 PUSH3 0x461BCD PUSH1 0xE5 SHL DUP4 MSTORE DUP3 ADD MSTORE PUSH1 0xD PUSH1 0x24 DUP3 ADD MSTORE PUSH13 0x92DCECC2D8D2C840D2DCC8CAF PUSH1 0x9B SHL PUSH1 0x44 DUP3 ADD MSTORE REVERT JUMPDEST SWAP1 POP PUSH1 0x8 SLOAD AND CALLER EQ CODESIZE PUSH2 0x716 JUMP JUMPDEST POP POP SWAP1 CALLVALUE PUSH2 0x591 JUMPI PUSH1 0x20 CALLDATASIZE PUSH1 0x3 NOT ADD SLT PUSH2 0x591 JUMPI CALLDATALOAD PUSH1 0x7 DUP2 LT ISZERO PUSH2 0x591 JUMPI SLOAD SWAP1 MLOAD PUSH1 0x1 PUSH1 0x1 PUSH1 0xA0 SHL SUB SWAP1 SWAP2 AND DUP2 MSTORE PUSH1 0x20 SWAP2 POP RETURN JUMPDEST POP SWAP2 POP CALLVALUE PUSH2 0x591 JUMPI PUSH1 0x20 CALLDATASIZE PUSH1 0x3 NOT ADD SLT PUSH2 0x591 JUMPI PUSH2 0xB89 PUSH2 0x12E4 JUMP JUMPDEST SWAP3 DUP2 MLOAD SWAP3 PUSH2 0xB96 DUP5 PUSH2 0x136D JUMP JUMPDEST CALLDATASIZE DUP5 CALLDATACOPY JUMPDEST PUSH1 0x7 DUP2 LT PUSH2 0xBAF JUMPI DUP2 MLOAD DUP1 PUSH2 0x9F5 DUP6 DUP3 PUSH2 0x1315 JUMP JUMPDEST DUP1 PUSH2 0xBBC PUSH1 0x1 SWAP3 DUP7 PUSH2 0x1513 JUMP JUMPDEST PUSH2 0xBC6 DUP3 DUP7 PUSH2 0x14BF JUMP JUMPDEST MSTORE ADD PUSH2 0xB9A JUMP JUMPDEST DUP5 DUP4 CALLVALUE PUSH2 0x6CB JUMPI DUP2 PUSH1 0x3 NOT CALLDATASIZE ADD SLT PUSH2 0x6CB JUMPI PUSH1 0x20 SWAP1 MLOAD PUSH3 0x15180 DUP2 MSTORE RETURN JUMPDEST POP POP SWAP1 CALLVALUE PUSH2 0x591 JUMPI PUSH1 0x20 SWAP1 DUP2 PUSH1 0x3 NOT CALLDATASIZE ADD SLT PUSH2 0x595 JUMPI DUP1 CALLDATALOAD SWAP3 PUSH2 0xC13 PUSH1 0xFF PUSH1 0x1F SLOAD AND ISZERO PUSH2 0x13FC JUMP JUMPDEST PUSH1 0x7 DUP5 LT SWAP3 PUSH2 0xC21 DUP5 PUSH2 0x1481 JUMP JUMPDEST CALLER DUP7 MSTORE PUSH1 0x1E DUP2 MSTORE PUSH2 0xC34 DUP6 DUP4 DUP9 KECCAK256 PUSH2 0x1343 JUMP JUMPDEST POP SWAP4 DUP5 SLOAD ISZERO DUP1 ISZERO SWAP1 PUSH2 0xE33 JUMPI JUMPDEST ISZERO PUSH2 0xDFF JUMPI PUSH2 0xC50 DUP7 CALLER PUSH2 0x1513 JUMP JUMPDEST SWAP5 DUP6 ISZERO PUSH2 0xDCF JUMPI DUP8 PUSH1 0x2 DUP3 ADD SSTORE PUSH1 0x1 TIMESTAMP SWAP2 ADD SSTORE ISZERO PUSH2 0xDBC JUMPI DUP5 SLOAD DUP3 MLOAD PUSH4 0x70A08231 PUSH1 0xE0 SHL DUP2 MSTORE ADDRESS DUP6 DUP3 ADD MSTORE PUSH1 0x1 PUSH1 0x1 PUSH1 0xA0 SHL SUB SWAP1 SWAP2 AND SWAP4 SWAP1 DUP3 DUP2 PUSH1 0x24 DUP2 DUP9 GAS STATICCALL SWAP1 DUP2 ISZERO PUSH2 0xDB2 JUMPI SWAP1 DUP7 SWAP2 DUP10 SWAP2 PUSH2 0xD81 JUMPI JUMPDEST POP LT PUSH2 0xD49 JUMPI DUP3 MLOAD PUSH4 0xA9059CBB PUSH1 0xE0 SHL DUP2 MSTORE CALLER SWAP2 DUP2 ADD SWAP2 DUP3 MSTORE PUSH1 0x20 DUP3 ADD DUP7 SWAP1 MSTORE SWAP1 DUP3 SWAP1 DUP3 SWAP1 DUP2 SWAP1 PUSH1 0x40 ADD SUB DUP2 DUP11 DUP9 GAS CALL DUP1 ISZERO PUSH2 0x423 JUMPI SWAP2 PUSH2 0xD25 SWAP4 SWAP2 PUSH32 0x579AD409A683BAFBF650743B9466037910944FEB4A9AACCCDBCFCDAB27AB5861 SWAP6 SWAP4 PUSH2 0xD2B JUMPI JUMPDEST POP POP MLOAD SWAP4 DUP5 MSTORE PUSH1 0x1 PUSH1 0x1 PUSH1 0xA0 SHL SUB AND PUSH1 0x20 DUP5 ADD MSTORE CALLER SWAP3 SWAP1 DUP2 SWAP1 PUSH1 0x40 DUP3 ADD SWAP1 JUMP JUMPDEST SUB SWAP1 LOG3 DUP1 RETURN JUMPDEST DUP2 PUSH2 0xD41 SWAP3 SWAP1 RETURNDATASIZE LT PUSH2 0x41C JUMPI PUSH2 0x40D DUP2 DUP4 PUSH2 0x13BB JUMP JUMPDEST POP CODESIZE DUP1 PUSH2 0xD05 JUMP JUMPDEST SWAP2 MLOAD PUSH3 0x461BCD PUSH1 0xE5 SHL DUP2 MSTORE SWAP2 DUP3 ADD MSTORE PUSH1 0x14 PUSH1 0x24 DUP3 ADD MSTORE PUSH20 0x496E73756666696369656E742072657365727665 PUSH1 0x60 SHL PUSH1 0x44 DUP3 ADD MSTORE PUSH1 0x64 SWAP1 REVERT JUMPDEST DUP1 SWAP3 POP DUP5 DUP1 SWAP3 POP RETURNDATASIZE DUP4 GT PUSH2 0xDAB JUMPI JUMPDEST PUSH2 0xD9A DUP2 DUP4 PUSH2 0x13BB JUMP JUMPDEST DUP2 ADD SUB SLT PUSH2 0x589 JUMPI DUP6 SWAP1 MLOAD CODESIZE PUSH2 0xCA1 JUMP JUMPDEST POP RETURNDATASIZE PUSH2 0xD90 JUMP JUMPDEST DUP5 MLOAD RETURNDATASIZE DUP11 DUP3 RETURNDATACOPY RETURNDATASIZE SWAP1 REVERT JUMPDEST PUSH4 0x4E487B71 PUSH1 0xE0 SHL DUP7 MSTORE PUSH1 0x32 DUP4 MSTORE PUSH1 0x24 DUP7 REVERT JUMPDEST DUP4 MLOAD PUSH3 0x461BCD PUSH1 0xE5 SHL DUP2 MSTORE DUP1 DUP7 ADD DUP5 SWAP1 MSTORE PUSH1 0xA PUSH1 0x24 DUP3 ADD MSTORE PUSH10 0x4E6F2072657761726473 PUSH1 0xB0 SHL PUSH1 0x44 DUP3 ADD MSTORE PUSH1 0x64 SWAP1 REVERT JUMPDEST POP SWAP1 MLOAD PUSH3 0x461BCD PUSH1 0xE5 SHL DUP2 MSTORE SWAP2 DUP3 ADD MSTORE PUSH1 0xF PUSH1 0x24 DUP3 ADD MSTORE PUSH15 0x27379036B4B734B733903837BBB2B9 PUSH1 0x89 SHL PUSH1 0x44 DUP3 ADD MSTORE PUSH1 0x64 SWAP1 REVERT JUMPDEST POP PUSH1 0x2 DUP6 ADD SLOAD ISZERO ISZERO PUSH2 0xC41 JUMP JUMPDEST DUP5 DUP4 CALLVALUE PUSH2 0x6CB JUMPI DUP2 PUSH1 0x3 NOT CALLDATASIZE ADD SLT PUSH2 0x6CB JUMPI PUSH1 0x20 SWAP1 MLOAD PUSH15 0x22D473030F116DDEE9F6B43AC78BA3 DUP2 MSTORE RETURN JUMPDEST DUP5 DUP4 CALLVALUE PUSH2 0x6CB JUMPI DUP2 PUSH1 0x3 NOT CALLDATASIZE ADD SLT PUSH2 0x6CB JUMPI PUSH1 0x20 SWAP1 PUSH1 0xFF PUSH1 0x1F SLOAD AND SWAP1 MLOAD SWAP1 ISZERO ISZERO DUP2 MSTORE RETURN JUMPDEST POP POP SWAP1 CALLVALUE PUSH2 0x591 JUMPI PUSH1 0x60 CALLDATASIZE PUSH1 0x3 NOT ADD SLT PUSH2 0x591 JUMPI PUSH2 0xEAA PUSH2 0x12E4 JUMP JUMPDEST SWAP2 PUSH1 0x24 CALLDATALOAD SWAP1 PUSH2 0xEB7 PUSH2 0x12FF JUMP JUMPDEST PUSH1 0x7 SLOAD PUSH1 0x1 PUSH1 0x1 PUSH1 0xA0 SHL SUB SWAP1 DUP2 AND CALLER EQ DUP1 ISZERO PUSH2 0xFA5 JUMPI JUMPDEST PUSH2 0xED7 SWAP1 PUSH2 0x1449 JUMP JUMPDEST DUP1 DUP3 AND SWAP6 DUP7 ISZERO PUSH2 0xF78 JUMPI DUP4 MLOAD PUSH4 0xA9059CBB PUSH1 0xE0 SHL DUP2 MSTORE PUSH1 0x1 PUSH1 0x1 PUSH1 0xA0 SHL SUB SWAP1 SWAP4 AND SWAP6 DUP4 ADD SWAP6 DUP7 MSTORE PUSH1 0x20 DUP7 DUP2 ADD DUP7 SWAP1 MSTORE SWAP2 AND SWAP5 DUP3 SWAP1 DUP2 SWAP1 PUSH1 0x40 ADD SUB DUP2 DUP10 DUP9 GAS CALL DUP1 ISZERO PUSH2 0xF6E JUMPI SWAP2 PUSH32 0xF24EF89F38EADC1BDE50701AD6E4D6D11A2DC24F7CF834A486991F3883328504 SWAP4 SWAP2 PUSH1 0x20 SWAP4 PUSH2 0xF51 JUMPI JUMPDEST POP MLOAD SWAP1 DUP2 MSTORE LOG3 DUP1 RETURN JUMPDEST PUSH2 0xF67 SWAP1 DUP5 RETURNDATASIZE DUP7 GT PUSH2 0x41C JUMPI PUSH2 0x40D DUP2 DUP4 PUSH2 0x13BB JUMP JUMPDEST POP CODESIZE PUSH2 0xF48 JUMP JUMPDEST DUP3 MLOAD RETURNDATASIZE DUP9 DUP3 RETURNDATACOPY RETURNDATASIZE SWAP1 REVERT JUMPDEST DUP4 MLOAD PUSH3 0x461BCD PUSH1 0xE5 SHL DUP2 MSTORE PUSH1 0x20 DUP2 DUP9 ADD MSTORE PUSH1 0x7 PUSH1 0x24 DUP3 ADD MSTORE PUSH7 0x5A65726F20746F PUSH1 0xC8 SHL PUSH1 0x44 DUP3 ADD MSTORE PUSH1 0x64 SWAP1 REVERT JUMPDEST POP PUSH1 0x8 SLOAD DUP2 AND CALLER EQ PUSH2 0xECE JUMP JUMPDEST DUP5 CALLVALUE PUSH2 0x85E JUMPI DUP1 PUSH1 0x3 NOT CALLDATASIZE ADD SLT PUSH2 0x85E JUMPI PUSH1 0x7 SLOAD PUSH2 0xFE4 SWAP1 CALLER PUSH1 0x1 PUSH1 0x1 PUSH1 0xA0 SHL SUB SWAP2 DUP3 AND EQ SWAP1 DUP2 ISZERO PUSH2 0x996 JUMPI POP PUSH2 0x1449 JUMP JUMPDEST PUSH1 0xFF NOT PUSH1 0x1F SLOAD AND PUSH1 0x1F SSTORE CALLER PUSH32 0x5DB9EE0A495BF2E6FF9C91A7834C1BA4FDD244A5E8AA4E537BD38AEAE4B073AA DUP3 DUP1 LOG2 DUP1 RETURN JUMPDEST POP POP SWAP1 CALLVALUE PUSH2 0x591 JUMPI DUP3 PUSH1 0x3 NOT CALLDATASIZE ADD SLT PUSH2 0x591 JUMPI PUSH2 0x1038 PUSH1 0xFF PUSH1 0x1F SLOAD AND ISZERO PUSH2 0x13FC JUMP JUMPDEST DUP3 JUMPDEST PUSH1 0x7 DUP2 LT PUSH2 0x1046 JUMPI DUP4 DUP1 RETURN JUMPDEST CALLER DUP5 MSTORE PUSH1 0x20 SWAP1 PUSH1 0x1E DUP3 MSTORE PUSH2 0x105C DUP2 DUP6 DUP8 KECCAK256 PUSH2 0x1343 JUMP JUMPDEST POP SWAP2 DUP3 SLOAD ISZERO DUP1 PUSH2 0x11C8 JUMPI JUMPDEST PUSH2 0x11BE JUMPI PUSH2 0x1075 DUP3 CALLER PUSH2 0x1513 JUMP JUMPDEST SWAP3 DUP4 ISZERO PUSH2 0x11B3 JUMPI DUP7 PUSH1 0x2 DUP3 ADD SSTORE PUSH1 0x1 TIMESTAMP SWAP2 ADD SSTORE PUSH1 0x1 DUP1 PUSH1 0xA0 SHL SUB DUP3 SLOAD AND SWAP3 DUP6 MLOAD PUSH4 0x70A08231 PUSH1 0xE0 SHL DUP2 MSTORE ADDRESS DUP7 DUP3 ADD MSTORE DUP3 DUP2 PUSH1 0x24 DUP2 DUP9 GAS STATICCALL DUP1 ISZERO PUSH2 0x1178 JUMPI DUP3 SWAP2 DUP10 SWAP2 PUSH2 0x1182 JUMPI JUMPDEST POP LT ISZERO PUSH2 0x10D0 JUMPI JUMPDEST POP POP PUSH1 0x1 SWAP2 POP JUMPDEST ADD PUSH2 0x103A JUMP JUMPDEST DUP6 MLOAD PUSH4 0xA9059CBB PUSH1 0xE0 SHL DUP2 MSTORE CALLER DUP7 DUP3 ADD SWAP1 DUP2 MSTORE PUSH1 0x20 DUP2 ADD DUP4 SWAP1 MSTORE DUP4 SWAP1 DUP3 SWAP1 DUP2 SWAP1 PUSH1 0x40 ADD SUB DUP2 DUP12 DUP10 GAS CALL DUP1 ISZERO PUSH2 0x1178 JUMPI PUSH1 0x1 SWAP6 DUP6 SWAP5 PUSH32 0x579AD409A683BAFBF650743B9466037910944FEB4A9AACCCDBCFCDAB27AB5861 SWAP4 PUSH2 0x1150 SWAP4 PUSH2 0x115A JUMPI JUMPDEST POP POP DUP9 MLOAD SWAP4 DUP5 MSTORE PUSH1 0x1 PUSH1 0x1 PUSH1 0xA0 SHL SUB AND PUSH1 0x20 DUP5 ADD MSTORE CALLER SWAP3 SWAP1 DUP2 SWAP1 PUSH1 0x40 DUP3 ADD SWAP1 JUMP JUMPDEST SUB SWAP1 LOG3 CODESIZE DUP1 PUSH2 0x10C3 JUMP JUMPDEST DUP2 PUSH2 0x1170 SWAP3 SWAP1 RETURNDATASIZE LT PUSH2 0x41C JUMPI PUSH2 0x40D DUP2 DUP4 PUSH2 0x13BB JUMP JUMPDEST POP CODESIZE DUP1 PUSH2 0x112F JUMP JUMPDEST DUP8 MLOAD RETURNDATASIZE DUP11 DUP3 RETURNDATACOPY RETURNDATASIZE SWAP1 REVERT JUMPDEST DUP1 SWAP3 POP DUP5 DUP1 SWAP3 POP RETURNDATASIZE DUP4 GT PUSH2 0x11AC JUMPI JUMPDEST PUSH2 0x119B DUP2 DUP4 PUSH2 0x13BB JUMP JUMPDEST DUP2 ADD SUB SLT PUSH2 0x589 JUMPI DUP2 SWAP1 MLOAD CODESIZE PUSH2 0x10BB JUMP JUMPDEST POP RETURNDATASIZE PUSH2 0x1191 JUMP JUMPDEST POP POP PUSH1 0x1 SWAP2 POP PUSH2 0x10CA JUMP JUMPDEST POP PUSH1 0x1 SWAP2 POP PUSH2 0x10CA JUMP JUMPDEST POP PUSH1 0x2 DUP4 ADD SLOAD ISZERO PUSH2 0x1067 JUMP JUMPDEST DUP5 DUP4 DUP4 CALLVALUE PUSH2 0x591 JUMPI DUP3 PUSH1 0x3 NOT CALLDATASIZE ADD SLT PUSH2 0x591 JUMPI DUP2 MLOAD PUSH2 0x11F2 DUP2 PUSH2 0x136D JUMP JUMPDEST DUP4 JUMPDEST DUP3 DUP2 LT PUSH2 0x129C JUMPI DUP4 MLOAD DUP6 DUP6 PUSH2 0x1208 DUP4 PUSH2 0x136D JUMP JUMPDEST PUSH1 0x9 DUP3 DUP5 JUMPDEST PUSH1 0x7 DUP3 LT PUSH2 0x1259 JUMPI POP POP DUP2 MLOAD SWAP4 SWAP3 SWAP1 POP DUP4 JUMPDEST PUSH1 0x7 DUP3 LT PUSH2 0x122D JUMPI PUSH2 0x2A0 DUP6 RETURN JUMPDEST PUSH1 0x1 SWAP1 PUSH1 0x60 DUP6 MLOAD SWAP2 DUP3 MLOAD DUP2 MSTORE DUP6 PUSH1 0x20 SWAP4 DUP5 DUP2 ADD MLOAD DUP6 DUP5 ADD MSTORE ADD MLOAD ISZERO ISZERO DUP7 DUP3 ADD MSTORE ADD SWAP5 ADD SWAP2 ADD SWAP1 SWAP3 PUSH2 0x121F JUMP JUMPDEST PUSH1 0x3 PUSH1 0x1 SWAP2 DUP6 SWAP8 SWAP7 SWAP8 MLOAD SWAP1 PUSH2 0x126D DUP3 PUSH2 0x139F JUMP JUMPDEST DUP6 SLOAD DUP3 MSTORE DUP4 DUP7 ADD SLOAD SWAP2 PUSH1 0x20 SWAP3 DUP4 DUP3 ADD MSTORE PUSH1 0xFF PUSH1 0x2 DUP9 ADD SLOAD AND ISZERO ISZERO DUP9 DUP3 ADD MSTORE DUP2 MSTORE ADD SWAP4 ADD SWAP2 ADD SWAP1 SWAP2 SWAP5 SWAP4 SWAP5 PUSH2 0x120D JUMP JUMPDEST PUSH1 0x20 SWAP1 PUSH2 0x12A7 PUSH2 0x13DD JUMP JUMPDEST DUP2 DUP5 ADD MSTORE ADD PUSH2 0x11F4 JUMP JUMPDEST DUP6 SWAP1 DUP6 CALLVALUE PUSH2 0x591 JUMPI PUSH1 0x20 CALLDATASIZE PUSH1 0x3 NOT ADD SLT PUSH2 0x591 JUMPI CALLDATALOAD PUSH1 0x2 DUP2 LT ISZERO PUSH2 0x591 JUMPI PUSH1 0x7 ADD SLOAD PUSH1 0x1 PUSH1 0x1 PUSH1 0xA0 SHL SUB AND DUP2 MSTORE PUSH1 0x20 SWAP2 POP RETURN JUMPDEST PUSH1 0x4 CALLDATALOAD SWAP1 PUSH1 0x1 PUSH1 0x1 PUSH1 0xA0 SHL SUB DUP3 AND DUP3 SUB PUSH2 0x12FA JUMPI JUMP JUMPDEST PUSH1 0x0 DUP1 REVERT JUMPDEST PUSH1 0x44 CALLDATALOAD SWAP1 PUSH1 0x1 PUSH1 0x1 PUSH1 0xA0 SHL SUB DUP3 AND DUP3 SUB PUSH2 0x12FA JUMPI JUMP JUMPDEST PUSH1 0xE0 DUP2 ADD SWAP3 SWAP2 PUSH1 0x0 SWAP2 JUMPDEST PUSH1 0x7 DUP4 LT PUSH2 0x132C JUMPI POP POP POP JUMP JUMPDEST PUSH1 0x1 SWAP1 DUP3 MLOAD DUP2 MSTORE PUSH1 0x20 DUP1 SWAP2 ADD SWAP3 ADD SWAP3 ADD SWAP2 SWAP1 PUSH2 0x131F JUMP JUMPDEST SWAP1 PUSH1 0x7 DUP2 LT ISZERO PUSH2 0x1357 JUMPI PUSH1 0x3 MUL ADD SWAP1 PUSH1 0x0 SWAP1 JUMP JUMPDEST PUSH4 0x4E487B71 PUSH1 0xE0 SHL PUSH1 0x0 MSTORE PUSH1 0x32 PUSH1 0x4 MSTORE PUSH1 0x24 PUSH1 0x0 REVERT JUMPDEST PUSH1 0xE0 DUP2 ADD SWAP1 DUP2 LT PUSH8 0xFFFFFFFFFFFFFFFF DUP3 GT OR PUSH2 0x1389 JUMPI PUSH1 0x40 MSTORE JUMP JUMPDEST PUSH4 0x4E487B71 PUSH1 0xE0 SHL PUSH1 0x0 MSTORE PUSH1 0x41 PUSH1 0x4 MSTORE PUSH1 0x24 PUSH1 0x0 REVERT JUMPDEST PUSH1 0x60 DUP2 ADD SWAP1 DUP2 LT PUSH8 0xFFFFFFFFFFFFFFFF DUP3 GT OR PUSH2 0x1389 JUMPI PUSH1 0x40 MSTORE JUMP JUMPDEST SWAP1 PUSH1 0x1F DUP1 NOT SWAP2 ADD AND DUP2 ADD SWAP1 DUP2 LT PUSH8 0xFFFFFFFFFFFFFFFF DUP3 GT OR PUSH2 0x1389 JUMPI PUSH1 0x40 MSTORE JUMP JUMPDEST PUSH1 0x40 MLOAD SWAP1 PUSH2 0x13EA DUP3 PUSH2 0x139F JUMP JUMPDEST PUSH1 0x0 PUSH1 0x40 DUP4 DUP3 DUP2 MSTORE DUP3 PUSH1 0x20 DUP3 ADD MSTORE ADD MSTORE JUMP JUMPDEST ISZERO PUSH2 0x1403 JUMPI JUMP JUMPDEST PUSH1 0x40 MLOAD PUSH3 0x461BCD PUSH1 0xE5 SHL DUP2 MSTORE PUSH1 0x20 PUSH1 0x4 DUP3 ADD MSTORE PUSH1 0x6 PUSH1 0x24 DUP3 ADD MSTORE PUSH6 0x14185D5CD959 PUSH1 0xD2 SHL PUSH1 0x44 DUP3 ADD MSTORE PUSH1 0x64 SWAP1 REVERT JUMPDEST SWAP1 DUP2 PUSH1 0x20 SWAP2 SUB SLT PUSH2 0x12FA JUMPI MLOAD DUP1 ISZERO ISZERO DUP2 SUB PUSH2 0x12FA JUMPI SWAP1 JUMP JUMPDEST ISZERO PUSH2 0x1450 JUMPI JUMP JUMPDEST PUSH1 0x40 MLOAD PUSH3 0x461BCD PUSH1 0xE5 SHL DUP2 MSTORE PUSH1 0x20 PUSH1 0x4 DUP3 ADD MSTORE PUSH1 0x9 PUSH1 0x24 DUP3 ADD MSTORE PUSH9 0x2737BA1037BBB732B9 PUSH1 0xB9 SHL PUSH1 0x44 DUP3 ADD MSTORE PUSH1 0x64 SWAP1 REVERT JUMPDEST ISZERO PUSH2 0x1488 JUMPI JUMP JUMPDEST PUSH1 0x40 MLOAD PUSH3 0x461BCD PUSH1 0xE5 SHL DUP2 MSTORE PUSH1 0x20 PUSH1 0x4 DUP3 ADD MSTORE PUSH1 0xF PUSH1 0x24 DUP3 ADD MSTORE PUSH15 0x496E76616C6964207061636B616765 PUSH1 0x88 SHL PUSH1 0x44 DUP3 ADD MSTORE PUSH1 0x64 SWAP1 REVERT JUMPDEST SWAP1 PUSH1 0x7 DUP2 LT ISZERO PUSH2 0x1357 JUMPI PUSH1 0x5 SHL ADD SWAP1 JUMP JUMPDEST DUP2 DUP2 MUL SWAP3 SWAP2 DUP2 ISZERO SWAP2 DUP5 DIV EQ OR ISZERO PUSH2 0x14E3 JUMPI JUMP JUMPDEST PUSH4 0x4E487B71 PUSH1 0xE0 SHL PUSH1 0x0 MSTORE PUSH1 0x11 PUSH1 0x4 MSTORE PUSH1 0x24 PUSH1 0x0 REVERT JUMPDEST SWAP2 SWAP1 DUP3 SUB SWAP2 DUP3 GT PUSH2 0x14E3 JUMPI JUMP JUMPDEST SWAP2 SWAP1 DUP3 ADD DUP1 SWAP3 GT PUSH2 0x14E3 JUMPI JUMP JUMPDEST PUSH1 0x1 DUP1 PUSH1 0xA0 SHL SUB AND PUSH1 0x0 MSTORE PUSH1 0x1E PUSH1 0x20 MSTORE PUSH2 0x1531 DUP2 PUSH1 0x40 PUSH1 0x0 KECCAK256 PUSH2 0x1343 JUMP JUMPDEST POP DUP1 SLOAD SWAP2 DUP3 ISZERO PUSH2 0x1583 JUMPI PUSH2 0x1549 PUSH1 0x1 DUP4 ADD SLOAD TIMESTAMP PUSH2 0x14F9 JUMP JUMPDEST SWAP1 PUSH1 0x7 DUP2 LT ISZERO PUSH2 0x1357 JUMPI PUSH2 0x1577 PUSH1 0x2 SWAP3 PUSH2 0x1572 PUSH2 0x1580 SWAP7 PUSH1 0xA PUSH1 0x3 PUSH3 0x15180 SWAP7 MUL ADD SLOAD SWAP1 PUSH2 0x14D0 JUMP JUMPDEST PUSH2 0x14D0 JUMP JUMPDEST DIV SWAP2 ADD SLOAD PUSH2 0x1506 JUMP JUMPDEST SWAP1 JUMP JUMPDEST POP PUSH1 0x2 SWAP2 POP ADD SLOAD SWAP1 JUMP INVALID LOG2 PUSH5 0x6970667358 0x22 SLT KECCAK256 0xCC 0xCF 0xAE 0xEC 0xC2 0xDC SHR CREATE DUP13 SDIV 0xC8 0xC2 0x22 0x4C 0xEA 0x26 0xEA SWAP1 0x2F BALANCE 0xC PUSH14 0x3C9F9E493D397A0C9C6764736F6C PUSH4 0x43000818 STOP CALLER "},"methodIdentifiers":{"MAX_PACKAGES()":"9408e7b2","PERMIT2()":"6afdd850","SECONDS_PER_DAY()":"74f0314f","WLD_TOKEN()":"cdb7354a","buyPackage(uint256,uint256,((address,uint256),uint256,uint256),bytes)":"eaf4a3fa","claimAllRewards()":"0b83a727","claimPackageRewards(uint256)":"6de43ad8","emergencyWithdraw(address,uint256,address)":"551512de","getAllPackages()":"0a421f0f","getRewardTokens()":"c4f59f9b","getUserPackages(address)":"deef5378","owners(uint256)":"025e7c27","packages(uint256)":"c216212a","pause()":"8456cb59","paused()":"5c975abb","pendingPerPackage(address)":"76c07738","rewardTokens(uint256)":"7bb7bed1","setOwner(uint256,address)":"7fd39247","setPackage(uint256,uint256,uint256,bool)":"c78da6e6","unpause()":"3f4ba83a","userDailyYield(address)":"810e4538","userPackages(address,uint256)":"8bb0097b"}}}}}